{
  "contractName": "DowntimeSlasher",
  "abi": [
    {
      "inputs": [
        {
          "internalType": "bool",
          "name": "test",
          "type": "bool"
        }
      ],
      "payable": false,
      "stateMutability": "nonpayable",
      "type": "constructor"
    },
    {
      "anonymous": false,
      "inputs": [
        {
          "indexed": true,
          "internalType": "address",
          "name": "sender",
          "type": "address"
        },
        {
          "indexed": true,
          "internalType": "uint256",
          "name": "startBlock",
          "type": "uint256"
        },
        {
          "indexed": true,
          "internalType": "uint256",
          "name": "endBlock",
          "type": "uint256"
        },
        {
          "indexed": false,
          "internalType": "bytes32",
          "name": "bitmap",
          "type": "bytes32"
        }
      ],
      "name": "BitmapSetForInterval",
      "type": "event"
    },
    {
      "anonymous": false,
      "inputs": [
        {
          "indexed": true,
          "internalType": "address",
          "name": "validator",
          "type": "address"
        },
        {
          "indexed": true,
          "internalType": "uint256",
          "name": "startBlock",
          "type": "uint256"
        },
        {
          "indexed": true,
          "internalType": "uint256",
          "name": "endBlock",
          "type": "uint256"
        }
      ],
      "name": "DowntimeSlashPerformed",
      "type": "event"
    },
    {
      "anonymous": false,
      "inputs": [
        {
          "indexed": true,
          "internalType": "address",
          "name": "previousOwner",
          "type": "address"
        },
        {
          "indexed": true,
          "internalType": "address",
          "name": "newOwner",
          "type": "address"
        }
      ],
      "name": "OwnershipTransferred",
      "type": "event"
    },
    {
      "anonymous": false,
      "inputs": [
        {
          "indexed": true,
          "internalType": "address",
          "name": "registryAddress",
          "type": "address"
        }
      ],
      "name": "RegistrySet",
      "type": "event"
    },
    {
      "anonymous": false,
      "inputs": [
        {
          "indexed": false,
          "internalType": "uint256",
          "name": "interval",
          "type": "uint256"
        }
      ],
      "name": "SlashableDowntimeSet",
      "type": "event"
    },
    {
      "anonymous": false,
      "inputs": [
        {
          "indexed": false,
          "internalType": "uint256",
          "name": "penalty",
          "type": "uint256"
        },
        {
          "indexed": false,
          "internalType": "uint256",
          "name": "reward",
          "type": "uint256"
        }
      ],
      "name": "SlashingIncentivesSet",
      "type": "event"
    },
    {
      "constant": true,
      "inputs": [
        {
          "internalType": "address",
          "name": "",
          "type": "address"
        },
        {
          "internalType": "uint256",
          "name": "",
          "type": "uint256"
        },
        {
          "internalType": "uint256",
          "name": "",
          "type": "uint256"
        }
      ],
      "name": "bitmaps",
      "outputs": [
        {
          "internalType": "bytes32",
          "name": "",
          "type": "bytes32"
        }
      ],
      "payable": false,
      "stateMutability": "view",
      "type": "function"
    },
    {
      "constant": true,
      "inputs": [
        {
          "internalType": "address",
          "name": "sender",
          "type": "address"
        },
        {
          "internalType": "bytes",
          "name": "blsKey",
          "type": "bytes"
        },
        {
          "internalType": "bytes",
          "name": "blsPop",
          "type": "bytes"
        }
      ],
      "name": "checkProofOfPossession",
      "outputs": [
        {
          "internalType": "bool",
          "name": "",
          "type": "bool"
        }
      ],
      "payable": false,
      "stateMutability": "view",
      "type": "function"
    },
    {
      "constant": true,
      "inputs": [
        {
          "internalType": "uint256",
          "name": "aNumerator",
          "type": "uint256"
        },
        {
          "internalType": "uint256",
          "name": "aDenominator",
          "type": "uint256"
        },
        {
          "internalType": "uint256",
          "name": "bNumerator",
          "type": "uint256"
        },
        {
          "internalType": "uint256",
          "name": "bDenominator",
          "type": "uint256"
        },
        {
          "internalType": "uint256",
          "name": "exponent",
          "type": "uint256"
        },
        {
          "internalType": "uint256",
          "name": "_decimals",
          "type": "uint256"
        }
      ],
      "name": "fractionMulExp",
      "outputs": [
        {
          "internalType": "uint256",
          "name": "",
          "type": "uint256"
        },
        {
          "internalType": "uint256",
          "name": "",
          "type": "uint256"
        }
      ],
      "payable": false,
      "stateMutability": "view",
      "type": "function"
    },
    {
      "constant": true,
      "inputs": [
        {
          "internalType": "bytes",
          "name": "header",
          "type": "bytes"
        }
      ],
      "name": "getBlockNumberFromHeader",
      "outputs": [
        {
          "internalType": "uint256",
          "name": "",
          "type": "uint256"
        }
      ],
      "payable": false,
      "stateMutability": "view",
      "type": "function"
    },
    {
      "constant": true,
      "inputs": [],
      "name": "getEpochNumber",
      "outputs": [
        {
          "internalType": "uint256",
          "name": "",
          "type": "uint256"
        }
      ],
      "payable": false,
      "stateMutability": "view",
      "type": "function"
    },
    {
      "constant": true,
      "inputs": [
        {
          "internalType": "uint256",
          "name": "blockNumber",
          "type": "uint256"
        }
      ],
      "name": "getEpochNumberOfBlock",
      "outputs": [
        {
          "internalType": "uint256",
          "name": "",
          "type": "uint256"
        }
      ],
      "payable": false,
      "stateMutability": "view",
      "type": "function"
    },
    {
      "constant": true,
      "inputs": [],
      "name": "getEpochSize",
      "outputs": [
        {
          "internalType": "uint256",
          "name": "",
          "type": "uint256"
        }
      ],
      "payable": false,
      "stateMutability": "view",
      "type": "function"
    },
    {
      "constant": true,
      "inputs": [
        {
          "internalType": "uint256",
          "name": "blockNumber",
          "type": "uint256"
        }
      ],
      "name": "getParentSealBitmap",
      "outputs": [
        {
          "internalType": "bytes32",
          "name": "",
          "type": "bytes32"
        }
      ],
      "payable": false,
      "stateMutability": "view",
      "type": "function"
    },
    {
      "constant": true,
      "inputs": [
        {
          "internalType": "bytes",
          "name": "header",
          "type": "bytes"
        }
      ],
      "name": "getVerifiedSealBitmapFromHeader",
      "outputs": [
        {
          "internalType": "bytes32",
          "name": "",
          "type": "bytes32"
        }
      ],
      "payable": false,
      "stateMutability": "view",
      "type": "function"
    },
    {
      "constant": true,
      "inputs": [
        {
          "internalType": "address",
          "name": "validator",
          "type": "address"
        },
        {
          "internalType": "uint256",
          "name": "blockNumber",
          "type": "uint256"
        },
        {
          "internalType": "uint256",
          "name": "groupMembershipHistoryIndex",
          "type": "uint256"
        }
      ],
      "name": "groupMembershipAtBlock",
      "outputs": [
        {
          "internalType": "address",
          "name": "",
          "type": "address"
        }
      ],
      "payable": false,
      "stateMutability": "view",
      "type": "function"
    },
    {
      "constant": true,
      "inputs": [
        {
          "internalType": "bytes",
          "name": "header",
          "type": "bytes"
        }
      ],
      "name": "hashHeader",
      "outputs": [
        {
          "internalType": "bytes32",
          "name": "",
          "type": "bytes32"
        }
      ],
      "payable": false,
      "stateMutability": "view",
      "type": "function"
    },
    {
      "constant": true,
      "inputs": [],
      "name": "initialized",
      "outputs": [
        {
          "internalType": "bool",
          "name": "",
          "type": "bool"
        }
      ],
      "payable": false,
      "stateMutability": "view",
      "type": "function"
    },
    {
      "constant": true,
      "inputs": [],
      "name": "isOwner",
      "outputs": [
        {
          "internalType": "bool",
          "name": "",
          "type": "bool"
        }
      ],
      "payable": false,
      "stateMutability": "view",
      "type": "function"
    },
    {
      "constant": true,
      "inputs": [
        {
          "internalType": "address",
          "name": "",
          "type": "address"
        }
      ],
      "name": "lastSlashedBlock",
      "outputs": [
        {
          "internalType": "uint256",
          "name": "",
          "type": "uint256"
        }
      ],
      "payable": false,
      "stateMutability": "view",
      "type": "function"
    },
    {
      "constant": true,
      "inputs": [
        {
          "internalType": "uint256",
          "name": "blockNumber",
          "type": "uint256"
        }
      ],
      "name": "minQuorumSize",
      "outputs": [
        {
          "internalType": "uint256",
          "name": "",
          "type": "uint256"
        }
      ],
      "payable": false,
      "stateMutability": "view",
      "type": "function"
    },
    {
      "constant": true,
      "inputs": [],
      "name": "minQuorumSizeInCurrentSet",
      "outputs": [
        {
          "internalType": "uint256",
          "name": "",
          "type": "uint256"
        }
      ],
      "payable": false,
      "stateMutability": "view",
      "type": "function"
    },
    {
      "constant": true,
      "inputs": [],
      "name": "numberValidatorsInCurrentSet",
      "outputs": [
        {
          "internalType": "uint256",
          "name": "",
          "type": "uint256"
        }
      ],
      "payable": false,
      "stateMutability": "view",
      "type": "function"
    },
    {
      "constant": true,
      "inputs": [
        {
          "internalType": "uint256",
          "name": "blockNumber",
          "type": "uint256"
        }
      ],
      "name": "numberValidatorsInSet",
      "outputs": [
        {
          "internalType": "uint256",
          "name": "",
          "type": "uint256"
        }
      ],
      "payable": false,
      "stateMutability": "view",
      "type": "function"
    },
    {
      "constant": true,
      "inputs": [],
      "name": "owner",
      "outputs": [
        {
          "internalType": "address",
          "name": "",
          "type": "address"
        }
      ],
      "payable": false,
      "stateMutability": "view",
      "type": "function"
    },
    {
      "constant": true,
      "inputs": [],
      "name": "registry",
      "outputs": [
        {
          "internalType": "contract IRegistry",
          "name": "",
          "type": "address"
        }
      ],
      "payable": false,
      "stateMutability": "view",
      "type": "function"
    },
    {
      "constant": false,
      "inputs": [],
      "name": "renounceOwnership",
      "outputs": [],
      "payable": false,
      "stateMutability": "nonpayable",
      "type": "function"
    },
    {
      "constant": false,
      "inputs": [
        {
          "internalType": "address",
          "name": "registryAddress",
          "type": "address"
        }
      ],
      "name": "setRegistry",
      "outputs": [],
      "payable": false,
      "stateMutability": "nonpayable",
      "type": "function"
    },
    {
      "constant": false,
      "inputs": [
        {
          "internalType": "uint256",
          "name": "penalty",
          "type": "uint256"
        },
        {
          "internalType": "uint256",
          "name": "reward",
          "type": "uint256"
        }
      ],
      "name": "setSlashingIncentives",
      "outputs": [],
      "payable": false,
      "stateMutability": "nonpayable",
      "type": "function"
    },
    {
      "constant": true,
      "inputs": [],
      "name": "slashableDowntime",
      "outputs": [
        {
          "internalType": "uint256",
          "name": "",
          "type": "uint256"
        }
      ],
      "payable": false,
      "stateMutability": "view",
      "type": "function"
    },
    {
      "constant": true,
      "inputs": [],
      "name": "slashingIncentives",
      "outputs": [
        {
          "internalType": "uint256",
          "name": "penalty",
          "type": "uint256"
        },
        {
          "internalType": "uint256",
          "name": "reward",
          "type": "uint256"
        }
      ],
      "payable": false,
      "stateMutability": "view",
      "type": "function"
    },
    {
      "constant": false,
      "inputs": [
        {
          "internalType": "address",
          "name": "newOwner",
          "type": "address"
        }
      ],
      "name": "transferOwnership",
      "outputs": [],
      "payable": false,
      "stateMutability": "nonpayable",
      "type": "function"
    },
    {
      "constant": true,
      "inputs": [
        {
          "internalType": "uint256",
          "name": "index",
          "type": "uint256"
        }
      ],
      "name": "validatorSignerAddressFromCurrentSet",
      "outputs": [
        {
          "internalType": "address",
          "name": "",
          "type": "address"
        }
      ],
      "payable": false,
      "stateMutability": "view",
      "type": "function"
    },
    {
      "constant": true,
      "inputs": [
        {
          "internalType": "uint256",
          "name": "index",
          "type": "uint256"
        },
        {
          "internalType": "uint256",
          "name": "blockNumber",
          "type": "uint256"
        }
      ],
      "name": "validatorSignerAddressFromSet",
      "outputs": [
        {
          "internalType": "address",
          "name": "",
          "type": "address"
        }
      ],
      "payable": false,
      "stateMutability": "view",
      "type": "function"
    },
    {
      "constant": true,
      "inputs": [],
      "name": "getVersionNumber",
      "outputs": [
        {
          "internalType": "uint256",
          "name": "",
          "type": "uint256"
        },
        {
          "internalType": "uint256",
          "name": "",
          "type": "uint256"
        },
        {
          "internalType": "uint256",
          "name": "",
          "type": "uint256"
        },
        {
          "internalType": "uint256",
          "name": "",
          "type": "uint256"
        }
      ],
      "payable": false,
      "stateMutability": "pure",
      "type": "function"
    },
    {
      "constant": false,
      "inputs": [
        {
          "internalType": "address",
          "name": "registryAddress",
          "type": "address"
        },
        {
          "internalType": "uint256",
          "name": "_penalty",
          "type": "uint256"
        },
        {
          "internalType": "uint256",
          "name": "_reward",
          "type": "uint256"
        },
        {
          "internalType": "uint256",
          "name": "_slashableDowntime",
          "type": "uint256"
        }
      ],
      "name": "initialize",
      "outputs": [],
      "payable": false,
      "stateMutability": "nonpayable",
      "type": "function"
    },
    {
      "constant": false,
      "inputs": [
        {
          "internalType": "uint256",
          "name": "interval",
          "type": "uint256"
        }
      ],
      "name": "setSlashableDowntime",
      "outputs": [],
      "payable": false,
      "stateMutability": "nonpayable",
      "type": "function"
    },
    {
      "constant": true,
      "inputs": [
        {
          "internalType": "uint256",
          "name": "startBlock",
          "type": "uint256"
        },
        {
          "internalType": "uint256",
          "name": "endBlock",
          "type": "uint256"
        }
      ],
      "name": "getBitmapForInterval",
      "outputs": [
        {
          "internalType": "bytes32",
          "name": "",
          "type": "bytes32"
        }
      ],
      "payable": false,
      "stateMutability": "view",
      "type": "function"
    },
    {
      "constant": false,
      "inputs": [
        {
          "internalType": "uint256",
          "name": "startBlock",
          "type": "uint256"
        },
        {
          "internalType": "uint256",
          "name": "endBlock",
          "type": "uint256"
        }
      ],
      "name": "setBitmapForInterval",
      "outputs": [
        {
          "internalType": "bytes32",
          "name": "",
          "type": "bytes32"
        }
      ],
      "payable": false,
      "stateMutability": "nonpayable",
      "type": "function"
    },
    {
      "constant": true,
      "inputs": [
        {
          "internalType": "uint256",
          "name": "startBlock",
          "type": "uint256"
        },
        {
          "internalType": "uint256",
          "name": "endBlock",
          "type": "uint256"
        },
        {
          "internalType": "uint256",
          "name": "signerIndex",
          "type": "uint256"
        }
      ],
      "name": "wasDownForInterval",
      "outputs": [
        {
          "internalType": "bool",
          "name": "",
          "type": "bool"
        }
      ],
      "payable": false,
      "stateMutability": "view",
      "type": "function"
    },
    {
      "constant": true,
      "inputs": [
        {
          "internalType": "uint256",
          "name": "startBlock",
          "type": "uint256"
        },
        {
          "internalType": "uint256",
          "name": "endBlock",
          "type": "uint256"
        }
      ],
      "name": "isBitmapSetForInterval",
      "outputs": [
        {
          "internalType": "bool",
          "name": "",
          "type": "bool"
        }
      ],
      "payable": false,
      "stateMutability": "view",
      "type": "function"
    },
    {
      "constant": true,
      "inputs": [
        {
          "internalType": "uint256[]",
          "name": "startBlocks",
          "type": "uint256[]"
        },
        {
          "internalType": "uint256[]",
          "name": "endBlocks",
          "type": "uint256[]"
        },
        {
          "internalType": "uint256[]",
          "name": "signerIndices",
          "type": "uint256[]"
        }
      ],
      "name": "wasDownForIntervals",
      "outputs": [
        {
          "internalType": "bool",
          "name": "",
          "type": "bool"
        }
      ],
      "payable": false,
      "stateMutability": "view",
      "type": "function"
    },
    {
      "constant": false,
      "inputs": [
        {
          "internalType": "uint256[]",
          "name": "startBlocks",
          "type": "uint256[]"
        },
        {
          "internalType": "uint256[]",
          "name": "endBlocks",
          "type": "uint256[]"
        },
        {
          "internalType": "uint256[]",
          "name": "signerIndices",
          "type": "uint256[]"
        },
        {
          "internalType": "uint256",
          "name": "groupMembershipHistoryIndex",
          "type": "uint256"
        },
        {
          "internalType": "address[]",
          "name": "validatorElectionLessers",
          "type": "address[]"
        },
        {
          "internalType": "address[]",
          "name": "validatorElectionGreaters",
          "type": "address[]"
        },
        {
          "internalType": "uint256[]",
          "name": "validatorElectionIndices",
          "type": "uint256[]"
        },
        {
          "internalType": "address[]",
          "name": "groupElectionLessers",
          "type": "address[]"
        },
        {
          "internalType": "address[]",
          "name": "groupElectionGreaters",
          "type": "address[]"
        },
        {
          "internalType": "uint256[]",
          "name": "groupElectionIndices",
          "type": "uint256[]"
        }
      ],
      "name": "slash",
      "outputs": [],
      "payable": false,
      "stateMutability": "nonpayable",
      "type": "function"
    }
  ],
  "bytecode": "0x60806040523480156200001157600080fd5b506040516200524e3803806200524e833981810160405260208110156200003757600080fd5b8101908080519060200190929190505050808060006200005c6200012560201b60201c565b9050806000806101000a81548173ffffffffffffffffffffffffffffffffffffffff021916908373ffffffffffffffffffffffffffffffffffffffff1602179055508073ffffffffffffffffffffffffffffffffffffffff16600073ffffffffffffffffffffffffffffffffffffffff167f8be0079c531659141344cd1fd0a4f28419497f9722a3daafe3b4186f6b6457e060405160405180910390a350806200011c576001600060146101000a81548160ff0219169083151502179055505b5050506200012d565b600033905090565b615111806200013d6000396000f3fe608060405234801561001057600080fd5b50600436106102275760003560e01c806387ee8a0f11610130578063a91ee0dc116100b8578063ec611ffc1161007c578063ec611ffc146113fe578063ec68307214611458578063f2fde38b146114d3578063fae8db0a14611517578063fafec0f61461155957610227565b8063a91ee0dc1461112a578063bd0d99791461116e578063df4da461146111a6578063e252e904146111c4578063e50e652d146113bc57610227565b80638f32d59b116100ff5780638f32d59b14610ff057806391275b4f146110125780639a7b3be71461107e5780639b2b592f1461109c578063a654a494146110de57610227565b806387ee8a0f14610e2157806388498aaf14610e3f5780638a88362614610ed75780638da5cb5b14610fa657610227565b80634b2c2f44116101b35780635d180adb116101825780635d180adb14610c6857806367960e9114610ce0578063715018a614610daf5780637385e5da14610db95780637b10399914610dd757610227565b80634b2c2f4414610ad65780634d643e1714610ba55780634ec81af114610bd357806354255be014610c3557610227565b80631bf0925b116101fa5780631bf0925b14610844578063222d6b9f1461089457806323f0ab65146108ec5780633b1eb4bf14610a765780634227d97114610ab857610227565b80630a05cd841461022c578063123633ea14610251578063158ef93e146102bf578063190ad68b146102e1575b600080fd5b6102346115a5565b604051808381526020018281526020019250505060405180910390f35b61027d6004803603602081101561026757600080fd5b81019080803590602001909291905050506115b7565b604051808273ffffffffffffffffffffffffffffffffffffffff1673ffffffffffffffffffffffffffffffffffffffff16815260200191505060405180910390f35b6102c7611708565b604051808215151515815260200191505060405180910390f35b61084260048036036101408110156102f857600080fd5b810190808035906020019064010000000081111561031557600080fd5b82018360208201111561032757600080fd5b8035906020019184602083028401116401000000008311171561034957600080fd5b919080806020026020016040519081016040528093929190818152602001838360200280828437600081840152601f19601f820116905080830192505050505050509192919290803590602001906401000000008111156103a957600080fd5b8201836020820111156103bb57600080fd5b803590602001918460208302840111640100000000831117156103dd57600080fd5b919080806020026020016040519081016040528093929190818152602001838360200280828437600081840152601f19601f8201169050808301925050505050505091929192908035906020019064010000000081111561043d57600080fd5b82018360208201111561044f57600080fd5b8035906020019184602083028401116401000000008311171561047157600080fd5b919080806020026020016040519081016040528093929190818152602001838360200280828437600081840152601f19601f82011690508083019250505050505050919291929080359060200190929190803590602001906401000000008111156104db57600080fd5b8201836020820111156104ed57600080fd5b8035906020019184602083028401116401000000008311171561050f57600080fd5b919080806020026020016040519081016040528093929190818152602001838360200280828437600081840152601f19601f8201169050808301925050505050505091929192908035906020019064010000000081111561056f57600080fd5b82018360208201111561058157600080fd5b803590602001918460208302840111640100000000831117156105a357600080fd5b919080806020026020016040519081016040528093929190818152602001838360200280828437600081840152601f19601f8201169050808301925050505050505091929192908035906020019064010000000081111561060357600080fd5b82018360208201111561061557600080fd5b8035906020019184602083028401116401000000008311171561063757600080fd5b919080806020026020016040519081016040528093929190818152602001838360200280828437600081840152601f19601f8201169050808301925050505050505091929192908035906020019064010000000081111561069757600080fd5b8201836020820111156106a957600080fd5b803590602001918460208302840111640100000000831117156106cb57600080fd5b919080806020026020016040519081016040528093929190818152602001838360200280828437600081840152601f19601f8201169050808301925050505050505091929192908035906020019064010000000081111561072b57600080fd5b82018360208201111561073d57600080fd5b8035906020019184602083028401116401000000008311171561075f57600080fd5b919080806020026020016040519081016040528093929190818152602001838360200280828437600081840152601f19601f820116905080830192505050505050509192919290803590602001906401000000008111156107bf57600080fd5b8201836020820111156107d157600080fd5b803590602001918460208302840111640100000000831117156107f357600080fd5b919080806020026020016040519081016040528093929190818152602001838360200280828437600081840152601f19601f82011690508083019250505050505050919291929050505061171b565b005b61087a6004803603604081101561085a57600080fd5b8101908080359060200190929190803590602001909291905050506119c0565b604051808215151515815260200191505060405180910390f35b6108d6600480360360208110156108aa57600080fd5b81019080803573ffffffffffffffffffffffffffffffffffffffff169060200190929190505050611a32565b6040518082815260200191505060405180910390f35b610a5c6004803603606081101561090257600080fd5b81019080803573ffffffffffffffffffffffffffffffffffffffff1690602001909291908035906020019064010000000081111561093f57600080fd5b82018360208201111561095157600080fd5b8035906020019184600183028401116401000000008311171561097357600080fd5b91908080601f016020809104026020016040519081016040528093929190818152602001838380828437600081840152601f19601f820116905080830192505050505050509192919290803590602001906401000000008111156109d657600080fd5b8201836020820111156109e857600080fd5b80359060200191846001830284011164010000000083111715610a0a57600080fd5b91908080601f016020809104026020016040519081016040528093929190818152602001838380828437600081840152601f19601f820116905080830192505050505050509192919290505050611a4a565b604051808215151515815260200191505060405180910390f35b610aa260048036036020811015610a8c57600080fd5b8101908080359060200190929190505050611c03565b6040518082815260200191505060405180910390f35b610ac0611c1d565b6040518082815260200191505060405180910390f35b610b8f60048036036020811015610aec57600080fd5b8101908080359060200190640100000000811115610b0957600080fd5b820183602082011115610b1b57600080fd5b80359060200191846001830284011164010000000083111715610b3d57600080fd5b91908080601f016020809104026020016040519081016040528093929190818152602001838380828437600081840152601f19601f820116905080830192505050505050509192919290505050611c23565b6040518082815260200191505060405180910390f35b610bd160048036036020811015610bbb57600080fd5b8101908080359060200190929190505050611db7565b005b610c3360048036036080811015610be957600080fd5b81019080803573ffffffffffffffffffffffffffffffffffffffff169060200190929190803590602001909291908035906020019092919080359060200190929190505050611ecc565b005b610c3d611f95565b6040518085815260200184815260200183815260200182815260200194505050505060405180910390f35b610c9e60048036036040811015610c7e57600080fd5b810190808035906020019092919080359060200190929190505050611fbc565b604051808273ffffffffffffffffffffffffffffffffffffffff1673ffffffffffffffffffffffffffffffffffffffff16815260200191505060405180910390f35b610d9960048036036020811015610cf657600080fd5b8101908080359060200190640100000000811115610d1357600080fd5b820183602082011115610d2557600080fd5b80359060200191846001830284011164010000000083111715610d4757600080fd5b91908080601f016020809104026020016040519081016040528093929190818152602001838380828437600081840152601f19601f82011690508083019250505050505050919291929050505061210e565b6040518082815260200191505060405180910390f35b610db76122a2565b005b610dc16123db565b6040518082815260200191505060405180910390f35b610ddf6123eb565b604051808273ffffffffffffffffffffffffffffffffffffffff1673ffffffffffffffffffffffffffffffffffffffff16815260200191505060405180910390f35b610e29612411565b6040518082815260200191505060405180910390f35b610e9560048036036060811015610e5557600080fd5b81019080803573ffffffffffffffffffffffffffffffffffffffff1690602001909291908035906020019092919080359060200190929190505050612558565b604051808273ffffffffffffffffffffffffffffffffffffffff1673ffffffffffffffffffffffffffffffffffffffff16815260200191505060405180910390f35b610f9060048036036020811015610eed57600080fd5b8101908080359060200190640100000000811115610f0a57600080fd5b820183602082011115610f1c57600080fd5b80359060200191846001830284011164010000000083111715610f3e57600080fd5b91908080601f016020809104026020016040519081016040528093929190818152602001838380828437600081840152601f19601f8201169050808301925050505050505091929192905050506126c9565b6040518082815260200191505060405180910390f35b610fae61285d565b604051808273ffffffffffffffffffffffffffffffffffffffff1673ffffffffffffffffffffffffffffffffffffffff16815260200191505060405180910390f35b610ff8612886565b604051808215151515815260200191505060405180910390f35b6110686004803603606081101561102857600080fd5b81019080803573ffffffffffffffffffffffffffffffffffffffff16906020019092919080359060200190929190803590602001909291905050506128e4565b6040518082815260200191505060405180910390f35b611086612916565b6040518082815260200191505060405180910390f35b6110c8600480360360208110156110b257600080fd5b8101908080359060200190929190505050612926565b6040518082815260200191505060405180910390f35b611114600480360360408110156110f457600080fd5b810190808035906020019092919080359060200190929190505050612a6f565b6040518082815260200191505060405180910390f35b61116c6004803603602081101561114057600080fd5b81019080803573ffffffffffffffffffffffffffffffffffffffff169060200190929190505050612c84565b005b6111a46004803603604081101561118457600080fd5b810190808035906020019092919080359060200190929190505050612e28565b005b6111ae612f51565b6040518082815260200191505060405180910390f35b6113a2600480360360608110156111da57600080fd5b81019080803590602001906401000000008111156111f757600080fd5b82018360208201111561120957600080fd5b8035906020019184602083028401116401000000008311171561122b57600080fd5b919080806020026020016040519081016040528093929190818152602001838360200280828437600081840152601f19601f8201169050808301925050505050505091929192908035906020019064010000000081111561128b57600080fd5b82018360208201111561129d57600080fd5b803590602001918460208302840111640100000000831117156112bf57600080fd5b919080806020026020016040519081016040528093929190818152602001838360200280828437600081840152601f19601f8201169050808301925050505050505091929192908035906020019064010000000081111561131f57600080fd5b82018360208201111561133157600080fd5b8035906020019184602083028401116401000000008311171561135357600080fd5b919080806020026020016040519081016040528093929190818152602001838360200280828437600081840152601f19601f82011690508083019250505050505050919291929050505061308d565b604051808215151515815260200191505060405180910390f35b6113e8600480360360208110156113d257600080fd5b8101908080359060200190929190505050613575565b6040518082815260200191505060405180910390f35b61143e6004803603606081101561141457600080fd5b810190808035906020019092919080359060200190929190803590602001909291905050506135c0565b604051808215151515815260200191505060405180910390f35b6114b6600480360360c081101561146e57600080fd5b810190808035906020019092919080359060200190929190803590602001909291908035906020019092919080359060200190929190803590602001909291905050506136fa565b604051808381526020018281526020019250505060405180910390f35b611515600480360360208110156114e957600080fd5b81019080803573ffffffffffffffffffffffffffffffffffffffff16906020019092919050505061390e565b005b6115436004803603602081101561152d57600080fd5b8101908080359060200190929190505050613994565b6040518082815260200191505060405180910390f35b61158f6004803603604081101561156f57600080fd5b810190808035906020019092919080359060200190929190505050613add565b6040518082815260200191505060405180910390f35b60028060000154908060010154905082565b60006060600060fa73ffffffffffffffffffffffffffffffffffffffff16844360405160200180838152602001828152602001925050506040516020818303038152906040526040518082805190602001908083835b60208310611630578051825260208201915060208101905060208303925061160d565b6001836020036101000a038019825116818451168082178552505050505050905001915050600060405180830381855afa9150503d8060008114611690576040519150601f19603f3d011682016040523d82523d6000602084013e611695565b606091505b508093508192505050806116f4576040517f08c379a000000000000000000000000000000000000000000000000000000000815260040180806020018281038252603d815260200180614da0603d913960400191505060405180910390fd5b6116ff826000613c2a565b92505050919050565b600060149054906101000a900460ff1681565b60008a60008151811061172a57fe5b6020026020010151905060008a61174c60018d51613c4190919063ffffffff16565b8151811061175657fe5b60200260200101519050600654611789600161177b8585613c4190919063ffffffff16565b613c8b90919063ffffffff16565b10156117e0576040517f08c379a0000000000000000000000000000000000000000000000000000000008152600401808060200182810382526039815260200180614cbe6039913960400191505060405180910390fd5b60006118008b6000815181106117f257fe5b602002602001015184613d13565b9050600460008273ffffffffffffffffffffffffffffffffffffffff1673ffffffffffffffffffffffffffffffffffffffff168152602001908152602001600020548311611899576040517f08c379a0000000000000000000000000000000000000000000000000000000008152600401808060200182810382526050815260200180614cf76050913960600191505060405180910390fd5b6118a48d8d8d61308d565b611916576040517f08c379a00000000000000000000000000000000000000000000000000000000081526004018080602001828103825260088152602001807f6e6f7420646f776e00000000000000000000000000000000000000000000000081525060200191505060405180910390fd5b81600460008373ffffffffffffffffffffffffffffffffffffffff1673ffffffffffffffffffffffffffffffffffffffff1681526020019081526020016000208190555061196c8133858d8d8d8d8d8d8d613de5565b81838273ffffffffffffffffffffffffffffffffffffffff167f229d63d990a0f1068a86ee5bdce0b23fe156ff5d5174cc634d5da8ed3618e0c960405160405180910390a450505050505050505050505050565b60008060001b600560003373ffffffffffffffffffffffffffffffffffffffff1673ffffffffffffffffffffffffffffffffffffffff16815260200190815260200160002060008581526020019081526020016000206000848152602001908152602001600020541415905092915050565b60046020528060005260406000206000915090505481565b60008060fb73ffffffffffffffffffffffffffffffffffffffff16858585604051602001808473ffffffffffffffffffffffffffffffffffffffff1673ffffffffffffffffffffffffffffffffffffffff1660601b815260140183805190602001908083835b60208310611ad35780518252602082019150602081019050602083039250611ab0565b6001836020036101000a03801982511681845116808217855250505050505090500182805190602001908083835b60208310611b245780518252602082019150602081019050602083039250611b01565b6001836020036101000a03801982511681845116808217855250505050505090500193505050506040516020818303038152906040526040518082805190602001908083835b60208310611b8d5780518252602082019150602081019050602083039250611b6a565b6001836020036101000a038019825116818451168082178552505050505050905001915050600060405180830381855afa9150503d8060008114611bed576040519150601f19603f3d011682016040523d82523d6000602084013e611bf2565b606091505b505080915050809150509392505050565b6000611c1682611c11612f51565b614300565b9050919050565b60065481565b60006060600060f473ffffffffffffffffffffffffffffffffffffffff16846040516020018082805190602001908083835b60208310611c785780518252602082019150602081019050602083039250611c55565b6001836020036101000a0380198251168184511680821785525050505050509050019150506040516020818303038152906040526040518082805190602001908083835b60208310611cdf5780518252602082019150602081019050602083039250611cbc565b6001836020036101000a038019825116818451168082178552505050505050905001915050600060405180830381855afa9150503d8060008114611d3f576040519150601f19603f3d011682016040523d82523d6000602084013e611d44565b606091505b50809350819250505080611da3576040517f08c379a0000000000000000000000000000000000000000000000000000000008152600401808060200182810382526038815260200180614d476038913960400191505060405180910390fd5b611dae826000614348565b92505050919050565b611dbf612886565b611e31576040517f08c379a00000000000000000000000000000000000000000000000000000000081526004018080602001828103825260208152602001807f4f776e61626c653a2063616c6c6572206973206e6f7420746865206f776e657281525060200191505060405180910390fd5b6000811415611e8b576040517f08c379a0000000000000000000000000000000000000000000000000000000008152600401808060200182810382526021815260200180614b886021913960400191505060405180910390fd5b806006819055507fc3293b70d45615822039f6f13747ece88efbbb4e645c42070413a6c3fd21d771816040518082815260200191505060405180910390a150565b600060149054906101000a900460ff1615611f4f576040517f08c379a000000000000000000000000000000000000000000000000000000000815260040180806020018281038252601c8152602001807f636f6e747261637420616c726561647920696e697469616c697a65640000000081525060200191505060405180910390fd5b6001600060146101000a81548160ff021916908315150217905550611f73336143e9565b611f7c84612c84565b611f868383612e28565b611f8f81611db7565b50505050565b60008060008060026000806000839350829250819150809050935093509350935090919293565b60006060600060fa73ffffffffffffffffffffffffffffffffffffffff16858560405160200180838152602001828152602001925050506040516020818303038152906040526040518082805190602001908083835b602083106120355780518252602082019150602081019050602083039250612012565b6001836020036101000a038019825116818451168082178552505050505050905001915050600060405180830381855afa9150503d8060008114612095576040519150601f19603f3d011682016040523d82523d6000602084013e61209a565b606091505b508093508192505050806120f9576040517f08c379a0000000000000000000000000000000000000000000000000000000008152600401808060200182810382526036815260200180614e8d6036913960400191505060405180910390fd5b612104826000613c2a565b9250505092915050565b60006060600060f673ffffffffffffffffffffffffffffffffffffffff16846040516020018082805190602001908083835b602083106121635780518252602082019150602081019050602083039250612140565b6001836020036101000a0380198251168184511680821785525050505050509050019150506040516020818303038152906040526040518082805190602001908083835b602083106121ca57805182526020820191506020810190506020830392506121a7565b6001836020036101000a038019825116818451168082178552505050505050905001915050600060405180830381855afa9150503d806000811461222a576040519150601f19603f3d011682016040523d82523d6000602084013e61222f565b606091505b5080935081925050508061228e576040517f08c379a00000000000000000000000000000000000000000000000000000000081526004018080602001828103825260238152602001806150ba6023913960400191505060405180910390fd5b612299826000614348565b92505050919050565b6122aa612886565b61231c576040517f08c379a00000000000000000000000000000000000000000000000000000000081526004018080602001828103825260208152602001807f4f776e61626c653a2063616c6c6572206973206e6f7420746865206f776e657281525060200191505060405180910390fd5b600073ffffffffffffffffffffffffffffffffffffffff166000809054906101000a900473ffffffffffffffffffffffffffffffffffffffff1673ffffffffffffffffffffffffffffffffffffffff167f8be0079c531659141344cd1fd0a4f28419497f9722a3daafe3b4186f6b6457e060405160405180910390a360008060006101000a81548173ffffffffffffffffffffffffffffffffffffffff021916908373ffffffffffffffffffffffffffffffffffffffff160217905550565b60006123e643613575565b905090565b600160009054906101000a900473ffffffffffffffffffffffffffffffffffffffff1681565b60006060600060f973ffffffffffffffffffffffffffffffffffffffff1643604051602001808281526020019150506040516020818303038152906040526040518082805190602001908083835b60208310612482578051825260208201915060208101905060208303925061245f565b6001836020036101000a038019825116818451168082178552505050505050905001915050600060405180830381855afa9150503d80600081146124e2576040519150601f19603f3d011682016040523d82523d6000602084013e6124e7565b606091505b50809350819250505080612546576040517f08c379a0000000000000000000000000000000000000000000000000000000008152600401808060200182810382526035815260200180614ddd6035913960400191505060405180910390fd5b612551826000613c2a565b9250505090565b60008061256484611c03565b905060008114156125dd576040517f08c379a00000000000000000000000000000000000000000000000000000000081526004018080602001828103825260178152602001807f43616e6e6f7420736c617368206f6e2065706f6368203000000000000000000081525060200191505060405180910390fd5b6125e561452d565b73ffffffffffffffffffffffffffffffffffffffff1663eb1d0b4286612615600185613c4190919063ffffffff16565b866040518463ffffffff1660e01b8152600401808473ffffffffffffffffffffffffffffffffffffffff1673ffffffffffffffffffffffffffffffffffffffff168152602001838152602001828152602001935050505060206040518083038186803b15801561268457600080fd5b505afa158015612698573d6000803e3d6000fd5b505050506040513d60208110156126ae57600080fd5b81019080805190602001909291905050509150509392505050565b60006060600060f773ffffffffffffffffffffffffffffffffffffffff16846040516020018082805190602001908083835b6020831061271e57805182526020820191506020810190506020830392506126fb565b6001836020036101000a0380198251168184511680821785525050505050509050019150506040516020818303038152906040526040518082805190602001908083835b602083106127855780518252602082019150602081019050602083039250612762565b6001836020036101000a038019825116818451168082178552505050505050905001915050600060405180830381855afa9150503d80600081146127e5576040519150601f19603f3d011682016040523d82523d6000602084013e6127ea565b606091505b50809350819250505080612849576040517f08c379a0000000000000000000000000000000000000000000000000000000008152600401808060200182810382526031815260200180614fec6031913960400191505060405180910390fd5b612854826000613c2a565b92505050919050565b60008060009054906101000a900473ffffffffffffffffffffffffffffffffffffffff16905090565b60008060009054906101000a900473ffffffffffffffffffffffffffffffffffffffff1673ffffffffffffffffffffffffffffffffffffffff166128c8614628565b73ffffffffffffffffffffffffffffffffffffffff1614905090565b600560205282600052604060002060205281600052604060002060205280600052604060002060009250925050505481565b600061292143611c03565b905090565b60006060600060f973ffffffffffffffffffffffffffffffffffffffff1684604051602001808281526020019150506040516020818303038152906040526040518082805190602001908083835b602083106129975780518252602082019150602081019050602083039250612974565b6001836020036101000a038019825116818451168082178552505050505050905001915050600060405180830381855afa9150503d80600081146129f7576040519150601f19603f3d011682016040523d82523d6000602084013e6129fc565b606091505b50809350819250505080612a5b576040517f08c379a000000000000000000000000000000000000000000000000000000000815260040180806020018281038252602e815260200180614ba9602e913960400191505060405180910390fd5b612a66826000613c2a565b92505050919050565b600082821015612aca576040517f08c379a0000000000000000000000000000000000000000000000000000000008152600401808060200182810382526031815260200180614f306031913960400191505060405180910390fd5b6000612ae0600243613c4190919063ffffffff16565b905080831115612b3b576040517f08c379a00000000000000000000000000000000000000000000000000000000081526004018080602001828103825260368152602001806150846036913960400191505060405180910390fd5b6000612b45612f51565b9050612b5b60048261463090919063ffffffff16565b612b6e8643613c4190919063ffffffff16565b10612bc4576040517f08c379a000000000000000000000000000000000000000000000000000000000815260040180806020018281038252603681526020018061501d6036913960400191505060405180910390fd5b612bce8482614300565b612bd88683614300565b14612c2e576040517f08c379a00000000000000000000000000000000000000000000000000000000081526004018080602001828103825260318152602001806150536031913960400191505060405180910390fd5b6000808690505b858111612c7757612c58612c53600183613c8b90919063ffffffff16565b613994565b82179150612c70600182613c8b90919063ffffffff16565b9050612c35565b5080935050505092915050565b612c8c612886565b612cfe576040517f08c379a00000000000000000000000000000000000000000000000000000000081526004018080602001828103825260208152602001807f4f776e61626c653a2063616c6c6572206973206e6f7420746865206f776e657281525060200191505060405180910390fd5b600073ffffffffffffffffffffffffffffffffffffffff168173ffffffffffffffffffffffffffffffffffffffff161415612da1576040517f08c379a00000000000000000000000000000000000000000000000000000000081526004018080602001828103825260208152602001807f43616e6e6f7420726567697374657220746865206e756c6c206164647265737381525060200191505060405180910390fd5b80600160006101000a81548173ffffffffffffffffffffffffffffffffffffffff021916908373ffffffffffffffffffffffffffffffffffffffff1602179055508073ffffffffffffffffffffffffffffffffffffffff167f27fe5f0c1c3b1ed427cc63d0f05759ffdecf9aec9e18d31ef366fc8a6cb5dc3b60405160405180910390a250565b612e30612886565b612ea2576040517f08c379a00000000000000000000000000000000000000000000000000000000081526004018080602001828103825260208152602001807f4f776e61626c653a2063616c6c6572206973206e6f7420746865206f776e657281525060200191505060405180910390fd5b808211612efa576040517f08c379a0000000000000000000000000000000000000000000000000000000008152600401808060200182810382526024815260200180614bd76024913960400191505060405180910390fd5b81600260000181905550806002600101819055507f716dc7c34384df36c6ccc5a2949f2ce9b019f5d4075ef39139a80038a4fdd1c38282604051808381526020018281526020019250505060405180910390a15050565b60006060600060f873ffffffffffffffffffffffffffffffffffffffff166040516020016040516020818303038152906040526040518082805190602001908083835b60208310612fb75780518252602082019150602081019050602083039250612f94565b6001836020036101000a038019825116818451168082178552505050505050905001915050600060405180830381855afa9150503d8060008114613017576040519150601f19603f3d011682016040523d82523d6000602084013e61301c565b606091505b5080935081925050508061307b576040517f08c379a0000000000000000000000000000000000000000000000000000000008152600401808060200182810382526025815260200180614f0b6025913960400191505060405180910390fd5b613086826000613c2a565b9250505090565b600080845111613105576040517f08c379a000000000000000000000000000000000000000000000000000000000815260040180806020018281038252601e8152602001807f7265717569726573206174206c65617374206f6e6520696e74657276616c000081525060200191505060405180910390fd5b825184511461315f576040517f08c379a0000000000000000000000000000000000000000000000000000000008152600401808060200182810382526033815260200180614c4a6033913960400191505060405180910390fd5b60008251116131b9576040517f08c379a0000000000000000000000000000000000000000000000000000000008152600401808060200182810382526021815260200180614d7f6021913960400191505060405180910390fd5b60006131c3612f51565b9050600080905060008090505b86518110156135665760008111156134f7578681815181106131ee57fe5b60200260200101518761320b600184613c4190919063ffffffff16565b8151811061321557fe5b602002602001015110613273576040517f08c379a0000000000000000000000000000000000000000000000000000000008152600401808060200182810382526041815260200180614c7d6041913960600191505060405180910390fd5b6132ad60018761328d600185613c4190919063ffffffff16565b8151811061329757fe5b6020026020010151613c8b90919063ffffffff16565b8782815181106132b957fe5b60200260200101511115613318576040517f08c379a0000000000000000000000000000000000000000000000000000000008152600401808060200182810382526051815260200180614e126051913960600191505060405180910390fd5b85818151811061332457fe5b602002602001015186613341600184613c4190919063ffffffff16565b8151811061334b57fe5b6020026020010151106133a9576040517f08c379a000000000000000000000000000000000000000000000000000000000815260040180806020018281038252603d815260200180614f83603d913960400191505060405180910390fd5b60016133d1848984815181106133bb57fe5b60200260200101516146b690919063ffffffff16565b14156134f65761341a856133ef600185613c8b90919063ffffffff16565b815181106133f957fe5b602002602001015188838151811061340d57fe5b6020026020010151613d13565b73ffffffffffffffffffffffffffffffffffffffff1661347386848151811061343f57fe5b602002602001015161346e60018b868151811061345857fe5b6020026020010151613c4190919063ffffffff16565b613d13565b73ffffffffffffffffffffffffffffffffffffffff16146134df576040517f08c379a000000000000000000000000000000000000000000000000000000000815260040180806020018281038252602a815260200180614e63602a913960400191505060405180910390fd5b6134f3600183613c8b90919063ffffffff16565b91505b5b61353b87828151811061350657fe5b602002602001015187838151811061351a57fe5b602002602001015187858151811061352e57fe5b60200260200101516135c0565b61354b576000935050505061356e565b61355f600182613c8b90919063ffffffff16565b90506131d0565b506001925050505b9392505050565b60006135b960036135ab600261359d600261358f88612926565b61463090919063ffffffff16565b613c8b90919063ffffffff16565b61470090919063ffffffff16565b9050919050565b60006135cb84612926565b8210613622576040517f08c379a0000000000000000000000000000000000000000000000000000000008152600401808060200182810382526022815260200180614f616022913960400191505060405180910390fd5b61362c84846119c0565b613681576040517f08c379a0000000000000000000000000000000000000000000000000000000008152600401808060200182810382526029815260200180614bfb6029913960400191505060405180910390fd5b6000801b826001901b60001b600560003373ffffffffffffffffffffffffffffffffffffffff1673ffffffffffffffffffffffffffffffffffffffff1681526020019081526020016000206000878152602001908152602001600020600086815260200190815260200160002054161490509392505050565b6000806000871415801561370f575060008514155b613781576040517f08c379a00000000000000000000000000000000000000000000000000000000081526004018080602001828103825260158152602001807f612064656e6f6d696e61746f72206973207a65726f000000000000000000000081525060200191505060405180910390fd5b6000806000606060fc73ffffffffffffffffffffffffffffffffffffffff168c8c8c8c8c8c6040516020018087815260200186815260200185815260200184815260200183815260200182815260200196505050505050506040516020818303038152906040526040518082805190602001908083835b6020831061381b57805182526020820191506020810190506020830392506137f8565b6001836020036101000a038019825116818451168082178552505050505050905001915050600060405180830381855afa9150503d806000811461387b576040519150601f19603f3d011682016040523d82523d6000602084013e613880565b606091505b508092508193505050816138df576040517f08c379a0000000000000000000000000000000000000000000000000000000008152600401808060200182810382526027815260200180614ee46027913960400191505060405180910390fd5b6138ea816000613c2a565b93506138f7816020613c2a565b925083839550955050505050965096945050505050565b613916612886565b613988576040517f08c379a00000000000000000000000000000000000000000000000000000000081526004018080602001828103825260208152602001807f4f776e61626c653a2063616c6c6572206973206e6f7420746865206f776e657281525060200191505060405180910390fd5b613991816143e9565b50565b60006060600060f573ffffffffffffffffffffffffffffffffffffffff1684604051602001808281526020019150506040516020818303038152906040526040518082805190602001908083835b60208310613a0557805182526020820191506020810190506020830392506139e2565b6001836020036101000a038019825116818451168082178552505050505050905001915050600060405180830381855afa9150503d8060008114613a65576040519150601f19603f3d011682016040523d82523d6000602084013e613a6a565b606091505b50809350819250505080613ac9576040517f08c379a000000000000000000000000000000000000000000000000000000000815260040180806020018281038252602c815260200180614fc0602c913960400191505060405180910390fd5b613ad4826000614348565b92505050919050565b6000613ae983836119c0565b15613b5c576040517f08c379a00000000000000000000000000000000000000000000000000000000081526004018080602001828103825260128152602001807f6269746d617020616c726561647920736574000000000000000000000000000081525060200191505060405180910390fd5b6000613b688484612a6f565b905080600560003373ffffffffffffffffffffffffffffffffffffffff1673ffffffffffffffffffffffffffffffffffffffff168152602001908152602001600020600086815260200190815260200160002060008581526020019081526020016000208190555082843373ffffffffffffffffffffffffffffffffffffffff167f0aa96aa275a5f936eed2a6a01f082594744dcc2510f575101366f8f479f03235846040518082815260200191505060405180910390a48091505092915050565b6000613c368383614348565b60001c905092915050565b6000613c8383836040518060400160405280601e81526020017f536166654d6174683a207375627472616374696f6e206f766572666c6f77000081525061474a565b905092915050565b600080828401905083811015613d09576040517f08c379a000000000000000000000000000000000000000000000000000000000815260040180806020018281038252601b8152602001807f536166654d6174683a206164646974696f6e206f766572666c6f77000000000081525060200191505060405180910390fd5b8091505092915050565b6000613d1d61480a565b73ffffffffffffffffffffffffffffffffffffffff166393c5c487613d428585611fbc565b6040518263ffffffff1660e01b8152600401808273ffffffffffffffffffffffffffffffffffffffff1673ffffffffffffffffffffffffffffffffffffffff16815260200191505060206040518083038186803b158015613da257600080fd5b505afa158015613db6573d6000803e3d6000fd5b505050506040513d6020811015613dcc57600080fd5b8101908080519060200190929190505050905092915050565b6000613def614905565b90508073ffffffffffffffffffffffffffffffffffffffff166331993fc98c6002600001548d6002600101548c8c8c6040518863ffffffff1660e01b8152600401808873ffffffffffffffffffffffffffffffffffffffff1673ffffffffffffffffffffffffffffffffffffffff1681526020018781526020018673ffffffffffffffffffffffffffffffffffffffff1673ffffffffffffffffffffffffffffffffffffffff168152602001858152602001806020018060200180602001848103845287818151815260200191508051906020019060200280838360005b83811015613ee8578082015181840152602081019050613ecd565b50505050905001848103835286818151815260200191508051906020019060200280838360005b83811015613f2a578082015181840152602081019050613f0f565b50505050905001848103825285818151815260200191508051906020019060200280838360005b83811015613f6c578082015181840152602081019050613f51565b505050509050019a5050505050505050505050600060405180830381600087803b158015613f9957600080fd5b505af1158015613fad573d6000803e3d6000fd5b505050506000613fbe8c8b8b612558565b9050600073ffffffffffffffffffffffffffffffffffffffff168173ffffffffffffffffffffffffffffffffffffffff161415613ff757fe5b8173ffffffffffffffffffffffffffffffffffffffff166331993fc9826002600001548e6002600101548a8a8a6040518863ffffffff1660e01b8152600401808873ffffffffffffffffffffffffffffffffffffffff1673ffffffffffffffffffffffffffffffffffffffff1681526020018781526020018673ffffffffffffffffffffffffffffffffffffffff1673ffffffffffffffffffffffffffffffffffffffff168152602001858152602001806020018060200180602001848103845287818151815260200191508051906020019060200280838360005b838110156140ee5780820151818401526020810190506140d3565b50505050905001848103835286818151815260200191508051906020019060200280838360005b83811015614130578082015181840152602081019050614115565b50505050905001848103825285818151815260200191508051906020019060200280838360005b83811015614172578082015181840152602081019050614157565b505050509050019a5050505050505050505050600060405180830381600087803b15801561419f57600080fd5b505af11580156141b3573d6000803e3d6000fd5b5050505060006141c161452d565b90508073ffffffffffffffffffffffffffffffffffffffff1663e33301aa8e6040518263ffffffff1660e01b8152600401808273ffffffffffffffffffffffffffffffffffffffff1673ffffffffffffffffffffffffffffffffffffffff168152602001915050600060405180830381600087803b15801561424257600080fd5b505af1158015614256573d6000803e3d6000fd5b505050508073ffffffffffffffffffffffffffffffffffffffff1663c22d3bba836040518263ffffffff1660e01b8152600401808273ffffffffffffffffffffffffffffffffffffffff1673ffffffffffffffffffffffffffffffffffffffff168152602001915050600060405180830381600087803b1580156142d957600080fd5b505af11580156142ed573d6000803e3d6000fd5b5050505050505050505050505050505050565b60008082848161430c57fe5b049050600083858161431a57fe5b06141561432a5780915050614342565b61433e600182613c8b90919063ffffffff16565b9150505b92915050565b600061435e602083613c8b90919063ffffffff16565b835110156143d4576040517f08c379a00000000000000000000000000000000000000000000000000000000081526004018080602001828103825260148152602001807f736c6963696e67206f7574206f662072616e676500000000000000000000000081525060200191505060405180910390fd5b60006020830184015190508091505092915050565b600073ffffffffffffffffffffffffffffffffffffffff168173ffffffffffffffffffffffffffffffffffffffff16141561446f576040517f08c379a0000000000000000000000000000000000000000000000000000000008152600401808060200182810382526026815260200180614c246026913960400191505060405180910390fd5b8073ffffffffffffffffffffffffffffffffffffffff166000809054906101000a900473ffffffffffffffffffffffffffffffffffffffff1673ffffffffffffffffffffffffffffffffffffffff167f8be0079c531659141344cd1fd0a4f28419497f9722a3daafe3b4186f6b6457e060405160405180910390a3806000806101000a81548173ffffffffffffffffffffffffffffffffffffffff021916908373ffffffffffffffffffffffffffffffffffffffff16021790555050565b6000600160009054906101000a900473ffffffffffffffffffffffffffffffffffffffff1673ffffffffffffffffffffffffffffffffffffffff1663dcf0aaed60405160200180807f56616c696461746f727300000000000000000000000000000000000000000000815250600a019050604051602081830303815290604052805190602001206040518263ffffffff1660e01b81526004018082815260200191505060206040518083038186803b1580156145e857600080fd5b505afa1580156145fc573d6000803e3d6000fd5b505050506040513d602081101561461257600080fd5b8101908080519060200190929190505050905090565b600033905090565b60008083141561464357600090506146b0565b600082840290508284828161465457fe5b04146146ab576040517f08c379a0000000000000000000000000000000000000000000000000000000008152600401808060200182810382526021815260200180614ec36021913960400191505060405180910390fd5b809150505b92915050565b60006146f883836040518060400160405280601881526020017f536166654d6174683a206d6f64756c6f206279207a65726f0000000000000000815250614a00565b905092915050565b600061474283836040518060400160405280601a81526020017f536166654d6174683a206469766973696f6e206279207a65726f000000000000815250614ac1565b905092915050565b60008383111582906147f7576040517f08c379a00000000000000000000000000000000000000000000000000000000081526004018080602001828103825283818151815260200191508051906020019080838360005b838110156147bc5780820151818401526020810190506147a1565b50505050905090810190601f1680156147e95780820380516001836020036101000a031916815260200191505b509250505060405180910390fd5b5060008385039050809150509392505050565b6000600160009054906101000a900473ffffffffffffffffffffffffffffffffffffffff1673ffffffffffffffffffffffffffffffffffffffff1663dcf0aaed60405160200180807f4163636f756e74730000000000000000000000000000000000000000000000008152506008019050604051602081830303815290604052805190602001206040518263ffffffff1660e01b81526004018082815260200191505060206040518083038186803b1580156148c557600080fd5b505afa1580156148d9573d6000803e3d6000fd5b505050506040513d60208110156148ef57600080fd5b8101908080519060200190929190505050905090565b6000600160009054906101000a900473ffffffffffffffffffffffffffffffffffffffff1673ffffffffffffffffffffffffffffffffffffffff1663dcf0aaed60405160200180807f4c6f636b6564476f6c6400000000000000000000000000000000000000000000815250600a019050604051602081830303815290604052805190602001206040518263ffffffff1660e01b81526004018082815260200191505060206040518083038186803b1580156149c057600080fd5b505afa1580156149d4573d6000803e3d6000fd5b505050506040513d60208110156149ea57600080fd5b8101908080519060200190929190505050905090565b6000808314158290614aad576040517f08c379a00000000000000000000000000000000000000000000000000000000081526004018080602001828103825283818151815260200191508051906020019080838360005b83811015614a72578082015181840152602081019050614a57565b50505050905090810190601f168015614a9f5780820380516001836020036101000a031916815260200191505b509250505060405180910390fd5b50828481614ab757fe5b0690509392505050565b60008083118290614b6d576040517f08c379a00000000000000000000000000000000000000000000000000000000081526004018080602001828103825283818151815260200191508051906020019080838360005b83811015614b32578082015181840152602081019050614b17565b50505050905090810190601f168015614b5f5780820380516001836020036101000a031916815260200191505b509250505060405180910390fd5b506000838581614b7957fe5b04905080915050939250505056fe736c61736861626c6520646f776e74696d652063616e6e6f74206265207a65726f6572726f722063616c6c696e67206e756d62657256616c696461746f7273496e53657420707265636f6d70696c6550656e616c74792068617320746f206265206c6172676572207468616e207265776172646269746d617020666f722073706563696669656420696e74657276616c206e6f7420796574207365744f776e61626c653a206e6577206f776e657220697320746865207a65726f20616464726573737374617274426c6f636b7320616e6420656e64426c6f636b73206d7573742068617665207468652073616d65206c656e6774686561636820696e74657276616c206d75737420737461727420616674657220746865207374617274206f66207468652070726576696f757320696e74657276616c7468652070726f766964656420696e74657276616c73206d757374207370616e20736c61736861626c65446f776e74696d6520626c6f636b7363616e6e6f7420736c6173682076616c696461746f7220666f7220646f776e74696d6520666f722077686963682074686579206d617920616c72656164792068617665206265656e20736c61736865646572726f722063616c6c696e672067657456657269666965645365616c4269746d617046726f6d48656164657220707265636f6d70696c657265717569726573206174206c65617374206f6e65207369676e6572496e6465786572726f722063616c6c696e672076616c696461746f725369676e65724164647265737346726f6d43757272656e7453657420707265636f6d70696c656572726f722063616c6c696e67206e756d62657256616c696461746f7273496e43757272656e7453657420707265636f6d70696c656561636820696e74657276616c206d757374207374617274206174206d6f7374206f6e6520626c6f636b2061667465722074686520656e64206f66207468652070726576696f757320696e74657276616c696e646963657320646f206e6f7420706f696e7420746f207468652073616d652076616c696461746f726572726f722063616c6c696e672076616c696461746f725369676e65724164647265737346726f6d53657420707265636f6d70696c65536166654d6174683a206d756c7469706c69636174696f6e206f766572666c6f776572726f722063616c6c696e67206672616374696f6e4d756c45787020707265636f6d70696c656572726f722063616c6c696e672067657445706f636853697a6520707265636f6d70696c65656e64426c6f636b206d7573742062652067726561746572206f7220657175616c207468616e207374617274426c6f636b6261642076616c696461746f7220696e64657820617420737461727420626c6f636b6561636820696e74657276616c206d75737420656e642061667465722074686520656e64206f66207468652070726576696f757320696e74657276616c6572726f722063616c6c696e6720676574506172656e745365616c4269746d617020707265636f6d70696c656572726f722063616c6c696e6720676574426c6f636b4e756d62657246726f6d48656164657220707265636f6d70696c657374617274426c6f636b206d7573742062652077697468696e20342065706f636873206f66207468652063757272656e7420686561647374617274426c6f636b20616e6420656e64426c6f636b206d75737420626520696e207468652073616d652065706f6368746865207369676e6174757265206269746d617020666f7220656e64426c6f636b206973206e6f742079657420617661696c61626c656572726f722063616c6c696e67206861736848656164657220707265636f6d70696c65a265627a7a723158204796d79939c5b83eced0447fcb7dc6e5e7abdf55d18e58590ba41856de72c8b064736f6c634300050d0032",
  "source": "pragma solidity ^0.5.13;\n\nimport \"openzeppelin-solidity/contracts/ownership/Ownable.sol\";\nimport \"openzeppelin-solidity/contracts/math/SafeMath.sol\";\n\nimport \"./SlasherUtil.sol\";\nimport \"../common/interfaces/ICeloVersionedContract.sol\";\n\ncontract DowntimeSlasher is ICeloVersionedContract, SlasherUtil {\n  using SafeMath for uint256;\n\n  // Maps validator address -> end block of the latest interval for which it has been slashed.\n  mapping(address => uint256) public lastSlashedBlock;\n\n  // Maps user address -> startBlock -> endBlock -> signature bitmap for that interval.\n  // Note that startBlock and endBlock must always be in the same epoch.\n  mapping(address => mapping(uint256 => mapping(uint256 => bytes32))) public bitmaps;\n\n  uint256 public slashableDowntime;\n\n  event SlashableDowntimeSet(uint256 interval);\n  event DowntimeSlashPerformed(\n    address indexed validator,\n    uint256 indexed startBlock,\n    uint256 indexed endBlock\n  );\n  event BitmapSetForInterval(\n    address indexed sender,\n    uint256 indexed startBlock,\n    uint256 indexed endBlock,\n    bytes32 bitmap\n  );\n\n  /**\n   * @notice Returns the storage, major, minor, and patch version of the contract.\n   * @return The storage, major, minor, and patch version of the contract.\n   */\n  function getVersionNumber() external pure returns (uint256, uint256, uint256, uint256) {\n    return (2, 0, 0, 0);\n  }\n\n  /**\n   * @notice Sets initialized == true on implementation contracts\n   * @param test Set to true to skip implementation initialization\n   */\n  constructor(bool test) public SlasherUtil(test) {}\n\n  /**\n   * @notice Used in place of the constructor to allow the contract to be upgradable via proxy.\n   * @param registryAddress The address of the registry core smart contract.\n   * @param _penalty Penalty for the slashed validator.\n   * @param _reward Reward that the observer gets.\n   * @param _slashableDowntime Slashable downtime in blocks.\n   */\n  function initialize(\n    address registryAddress,\n    uint256 _penalty,\n    uint256 _reward,\n    uint256 _slashableDowntime\n  ) external initializer {\n    _transferOwnership(msg.sender);\n    setRegistry(registryAddress);\n    setSlashingIncentives(_penalty, _reward);\n    setSlashableDowntime(_slashableDowntime);\n  }\n\n  /**\n   * @notice Sets the slashable downtime.\n   * @param interval Slashable downtime in blocks.\n   */\n  function setSlashableDowntime(uint256 interval) public onlyOwner {\n    require(interval != 0, \"slashable downtime cannot be zero\");\n    slashableDowntime = interval;\n    emit SlashableDowntimeSet(interval);\n  }\n\n  /**\n   * @notice Calculates and returns the signature bitmap for the specified interval.\n   * This bitmap will contain a one for any validator that signed at least one block in that\n   * interval, and zero otherwise.\n   * @param startBlock First block of the interval.\n   * @param endBlock Last block of the interval.\n   * @return The signature uptime bitmap for the specified interval.\n   * @dev startBlock and endBlock must be in the same epoch.\n   * @dev The getParentSealBitmap precompile requires that startBlock must be within 4 epochs of \n   * the current block.\n   */\n  function getBitmapForInterval(uint256 startBlock, uint256 endBlock)\n    public\n    view\n    returns (bytes32)\n  {\n    require(endBlock >= startBlock, \"endBlock must be greater or equal than startBlock\");\n    // The signature bitmap for block N is stored in block N+1.\n    // The latest block is `block.number - 1`, which stores the signature bitmap for\n    // `block.number - 2`.\n    uint256 lastBlockWithSignatureBitmap = block.number.sub(2);\n    require(\n      endBlock <= lastBlockWithSignatureBitmap,\n      \"the signature bitmap for endBlock is not yet available\"\n    );\n    uint256 epochSize = getEpochSize();\n    require(\n      block.number.sub(startBlock) < epochSize.mul(4),\n      \"startBlock must be within 4 epochs of the current head\"\n    );\n    require(\n      epochNumberOfBlock(startBlock, epochSize) == epochNumberOfBlock(endBlock, epochSize),\n      \"startBlock and endBlock must be in the same epoch\"\n    );\n\n    bytes32 bitmap;\n    for (\n      uint256 blockNumber = startBlock;\n      blockNumber <= endBlock;\n      blockNumber = blockNumber.add(1)\n    ) {\n      // The canonical signatures for block N are stored in the parent seal bitmap for block N+1.\n      bitmap |= getParentSealBitmap(blockNumber.add(1));\n    }\n\n    return bitmap;\n  }\n\n  /**\n   * @notice Calculates and sets the signature bitmap for the specified interval.\n   * @param startBlock First block of the interval.\n   * @param endBlock Last block of the interval.\n   * @return The signature bitmap for the specified interval.\n   * @dev startBlock and endBlock must be in the same epoch.\n   */\n  function setBitmapForInterval(uint256 startBlock, uint256 endBlock) public returns (bytes32) {\n    require(!isBitmapSetForInterval(startBlock, endBlock), \"bitmap already set\");\n\n    bytes32 bitmap = getBitmapForInterval(startBlock, endBlock);\n    bitmaps[msg.sender][startBlock][endBlock] = bitmap;\n\n    emit BitmapSetForInterval(msg.sender, startBlock, endBlock, bitmap);\n\n    return bitmap;\n  }\n\n  /**\n   * @notice Returns true if the validator did not sign any blocks in the specified interval.\n   * @param startBlock First block of the interval.\n   * @param endBlock Last block of the interval.\n   * @param signerIndex Index of the signer within the validator set.\n   * @return True if the validator did not sign any blocks in the specified interval.\n   * @dev Both startBlock and endBlock should be part of the same epoch.\n   */\n  function wasDownForInterval(uint256 startBlock, uint256 endBlock, uint256 signerIndex)\n    public\n    view\n    returns (bool)\n  {\n    require(signerIndex < numberValidatorsInSet(startBlock), \"bad validator index at start block\");\n    require(\n      isBitmapSetForInterval(startBlock, endBlock),\n      \"bitmap for specified interval not yet set\"\n    );\n\n    return (bitmaps[msg.sender][startBlock][endBlock] & bytes32(1 << signerIndex)) == 0;\n  }\n\n  /**\n   * @notice Returns true if the bitmap has been set for the specified interval.\n   * @param startBlock First block of the interval.\n   * @param endBlock Last block of the interval.\n   * @return True if the bitmap has been set for the specified interval.\n   */\n  function isBitmapSetForInterval(uint256 startBlock, uint256 endBlock) public view returns (bool) {\n    // It's impossible to have all the validators down in an interval.\n    return bitmaps[msg.sender][startBlock][endBlock] != 0;\n  }\n\n  /**\n   * @notice Returns true if a validator has been down for the specified overlapping or adjacent\n   * intervals.\n   * @param startBlocks A list of interval start blocks for which signature bitmaps have already\n   * been set.\n   * @param endBlocks A list of interval end blocks for which signature bitmaps have already\n   * been set.\n   * @param signerIndices Indices of the signer within the validator set for every epoch change.\n   * @return True if the validator signature does not appear in any block within the window.\n   */\n  function wasDownForIntervals(\n    uint256[] memory startBlocks,\n    uint256[] memory endBlocks,\n    uint256[] memory signerIndices\n  ) public view returns (bool) {\n    require(startBlocks.length > 0, \"requires at least one interval\");\n    require(\n      startBlocks.length == endBlocks.length,\n      \"startBlocks and endBlocks must have the same length\"\n    );\n    require(signerIndices.length > 0, \"requires at least one signerIndex\");\n\n    uint256 epochSize = getEpochSize();\n    uint256 signerIndicesIndex = 0;\n    for (uint256 i = 0; i < startBlocks.length; i = i.add(1)) {\n      if (i > 0) {\n        require(\n          startBlocks[i.sub(1)] < startBlocks[i],\n          \"each interval must start after the start of the previous interval\"\n        );\n        require(\n          startBlocks[i] <= endBlocks[i.sub(1)].add(1),\n          \"each interval must start at most one block after the end of the previous interval\"\n        );\n        require(\n          endBlocks[i.sub(1)] < endBlocks[i],\n          \"each interval must end after the end of the previous interval\"\n        );\n        // The signer index of a particular validator may change from epoch to epoch.\n        // Because the intervals for which bitmaps are calculated in this contract do not span\n        // epochs, and because intervals processed by this function are guaranteed to be\n        // overlapping or contiguous, whenever we cross epoch boundaries we are guaranteed to\n        // process an interval that starts with the first block of that epoch.\n        if (startBlocks[i].mod(epochSize) == 1) {\n          require(\n            getValidatorAccountFromSignerIndex(\n              signerIndices[signerIndicesIndex],\n              startBlocks[i].sub(1)\n            ) ==\n              getValidatorAccountFromSignerIndex(\n                signerIndices[signerIndicesIndex.add(1)],\n                startBlocks[i]\n              ),\n            \"indices do not point to the same validator\"\n          );\n          signerIndicesIndex = signerIndicesIndex.add(1);\n        }\n      }\n      if (!wasDownForInterval(startBlocks[i], endBlocks[i], signerIndices[signerIndicesIndex])) {\n        return false;\n      }\n    }\n\n    return true;\n  }\n\n  /**\n   * @notice Slashes a validator that did not sign any blocks for at least `slashableDowntime`.\n   * @param startBlocks A list of interval start blocks for which signature bitmaps have already\n   * been set.\n   * @param endBlocks A list of interval end blocks for which signature bitmaps have already\n   * been set.\n   * @param signerIndices The index of the provided validator for each epoch over which the\n   * provided intervals span.\n   * @param groupMembershipHistoryIndex Group membership index from where\n   * the group should be found (For start block).\n   * @param validatorElectionLessers Lesser pointers for validator slashing.\n   * @param validatorElectionGreaters Greater pointers for validator slashing.\n   * @param validatorElectionIndices Vote indices for validator slashing.\n   * @param groupElectionLessers Lesser pointers for group slashing.\n   * @param groupElectionGreaters Greater pointers for group slashing.\n   * @param groupElectionIndices Vote indices for group slashing.\n   * @dev startBlocks[0] will be use as the startBlock of the slashableDowntime.\n   */\n  function slash(\n    uint256[] memory startBlocks,\n    uint256[] memory endBlocks,\n    uint256[] memory signerIndices,\n    uint256 groupMembershipHistoryIndex,\n    address[] memory validatorElectionLessers,\n    address[] memory validatorElectionGreaters,\n    uint256[] memory validatorElectionIndices,\n    address[] memory groupElectionLessers,\n    address[] memory groupElectionGreaters,\n    uint256[] memory groupElectionIndices\n  ) public {\n    uint256 startBlock = startBlocks[0];\n    uint256 endBlock = endBlocks[endBlocks.length.sub(1)];\n    require(\n      endBlock.sub(startBlock).add(1) >= slashableDowntime,\n      \"the provided intervals must span slashableDowntime blocks\"\n    );\n    address validator = getValidatorAccountFromSignerIndex(signerIndices[0], startBlock);\n    require(\n      startBlock > lastSlashedBlock[validator],\n      \"cannot slash validator for downtime for which they may already have been slashed\"\n    );\n    require(wasDownForIntervals(startBlocks, endBlocks, signerIndices), \"not down\");\n    lastSlashedBlock[validator] = endBlock;\n    performSlashing(\n      validator,\n      msg.sender,\n      startBlock,\n      groupMembershipHistoryIndex,\n      validatorElectionLessers,\n      validatorElectionGreaters,\n      validatorElectionIndices,\n      groupElectionLessers,\n      groupElectionGreaters,\n      groupElectionIndices\n    );\n    emit DowntimeSlashPerformed(validator, startBlock, endBlock);\n  }\n\n  /**\n   * @notice Returns the validator's address of the signer for a specific block number.\n   * @param signerIndex Index of the signer within the validator set for a specific epoch.\n   * @param blockNumber Block number where the validator was elected.\n   * @return Validator's address.\n   */\n  function getValidatorAccountFromSignerIndex(uint256 signerIndex, uint256 blockNumber)\n    internal\n    view\n    returns (address)\n  {\n    return getAccounts().signerToAccount(validatorSignerAddressFromSet(signerIndex, blockNumber));\n  }\n}\n",
  "sourcePath": "/Users/hiroki.yasui/go/src/github.com/celo-org/celo-monorepo/packages/protocol/contracts/governance/DowntimeSlasher.sol",
  "compiler": {
    "name": "solc",
    "version": "0.5.13+commit.5b0b510c.Emscripten.clang"
  },
  "schemaVersion": "3.0.23",
  "updatedAt": "2022-05-06T03:53:12.820Z",
  "devdoc": {
    "methods": {
      "checkProofOfPossession(address,bytes,bytes)": {
        "params": {
          "blsKey": "The BLS public key that the validator is using for consensus, should pass proof  of possession. 48 bytes.",
          "blsPop": "The BLS public key proof-of-possession, which consists of a signature on the  account address. 96 bytes.",
          "sender": "The address signed by the BLS key to generate the proof of possession."
        },
        "return": "True upon success."
      },
      "constructor": {
        "params": {
          "test": "Set to true to skip implementation initialization"
        }
      },
      "fractionMulExp(uint256,uint256,uint256,uint256,uint256,uint256)": {
        "params": {
          "_decimals": "precision",
          "aDenominator": "Denominator of first fraction",
          "aNumerator": "Numerator of first fraction",
          "bDenominator": "Denominator of exponentiated fraction",
          "bNumerator": "Numerator of exponentiated fraction",
          "exponent": "exponent to raise b to"
        },
        "return": "numerator/denominator of the computed quantity (not reduced)."
      },
      "getBitmapForInterval(uint256,uint256)": {
        "details": "startBlock and endBlock must be in the same epoch.The getParentSealBitmap precompile requires that startBlock must be within 4 epochs of  the current block.",
        "params": {
          "endBlock": "Last block of the interval.",
          "startBlock": "First block of the interval."
        },
        "return": "The signature uptime bitmap for the specified interval."
      },
      "getBlockNumberFromHeader(bytes)": {
        "params": {
          "header": "RLP encoded header"
        },
        "return": "Block number."
      },
      "getEpochNumber()": {
        "return": "Current epoch number."
      },
      "getEpochNumberOfBlock(uint256)": {
        "params": {
          "blockNumber": "Block number where epoch number is calculated."
        },
        "return": "Epoch number."
      },
      "getEpochSize()": {
        "return": "The current epoch size in blocks."
      },
      "getParentSealBitmap(uint256)": {
        "params": {
          "blockNumber": "Block number to retrieve. Must be within 4 epochs of the current number."
        },
        "return": "Bitmap parent seal with set bits at indices corresponding to signing validators."
      },
      "getVerifiedSealBitmapFromHeader(bytes)": {
        "params": {
          "header": "RLP encoded header"
        },
        "return": "Bitmap parent seal with set bits at indices correspoinding to signing validators."
      },
      "getVersionNumber()": {
        "return": "The storage, major, minor, and patch version of the contract."
      },
      "groupMembershipAtBlock(address,uint256,uint256)": {
        "params": {
          "blockNumber": "Block number associated with slashing.",
          "groupMembershipHistoryIndex": "Index used for history lookup.",
          "validator": "Validator that was slashed."
        },
        "return": "Group to be slashed."
      },
      "hashHeader(bytes)": {
        "params": {
          "header": "RLP encoded header"
        },
        "return": "Header hash."
      },
      "initialize(address,uint256,uint256,uint256)": {
        "params": {
          "_penalty": "Penalty for the slashed validator.",
          "_reward": "Reward that the observer gets.",
          "_slashableDowntime": "Slashable downtime in blocks.",
          "registryAddress": "The address of the registry core smart contract."
        }
      },
      "isBitmapSetForInterval(uint256,uint256)": {
        "params": {
          "endBlock": "Last block of the interval.",
          "startBlock": "First block of the interval."
        },
        "return": "True if the bitmap has been set for the specified interval."
      },
      "isOwner()": {
        "details": "Returns true if the caller is the current owner."
      },
      "minQuorumSize(uint256)": {
        "details": "Computed in celo-blockchain as int(math.Ceil(float64(2*valSet.Size()) / 3))"
      },
      "minQuorumSizeInCurrentSet()": {
        "return": "Byzantine quorum of validators."
      },
      "numberValidatorsInCurrentSet()": {
        "return": "Size of the current elected validator set."
      },
      "numberValidatorsInSet(uint256)": {
        "params": {
          "blockNumber": "Block number to retrieve the validator set from."
        },
        "return": "Size of the validator set."
      },
      "owner()": {
        "details": "Returns the address of the current owner."
      },
      "renounceOwnership()": {
        "details": "Leaves the contract without owner. It will not be possible to call `onlyOwner` functions anymore. Can only be called by the current owner.     * NOTE: Renouncing ownership will leave the contract without an owner, thereby removing any functionality that is only available to the owner."
      },
      "setBitmapForInterval(uint256,uint256)": {
        "details": "startBlock and endBlock must be in the same epoch.",
        "params": {
          "endBlock": "Last block of the interval.",
          "startBlock": "First block of the interval."
        },
        "return": "The signature bitmap for the specified interval."
      },
      "setRegistry(address)": {
        "params": {
          "registryAddress": "The address of a registry contract for routing to other contracts."
        }
      },
      "setSlashableDowntime(uint256)": {
        "params": {
          "interval": "Slashable downtime in blocks."
        }
      },
      "setSlashingIncentives(uint256,uint256)": {
        "params": {
          "penalty": "Penalty for the slashed signer.",
          "reward": "Reward that the observer gets."
        }
      },
      "slash(uint256[],uint256[],uint256[],uint256,address[],address[],uint256[],address[],address[],uint256[])": {
        "details": "startBlocks[0] will be use as the startBlock of the slashableDowntime.",
        "params": {
          "endBlocks": "A list of interval end blocks for which signature bitmaps have already been set.",
          "groupElectionGreaters": "Greater pointers for group slashing.",
          "groupElectionIndices": "Vote indices for group slashing.",
          "groupElectionLessers": "Lesser pointers for group slashing.",
          "groupMembershipHistoryIndex": "Group membership index from where the group should be found (For start block).",
          "signerIndices": "The index of the provided validator for each epoch over which the provided intervals span.",
          "startBlocks": "A list of interval start blocks for which signature bitmaps have already been set.",
          "validatorElectionGreaters": "Greater pointers for validator slashing.",
          "validatorElectionIndices": "Vote indices for validator slashing.",
          "validatorElectionLessers": "Lesser pointers for validator slashing."
        }
      },
      "transferOwnership(address)": {
        "details": "Transfers ownership of the contract to a new account (`newOwner`). Can only be called by the current owner."
      },
      "validatorSignerAddressFromCurrentSet(uint256)": {
        "params": {
          "index": "Index of requested validator in the validator set."
        },
        "return": "Address of validator at the requested index."
      },
      "validatorSignerAddressFromSet(uint256,uint256)": {
        "params": {
          "blockNumber": "Block number to retrieve the validator set from.",
          "index": "Index of requested validator in the validator set."
        },
        "return": "Address of validator at the requested index."
      },
      "wasDownForInterval(uint256,uint256,uint256)": {
        "details": "Both startBlock and endBlock should be part of the same epoch.",
        "params": {
          "endBlock": "Last block of the interval.",
          "signerIndex": "Index of the signer within the validator set.",
          "startBlock": "First block of the interval."
        },
        "return": "True if the validator did not sign any blocks in the specified interval."
      },
      "wasDownForIntervals(uint256[],uint256[],uint256[])": {
        "params": {
          "endBlocks": "A list of interval end blocks for which signature bitmaps have already been set.",
          "signerIndices": "Indices of the signer within the validator set for every epoch change.",
          "startBlocks": "A list of interval start blocks for which signature bitmaps have already been set."
        },
        "return": "True if the validator signature does not appear in any block within the window."
      }
    }
  },
  "userdoc": {
    "methods": {
      "checkProofOfPossession(address,bytes,bytes)": {
        "notice": "Checks a BLS proof of possession."
      },
      "constructor": "Sets initialized == true on implementation contracts",
      "fractionMulExp(uint256,uint256,uint256,uint256,uint256,uint256)": {
        "notice": "calculate a * b^x for fractions a, b to `decimals` precision"
      },
      "getBitmapForInterval(uint256,uint256)": {
        "notice": "Calculates and returns the signature bitmap for the specified interval. This bitmap will contain a one for any validator that signed at least one block in that interval, and zero otherwise."
      },
      "getBlockNumberFromHeader(bytes)": {
        "notice": "Parses block number out of header."
      },
      "getEpochNumber()": {
        "notice": "Returns the epoch number at a block."
      },
      "getEpochNumberOfBlock(uint256)": {
        "notice": "Returns the epoch number at a block."
      },
      "getEpochSize()": {
        "notice": "Returns the current epoch size in blocks."
      },
      "getParentSealBitmap(uint256)": {
        "notice": "Gets the parent seal bitmap from the header at the given block number."
      },
      "getVerifiedSealBitmapFromHeader(bytes)": {
        "notice": "Verifies the BLS signature on the header and returns the seal bitmap. The validator set used for verification is retrieved based on the parent hash field of the header.  If the parent hash is not in the blockchain, verification fails."
      },
      "getVersionNumber()": {
        "notice": "Returns the storage, major, minor, and patch version of the contract."
      },
      "groupMembershipAtBlock(address,uint256,uint256)": {
        "notice": "Returns the group to be slashed."
      },
      "hashHeader(bytes)": {
        "notice": "Computes hash of header."
      },
      "initialize(address,uint256,uint256,uint256)": {
        "notice": "Used in place of the constructor to allow the contract to be upgradable via proxy."
      },
      "isBitmapSetForInterval(uint256,uint256)": {
        "notice": "Returns true if the bitmap has been set for the specified interval."
      },
      "minQuorumSize(uint256)": {
        "notice": "Returns the minimum number of required signers for a given block number."
      },
      "minQuorumSizeInCurrentSet()": {
        "notice": "Computes byzantine quorum from current validator set size"
      },
      "numberValidatorsInCurrentSet()": {
        "notice": "Gets the size of the current elected validator set."
      },
      "numberValidatorsInSet(uint256)": {
        "notice": "Gets the size of the validator set that must sign the given block number."
      },
      "setBitmapForInterval(uint256,uint256)": {
        "notice": "Calculates and sets the signature bitmap for the specified interval."
      },
      "setRegistry(address)": {
        "notice": "Updates the address pointing to a Registry contract."
      },
      "setSlashableDowntime(uint256)": {
        "notice": "Sets the slashable downtime."
      },
      "setSlashingIncentives(uint256,uint256)": {
        "notice": "Sets slashing incentives."
      },
      "slash(uint256[],uint256[],uint256[],uint256,address[],address[],uint256[],address[],address[],uint256[])": {
        "notice": "Slashes a validator that did not sign any blocks for at least `slashableDowntime`."
      },
      "validatorSignerAddressFromCurrentSet(uint256)": {
        "notice": "Gets a validator address from the current validator set."
      },
      "validatorSignerAddressFromSet(uint256,uint256)": {
        "notice": "Gets a validator address from the validator set at the given block number."
      },
      "wasDownForInterval(uint256,uint256,uint256)": {
        "notice": "Returns true if the validator did not sign any blocks in the specified interval."
      },
      "wasDownForIntervals(uint256[],uint256[],uint256[])": {
        "notice": "Returns true if a validator has been down for the specified overlapping or adjacent intervals."
      }
    }
  }
}