{
  "contractName": "ElectionTest",
  "abi": [
    {
      "anonymous": false,
      "inputs": [
        {
          "indexed": false,
          "internalType": "uint256",
          "name": "electabilityThreshold",
          "type": "uint256"
        }
      ],
      "name": "ElectabilityThresholdSet",
      "type": "event"
    },
    {
      "anonymous": false,
      "inputs": [
        {
          "indexed": false,
          "internalType": "uint256",
          "name": "min",
          "type": "uint256"
        },
        {
          "indexed": false,
          "internalType": "uint256",
          "name": "max",
          "type": "uint256"
        }
      ],
      "name": "ElectableValidatorsSet",
      "type": "event"
    },
    {
      "anonymous": false,
      "inputs": [
        {
          "indexed": true,
          "internalType": "address",
          "name": "group",
          "type": "address"
        },
        {
          "indexed": false,
          "internalType": "uint256",
          "name": "value",
          "type": "uint256"
        }
      ],
      "name": "EpochRewardsDistributedToVoters",
      "type": "event"
    },
    {
      "anonymous": false,
      "inputs": [
        {
          "indexed": false,
          "internalType": "uint256",
          "name": "maxNumGroupsVotedFor",
          "type": "uint256"
        }
      ],
      "name": "MaxNumGroupsVotedForSet",
      "type": "event"
    },
    {
      "anonymous": false,
      "inputs": [
        {
          "indexed": true,
          "internalType": "address",
          "name": "previousOwner",
          "type": "address"
        },
        {
          "indexed": true,
          "internalType": "address",
          "name": "newOwner",
          "type": "address"
        }
      ],
      "name": "OwnershipTransferred",
      "type": "event"
    },
    {
      "anonymous": false,
      "inputs": [
        {
          "indexed": true,
          "internalType": "address",
          "name": "registryAddress",
          "type": "address"
        }
      ],
      "name": "RegistrySet",
      "type": "event"
    },
    {
      "anonymous": false,
      "inputs": [
        {
          "indexed": true,
          "internalType": "address",
          "name": "account",
          "type": "address"
        },
        {
          "indexed": true,
          "internalType": "address",
          "name": "group",
          "type": "address"
        },
        {
          "indexed": false,
          "internalType": "uint256",
          "name": "value",
          "type": "uint256"
        },
        {
          "indexed": false,
          "internalType": "uint256",
          "name": "units",
          "type": "uint256"
        }
      ],
      "name": "ValidatorGroupActiveVoteRevoked",
      "type": "event"
    },
    {
      "anonymous": false,
      "inputs": [
        {
          "indexed": true,
          "internalType": "address",
          "name": "group",
          "type": "address"
        }
      ],
      "name": "ValidatorGroupMarkedEligible",
      "type": "event"
    },
    {
      "anonymous": false,
      "inputs": [
        {
          "indexed": true,
          "internalType": "address",
          "name": "group",
          "type": "address"
        }
      ],
      "name": "ValidatorGroupMarkedIneligible",
      "type": "event"
    },
    {
      "anonymous": false,
      "inputs": [
        {
          "indexed": true,
          "internalType": "address",
          "name": "account",
          "type": "address"
        },
        {
          "indexed": true,
          "internalType": "address",
          "name": "group",
          "type": "address"
        },
        {
          "indexed": false,
          "internalType": "uint256",
          "name": "value",
          "type": "uint256"
        }
      ],
      "name": "ValidatorGroupPendingVoteRevoked",
      "type": "event"
    },
    {
      "anonymous": false,
      "inputs": [
        {
          "indexed": true,
          "internalType": "address",
          "name": "account",
          "type": "address"
        },
        {
          "indexed": true,
          "internalType": "address",
          "name": "group",
          "type": "address"
        },
        {
          "indexed": false,
          "internalType": "uint256",
          "name": "value",
          "type": "uint256"
        },
        {
          "indexed": false,
          "internalType": "uint256",
          "name": "units",
          "type": "uint256"
        }
      ],
      "name": "ValidatorGroupVoteActivated",
      "type": "event"
    },
    {
      "anonymous": false,
      "inputs": [
        {
          "indexed": true,
          "internalType": "address",
          "name": "account",
          "type": "address"
        },
        {
          "indexed": true,
          "internalType": "address",
          "name": "group",
          "type": "address"
        },
        {
          "indexed": false,
          "internalType": "uint256",
          "name": "value",
          "type": "uint256"
        }
      ],
      "name": "ValidatorGroupVoteCast",
      "type": "event"
    },
    {
      "constant": false,
      "inputs": [
        {
          "internalType": "address",
          "name": "group",
          "type": "address"
        }
      ],
      "name": "activate",
      "outputs": [
        {
          "internalType": "bool",
          "name": "",
          "type": "bool"
        }
      ],
      "payable": false,
      "stateMutability": "nonpayable",
      "type": "function"
    },
    {
      "constant": false,
      "inputs": [
        {
          "internalType": "address",
          "name": "group",
          "type": "address"
        },
        {
          "internalType": "address",
          "name": "account",
          "type": "address"
        }
      ],
      "name": "activateForAccount",
      "outputs": [
        {
          "internalType": "bool",
          "name": "",
          "type": "bool"
        }
      ],
      "payable": false,
      "stateMutability": "nonpayable",
      "type": "function"
    },
    {
      "constant": true,
      "inputs": [
        {
          "internalType": "address",
          "name": "group",
          "type": "address"
        },
        {
          "internalType": "uint256",
          "name": "value",
          "type": "uint256"
        }
      ],
      "name": "canReceiveVotes",
      "outputs": [
        {
          "internalType": "bool",
          "name": "",
          "type": "bool"
        }
      ],
      "payable": false,
      "stateMutability": "view",
      "type": "function"
    },
    {
      "constant": true,
      "inputs": [
        {
          "internalType": "address",
          "name": "sender",
          "type": "address"
        },
        {
          "internalType": "bytes",
          "name": "blsKey",
          "type": "bytes"
        },
        {
          "internalType": "bytes",
          "name": "blsPop",
          "type": "bytes"
        }
      ],
      "name": "checkProofOfPossession",
      "outputs": [
        {
          "internalType": "bool",
          "name": "",
          "type": "bool"
        }
      ],
      "payable": false,
      "stateMutability": "view",
      "type": "function"
    },
    {
      "constant": true,
      "inputs": [
        {
          "internalType": "uint256",
          "name": "minElectableValidators",
          "type": "uint256"
        },
        {
          "internalType": "uint256",
          "name": "maxElectableValidators",
          "type": "uint256"
        }
      ],
      "name": "electNValidatorSigners",
      "outputs": [
        {
          "internalType": "address[]",
          "name": "",
          "type": "address[]"
        }
      ],
      "payable": false,
      "stateMutability": "view",
      "type": "function"
    },
    {
      "constant": true,
      "inputs": [],
      "name": "electValidatorSigners",
      "outputs": [
        {
          "internalType": "address[]",
          "name": "",
          "type": "address[]"
        }
      ],
      "payable": false,
      "stateMutability": "view",
      "type": "function"
    },
    {
      "constant": true,
      "inputs": [],
      "name": "electabilityThreshold",
      "outputs": [
        {
          "internalType": "uint256",
          "name": "value",
          "type": "uint256"
        }
      ],
      "payable": false,
      "stateMutability": "view",
      "type": "function"
    },
    {
      "constant": true,
      "inputs": [],
      "name": "electableValidators",
      "outputs": [
        {
          "internalType": "uint256",
          "name": "min",
          "type": "uint256"
        },
        {
          "internalType": "uint256",
          "name": "max",
          "type": "uint256"
        }
      ],
      "payable": false,
      "stateMutability": "view",
      "type": "function"
    },
    {
      "constant": false,
      "inputs": [
        {
          "internalType": "address",
          "name": "account",
          "type": "address"
        },
        {
          "internalType": "uint256",
          "name": "value",
          "type": "uint256"
        },
        {
          "internalType": "address[]",
          "name": "lessers",
          "type": "address[]"
        },
        {
          "internalType": "address[]",
          "name": "greaters",
          "type": "address[]"
        },
        {
          "internalType": "uint256[]",
          "name": "indices",
          "type": "uint256[]"
        }
      ],
      "name": "forceDecrementVotes",
      "outputs": [
        {
          "internalType": "uint256",
          "name": "",
          "type": "uint256"
        }
      ],
      "payable": false,
      "stateMutability": "nonpayable",
      "type": "function"
    },
    {
      "constant": true,
      "inputs": [
        {
          "internalType": "uint256",
          "name": "aNumerator",
          "type": "uint256"
        },
        {
          "internalType": "uint256",
          "name": "aDenominator",
          "type": "uint256"
        },
        {
          "internalType": "uint256",
          "name": "bNumerator",
          "type": "uint256"
        },
        {
          "internalType": "uint256",
          "name": "bDenominator",
          "type": "uint256"
        },
        {
          "internalType": "uint256",
          "name": "exponent",
          "type": "uint256"
        },
        {
          "internalType": "uint256",
          "name": "_decimals",
          "type": "uint256"
        }
      ],
      "name": "fractionMulExp",
      "outputs": [
        {
          "internalType": "uint256",
          "name": "",
          "type": "uint256"
        },
        {
          "internalType": "uint256",
          "name": "",
          "type": "uint256"
        }
      ],
      "payable": false,
      "stateMutability": "view",
      "type": "function"
    },
    {
      "constant": true,
      "inputs": [
        {
          "internalType": "address",
          "name": "group",
          "type": "address"
        }
      ],
      "name": "getActiveVoteUnitsForGroup",
      "outputs": [
        {
          "internalType": "uint256",
          "name": "",
          "type": "uint256"
        }
      ],
      "payable": false,
      "stateMutability": "view",
      "type": "function"
    },
    {
      "constant": true,
      "inputs": [
        {
          "internalType": "address",
          "name": "group",
          "type": "address"
        },
        {
          "internalType": "address",
          "name": "account",
          "type": "address"
        }
      ],
      "name": "getActiveVoteUnitsForGroupByAccount",
      "outputs": [
        {
          "internalType": "uint256",
          "name": "",
          "type": "uint256"
        }
      ],
      "payable": false,
      "stateMutability": "view",
      "type": "function"
    },
    {
      "constant": true,
      "inputs": [],
      "name": "getActiveVotes",
      "outputs": [
        {
          "internalType": "uint256",
          "name": "",
          "type": "uint256"
        }
      ],
      "payable": false,
      "stateMutability": "view",
      "type": "function"
    },
    {
      "constant": true,
      "inputs": [
        {
          "internalType": "address",
          "name": "group",
          "type": "address"
        }
      ],
      "name": "getActiveVotesForGroup",
      "outputs": [
        {
          "internalType": "uint256",
          "name": "",
          "type": "uint256"
        }
      ],
      "payable": false,
      "stateMutability": "view",
      "type": "function"
    },
    {
      "constant": true,
      "inputs": [
        {
          "internalType": "address",
          "name": "group",
          "type": "address"
        },
        {
          "internalType": "address",
          "name": "account",
          "type": "address"
        }
      ],
      "name": "getActiveVotesForGroupByAccount",
      "outputs": [
        {
          "internalType": "uint256",
          "name": "",
          "type": "uint256"
        }
      ],
      "payable": false,
      "stateMutability": "view",
      "type": "function"
    },
    {
      "constant": true,
      "inputs": [
        {
          "internalType": "bytes",
          "name": "header",
          "type": "bytes"
        }
      ],
      "name": "getBlockNumberFromHeader",
      "outputs": [
        {
          "internalType": "uint256",
          "name": "",
          "type": "uint256"
        }
      ],
      "payable": false,
      "stateMutability": "view",
      "type": "function"
    },
    {
      "constant": true,
      "inputs": [],
      "name": "getCurrentValidatorSigners",
      "outputs": [
        {
          "internalType": "address[]",
          "name": "",
          "type": "address[]"
        }
      ],
      "payable": false,
      "stateMutability": "view",
      "type": "function"
    },
    {
      "constant": true,
      "inputs": [],
      "name": "getElectabilityThreshold",
      "outputs": [
        {
          "internalType": "uint256",
          "name": "",
          "type": "uint256"
        }
      ],
      "payable": false,
      "stateMutability": "view",
      "type": "function"
    },
    {
      "constant": true,
      "inputs": [],
      "name": "getElectableValidators",
      "outputs": [
        {
          "internalType": "uint256",
          "name": "",
          "type": "uint256"
        },
        {
          "internalType": "uint256",
          "name": "",
          "type": "uint256"
        }
      ],
      "payable": false,
      "stateMutability": "view",
      "type": "function"
    },
    {
      "constant": true,
      "inputs": [],
      "name": "getEligibleValidatorGroups",
      "outputs": [
        {
          "internalType": "address[]",
          "name": "",
          "type": "address[]"
        }
      ],
      "payable": false,
      "stateMutability": "view",
      "type": "function"
    },
    {
      "constant": true,
      "inputs": [],
      "name": "getEpochNumber",
      "outputs": [
        {
          "internalType": "uint256",
          "name": "",
          "type": "uint256"
        }
      ],
      "payable": false,
      "stateMutability": "view",
      "type": "function"
    },
    {
      "constant": true,
      "inputs": [
        {
          "internalType": "uint256",
          "name": "blockNumber",
          "type": "uint256"
        }
      ],
      "name": "getEpochNumberOfBlock",
      "outputs": [
        {
          "internalType": "uint256",
          "name": "",
          "type": "uint256"
        }
      ],
      "payable": false,
      "stateMutability": "view",
      "type": "function"
    },
    {
      "constant": true,
      "inputs": [],
      "name": "getEpochSize",
      "outputs": [
        {
          "internalType": "uint256",
          "name": "",
          "type": "uint256"
        }
      ],
      "payable": false,
      "stateMutability": "view",
      "type": "function"
    },
    {
      "constant": true,
      "inputs": [
        {
          "internalType": "address",
          "name": "group",
          "type": "address"
        }
      ],
      "name": "getGroupEligibility",
      "outputs": [
        {
          "internalType": "bool",
          "name": "",
          "type": "bool"
        }
      ],
      "payable": false,
      "stateMutability": "view",
      "type": "function"
    },
    {
      "constant": true,
      "inputs": [
        {
          "internalType": "address",
          "name": "group",
          "type": "address"
        },
        {
          "internalType": "uint256",
          "name": "totalEpochRewards",
          "type": "uint256"
        },
        {
          "internalType": "uint256[]",
          "name": "uptimes",
          "type": "uint256[]"
        }
      ],
      "name": "getGroupEpochRewards",
      "outputs": [
        {
          "internalType": "uint256",
          "name": "",
          "type": "uint256"
        }
      ],
      "payable": false,
      "stateMutability": "view",
      "type": "function"
    },
    {
      "constant": true,
      "inputs": [
        {
          "internalType": "address",
          "name": "account",
          "type": "address"
        }
      ],
      "name": "getGroupsVotedForByAccount",
      "outputs": [
        {
          "internalType": "address[]",
          "name": "",
          "type": "address[]"
        }
      ],
      "payable": false,
      "stateMutability": "view",
      "type": "function"
    },
    {
      "constant": true,
      "inputs": [
        {
          "internalType": "address",
          "name": "group",
          "type": "address"
        }
      ],
      "name": "getNumVotesReceivable",
      "outputs": [
        {
          "internalType": "uint256",
          "name": "",
          "type": "uint256"
        }
      ],
      "payable": false,
      "stateMutability": "view",
      "type": "function"
    },
    {
      "constant": true,
      "inputs": [
        {
          "internalType": "uint256",
          "name": "blockNumber",
          "type": "uint256"
        }
      ],
      "name": "getParentSealBitmap",
      "outputs": [
        {
          "internalType": "bytes32",
          "name": "",
          "type": "bytes32"
        }
      ],
      "payable": false,
      "stateMutability": "view",
      "type": "function"
    },
    {
      "constant": true,
      "inputs": [
        {
          "internalType": "address",
          "name": "group",
          "type": "address"
        }
      ],
      "name": "getPendingVotesForGroup",
      "outputs": [
        {
          "internalType": "uint256",
          "name": "",
          "type": "uint256"
        }
      ],
      "payable": false,
      "stateMutability": "view",
      "type": "function"
    },
    {
      "constant": true,
      "inputs": [
        {
          "internalType": "address",
          "name": "group",
          "type": "address"
        },
        {
          "internalType": "address",
          "name": "account",
          "type": "address"
        }
      ],
      "name": "getPendingVotesForGroupByAccount",
      "outputs": [
        {
          "internalType": "uint256",
          "name": "",
          "type": "uint256"
        }
      ],
      "payable": false,
      "stateMutability": "view",
      "type": "function"
    },
    {
      "constant": true,
      "inputs": [],
      "name": "getTotalVotes",
      "outputs": [
        {
          "internalType": "uint256",
          "name": "",
          "type": "uint256"
        }
      ],
      "payable": false,
      "stateMutability": "view",
      "type": "function"
    },
    {
      "constant": true,
      "inputs": [
        {
          "internalType": "address",
          "name": "account",
          "type": "address"
        }
      ],
      "name": "getTotalVotesByAccount",
      "outputs": [
        {
          "internalType": "uint256",
          "name": "",
          "type": "uint256"
        }
      ],
      "payable": false,
      "stateMutability": "view",
      "type": "function"
    },
    {
      "constant": true,
      "inputs": [],
      "name": "getTotalVotesForEligibleValidatorGroups",
      "outputs": [
        {
          "internalType": "address[]",
          "name": "groups",
          "type": "address[]"
        },
        {
          "internalType": "uint256[]",
          "name": "values",
          "type": "uint256[]"
        }
      ],
      "payable": false,
      "stateMutability": "view",
      "type": "function"
    },
    {
      "constant": true,
      "inputs": [
        {
          "internalType": "address",
          "name": "group",
          "type": "address"
        }
      ],
      "name": "getTotalVotesForGroup",
      "outputs": [
        {
          "internalType": "uint256",
          "name": "",
          "type": "uint256"
        }
      ],
      "payable": false,
      "stateMutability": "view",
      "type": "function"
    },
    {
      "constant": true,
      "inputs": [
        {
          "internalType": "address",
          "name": "group",
          "type": "address"
        },
        {
          "internalType": "address",
          "name": "account",
          "type": "address"
        }
      ],
      "name": "getTotalVotesForGroupByAccount",
      "outputs": [
        {
          "internalType": "uint256",
          "name": "",
          "type": "uint256"
        }
      ],
      "payable": false,
      "stateMutability": "view",
      "type": "function"
    },
    {
      "constant": true,
      "inputs": [
        {
          "internalType": "bytes",
          "name": "header",
          "type": "bytes"
        }
      ],
      "name": "getVerifiedSealBitmapFromHeader",
      "outputs": [
        {
          "internalType": "bytes32",
          "name": "",
          "type": "bytes32"
        }
      ],
      "payable": false,
      "stateMutability": "view",
      "type": "function"
    },
    {
      "constant": true,
      "inputs": [],
      "name": "getVersionNumber",
      "outputs": [
        {
          "internalType": "uint256",
          "name": "",
          "type": "uint256"
        },
        {
          "internalType": "uint256",
          "name": "",
          "type": "uint256"
        },
        {
          "internalType": "uint256",
          "name": "",
          "type": "uint256"
        },
        {
          "internalType": "uint256",
          "name": "",
          "type": "uint256"
        }
      ],
      "payable": false,
      "stateMutability": "pure",
      "type": "function"
    },
    {
      "constant": true,
      "inputs": [
        {
          "internalType": "address",
          "name": "account",
          "type": "address"
        },
        {
          "internalType": "address",
          "name": "group",
          "type": "address"
        }
      ],
      "name": "hasActivatablePendingVotes",
      "outputs": [
        {
          "internalType": "bool",
          "name": "",
          "type": "bool"
        }
      ],
      "payable": false,
      "stateMutability": "view",
      "type": "function"
    },
    {
      "constant": true,
      "inputs": [
        {
          "internalType": "bytes",
          "name": "header",
          "type": "bytes"
        }
      ],
      "name": "hashHeader",
      "outputs": [
        {
          "internalType": "bytes32",
          "name": "",
          "type": "bytes32"
        }
      ],
      "payable": false,
      "stateMutability": "view",
      "type": "function"
    },
    {
      "constant": false,
      "inputs": [
        {
          "internalType": "address",
          "name": "registryAddress",
          "type": "address"
        },
        {
          "internalType": "uint256",
          "name": "minElectableValidators",
          "type": "uint256"
        },
        {
          "internalType": "uint256",
          "name": "maxElectableValidators",
          "type": "uint256"
        },
        {
          "internalType": "uint256",
          "name": "_maxNumGroupsVotedFor",
          "type": "uint256"
        },
        {
          "internalType": "uint256",
          "name": "_electabilityThreshold",
          "type": "uint256"
        }
      ],
      "name": "initialize",
      "outputs": [],
      "payable": false,
      "stateMutability": "nonpayable",
      "type": "function"
    },
    {
      "constant": true,
      "inputs": [],
      "name": "initialized",
      "outputs": [
        {
          "internalType": "bool",
          "name": "",
          "type": "bool"
        }
      ],
      "payable": false,
      "stateMutability": "view",
      "type": "function"
    },
    {
      "constant": true,
      "inputs": [],
      "name": "isOwner",
      "outputs": [
        {
          "internalType": "bool",
          "name": "",
          "type": "bool"
        }
      ],
      "payable": false,
      "stateMutability": "view",
      "type": "function"
    },
    {
      "constant": false,
      "inputs": [
        {
          "internalType": "address",
          "name": "group",
          "type": "address"
        },
        {
          "internalType": "address",
          "name": "lesser",
          "type": "address"
        },
        {
          "internalType": "address",
          "name": "greater",
          "type": "address"
        }
      ],
      "name": "markGroupEligible",
      "outputs": [],
      "payable": false,
      "stateMutability": "nonpayable",
      "type": "function"
    },
    {
      "constant": false,
      "inputs": [
        {
          "internalType": "address",
          "name": "group",
          "type": "address"
        }
      ],
      "name": "markGroupIneligible",
      "outputs": [],
      "payable": false,
      "stateMutability": "nonpayable",
      "type": "function"
    },
    {
      "constant": true,
      "inputs": [],
      "name": "maxNumGroupsVotedFor",
      "outputs": [
        {
          "internalType": "uint256",
          "name": "",
          "type": "uint256"
        }
      ],
      "payable": false,
      "stateMutability": "view",
      "type": "function"
    },
    {
      "constant": true,
      "inputs": [
        {
          "internalType": "uint256",
          "name": "blockNumber",
          "type": "uint256"
        }
      ],
      "name": "minQuorumSize",
      "outputs": [
        {
          "internalType": "uint256",
          "name": "",
          "type": "uint256"
        }
      ],
      "payable": false,
      "stateMutability": "view",
      "type": "function"
    },
    {
      "constant": true,
      "inputs": [],
      "name": "minQuorumSizeInCurrentSet",
      "outputs": [
        {
          "internalType": "uint256",
          "name": "",
          "type": "uint256"
        }
      ],
      "payable": false,
      "stateMutability": "view",
      "type": "function"
    },
    {
      "constant": true,
      "inputs": [],
      "name": "numberValidatorsInCurrentSet",
      "outputs": [
        {
          "internalType": "uint256",
          "name": "",
          "type": "uint256"
        }
      ],
      "payable": false,
      "stateMutability": "view",
      "type": "function"
    },
    {
      "constant": true,
      "inputs": [
        {
          "internalType": "uint256",
          "name": "blockNumber",
          "type": "uint256"
        }
      ],
      "name": "numberValidatorsInSet",
      "outputs": [
        {
          "internalType": "uint256",
          "name": "",
          "type": "uint256"
        }
      ],
      "payable": false,
      "stateMutability": "view",
      "type": "function"
    },
    {
      "constant": true,
      "inputs": [],
      "name": "owner",
      "outputs": [
        {
          "internalType": "address",
          "name": "",
          "type": "address"
        }
      ],
      "payable": false,
      "stateMutability": "view",
      "type": "function"
    },
    {
      "constant": true,
      "inputs": [],
      "name": "registry",
      "outputs": [
        {
          "internalType": "contract IRegistry",
          "name": "",
          "type": "address"
        }
      ],
      "payable": false,
      "stateMutability": "view",
      "type": "function"
    },
    {
      "constant": false,
      "inputs": [],
      "name": "renounceOwnership",
      "outputs": [],
      "payable": false,
      "stateMutability": "nonpayable",
      "type": "function"
    },
    {
      "constant": false,
      "inputs": [
        {
          "internalType": "address",
          "name": "group",
          "type": "address"
        },
        {
          "internalType": "uint256",
          "name": "value",
          "type": "uint256"
        },
        {
          "internalType": "address",
          "name": "lesser",
          "type": "address"
        },
        {
          "internalType": "address",
          "name": "greater",
          "type": "address"
        },
        {
          "internalType": "uint256",
          "name": "index",
          "type": "uint256"
        }
      ],
      "name": "revokeActive",
      "outputs": [
        {
          "internalType": "bool",
          "name": "",
          "type": "bool"
        }
      ],
      "payable": false,
      "stateMutability": "nonpayable",
      "type": "function"
    },
    {
      "constant": false,
      "inputs": [
        {
          "internalType": "address",
          "name": "group",
          "type": "address"
        },
        {
          "internalType": "address",
          "name": "lesser",
          "type": "address"
        },
        {
          "internalType": "address",
          "name": "greater",
          "type": "address"
        },
        {
          "internalType": "uint256",
          "name": "index",
          "type": "uint256"
        }
      ],
      "name": "revokeAllActive",
      "outputs": [
        {
          "internalType": "bool",
          "name": "",
          "type": "bool"
        }
      ],
      "payable": false,
      "stateMutability": "nonpayable",
      "type": "function"
    },
    {
      "constant": false,
      "inputs": [
        {
          "internalType": "address",
          "name": "group",
          "type": "address"
        },
        {
          "internalType": "uint256",
          "name": "value",
          "type": "uint256"
        },
        {
          "internalType": "address",
          "name": "lesser",
          "type": "address"
        },
        {
          "internalType": "address",
          "name": "greater",
          "type": "address"
        },
        {
          "internalType": "uint256",
          "name": "index",
          "type": "uint256"
        }
      ],
      "name": "revokePending",
      "outputs": [
        {
          "internalType": "bool",
          "name": "",
          "type": "bool"
        }
      ],
      "payable": false,
      "stateMutability": "nonpayable",
      "type": "function"
    },
    {
      "constant": false,
      "inputs": [
        {
          "internalType": "uint256",
          "name": "threshold",
          "type": "uint256"
        }
      ],
      "name": "setElectabilityThreshold",
      "outputs": [
        {
          "internalType": "bool",
          "name": "",
          "type": "bool"
        }
      ],
      "payable": false,
      "stateMutability": "nonpayable",
      "type": "function"
    },
    {
      "constant": false,
      "inputs": [
        {
          "internalType": "uint256",
          "name": "min",
          "type": "uint256"
        },
        {
          "internalType": "uint256",
          "name": "max",
          "type": "uint256"
        }
      ],
      "name": "setElectableValidators",
      "outputs": [
        {
          "internalType": "bool",
          "name": "",
          "type": "bool"
        }
      ],
      "payable": false,
      "stateMutability": "nonpayable",
      "type": "function"
    },
    {
      "constant": false,
      "inputs": [
        {
          "internalType": "uint256",
          "name": "_maxNumGroupsVotedFor",
          "type": "uint256"
        }
      ],
      "name": "setMaxNumGroupsVotedFor",
      "outputs": [
        {
          "internalType": "bool",
          "name": "",
          "type": "bool"
        }
      ],
      "payable": false,
      "stateMutability": "nonpayable",
      "type": "function"
    },
    {
      "constant": false,
      "inputs": [
        {
          "internalType": "address",
          "name": "registryAddress",
          "type": "address"
        }
      ],
      "name": "setRegistry",
      "outputs": [],
      "payable": false,
      "stateMutability": "nonpayable",
      "type": "function"
    },
    {
      "constant": false,
      "inputs": [
        {
          "internalType": "address",
          "name": "newOwner",
          "type": "address"
        }
      ],
      "name": "transferOwnership",
      "outputs": [],
      "payable": false,
      "stateMutability": "nonpayable",
      "type": "function"
    },
    {
      "constant": true,
      "inputs": [
        {
          "internalType": "uint256",
          "name": "index",
          "type": "uint256"
        }
      ],
      "name": "validatorSignerAddressFromCurrentSet",
      "outputs": [
        {
          "internalType": "address",
          "name": "",
          "type": "address"
        }
      ],
      "payable": false,
      "stateMutability": "view",
      "type": "function"
    },
    {
      "constant": true,
      "inputs": [
        {
          "internalType": "uint256",
          "name": "index",
          "type": "uint256"
        },
        {
          "internalType": "uint256",
          "name": "blockNumber",
          "type": "uint256"
        }
      ],
      "name": "validatorSignerAddressFromSet",
      "outputs": [
        {
          "internalType": "address",
          "name": "",
          "type": "address"
        }
      ],
      "payable": false,
      "stateMutability": "view",
      "type": "function"
    },
    {
      "constant": false,
      "inputs": [
        {
          "internalType": "address",
          "name": "group",
          "type": "address"
        },
        {
          "internalType": "uint256",
          "name": "value",
          "type": "uint256"
        },
        {
          "internalType": "address",
          "name": "lesser",
          "type": "address"
        },
        {
          "internalType": "address",
          "name": "greater",
          "type": "address"
        }
      ],
      "name": "vote",
      "outputs": [
        {
          "internalType": "bool",
          "name": "",
          "type": "bool"
        }
      ],
      "payable": false,
      "stateMutability": "nonpayable",
      "type": "function"
    },
    {
      "constant": false,
      "inputs": [
        {
          "internalType": "address",
          "name": "group",
          "type": "address"
        },
        {
          "internalType": "uint256",
          "name": "value",
          "type": "uint256"
        },
        {
          "internalType": "address",
          "name": "lesser",
          "type": "address"
        },
        {
          "internalType": "address",
          "name": "greater",
          "type": "address"
        }
      ],
      "name": "distributeEpochRewards",
      "outputs": [],
      "payable": false,
      "stateMutability": "nonpayable",
      "type": "function"
    }
  ],
  "bytecode": "0x6080604052600180600062000019620000e860201b60201c565b9050806000806101000a81548173ffffffffffffffffffffffffffffffffffffffff021916908373ffffffffffffffffffffffffffffffffffffffff1602179055508073ffffffffffffffffffffffffffffffffffffffff16600073ffffffffffffffffffffffffffffffffffffffff167f8be0079c531659141344cd1fd0a4f28419497f9722a3daafe3b4186f6b6457e060405160405180910390a3506001808190555080620000e0576001600260006101000a81548160ff0219169083151502179055505b5050620000f0565b600033905090565b61a2c480620001006000396000f3fe608060405234801561001057600080fd5b50600436106103d05760003560e01c80638ef01def116101ff578063bdd143181161011a578063ec683072116100ad578063f92ad2191161007c578063f92ad21914611c84578063f9d7daae14611cf0578063f9f41a7a14611d15578063fae8db0a14611d3a576103d0565b8063ec68307214611abe578063f23263f914611b39578063f2fde38b14611bf0578063f911f0b714611c34576103d0565b8063df4da461116100e9578063df4da46114611952578063e0a2ab5214611970578063e50e652d14611a16578063e59ea3e814611a58576103d0565b8063bdd14318146117e8578063c14470c414611806578063d3e242a414611882578063dedafeae146118fa576103d0565b80639b95975f11610192578063a5826ab211610161578063a5826ab2146116e3578063a8e4587114611742578063a91ee0dc14611786578063ac839d69146117ca576103d0565b80639b95975f146114bf5780639dfb608114611537578063a18fb2db146115e7578063a2fb4ddf1461166b576103d0565b806395128ce3116101ce57806395128ce3146113e95780639a0e7d66146114415780639a7b3be71461145f5780639b2b592f1461147d576103d0565b80638ef01def146111815780638f32d59b146112e257806390a4dd5c14611304578063926d00ca14611391576103d0565b806354255be0116102ef5780637046c96b1161028257806387ee8a0f1161025157806387ee8a0f14610fee5780638a8836261461100c5780638c666775146110db5780638da5cb5b14611137576103d0565b80637046c96b14610ed5578063715018a614610f7c5780637385e5da14610f865780637b10399914610fa4576103d0565b8063631db7e7116102be578063631db7e714610cb857806367960e9114610cfe5780636c781a2c14610dcd5780636e19847514610e25576103d0565b806354255be014610b0f578063580d747a14610b425780635bb5acfb14610be85780635d180adb14610c40576103d0565b80632c3b791611610367578063448144c811610336578063448144c81461092a578063457578a3146109895780634b2c2f4414610a225780634be8843b14610af1576103d0565b80632c3b7916146107d2578063386172721461082a5780633b1eb4bf146108a25780633c55a73c146108e4576103d0565b80631f604243116103a35780631f6042431461054f57806323f0ab651461056d578063263ecf74146106f75780632ba38e6914610773576103d0565b8063123633ea146103d557806312541a6b14610443578063158ef93e146104d15780631c5a9d9c146104f3575b600080fd5b610401600480360360208110156103eb57600080fd5b8101908080359060200190929190505050611d7c565b604051808273ffffffffffffffffffffffffffffffffffffffff1673ffffffffffffffffffffffffffffffffffffffff16815260200191505060405180910390f35b6104cf6004803603608081101561045957600080fd5b81019080803573ffffffffffffffffffffffffffffffffffffffff16906020019092919080359060200190929190803573ffffffffffffffffffffffffffffffffffffffff169060200190929190803573ffffffffffffffffffffffffffffffffffffffff169060200190929190505050611ecd565b005b6104d9611edf565b604051808215151515815260200191505060405180910390f35b6105356004803603602081101561050957600080fd5b81019080803573ffffffffffffffffffffffffffffffffffffffff169060200190929190505050611ef2565b604051808215151515815260200191505060405180910390f35b610557612058565b6040518082815260200191505060405180910390f35b6106dd6004803603606081101561058357600080fd5b81019080803573ffffffffffffffffffffffffffffffffffffffff169060200190929190803590602001906401000000008111156105c057600080fd5b8201836020820111156105d257600080fd5b803590602001918460018302840111640100000000831117156105f457600080fd5b91908080601f016020809104026020016040519081016040528093929190818152602001838380828437600081840152601f19601f8201169050808301925050505050505091929192908035906020019064010000000081111561065757600080fd5b82018360208201111561066957600080fd5b8035906020019184600183028401116401000000008311171561068b57600080fd5b91908080601f016020809104026020016040519081016040528093929190818152602001838380828437600081840152601f19601f820116905080830192505050505050509192919290505050612068565b604051808215151515815260200191505060405180910390f35b6107596004803603604081101561070d57600080fd5b81019080803573ffffffffffffffffffffffffffffffffffffffff169060200190929190803573ffffffffffffffffffffffffffffffffffffffff169060200190929190505050612221565b604051808215151515815260200191505060405180910390f35b61077b6122d2565b6040518080602001828103825283818151815260200191508051906020019060200280838360005b838110156107be5780820151818401526020810190506107a3565b505050509050019250505060405180910390f35b610814600480360360208110156107e857600080fd5b81019080803573ffffffffffffffffffffffffffffffffffffffff1690602001909291905050506122ed565b6040518082815260200191505060405180910390f35b61088c6004803603604081101561084057600080fd5b81019080803573ffffffffffffffffffffffffffffffffffffffff169060200190929190803573ffffffffffffffffffffffffffffffffffffffff169060200190929190505050612513565b6040518082815260200191505060405180910390f35b6108ce600480360360208110156108b857600080fd5b810190808035906020019092919050505061254d565b6040518082815260200191505060405180910390f35b610910600480360360208110156108fa57600080fd5b8101908080359060200190929190505050612567565b604051808215151515815260200191505060405180910390f35b6109326126a2565b6040518080602001828103825283818151815260200191508051906020019060200280838360005b8381101561097557808201518184015260208101905061095a565b505050509050019250505060405180910390f35b6109cb6004803603602081101561099f57600080fd5b81019080803573ffffffffffffffffffffffffffffffffffffffff169060200190929190505050612765565b6040518080602001828103825283818151815260200191508051906020019060200280838360005b83811015610a0e5780820151818401526020810190506109f3565b505050509050019250505060405180910390f35b610adb60048036036020811015610a3857600080fd5b8101908080359060200190640100000000811115610a5557600080fd5b820183602082011115610a6757600080fd5b80359060200191846001830284011164010000000083111715610a8957600080fd5b91908080601f016020809104026020016040519081016040528093929190818152602001838380828437600081840152601f19601f820116905080830192505050505050509192919290505050612835565b6040518082815260200191505060405180910390f35b610af96129c9565b6040518082815260200191505060405180910390f35b610b176129d5565b6040518085815260200184815260200183815260200182815260200194505050505060405180910390f35b610bce60048036036080811015610b5857600080fd5b81019080803573ffffffffffffffffffffffffffffffffffffffff16906020019092919080359060200190929190803573ffffffffffffffffffffffffffffffffffffffff169060200190929190803573ffffffffffffffffffffffffffffffffffffffff1690602001909291905050506129fc565b604051808215151515815260200191505060405180910390f35b610c2a60048036036020811015610bfe57600080fd5b81019080803573ffffffffffffffffffffffffffffffffffffffff16906020019092919050505061307a565b6040518082815260200191505060405180910390f35b610c7660048036036040811015610c5657600080fd5b8101908080359060200190929190803590602001909291905050506130cc565b604051808273ffffffffffffffffffffffffffffffffffffffff1673ffffffffffffffffffffffffffffffffffffffff16815260200191505060405180910390f35b610ce460048036036020811015610cce57600080fd5b810190808035906020019092919050505061321e565b604051808215151515815260200191505060405180910390f35b610db760048036036020811015610d1457600080fd5b8101908080359060200190640100000000811115610d3157600080fd5b820183602082011115610d4357600080fd5b80359060200191846001830284011164010000000083111715610d6557600080fd5b91908080601f016020809104026020016040519081016040528093929190818152602001838380828437600081840152601f19601f820116905080830192505050505050509192919290505050613377565b6040518082815260200191505060405180910390f35b610e0f60048036036020811015610de357600080fd5b81019080803573ffffffffffffffffffffffffffffffffffffffff16906020019092919050505061350b565b6040518082815260200191505060405180910390f35b610ebb600480360360a0811015610e3b57600080fd5b81019080803573ffffffffffffffffffffffffffffffffffffffff16906020019092919080359060200190929190803573ffffffffffffffffffffffffffffffffffffffff169060200190929190803573ffffffffffffffffffffffffffffffffffffffff16906020019092919080359060200190929190505050613643565b604051808215151515815260200191505060405180910390f35b610edd6136ec565b604051808060200180602001838103835285818151815260200191508051906020019060200280838360005b83811015610f24578082015181840152602081019050610f09565b50505050905001838103825284818151815260200191508051906020019060200280838360005b83811015610f66578082015181840152602081019050610f4b565b5050505090500194505050505060405180910390f35b610f846138b7565b005b610f8e6139f0565b6040518082815260200191505060405180910390f35b610fac613a00565b604051808273ffffffffffffffffffffffffffffffffffffffff1673ffffffffffffffffffffffffffffffffffffffff16815260200191505060405180910390f35b610ff6613a26565b6040518082815260200191505060405180910390f35b6110c56004803603602081101561102257600080fd5b810190808035906020019064010000000081111561103f57600080fd5b82018360208201111561105157600080fd5b8035906020019184600183028401116401000000008311171561107357600080fd5b91908080601f016020809104026020016040519081016040528093929190818152602001838380828437600081840152601f19601f820116905080830192505050505050509192919290505050613b6d565b6040518082815260200191505060405180910390f35b61111d600480360360208110156110f157600080fd5b81019080803573ffffffffffffffffffffffffffffffffffffffff169060200190929190505050613d01565b604051808215151515815260200191505060405180910390f35b61113f613dd1565b604051808273ffffffffffffffffffffffffffffffffffffffff1673ffffffffffffffffffffffffffffffffffffffff16815260200191505060405180910390f35b6112cc600480360360a081101561119757600080fd5b81019080803573ffffffffffffffffffffffffffffffffffffffff16906020019092919080359060200190929190803590602001906401000000008111156111de57600080fd5b8201836020820111156111f057600080fd5b8035906020019184602083028401116401000000008311171561121257600080fd5b90919293919293908035906020019064010000000081111561123357600080fd5b82018360208201111561124557600080fd5b8035906020019184602083028401116401000000008311171561126757600080fd5b90919293919293908035906020019064010000000081111561128857600080fd5b82018360208201111561129a57600080fd5b803590602001918460208302840111640100000000831117156112bc57600080fd5b9091929391929390505050613dfa565b6040518082815260200191505060405180910390f35b6112ea6143a4565b604051808215151515815260200191505060405180910390f35b61133a6004803603604081101561131a57600080fd5b810190808035906020019092919080359060200190929190505050614402565b6040518080602001828103825283818151815260200191508051906020019060200280838360005b8381101561137d578082015181840152602081019050611362565b505050509050019250505060405180910390f35b6113d3600480360360208110156113a757600080fd5b81019080803573ffffffffffffffffffffffffffffffffffffffff169060200190929190505050614ee3565b6040518082815260200191505060405180910390f35b61142b600480360360208110156113ff57600080fd5b81019080803573ffffffffffffffffffffffffffffffffffffffff169060200190929190505050614f35565b6040518082815260200191505060405180910390f35b611449614f87565b6040518082815260200191505060405180910390f35b611467614fb1565b6040518082815260200191505060405180910390f35b6114a96004803603602081101561149357600080fd5b8101908080359060200190929190505050614fc1565b6040518082815260200191505060405180910390f35b611521600480360360408110156114d557600080fd5b81019080803573ffffffffffffffffffffffffffffffffffffffff169060200190929190803573ffffffffffffffffffffffffffffffffffffffff16906020019092919050505061510a565b6040518082815260200191505060405180910390f35b6115cd600480360360a081101561154d57600080fd5b81019080803573ffffffffffffffffffffffffffffffffffffffff16906020019092919080359060200190929190803573ffffffffffffffffffffffffffffffffffffffff169060200190929190803573ffffffffffffffffffffffffffffffffffffffff1690602001909291908035906020019092919050505061519d565b604051808215151515815260200191505060405180910390f35b611669600480360360608110156115fd57600080fd5b81019080803573ffffffffffffffffffffffffffffffffffffffff169060200190929190803573ffffffffffffffffffffffffffffffffffffffff169060200190929190803573ffffffffffffffffffffffffffffffffffffffff1690602001909291905050506155fb565b005b6116cd6004803603604081101561168157600080fd5b81019080803573ffffffffffffffffffffffffffffffffffffffff169060200190929190803573ffffffffffffffffffffffffffffffffffffffff1690602001909291905050506158fb565b6040518082815260200191505060405180910390f35b6116eb61598b565b6040518080602001828103825283818151815260200191508051906020019060200280838360005b8381101561172e578082015181840152602081019050611713565b505050509050019250505060405180910390f35b6117846004803603602081101561175857600080fd5b81019080803573ffffffffffffffffffffffffffffffffffffffff169060200190929190505050615abf565b005b6117c86004803603602081101561179c57600080fd5b81019080803573ffffffffffffffffffffffffffffffffffffffff169060200190929190505050615d3f565b005b6117d2615ee3565b6040518082815260200191505060405180910390f35b6117f0615ee9565b6040518082815260200191505060405180910390f35b6118686004803603604081101561181c57600080fd5b81019080803573ffffffffffffffffffffffffffffffffffffffff169060200190929190803573ffffffffffffffffffffffffffffffffffffffff169060200190929190505050615f0f565b604051808215151515815260200191505060405180910390f35b6118e46004803603604081101561189857600080fd5b81019080803573ffffffffffffffffffffffffffffffffffffffff169060200190929190803573ffffffffffffffffffffffffffffffffffffffff169060200190929190505050615fb2565b6040518082815260200191505060405180910390f35b61193c6004803603602081101561191057600080fd5b81019080803573ffffffffffffffffffffffffffffffffffffffff16906020019092919050505061604b565b6040518082815260200191505060405180910390f35b61195a6160f7565b6040518082815260200191505060405180910390f35b6119fc6004803603608081101561198657600080fd5b81019080803573ffffffffffffffffffffffffffffffffffffffff169060200190929190803573ffffffffffffffffffffffffffffffffffffffff169060200190929190803573ffffffffffffffffffffffffffffffffffffffff16906020019092919080359060200190929190505050616233565b604051808215151515815260200191505060405180910390f35b611a4260048036036020811015611a2c57600080fd5b81019080803590602001909291905050506163ae565b6040518082815260200191505060405180910390f35b611aa460048036036040811015611a6e57600080fd5b81019080803573ffffffffffffffffffffffffffffffffffffffff169060200190929190803590602001909291905050506163f9565b604051808215151515815260200191505060405180910390f35b611b1c600480360360c0811015611ad457600080fd5b81019080803590602001909291908035906020019092919080359060200190929190803590602001909291908035906020019092919080359060200190929190505050616643565b604051808381526020018281526020019250505060405180910390f35b611bda60048036036060811015611b4f57600080fd5b81019080803573ffffffffffffffffffffffffffffffffffffffff1690602001909291908035906020019092919080359060200190640100000000811115611b9657600080fd5b820183602082011115611ba857600080fd5b80359060200191846020830284011164010000000083111715611bca57600080fd5b9091929391929390505050616857565b6040518082815260200191505060405180910390f35b611c3260048036036020811015611c0657600080fd5b81019080803573ffffffffffffffffffffffffffffffffffffffff169060200190929190505050616b91565b005b611c6a60048036036040811015611c4a57600080fd5b810190808035906020019092919080359060200190929190505050616c17565b604051808215151515815260200191505060405180910390f35b611cee600480360360a0811015611c9a57600080fd5b81019080803573ffffffffffffffffffffffffffffffffffffffff16906020019092919080359060200190929190803590602001909291908035906020019092919080359060200190929190505050616e47565b005b611cf8616f1d565b604051808381526020018281526020019250505060405180910390f35b611d1d616f2f565b604051808381526020018281526020019250505060405180910390f35b611d6660048036036020811015611d5057600080fd5b8101908080359060200190929190505050616f46565b6040518082815260200191505060405180910390f35b60006060600060fa73ffffffffffffffffffffffffffffffffffffffff16844360405160200180838152602001828152602001925050506040516020818303038152906040526040518082805190602001908083835b60208310611df55780518252602082019150602081019050602083039250611dd2565b6001836020036101000a038019825116818451168082178552505050505050905001915050600060405180830381855afa9150503d8060008114611e55576040519150601f19603f3d011682016040523d82523d6000602084013e611e5a565b606091505b50809350819250505080611eb9576040517f08c379a000000000000000000000000000000000000000000000000000000000815260040180806020018281038252603d81526020018061a062603d913960400191505060405180910390fd5b611ec482600061708f565b92505050919050565b611ed9848484846170a6565b50505050565b600260009054906101000a900460ff1681565b600060018060008282540192505081905550600060015490506000611f15617487565b73ffffffffffffffffffffffffffffffffffffffff16636642d594336040518263ffffffff1660e01b8152600401808273ffffffffffffffffffffffffffffffffffffffff1673ffffffffffffffffffffffffffffffffffffffff16815260200191505060206040518083038186803b158015611f9157600080fd5b505afa158015611fa5573d6000803e3d6000fd5b505050506040513d6020811015611fbb57600080fd5b81019080805190602001909291905050509050611fd88482617582565b9250506001548114612052576040517f08c379a000000000000000000000000000000000000000000000000000000000815260040180806020018281038252600e8152602001807f7265656e7472616e742063616c6c00000000000000000000000000000000000081525060200191505060405180910390fd5b50919050565b6000600360020160000154905090565b60008060fb73ffffffffffffffffffffffffffffffffffffffff16858585604051602001808473ffffffffffffffffffffffffffffffffffffffff1673ffffffffffffffffffffffffffffffffffffffff1660601b815260140183805190602001908083835b602083106120f157805182526020820191506020810190506020830392506120ce565b6001836020036101000a03801982511681845116808217855250505050505090500182805190602001908083835b60208310612142578051825260208201915060208101905060208303925061211f565b6001836020036101000a03801982511681845116808217855250505050505090500193505050506040516020818303038152906040526040518082805190602001908083835b602083106121ab5780518252602082019150602081019050602083039250612188565b6001836020036101000a038019825116818451168082178552505050505050905001915050600060405180830381855afa9150503d806000811461220b576040519150601f19603f3d011682016040523d82523d6000602084013e612210565b606091505b505080915050809150509392505050565b600080600360000160010160008473ffffffffffffffffffffffffffffffffffffffff1673ffffffffffffffffffffffffffffffffffffffff16815260200190815260200160002060010160008573ffffffffffffffffffffffffffffffffffffffff1673ffffffffffffffffffffffffffffffffffffffff16815260200190815260200160002090506122b3614fb1565b81600101541080156122c9575060008160000154115b91505092915050565b60606122e8600d60000154600d60010154614402565b905090565b60008061245b6122fb61779f565b73ffffffffffffffffffffffffffffffffffffffff166330a61d596040518163ffffffff1660e01b815260040160206040518083038186803b15801561234057600080fd5b505afa158015612354573d6000803e3d6000fd5b505050506040513d602081101561236a57600080fd5b810190808051906020019092919050505061244d600161238861789a565b73ffffffffffffffffffffffffffffffffffffffff166339e618e8886040518263ffffffff1660e01b8152600401808273ffffffffffffffffffffffffffffffffffffffff1673ffffffffffffffffffffffffffffffffffffffff16815260200191505060206040518083038186803b15801561240457600080fd5b505afa158015612418573d6000803e3d6000fd5b505050506040513d602081101561242e57600080fd5b810190808051906020019092919050505061799590919063ffffffff16565b617a1d90919063ffffffff16565b905060006124f5600d6001015461247061789a565b73ffffffffffffffffffffffffffffffffffffffff1663517f6d336040518163ffffffff1660e01b815260040160206040518083038186803b1580156124b557600080fd5b505afa1580156124c9573d6000803e3d6000fd5b505050506040513d60208110156124df57600080fd5b8101908080519060200190929190505050617aa3565b905061250a8183617abc90919063ffffffff16565b92505050919050565b600080612520848461510a565b9050600061252e8585615fb2565b9050612543818361799590919063ffffffff16565b9250505092915050565b60006125608261255b6160f7565b617b06565b9050919050565b60006125716143a4565b6125e3576040517f08c379a00000000000000000000000000000000000000000000000000000000081526004018080602001828103825260208152602001807f4f776e61626c653a2063616c6c6572206973206e6f7420746865206f776e657281525060200191505060405180910390fd5b600f5482141561265b576040517f08c379a00000000000000000000000000000000000000000000000000000000081526004018080602001828103825260208152602001807f4d61782067726f75707320766f74656420666f72206e6f74206368616e67656481525060200191505060405180910390fd5b81600f819055507f1993a3864c31265ef86eec51d147eff697dee0466c92ac9abddcc4c4c6829348826040518082815260200191505060405180910390a160019050919050565b606060006126ae613a26565b90506060816040519080825280602002602001820160405280156126e15781602001602082028038833980820191505090505b50905060008090505b8281101561275c576126fb81611d7c565b82828151811061270757fe5b602002602001019073ffffffffffffffffffffffffffffffffffffffff16908173ffffffffffffffffffffffffffffffffffffffff168152505061275560018261799590919063ffffffff16565b90506126ea565b50809250505090565b6060600360090160008373ffffffffffffffffffffffffffffffffffffffff1673ffffffffffffffffffffffffffffffffffffffff16815260200190815260200160002080548060200260200160405190810160405280929190818152602001828054801561282957602002820191906000526020600020905b8160009054906101000a900473ffffffffffffffffffffffffffffffffffffffff1673ffffffffffffffffffffffffffffffffffffffff16815260200190600101908083116127df575b50505050509050919050565b60006060600060f473ffffffffffffffffffffffffffffffffffffffff16846040516020018082805190602001908083835b6020831061288a5780518252602082019150602081019050602083039250612867565b6001836020036101000a0380198251168184511680821785525050505050509050019150506040516020818303038152906040526040518082805190602001908083835b602083106128f157805182526020820191506020810190506020830392506128ce565b6001836020036101000a038019825116818451168082178552505050505050905001915050600060405180830381855afa9150503d8060008114612951576040519150601f19603f3d011682016040523d82523d6000602084013e612956565b606091505b508093508192505050806129b5576040517f08c379a0000000000000000000000000000000000000000000000000000000008152600401808060200182810382526038815260200180619fd16038913960400191505060405180910390fd5b6129c0826000617b4e565b92505050919050565b60108060000154905081565b60008060008060018060026001839350829250819150809050935093509350935090919293565b60006001806000828254019250508190555060006001549050600360040160000173__AddressSortedLinkedList_______________6302f130289091886040518363ffffffff1660e01b8152600401808381526020018273ffffffffffffffffffffffffffffffffffffffff1673ffffffffffffffffffffffffffffffffffffffff1681526020019250505060206040518083038186803b158015612aa157600080fd5b505af4158015612ab5573d6000803e3d6000fd5b505050506040513d6020811015612acb57600080fd5b8101908080519060200190929190505050612b4e576040517f08c379a00000000000000000000000000000000000000000000000000000000081526004018080602001828103825260128152602001807f47726f7570206e6f7420656c696769626c65000000000000000000000000000081525060200191505060405180910390fd5b84600010612bc4576040517f08c379a00000000000000000000000000000000000000000000000000000000081526004018080602001828103825260198152602001807f566f74652076616c75652063616e6e6f74206265207a65726f0000000000000081525060200191505060405180910390fd5b612bce86866163f9565b612c40576040517f08c379a000000000000000000000000000000000000000000000000000000000815260040180806020018281038252601a8152602001807f47726f75702063616e6e6f74207265636569766520766f74657300000000000081525060200191505060405180910390fd5b6000612c4a617487565b73ffffffffffffffffffffffffffffffffffffffff16636642d594336040518263ffffffff1660e01b8152600401808273ffffffffffffffffffffffffffffffffffffffff1673ffffffffffffffffffffffffffffffffffffffff16815260200191505060206040518083038186803b158015612cc657600080fd5b505afa158015612cda573d6000803e3d6000fd5b505050506040513d6020811015612cf057600080fd5b8101908080519060200190929190505050905060008090506000600360090160008473ffffffffffffffffffffffffffffffffffffffff1673ffffffffffffffffffffffffffffffffffffffff168152602001908152602001600020905060008090505b8180549050811015612dea578280612dcd57508973ffffffffffffffffffffffffffffffffffffffff16828281548110612d8a57fe5b9060005260206000200160009054906101000a900473ffffffffffffffffffffffffffffffffffffffff1673ffffffffffffffffffffffffffffffffffffffff16145b9250612de360018261799590919063ffffffff16565b9050612d54565b5081612ed157600f54818054905010612e6b576040517f08c379a00000000000000000000000000000000000000000000000000000000081526004018080602001828103825260198152602001807f566f74656420666f7220746f6f206d616e792067726f7570730000000000000081525060200191505060405180910390fd5b808990806001815401808255809150509060018203906000526020600020016000909192909190916101000a81548173ffffffffffffffffffffffffffffffffffffffff021916908373ffffffffffffffffffffffffffffffffffffffff160217905550505b612edc89848a617bef565b612ee889898989617cf7565b612ef061779f565b73ffffffffffffffffffffffffffffffffffffffff166318a4ff8c848a6040518363ffffffff1660e01b8152600401808373ffffffffffffffffffffffffffffffffffffffff1673ffffffffffffffffffffffffffffffffffffffff16815260200182815260200192505050600060405180830381600087803b158015612f7657600080fd5b505af1158015612f8a573d6000803e3d6000fd5b505050508873ffffffffffffffffffffffffffffffffffffffff168373ffffffffffffffffffffffffffffffffffffffff167fd3532f70444893db82221041edb4dc26c94593aeb364b0b14dfc77d5ee9051528a6040518082815260200191505060405180910390a3600194505050506001548114613071576040517f08c379a000000000000000000000000000000000000000000000000000000000815260040180806020018281038252600e8152602001807f7265656e7472616e742063616c6c00000000000000000000000000000000000081525060200191505060405180910390fd5b50949350505050565b6000600360020160010160008373ffffffffffffffffffffffffffffffffffffffff1673ffffffffffffffffffffffffffffffffffffffff168152602001908152602001600020600101549050919050565b60006060600060fa73ffffffffffffffffffffffffffffffffffffffff16858560405160200180838152602001828152602001925050506040516020818303038152906040526040518082805190602001908083835b602083106131455780518252602082019150602081019050602083039250613122565b6001836020036101000a038019825116818451168082178552505050505050905001915050600060405180830381855afa9150503d80600081146131a5576040519150601f19603f3d011682016040523d82523d6000602084013e6131aa565b606091505b50809350819250505080613209576040517f08c379a000000000000000000000000000000000000000000000000000000000815260040180806020018281038252603681526020018061a0d46036913960400191505060405180910390fd5b61321482600061708f565b9250505092915050565b60006132286143a4565b61329a576040517f08c379a00000000000000000000000000000000000000000000000000000000081526004018080602001828103825260208152602001807f4f776e61626c653a2063616c6c6572206973206e6f7420746865206f776e657281525060200191505060405180910390fd5b6132a382617eef565b6010600082015181600001559050506132e26132bd617f0d565b6010604051806020016040529081600082015481525050617f3390919063ffffffff16565b613337576040517f08c379a000000000000000000000000000000000000000000000000000000000815260040180806020018281038252602e815260200180619fa3602e913960400191505060405180910390fd5b7f9854be03126e38f9c318d8aabe1b150d09cb3a57059b21855b1e11d44e082c1a826040518082815260200191505060405180910390a160019050919050565b60006060600060f673ffffffffffffffffffffffffffffffffffffffff16846040516020018082805190602001908083835b602083106133cc57805182526020820191506020810190506020830392506133a9565b6001836020036101000a0380198251168184511680821785525050505050509050019150506040516020818303038152906040526040518082805190602001908083835b602083106134335780518252602082019150602081019050602083039250613410565b6001836020036101000a038019825116818451168082178552505050505050905001915050600060405180830381855afa9150503d8060008114613493576040519150601f19603f3d011682016040523d82523d6000602084013e613498565b606091505b508093508192505050806134f7576040517f08c379a000000000000000000000000000000000000000000000000000000000815260040180806020018281038252602381526020018061a26d6023913960400191505060405180910390fd5b613502826000617b4e565b92505050919050565b600080600090506060600360090160008573ffffffffffffffffffffffffffffffffffffffff1673ffffffffffffffffffffffffffffffffffffffff1681526020019081526020016000208054806020026020016040519081016040528092919081815260200182805480156135d657602002820191906000526020600020905b8160009054906101000a900473ffffffffffffffffffffffffffffffffffffffff1673ffffffffffffffffffffffffffffffffffffffff168152602001906001019080831161358c575b5050505050905060008090505b81518110156136385761361b61360c8383815181106135fe57fe5b602002602001015187612513565b8461799590919063ffffffff16565b925061363160018261799590919063ffffffff16565b90506135e3565b508192505050919050565b600060018060008282540192505081905550600060015490506136698787878787617f48565b915060015481146136e2576040517f08c379a000000000000000000000000000000000000000000000000000000000815260040180806020018281038252600e8152602001807f7265656e7472616e742063616c6c00000000000000000000000000000000000081525060200191505060405180910390fd5b5095945050505050565b606080600360040160000173__AddressSortedLinkedList_______________6369b317e390916040518263ffffffff1660e01b81526004018082815260200191505060006040518083038186803b15801561374757600080fd5b505af415801561375b573d6000803e3d6000fd5b505050506040513d6000823e3d601f19601f82011682018060405250604081101561378557600080fd5b81019080805160405193929190846401000000008211156137a557600080fd5b838201915060208201858111156137bb57600080fd5b82518660208202830111640100000000821117156137d857600080fd5b8083526020830192505050908051906020019060200280838360005b8381101561380f5780820151818401526020810190506137f4565b505050509050016040526020018051604051939291908464010000000082111561383857600080fd5b8382019150602082018581111561384e57600080fd5b825186602082028301116401000000008211171561386b57600080fd5b8083526020830192505050908051906020019060200280838360005b838110156138a2578082015181840152602081019050613887565b50505050905001604052505050915091509091565b6138bf6143a4565b613931576040517f08c379a00000000000000000000000000000000000000000000000000000000081526004018080602001828103825260208152602001807f4f776e61626c653a2063616c6c6572206973206e6f7420746865206f776e657281525060200191505060405180910390fd5b600073ffffffffffffffffffffffffffffffffffffffff166000809054906101000a900473ffffffffffffffffffffffffffffffffffffffff1673ffffffffffffffffffffffffffffffffffffffff167f8be0079c531659141344cd1fd0a4f28419497f9722a3daafe3b4186f6b6457e060405160405180910390a360008060006101000a81548173ffffffffffffffffffffffffffffffffffffffff021916908373ffffffffffffffffffffffffffffffffffffffff160217905550565b60006139fb436163ae565b905090565b600260019054906101000a900473ffffffffffffffffffffffffffffffffffffffff1681565b60006060600060f973ffffffffffffffffffffffffffffffffffffffff1643604051602001808281526020019150506040516020818303038152906040526040518082805190602001908083835b60208310613a975780518252602082019150602081019050602083039250613a74565b6001836020036101000a038019825116818451168082178552505050505050905001915050600060405180830381855afa9150503d8060008114613af7576040519150601f19603f3d011682016040523d82523d6000602084013e613afc565b606091505b50809350819250505080613b5b576040517f08c379a000000000000000000000000000000000000000000000000000000000815260040180806020018281038252603581526020018061a09f6035913960400191505060405180910390fd5b613b6682600061708f565b9250505090565b60006060600060f773ffffffffffffffffffffffffffffffffffffffff16846040516020018082805190602001908083835b60208310613bc25780518252602082019150602081019050602083039250613b9f565b6001836020036101000a0380198251168184511680821785525050505050509050019150506040516020818303038152906040526040518082805190602001908083835b60208310613c295780518252602082019150602081019050602083039250613c06565b6001836020036101000a038019825116818451168082178552505050505050905001915050600060405180830381855afa9150503d8060008114613c89576040519150601f19603f3d011682016040523d82523d6000602084013e613c8e565b606091505b50809350819250505080613ced576040517f08c379a000000000000000000000000000000000000000000000000000000000815260040180806020018281038252603181526020018061a1ea6031913960400191505060405180910390fd5b613cf882600061708f565b92505050919050565b6000600360040160000173__AddressSortedLinkedList_______________6302f130289091846040518363ffffffff1660e01b8152600401808381526020018273ffffffffffffffffffffffffffffffffffffffff1673ffffffffffffffffffffffffffffffffffffffff1681526020019250505060206040518083038186803b158015613d8f57600080fd5b505af4158015613da3573d6000803e3d6000fd5b505050506040513d6020811015613db957600080fd5b81019080805190602001909291905050509050919050565b60008060009054906101000a900473ffffffffffffffffffffffffffffffffffffffff16905090565b6000600180600082825401925050819055506000600154905060405160200180807f4c6f636b6564476f6c6400000000000000000000000000000000000000000000815250600a019050604051602081830303815290604052805190602001203373ffffffffffffffffffffffffffffffffffffffff16600260019054906101000a900473ffffffffffffffffffffffffffffffffffffffff1673ffffffffffffffffffffffffffffffffffffffff1663dcf0aaed836040518263ffffffff1660e01b81526004018082815260200191505060206040518083038186803b158015613ee457600080fd5b505afa158015613ef8573d6000803e3d6000fd5b505050506040513d6020811015613f0e57600080fd5b810190808051906020019092919050505073ffffffffffffffffffffffffffffffffffffffff1614613fa8576040517f08c379a00000000000000000000000000000000000000000000000000000000081526004018080602001828103825260188152602001807f6f6e6c79207265676973746572656420636f6e7472616374000000000000000081525060200191505060405180910390fd5b60008a11614001576040517f08c379a000000000000000000000000000000000000000000000000000000000815260040180806020018281038252602781526020018061a2466027913960400191505060405180910390fd5b614009619e61565b6040518060400160405280600360090160008f73ffffffffffffffffffffffffffffffffffffffff1673ffffffffffffffffffffffffffffffffffffffff1681526020019081526020016000208054806020026020016040519081016040528092919081815260200182805480156140d657602002820191906000526020600020905b8160009054906101000a900473ffffffffffffffffffffffffffffffffffffffff1673ffffffffffffffffffffffffffffffffffffffff168152602001906001019080831161408c575b505050505081526020018c81525090508060000151518a8a9050111580156141035750878790508a8a9050145b801561411457508585905088889050145b614169576040517f08c379a0000000000000000000000000000000000000000000000000000000008152600401808060200182810382526021815260200180619f826021913960400191505060405180910390fd5b600081600001515190505b60008111156142a05761426a6142578e846000015161419d60018661832390919063ffffffff16565b815181106141a757fe5b602002602001015185602001518f8f6141ca60018961832390919063ffffffff16565b8181106141d357fe5b9050602002013573ffffffffffffffffffffffffffffffffffffffff168e8e61420660018a61832390919063ffffffff16565b81811061420f57fe5b9050602002013573ffffffffffffffffffffffffffffffffffffffff168d8d61424260018b61832390919063ffffffff16565b81811061424b57fe5b9050602002013561836d565b836020015161832390919063ffffffff16565b826020018181525050600082602001511415614285576142a0565b61429960018261832390919063ffffffff16565b9050614174565b50600081602001511461431b576040517f08c379a000000000000000000000000000000000000000000000000000000000815260040180806020018281038252601f8152602001807f4661696c75726520746f2064656372656d656e7420616c6c20766f7465732e0081525060200191505060405180910390fd5b8a935050506001548114614397576040517f08c379a000000000000000000000000000000000000000000000000000000000815260040180806020018281038252600e8152602001807f7265656e7472616e742063616c6c00000000000000000000000000000000000081525060200191505060405180910390fd5b5098975050505050505050565b60008060009054906101000a900473ffffffffffffffffffffffffffffffffffffffff1673ffffffffffffffffffffffffffffffffffffffff166143e6618581565b73ffffffffffffffffffffffffffffffffffffffff1614905090565b6060600061444661444161441c614417614f87565b618589565b601060405180602001604052908160008201548152505061861390919063ffffffff16565b618a72565b90506000600360040160000173__AddressSortedLinkedList_______________6342b6351a909184876040518463ffffffff1660e01b815260040180848152602001838152602001828152602001935050505060206040518083038186803b1580156144b257600080fd5b505af41580156144c6573d6000803e3d6000fd5b505050506040513d60208110156144dc57600080fd5b810190808051906020019092919050505090506060600360040160000173__AddressSortedLinkedList_______________63dcb2a4dd9091846040518363ffffffff1660e01b8152600401808381526020018281526020019250505060006040518083038186803b15801561455157600080fd5b505af4158015614565573d6000803e3d6000fd5b505050506040513d6000823e3d601f19601f82011682018060405250602081101561458f57600080fd5b81019080805160405193929190846401000000008211156145af57600080fd5b838201915060208201858111156145c557600080fd5b82518660208202830111640100000000821117156145e257600080fd5b8083526020830192505050908051906020019060200280838360005b838110156146195780820151818401526020810190506145fe565b505050509050016040525050509050606061463261789a565b73ffffffffffffffffffffffffffffffffffffffff166370447754836040518263ffffffff1660e01b81526004018080602001828103825283818151815260200191508051906020019060200280838360005b838110156146a0578082015181840152602081019050614685565b505050509050019250505060006040518083038186803b1580156146c357600080fd5b505afa1580156146d7573d6000803e3d6000fd5b505050506040513d6000823e3d601f19601f82011682018060405250602081101561470157600080fd5b810190808051604051939291908464010000000082111561472157600080fd5b8382019150602082018581111561473757600080fd5b825186602082028301116401000000008211171561475457600080fd5b8083526020830192505050908051906020019060200280838360005b8381101561478b578082015181840152602081019050614770565b505050509050016040525050509050606082516040519080825280602002602001820160405280156147cc5781602001602082028038833980820191505090505b5090506000809050606084516040519080825280602002602001820160405280156148065781602001602082028038833980820191505090505b5090506060855160405190808252806020026020018201604052801561484657816020015b614833619e7b565b81526020019060019003908161482b5790505b50905060008090505b8651811015614985578083828151811061486557fe5b602002602001018181525050614953600360040160000173__AddressSortedLinkedList_______________63e0fe44b390918a85815181106148a457fe5b60200260200101516040518363ffffffff1660e01b8152600401808381526020018273ffffffffffffffffffffffffffffffffffffffff1673ffffffffffffffffffffffffffffffffffffffff1681526020019250505060206040518083038186803b15801561491357600080fd5b505af4158015614927573d6000803e3d6000fd5b505050506040513d602081101561493d57600080fd5b8101908080519060200190929190505050618589565b82828151811061495f57fe5b602002602001018190525061497e60018261799590919063ffffffff16565b905061484f565b505b8983108015614997575060008651115b15614bd1576000826000815181106149ab57fe5b6020026020010151905060006149d38383815181106149c657fe5b6020026020010151618a93565b14156149df5750614bd1565b8481815181106149eb57fe5b60200260200101518682815181106149ff57fe5b602002602001015111614a3257614a166000617eef565b828281518110614a2257fe5b6020026020010181905250614bc1565b614a596001868381518110614a4357fe5b602002602001015161799590919063ffffffff16565b858281518110614a6557fe5b602002602001018181525050614a8560018561799590919063ffffffff16565b9350614ba9614ab9614ab46001888581518110614a9e57fe5b602002602001015161799590919063ffffffff16565b618589565b614b9b600360040160000173__AddressSortedLinkedList_______________63e0fe44b390918c8781518110614aec57fe5b60200260200101516040518363ffffffff1660e01b8152600401808381526020018273ffffffffffffffffffffffffffffffffffffffff1673ffffffffffffffffffffffffffffffffffffffff1681526020019250505060206040518083038186803b158015614b5b57600080fd5b505af4158015614b6f573d6000803e3d6000fd5b505050506040513d6020811015614b8557600080fd5b8101908080519060200190929190505050618589565b618aa190919063ffffffff16565b828281518110614bb557fe5b60200260200101819052505b614bcb8383618bea565b50614987565b8a831015614c47576040517f08c379a000000000000000000000000000000000000000000000000000000000815260040180806020018281038252601d8152602001807f4e6f7420656e6f75676820656c65637465642076616c696461746f727300000081525060200191505060405180910390fd5b606083604051908082528060200260200182016040528015614c785781602001602082028038833980820191505090505b5090506000935060008090505b8751811015614ed0576060614c9861789a565b73ffffffffffffffffffffffffffffffffffffffff16638dd31e398a8481518110614cbf57fe5b6020026020010151898581518110614cd357fe5b60200260200101516040518363ffffffff1660e01b8152600401808373ffffffffffffffffffffffffffffffffffffffff1673ffffffffffffffffffffffffffffffffffffffff1681526020018281526020019250505060006040518083038186803b158015614d4257600080fd5b505afa158015614d56573d6000803e3d6000fd5b505050506040513d6000823e3d601f19601f820116820180604052506020811015614d8057600080fd5b8101908080516040519392919084640100000000821115614da057600080fd5b83820191506020820185811115614db657600080fd5b8251866020820283011164010000000082111715614dd357600080fd5b8083526020830192505050908051906020019060200280838360005b83811015614e0a578082015181840152602081019050614def565b50505050905001604052505050905060008090505b8151811015614eb357818181518110614e3457fe5b6020026020010151848881518110614e4857fe5b602002602001019073ffffffffffffffffffffffffffffffffffffffff16908173ffffffffffffffffffffffffffffffffffffffff1681525050614e9660018861799590919063ffffffff16565b9650614eac60018261799590919063ffffffff16565b9050614e1f565b5050614ec960018261799590919063ffffffff16565b9050614c85565b5080995050505050505050505092915050565b6000600360020160010160008373ffffffffffffffffffffffffffffffffffffffff1673ffffffffffffffffffffffffffffffffffffffff168152602001908152602001600020600001549050919050565b6000600360000160010160008373ffffffffffffffffffffffffffffffffffffffff1673ffffffffffffffffffffffffffffffffffffffff168152602001908152602001600020600001549050919050565b6000614fac60036000016000015460036002016000015461799590919063ffffffff16565b905090565b6000614fbc4361254d565b905090565b60006060600060f973ffffffffffffffffffffffffffffffffffffffff1684604051602001808281526020019150506040516020818303038152906040526040518082805190602001908083835b60208310615032578051825260208201915060208101905060208303925061500f565b6001836020036101000a038019825116818451168082178552505050505050905001915050600060405180830381855afa9150503d8060008114615092576040519150601f19603f3d011682016040523d82523d6000602084013e615097565b606091505b508093508192505050806150f6576040517f08c379a000000000000000000000000000000000000000000000000000000000815260040180806020018281038252602e815260200180619f2e602e913960400191505060405180910390fd5b61510182600061708f565b92505050919050565b6000600360000160010160008473ffffffffffffffffffffffffffffffffffffffff1673ffffffffffffffffffffffffffffffffffffffff16815260200190815260200160002060010160008373ffffffffffffffffffffffffffffffffffffffff1673ffffffffffffffffffffffffffffffffffffffff16815260200190815260200160002060000154905092915050565b60006001806000828254019250508190555060006001549050600073ffffffffffffffffffffffffffffffffffffffff168773ffffffffffffffffffffffffffffffffffffffff161415615259576040517f08c379a00000000000000000000000000000000000000000000000000000000081526004018080602001828103825260128152602001807f47726f75702061646472657373207a65726f000000000000000000000000000081525060200191505060405180910390fd5b6000615263617487565b73ffffffffffffffffffffffffffffffffffffffff16636642d594336040518263ffffffff1660e01b8152600401808273ffffffffffffffffffffffffffffffffffffffff1673ffffffffffffffffffffffffffffffffffffffff16815260200191505060206040518083038186803b1580156152df57600080fd5b505afa1580156152f3573d6000803e3d6000fd5b505050506040513d602081101561530957600080fd5b8101908080519060200190929190505050905086600010615392576040517f08c379a00000000000000000000000000000000000000000000000000000000081526004018080602001828103825260198152602001807f566f74652076616c75652063616e6e6f74206265207a65726f0000000000000081525060200191505060405180910390fd5b61539c888261510a565b8711156153f4576040517f08c379a000000000000000000000000000000000000000000000000000000000815260040180806020018281038252602481526020018061a1776024913960400191505060405180910390fd5b6153ff888289618bfc565b61540b88888888618d0c565b61541361779f565b73ffffffffffffffffffffffffffffffffffffffff16636edf77a582896040518363ffffffff1660e01b8152600401808373ffffffffffffffffffffffffffffffffffffffff1673ffffffffffffffffffffffffffffffffffffffff16815260200182815260200192505050600060405180830381600087803b15801561549957600080fd5b505af11580156154ad573d6000803e3d6000fd5b5050505060006154bd8983612513565b14156155105761550f600360090160008373ffffffffffffffffffffffffffffffffffffffff1673ffffffffffffffffffffffffffffffffffffffff1681526020019081526020016000208986618fd1565b5b8773ffffffffffffffffffffffffffffffffffffffff168173ffffffffffffffffffffffffffffffffffffffff167f148075455e24d5cf538793db3e917a157cbadac69dd6a304186daf11b23f76fe896040518082815260200191505060405180910390a3600192505060015481146155f1576040517f08c379a000000000000000000000000000000000000000000000000000000000815260040180806020018281038252600e8152602001807f7265656e7472616e742063616c6c00000000000000000000000000000000000081525060200191505060405180910390fd5b5095945050505050565b60405160200180807f56616c696461746f727300000000000000000000000000000000000000000000815250600a019050604051602081830303815290604052805190602001203373ffffffffffffffffffffffffffffffffffffffff16600260019054906101000a900473ffffffffffffffffffffffffffffffffffffffff1673ffffffffffffffffffffffffffffffffffffffff1663dcf0aaed836040518263ffffffff1660e01b81526004018082815260200191505060206040518083038186803b1580156156cc57600080fd5b505afa1580156156e0573d6000803e3d6000fd5b505050506040513d60208110156156f657600080fd5b810190808051906020019092919050505073ffffffffffffffffffffffffffffffffffffffff1614615790576040517f08c379a00000000000000000000000000000000000000000000000000000000081526004018080602001828103825260188152602001807f6f6e6c79207265676973746572656420636f6e7472616374000000000000000081525060200191505060405180910390fd5b600061579b8561604b565b9050600360040160000173__AddressSortedLinkedList_______________632dedbbf09091878488886040518663ffffffff1660e01b8152600401808681526020018573ffffffffffffffffffffffffffffffffffffffff1673ffffffffffffffffffffffffffffffffffffffff1681526020018481526020018373ffffffffffffffffffffffffffffffffffffffff1673ffffffffffffffffffffffffffffffffffffffff1681526020018273ffffffffffffffffffffffffffffffffffffffff1673ffffffffffffffffffffffffffffffffffffffff1681526020019550505050505060006040518083038186803b15801561589957600080fd5b505af41580156158ad573d6000803e3d6000fd5b505050508473ffffffffffffffffffffffffffffffffffffffff167f8f21dc7ff6f55d73e4fca52a4ef4fcc14fbda43ac338d24922519d51455d39c160405160405180910390a25050505050565b6000600360020160010160008473ffffffffffffffffffffffffffffffffffffffff1673ffffffffffffffffffffffffffffffffffffffff16815260200190815260200160002060020160008373ffffffffffffffffffffffffffffffffffffffff1673ffffffffffffffffffffffffffffffffffffffff16815260200190815260200160002054905092915050565b6060600360040160000173__AddressSortedLinkedList_______________633a72e80290916040518263ffffffff1660e01b81526004018082815260200191505060006040518083038186803b1580156159e557600080fd5b505af41580156159f9573d6000803e3d6000fd5b505050506040513d6000823e3d601f19601f820116820180604052506020811015615a2357600080fd5b8101908080516040519392919084640100000000821115615a4357600080fd5b83820191506020820185811115615a5957600080fd5b8251866020820283011164010000000082111715615a7657600080fd5b8083526020830192505050908051906020019060200280838360005b83811015615aad578082015181840152602081019050615a92565b50505050905001604052505050905090565b60405160200180807f56616c696461746f727300000000000000000000000000000000000000000000815250600a019050604051602081830303815290604052805190602001203373ffffffffffffffffffffffffffffffffffffffff16600260019054906101000a900473ffffffffffffffffffffffffffffffffffffffff1673ffffffffffffffffffffffffffffffffffffffff1663dcf0aaed836040518263ffffffff1660e01b81526004018082815260200191505060206040518083038186803b158015615b9057600080fd5b505afa158015615ba4573d6000803e3d6000fd5b505050506040513d6020811015615bba57600080fd5b810190808051906020019092919050505073ffffffffffffffffffffffffffffffffffffffff1614615c54576040517f08c379a00000000000000000000000000000000000000000000000000000000081526004018080602001828103825260188152602001807f6f6e6c79207265676973746572656420636f6e7472616374000000000000000081525060200191505060405180910390fd5b600360040160000173__AddressSortedLinkedList_______________63281359299091846040518363ffffffff1660e01b8152600401808381526020018273ffffffffffffffffffffffffffffffffffffffff1673ffffffffffffffffffffffffffffffffffffffff1681526020019250505060006040518083038186803b158015615ce057600080fd5b505af4158015615cf4573d6000803e3d6000fd5b505050508173ffffffffffffffffffffffffffffffffffffffff167f5c8cd4e832f3a7d79f9208c2acf25a412143aa3f751cfd3728c42a0fea4921a860405160405180910390a25050565b615d476143a4565b615db9576040517f08c379a00000000000000000000000000000000000000000000000000000000081526004018080602001828103825260208152602001807f4f776e61626c653a2063616c6c6572206973206e6f7420746865206f776e657281525060200191505060405180910390fd5b600073ffffffffffffffffffffffffffffffffffffffff168173ffffffffffffffffffffffffffffffffffffffff161415615e5c576040517f08c379a00000000000000000000000000000000000000000000000000000000081526004018080602001828103825260208152602001807f43616e6e6f7420726567697374657220746865206e756c6c206164647265737381525060200191505060405180910390fd5b80600260016101000a81548173ffffffffffffffffffffffffffffffffffffffff021916908373ffffffffffffffffffffffffffffffffffffffff1602179055508073ffffffffffffffffffffffffffffffffffffffff167f27fe5f0c1c3b1ed427cc63d0f05759ffdecf9aec9e18d31ef366fc8a6cb5dc3b60405160405180910390a250565b600f5481565b6000615f0a6010604051806020016040529081600082015481525050618a93565b905090565b60006001806000828254019250508190555060006001549050615f328484617582565b91506001548114615fab576040517f08c379a000000000000000000000000000000000000000000000000000000000815260040180806020018281038252600e8152602001807f7265656e7472616e742063616c6c00000000000000000000000000000000000081525060200191505060405180910390fd5b5092915050565b600061604383600360020160010160008673ffffffffffffffffffffffffffffffffffffffff1673ffffffffffffffffffffffffffffffffffffffff16815260200190815260200160002060020160008573ffffffffffffffffffffffffffffffffffffffff1673ffffffffffffffffffffffffffffffffffffffff16815260200190815260200160002054619172565b905092915050565b60006160f0600360020160010160008473ffffffffffffffffffffffffffffffffffffffff1673ffffffffffffffffffffffffffffffffffffffff16815260200190815260200160002060000154600360000160010160008573ffffffffffffffffffffffffffffffffffffffff1673ffffffffffffffffffffffffffffffffffffffff1681526020019081526020016000206000015461799590919063ffffffff16565b9050919050565b60006060600060f873ffffffffffffffffffffffffffffffffffffffff166040516020016040516020818303038152906040526040518082805190602001908083835b6020831061615d578051825260208201915060208101905060208303925061613a565b6001836020036101000a038019825116818451168082178552505050505050905001915050600060405180830381855afa9150503d80600081146161bd576040519150601f19603f3d011682016040523d82523d6000602084013e6161c2565b606091505b50809350819250505080616221576040517f08c379a000000000000000000000000000000000000000000000000000000000815260040180806020018281038252602581526020018061a1526025913960400191505060405180910390fd5b61622c82600061708f565b9250505090565b600060018060008282540192505081905550600060015490506000616256617487565b73ffffffffffffffffffffffffffffffffffffffff16636642d594336040518263ffffffff1660e01b8152600401808273ffffffffffffffffffffffffffffffffffffffff1673ffffffffffffffffffffffffffffffffffffffff16815260200191505060206040518083038186803b1580156162d257600080fd5b505afa1580156162e6573d6000803e3d6000fd5b505050506040513d60208110156162fc57600080fd5b81019080805190602001909291905050509050600061631b8883615fb2565b905061632a8882898989617f48565b9350505060015481146163a5576040517f08c379a000000000000000000000000000000000000000000000000000000000815260040180806020018281038252600e8152602001807f7265656e7472616e742063616c6c00000000000000000000000000000000000081525060200191505060405180910390fd5b50949350505050565b60006163f260036163e460026163d660026163c888614fc1565b617a1d90919063ffffffff16565b61799590919063ffffffff16565b617abc90919063ffffffff16565b9050919050565b600080616417836164098661604b565b61799590919063ffffffff16565b905060006164c36164b4600d6001015461642f61789a565b73ffffffffffffffffffffffffffffffffffffffff1663517f6d336040518163ffffffff1660e01b815260040160206040518083038186803b15801561647457600080fd5b505afa158015616488573d6000803e3d6000fd5b505050506040513d602081101561649e57600080fd5b8101908080519060200190929190505050617aa3565b83617a1d90919063ffffffff16565b905060006166326164d261779f565b73ffffffffffffffffffffffffffffffffffffffff166330a61d596040518163ffffffff1660e01b815260040160206040518083038186803b15801561651757600080fd5b505afa15801561652b573d6000803e3d6000fd5b505050506040513d602081101561654157600080fd5b8101908080519060200190929190505050616624600161655f61789a565b73ffffffffffffffffffffffffffffffffffffffff166339e618e88b6040518263ffffffff1660e01b8152600401808273ffffffffffffffffffffffffffffffffffffffff1673ffffffffffffffffffffffffffffffffffffffff16815260200191505060206040518083038186803b1580156165db57600080fd5b505afa1580156165ef573d6000803e3d6000fd5b505050506040513d602081101561660557600080fd5b810190808051906020019092919050505061799590919063ffffffff16565b617a1d90919063ffffffff16565b905080821115935050505092915050565b60008060008714158015616658575060008514155b6166ca576040517f08c379a00000000000000000000000000000000000000000000000000000000081526004018080602001828103825260158152602001807f612064656e6f6d696e61746f72206973207a65726f000000000000000000000081525060200191505060405180910390fd5b6000806000606060fc73ffffffffffffffffffffffffffffffffffffffff168c8c8c8c8c8c6040516020018087815260200186815260200185815260200184815260200183815260200182815260200196505050505050506040516020818303038152906040526040518082805190602001908083835b602083106167645780518252602082019150602081019050602083039250616741565b6001836020036101000a038019825116818451168082178552505050505050905001915050600060405180830381855afa9150503d80600081146167c4576040519150601f19603f3d011682016040523d82523d6000602084013e6167c9565b606091505b50809250819350505081616828576040517f08c379a000000000000000000000000000000000000000000000000000000000815260040180806020018281038252602781526020018061a12b6027913960400191505060405180910390fd5b61683381600061708f565b935061684081602061708f565b925083839550955050505050965096945050505050565b60008061686261789a565b90508073ffffffffffffffffffffffffffffffffffffffff1663c54c1cd4876040518263ffffffff1660e01b8152600401808273ffffffffffffffffffffffffffffffffffffffff1673ffffffffffffffffffffffffffffffffffffffff16815260200191505060206040518083038186803b1580156168e157600080fd5b505afa1580156168f5573d6000803e3d6000fd5b505050506040513d602081101561690b57600080fd5b810190808051906020019092919050505015806169315750600060036002016000015411155b15616940576000915050616b89565b616948619e8e565b6169a2600360020160010160008973ffffffffffffffffffffffffffffffffffffffff1673ffffffffffffffffffffffffffffffffffffffff1681526020019081526020016000206000015460036002016000015461928b565b90506169ac619e8e565b616a6f8373ffffffffffffffffffffffffffffffffffffffff166376f7425d88886040518363ffffffff1660e01b815260040180806020018281038252848482818152602001925060200280828437600081840152601f19601f820116905080830192505050935050505060206040518083038186803b158015616a2f57600080fd5b505afa158015616a43573d6000803e3d6000fd5b505050506040513d6020811015616a5957600080fd5b8101908080519060200190929190505050617eef565b9050616a79619e8e565b616b398473ffffffffffffffffffffffffffffffffffffffff1663dba94fcd8b6040518263ffffffff1660e01b8152600401808273ffffffffffffffffffffffffffffffffffffffff1673ffffffffffffffffffffffffffffffffffffffff16815260200191505060206040518083038186803b158015616af957600080fd5b505afa158015616b0d573d6000803e3d6000fd5b505050506040513d6020811015616b2357600080fd5b8101908080519060200190929190505050617eef565b9050616b82616b7d82616b6f85616b6188616b538f618589565b61861390919063ffffffff16565b61861390919063ffffffff16565b61861390919063ffffffff16565b618a72565b9450505050505b949350505050565b616b996143a4565b616c0b576040517f08c379a00000000000000000000000000000000000000000000000000000000081526004018080602001828103825260208152602001807f4f776e61626c653a2063616c6c6572206973206e6f7420746865206f776e657281525060200191505060405180910390fd5b616c14816192cd565b50565b6000616c216143a4565b616c93576040517f08c379a00000000000000000000000000000000000000000000000000000000081526004018080602001828103825260208152602001807f4f776e61626c653a2063616c6c6572206973206e6f7420746865206f776e657281525060200191505060405180910390fd5b82600010616cec576040517f08c379a000000000000000000000000000000000000000000000000000000000815260040180806020018281038252602b81526020018061a21b602b913960400191505060405180910390fd5b81831115616d45576040517f08c379a000000000000000000000000000000000000000000000000000000000815260040180806020018281038252603b815260200180619ef3603b913960400191505060405180910390fd5b600d6000015483141580616d5e5750600d600101548214155b616dd0576040517f08c379a00000000000000000000000000000000000000000000000000000000081526004018080602001828103825260208152602001807f456c65637461626c652076616c696461746f7273206e6f74206368616e67656481525060200191505060405180910390fd5b604051806040016040528084815260200183815250600d60008201518160000155602082015181600101559050507fb3ae64819ff89f6136eb58b8563cb32c6550f17eaf97f9ecc32f23783229f6de8383604051808381526020018281526020019250505060405180910390a16001905092915050565b600260009054906101000a900460ff1615616eca576040517f08c379a000000000000000000000000000000000000000000000000000000000815260040180806020018281038252601c8152602001807f636f6e747261637420616c726561647920696e697469616c697a65640000000081525060200191505060405180910390fd5b6001600260006101000a81548160ff021916908315150217905550616eee336192cd565b616ef785615d3f565b616f018484616c17565b50616f0b82612567565b50616f158161321e565b505050505050565b600d8060000154908060010154905082565b600080600d60000154600d60010154915091509091565b60006060600060f573ffffffffffffffffffffffffffffffffffffffff1684604051602001808281526020019150506040516020818303038152906040526040518082805190602001908083835b60208310616fb75780518252602082019150602081019050602083039250616f94565b6001836020036101000a038019825116818451168082178552505050505050905001915050600060405180830381855afa9150503d8060008114617017576040519150601f19603f3d011682016040523d82523d6000602084013e61701c565b606091505b5080935081925050508061707b576040517f08c379a000000000000000000000000000000000000000000000000000000000815260040180806020018281038252602c81526020018061a1be602c913960400191505060405180910390fd5b617086826000617b4e565b92505050919050565b600061709b8383617b4e565b60001c905092915050565b600360040160000173__AddressSortedLinkedList_______________6302f130289091866040518363ffffffff1660e01b8152600401808381526020018273ffffffffffffffffffffffffffffffffffffffff1673ffffffffffffffffffffffffffffffffffffffff1681526020019250505060206040518083038186803b15801561713257600080fd5b505af4158015617146573d6000803e3d6000fd5b505050506040513d602081101561715c57600080fd5b81019080805190602001909291905050501561736557600061724d84600360040160000173__AddressSortedLinkedList_______________63e0fe44b39091896040518363ffffffff1660e01b8152600401808381526020018273ffffffffffffffffffffffffffffffffffffffff1673ffffffffffffffffffffffffffffffffffffffff1681526020019250505060206040518083038186803b15801561720457600080fd5b505af4158015617218573d6000803e3d6000fd5b505050506040513d602081101561722e57600080fd5b810190808051906020019092919050505061799590919063ffffffff16565b9050600360040160000173__AddressSortedLinkedList_______________63cab455ae9091878487876040518663ffffffff1660e01b8152600401808681526020018573ffffffffffffffffffffffffffffffffffffffff1673ffffffffffffffffffffffffffffffffffffffff1681526020018481526020018373ffffffffffffffffffffffffffffffffffffffff1673ffffffffffffffffffffffffffffffffffffffff1681526020018273ffffffffffffffffffffffffffffffffffffffff1673ffffffffffffffffffffffffffffffffffffffff1681526020019550505050505060006040518083038186803b15801561734b57600080fd5b505af415801561735f573d6000803e3d6000fd5b50505050505b6173c083600360020160010160008773ffffffffffffffffffffffffffffffffffffffff1673ffffffffffffffffffffffffffffffffffffffff1681526020019081526020016000206000015461799590919063ffffffff16565b600360020160010160008673ffffffffffffffffffffffffffffffffffffffff1673ffffffffffffffffffffffffffffffffffffffff168152602001908152602001600020600001819055506174278360036002016000015461799590919063ffffffff16565b6003600201600001819055508373ffffffffffffffffffffffffffffffffffffffff167f91ba34d62474c14d6c623cd322f4256666c7a45b7fdaa3378e009d39dfcec2a7846040518082815260200191505060405180910390a250505050565b6000600260019054906101000a900473ffffffffffffffffffffffffffffffffffffffff1673ffffffffffffffffffffffffffffffffffffffff1663dcf0aaed60405160200180807f4163636f756e74730000000000000000000000000000000000000000000000008152506008019050604051602081830303815290604052805190602001206040518263ffffffff1660e01b81526004018082815260200191505060206040518083038186803b15801561754257600080fd5b505afa158015617556573d6000803e3d6000fd5b505050506040513d602081101561756c57600080fd5b8101908080519060200190929190505050905090565b600080600360000160010160008573ffffffffffffffffffffffffffffffffffffffff1673ffffffffffffffffffffffffffffffffffffffff16815260200190815260200160002060010160008473ffffffffffffffffffffffffffffffffffffffff1673ffffffffffffffffffffffffffffffffffffffff1681526020019081526020016000209050617614614fb1565b81600101541061768c576040517f08c379a000000000000000000000000000000000000000000000000000000000815260040180806020018281038252601d8152602001807f50656e64696e6720766f74652065706f6368206e6f742070617373656400000081525060200191505060405180910390fd5b6000816000015490506000811161770b576040517f08c379a00000000000000000000000000000000000000000000000000000000081526004018080602001828103825260198152602001807f566f74652076616c75652063616e6e6f74206265207a65726f0000000000000081525060200191505060405180910390fd5b617716858583618bfc565b6000617723868684619411565b90508573ffffffffffffffffffffffffffffffffffffffff168573ffffffffffffffffffffffffffffffffffffffff167f45aac85f38083b18efe2d441a65b9c1ae177c78307cb5a5d4aec8f7dbcaeabfe8484604051808381526020018281526020019250505060405180910390a36001935050505092915050565b6000600260019054906101000a900473ffffffffffffffffffffffffffffffffffffffff1673ffffffffffffffffffffffffffffffffffffffff1663dcf0aaed60405160200180807f4c6f636b6564476f6c6400000000000000000000000000000000000000000000815250600a019050604051602081830303815290604052805190602001206040518263ffffffff1660e01b81526004018082815260200191505060206040518083038186803b15801561785a57600080fd5b505afa15801561786e573d6000803e3d6000fd5b505050506040513d602081101561788457600080fd5b8101908080519060200190929190505050905090565b6000600260019054906101000a900473ffffffffffffffffffffffffffffffffffffffff1673ffffffffffffffffffffffffffffffffffffffff1663dcf0aaed60405160200180807f56616c696461746f727300000000000000000000000000000000000000000000815250600a019050604051602081830303815290604052805190602001206040518263ffffffff1660e01b81526004018082815260200191505060206040518083038186803b15801561795557600080fd5b505afa158015617969573d6000803e3d6000fd5b505050506040513d602081101561797f57600080fd5b8101908080519060200190929190505050905090565b600080828401905083811015617a13576040517f08c379a000000000000000000000000000000000000000000000000000000000815260040180806020018281038252601b8152602001807f536166654d6174683a206164646974696f6e206f766572666c6f77000000000081525060200191505060405180910390fd5b8091505092915050565b600080831415617a305760009050617a9d565b6000828402905082848281617a4157fe5b0414617a98576040517f08c379a000000000000000000000000000000000000000000000000000000000815260040180806020018281038252602181526020018061a10a6021913960400191505060405180910390fd5b809150505b92915050565b6000818310617ab25781617ab4565b825b905092915050565b6000617afe83836040518060400160405280601a81526020017f536166654d6174683a206469766973696f6e206279207a65726f000000000000815250619571565b905092915050565b600080828481617b1257fe5b0490506000838581617b2057fe5b061415617b305780915050617b48565b617b4460018261799590919063ffffffff16565b9150505b92915050565b6000617b6460208361799590919063ffffffff16565b83511015617bda576040517f08c379a00000000000000000000000000000000000000000000000000000000081526004018080602001828103825260148152602001807f736c6963696e67206f7574206f662072616e676500000000000000000000000081525060200191505060405180910390fd5b60006020830184015190508091505092915050565b600060036000019050617c0f82826000015461799590919063ffffffff16565b816000018190555060008160010160008673ffffffffffffffffffffffffffffffffffffffff1673ffffffffffffffffffffffffffffffffffffffff1681526020019081526020016000209050617c7383826000015461799590919063ffffffff16565b816000018190555060008160010160008673ffffffffffffffffffffffffffffffffffffffff1673ffffffffffffffffffffffffffffffffffffffff1681526020019081526020016000209050617cd784826000015461799590919063ffffffff16565b8160000181905550617ce7614fb1565b8160010181905550505050505050565b6000617dd284600360040160000173__AddressSortedLinkedList_______________63e0fe44b39091896040518363ffffffff1660e01b8152600401808381526020018273ffffffffffffffffffffffffffffffffffffffff1673ffffffffffffffffffffffffffffffffffffffff1681526020019250505060206040518083038186803b158015617d8957600080fd5b505af4158015617d9d573d6000803e3d6000fd5b505050506040513d6020811015617db357600080fd5b810190808051906020019092919050505061799590919063ffffffff16565b9050600360040160000173__AddressSortedLinkedList_______________63cab455ae9091878487876040518663ffffffff1660e01b8152600401808681526020018573ffffffffffffffffffffffffffffffffffffffff1673ffffffffffffffffffffffffffffffffffffffff1681526020018481526020018373ffffffffffffffffffffffffffffffffffffffff1673ffffffffffffffffffffffffffffffffffffffff1681526020018273ffffffffffffffffffffffffffffffffffffffff1673ffffffffffffffffffffffffffffffffffffffff1681526020019550505050505060006040518083038186803b158015617ed057600080fd5b505af4158015617ee4573d6000803e3d6000fd5b505050505050505050565b617ef7619e8e565b6040518060200160405280838152509050919050565b617f15619e8e565b604051806020016040528069d3c21bcecceda1000000815250905090565b60008160000151836000015110905092915050565b60008073ffffffffffffffffffffffffffffffffffffffff168673ffffffffffffffffffffffffffffffffffffffff161415617fec576040517f08c379a00000000000000000000000000000000000000000000000000000000081526004018080602001828103825260128152602001807f47726f75702061646472657373207a65726f000000000000000000000000000081525060200191505060405180910390fd5b6000617ff6617487565b73ffffffffffffffffffffffffffffffffffffffff16636642d594336040518263ffffffff1660e01b8152600401808273ffffffffffffffffffffffffffffffffffffffff1673ffffffffffffffffffffffffffffffffffffffff16815260200191505060206040518083038186803b15801561807257600080fd5b505afa158015618086573d6000803e3d6000fd5b505050506040513d602081101561809c57600080fd5b8101908080519060200190929190505050905085600010618125576040517f08c379a00000000000000000000000000000000000000000000000000000000081526004018080602001828103825260198152602001807f566f74652076616c75652063616e6e6f74206265207a65726f0000000000000081525060200191505060405180910390fd5b61812f8782615fb2565b861115618187576040517f08c379a000000000000000000000000000000000000000000000000000000000815260040180806020018281038252602381526020018061a03f6023913960400191505060405180910390fd5b6000618194888389619637565b90506181a288888888618d0c565b6181aa61779f565b73ffffffffffffffffffffffffffffffffffffffff16636edf77a583896040518363ffffffff1660e01b8152600401808373ffffffffffffffffffffffffffffffffffffffff1673ffffffffffffffffffffffffffffffffffffffff16815260200182815260200192505050600060405180830381600087803b15801561823057600080fd5b505af1158015618244573d6000803e3d6000fd5b5050505060006182548984612513565b14156182a7576182a6600360090160008473ffffffffffffffffffffffffffffffffffffffff1673ffffffffffffffffffffffffffffffffffffffff1681526020019081526020016000208986618fd1565b5b8773ffffffffffffffffffffffffffffffffffffffff168273ffffffffffffffffffffffffffffffffffffffff167fae7458f8697a680da6be36406ea0b8f40164915ac9cc40c0dad05a2ff6e8c6a88984604051808381526020018281526020019250505060405180910390a360019250505095945050505050565b600061836583836040518060400160405280601e81526020017f536166654d6174683a207375627472616374696f6e206f766572666c6f7700008152506197fb565b905092915050565b600080859050600061837f888a61510a565b9050600081111561841f5760006183968383617aa3565b90506183a3898b83618bfc565b8873ffffffffffffffffffffffffffffffffffffffff168a73ffffffffffffffffffffffffffffffffffffffff167f148075455e24d5cf538793db3e917a157cbadac69dd6a304186daf11b23f76fe836040518082815260200191505060405180910390a361841b818461832390919063ffffffff16565b9250505b600061842b898b615fb2565b905060008111801561843d5750600083115b156184e457600061844e8483617aa3565b9050600061845d8b8d84619637565b90508a73ffffffffffffffffffffffffffffffffffffffff168c73ffffffffffffffffffffffffffffffffffffffff167fae7458f8697a680da6be36406ea0b8f40164915ac9cc40c0dad05a2ff6e8c6a88484604051808381526020018281526020019250505060405180910390a36184df828661832390919063ffffffff16565b945050505b60006184f9848a61832390919063ffffffff16565b90506000811115618570576185108a828a8a618d0c565b600061851c8b8d612513565b141561856f5761856e600360090160008d73ffffffffffffffffffffffffffffffffffffffff1673ffffffffffffffffffffffffffffffffffffffff1681526020019081526020016000208b88618fd1565b5b5b809450505050509695505050505050565b600033905090565b618591619e8e565b6185996198bb565b8211156185f1576040517f08c379a000000000000000000000000000000000000000000000000000000000815260040180806020018281038252603681526020018061a0096036913960400191505060405180910390fd5b604051806020016040528069d3c21bcecceda100000084028152509050919050565b61861b619e8e565b600083600001511480618632575060008260000151145b1561864e57604051806020016040528060008152509050618a6c565b69d3c21bcecceda10000008260000151141561866c57829050618a6c565b69d3c21bcecceda10000008360000151141561868a57819050618a6c565b600069d3c21bcecceda10000006186a0856198da565b60000151816186ab57fe5b04905060006186b985619911565b600001519050600069d3c21bcecceda10000006186d5866198da565b60000151816186e057fe5b04905060006186ee86619911565b6000015190506000828502905060008514618782578285828161870d57fe5b0414618781576040517f08c379a00000000000000000000000000000000000000000000000000000000081526004018080602001828103825260168152602001807f6f766572666c6f7720783179312064657465637465640000000000000000000081525060200191505060405180910390fd5b5b600069d3c21bcecceda100000082029050600082146188245769d3c21bcecceda10000008282816187af57fe5b0414618823576040517f08c379a000000000000000000000000000000000000000000000000000000000815260040180806020018281038252601f8152602001807f6f766572666c6f772078317931202a206669786564312064657465637465640081525060200191505060405180910390fd5b5b80915060008486029050600086146188b5578486828161884057fe5b04146188b4576040517f08c379a00000000000000000000000000000000000000000000000000000000081526004018080602001828103825260168152602001807f6f766572666c6f7720783279312064657465637465640000000000000000000081525060200191505060405180910390fd5b5b600084880290506000881461894357848882816188ce57fe5b0414618942576040517f08c379a00000000000000000000000000000000000000000000000000000000081526004018080602001828103825260168152602001807f6f766572666c6f7720783179322064657465637465640000000000000000000081525060200191505060405180910390fd5b5b61894b61994e565b878161895357fe5b04965061895e61994e565b858161896657fe5b04945060008588029050600088146189f7578588828161898257fe5b04146189f6576040517f08c379a00000000000000000000000000000000000000000000000000000000081526004018080602001828103825260168152602001807f6f766572666c6f7720783279322064657465637465640000000000000000000081525060200191505060405180910390fd5b5b6189ff619e8e565b6040518060200160405280878152509050618a288160405180602001604052808781525061995b565b9050618a428160405180602001604052808681525061995b565b9050618a5c8160405180602001604052808581525061995b565b9050809a50505050505050505050505b92915050565b600069d3c21bcecceda1000000826000015181618a8b57fe5b049050919050565b600081600001519050919050565b618aa9619e8e565b600082600001511415618b24576040517f08c379a00000000000000000000000000000000000000000000000000000000081526004018080602001828103825260118152602001807f63616e277420646976696465206279203000000000000000000000000000000081525060200191505060405180910390fd5b600069d3c21bcecceda10000008460000151029050836000015169d3c21bcecceda10000008281618b5157fe5b0414618bc5576040517f08c379a00000000000000000000000000000000000000000000000000000000081526004018080602001828103825260128152602001807f6f766572666c6f7720617420646976696465000000000000000000000000000081525060200191505060405180910390fd5b604051806020016040528084600001518381618bdd57fe5b0481525091505092915050565b618bf8828260008551619a04565b5050565b600060036000019050618c1c82826000015461832390919063ffffffff16565b816000018190555060008160010160008673ffffffffffffffffffffffffffffffffffffffff1673ffffffffffffffffffffffffffffffffffffffff1681526020019081526020016000209050618c8083826000015461832390919063ffffffff16565b816000018190555060008160010160008673ffffffffffffffffffffffffffffffffffffffff1673ffffffffffffffffffffffffffffffffffffffff1681526020019081526020016000209050618ce484826000015461832390919063ffffffff16565b8160000181905550600081600001541415618d0457600081600101819055505b505050505050565b600360040160000173__AddressSortedLinkedList_______________6302f130289091866040518363ffffffff1660e01b8152600401808381526020018273ffffffffffffffffffffffffffffffffffffffff1673ffffffffffffffffffffffffffffffffffffffff1681526020019250505060206040518083038186803b158015618d9857600080fd5b505af4158015618dac573d6000803e3d6000fd5b505050506040513d6020811015618dc257600080fd5b810190808051906020019092919050505015618fcb576000618eb384600360040160000173__AddressSortedLinkedList_______________63e0fe44b39091896040518363ffffffff1660e01b8152600401808381526020018273ffffffffffffffffffffffffffffffffffffffff1673ffffffffffffffffffffffffffffffffffffffff1681526020019250505060206040518083038186803b158015618e6a57600080fd5b505af4158015618e7e573d6000803e3d6000fd5b505050506040513d6020811015618e9457600080fd5b810190808051906020019092919050505061832390919063ffffffff16565b9050600360040160000173__AddressSortedLinkedList_______________63cab455ae9091878487876040518663ffffffff1660e01b8152600401808681526020018573ffffffffffffffffffffffffffffffffffffffff1673ffffffffffffffffffffffffffffffffffffffff1681526020018481526020018373ffffffffffffffffffffffffffffffffffffffff1673ffffffffffffffffffffffffffffffffffffffff1681526020018273ffffffffffffffffffffffffffffffffffffffff1673ffffffffffffffffffffffffffffffffffffffff1681526020019550505050505060006040518083038186803b158015618fb157600080fd5b505af4158015618fc5573d6000803e3d6000fd5b50505050505b50505050565b82805490508110801561904557508173ffffffffffffffffffffffffffffffffffffffff1683828154811061900257fe5b9060005260206000200160009054906101000a900473ffffffffffffffffffffffffffffffffffffffff1673ffffffffffffffffffffffffffffffffffffffff16145b6190b7576040517f08c379a00000000000000000000000000000000000000000000000000000000081526004018080602001828103825260098152602001807f42616420696e646578000000000000000000000000000000000000000000000081525060200191505060405180910390fd5b60006190d16001858054905061832390919063ffffffff16565b90508381815481106190df57fe5b9060005260206000200160009054906101000a900473ffffffffffffffffffffffffffffffffffffffff1684838154811061911657fe5b9060005260206000200160006101000a81548173ffffffffffffffffffffffffffffffffffffffff021916908373ffffffffffffffffffffffffffffffffffffffff16021790555080848161916b9190619ea1565b5050505050565b600080600360020160010160008573ffffffffffffffffffffffffffffffffffffffff1673ffffffffffffffffffffffffffffffffffffffff1681526020019081526020016000206001015414156191cd5760009050619285565b619282600360020160010160008573ffffffffffffffffffffffffffffffffffffffff1673ffffffffffffffffffffffffffffffffffffffff16815260200190815260200160002060010154619274600360020160010160008773ffffffffffffffffffffffffffffffffffffffff1673ffffffffffffffffffffffffffffffffffffffff1681526020019081526020016000206000015485617a1d90919063ffffffff16565b617abc90919063ffffffff16565b90505b92915050565b619293619e8e565b61929b619e8e565b6192a484618589565b90506192ae619e8e565b6192b784618589565b90506192c38282618aa1565b9250505092915050565b600073ffffffffffffffffffffffffffffffffffffffff168173ffffffffffffffffffffffffffffffffffffffff161415619353576040517f08c379a0000000000000000000000000000000000000000000000000000000008152600401808060200182810382526026815260200180619f5c6026913960400191505060405180910390fd5b8073ffffffffffffffffffffffffffffffffffffffff166000809054906101000a900473ffffffffffffffffffffffffffffffffffffffff1673ffffffffffffffffffffffffffffffffffffffff167f8be0079c531659141344cd1fd0a4f28419497f9722a3daafe3b4186f6b6457e060405160405180910390a3806000806101000a81548173ffffffffffffffffffffffffffffffffffffffff021916908373ffffffffffffffffffffffffffffffffffffffff16021790555050565b6000806003600201905061943283826000015461799590919063ffffffff16565b816000018190555060006194468685619d19565b905060008260010160008873ffffffffffffffffffffffffffffffffffffffff1673ffffffffffffffffffffffffffffffffffffffff16815260200190815260200160002090506194a485826000015461799590919063ffffffff16565b81600001819055506194c382826001015461799590919063ffffffff16565b816001018190555061951f828260020160008973ffffffffffffffffffffffffffffffffffffffff1673ffffffffffffffffffffffffffffffffffffffff1681526020019081526020016000205461799590919063ffffffff16565b8160020160008873ffffffffffffffffffffffffffffffffffffffff1673ffffffffffffffffffffffffffffffffffffffff168152602001908152602001600020819055508193505050509392505050565b6000808311829061961d576040517f08c379a00000000000000000000000000000000000000000000000000000000081526004018080602001828103825283818151815260200191508051906020019080838360005b838110156195e25780820151818401526020810190506195c7565b50505050905090810190601f16801561960f5780820380516001836020036101000a031916815260200191505b509250505060405180910390fd5b50600083858161962957fe5b049050809150509392505050565b6000806003600201905061965883826000015461832390919063ffffffff16565b8160000181905550600080905060006196718787615fb2565b905060008360010160008973ffffffffffffffffffffffffffffffffffffffff1673ffffffffffffffffffffffffffffffffffffffff168152602001908152602001600020905085821415619709578060020160008873ffffffffffffffffffffffffffffffffffffffff1673ffffffffffffffffffffffffffffffffffffffff168152602001908152602001600020549250619716565b6197138887619d19565b92505b61972d86826000015461832390919063ffffffff16565b816000018190555061974c83826001015461832390919063ffffffff16565b81600101819055506197a8838260020160008a73ffffffffffffffffffffffffffffffffffffffff1673ffffffffffffffffffffffffffffffffffffffff1681526020019081526020016000205461832390919063ffffffff16565b8160020160008973ffffffffffffffffffffffffffffffffffffffff1673ffffffffffffffffffffffffffffffffffffffff16815260200190815260200160002081905550829450505050509392505050565b60008383111582906198a8576040517f08c379a00000000000000000000000000000000000000000000000000000000081526004018080602001828103825283818151815260200191508051906020019080838360005b8381101561986d578082015181840152602081019050619852565b50505050905090810190601f16801561989a5780820380516001836020036101000a031916815260200191505b509250505060405180910390fd5b5060008385039050809150509392505050565b60007601357c299a88ea76a58924d52ce4f26a85af186c2b9e74905090565b6198e2619e8e565b604051806020016040528069d3c21bcecceda10000008085600001518161990557fe5b04028152509050919050565b619919619e8e565b604051806020016040528069d3c21bcecceda10000008085600001518161993c57fe5b04028460000151038152509050919050565b600064e8d4a51000905090565b619963619e8e565b60008260000151846000015101905083600001518110156199ec576040517f08c379a00000000000000000000000000000000000000000000000000000000081526004018080602001828103825260158152602001807f616464206f766572666c6f77206465746563746564000000000000000000000081525060200191505060405180910390fd5b60405180602001604052808281525091505092915050565b8251845114619a5e576040517f08c379a000000000000000000000000000000000000000000000000000000000815260040180806020018281038252602381526020018061a19b6023913960400191505060405180910390fd5b83518210619ad4576040517f08c379a000000000000000000000000000000000000000000000000000000000815260040180806020018281038252601d8152602001807f6865617020737461727420696e646578206f7574206f662072616e676500000081525060200191505060405180910390fd5b8351811115619b4b576040517f08c379a00000000000000000000000000000000000000000000000000000000081526004018080602001828103825260188152602001807f68656170206c656e677468206f7574206f662072616e6765000000000000000081525060200191505060405180910390fd5b60008290505b600115619d12576000619b816001619b73600285617a1d90919063ffffffff16565b61799590919063ffffffff16565b90506000619bac6002619b9e600286617a1d90919063ffffffff16565b61799590919063ffffffff16565b905060008390508483108015619c1d5750619c1c87898381518110619bcd57fe5b602002602001015181518110619bdf57fe5b6020026020010151888a8681518110619bf457fe5b602002602001015181518110619c0657fe5b6020026020010151619e4c90919063ffffffff16565b5b15619c26578290505b8482108015619c905750619c8f87898381518110619c4057fe5b602002602001015181518110619c5257fe5b6020026020010151888a8581518110619c6757fe5b602002602001015181518110619c7957fe5b6020026020010151619e4c90919063ffffffff16565b5b15619c99578190505b83811415619ca957505050619d12565b6000888581518110619cb757fe5b60200260200101519050888281518110619ccd57fe5b6020026020010151898681518110619ce157fe5b60200260200101818152505080898381518110619cfa57fe5b60200260200101818152505081945050505050619b51565b5050505050565b600080600360020160010160008573ffffffffffffffffffffffffffffffffffffffff1673ffffffffffffffffffffffffffffffffffffffff168152602001908152602001600020600101541415619d8e57619d8768056bc75e2d6310000083617a1d90919063ffffffff16565b9050619e46565b619e43600360020160010160008573ffffffffffffffffffffffffffffffffffffffff1673ffffffffffffffffffffffffffffffffffffffff16815260200190815260200160002060000154619e35600360020160010160008773ffffffffffffffffffffffffffffffffffffffff1673ffffffffffffffffffffffffffffffffffffffff1681526020019081526020016000206001015485617a1d90919063ffffffff16565b617abc90919063ffffffff16565b90505b92915050565b60008160000151836000015111905092915050565b604051806040016040528060608152602001600081525090565b6040518060200160405280600081525090565b6040518060200160405280600081525090565b815481835581811115619ec857818360005260206000209182019101619ec79190619ecd565b5b505050565b619eef91905b80821115619eeb576000816000905550600101619ed3565b5090565b9056fe4d6178696d756d20656c65637461626c652076616c696461746f72732063616e6e6f7420626520736d616c6c6572207468616e206d696e696d756d6572726f722063616c6c696e67206e756d62657256616c696461746f7273496e53657420707265636f6d70696c654f776e61626c653a206e6577206f776e657220697320746865207a65726f2061646472657373496e707574206c656e67746873206d75737420626520636f72726573706f6e642e456c6563746162696c697479207468726573686f6c64206d757374206265206c6f776572207468616e20313030256572726f722063616c6c696e672067657456657269666965645365616c4269746d617046726f6d48656164657220707265636f6d70696c6563616e277420637265617465206669786964697479206e756d626572206c6172676572207468616e206d61784e657746697865642829566f74652076616c7565206c6172676572207468616e2061637469766520766f7465736572726f722063616c6c696e672076616c696461746f725369676e65724164647265737346726f6d43757272656e7453657420707265636f6d70696c656572726f722063616c6c696e67206e756d62657256616c696461746f7273496e43757272656e7453657420707265636f6d70696c656572726f722063616c6c696e672076616c696461746f725369676e65724164647265737346726f6d53657420707265636f6d70696c65536166654d6174683a206d756c7469706c69636174696f6e206f766572666c6f776572726f722063616c6c696e67206672616374696f6e4d756c45787020707265636f6d70696c656572726f722063616c6c696e672067657445706f636853697a6520707265636f6d70696c65566f74652076616c7565206c6172676572207468616e2070656e64696e6720766f7465736b657920616e642076616c7565206172726179206c656e677468206d69736d617463686572726f722063616c6c696e6720676574506172656e745365616c4269746d617020707265636f6d70696c656572726f722063616c6c696e6720676574426c6f636b4e756d62657246726f6d48656164657220707265636f6d70696c654d696e696d756d20656c65637461626c652076616c696461746f72732063616e6e6f74206265207a65726f44656372656d656e742076616c7565206d7573742062652067726561746572207468616e20302e6572726f722063616c6c696e67206861736848656164657220707265636f6d70696c65a265627a7a72315820a75308d0a25898ec8199e978db8660bbcb318b55d3e339615ba4355fe967fd9964736f6c634300050d0032",
  "source": "pragma solidity ^0.5.13;\n\nimport \"../Election.sol\";\nimport \"../../common/FixidityLib.sol\";\n\n/**\n * @title A wrapper around Election that exposes onlyVm functions for testing.\n */\ncontract ElectionTest is Election(true) {\n  function distributeEpochRewards(address group, uint256 value, address lesser, address greater)\n    external\n  {\n    return _distributeEpochRewards(group, value, lesser, greater);\n  }\n}\n",
  "sourcePath": "/Users/hiroki.yasui/go/src/github.com/celo-org/celo-monorepo/packages/protocol/contracts/governance/test/ElectionTest.sol",
  "compiler": {
    "name": "solc",
    "version": "0.5.13+commit.5b0b510c.Emscripten.clang"
  },
  "schemaVersion": "3.0.23",
  "updatedAt": "2022-05-06T03:53:12.965Z",
  "devdoc": {
    "methods": {
      "activate(address)": {
        "details": "Pending votes cannot be activated until an election has been held.",
        "params": {
          "group": "The validator group to vote for."
        },
        "return": "True upon success."
      },
      "activateForAccount(address,address)": {
        "details": "Pending votes cannot be activated until an election has been held.",
        "params": {
          "account": "The validateor group account's pending votes to active votes",
          "group": "The validator group to vote for."
        },
        "return": "True upon success."
      },
      "canReceiveVotes(address,uint256)": {
        "details": "Votes are not allowed to be cast that would increase a group's proportion of locked gold  voting for it to greater than  (numGroupMembers + 1) / min(maxElectableValidators, numRegisteredValidators)Note that groups may still receive additional votes via rewards even if this function  returns false.",
        "params": {
          "group": "The address of the group.",
          "value": "The number of votes."
        },
        "return": "Whether or not a group can receive the specified number of votes."
      },
      "checkProofOfPossession(address,bytes,bytes)": {
        "params": {
          "blsKey": "The BLS public key that the validator is using for consensus, should pass proof  of possession. 48 bytes.",
          "blsPop": "The BLS public key proof-of-possession, which consists of a signature on the  account address. 96 bytes.",
          "sender": "The address signed by the BLS key to generate the proof of possession."
        },
        "return": "True upon success."
      },
      "electNValidatorSigners(uint256,uint256)": {
        "details": "See https://en.wikipedia.org/wiki/D%27Hondt_method#Allocation for more information.",
        "return": "The list of elected validators."
      },
      "electValidatorSigners()": {
        "return": "The list of elected validators."
      },
      "forceDecrementVotes(address,uint256,address[],address[],uint256[])": {
        "params": {
          "account": "Address to revoke votes from.",
          "greaters": "The groups receivier more votes than the i'th `group`, or 0 if               the i'th `group` has the most votes of any validator group.",
          "indices": "The indices of the i'th group in the account's voting list.",
          "lessers": "The groups receiving fewer votes than the i'th `group`, or 0 if               the i'th `group` has the fewest votes of any validator group.",
          "value": "Maximum amount of votes to revoke."
        },
        "return": "Number of votes successfully decremented."
      },
      "fractionMulExp(uint256,uint256,uint256,uint256,uint256,uint256)": {
        "params": {
          "_decimals": "precision",
          "aDenominator": "Denominator of first fraction",
          "aNumerator": "Numerator of first fraction",
          "bDenominator": "Denominator of exponentiated fraction",
          "bNumerator": "Numerator of exponentiated fraction",
          "exponent": "exponent to raise b to"
        },
        "return": "numerator/denominator of the computed quantity (not reduced)."
      },
      "getActiveVoteUnitsForGroup(address)": {
        "params": {
          "group": "The address of the validator group."
        },
        "return": "The total active vote units made for `group`."
      },
      "getActiveVoteUnitsForGroupByAccount(address,address)": {
        "params": {
          "account": "The address of the voting account.",
          "group": "The address of the validator group."
        },
        "return": "The active vote units for `group` made by `account`."
      },
      "getActiveVotes()": {
        "return": "The active votes received across all groups."
      },
      "getActiveVotesForGroup(address)": {
        "params": {
          "group": "The address of the validator group."
        },
        "return": "The active votes made for `group`."
      },
      "getActiveVotesForGroupByAccount(address,address)": {
        "params": {
          "account": "The address of the voting account.",
          "group": "The address of the validator group."
        },
        "return": "The active votes for `group` made by `account`."
      },
      "getBlockNumberFromHeader(bytes)": {
        "params": {
          "header": "RLP encoded header"
        },
        "return": "Block number."
      },
      "getCurrentValidatorSigners()": {
        "return": "List of current validator signers."
      },
      "getElectabilityThreshold()": {
        "return": "Threshold value as unwrapped fraction."
      },
      "getElectableValidators()": {
        "return": "The minimum and maximum number of validators that can be elected."
      },
      "getEligibleValidatorGroups()": {
        "return": "The list of validator groups eligible to elect validators."
      },
      "getEpochNumber()": {
        "return": "Current epoch number."
      },
      "getEpochNumberOfBlock(uint256)": {
        "params": {
          "blockNumber": "Block number where epoch number is calculated."
        },
        "return": "Epoch number."
      },
      "getEpochSize()": {
        "return": "The current epoch size in blocks."
      },
      "getGroupEligibility(address)": {
        "details": "Eligible groups that have received their maximum number of votes cannot receive more.",
        "return": "Whether or not a group is eligible to receive votes."
      },
      "getGroupEpochRewards(address,uint256,uint256[])": {
        "details": "Eligible groups that have received their maximum number of votes cannot receive more.",
        "params": {
          "group": "The group to calculate epoch rewards for.",
          "totalEpochRewards": "The total amount of rewards going to all voters.",
          "uptimes": "Array of Fixidity representations of the validators' uptimes, between 0 and 1."
        },
        "return": "The amount of rewards that voters for `group` are due at the end of an epoch."
      },
      "getGroupsVotedForByAccount(address)": {
        "params": {
          "account": "The address of the account casting votes."
        },
        "return": "The groups that `account` has voted for."
      },
      "getNumVotesReceivable(address)": {
        "details": "Votes are not allowed to be cast that would increase a group's proportion of locked gold  voting for it to greater than  (numGroupMembers + 1) / min(maxElectableValidators, numRegisteredValidators)Note that a group's vote total may exceed this number through rewards or config changes.",
        "params": {
          "group": "The address of the group."
        },
        "return": "The number of votes that a group can receive."
      },
      "getParentSealBitmap(uint256)": {
        "params": {
          "blockNumber": "Block number to retrieve. Must be within 4 epochs of the current number."
        },
        "return": "Bitmap parent seal with set bits at indices corresponding to signing validators."
      },
      "getPendingVotesForGroup(address)": {
        "params": {
          "group": "The address of the validator group."
        },
        "return": "The pending votes made for `group`."
      },
      "getPendingVotesForGroupByAccount(address,address)": {
        "params": {
          "account": "The address of the voting account.",
          "group": "The address of the validator group."
        },
        "return": "The pending votes for `group` made by `account`."
      },
      "getTotalVotes()": {
        "return": "The total votes received across all groups."
      },
      "getTotalVotesByAccount(address)": {
        "params": {
          "account": "The address of the account."
        },
        "return": "The total number of votes cast by an account."
      },
      "getTotalVotesForEligibleValidatorGroups()": {
        "return": "Lists of all validator groups and the number of votes they've received."
      },
      "getTotalVotesForGroup(address)": {
        "params": {
          "group": "The address of the validator group."
        },
        "return": "The total votes made for `group`."
      },
      "getTotalVotesForGroupByAccount(address,address)": {
        "params": {
          "account": "The address of the voting account.",
          "group": "The address of the validator group."
        },
        "return": "The total votes for `group` made by `account`."
      },
      "getVerifiedSealBitmapFromHeader(bytes)": {
        "params": {
          "header": "RLP encoded header"
        },
        "return": "Bitmap parent seal with set bits at indices correspoinding to signing validators."
      },
      "getVersionNumber()": {
        "return": "The storage, major, minor, and patch version of the contract."
      },
      "hasActivatablePendingVotes(address,address)": {
        "details": "Pending votes cannot be activated until an election has been held.",
        "params": {
          "account": "The account with pending votes.",
          "group": "The validator group that `account` has pending votes for."
        },
        "return": "Whether or not `account` has activatable votes for `group`."
      },
      "hashHeader(bytes)": {
        "params": {
          "header": "RLP encoded header"
        },
        "return": "Header hash."
      },
      "initialize(address,uint256,uint256,uint256,uint256)": {
        "details": "Should be called only once.",
        "params": {
          "_electabilityThreshold": "The minimum ratio of votes a group needs before its members can  be elected.",
          "_maxNumGroupsVotedFor": "The maximum number of groups that an account can vote for at once.",
          "minElectableValidators": "The minimum number of validators that can be elected.",
          "registryAddress": "The address of the registry core smart contract."
        }
      },
      "isOwner()": {
        "details": "Returns true if the caller is the current owner."
      },
      "markGroupEligible(address,address,address)": {
        "params": {
          "greater": "The address of the group that has received more votes than this group.",
          "group": "The address of the validator group.",
          "lesser": "The address of the group that has received fewer votes than this group."
        }
      },
      "markGroupIneligible(address)": {
        "details": "Can only be called by the registered \"Validators\" contract.",
        "params": {
          "group": "The address of the validator group."
        }
      },
      "minQuorumSize(uint256)": {
        "details": "Computed in celo-blockchain as int(math.Ceil(float64(2*valSet.Size()) / 3))"
      },
      "minQuorumSizeInCurrentSet()": {
        "return": "Byzantine quorum of validators."
      },
      "numberValidatorsInCurrentSet()": {
        "return": "Size of the current elected validator set."
      },
      "numberValidatorsInSet(uint256)": {
        "params": {
          "blockNumber": "Block number to retrieve the validator set from."
        },
        "return": "Size of the validator set."
      },
      "owner()": {
        "details": "Returns the address of the current owner."
      },
      "renounceOwnership()": {
        "details": "Leaves the contract without owner. It will not be possible to call `onlyOwner` functions anymore. Can only be called by the current owner.     * NOTE: Renouncing ownership will leave the contract without an owner, thereby removing any functionality that is only available to the owner."
      },
      "revokeActive(address,uint256,address,address,uint256)": {
        "details": "Fails if the account has not voted on a validator group.",
        "params": {
          "greater": "The group receiving more votes than the group for which the vote was revoked,  or 0 if that group has the most votes of any validator group.",
          "group": "The validator group to revoke votes from.",
          "index": "The index of the group in the account's voting list.",
          "lesser": "The group receiving fewer votes than the group for which the vote was revoked,  or 0 if that group has the fewest votes of any validator group.",
          "value": "The number of votes to revoke."
        },
        "return": "True upon success."
      },
      "revokeAllActive(address,address,address,uint256)": {
        "details": "Fails if the account has not voted on a validator group.",
        "params": {
          "greater": "The group receiving more votes than the group for which the vote was revoked,  or 0 if that group has the most votes of any validator group.",
          "group": "The validator group to revoke votes from.",
          "index": "The index of the group in the account's voting list.",
          "lesser": "The group receiving fewer votes than the group for which the vote was revoked,  or 0 if that group has the fewest votes of any validator group."
        },
        "return": "True upon success."
      },
      "revokePending(address,uint256,address,address,uint256)": {
        "details": "Fails if the account has not voted on a validator group.",
        "params": {
          "greater": "The group receiving more votes than the group for which the vote was revoked,  or 0 if that group has the most votes of any validator group.",
          "group": "The validator group to revoke votes from.",
          "index": "The index of the group in the account's voting list.",
          "lesser": "The group receiving fewer votes than the group for which the vote was revoked,  or 0 if that group has the fewest votes of any validator group.",
          "value": "The number of votes to revoke."
        },
        "return": "True upon success."
      },
      "setElectabilityThreshold(uint256)": {
        "params": {
          "threshold": "Electability threshold as unwrapped Fraction."
        },
        "return": "True upon success."
      },
      "setElectableValidators(uint256,uint256)": {
        "params": {
          "max": "The maximum number of validators that can be elected.",
          "min": "The minimum number of validators that can be elected."
        },
        "return": "True upon success."
      },
      "setMaxNumGroupsVotedFor(uint256)": {
        "params": {
          "_maxNumGroupsVotedFor": "The maximum number of groups an account can vote for."
        },
        "return": "True upon success."
      },
      "setRegistry(address)": {
        "params": {
          "registryAddress": "The address of a registry contract for routing to other contracts."
        }
      },
      "transferOwnership(address)": {
        "details": "Transfers ownership of the contract to a new account (`newOwner`). Can only be called by the current owner."
      },
      "validatorSignerAddressFromCurrentSet(uint256)": {
        "params": {
          "index": "Index of requested validator in the validator set."
        },
        "return": "Address of validator at the requested index."
      },
      "validatorSignerAddressFromSet(uint256,uint256)": {
        "params": {
          "blockNumber": "Block number to retrieve the validator set from.",
          "index": "Index of requested validator in the validator set."
        },
        "return": "Address of validator at the requested index."
      },
      "vote(address,uint256,address,address)": {
        "details": "Fails if `group` is empty or not a validator group.",
        "params": {
          "greater": "The group receiving more votes than `group`, or 0 if `group` has the  most votes of any validator group.",
          "group": "The validator group to vote for.",
          "lesser": "The group receiving fewer votes than `group`, or 0 if `group` has the  fewest votes of any validator group.",
          "value": "The amount of gold to use to vote."
        },
        "return": "True upon success."
      }
    },
    "title": "A wrapper around Election that exposes onlyVm functions for testing."
  },
  "userdoc": {
    "methods": {
      "activate(address)": {
        "notice": "Converts `account`'s pending votes for `group` to active votes."
      },
      "activateForAccount(address,address)": {
        "notice": "Converts `account`'s pending votes for `group` to active votes."
      },
      "canReceiveVotes(address,uint256)": {
        "notice": "Returns whether or not a group can receive the specified number of votes."
      },
      "checkProofOfPossession(address,bytes,bytes)": {
        "notice": "Checks a BLS proof of possession."
      },
      "electNValidatorSigners(uint256,uint256)": {
        "notice": "Returns a list of elected validators with seats allocated to groups via the D'Hondt  method."
      },
      "electValidatorSigners()": {
        "notice": "Returns a list of elected validators with seats allocated to groups via the D'Hondt  method."
      },
      "forceDecrementVotes(address,uint256,address[],address[],uint256[])": {
        "notice": "Reduces the total amount of `account`'s voting gold by `value` by        iterating over all groups voted for by account."
      },
      "fractionMulExp(uint256,uint256,uint256,uint256,uint256,uint256)": {
        "notice": "calculate a * b^x for fractions a, b to `decimals` precision"
      },
      "getActiveVoteUnitsForGroup(address)": {
        "notice": "Returns the total active vote units made for `group`."
      },
      "getActiveVoteUnitsForGroupByAccount(address,address)": {
        "notice": "Returns the active vote units for `group` made by `account`."
      },
      "getActiveVotes()": {
        "notice": "Returns the active votes received across all groups."
      },
      "getActiveVotesForGroup(address)": {
        "notice": "Returns the active votes made for `group`."
      },
      "getActiveVotesForGroupByAccount(address,address)": {
        "notice": "Returns the active votes for `group` made by `account`."
      },
      "getBlockNumberFromHeader(bytes)": {
        "notice": "Parses block number out of header."
      },
      "getCurrentValidatorSigners()": {
        "notice": "Returns get current validator signers using the precompiles."
      },
      "getElectabilityThreshold()": {
        "notice": "Gets the election threshold."
      },
      "getElectableValidators()": {
        "notice": "Returns the minimum and maximum number of validators that can be elected."
      },
      "getEligibleValidatorGroups()": {
        "notice": "Returns the list of validator groups eligible to elect validators."
      },
      "getEpochNumber()": {
        "notice": "Returns the epoch number at a block."
      },
      "getEpochNumberOfBlock(uint256)": {
        "notice": "Returns the epoch number at a block."
      },
      "getEpochSize()": {
        "notice": "Returns the current epoch size in blocks."
      },
      "getGroupEligibility(address)": {
        "notice": "Returns whether or not a group is eligible to receive votes."
      },
      "getGroupEpochRewards(address,uint256,uint256[])": {
        "notice": "Returns the amount of rewards that voters for `group` are due at the end of an epoch."
      },
      "getGroupsVotedForByAccount(address)": {
        "notice": "Returns the groups that `account` has voted for."
      },
      "getNumVotesReceivable(address)": {
        "notice": "Returns the number of votes that a group can receive."
      },
      "getParentSealBitmap(uint256)": {
        "notice": "Gets the parent seal bitmap from the header at the given block number."
      },
      "getPendingVotesForGroup(address)": {
        "notice": "Returns the pending votes made for `group`."
      },
      "getPendingVotesForGroupByAccount(address,address)": {
        "notice": "Returns the pending votes for `group` made by `account`."
      },
      "getTotalVotes()": {
        "notice": "Returns the total votes received across all groups."
      },
      "getTotalVotesByAccount(address)": {
        "notice": "Returns the total number of votes cast by an account."
      },
      "getTotalVotesForEligibleValidatorGroups()": {
        "notice": "Returns lists of all validator groups and the number of votes they've received."
      },
      "getTotalVotesForGroup(address)": {
        "notice": "Returns the total votes made for `group`."
      },
      "getTotalVotesForGroupByAccount(address,address)": {
        "notice": "Returns the total votes for `group` made by `account`."
      },
      "getVerifiedSealBitmapFromHeader(bytes)": {
        "notice": "Verifies the BLS signature on the header and returns the seal bitmap. The validator set used for verification is retrieved based on the parent hash field of the header.  If the parent hash is not in the blockchain, verification fails."
      },
      "getVersionNumber()": {
        "notice": "Returns the storage, major, minor, and patch version of the contract."
      },
      "hasActivatablePendingVotes(address,address)": {
        "notice": "Returns whether or not an account's votes for the specified group can be activated."
      },
      "hashHeader(bytes)": {
        "notice": "Computes hash of header."
      },
      "initialize(address,uint256,uint256,uint256,uint256)": {
        "notice": "Used in place of the constructor to allow the contract to be upgradable via proxy."
      },
      "markGroupEligible(address,address,address)": {
        "notice": "Marks a group eligible for electing validators."
      },
      "markGroupIneligible(address)": {
        "notice": "Marks a group ineligible for electing validators."
      },
      "minQuorumSize(uint256)": {
        "notice": "Returns the minimum number of required signers for a given block number."
      },
      "minQuorumSizeInCurrentSet()": {
        "notice": "Computes byzantine quorum from current validator set size"
      },
      "numberValidatorsInCurrentSet()": {
        "notice": "Gets the size of the current elected validator set."
      },
      "numberValidatorsInSet(uint256)": {
        "notice": "Gets the size of the validator set that must sign the given block number."
      },
      "revokeActive(address,uint256,address,address,uint256)": {
        "notice": "Revokes `value` active votes for `group`"
      },
      "revokeAllActive(address,address,address,uint256)": {
        "notice": "Revokes all active votes for `group`"
      },
      "revokePending(address,uint256,address,address,uint256)": {
        "notice": "Revokes `value` pending votes for `group`"
      },
      "setElectabilityThreshold(uint256)": {
        "notice": "Sets the electability threshold."
      },
      "setElectableValidators(uint256,uint256)": {
        "notice": "Updates the minimum and maximum number of validators that can be elected."
      },
      "setMaxNumGroupsVotedFor(uint256)": {
        "notice": "Updates the maximum number of groups an account can be voting for at once."
      },
      "setRegistry(address)": {
        "notice": "Updates the address pointing to a Registry contract."
      },
      "validatorSignerAddressFromCurrentSet(uint256)": {
        "notice": "Gets a validator address from the current validator set."
      },
      "validatorSignerAddressFromSet(uint256,uint256)": {
        "notice": "Gets a validator address from the validator set at the given block number."
      },
      "vote(address,uint256,address,address)": {
        "notice": "Increments the number of total and pending votes for `group`."
      }
    }
  }
}