{
  "contractName": "EpochRewardsTest",
  "abi": [
    {
      "anonymous": false,
      "inputs": [
        {
          "indexed": true,
          "internalType": "address",
          "name": "partner",
          "type": "address"
        },
        {
          "indexed": false,
          "internalType": "uint256",
          "name": "fraction",
          "type": "uint256"
        }
      ],
      "name": "CarbonOffsettingFundSet",
      "type": "event"
    },
    {
      "anonymous": false,
      "inputs": [
        {
          "indexed": false,
          "internalType": "uint256",
          "name": "fraction",
          "type": "uint256"
        }
      ],
      "name": "CommunityRewardFractionSet",
      "type": "event"
    },
    {
      "anonymous": false,
      "inputs": [
        {
          "indexed": true,
          "internalType": "address",
          "name": "previousOwner",
          "type": "address"
        },
        {
          "indexed": true,
          "internalType": "address",
          "name": "newOwner",
          "type": "address"
        }
      ],
      "name": "OwnershipTransferred",
      "type": "event"
    },
    {
      "anonymous": false,
      "inputs": [
        {
          "indexed": true,
          "internalType": "address",
          "name": "registryAddress",
          "type": "address"
        }
      ],
      "name": "RegistrySet",
      "type": "event"
    },
    {
      "anonymous": false,
      "inputs": [
        {
          "indexed": false,
          "internalType": "uint256",
          "name": "max",
          "type": "uint256"
        },
        {
          "indexed": false,
          "internalType": "uint256",
          "name": "underspendAdjustmentFactor",
          "type": "uint256"
        },
        {
          "indexed": false,
          "internalType": "uint256",
          "name": "overspendAdjustmentFactor",
          "type": "uint256"
        }
      ],
      "name": "RewardsMultiplierParametersSet",
      "type": "event"
    },
    {
      "anonymous": false,
      "inputs": [
        {
          "indexed": false,
          "internalType": "uint256",
          "name": "payment",
          "type": "uint256"
        }
      ],
      "name": "TargetValidatorEpochPaymentSet",
      "type": "event"
    },
    {
      "anonymous": false,
      "inputs": [
        {
          "indexed": false,
          "internalType": "uint256",
          "name": "fraction",
          "type": "uint256"
        }
      ],
      "name": "TargetVotingGoldFractionSet",
      "type": "event"
    },
    {
      "anonymous": false,
      "inputs": [
        {
          "indexed": false,
          "internalType": "uint256",
          "name": "max",
          "type": "uint256"
        },
        {
          "indexed": false,
          "internalType": "uint256",
          "name": "adjustmentFactor",
          "type": "uint256"
        }
      ],
      "name": "TargetVotingYieldParametersSet",
      "type": "event"
    },
    {
      "anonymous": false,
      "inputs": [
        {
          "indexed": false,
          "internalType": "uint256",
          "name": "target",
          "type": "uint256"
        }
      ],
      "name": "TargetVotingYieldSet",
      "type": "event"
    },
    {
      "anonymous": false,
      "inputs": [
        {
          "indexed": false,
          "internalType": "uint256",
          "name": "fraction",
          "type": "uint256"
        }
      ],
      "name": "TargetVotingYieldUpdated",
      "type": "event"
    },
    {
      "constant": true,
      "inputs": [],
      "name": "calculateTargetEpochRewards",
      "outputs": [
        {
          "internalType": "uint256",
          "name": "",
          "type": "uint256"
        },
        {
          "internalType": "uint256",
          "name": "",
          "type": "uint256"
        },
        {
          "internalType": "uint256",
          "name": "",
          "type": "uint256"
        },
        {
          "internalType": "uint256",
          "name": "",
          "type": "uint256"
        }
      ],
      "payable": false,
      "stateMutability": "view",
      "type": "function"
    },
    {
      "constant": true,
      "inputs": [],
      "name": "carbonOffsettingPartner",
      "outputs": [
        {
          "internalType": "address",
          "name": "",
          "type": "address"
        }
      ],
      "payable": false,
      "stateMutability": "view",
      "type": "function"
    },
    {
      "constant": true,
      "inputs": [
        {
          "internalType": "address",
          "name": "sender",
          "type": "address"
        },
        {
          "internalType": "bytes",
          "name": "blsKey",
          "type": "bytes"
        },
        {
          "internalType": "bytes",
          "name": "blsPop",
          "type": "bytes"
        }
      ],
      "name": "checkProofOfPossession",
      "outputs": [
        {
          "internalType": "bool",
          "name": "",
          "type": "bool"
        }
      ],
      "payable": false,
      "stateMutability": "view",
      "type": "function"
    },
    {
      "constant": true,
      "inputs": [
        {
          "internalType": "uint256",
          "name": "aNumerator",
          "type": "uint256"
        },
        {
          "internalType": "uint256",
          "name": "aDenominator",
          "type": "uint256"
        },
        {
          "internalType": "uint256",
          "name": "bNumerator",
          "type": "uint256"
        },
        {
          "internalType": "uint256",
          "name": "bDenominator",
          "type": "uint256"
        },
        {
          "internalType": "uint256",
          "name": "exponent",
          "type": "uint256"
        },
        {
          "internalType": "uint256",
          "name": "_decimals",
          "type": "uint256"
        }
      ],
      "name": "fractionMulExp",
      "outputs": [
        {
          "internalType": "uint256",
          "name": "",
          "type": "uint256"
        },
        {
          "internalType": "uint256",
          "name": "",
          "type": "uint256"
        }
      ],
      "payable": false,
      "stateMutability": "view",
      "type": "function"
    },
    {
      "constant": true,
      "inputs": [
        {
          "internalType": "bytes",
          "name": "header",
          "type": "bytes"
        }
      ],
      "name": "getBlockNumberFromHeader",
      "outputs": [
        {
          "internalType": "uint256",
          "name": "",
          "type": "uint256"
        }
      ],
      "payable": false,
      "stateMutability": "view",
      "type": "function"
    },
    {
      "constant": true,
      "inputs": [],
      "name": "getCarbonOffsettingFraction",
      "outputs": [
        {
          "internalType": "uint256",
          "name": "",
          "type": "uint256"
        }
      ],
      "payable": false,
      "stateMutability": "view",
      "type": "function"
    },
    {
      "constant": true,
      "inputs": [],
      "name": "getCommunityRewardFraction",
      "outputs": [
        {
          "internalType": "uint256",
          "name": "",
          "type": "uint256"
        }
      ],
      "payable": false,
      "stateMutability": "view",
      "type": "function"
    },
    {
      "constant": true,
      "inputs": [],
      "name": "getEpochNumber",
      "outputs": [
        {
          "internalType": "uint256",
          "name": "",
          "type": "uint256"
        }
      ],
      "payable": false,
      "stateMutability": "view",
      "type": "function"
    },
    {
      "constant": true,
      "inputs": [
        {
          "internalType": "uint256",
          "name": "blockNumber",
          "type": "uint256"
        }
      ],
      "name": "getEpochNumberOfBlock",
      "outputs": [
        {
          "internalType": "uint256",
          "name": "",
          "type": "uint256"
        }
      ],
      "payable": false,
      "stateMutability": "view",
      "type": "function"
    },
    {
      "constant": true,
      "inputs": [],
      "name": "getEpochSize",
      "outputs": [
        {
          "internalType": "uint256",
          "name": "",
          "type": "uint256"
        }
      ],
      "payable": false,
      "stateMutability": "view",
      "type": "function"
    },
    {
      "constant": true,
      "inputs": [
        {
          "internalType": "uint256",
          "name": "blockNumber",
          "type": "uint256"
        }
      ],
      "name": "getParentSealBitmap",
      "outputs": [
        {
          "internalType": "bytes32",
          "name": "",
          "type": "bytes32"
        }
      ],
      "payable": false,
      "stateMutability": "view",
      "type": "function"
    },
    {
      "constant": true,
      "inputs": [],
      "name": "getRewardsMultiplierParameters",
      "outputs": [
        {
          "internalType": "uint256",
          "name": "",
          "type": "uint256"
        },
        {
          "internalType": "uint256",
          "name": "",
          "type": "uint256"
        },
        {
          "internalType": "uint256",
          "name": "",
          "type": "uint256"
        }
      ],
      "payable": false,
      "stateMutability": "view",
      "type": "function"
    },
    {
      "constant": true,
      "inputs": [],
      "name": "getTargetGoldTotalSupply",
      "outputs": [
        {
          "internalType": "uint256",
          "name": "",
          "type": "uint256"
        }
      ],
      "payable": false,
      "stateMutability": "view",
      "type": "function"
    },
    {
      "constant": true,
      "inputs": [],
      "name": "getTargetTotalEpochPaymentsInGold",
      "outputs": [
        {
          "internalType": "uint256",
          "name": "",
          "type": "uint256"
        }
      ],
      "payable": false,
      "stateMutability": "view",
      "type": "function"
    },
    {
      "constant": true,
      "inputs": [],
      "name": "getTargetVoterRewards",
      "outputs": [
        {
          "internalType": "uint256",
          "name": "",
          "type": "uint256"
        }
      ],
      "payable": false,
      "stateMutability": "view",
      "type": "function"
    },
    {
      "constant": true,
      "inputs": [],
      "name": "getTargetVotingGoldFraction",
      "outputs": [
        {
          "internalType": "uint256",
          "name": "",
          "type": "uint256"
        }
      ],
      "payable": false,
      "stateMutability": "view",
      "type": "function"
    },
    {
      "constant": true,
      "inputs": [],
      "name": "getTargetVotingYieldParameters",
      "outputs": [
        {
          "internalType": "uint256",
          "name": "",
          "type": "uint256"
        },
        {
          "internalType": "uint256",
          "name": "",
          "type": "uint256"
        },
        {
          "internalType": "uint256",
          "name": "",
          "type": "uint256"
        }
      ],
      "payable": false,
      "stateMutability": "view",
      "type": "function"
    },
    {
      "constant": true,
      "inputs": [
        {
          "internalType": "bytes",
          "name": "header",
          "type": "bytes"
        }
      ],
      "name": "getVerifiedSealBitmapFromHeader",
      "outputs": [
        {
          "internalType": "bytes32",
          "name": "",
          "type": "bytes32"
        }
      ],
      "payable": false,
      "stateMutability": "view",
      "type": "function"
    },
    {
      "constant": true,
      "inputs": [],
      "name": "getVersionNumber",
      "outputs": [
        {
          "internalType": "uint256",
          "name": "",
          "type": "uint256"
        },
        {
          "internalType": "uint256",
          "name": "",
          "type": "uint256"
        },
        {
          "internalType": "uint256",
          "name": "",
          "type": "uint256"
        },
        {
          "internalType": "uint256",
          "name": "",
          "type": "uint256"
        }
      ],
      "payable": false,
      "stateMutability": "pure",
      "type": "function"
    },
    {
      "constant": true,
      "inputs": [],
      "name": "getVotingGoldFraction",
      "outputs": [
        {
          "internalType": "uint256",
          "name": "",
          "type": "uint256"
        }
      ],
      "payable": false,
      "stateMutability": "view",
      "type": "function"
    },
    {
      "constant": true,
      "inputs": [
        {
          "internalType": "bytes",
          "name": "header",
          "type": "bytes"
        }
      ],
      "name": "hashHeader",
      "outputs": [
        {
          "internalType": "bytes32",
          "name": "",
          "type": "bytes32"
        }
      ],
      "payable": false,
      "stateMutability": "view",
      "type": "function"
    },
    {
      "constant": false,
      "inputs": [
        {
          "internalType": "address",
          "name": "registryAddress",
          "type": "address"
        },
        {
          "internalType": "uint256",
          "name": "targetVotingYieldInitial",
          "type": "uint256"
        },
        {
          "internalType": "uint256",
          "name": "targetVotingYieldMax",
          "type": "uint256"
        },
        {
          "internalType": "uint256",
          "name": "targetVotingYieldAdjustmentFactor",
          "type": "uint256"
        },
        {
          "internalType": "uint256",
          "name": "rewardsMultiplierMax",
          "type": "uint256"
        },
        {
          "internalType": "uint256",
          "name": "rewardsMultiplierUnderspendAdjustmentFactor",
          "type": "uint256"
        },
        {
          "internalType": "uint256",
          "name": "rewardsMultiplierOverspendAdjustmentFactor",
          "type": "uint256"
        },
        {
          "internalType": "uint256",
          "name": "_targetVotingGoldFraction",
          "type": "uint256"
        },
        {
          "internalType": "uint256",
          "name": "_targetValidatorEpochPayment",
          "type": "uint256"
        },
        {
          "internalType": "uint256",
          "name": "_communityRewardFraction",
          "type": "uint256"
        },
        {
          "internalType": "address",
          "name": "_carbonOffsettingPartner",
          "type": "address"
        },
        {
          "internalType": "uint256",
          "name": "_carbonOffsettingFraction",
          "type": "uint256"
        }
      ],
      "name": "initialize",
      "outputs": [],
      "payable": false,
      "stateMutability": "nonpayable",
      "type": "function"
    },
    {
      "constant": true,
      "inputs": [],
      "name": "initialized",
      "outputs": [
        {
          "internalType": "bool",
          "name": "",
          "type": "bool"
        }
      ],
      "payable": false,
      "stateMutability": "view",
      "type": "function"
    },
    {
      "constant": true,
      "inputs": [],
      "name": "isOwner",
      "outputs": [
        {
          "internalType": "bool",
          "name": "",
          "type": "bool"
        }
      ],
      "payable": false,
      "stateMutability": "view",
      "type": "function"
    },
    {
      "constant": true,
      "inputs": [],
      "name": "isReserveLow",
      "outputs": [
        {
          "internalType": "bool",
          "name": "",
          "type": "bool"
        }
      ],
      "payable": false,
      "stateMutability": "view",
      "type": "function"
    },
    {
      "constant": true,
      "inputs": [
        {
          "internalType": "uint256",
          "name": "blockNumber",
          "type": "uint256"
        }
      ],
      "name": "minQuorumSize",
      "outputs": [
        {
          "internalType": "uint256",
          "name": "",
          "type": "uint256"
        }
      ],
      "payable": false,
      "stateMutability": "view",
      "type": "function"
    },
    {
      "constant": true,
      "inputs": [],
      "name": "minQuorumSizeInCurrentSet",
      "outputs": [
        {
          "internalType": "uint256",
          "name": "",
          "type": "uint256"
        }
      ],
      "payable": false,
      "stateMutability": "view",
      "type": "function"
    },
    {
      "constant": true,
      "inputs": [
        {
          "internalType": "uint256",
          "name": "blockNumber",
          "type": "uint256"
        }
      ],
      "name": "numberValidatorsInSet",
      "outputs": [
        {
          "internalType": "uint256",
          "name": "",
          "type": "uint256"
        }
      ],
      "payable": false,
      "stateMutability": "view",
      "type": "function"
    },
    {
      "constant": true,
      "inputs": [],
      "name": "owner",
      "outputs": [
        {
          "internalType": "address",
          "name": "",
          "type": "address"
        }
      ],
      "payable": false,
      "stateMutability": "view",
      "type": "function"
    },
    {
      "constant": true,
      "inputs": [],
      "name": "registry",
      "outputs": [
        {
          "internalType": "contract IRegistry",
          "name": "",
          "type": "address"
        }
      ],
      "payable": false,
      "stateMutability": "view",
      "type": "function"
    },
    {
      "constant": false,
      "inputs": [],
      "name": "renounceOwnership",
      "outputs": [],
      "payable": false,
      "stateMutability": "nonpayable",
      "type": "function"
    },
    {
      "constant": false,
      "inputs": [
        {
          "internalType": "address",
          "name": "partner",
          "type": "address"
        },
        {
          "internalType": "uint256",
          "name": "value",
          "type": "uint256"
        }
      ],
      "name": "setCarbonOffsettingFund",
      "outputs": [
        {
          "internalType": "bool",
          "name": "",
          "type": "bool"
        }
      ],
      "payable": false,
      "stateMutability": "nonpayable",
      "type": "function"
    },
    {
      "constant": false,
      "inputs": [
        {
          "internalType": "uint256",
          "name": "value",
          "type": "uint256"
        }
      ],
      "name": "setCommunityRewardFraction",
      "outputs": [
        {
          "internalType": "bool",
          "name": "",
          "type": "bool"
        }
      ],
      "payable": false,
      "stateMutability": "nonpayable",
      "type": "function"
    },
    {
      "constant": false,
      "inputs": [
        {
          "internalType": "address",
          "name": "registryAddress",
          "type": "address"
        }
      ],
      "name": "setRegistry",
      "outputs": [],
      "payable": false,
      "stateMutability": "nonpayable",
      "type": "function"
    },
    {
      "constant": false,
      "inputs": [
        {
          "internalType": "uint256",
          "name": "max",
          "type": "uint256"
        },
        {
          "internalType": "uint256",
          "name": "underspendAdjustmentFactor",
          "type": "uint256"
        },
        {
          "internalType": "uint256",
          "name": "overspendAdjustmentFactor",
          "type": "uint256"
        }
      ],
      "name": "setRewardsMultiplierParameters",
      "outputs": [
        {
          "internalType": "bool",
          "name": "",
          "type": "bool"
        }
      ],
      "payable": false,
      "stateMutability": "nonpayable",
      "type": "function"
    },
    {
      "constant": false,
      "inputs": [
        {
          "internalType": "uint256",
          "name": "value",
          "type": "uint256"
        }
      ],
      "name": "setTargetValidatorEpochPayment",
      "outputs": [
        {
          "internalType": "bool",
          "name": "",
          "type": "bool"
        }
      ],
      "payable": false,
      "stateMutability": "nonpayable",
      "type": "function"
    },
    {
      "constant": false,
      "inputs": [
        {
          "internalType": "uint256",
          "name": "value",
          "type": "uint256"
        }
      ],
      "name": "setTargetVotingGoldFraction",
      "outputs": [
        {
          "internalType": "bool",
          "name": "",
          "type": "bool"
        }
      ],
      "payable": false,
      "stateMutability": "nonpayable",
      "type": "function"
    },
    {
      "constant": false,
      "inputs": [
        {
          "internalType": "uint256",
          "name": "targetVotingYield",
          "type": "uint256"
        }
      ],
      "name": "setTargetVotingYield",
      "outputs": [
        {
          "internalType": "bool",
          "name": "",
          "type": "bool"
        }
      ],
      "payable": false,
      "stateMutability": "nonpayable",
      "type": "function"
    },
    {
      "constant": false,
      "inputs": [
        {
          "internalType": "uint256",
          "name": "max",
          "type": "uint256"
        },
        {
          "internalType": "uint256",
          "name": "adjustmentFactor",
          "type": "uint256"
        }
      ],
      "name": "setTargetVotingYieldParameters",
      "outputs": [
        {
          "internalType": "bool",
          "name": "",
          "type": "bool"
        }
      ],
      "payable": false,
      "stateMutability": "nonpayable",
      "type": "function"
    },
    {
      "constant": true,
      "inputs": [],
      "name": "startTime",
      "outputs": [
        {
          "internalType": "uint256",
          "name": "",
          "type": "uint256"
        }
      ],
      "payable": false,
      "stateMutability": "view",
      "type": "function"
    },
    {
      "constant": true,
      "inputs": [],
      "name": "targetValidatorEpochPayment",
      "outputs": [
        {
          "internalType": "uint256",
          "name": "",
          "type": "uint256"
        }
      ],
      "payable": false,
      "stateMutability": "view",
      "type": "function"
    },
    {
      "constant": false,
      "inputs": [
        {
          "internalType": "address",
          "name": "newOwner",
          "type": "address"
        }
      ],
      "name": "transferOwnership",
      "outputs": [],
      "payable": false,
      "stateMutability": "nonpayable",
      "type": "function"
    },
    {
      "constant": true,
      "inputs": [
        {
          "internalType": "uint256",
          "name": "index",
          "type": "uint256"
        }
      ],
      "name": "validatorSignerAddressFromCurrentSet",
      "outputs": [
        {
          "internalType": "address",
          "name": "",
          "type": "address"
        }
      ],
      "payable": false,
      "stateMutability": "view",
      "type": "function"
    },
    {
      "constant": true,
      "inputs": [
        {
          "internalType": "uint256",
          "name": "index",
          "type": "uint256"
        },
        {
          "internalType": "uint256",
          "name": "blockNumber",
          "type": "uint256"
        }
      ],
      "name": "validatorSignerAddressFromSet",
      "outputs": [
        {
          "internalType": "address",
          "name": "",
          "type": "address"
        }
      ],
      "payable": false,
      "stateMutability": "view",
      "type": "function"
    },
    {
      "constant": true,
      "inputs": [],
      "name": "getRewardsMultiplier",
      "outputs": [
        {
          "internalType": "uint256",
          "name": "",
          "type": "uint256"
        }
      ],
      "payable": false,
      "stateMutability": "view",
      "type": "function"
    },
    {
      "constant": true,
      "inputs": [
        {
          "internalType": "uint256",
          "name": "targetGoldTotalSupplyIncrease",
          "type": "uint256"
        }
      ],
      "name": "getRewardsMultiplier",
      "outputs": [
        {
          "internalType": "uint256",
          "name": "",
          "type": "uint256"
        }
      ],
      "payable": false,
      "stateMutability": "view",
      "type": "function"
    },
    {
      "constant": false,
      "inputs": [],
      "name": "updateTargetVotingYield",
      "outputs": [],
      "payable": false,
      "stateMutability": "nonpayable",
      "type": "function"
    },
    {
      "constant": true,
      "inputs": [],
      "name": "numberValidatorsInCurrentSet",
      "outputs": [
        {
          "internalType": "uint256",
          "name": "",
          "type": "uint256"
        }
      ],
      "payable": false,
      "stateMutability": "view",
      "type": "function"
    },
    {
      "constant": false,
      "inputs": [
        {
          "internalType": "uint256",
          "name": "value",
          "type": "uint256"
        }
      ],
      "name": "setNumberValidatorsInCurrentSet",
      "outputs": [],
      "payable": false,
      "stateMutability": "nonpayable",
      "type": "function"
    }
  ],
  "bytecode": "0x6080604052600060025560018060006200001e620000e660201b60201c565b9050806000806101000a81548173ffffffffffffffffffffffffffffffffffffffff021916908373ffffffffffffffffffffffffffffffffffffffff1602179055508073ffffffffffffffffffffffffffffffffffffffff16600073ffffffffffffffffffffffffffffffffffffffff167f8be0079c531659141344cd1fd0a4f28419497f9722a3daafe3b4186f6b6457e060405160405180910390a35080620000de576001600060146101000a81548160ff0219169083151502179055505b5050620000ee565b600033905090565b615be780620000fe6000396000f3fe608060405234801561001057600080fd5b50600436106102bb5760003560e01c80637d164125116101825780639b2b592f116100e9578063d632994c116100a2578063e50e652d1161007c578063e50e652d14610f80578063ec68307214610fc2578063f2fde38b1461103d578063fae8db0a14611081576102bb565b8063d632994c14610f16578063df4da46114610f44578063e185aaa814610f62576102bb565b80639b2b592f14610dc8578063a1b9596214610e0a578063a91ee0dc14610e28578063ae098de214610e6c578063b63b4a2314610e8a578063cd52782e14610ed0576102bb565b806392ecd7451161013b57806392ecd74514610cd45780639402838414610cde57806396c3d2fd14610d245780639917907f14610d6a5780639a7b3be714610d885780639ad0cce714610da6576102bb565b80637d16412514610b035780638331c1d714610b2157806387ee8a0f14610b7b5780638a88362614610b995780638da5cb5b14610c685780638f32d59b14610cb2576102bb565b806354255be011610226578063715018a6116101df578063715018a6146109685780637385e5da1461097257806376d92bd21461099057806378e97925146109d25780637b103999146109f05780637cca2a3c14610a3a576102bb565b806354255be01461073f5780635918bb58146107725780635d180adb146107c25780635f396e481461083a578063643470431461086657806367960e9114610899576102bb565b80632848f9e3116102785780632848f9e31461056e5780633b1eb4bf1461058c578063434c99c4146105ce5780634901c725146106345780634b2c2f44146106525780635049890f14610721576102bb565b80630203ab24146102c0578063123633ea146102de578063158ef93e1461034c578063171af90f1461036e57806322dae21f1461039a57806323f0ab65146103e4575b600080fd5b6102c86110c3565b6040518082815260200191505060405180910390f35b61030a600480360360208110156102f457600080fd5b81019080803590602001909291905050506110e2565b604051808273ffffffffffffffffffffffffffffffffffffffff1673ffffffffffffffffffffffffffffffffffffffff16815260200191505060405180910390f35b610354611233565b604051808215151515815260200191505060405180910390f35b610376611246565b60405180848152602001838152602001828152602001935050505060405180910390f35b6103a26112bf565b604051808273ffffffffffffffffffffffffffffffffffffffff1673ffffffffffffffffffffffffffffffffffffffff16815260200191505060405180910390f35b610554600480360360608110156103fa57600080fd5b81019080803573ffffffffffffffffffffffffffffffffffffffff1690602001909291908035906020019064010000000081111561043757600080fd5b82018360208201111561044957600080fd5b8035906020019184600183028401116401000000008311171561046b57600080fd5b91908080601f016020809104026020016040519081016040528093929190818152602001838380828437600081840152601f19601f820116905080830192505050505050509192919290803590602001906401000000008111156104ce57600080fd5b8201836020820111156104e057600080fd5b8035906020019184600183028401116401000000008311171561050257600080fd5b91908080601f016020809104026020016040519081016040528093929190818152602001838380828437600081840152601f19601f8201169050808301925050505050505091929192905050506112e5565b604051808215151515815260200191505060405180910390f35b61057661149e565b6040518082815260200191505060405180910390f35b6105b8600480360360208110156105a257600080fd5b8101908080359060200190929190505050611568565b6040518082815260200191505060405180910390f35b61061a600480360360408110156105e457600080fd5b81019080803573ffffffffffffffffffffffffffffffffffffffff16906020019092919080359060200190929190505050611582565b604051808215151515815260200191505060405180910390f35b61063c611803565b6040518082815260200191505060405180910390f35b61070b6004803603602081101561066857600080fd5b810190808035906020019064010000000081111561068557600080fd5b82018360208201111561069757600080fd5b803590602001918460018302840111640100000000831117156106b957600080fd5b91908080601f016020809104026020016040519081016040528093929190818152602001838380828437600081840152601f19601f820116905080830192505050505050509192919290505050611a13565b6040518082815260200191505060405180910390f35b610729611ba7565b6040518082815260200191505060405180910390f35b610747611cd1565b6040518085815260200184815260200183815260200182815260200194505050505060405180910390f35b6107a86004803603604081101561078857600080fd5b810190808035906020019092919080359060200190929190505050611cf8565b604051808215151515815260200191505060405180910390f35b6107f8600480360360408110156107d857600080fd5b810190808035906020019092919080359060200190929190505050611f21565b604051808273ffffffffffffffffffffffffffffffffffffffff1673ffffffffffffffffffffffffffffffffffffffff16815260200191505060405180910390f35b610842612073565b60405180848152602001838152602001828152602001935050505060405180910390f35b61086e6120f2565b6040518085815260200184815260200183815260200182815260200194505050505060405180910390f35b610952600480360360208110156108af57600080fd5b81019080803590602001906401000000008111156108cc57600080fd5b8201836020820111156108de57600080fd5b8035906020019184600183028401116401000000008311171561090057600080fd5b91908080601f016020809104026020016040519081016040528093929190818152602001838380828437600081840152601f19601f820116905080830192505050505050509192919290505050612212565b6040518082815260200191505060405180910390f35b6109706123a6565b005b61097a6124df565b6040518082815260200191505060405180910390f35b6109bc600480360360208110156109a657600080fd5b81019080803590602001909291905050506124ef565b6040518082815260200191505060405180910390f35b6109da612509565b6040518082815260200191505060405180910390f35b6109f861250f565b604051808273ffffffffffffffffffffffffffffffffffffffff1673ffffffffffffffffffffffffffffffffffffffff16815260200191505060405180910390f35b610b016004803603610180811015610a5157600080fd5b81019080803573ffffffffffffffffffffffffffffffffffffffff169060200190929190803590602001909291908035906020019092919080359060200190929190803590602001909291908035906020019092919080359060200190929190803590602001909291908035906020019092919080359060200190929190803573ffffffffffffffffffffffffffffffffffffffff16906020019092919080359060200190929190505050612535565b005b610b0b612644565b6040518082815260200191505060405180910390f35b610b6160048036036060811015610b3757600080fd5b8101908080359060200190929190803590602001909291908035906020019092919050505061266a565b604051808215151515815260200191505060405180910390f35b610b836128a0565b6040518082815260200191505060405180910390f35b610c5260048036036020811015610baf57600080fd5b8101908080359060200190640100000000811115610bcc57600080fd5b820183602082011115610bde57600080fd5b80359060200191846001830284011164010000000083111715610c0057600080fd5b91908080601f016020809104026020016040519081016040528093929190818152602001838380828437600081840152601f19601f8201169050808301925050505050505091929192905050506128aa565b6040518082815260200191505060405180910390f35b610c70612a3e565b604051808273ffffffffffffffffffffffffffffffffffffffff1673ffffffffffffffffffffffffffffffffffffffff16815260200191505060405180910390f35b610cba612a67565b604051808215151515815260200191505060405180910390f35b610cdc612ac5565b005b610d0a60048036036020811015610cf457600080fd5b8101908080359060200190929190505050612acf565b604051808215151515815260200191505060405180910390f35b610d5060048036036020811015610d3a57600080fd5b8101908080359060200190929190505050612c81565b604051808215151515815260200191505060405180910390f35b610d72612d9f565b6040518082815260200191505060405180910390f35b610d90612dc5565b6040518082815260200191505060405180910390f35b610dae612dd5565b604051808215151515815260200191505060405180910390f35b610df460048036036020811015610dde57600080fd5b8101908080359060200190929190505050612f37565b6040518082815260200191505060405180910390f35b610e12613080565b6040518082815260200191505060405180910390f35b610e6a60048036036020811015610e3e57600080fd5b81019080803573ffffffffffffffffffffffffffffffffffffffff169060200190929190505050613264565b005b610e74613408565b6040518082815260200191505060405180910390f35b610eb660048036036020811015610ea057600080fd5b810190808035906020019092919050505061342e565b604051808215151515815260200191505060405180910390f35b610efc60048036036020811015610ee657600080fd5b8101908080359060200190929190505050613593565b604051808215151515815260200191505060405180910390f35b610f4260048036036020811015610f2c57600080fd5b81019080803590602001909291905050506136f7565b005b610f4c613701565b6040518082815260200191505060405180910390f35b610f6a61383d565b6040518082815260200191505060405180910390f35b610fac60048036036020811015610f9657600080fd5b8101908080359060200190929190505050613843565b6040518082815260200191505060405180910390f35b611020600480360360c0811015610fd857600080fd5b8101908080359060200190929190803590602001909291908035906020019092919080359060200190929190803590602001909291908035906020019092919050505061388e565b604051808381526020018281526020019250505060405180910390f35b61107f6004803603602081101561105357600080fd5b81019080803573ffffffffffffffffffffffffffffffffffffffff169060200190929190505050613aa2565b005b6110ad6004803603602081101561109757600080fd5b8101908080359060200190929190505050613b28565b6040518082815260200191505060405180910390f35b60006110dd6110d86110d3613c71565b613d28565b61402d565b905090565b60006060600060fa73ffffffffffffffffffffffffffffffffffffffff16844360405160200180838152602001828152602001925050506040516020818303038152906040526040518082805190602001908083835b6020831061115b5780518252602082019150602081019050602083039250611138565b6001836020036101000a038019825116818451168082178552505050505050905001915050600060405180830381855afa9150503d80600081146111bb576040519150601f19603f3d011682016040523d82523d6000602084013e6111c0565b606091505b5080935081925050508061121f576040517f08c379a000000000000000000000000000000000000000000000000000000000815260040180806020018281038252603d8152602001806159a7603d913960400191505060405180910390fd5b61122a82600061403b565b92505050919050565b600060149054906101000a900460ff1681565b600080600080600690506112718160000160405180602001604052908160008201548152505061402d565b6112928260020160405180602001604052908160008201548152505061402d565b6112b38360010160405180602001604052908160008201548152505061402d565b93509350935050909192565b600c60009054906101000a900473ffffffffffffffffffffffffffffffffffffffff1681565b60008060fb73ffffffffffffffffffffffffffffffffffffffff16858585604051602001808473ffffffffffffffffffffffffffffffffffffffff1673ffffffffffffffffffffffffffffffffffffffff1660601b815260140183805190602001908083835b6020831061136e578051825260208201915060208101905060208303925061134b565b6001836020036101000a03801982511681845116808217855250505050505090500182805190602001908083835b602083106113bf578051825260208201915060208101905060208303925061139c565b6001836020036101000a03801982511681845116808217855250505050505090500193505050506040516020818303038152906040526040518082805190602001908083835b602083106114285780518252602082019150602081019050602083039250611405565b6001836020036101000a038019825116818451168082178552505050505050905001915050600060405180830381855afa9150503d8060008114611488576040519150601f19603f3d011682016040523d82523d6000602084013e61148d565b606091505b505080915050809150509392505050565b600061156361155e60066000016040518060200160405290816000820154815250506115506114cb614052565b73ffffffffffffffffffffffffffffffffffffffff16631f6042436040518163ffffffff1660e01b815260040160206040518083038186803b15801561151057600080fd5b505afa158015611524573d6000803e3d6000fd5b505050506040513d602081101561153a57600080fd5b810190808051906020019092919050505061414d565b6141d790919063ffffffff16565b614636565b905090565b600061157b82611576613701565b614657565b9050919050565b600061158c612a67565b6115fe576040517f08c379a00000000000000000000000000000000000000000000000000000000081526004018080602001828103825260208152602001807f4f776e61626c653a2063616c6c6572206973206e6f7420746865206f776e657281525060200191505060405180910390fd5b600c60009054906101000a900473ffffffffffffffffffffffffffffffffffffffff1673ffffffffffffffffffffffffffffffffffffffff168373ffffffffffffffffffffffffffffffffffffffff161415806116795750611675600b60405180602001604052908160008201548152505061402d565b8214155b6116ce576040517f08c379a0000000000000000000000000000000000000000000000000000000008152600401808060200182810382526048815260200180615b486048913960600191505060405180910390fd5b6116de6116d961469f565b61402d565b8210611752576040517f08c379a00000000000000000000000000000000000000000000000000000000081526004018080602001828103825260198152602001807f56616c7565206d757374206265206c657373207468616e20310000000000000081525060200191505060405180910390fd5b82600c60006101000a81548173ffffffffffffffffffffffffffffffffffffffff021916908373ffffffffffffffffffffffffffffffffffffffff16021790555061179c826146c5565b600b600082015181600001559050508273ffffffffffffffffffffffffffffffffffffffff167fe296227209b47bb8f4a76768ebd564dcde1c44be325a5d262f27c1fd4fd4538b836040518082815260200191505060405180910390a26001905092915050565b600080600160009054906101000a900473ffffffffffffffffffffffffffffffffffffffff1673ffffffffffffffffffffffffffffffffffffffff1663dcf0aaed60405160200180807f537461626c65546f6b656e000000000000000000000000000000000000000000815250600b019050604051602081830303815290604052805190602001206040518263ffffffff1660e01b81526004018082815260200191505060206040518083038186803b1580156118bf57600080fd5b505afa1580156118d3573d6000803e3d6000fd5b505050506040513d60208110156118e957600080fd5b810190808051906020019092919050505090506000806119076146e3565b73ffffffffffffffffffffffffffffffffffffffff1663ef90e1b0846040518263ffffffff1660e01b8152600401808273ffffffffffffffffffffffffffffffffffffffff1673ffffffffffffffffffffffffffffffffffffffff168152602001915050604080518083038186803b15801561198257600080fd5b505afa158015611996573d6000803e3d6000fd5b505050506040513d60408110156119ac57600080fd5b81019080805190602001909291908051906020019092919050505091509150611a0b826119fd836119ef600d546119e16128a0565b6147de90919063ffffffff16565b6147de90919063ffffffff16565b61486490919063ffffffff16565b935050505090565b60006060600060f473ffffffffffffffffffffffffffffffffffffffff16846040516020018082805190602001908083835b60208310611a685780518252602082019150602081019050602083039250611a45565b6001836020036101000a0380198251168184511680821785525050505050509050019150506040516020818303038152906040526040518082805190602001908083835b60208310611acf5780518252602082019150602081019050602083039250611aac565b6001836020036101000a038019825116818451168082178552505050505050905001915050600060405180830381855afa9150503d8060008114611b2f576040519150601f19603f3d011682016040523d82523d6000602084013e611b34565b606091505b50809350819250505080611b93576040517f08c379a00000000000000000000000000000000000000000000000000000000081526004018080602001828103825260388152602001806158f56038913960400191505060405180910390fd5b611b9e8260006148ae565b92505050919050565b600080611bbf6002544261494f90919063ffffffff16565b90506201518061016d600f0202811015611c71576000611c136002611c056b01f04ef12cb04cf1580000006b033b2e3c9fd0803ce800000061494f90919063ffffffff16565b61486490919063ffffffff16565b90506000611c466201518061016d600f0202611c3885856147de90919063ffffffff16565b61486490919063ffffffff16565b9050611c676b01f04ef12cb04cf1580000008261499990919063ffffffff16565b9350505050611cce565b6000611cc8576040517f08c379a00000000000000000000000000000000000000000000000000000000081526004018080602001828103825260368152602001806158bf6036913960400191505060405180910390fd5b60009150505b90565b60008060008060018060016000839350829250819150809050935093509350935090919293565b6000611d02612a67565b611d74576040517f08c379a00000000000000000000000000000000000000000000000000000000081526004018080602001828103825260208152602001807f4f776e61626c653a2063616c6c6572206973206e6f7420746865206f776e657281525060200191505060405180910390fd5b611d96600660020160405180602001604052908160008201548152505061402d565b83141580611dc55750611dc1600660010160405180602001604052908160008201548152505061402d565b8214155b611e1a576040517f08c379a00000000000000000000000000000000000000000000000000000000081526004018080602001828103825260228152602001806159856022913960400191505060405180910390fd5b611e23836146c5565b600660020160008201518160000155905050611e3e826146c5565b600660010160008201518160000155905050611e83611e5b61469f565b6006600201604051806020016040529081600082015481525050614a2190919063ffffffff16565b611ed8576040517f08c379a000000000000000000000000000000000000000000000000000000000815260040180806020018281038252602f815260200180615b19602f913960400191505060405180910390fd5b7f1b76e38f3fdd1f284ed4d47c9d50ff407748c516ff9761616ff638c2331076258383604051808381526020018281526020019250505060405180910390a16001905092915050565b60006060600060fa73ffffffffffffffffffffffffffffffffffffffff16858560405160200180838152602001828152602001925050506040516020818303038152906040526040518082805190602001908083835b60208310611f9a5780518252602082019150602081019050602083039250611f77565b6001836020036101000a038019825116818451168082178552505050505050905001915050600060405180830381855afa9150503d8060008114611ffa576040519150601f19603f3d011682016040523d82523d6000602084013e611fff565b606091505b5080935081925050508061205e576040517f08c379a0000000000000000000000000000000000000000000000000000000008152600401808060200182810382526036815260200180615a196036913960400191505060405180910390fd5b61206982600061403b565b9250505092915050565b6000806000806003905061209e8160020160405180602001604052908160008201548152505061402d565b6120c28260000160000160405180602001604052908160008201548152505061402d565b6120e68360000160010160405180602001604052908160008201548152505061402d565b93509350935050909192565b600080600080600061210261149e565b9050600061210e613c71565b9050612118615767565b61212182613d28565b905061214861214382612135600d5461414d565b6141d790919063ffffffff16565b614636565b61216b612166836121588761414d565b6141d790919063ffffffff16565b614636565b6121b66121b1846121a3600a6040518060200160405290816000820154815250506121958961414d565b6141d790919063ffffffff16565b6141d790919063ffffffff16565b614636565b6122016121fc856121ee600b6040518060200160405290816000820154815250506121e08a61414d565b6141d790919063ffffffff16565b6141d790919063ffffffff16565b614636565b965096509650965050505090919293565b60006060600060f673ffffffffffffffffffffffffffffffffffffffff16846040516020018082805190602001908083835b602083106122675780518252602082019150602081019050602083039250612244565b6001836020036101000a0380198251168184511680821785525050505050509050019150506040516020818303038152906040526040518082805190602001908083835b602083106122ce57805182526020820191506020810190506020830392506122ab565b6001836020036101000a038019825116818451168082178552505050505050905001915050600060405180830381855afa9150503d806000811461232e576040519150601f19603f3d011682016040523d82523d6000602084013e612333565b606091505b50809350819250505080612392576040517f08c379a0000000000000000000000000000000000000000000000000000000008152600401808060200182810382526023815260200180615b906023913960400191505060405180910390fd5b61239d8260006148ae565b92505050919050565b6123ae612a67565b612420576040517f08c379a00000000000000000000000000000000000000000000000000000000081526004018080602001828103825260208152602001807f4f776e61626c653a2063616c6c6572206973206e6f7420746865206f776e657281525060200191505060405180910390fd5b600073ffffffffffffffffffffffffffffffffffffffff166000809054906101000a900473ffffffffffffffffffffffffffffffffffffffff1673ffffffffffffffffffffffffffffffffffffffff167f8be0079c531659141344cd1fd0a4f28419497f9722a3daafe3b4186f6b6457e060405160405180910390a360008060006101000a81548173ffffffffffffffffffffffffffffffffffffffff021916908373ffffffffffffffffffffffffffffffffffffffff160217905550565b60006124ea43613843565b905090565b60006125026124fd83613d28565b61402d565b9050919050565b60025481565b600160009054906101000a900473ffffffffffffffffffffffffffffffffffffffff1681565b600060149054906101000a900460ff16156125b8576040517f08c379a000000000000000000000000000000000000000000000000000000000815260040180806020018281038252601c8152602001807f636f6e747261637420616c726561647920696e697469616c697a65640000000081525060200191505060405180910390fd5b6001600060146101000a81548160ff0219169083151502179055506125dc33614a36565b6125e58c613264565b6125ef8a8a611cf8565b506125fb88888861266a565b5061260585612acf565b5061260f84612c81565b506126198361342e565b506126248282611582565b5061262e8b613593565b5042600281905550505050505050505050505050565b6000612665600b60405180602001604052908160008201548152505061402d565b905090565b6000612674612a67565b6126e6576040517f08c379a00000000000000000000000000000000000000000000000000000000081526004018080602001828103825260208152602001807f4f776e61626c653a2063616c6c6572206973206e6f7420746865206f776e657281525060200191505060405180910390fd5b612708600360020160405180602001604052908160008201548152505061402d565b8414158061273a5750612736600360000160010160405180602001604052908160008201548152505061402d565b8214155b806127695750612765600360000160000160405180602001604052908160008201548152505061402d565b8314155b6127be576040517f08c379a00000000000000000000000000000000000000000000000000000000081526004018080602001828103825260218152602001806158206021913960400191505060405180910390fd5b604051806040016040528060405180604001604052806127dd876146c5565b81526020016127eb866146c5565b81525081526020016127fc866146c5565b815250600360008201518160000160008201518160000160008201518160000155505060208201518160010160008201518160000155505050506020820151816002016000820151816000015550509050507f191445ee0115396c9725b9c642b985d63820ca57d54e42e5eb38faec4022f05d84848460405180848152602001838152602001828152602001935050505060405180910390a1600190509392505050565b6000600e54905090565b60006060600060f773ffffffffffffffffffffffffffffffffffffffff16846040516020018082805190602001908083835b602083106128ff57805182526020820191506020810190506020830392506128dc565b6001836020036101000a0380198251168184511680821785525050505050509050019150506040516020818303038152906040526040518082805190602001908083835b602083106129665780518252602082019150602081019050602083039250612943565b6001836020036101000a038019825116818451168082178552505050505050905001915050600060405180830381855afa9150503d80600081146129c6576040519150601f19603f3d011682016040523d82523d6000602084013e6129cb565b606091505b50809350819250505080612a2a576040517f08c379a0000000000000000000000000000000000000000000000000000000008152600401808060200182810382526031815260200180615ae86031913960400191505060405180910390fd5b612a3582600061403b565b92505050919050565b60008060009054906101000a900473ffffffffffffffffffffffffffffffffffffffff16905090565b60008060009054906101000a900473ffffffffffffffffffffffffffffffffffffffff1673ffffffffffffffffffffffffffffffffffffffff16612aa9614b7a565b73ffffffffffffffffffffffffffffffffffffffff1614905090565b612acd614b82565b565b6000612ad9612a67565b612b4b576040517f08c379a00000000000000000000000000000000000000000000000000000000081526004018080602001828103825260208152602001807f4f776e61626c653a2063616c6c6572206973206e6f7420746865206f776e657281525060200191505060405180910390fd5b612b6a600960405180602001604052908160008201548152505061402d565b821415612bc2576040517f08c379a00000000000000000000000000000000000000000000000000000000081526004018080602001828103825260258152602001806158416025913960400191505060405180910390fd5b612bd2612bcd61469f565b61402d565b8210612c29576040517f08c379a000000000000000000000000000000000000000000000000000000000815260040180806020018281038252603381526020018061588c6033913960400191505060405180910390fd5b612c32826146c5565b6009600082015181600001559050507fbae2f33c70949fbc7325c98655f3039e5e1c7f774874c99fd4f31ec5f432b159826040518082815260200191505060405180910390a160019050919050565b6000612c8b612a67565b612cfd576040517f08c379a00000000000000000000000000000000000000000000000000000000081526004018080602001828103825260208152602001807f4f776e61626c653a2063616c6c6572206973206e6f7420746865206f776e657281525060200191505060405180910390fd5b600d54821415612d58576040517f08c379a00000000000000000000000000000000000000000000000000000000081526004018080602001828103825260288152602001806157ca6028913960400191505060405180910390fd5b81600d819055507fa21d141963bb2c1064b5376f762d22d3e9c4c51617edcf105bcec0f14e36800c826040518082815260200191505060405180910390a160019050919050565b6000612dc0600a60405180602001604052908160008201548152505061402d565b905090565b6000612dd043611568565b905090565b6000612ddf615767565b612dfc612df76002544261494f90919063ffffffff16565b61414d565b9050612e06615767565b612e13632efe078061414d565b9050612e1d615767565b612e27600261414d565b9050612e31615767565b612e448385614f7690919063ffffffff16565b15612e5857612e5161469f565b9050612e80565b612e7d612e6e8486614f8c90919063ffffffff16565b836150d590919063ffffffff16565b90505b612e88615767565b612f18612e9361517c565b73ffffffffffffffffffffffffffffffffffffffff166356b6d0d56040518163ffffffff1660e01b815260040160206040518083038186803b158015612ed857600080fd5b505afa158015612eec573d6000803e3d6000fd5b505050506040513d6020811015612f0257600080fd5b81019080805190602001909291905050506146c5565b9050612f2d828261527790919063ffffffff16565b9550505050505090565b60006060600060f973ffffffffffffffffffffffffffffffffffffffff1684604051602001808281526020019150506040516020818303038152906040526040518082805190602001908083835b60208310612fa85780518252602082019150602081019050602083039250612f85565b6001836020036101000a038019825116818451168082178552505050505050905001915050600060405180830381855afa9150503d8060008114613008576040519150601f19603f3d011682016040523d82523d6000602084013e61300d565b606091505b5080935081925050508061306c576040517f08c379a000000000000000000000000000000000000000000000000000000000815260040180806020018281038252602e8152602001806157f2602e913960400191505060405180910390fd5b61307782600061403b565b92505050919050565b6000806131a461308e61517c565b73ffffffffffffffffffffffffffffffffffffffff16638d9a5e6f6040518163ffffffff1660e01b815260040160206040518083038186803b1580156130d357600080fd5b505afa1580156130e7573d6000803e3d6000fd5b505050506040513d60208110156130fd57600080fd5b810190808051906020019092919050505061311661528d565b73ffffffffffffffffffffffffffffffffffffffff166318160ddd6040518163ffffffff1660e01b815260040160206040518083038186803b15801561315b57600080fd5b505afa15801561316f573d6000803e3d6000fd5b505050506040513d602081101561318557600080fd5b810190808051906020019092919050505061494f90919063ffffffff16565b905060006131b0614052565b73ffffffffffffffffffffffffffffffffffffffff16639a0e7d666040518163ffffffff1660e01b815260040160206040518083038186803b1580156131f557600080fd5b505afa158015613209573d6000803e3d6000fd5b505050506040513d602081101561321f57600080fd5b8101908080519060200190929190505050905061325d6132586132418461414d565b61324a8461414d565b614f8c90919063ffffffff16565b61402d565b9250505090565b61326c612a67565b6132de576040517f08c379a00000000000000000000000000000000000000000000000000000000081526004018080602001828103825260208152602001807f4f776e61626c653a2063616c6c6572206973206e6f7420746865206f776e657281525060200191505060405180910390fd5b600073ffffffffffffffffffffffffffffffffffffffff168173ffffffffffffffffffffffffffffffffffffffff161415613381576040517f08c379a00000000000000000000000000000000000000000000000000000000081526004018080602001828103825260208152602001807f43616e6e6f7420726567697374657220746865206e756c6c206164647265737381525060200191505060405180910390fd5b80600160006101000a81548173ffffffffffffffffffffffffffffffffffffffff021916908373ffffffffffffffffffffffffffffffffffffffff1602179055508073ffffffffffffffffffffffffffffffffffffffff167f27fe5f0c1c3b1ed427cc63d0f05759ffdecf9aec9e18d31ef366fc8a6cb5dc3b60405160405180910390a250565b6000613429600960405180602001604052908160008201548152505061402d565b905090565b6000613438612a67565b6134aa576040517f08c379a00000000000000000000000000000000000000000000000000000000081526004018080602001828103825260208152602001807f4f776e61626c653a2063616c6c6572206973206e6f7420746865206f776e657281525060200191505060405180910390fd5b6134c9600a60405180602001604052908160008201548152505061402d565b82141580156134e657506134e36134de61469f565b61402d565b82105b61353b576040517f08c379a000000000000000000000000000000000000000000000000000000000815260040180806020018281038252604f81526020018061577b604f913960600191505060405180910390fd5b613544826146c5565b600a600082015181600001559050507fe6c1b64ad7e601924731051286b7b408b1a6f3ae96dcd6d2d9cd82578372ef9e826040518082815260200191505060405180910390a160019050919050565b600061359d612a67565b61360f576040517f08c379a00000000000000000000000000000000000000000000000000000000081526004018080602001828103825260208152602001807f4f776e61626c653a2063616c6c6572206973206e6f7420746865206f776e657281525060200191505060405180910390fd5b613617615767565b613620836146c5565b905061364e60066002016040518060200160405290816000820154815250508261527790919063ffffffff16565b6136a3576040517f08c379a00000000000000000000000000000000000000000000000000000000081526004018080602001828103825260358152602001806159e46035913960400191505060405180910390fd5b806006600001600082015181600001559050507f152c3fc1e1cd415804bc9ae15876b37e62d8909358b940e6f4847ca927f46637836040518082815260200191505060405180910390a16001915050919050565b80600e8190555050565b60006060600060f873ffffffffffffffffffffffffffffffffffffffff166040516020016040516020818303038152906040526040518082805190602001908083835b602083106137675780518252602082019150602081019050602083039250613744565b6001836020036101000a038019825116818451168082178552505050505050905001915050600060405180830381855afa9150503d80600081146137c7576040519150601f19603f3d011682016040523d82523d6000602084013e6137cc565b606091505b5080935081925050508061382b576040517f08c379a0000000000000000000000000000000000000000000000000000000008152600401808060200182810382526025815260200180615a976025913960400191505060405180910390fd5b61383682600061403b565b9250505090565b600d5481565b60006138876003613879600261386b600261385d88612f37565b6147de90919063ffffffff16565b61499990919063ffffffff16565b61486490919063ffffffff16565b9050919050565b600080600087141580156138a3575060008514155b613915576040517f08c379a00000000000000000000000000000000000000000000000000000000081526004018080602001828103825260158152602001807f612064656e6f6d696e61746f72206973207a65726f000000000000000000000081525060200191505060405180910390fd5b6000806000606060fc73ffffffffffffffffffffffffffffffffffffffff168c8c8c8c8c8c6040516020018087815260200186815260200185815260200184815260200183815260200182815260200196505050505050506040516020818303038152906040526040518082805190602001908083835b602083106139af578051825260208201915060208101905060208303925061398c565b6001836020036101000a038019825116818451168082178552505050505050905001915050600060405180830381855afa9150503d8060008114613a0f576040519150601f19603f3d011682016040523d82523d6000602084013e613a14565b606091505b50809250819350505081613a73576040517f08c379a0000000000000000000000000000000000000000000000000000000008152600401808060200182810382526027815260200180615a706027913960400191505060405180910390fd5b613a7e81600061403b565b9350613a8b81602061403b565b925083839550955050505050965096945050505050565b613aaa612a67565b613b1c576040517f08c379a00000000000000000000000000000000000000000000000000000000081526004018080602001828103825260208152602001807f4f776e61626c653a2063616c6c6572206973206e6f7420746865206f776e657281525060200191505060405180910390fd5b613b2581614a36565b50565b60006060600060f573ffffffffffffffffffffffffffffffffffffffff1684604051602001808281526020019150506040516020818303038152906040526040518082805190602001908083835b60208310613b995780518252602082019150602081019050602083039250613b76565b6001836020036101000a038019825116818451168082178552505050505050905001915050600060405180830381855afa9150503d8060008114613bf9576040519150601f19603f3d011682016040523d82523d6000602084013e613bfe565b606091505b50809350819250505080613c5d576040517f08c379a000000000000000000000000000000000000000000000000000000000815260040180806020018281038252602c815260200180615abc602c913960400191505060405180910390fd5b613c688260006148ae565b92505050919050565b600080613c7c61149e565b90506000613c88611803565b90506000613c9f828461499990919063ffffffff16565b9050613d1d613d18613d01600b604051806020016040529081600082015481525050613cf3600a604051806020016040529081600082015481525050613ce5600161414d565b6150d590919063ffffffff16565b6150d590919063ffffffff16565b613d0a8461414d565b614f8c90919063ffffffff16565b614636565b905080935050505090565b613d30615767565b6000613d3a611ba7565b90506000613d4661528d565b73ffffffffffffffffffffffffffffffffffffffff166318160ddd6040518163ffffffff1660e01b815260040160206040518083038186803b158015613d8b57600080fd5b505afa158015613d9f573d6000803e3d6000fd5b505050506040513d6020811015613db557600080fd5b810190808051906020019092919050505090506000613dfb613de0868461499990919063ffffffff16565b6b033b2e3c9fd0803ce800000061494f90919063ffffffff16565b90506000613e1e846b033b2e3c9fd0803ce800000061494f90919063ffffffff16565b9050613e28615767565b613e4b613e348361414d565b613e3d8561414d565b614f8c90919063ffffffff16565b9050613e67613e5861469f565b8261538890919063ffffffff16565b15613f4a57613e74615767565b613ebc6003600001600001604051806020016040529081600082015481525050613eae613e9f61469f565b856150d590919063ffffffff16565b6141d790919063ffffffff16565b9050613ec6615767565b613ee082613ed261469f565b61539d90919063ffffffff16565b9050613f0e600360020160405180602001604052908160008201548152505082614a2190919063ffffffff16565b15613f225780975050505050505050614028565b6003600201604051806020016040529081600082015481525050975050505050505050614028565b613f64613f5561469f565b82614a2190919063ffffffff16565b1561401857613f71615767565b613fb96003600001600101604051806020016040529081600082015481525050613fab84613f9d61469f565b6150d590919063ffffffff16565b6141d790919063ffffffff16565b9050613fd5613fc661469f565b82614a2190919063ffffffff16565b1561400157613ff481613fe661469f565b6150d590919063ffffffff16565b9650505050505050614028565b61400b60006146c5565b9650505050505050614028565b61402061469f565b955050505050505b919050565b600081600001519050919050565b600061404783836148ae565b60001c905092915050565b6000600160009054906101000a900473ffffffffffffffffffffffffffffffffffffffff1673ffffffffffffffffffffffffffffffffffffffff1663dcf0aaed60405160200180807f456c656374696f6e0000000000000000000000000000000000000000000000008152506008019050604051602081830303815290604052805190602001206040518263ffffffff1660e01b81526004018082815260200191505060206040518083038186803b15801561410d57600080fd5b505afa158015614121573d6000803e3d6000fd5b505050506040513d602081101561413757600080fd5b8101908080519060200190929190505050905090565b614155615767565b61415d615446565b8211156141b5576040517f08c379a000000000000000000000000000000000000000000000000000000000815260040180806020018281038252603681526020018061594f6036913960400191505060405180910390fd5b604051806020016040528069d3c21bcecceda100000084028152509050919050565b6141df615767565b6000836000015114806141f6575060008260000151145b1561421257604051806020016040528060008152509050614630565b69d3c21bcecceda10000008260000151141561423057829050614630565b69d3c21bcecceda10000008360000151141561424e57819050614630565b600069d3c21bcecceda100000061426485615465565b600001518161426f57fe5b049050600061427d8561549c565b600001519050600069d3c21bcecceda100000061429986615465565b60000151816142a457fe5b04905060006142b28661549c565b600001519050600082850290506000851461434657828582816142d157fe5b0414614345576040517f08c379a00000000000000000000000000000000000000000000000000000000081526004018080602001828103825260168152602001807f6f766572666c6f7720783179312064657465637465640000000000000000000081525060200191505060405180910390fd5b5b600069d3c21bcecceda100000082029050600082146143e85769d3c21bcecceda100000082828161437357fe5b04146143e7576040517f08c379a000000000000000000000000000000000000000000000000000000000815260040180806020018281038252601f8152602001807f6f766572666c6f772078317931202a206669786564312064657465637465640081525060200191505060405180910390fd5b5b8091506000848602905060008614614479578486828161440457fe5b0414614478576040517f08c379a00000000000000000000000000000000000000000000000000000000081526004018080602001828103825260168152602001807f6f766572666c6f7720783279312064657465637465640000000000000000000081525060200191505060405180910390fd5b5b6000848802905060008814614507578488828161449257fe5b0414614506576040517f08c379a00000000000000000000000000000000000000000000000000000000081526004018080602001828103825260168152602001807f6f766572666c6f7720783179322064657465637465640000000000000000000081525060200191505060405180910390fd5b5b61450f6154d9565b878161451757fe5b0496506145226154d9565b858161452a57fe5b04945060008588029050600088146145bb578588828161454657fe5b04146145ba576040517f08c379a00000000000000000000000000000000000000000000000000000000081526004018080602001828103825260168152602001807f6f766572666c6f7720783279322064657465637465640000000000000000000081525060200191505060405180910390fd5b5b6145c3615767565b60405180602001604052808781525090506145ec8160405180602001604052808781525061539d565b90506146068160405180602001604052808681525061539d565b90506146208160405180602001604052808581525061539d565b9050809a50505050505050505050505b92915050565b600069d3c21bcecceda100000082600001518161464f57fe5b049050919050565b60008082848161466357fe5b049050600083858161467157fe5b0614156146815780915050614699565b61469560018261499990919063ffffffff16565b9150505b92915050565b6146a7615767565b604051806020016040528069d3c21bcecceda1000000815250905090565b6146cd615767565b6040518060200160405280838152509050919050565b6000600160009054906101000a900473ffffffffffffffffffffffffffffffffffffffff1673ffffffffffffffffffffffffffffffffffffffff1663dcf0aaed60405160200180807f536f727465644f7261636c657300000000000000000000000000000000000000815250600d019050604051602081830303815290604052805190602001206040518263ffffffff1660e01b81526004018082815260200191505060206040518083038186803b15801561479e57600080fd5b505afa1580156147b2573d6000803e3d6000fd5b505050506040513d60208110156147c857600080fd5b8101908080519060200190929190505050905090565b6000808314156147f1576000905061485e565b600082840290508284828161480257fe5b0414614859576040517f08c379a0000000000000000000000000000000000000000000000000000000008152600401808060200182810382526021815260200180615a4f6021913960400191505060405180910390fd5b809150505b92915050565b60006148a683836040518060400160405280601a81526020017f536166654d6174683a206469766973696f6e206279207a65726f0000000000008152506154e6565b905092915050565b60006148c460208361499990919063ffffffff16565b8351101561493a576040517f08c379a00000000000000000000000000000000000000000000000000000000081526004018080602001828103825260148152602001807f736c6963696e67206f7574206f662072616e676500000000000000000000000081525060200191505060405180910390fd5b60006020830184015190508091505092915050565b600061499183836040518060400160405280601e81526020017f536166654d6174683a207375627472616374696f6e206f766572666c6f7700008152506155ac565b905092915050565b600080828401905083811015614a17576040517f08c379a000000000000000000000000000000000000000000000000000000000815260040180806020018281038252601b8152602001807f536166654d6174683a206164646974696f6e206f766572666c6f77000000000081525060200191505060405180910390fd5b8091505092915050565b60008160000151836000015110905092915050565b600073ffffffffffffffffffffffffffffffffffffffff168173ffffffffffffffffffffffffffffffffffffffff161415614abc576040517f08c379a00000000000000000000000000000000000000000000000000000000081526004018080602001828103825260268152602001806158666026913960400191505060405180910390fd5b8073ffffffffffffffffffffffffffffffffffffffff166000809054906101000a900473ffffffffffffffffffffffffffffffffffffffff1673ffffffffffffffffffffffffffffffffffffffff167f8be0079c531659141344cd1fd0a4f28419497f9722a3daafe3b4186f6b6457e060405160405180910390a3806000806101000a81548173ffffffffffffffffffffffffffffffffffffffff021916908373ffffffffffffffffffffffffffffffffffffffff16021790555050565b600033905090565b614b8a61566c565b73ffffffffffffffffffffffffffffffffffffffff1663e5839836306040518263ffffffff1660e01b8152600401808273ffffffffffffffffffffffffffffffffffffffff1673ffffffffffffffffffffffffffffffffffffffff16815260200191505060206040518083038186803b158015614c0657600080fd5b505afa158015614c1a573d6000803e3d6000fd5b505050506040513d6020811015614c3057600080fd5b810190808051906020019092919050505015614c97576040517f08c379a000000000000000000000000000000000000000000000000000000000815260040180806020018281038252602281526020018061592d6022913960400191505060405180910390fd5b614c9f615767565b614caf614caa613080565b6146c5565b9050614cda60096040518060200160405290816000820154815250508261538890919063ffffffff16565b15614de057614ce7615767565b614d106009604051806020016040529081600082015481525050836150d590919063ffffffff16565b9050614d1a615767565b614d466006600101604051806020016040529081600082015481525050836141d790919063ffffffff16565b9050614d74600660000160405180602001604052908160008201548152505082614f7690919063ffffffff16565b15614d9a57614d83600061414d565b600660000160008201518160000155905050614dd9565b614dc68160066000016040518060200160405290816000820154815250506150d590919063ffffffff16565b6006600001600082015181600001559050505b5050614f1b565b614e09600960405180602001604052908160008201548152505082614a2190919063ffffffff16565b15614f1a57614e16615767565b614e3f8260096040518060200160405290816000820154815250506150d590919063ffffffff16565b9050614e49615767565b614e756006600101604051806020016040529081600082015481525050836141d790919063ffffffff16565b9050614ea381600660000160405180602001604052908160008201548152505061539d90919063ffffffff16565b600660000160008201518160000155905050614efa6006600201604051806020016040529081600082015481525050600660000160405180602001604052908160008201548152505061538890919063ffffffff16565b15614f175760066002016006600001600082015481600001559050505b50505b5b7f49d8cdfe05bae61517c234f65f4088454013bafe561115126a8fe0074dc7700e614f5e600660000160405180602001604052908160008201548152505061402d565b6040518082815260200191505060405180910390a150565b6000816000015183600001511015905092915050565b614f94615767565b60008260000151141561500f576040517f08c379a00000000000000000000000000000000000000000000000000000000081526004018080602001828103825260118152602001807f63616e277420646976696465206279203000000000000000000000000000000081525060200191505060405180910390fd5b600069d3c21bcecceda10000008460000151029050836000015169d3c21bcecceda1000000828161503c57fe5b04146150b0576040517f08c379a00000000000000000000000000000000000000000000000000000000081526004018080602001828103825260128152602001807f6f766572666c6f7720617420646976696465000000000000000000000000000081525060200191505060405180910390fd5b6040518060200160405280846000015183816150c857fe5b0481525091505092915050565b6150dd615767565b81600001518360000151101561515b576040517f08c379a000000000000000000000000000000000000000000000000000000000815260040180806020018281038252601f8152602001807f737562737472616374696f6e20756e646572666c6f772064657465637465640081525060200191505060405180910390fd5b60405180602001604052808360000151856000015103815250905092915050565b6000600160009054906101000a900473ffffffffffffffffffffffffffffffffffffffff1673ffffffffffffffffffffffffffffffffffffffff1663dcf0aaed60405160200180807f52657365727665000000000000000000000000000000000000000000000000008152506007019050604051602081830303815290604052805190602001206040518263ffffffff1660e01b81526004018082815260200191505060206040518083038186803b15801561523757600080fd5b505afa15801561524b573d6000803e3d6000fd5b505050506040513d602081101561526157600080fd5b8101908080519060200190929190505050905090565b6000816000015183600001511115905092915050565b6000600160009054906101000a900473ffffffffffffffffffffffffffffffffffffffff1673ffffffffffffffffffffffffffffffffffffffff1663dcf0aaed60405160200180807f476f6c64546f6b656e00000000000000000000000000000000000000000000008152506009019050604051602081830303815290604052805190602001206040518263ffffffff1660e01b81526004018082815260200191505060206040518083038186803b15801561534857600080fd5b505afa15801561535c573d6000803e3d6000fd5b505050506040513d602081101561537257600080fd5b8101908080519060200190929190505050905090565b60008160000151836000015111905092915050565b6153a5615767565b600082600001518460000151019050836000015181101561542e576040517f08c379a00000000000000000000000000000000000000000000000000000000081526004018080602001828103825260158152602001807f616464206f766572666c6f77206465746563746564000000000000000000000081525060200191505060405180910390fd5b60405180602001604052808281525091505092915050565b60007601357c299a88ea76a58924d52ce4f26a85af186c2b9e74905090565b61546d615767565b604051806020016040528069d3c21bcecceda10000008085600001518161549057fe5b04028152509050919050565b6154a4615767565b604051806020016040528069d3c21bcecceda1000000808560000151816154c757fe5b04028460000151038152509050919050565b600064e8d4a51000905090565b60008083118290615592576040517f08c379a00000000000000000000000000000000000000000000000000000000081526004018080602001828103825283818151815260200191508051906020019080838360005b8381101561555757808201518184015260208101905061553c565b50505050905090810190601f1680156155845780820380516001836020036101000a031916815260200191505b509250505060405180910390fd5b50600083858161559e57fe5b049050809150509392505050565b6000838311158290615659576040517f08c379a00000000000000000000000000000000000000000000000000000000081526004018080602001828103825283818151815260200191508051906020019080838360005b8381101561561e578082015181840152602081019050615603565b50505050905090810190601f16801561564b5780820380516001836020036101000a031916815260200191505b509250505060405180910390fd5b5060008385039050809150509392505050565b6000600160009054906101000a900473ffffffffffffffffffffffffffffffffffffffff1673ffffffffffffffffffffffffffffffffffffffff1663dcf0aaed60405160200180807f467265657a6572000000000000000000000000000000000000000000000000008152506007019050604051602081830303815290604052805190602001206040518263ffffffff1660e01b81526004018082815260200191505060206040518083038186803b15801561572757600080fd5b505afa15801561573b573d6000803e3d6000fd5b505050506040513d602081101561575157600080fd5b8101908080519060200190929190505050905090565b604051806020016040528060008152509056fe56616c7565206d75737420626520646966666572656e742066726f6d206578697374696e6720636f6d6d756e69747920726577617264206672616374696f6e20616e64206c657373207468616e20315461726765742076616c696461746f722065706f6368207061796d656e7420756e6368616e6765646572726f722063616c6c696e67206e756d62657256616c696461746f7273496e53657420707265636f6d70696c654261642072657761726473206d756c7469706c69657220706172616d657465727354617267657420766f74696e6720676f6c64206672616374696f6e20756e6368616e6765644f776e61626c653a206e6577206f776e657220697320746865207a65726f206164647265737354617267657420766f74696e6720676f6c64206672616374696f6e2063616e6e6f74206265206c6172676572207468616e2031426c6f636b207265776172642063616c63756c6174696f6e20666f722079656172732031352d333020756e696d706c656d656e7465646572726f722063616c6c696e672067657456657269666965645365616c4269746d617046726f6d48656164657220707265636f6d70696c6563616e27742063616c6c207768656e20636f6e74726163742069732066726f7a656e63616e277420637265617465206669786964697479206e756d626572206c6172676572207468616e206d61784e6577466978656428294261642074617267657420766f74696e67207969656c6420706172616d65746572736572726f722063616c6c696e672076616c696461746f725369676e65724164647265737346726f6d43757272656e7453657420707265636f6d70696c6554617267657420766f74696e67207969656c64206d757374206265206c657373207468616e206f7220657175616c20746f206d61786572726f722063616c6c696e672076616c696461746f725369676e65724164647265737346726f6d53657420707265636f6d70696c65536166654d6174683a206d756c7469706c69636174696f6e206f766572666c6f776572726f722063616c6c696e67206672616374696f6e4d756c45787020707265636f6d70696c656572726f722063616c6c696e672067657445706f636853697a6520707265636f6d70696c656572726f722063616c6c696e6720676574506172656e745365616c4269746d617020707265636f6d70696c656572726f722063616c6c696e6720676574426c6f636b4e756d62657246726f6d48656164657220707265636f6d70696c654d61782074617267657420766f74696e67207969656c64206d757374206265206c6f776572207468616e2031303025506172746e657220616e642076616c7565206d75737420626520646966666572656e742066726f6d206578697374696e6720636172626f6e206f666673657474696e672066756e646572726f722063616c6c696e67206861736848656164657220707265636f6d70696c65a265627a7a72315820cf1727003cc47c9efacea6a419f271d1558902ea38b534b296b12c7a3c68628d64736f6c634300050d0032",
  "source": "pragma solidity ^0.5.13;\n\nimport \"../EpochRewards.sol\";\n\n/**\n * @title A wrapper around EpochRewards that exposes internal functions for testing.\n */\ncontract EpochRewardsTest is EpochRewards(true) {\n  uint256 private numValidatorsInCurrentSet;\n  function getRewardsMultiplier(uint256 targetGoldTotalSupplyIncrease)\n    external\n    view\n    returns (uint256)\n  {\n    return _getRewardsMultiplier(targetGoldTotalSupplyIncrease).unwrap();\n  }\n\n  function updateTargetVotingYield() external {\n    _updateTargetVotingYield();\n  }\n\n  function numberValidatorsInCurrentSet() public view returns (uint256) {\n    return numValidatorsInCurrentSet;\n  }\n\n  function setNumberValidatorsInCurrentSet(uint256 value) external {\n    numValidatorsInCurrentSet = value;\n  }\n}\n",
  "sourcePath": "/Users/hiroki.yasui/go/src/github.com/celo-org/celo-monorepo/packages/protocol/contracts/governance/test/EpochRewardsTest.sol",
  "compiler": {
    "name": "solc",
    "version": "0.5.13+commit.5b0b510c.Emscripten.clang"
  },
  "schemaVersion": "3.0.23",
  "updatedAt": "2022-05-06T03:53:12.968Z",
  "devdoc": {
    "methods": {
      "calculateTargetEpochRewards()": {
        "return": "The per validator epoch reward, the total rewards to voters, the total community reward, and the total carbon offsetting partner reward."
      },
      "checkProofOfPossession(address,bytes,bytes)": {
        "params": {
          "blsKey": "The BLS public key that the validator is using for consensus, should pass proof  of possession. 48 bytes.",
          "blsPop": "The BLS public key proof-of-possession, which consists of a signature on the  account address. 96 bytes.",
          "sender": "The address signed by the BLS key to generate the proof of possession."
        },
        "return": "True upon success."
      },
      "fractionMulExp(uint256,uint256,uint256,uint256,uint256,uint256)": {
        "params": {
          "_decimals": "precision",
          "aDenominator": "Denominator of first fraction",
          "aNumerator": "Numerator of first fraction",
          "bDenominator": "Denominator of exponentiated fraction",
          "bNumerator": "Numerator of exponentiated fraction",
          "exponent": "exponent to raise b to"
        },
        "return": "numerator/denominator of the computed quantity (not reduced)."
      },
      "getBlockNumberFromHeader(bytes)": {
        "params": {
          "header": "RLP encoded header"
        },
        "return": "Block number."
      },
      "getCarbonOffsettingFraction()": {
        "return": "The percentage of total reward which goes to the carbon offsetting partner."
      },
      "getCommunityRewardFraction()": {
        "return": "The percentage of total reward which goes to the community funds."
      },
      "getEpochNumber()": {
        "return": "Current epoch number."
      },
      "getEpochNumberOfBlock(uint256)": {
        "params": {
          "blockNumber": "Block number where epoch number is calculated."
        },
        "return": "Epoch number."
      },
      "getEpochSize()": {
        "return": "The current epoch size in blocks."
      },
      "getParentSealBitmap(uint256)": {
        "params": {
          "blockNumber": "Block number to retrieve. Must be within 4 epochs of the current number."
        },
        "return": "Bitmap parent seal with set bits at indices corresponding to signing validators."
      },
      "getRewardsMultiplier()": {
        "return": "The rewards multiplier based on the current and target Gold supplies."
      },
      "getRewardsMultiplierParameters()": {
        "return": "The max multiplier and under/over spend adjustment factors."
      },
      "getTargetGoldTotalSupply()": {
        "return": "The target Gold supply according to the epoch rewards target schedule."
      },
      "getTargetTotalEpochPaymentsInGold()": {
        "return": "The total target epoch payments to validators, converted to Gold."
      },
      "getTargetVoterRewards()": {
        "return": "the total target epoch rewards for voters."
      },
      "getTargetVotingGoldFraction()": {
        "return": "The percentage of floating Gold voting to target."
      },
      "getTargetVotingYieldParameters()": {
        "return": "The target, max, and adjustment factor for target voting yield."
      },
      "getVerifiedSealBitmapFromHeader(bytes)": {
        "params": {
          "header": "RLP encoded header"
        },
        "return": "Bitmap parent seal with set bits at indices correspoinding to signing validators."
      },
      "getVersionNumber()": {
        "return": "The storage, major, minor, and patch version of the contract."
      },
      "getVotingGoldFraction()": {
        "return": "The fraction of floating Gold being used for voting in validator elections."
      },
      "hashHeader(bytes)": {
        "params": {
          "header": "RLP encoded header"
        },
        "return": "Header hash."
      },
      "initialize(address,uint256,uint256,uint256,uint256,uint256,uint256,uint256,uint256,uint256,address,uint256)": {
        "details": "Should be called only once.",
        "params": {
          "_carbonOffsettingFraction": "The percentage of rewards going to carbon offsetting partner.",
          "_carbonOffsettingPartner": "The address of the carbon offsetting partner.",
          "_communityRewardFraction": "The percentage of rewards that go the community funds.",
          "_targetValidatorEpochPayment": "The target validator epoch payment.",
          "_targetVotingGoldFraction": "The percentage of floating Gold voting to target.",
          "registryAddress": "The address of the registry contract.",
          "rewardsMultiplierMax": "The max multiplier on target epoch rewards.",
          "rewardsMultiplierOverspendAdjustmentFactor": "Adjusts the multiplier on target epoch  rewards when the protocol is running ahead of the target Gold supply.",
          "rewardsMultiplierUnderspendAdjustmentFactor": "Adjusts the multiplier on target epoch  rewards when the protocol is running behind the target Gold supply.",
          "targetVotingYieldAdjustmentFactor": "The target block reward adjustment factor for voters.",
          "targetVotingYieldInitial": "The initial relative target block reward for voters.",
          "targetVotingYieldMax": "The max relative target block reward for voters."
        }
      },
      "isOwner()": {
        "details": "Returns true if the caller is the current owner."
      },
      "minQuorumSize(uint256)": {
        "details": "Computed in celo-blockchain as int(math.Ceil(float64(2*valSet.Size()) / 3))"
      },
      "minQuorumSizeInCurrentSet()": {
        "return": "Byzantine quorum of validators."
      },
      "numberValidatorsInSet(uint256)": {
        "params": {
          "blockNumber": "Block number to retrieve the validator set from."
        },
        "return": "Size of the validator set."
      },
      "owner()": {
        "details": "Returns the address of the current owner."
      },
      "renounceOwnership()": {
        "details": "Leaves the contract without owner. It will not be possible to call `onlyOwner` functions anymore. Can only be called by the current owner.     * NOTE: Renouncing ownership will leave the contract without an owner, thereby removing any functionality that is only available to the owner."
      },
      "setCarbonOffsettingFund(address,uint256)": {
        "params": {
          "partner": "The address of the carbon offsetting partner.",
          "value": "The percentage of the total reward to be sent to the carbon offsetting partner."
        },
        "return": "True upon success."
      },
      "setCommunityRewardFraction(uint256)": {
        "params": {
          "value": "The percentage of the total reward to be sent to the community funds."
        },
        "return": "True upon success."
      },
      "setRegistry(address)": {
        "params": {
          "registryAddress": "The address of a registry contract for routing to other contracts."
        }
      },
      "setRewardsMultiplierParameters(uint256,uint256,uint256)": {
        "params": {
          "max": "The max multiplier on target epoch rewards.",
          "overspendAdjustmentFactor": "Adjusts the multiplier on target epoch rewards when the  protocol is running ahead of the target Gold supply.",
          "underspendAdjustmentFactor": "Adjusts the multiplier on target epoch rewards when the  protocol is running behind the target Gold supply."
        },
        "return": "True upon success."
      },
      "setTargetValidatorEpochPayment(uint256)": {
        "params": {
          "value": "The value in Celo Dollars."
        },
        "return": "True upon success."
      },
      "setTargetVotingGoldFraction(uint256)": {
        "params": {
          "value": "The percentage of floating Gold voting to target."
        },
        "return": "True upon success."
      },
      "setTargetVotingYield(uint256)": {
        "params": {
          "targetVotingYield": "The relative target block reward for voters."
        },
        "return": "True upon success."
      },
      "setTargetVotingYieldParameters(uint256,uint256)": {
        "params": {
          "adjustmentFactor": "The target block reward adjustment factor for voters.",
          "max": "The max relative target block reward for voters."
        },
        "return": "True upon success."
      },
      "transferOwnership(address)": {
        "details": "Transfers ownership of the contract to a new account (`newOwner`). Can only be called by the current owner."
      },
      "validatorSignerAddressFromCurrentSet(uint256)": {
        "params": {
          "index": "Index of requested validator in the validator set."
        },
        "return": "Address of validator at the requested index."
      },
      "validatorSignerAddressFromSet(uint256,uint256)": {
        "params": {
          "blockNumber": "Block number to retrieve the validator set from.",
          "index": "Index of requested validator in the validator set."
        },
        "return": "Address of validator at the requested index."
      }
    },
    "title": "A wrapper around EpochRewards that exposes internal functions for testing."
  },
  "userdoc": {
    "methods": {
      "calculateTargetEpochRewards()": {
        "notice": "Calculates the per validator epoch payment and the total rewards to voters."
      },
      "checkProofOfPossession(address,bytes,bytes)": {
        "notice": "Checks a BLS proof of possession."
      },
      "fractionMulExp(uint256,uint256,uint256,uint256,uint256,uint256)": {
        "notice": "calculate a * b^x for fractions a, b to `decimals` precision"
      },
      "getBlockNumberFromHeader(bytes)": {
        "notice": "Parses block number out of header."
      },
      "getCarbonOffsettingFraction()": {
        "notice": "Returns the carbon offsetting partner reward fraction."
      },
      "getCommunityRewardFraction()": {
        "notice": "Returns the community reward fraction."
      },
      "getEpochNumber()": {
        "notice": "Returns the epoch number at a block."
      },
      "getEpochNumberOfBlock(uint256)": {
        "notice": "Returns the epoch number at a block."
      },
      "getEpochSize()": {
        "notice": "Returns the current epoch size in blocks."
      },
      "getParentSealBitmap(uint256)": {
        "notice": "Gets the parent seal bitmap from the header at the given block number."
      },
      "getRewardsMultiplier()": {
        "notice": "Returns the rewards multiplier based on the current and target Gold supplies."
      },
      "getRewardsMultiplierParameters()": {
        "notice": "Returns the rewards multiplier parameters."
      },
      "getTargetGoldTotalSupply()": {
        "notice": "Returns the target Gold supply according to the epoch rewards target schedule."
      },
      "getTargetTotalEpochPaymentsInGold()": {
        "notice": "Returns the total target epoch payments to validators, converted to Gold."
      },
      "getTargetVoterRewards()": {
        "notice": "Returns the total target epoch rewards for voters."
      },
      "getTargetVotingGoldFraction()": {
        "notice": "Returns the target voting Gold fraction."
      },
      "getTargetVotingYieldParameters()": {
        "notice": "Returns the target voting yield parameters."
      },
      "getVerifiedSealBitmapFromHeader(bytes)": {
        "notice": "Verifies the BLS signature on the header and returns the seal bitmap. The validator set used for verification is retrieved based on the parent hash field of the header.  If the parent hash is not in the blockchain, verification fails."
      },
      "getVersionNumber()": {
        "notice": "Returns the storage, major, minor, and patch version of the contract."
      },
      "getVotingGoldFraction()": {
        "notice": "Returns the fraction of floating Gold being used for voting in validator elections."
      },
      "hashHeader(bytes)": {
        "notice": "Computes hash of header."
      },
      "initialize(address,uint256,uint256,uint256,uint256,uint256,uint256,uint256,uint256,uint256,address,uint256)": {
        "notice": "Used in place of the constructor to allow the contract to be upgradable via proxy."
      },
      "isReserveLow()": {
        "notice": "Determines if the reserve is low enough to demand a diversion from   the community reward. Targets initial critical ratio of 2 with a linear   decline until 25 years have passed where the critical ratio will be 1."
      },
      "minQuorumSize(uint256)": {
        "notice": "Returns the minimum number of required signers for a given block number."
      },
      "minQuorumSizeInCurrentSet()": {
        "notice": "Computes byzantine quorum from current validator set size"
      },
      "numberValidatorsInSet(uint256)": {
        "notice": "Gets the size of the validator set that must sign the given block number."
      },
      "setCarbonOffsettingFund(address,uint256)": {
        "notice": "Sets the carbon offsetting fund."
      },
      "setCommunityRewardFraction(uint256)": {
        "notice": "Sets the community reward percentage"
      },
      "setRegistry(address)": {
        "notice": "Updates the address pointing to a Registry contract."
      },
      "setRewardsMultiplierParameters(uint256,uint256,uint256)": {
        "notice": "Sets the rewards multiplier parameters."
      },
      "setTargetValidatorEpochPayment(uint256)": {
        "notice": "Sets the target per-epoch payment in Celo Dollars for validators."
      },
      "setTargetVotingGoldFraction(uint256)": {
        "notice": "Sets the target voting Gold fraction."
      },
      "setTargetVotingYield(uint256)": {
        "notice": "Sets the target voting yield.  Uses fixed point arithmetic for protection against overflow."
      },
      "setTargetVotingYieldParameters(uint256,uint256)": {
        "notice": "Sets the target voting yield parameters."
      },
      "validatorSignerAddressFromCurrentSet(uint256)": {
        "notice": "Gets a validator address from the current validator set."
      },
      "validatorSignerAddressFromSet(uint256,uint256)": {
        "notice": "Gets a validator address from the validator set at the given block number."
      }
    }
  }
}