{
  "contractName": "Escrow",
  "abi": [
    {
      "inputs": [
        {
          "internalType": "bool",
          "name": "test",
          "type": "bool"
        }
      ],
      "payable": false,
      "stateMutability": "nonpayable",
      "type": "constructor"
    },
    {
      "anonymous": false,
      "inputs": [
        {
          "indexed": true,
          "internalType": "address",
          "name": "previousOwner",
          "type": "address"
        },
        {
          "indexed": true,
          "internalType": "address",
          "name": "newOwner",
          "type": "address"
        }
      ],
      "name": "OwnershipTransferred",
      "type": "event"
    },
    {
      "anonymous": false,
      "inputs": [
        {
          "indexed": true,
          "internalType": "address",
          "name": "registryAddress",
          "type": "address"
        }
      ],
      "name": "RegistrySet",
      "type": "event"
    },
    {
      "anonymous": false,
      "inputs": [
        {
          "indexed": true,
          "internalType": "bytes32",
          "name": "identifier",
          "type": "bytes32"
        },
        {
          "indexed": true,
          "internalType": "address",
          "name": "by",
          "type": "address"
        },
        {
          "indexed": true,
          "internalType": "address",
          "name": "token",
          "type": "address"
        },
        {
          "indexed": false,
          "internalType": "uint256",
          "name": "value",
          "type": "uint256"
        },
        {
          "indexed": false,
          "internalType": "address",
          "name": "paymentId",
          "type": "address"
        }
      ],
      "name": "Revocation",
      "type": "event"
    },
    {
      "anonymous": false,
      "inputs": [
        {
          "indexed": true,
          "internalType": "address",
          "name": "from",
          "type": "address"
        },
        {
          "indexed": true,
          "internalType": "bytes32",
          "name": "identifier",
          "type": "bytes32"
        },
        {
          "indexed": true,
          "internalType": "address",
          "name": "token",
          "type": "address"
        },
        {
          "indexed": false,
          "internalType": "uint256",
          "name": "value",
          "type": "uint256"
        },
        {
          "indexed": false,
          "internalType": "address",
          "name": "paymentId",
          "type": "address"
        },
        {
          "indexed": false,
          "internalType": "uint256",
          "name": "minAttestations",
          "type": "uint256"
        }
      ],
      "name": "Transfer",
      "type": "event"
    },
    {
      "anonymous": false,
      "inputs": [
        {
          "indexed": true,
          "internalType": "bytes32",
          "name": "identifier",
          "type": "bytes32"
        },
        {
          "indexed": true,
          "internalType": "address",
          "name": "to",
          "type": "address"
        },
        {
          "indexed": true,
          "internalType": "address",
          "name": "token",
          "type": "address"
        },
        {
          "indexed": false,
          "internalType": "uint256",
          "name": "value",
          "type": "uint256"
        },
        {
          "indexed": false,
          "internalType": "address",
          "name": "paymentId",
          "type": "address"
        }
      ],
      "name": "Withdrawal",
      "type": "event"
    },
    {
      "constant": true,
      "inputs": [
        {
          "internalType": "address",
          "name": "",
          "type": "address"
        }
      ],
      "name": "escrowedPayments",
      "outputs": [
        {
          "internalType": "bytes32",
          "name": "recipientIdentifier",
          "type": "bytes32"
        },
        {
          "internalType": "address",
          "name": "sender",
          "type": "address"
        },
        {
          "internalType": "address",
          "name": "token",
          "type": "address"
        },
        {
          "internalType": "uint256",
          "name": "value",
          "type": "uint256"
        },
        {
          "internalType": "uint256",
          "name": "sentIndex",
          "type": "uint256"
        },
        {
          "internalType": "uint256",
          "name": "receivedIndex",
          "type": "uint256"
        },
        {
          "internalType": "uint256",
          "name": "timestamp",
          "type": "uint256"
        },
        {
          "internalType": "uint256",
          "name": "expirySeconds",
          "type": "uint256"
        },
        {
          "internalType": "uint256",
          "name": "minAttestations",
          "type": "uint256"
        }
      ],
      "payable": false,
      "stateMutability": "view",
      "type": "function"
    },
    {
      "constant": true,
      "inputs": [],
      "name": "initialized",
      "outputs": [
        {
          "internalType": "bool",
          "name": "",
          "type": "bool"
        }
      ],
      "payable": false,
      "stateMutability": "view",
      "type": "function"
    },
    {
      "constant": true,
      "inputs": [],
      "name": "isOwner",
      "outputs": [
        {
          "internalType": "bool",
          "name": "",
          "type": "bool"
        }
      ],
      "payable": false,
      "stateMutability": "view",
      "type": "function"
    },
    {
      "constant": true,
      "inputs": [],
      "name": "owner",
      "outputs": [
        {
          "internalType": "address",
          "name": "",
          "type": "address"
        }
      ],
      "payable": false,
      "stateMutability": "view",
      "type": "function"
    },
    {
      "constant": true,
      "inputs": [
        {
          "internalType": "bytes32",
          "name": "",
          "type": "bytes32"
        },
        {
          "internalType": "uint256",
          "name": "",
          "type": "uint256"
        }
      ],
      "name": "receivedPaymentIds",
      "outputs": [
        {
          "internalType": "address",
          "name": "",
          "type": "address"
        }
      ],
      "payable": false,
      "stateMutability": "view",
      "type": "function"
    },
    {
      "constant": true,
      "inputs": [],
      "name": "registry",
      "outputs": [
        {
          "internalType": "contract IRegistry",
          "name": "",
          "type": "address"
        }
      ],
      "payable": false,
      "stateMutability": "view",
      "type": "function"
    },
    {
      "constant": false,
      "inputs": [],
      "name": "renounceOwnership",
      "outputs": [],
      "payable": false,
      "stateMutability": "nonpayable",
      "type": "function"
    },
    {
      "constant": true,
      "inputs": [
        {
          "internalType": "address",
          "name": "",
          "type": "address"
        },
        {
          "internalType": "uint256",
          "name": "",
          "type": "uint256"
        }
      ],
      "name": "sentPaymentIds",
      "outputs": [
        {
          "internalType": "address",
          "name": "",
          "type": "address"
        }
      ],
      "payable": false,
      "stateMutability": "view",
      "type": "function"
    },
    {
      "constant": false,
      "inputs": [
        {
          "internalType": "address",
          "name": "registryAddress",
          "type": "address"
        }
      ],
      "name": "setRegistry",
      "outputs": [],
      "payable": false,
      "stateMutability": "nonpayable",
      "type": "function"
    },
    {
      "constant": false,
      "inputs": [
        {
          "internalType": "address",
          "name": "newOwner",
          "type": "address"
        }
      ],
      "name": "transferOwnership",
      "outputs": [],
      "payable": false,
      "stateMutability": "nonpayable",
      "type": "function"
    },
    {
      "constant": true,
      "inputs": [],
      "name": "getVersionNumber",
      "outputs": [
        {
          "internalType": "uint256",
          "name": "",
          "type": "uint256"
        },
        {
          "internalType": "uint256",
          "name": "",
          "type": "uint256"
        },
        {
          "internalType": "uint256",
          "name": "",
          "type": "uint256"
        },
        {
          "internalType": "uint256",
          "name": "",
          "type": "uint256"
        }
      ],
      "payable": false,
      "stateMutability": "pure",
      "type": "function"
    },
    {
      "constant": false,
      "inputs": [
        {
          "internalType": "address",
          "name": "registryAddress",
          "type": "address"
        }
      ],
      "name": "initialize",
      "outputs": [],
      "payable": false,
      "stateMutability": "nonpayable",
      "type": "function"
    },
    {
      "constant": false,
      "inputs": [
        {
          "internalType": "bytes32",
          "name": "identifier",
          "type": "bytes32"
        },
        {
          "internalType": "address",
          "name": "token",
          "type": "address"
        },
        {
          "internalType": "uint256",
          "name": "value",
          "type": "uint256"
        },
        {
          "internalType": "uint256",
          "name": "expirySeconds",
          "type": "uint256"
        },
        {
          "internalType": "address",
          "name": "paymentId",
          "type": "address"
        },
        {
          "internalType": "uint256",
          "name": "minAttestations",
          "type": "uint256"
        }
      ],
      "name": "transfer",
      "outputs": [
        {
          "internalType": "bool",
          "name": "",
          "type": "bool"
        }
      ],
      "payable": false,
      "stateMutability": "nonpayable",
      "type": "function"
    },
    {
      "constant": false,
      "inputs": [
        {
          "internalType": "address",
          "name": "paymentId",
          "type": "address"
        },
        {
          "internalType": "uint8",
          "name": "v",
          "type": "uint8"
        },
        {
          "internalType": "bytes32",
          "name": "r",
          "type": "bytes32"
        },
        {
          "internalType": "bytes32",
          "name": "s",
          "type": "bytes32"
        }
      ],
      "name": "withdraw",
      "outputs": [
        {
          "internalType": "bool",
          "name": "",
          "type": "bool"
        }
      ],
      "payable": false,
      "stateMutability": "nonpayable",
      "type": "function"
    },
    {
      "constant": false,
      "inputs": [
        {
          "internalType": "address",
          "name": "paymentId",
          "type": "address"
        }
      ],
      "name": "revoke",
      "outputs": [
        {
          "internalType": "bool",
          "name": "",
          "type": "bool"
        }
      ],
      "payable": false,
      "stateMutability": "nonpayable",
      "type": "function"
    },
    {
      "constant": true,
      "inputs": [
        {
          "internalType": "bytes32",
          "name": "identifier",
          "type": "bytes32"
        }
      ],
      "name": "getReceivedPaymentIds",
      "outputs": [
        {
          "internalType": "address[]",
          "name": "",
          "type": "address[]"
        }
      ],
      "payable": false,
      "stateMutability": "view",
      "type": "function"
    },
    {
      "constant": true,
      "inputs": [
        {
          "internalType": "address",
          "name": "sender",
          "type": "address"
        }
      ],
      "name": "getSentPaymentIds",
      "outputs": [
        {
          "internalType": "address[]",
          "name": "",
          "type": "address[]"
        }
      ],
      "payable": false,
      "stateMutability": "view",
      "type": "function"
    }
  ],
  "bytecode": "0x60806040523480156200001157600080fd5b5060405162002f1138038062002f11833981810160405260208110156200003757600080fd5b81019080805190602001909291905050508060016000819055506000620000636200012b60201b60201c565b905080600160006101000a81548173ffffffffffffffffffffffffffffffffffffffff021916908373ffffffffffffffffffffffffffffffffffffffff1602179055508073ffffffffffffffffffffffffffffffffffffffff16600073ffffffffffffffffffffffffffffffffffffffff167f8be0079c531659141344cd1fd0a4f28419497f9722a3daafe3b4186f6b6457e060405160405180910390a35080620001235760018060146101000a81548160ff0219169083151502179055505b505062000133565b600033905090565b612dce80620001436000396000f3fe608060405234801561001057600080fd5b506004361061010b5760003560e01c806374a8f103116100a25780638f80c33e116100715780638f80c33e146105a6578063a91ee0dc1461061e578063c4d66de814610662578063e1d9a080146106a6578063f2fde38b146107345761010b565b806374a8f103146104945780637b103999146104f05780638da5cb5b1461053a5780638f32d59b146105845761010b565b80635b57b65b116100de5780635b57b65b1461027b578063680d782c146102fe578063702cb75d146103e6578063715018a61461048a5761010b565b8063158ef93e1461011057806318d46532146101325780633e68d5d7146101cb57806354255be014610248575b600080fd5b610118610778565b604051808215151515815260200191505060405180910390f35b6101746004803603602081101561014857600080fd5b81019080803573ffffffffffffffffffffffffffffffffffffffff16906020019092919050505061078b565b6040518080602001828103825283818151815260200191508051906020019060200280838360005b838110156101b757808201518184015260208101905061019c565b505050509050019250505060405180910390f35b61022e600480360360808110156101e157600080fd5b81019080803573ffffffffffffffffffffffffffffffffffffffff169060200190929190803560ff1690602001909291908035906020019092919080359060200190929190505050610858565b604051808215151515815260200191505060405180910390f35b61025061108d565b6040518085815260200184815260200183815260200182815260200194505050505060405180910390f35b6102a76004803603602081101561029157600080fd5b81019080803590602001909291905050506110b4565b6040518080602001828103825283818151815260200191508051906020019060200280838360005b838110156102ea5780820151818401526020810190506102cf565b505050509050019250505060405180910390f35b6103406004803603602081101561031457600080fd5b81019080803573ffffffffffffffffffffffffffffffffffffffff169060200190929190505050611155565b604051808a81526020018973ffffffffffffffffffffffffffffffffffffffff1673ffffffffffffffffffffffffffffffffffffffff1681526020018873ffffffffffffffffffffffffffffffffffffffff1673ffffffffffffffffffffffffffffffffffffffff168152602001878152602001868152602001858152602001848152602001838152602001828152602001995050505050505050505060405180910390f35b610470600480360360c08110156103fc57600080fd5b8101908080359060200190929190803573ffffffffffffffffffffffffffffffffffffffff1690602001909291908035906020019092919080359060200190929190803573ffffffffffffffffffffffffffffffffffffffff169060200190929190803590602001909291905050506111e3565b604051808215151515815260200191505060405180910390f35b610492611a4f565b005b6104d6600480360360208110156104aa57600080fd5b81019080803573ffffffffffffffffffffffffffffffffffffffff169060200190929190505050611b8a565b604051808215151515815260200191505060405180910390f35b6104f8612055565b604051808273ffffffffffffffffffffffffffffffffffffffff1673ffffffffffffffffffffffffffffffffffffffff16815260200191505060405180910390f35b61054261207b565b604051808273ffffffffffffffffffffffffffffffffffffffff1673ffffffffffffffffffffffffffffffffffffffff16815260200191505060405180910390f35b61058c6120a5565b604051808215151515815260200191505060405180910390f35b6105dc600480360360408110156105bc57600080fd5b810190808035906020019092919080359060200190929190505050612104565b604051808273ffffffffffffffffffffffffffffffffffffffff1673ffffffffffffffffffffffffffffffffffffffff16815260200191505060405180910390f35b6106606004803603602081101561063457600080fd5b81019080803573ffffffffffffffffffffffffffffffffffffffff16906020019092919050505061214f565b005b6106a46004803603602081101561067857600080fd5b81019080803573ffffffffffffffffffffffffffffffffffffffff1690602001909291905050506122f3565b005b6106f2600480360360408110156106bc57600080fd5b81019080803573ffffffffffffffffffffffffffffffffffffffff169060200190929190803590602001909291905050506123a5565b604051808273ffffffffffffffffffffffffffffffffffffffff1673ffffffffffffffffffffffffffffffffffffffff16815260200191505060405180910390f35b6107766004803603602081101561074a57600080fd5b81019080803573ffffffffffffffffffffffffffffffffffffffff1690602001909291905050506123f0565b005b600160149054906101000a900460ff1681565b6060600560008373ffffffffffffffffffffffffffffffffffffffff1673ffffffffffffffffffffffffffffffffffffffff16815260200190815260200160002080548060200260200160405190810160405280929190818152602001828054801561084c57602002820191906000526020600020905b8160009054906101000a900473ffffffffffffffffffffffffffffffffffffffff1673ffffffffffffffffffffffffffffffffffffffff1681526020019060010190808311610802575b50505050509050919050565b600060016000808282540192505081905550600080549050600073__Signatures____________________________6396ef41a1338888886040518563ffffffff1660e01b8152600401808573ffffffffffffffffffffffffffffffffffffffff1673ffffffffffffffffffffffffffffffffffffffff1681526020018460ff1660ff16815260200183815260200182815260200194505050505060206040518083038186803b15801561090b57600080fd5b505af415801561091f573d6000803e3d6000fd5b505050506040513d602081101561093557600080fd5b810190808051906020019092919050505090508673ffffffffffffffffffffffffffffffffffffffff168173ffffffffffffffffffffffffffffffffffffffff16146109cc576040517f08c379a000000000000000000000000000000000000000000000000000000000815260040180806020018281038252602d815260200180612d17602d913960400191505060405180910390fd5b6109d4612b6f565b600360008973ffffffffffffffffffffffffffffffffffffffff1673ffffffffffffffffffffffffffffffffffffffff16815260200190815260200160002060405180610120016040529081600082015481526020016001820160009054906101000a900473ffffffffffffffffffffffffffffffffffffffff1673ffffffffffffffffffffffffffffffffffffffff1673ffffffffffffffffffffffffffffffffffffffff1681526020016002820160009054906101000a900473ffffffffffffffffffffffffffffffffffffffff1673ffffffffffffffffffffffffffffffffffffffff1673ffffffffffffffffffffffffffffffffffffffff16815260200160038201548152602001600482015481526020016005820154815260200160068201548152602001600782015481526020016008820154815250509050600073ffffffffffffffffffffffffffffffffffffffff16816040015173ffffffffffffffffffffffffffffffffffffffff1614158015610b58575060008160600151115b610bca576040517f08c379a00000000000000000000000000000000000000000000000000000000081526004018080602001828103825260178152602001807f496e76616c69642077697468647261772076616c75652e00000000000000000081525060200191505060405180910390fd5b6000816000015150602060ff161115610e18576000600260009054906101000a900473ffffffffffffffffffffffffffffffffffffffff1673ffffffffffffffffffffffffffffffffffffffff1663dd92723360405160200180807f4174746573746174696f6e730000000000000000000000000000000000000000815250600c019050604051602081830303815290604052805190602001206040518263ffffffff1660e01b81526004018082815260200191505060206040518083038186803b158015610c9857600080fd5b505afa158015610cac573d6000803e3d6000fd5b505050506040513d6020811015610cc257600080fd5b8101908080519060200190929190505050905060008173ffffffffffffffffffffffffffffffffffffffff1663596abea58460000151336040518363ffffffff1660e01b8152600401808381526020018273ffffffffffffffffffffffffffffffffffffffff1673ffffffffffffffffffffffffffffffffffffffff16815260200192505050604080518083038186803b158015610d5f57600080fd5b505afa158015610d73573d6000803e3d6000fd5b505050506040513d6040811015610d8957600080fd5b8101908080519060200190929190805190602001909291905050505063ffffffff1690508261010001518167ffffffffffffffff161015610e15576040517f08c379a0000000000000000000000000000000000000000000000000000000008152600401808060200182810382526048815260200180612ccf6048913960600191505060405180910390fd5b50505b610e2188612476565b806040015173ffffffffffffffffffffffffffffffffffffffff1663a9059cbb3383606001516040518363ffffffff1660e01b8152600401808373ffffffffffffffffffffffffffffffffffffffff1673ffffffffffffffffffffffffffffffffffffffff16815260200182815260200192505050602060405180830381600087803b158015610eb057600080fd5b505af1158015610ec4573d6000803e3d6000fd5b505050506040513d6020811015610eda57600080fd5b8101908080519060200190929190505050610f5d576040517f08c379a00000000000000000000000000000000000000000000000000000000081526004018080602001828103825260188152602001807f5472616e73666572206e6f74207375636365737366756c2e000000000000000081525060200191505060405180910390fd5b806040015173ffffffffffffffffffffffffffffffffffffffff16816020015173ffffffffffffffffffffffffffffffffffffffff1682600001517fab4f92d461fdbd1af5db2375223d65edb43bcb99129b19ab4954004883e5202584606001518c604051808381526020018273ffffffffffffffffffffffffffffffffffffffff1673ffffffffffffffffffffffffffffffffffffffff1681526020019250505060405180910390a46001935050506000548114611084576040517f08c379a000000000000000000000000000000000000000000000000000000000815260040180806020018281038252600e8152602001807f7265656e7472616e742063616c6c00000000000000000000000000000000000081525060200191505060405180910390fd5b50949350505050565b60008060008060018060016002839350829250819150809050935093509350935090919293565b60606004600083815260200190815260200160002080548060200260200160405190810160405280929190818152602001828054801561114957602002820191906000526020600020905b8160009054906101000a900473ffffffffffffffffffffffffffffffffffffffff1673ffffffffffffffffffffffffffffffffffffffff16815260200190600101908083116110ff575b50505050509050919050565b60036020528060005260406000206000915090508060000154908060010160009054906101000a900473ffffffffffffffffffffffffffffffffffffffff16908060020160009054906101000a900473ffffffffffffffffffffffffffffffffffffffff16908060030154908060040154908060050154908060060154908060070154908060080154905089565b600060016000808282540192505081905550600080549050600073ffffffffffffffffffffffffffffffffffffffff168773ffffffffffffffffffffffffffffffffffffffff16141580156112385750600086115b80156112445750600085115b6112b6576040517f08c379a00000000000000000000000000000000000000000000000000000000081526004018080602001828103825260188152602001807f496e76616c6964207472616e7366657220696e707574732e000000000000000081525060200191505060405180910390fd5b6000602060ff16111580156112cc575060008314155b15611322576040517f08c379a0000000000000000000000000000000000000000000000000000000008152600401808060200182810382526043815260200180612c8c6043913960600191505060405180910390fd5b6000600260009054906101000a900473ffffffffffffffffffffffffffffffffffffffff1673ffffffffffffffffffffffffffffffffffffffff1663dd92723360405160200180807f4174746573746174696f6e730000000000000000000000000000000000000000815250600c019050604051602081830303815290604052805190602001206040518263ffffffff1660e01b81526004018082815260200191505060206040518083038186803b1580156113dd57600080fd5b505afa1580156113f1573d6000803e3d6000fd5b505050506040513d602081101561140757600080fd5b810190808051906020019092919050505090508073ffffffffffffffffffffffffffffffffffffffff16637796a6846040518163ffffffff1660e01b815260040160206040518083038186803b15801561146057600080fd5b505afa158015611474573d6000803e3d6000fd5b505050506040513d602081101561148a57600080fd5b81019080805190602001909291905050508411156114f3576040517f08c379a0000000000000000000000000000000000000000000000000000000008152600401808060200182810382526021815260200180612d446021913960400191505060405180910390fd5b60006115aa6001600560003373ffffffffffffffffffffffffffffffffffffffff1673ffffffffffffffffffffffffffffffffffffffff1681526020019081526020016000208890806001815401808255809150509060018203906000526020600020016000909192909190916101000a81548173ffffffffffffffffffffffffffffffffffffffff021916908373ffffffffffffffffffffffffffffffffffffffff16021790555061288f90919063ffffffff16565b905060006116376001600460008e81526020019081526020016000208990806001815401808255809150509060018203906000526020600020016000909192909190916101000a81548173ffffffffffffffffffffffffffffffffffffffff021916908373ffffffffffffffffffffffffffffffffffffffff16021790555061288f90919063ffffffff16565b90506000600360008973ffffffffffffffffffffffffffffffffffffffff1673ffffffffffffffffffffffffffffffffffffffff168152602001908152602001600020905060008160060154146116f6576040517f08c379a00000000000000000000000000000000000000000000000000000000081526004018080602001828103825260168152602001807f7061796d656e74496420616c726561647920757365640000000000000000000081525060200191505060405180910390fd5b8b8160000181905550338160010160006101000a81548173ffffffffffffffffffffffffffffffffffffffff021916908373ffffffffffffffffffffffffffffffffffffffff1602179055508a8160020160006101000a81548173ffffffffffffffffffffffffffffffffffffffff021916908373ffffffffffffffffffffffffffffffffffffffff1602179055508981600301819055508281600401819055508181600501819055504281600601819055508881600701819055508681600801819055508a73ffffffffffffffffffffffffffffffffffffffff166323b872dd33308d6040518463ffffffff1660e01b8152600401808473ffffffffffffffffffffffffffffffffffffffff1673ffffffffffffffffffffffffffffffffffffffff1681526020018373ffffffffffffffffffffffffffffffffffffffff1673ffffffffffffffffffffffffffffffffffffffff1681526020018281526020019350505050602060405180830381600087803b15801561187657600080fd5b505af115801561188a573d6000803e3d6000fd5b505050506040513d60208110156118a057600080fd5b8101908080519060200190929190505050611923576040517f08c379a00000000000000000000000000000000000000000000000000000000081526004018080602001828103825260168152602001807f5472616e7366657220756e7375636365737366756c2e0000000000000000000081525060200191505060405180910390fd5b8a73ffffffffffffffffffffffffffffffffffffffff168c3373ffffffffffffffffffffffffffffffffffffffff167f0fc2463e82c3b8a7868e75b68a76a144816d772687e5b09f45c02db37eedf4f68d8c8c604051808481526020018373ffffffffffffffffffffffffffffffffffffffff1673ffffffffffffffffffffffffffffffffffffffff168152602001828152602001935050505060405180910390a460019550505050506000548114611a44576040517f08c379a000000000000000000000000000000000000000000000000000000000815260040180806020018281038252600e8152602001807f7265656e7472616e742063616c6c00000000000000000000000000000000000081525060200191505060405180910390fd5b509695505050505050565b611a576120a5565b611ac9576040517f08c379a00000000000000000000000000000000000000000000000000000000081526004018080602001828103825260208152602001807f4f776e61626c653a2063616c6c6572206973206e6f7420746865206f776e657281525060200191505060405180910390fd5b600073ffffffffffffffffffffffffffffffffffffffff16600160009054906101000a900473ffffffffffffffffffffffffffffffffffffffff1673ffffffffffffffffffffffffffffffffffffffff167f8be0079c531659141344cd1fd0a4f28419497f9722a3daafe3b4186f6b6457e060405160405180910390a36000600160006101000a81548173ffffffffffffffffffffffffffffffffffffffff021916908373ffffffffffffffffffffffffffffffffffffffff160217905550565b600060016000808282540192505081905550600080549050611baa612b6f565b600360008573ffffffffffffffffffffffffffffffffffffffff1673ffffffffffffffffffffffffffffffffffffffff16815260200190815260200160002060405180610120016040529081600082015481526020016001820160009054906101000a900473ffffffffffffffffffffffffffffffffffffffff1673ffffffffffffffffffffffffffffffffffffffff1673ffffffffffffffffffffffffffffffffffffffff1681526020016002820160009054906101000a900473ffffffffffffffffffffffffffffffffffffffff1673ffffffffffffffffffffffffffffffffffffffff1673ffffffffffffffffffffffffffffffffffffffff168152602001600382015481526020016004820154815260200160058201548152602001600682015481526020016007820154815260200160088201548152505090503373ffffffffffffffffffffffffffffffffffffffff16816020015173ffffffffffffffffffffffffffffffffffffffff1614611d71576040517f08c379a0000000000000000000000000000000000000000000000000000000008152600401808060200182810382526035815260200180612d656035913960400191505060405180910390fd5b611d8c8160e001518260c001516128d990919063ffffffff16565b421015611de4576040517f08c379a000000000000000000000000000000000000000000000000000000000815260040180806020018281038252602a815260200180612c62602a913960400191505060405180910390fd5b611ded84612476565b806040015173ffffffffffffffffffffffffffffffffffffffff1663a9059cbb3383606001516040518363ffffffff1660e01b8152600401808373ffffffffffffffffffffffffffffffffffffffff1673ffffffffffffffffffffffffffffffffffffffff16815260200182815260200192505050602060405180830381600087803b158015611e7c57600080fd5b505af1158015611e90573d6000803e3d6000fd5b505050506040513d6020811015611ea657600080fd5b8101908080519060200190929190505050611f29576040517f08c379a00000000000000000000000000000000000000000000000000000000081526004018080602001828103825260188152602001807f5472616e73666572206e6f74207375636365737366756c2e000000000000000081525060200191505060405180910390fd5b806040015173ffffffffffffffffffffffffffffffffffffffff16816020015173ffffffffffffffffffffffffffffffffffffffff1682600001517f6c464fad8039e6f09ec3a57a29f132cf2573d166833256960e2407eefff8f592846060015188604051808381526020018273ffffffffffffffffffffffffffffffffffffffff1673ffffffffffffffffffffffffffffffffffffffff1681526020019250505060405180910390a46001925050600054811461204f576040517f08c379a000000000000000000000000000000000000000000000000000000000815260040180806020018281038252600e8152602001807f7265656e7472616e742063616c6c00000000000000000000000000000000000081525060200191505060405180910390fd5b50919050565b600260009054906101000a900473ffffffffffffffffffffffffffffffffffffffff1681565b6000600160009054906101000a900473ffffffffffffffffffffffffffffffffffffffff16905090565b6000600160009054906101000a900473ffffffffffffffffffffffffffffffffffffffff1673ffffffffffffffffffffffffffffffffffffffff166120e8612961565b73ffffffffffffffffffffffffffffffffffffffff1614905090565b6004602052816000526040600020818154811061211d57fe5b906000526020600020016000915091509054906101000a900473ffffffffffffffffffffffffffffffffffffffff1681565b6121576120a5565b6121c9576040517f08c379a00000000000000000000000000000000000000000000000000000000081526004018080602001828103825260208152602001807f4f776e61626c653a2063616c6c6572206973206e6f7420746865206f776e657281525060200191505060405180910390fd5b600073ffffffffffffffffffffffffffffffffffffffff168173ffffffffffffffffffffffffffffffffffffffff16141561226c576040517f08c379a00000000000000000000000000000000000000000000000000000000081526004018080602001828103825260208152602001807f43616e6e6f7420726567697374657220746865206e756c6c206164647265737381525060200191505060405180910390fd5b80600260006101000a81548173ffffffffffffffffffffffffffffffffffffffff021916908373ffffffffffffffffffffffffffffffffffffffff1602179055508073ffffffffffffffffffffffffffffffffffffffff167f27fe5f0c1c3b1ed427cc63d0f05759ffdecf9aec9e18d31ef366fc8a6cb5dc3b60405160405180910390a250565b600160149054906101000a900460ff1615612376576040517f08c379a000000000000000000000000000000000000000000000000000000000815260040180806020018281038252601c8152602001807f636f6e747261637420616c726561647920696e697469616c697a65640000000081525060200191505060405180910390fd5b60018060146101000a81548160ff02191690831515021790555061239933612969565b6123a28161214f565b50565b600560205281600052604060002081815481106123be57fe5b906000526020600020016000915091509054906101000a900473ffffffffffffffffffffffffffffffffffffffff1681565b6123f86120a5565b61246a576040517f08c379a00000000000000000000000000000000000000000000000000000000081526004018080602001828103825260208152602001807f4f776e61626c653a2063616c6c6572206973206e6f7420746865206f776e657281525060200191505060405180910390fd5b61247381612969565b50565b6000600360008373ffffffffffffffffffffffffffffffffffffffff1673ffffffffffffffffffffffffffffffffffffffff16815260200190815260200160002090506000600460008360000154815260200190815260200160002090506000600560008460010160009054906101000a900473ffffffffffffffffffffffffffffffffffffffff1673ffffffffffffffffffffffffffffffffffffffff1673ffffffffffffffffffffffffffffffffffffffff16815260200190815260200160002090508260050154600360008460018680549050038154811061255757fe5b9060005260206000200160009054906101000a900473ffffffffffffffffffffffffffffffffffffffff1673ffffffffffffffffffffffffffffffffffffffff1673ffffffffffffffffffffffffffffffffffffffff16815260200190815260200160002060050181905550816001838054905003815481106125d657fe5b9060005260206000200160009054906101000a900473ffffffffffffffffffffffffffffffffffffffff168284600501548154811061261157fe5b9060005260206000200160006101000a81548173ffffffffffffffffffffffffffffffffffffffff021916908373ffffffffffffffffffffffffffffffffffffffff1602179055506126716001838054905061288f90919063ffffffff16565b828161267d9190612bea565b508260040154600360008360018580549050038154811061269a57fe5b9060005260206000200160009054906101000a900473ffffffffffffffffffffffffffffffffffffffff1673ffffffffffffffffffffffffffffffffffffffff1673ffffffffffffffffffffffffffffffffffffffff168152602001908152602001600020600401819055508060018280549050038154811061271957fe5b9060005260206000200160009054906101000a900473ffffffffffffffffffffffffffffffffffffffff168184600401548154811061275457fe5b9060005260206000200160006101000a81548173ffffffffffffffffffffffffffffffffffffffff021916908373ffffffffffffffffffffffffffffffffffffffff1602179055506127b46001828054905061288f90919063ffffffff16565b81816127c09190612bea565b50600360008573ffffffffffffffffffffffffffffffffffffffff1673ffffffffffffffffffffffffffffffffffffffff1681526020019081526020016000206000808201600090556001820160006101000a81549073ffffffffffffffffffffffffffffffffffffffff02191690556002820160006101000a81549073ffffffffffffffffffffffffffffffffffffffff0219169055600382016000905560048201600090556005820160009055600682016000905560078201600090556008820160009055505050505050565b60006128d183836040518060400160405280601e81526020017f536166654d6174683a207375627472616374696f6e206f766572666c6f770000815250612aaf565b905092915050565b600080828401905083811015612957576040517f08c379a000000000000000000000000000000000000000000000000000000000815260040180806020018281038252601b8152602001807f536166654d6174683a206164646974696f6e206f766572666c6f77000000000081525060200191505060405180910390fd5b8091505092915050565b600033905090565b600073ffffffffffffffffffffffffffffffffffffffff168173ffffffffffffffffffffffffffffffffffffffff1614156129ef576040517f08c379a0000000000000000000000000000000000000000000000000000000008152600401808060200182810382526026815260200180612c3c6026913960400191505060405180910390fd5b8073ffffffffffffffffffffffffffffffffffffffff16600160009054906101000a900473ffffffffffffffffffffffffffffffffffffffff1673ffffffffffffffffffffffffffffffffffffffff167f8be0079c531659141344cd1fd0a4f28419497f9722a3daafe3b4186f6b6457e060405160405180910390a380600160006101000a81548173ffffffffffffffffffffffffffffffffffffffff021916908373ffffffffffffffffffffffffffffffffffffffff16021790555050565b6000838311158290612b5c576040517f08c379a00000000000000000000000000000000000000000000000000000000081526004018080602001828103825283818151815260200191508051906020019080838360005b83811015612b21578082015181840152602081019050612b06565b50505050905090810190601f168015612b4e5780820380516001836020036101000a031916815260200191505b509250505060405180910390fd5b5060008385039050809150509392505050565b60405180610120016040528060008019168152602001600073ffffffffffffffffffffffffffffffffffffffff168152602001600073ffffffffffffffffffffffffffffffffffffffff1681526020016000815260200160008152602001600081526020016000815260200160008152602001600081525090565b815481835581811115612c1157818360005260206000209182019101612c109190612c16565b5b505050565b612c3891905b80821115612c34576000816000905550600101612c1c565b5090565b9056fe4f776e61626c653a206e6577206f776e657220697320746865207a65726f20616464726573735472616e73616374696f6e206e6f742072656465656d61626c6520666f722073656e646572207965742e496e76616c6964207072697661637920696e707574733a2043616e27742072657175697265206174746573746174696f6e73206966206e6f206964656e74696669657254686973206163636f756e7420646f6573206e6f74206861766520656e6f756768206174746573746174696f6e7320746f2077697468647261772074686973207061796d656e742e4661696c656420746f2070726f7665206f776e657273686970206f6620746865207769746864726177206b65796d696e4174746573746174696f6e73206c6172676572207468616e206c696d69744f6e6c792073656e646572206f66207061796d656e742063616e20617474656d707420746f207265766f6b65207061796d656e742ea265627a7a723158209e9d98bf0016cbc7f2830dc082b87c9f5a67bbc54ae970e89b5a6303f85a8f0764736f6c634300050d0032",
  "source": "pragma solidity ^0.5.13;\n\nimport \"openzeppelin-solidity/contracts/math/SafeMath.sol\";\nimport \"openzeppelin-solidity/contracts/ownership/Ownable.sol\";\nimport \"openzeppelin-solidity/contracts/token/ERC20/ERC20.sol\";\n\nimport \"./interfaces/IAttestations.sol\";\nimport \"./interfaces/IEscrow.sol\";\nimport \"../common/Initializable.sol\";\nimport \"../common/interfaces/ICeloVersionedContract.sol\";\nimport \"../common/UsingRegistry.sol\";\nimport \"../common/Signatures.sol\";\nimport \"../common/libraries/ReentrancyGuard.sol\";\n\ncontract Escrow is\n  IEscrow,\n  ICeloVersionedContract,\n  ReentrancyGuard,\n  Ownable,\n  Initializable,\n  UsingRegistry\n{\n  using SafeMath for uint256;\n\n  event Transfer(\n    address indexed from,\n    bytes32 indexed identifier,\n    address indexed token,\n    uint256 value,\n    address paymentId,\n    uint256 minAttestations\n  );\n\n  event Withdrawal(\n    bytes32 indexed identifier,\n    address indexed to,\n    address indexed token,\n    uint256 value,\n    address paymentId\n  );\n\n  event Revocation(\n    bytes32 indexed identifier,\n    address indexed by,\n    address indexed token,\n    uint256 value,\n    address paymentId\n  );\n\n  struct EscrowedPayment {\n    bytes32 recipientIdentifier;\n    address sender;\n    address token;\n    uint256 value;\n    uint256 sentIndex; // Location of this payment in sender's list of sent payments.\n    uint256 receivedIndex; // Location of this payment in receivers's list of received payments.\n    uint256 timestamp;\n    uint256 expirySeconds;\n    uint256 minAttestations;\n  }\n\n  // Maps unique payment IDs to escrowed payments.\n  // These payment IDs are the temporary wallet addresses created with the escrowed payments.\n  mapping(address => EscrowedPayment) public escrowedPayments;\n\n  // Maps receivers' identifiers to a list of received escrowed payment IDs.\n  mapping(bytes32 => address[]) public receivedPaymentIds;\n\n  // Maps senders' addresses to a list of sent escrowed payment IDs.\n  mapping(address => address[]) public sentPaymentIds;\n\n  /**\n   * @notice Returns the storage, major, minor, and patch version of the contract.\n   * @return The storage, major, minor, and patch version of the contract.\n   */\n  function getVersionNumber() external pure returns (uint256, uint256, uint256, uint256) {\n    return (1, 1, 1, 2);\n  }\n\n  /**\n   * @notice Sets initialized == true on implementation contracts\n   * @param test Set to true to skip implementation initialization\n   */\n  constructor(bool test) public Initializable(test) {}\n\n  /**\n   * @notice Used in place of the constructor to allow the contract to be upgradable via proxy.\n   * @param registryAddress The address of the registry core smart contract.\n   */\n  function initialize(address registryAddress) external initializer {\n    _transferOwnership(msg.sender);\n    setRegistry(registryAddress);\n  }\n\n  /**\n  * @notice Transfer tokens to a specific user. Supports both identity with privacy (an empty\n  *         identifier and 0 minAttestations) and without (with identifier and minAttestations).\n  * @param identifier The hashed identifier of a user to transfer to.\n  * @param token The token to be transferred.\n  * @param value The amount to be transferred.\n  * @param expirySeconds The number of seconds before the sender can revoke the payment.\n  * @param paymentId The address of the temporary wallet associated with this payment. Users must\n  *        prove ownership of the corresponding private key to withdraw from escrow.\n  * @param minAttestations The min number of attestations required to withdraw the payment.\n  * @dev Throws if 'token' or 'value' is 0.\n  * @dev msg.sender needs to have already approved this contract to transfer\n  * @dev If no identifier is given, then minAttestations must be 0.\n  */\n  // solhint-disable-next-line no-simple-event-func-name\n  function transfer(\n    bytes32 identifier,\n    address token,\n    uint256 value,\n    uint256 expirySeconds,\n    address paymentId,\n    uint256 minAttestations\n  ) external nonReentrant returns (bool) {\n    require(token != address(0) && value > 0 && expirySeconds > 0, \"Invalid transfer inputs.\");\n    require(\n      !(identifier.length <= 0 && !(minAttestations == 0)),\n      \"Invalid privacy inputs: Can't require attestations if no identifier\"\n    );\n\n    IAttestations attestations = IAttestations(registry.getAddressFor(ATTESTATIONS_REGISTRY_ID));\n    require(\n      minAttestations <= attestations.getMaxAttestations(),\n      \"minAttestations larger than limit\"\n    );\n\n    uint256 sentIndex = sentPaymentIds[msg.sender].push(paymentId).sub(1);\n    uint256 receivedIndex = receivedPaymentIds[identifier].push(paymentId).sub(1);\n\n    EscrowedPayment storage newPayment = escrowedPayments[paymentId];\n    require(newPayment.timestamp == 0, \"paymentId already used\");\n    newPayment.recipientIdentifier = identifier;\n    newPayment.sender = msg.sender;\n    newPayment.token = token;\n    newPayment.value = value;\n    newPayment.sentIndex = sentIndex;\n    newPayment.receivedIndex = receivedIndex;\n    // solhint-disable-next-line not-rely-on-time\n    newPayment.timestamp = now;\n    newPayment.expirySeconds = expirySeconds;\n    newPayment.minAttestations = minAttestations;\n\n    require(ERC20(token).transferFrom(msg.sender, address(this), value), \"Transfer unsuccessful.\");\n    emit Transfer(msg.sender, identifier, token, value, paymentId, minAttestations);\n    return true;\n  }\n\n  /**\n  * @notice Withdraws tokens for a verified user.\n  * @param paymentId The ID for the EscrowedPayment struct that contains all relevant information.\n  * @param v The recovery id of the incoming ECDSA signature.\n  * @param r Output value r of the ECDSA signature.\n  * @param s Output value s of the ECDSA signature.\n  * @dev Throws if 'token' or 'value' is 0.\n  * @dev Throws if msg.sender does not prove ownership of the withdraw key.\n  */\n  function withdraw(address paymentId, uint8 v, bytes32 r, bytes32 s)\n    external\n    nonReentrant\n    returns (bool)\n  {\n    address signer = Signatures.getSignerOfAddress(msg.sender, v, r, s);\n    require(signer == paymentId, \"Failed to prove ownership of the withdraw key\");\n    EscrowedPayment memory payment = escrowedPayments[paymentId];\n    require(payment.token != address(0) && payment.value > 0, \"Invalid withdraw value.\");\n\n    if (payment.recipientIdentifier.length > 0) {\n      IAttestations attestations = IAttestations(registry.getAddressFor(ATTESTATIONS_REGISTRY_ID));\n      (uint64 completedAttestations, ) = attestations.getAttestationStats(\n        payment.recipientIdentifier,\n        msg.sender\n      );\n      require(\n        uint256(completedAttestations) >= payment.minAttestations,\n        \"This account does not have enough attestations to withdraw this payment.\"\n      );\n    }\n\n    deletePayment(paymentId);\n\n    require(ERC20(payment.token).transfer(msg.sender, payment.value), \"Transfer not successful.\");\n\n    emit Withdrawal(\n      payment.recipientIdentifier,\n      payment.sender,\n      payment.token,\n      payment.value,\n      paymentId\n    );\n\n    return true;\n  }\n\n  /**\n  * @notice Revokes tokens for a sender who is redeeming a payment after it has expired.\n  * @param paymentId The ID for the EscrowedPayment struct that contains all relevant information.\n  * @dev Throws if 'token' or 'value' is 0.\n  * @dev Throws if msg.sender is not the sender of payment.\n  * @dev Throws if redeem time hasn't been reached yet.\n  */\n  function revoke(address paymentId) external nonReentrant returns (bool) {\n    EscrowedPayment memory payment = escrowedPayments[paymentId];\n    require(payment.sender == msg.sender, \"Only sender of payment can attempt to revoke payment.\");\n    require(\n      // solhint-disable-next-line not-rely-on-time\n      now >= (payment.timestamp.add(payment.expirySeconds)),\n      \"Transaction not redeemable for sender yet.\"\n    );\n\n    deletePayment(paymentId);\n\n    require(ERC20(payment.token).transfer(msg.sender, payment.value), \"Transfer not successful.\");\n\n    emit Revocation(\n      payment.recipientIdentifier,\n      payment.sender,\n      payment.token,\n      payment.value,\n      paymentId\n    );\n\n    return true;\n\n  }\n\n  /**\n  * @notice Gets array of all Escrowed Payments received by identifier.\n  * @param identifier The hash of an identifier of the receiver of the escrowed payment.\n  * @return An array containing all the IDs of the Escrowed Payments that were received\n  * by the specified receiver.\n  */\n  function getReceivedPaymentIds(bytes32 identifier) external view returns (address[] memory) {\n    return receivedPaymentIds[identifier];\n  }\n\n  /**\n  * @notice Gets array of all Escrowed Payment IDs sent by sender.\n  * @param sender The address of the sender of the escrowed payments.\n  * @return An array containing all the IDs of the Escrowed Payments that were sent by the\n  * specified sender.\n  */\n  function getSentPaymentIds(address sender) external view returns (address[] memory) {\n    return sentPaymentIds[sender];\n  }\n\n  /**\n  * @notice Deletes the payment from its receiver's and sender's lists of payments,\n  * and zeroes out all the data in the struct.\n  * @param paymentId The ID of the payment to be deleted.\n  */\n  function deletePayment(address paymentId) private {\n    EscrowedPayment storage payment = escrowedPayments[paymentId];\n    address[] storage received = receivedPaymentIds[payment.recipientIdentifier];\n    address[] storage sent = sentPaymentIds[payment.sender];\n\n    escrowedPayments[received[received.length - 1]].receivedIndex = payment.receivedIndex;\n    received[payment.receivedIndex] = received[received.length - 1];\n    received.length = received.length.sub(1);\n\n    escrowedPayments[sent[sent.length - 1]].sentIndex = payment.sentIndex;\n    sent[payment.sentIndex] = sent[sent.length - 1];\n    sent.length = sent.length.sub(1);\n\n    delete escrowedPayments[paymentId];\n  }\n}\n",
  "sourcePath": "/Users/hiroki.yasui/go/src/github.com/celo-org/celo-monorepo/packages/protocol/contracts/identity/Escrow.sol",
  "compiler": {
    "name": "solc",
    "version": "0.5.13+commit.5b0b510c.Emscripten.clang"
  },
  "schemaVersion": "3.0.23",
  "updatedAt": "2022-05-06T03:53:13.007Z",
  "devdoc": {
    "methods": {
      "constructor": {
        "params": {
          "test": "Set to true to skip implementation initialization"
        }
      },
      "getReceivedPaymentIds(bytes32)": {
        "params": {
          "identifier": "The hash of an identifier of the receiver of the escrowed payment."
        },
        "return": "An array containing all the IDs of the Escrowed Payments that were received by the specified receiver."
      },
      "getSentPaymentIds(address)": {
        "params": {
          "sender": "The address of the sender of the escrowed payments."
        },
        "return": "An array containing all the IDs of the Escrowed Payments that were sent by the specified sender."
      },
      "getVersionNumber()": {
        "return": "The storage, major, minor, and patch version of the contract."
      },
      "initialize(address)": {
        "params": {
          "registryAddress": "The address of the registry core smart contract."
        }
      },
      "isOwner()": {
        "details": "Returns true if the caller is the current owner."
      },
      "owner()": {
        "details": "Returns the address of the current owner."
      },
      "renounceOwnership()": {
        "details": "Leaves the contract without owner. It will not be possible to call `onlyOwner` functions anymore. Can only be called by the current owner.     * NOTE: Renouncing ownership will leave the contract without an owner, thereby removing any functionality that is only available to the owner."
      },
      "revoke(address)": {
        "details": "Throws if 'token' or 'value' is 0.Throws if msg.sender is not the sender of payment.Throws if redeem time hasn't been reached yet.",
        "params": {
          "paymentId": "The ID for the EscrowedPayment struct that contains all relevant information."
        }
      },
      "setRegistry(address)": {
        "params": {
          "registryAddress": "The address of a registry contract for routing to other contracts."
        }
      },
      "transfer(bytes32,address,uint256,uint256,address,uint256)": {
        "details": "Throws if 'token' or 'value' is 0.msg.sender needs to have already approved this contract to transferIf no identifier is given, then minAttestations must be 0.",
        "params": {
          "expirySeconds": "The number of seconds before the sender can revoke the payment.",
          "identifier": "The hashed identifier of a user to transfer to.",
          "minAttestations": "The min number of attestations required to withdraw the payment.",
          "paymentId": "The address of the temporary wallet associated with this payment. Users must       prove ownership of the corresponding private key to withdraw from escrow.",
          "token": "The token to be transferred.",
          "value": "The amount to be transferred."
        }
      },
      "transferOwnership(address)": {
        "details": "Transfers ownership of the contract to a new account (`newOwner`). Can only be called by the current owner."
      },
      "withdraw(address,uint8,bytes32,bytes32)": {
        "details": "Throws if 'token' or 'value' is 0.Throws if msg.sender does not prove ownership of the withdraw key.",
        "params": {
          "paymentId": "The ID for the EscrowedPayment struct that contains all relevant information.",
          "r": "Output value r of the ECDSA signature.",
          "s": "Output value s of the ECDSA signature.",
          "v": "The recovery id of the incoming ECDSA signature."
        }
      }
    }
  },
  "userdoc": {
    "methods": {
      "constructor": "Sets initialized == true on implementation contracts",
      "getReceivedPaymentIds(bytes32)": {
        "notice": "Gets array of all Escrowed Payments received by identifier."
      },
      "getSentPaymentIds(address)": {
        "notice": "Gets array of all Escrowed Payment IDs sent by sender."
      },
      "getVersionNumber()": {
        "notice": "Returns the storage, major, minor, and patch version of the contract."
      },
      "initialize(address)": {
        "notice": "Used in place of the constructor to allow the contract to be upgradable via proxy."
      },
      "revoke(address)": {
        "notice": "Revokes tokens for a sender who is redeeming a payment after it has expired."
      },
      "setRegistry(address)": {
        "notice": "Updates the address pointing to a Registry contract."
      },
      "transfer(bytes32,address,uint256,uint256,address,uint256)": {
        "notice": "Transfer tokens to a specific user. Supports both identity with privacy (an empty        identifier and 0 minAttestations) and without (with identifier and minAttestations)."
      },
      "withdraw(address,uint8,bytes32,bytes32)": {
        "notice": "Withdraws tokens for a verified user."
      }
    }
  }
}