{
  "contractName": "Exchange",
  "abi": [
    {
      "inputs": [
        {
          "internalType": "bool",
          "name": "test",
          "type": "bool"
        }
      ],
      "payable": false,
      "stateMutability": "nonpayable",
      "type": "constructor"
    },
    {
      "anonymous": false,
      "inputs": [
        {
          "indexed": false,
          "internalType": "uint256",
          "name": "goldBucket",
          "type": "uint256"
        },
        {
          "indexed": false,
          "internalType": "uint256",
          "name": "stableBucket",
          "type": "uint256"
        }
      ],
      "name": "BucketsUpdated",
      "type": "event"
    },
    {
      "anonymous": false,
      "inputs": [
        {
          "indexed": true,
          "internalType": "address",
          "name": "exchanger",
          "type": "address"
        },
        {
          "indexed": false,
          "internalType": "uint256",
          "name": "sellAmount",
          "type": "uint256"
        },
        {
          "indexed": false,
          "internalType": "uint256",
          "name": "buyAmount",
          "type": "uint256"
        },
        {
          "indexed": false,
          "internalType": "bool",
          "name": "soldGold",
          "type": "bool"
        }
      ],
      "name": "Exchanged",
      "type": "event"
    },
    {
      "anonymous": false,
      "inputs": [
        {
          "indexed": false,
          "internalType": "uint256",
          "name": "minimumReports",
          "type": "uint256"
        }
      ],
      "name": "MinimumReportsSet",
      "type": "event"
    },
    {
      "anonymous": false,
      "inputs": [
        {
          "indexed": true,
          "internalType": "address",
          "name": "previousOwner",
          "type": "address"
        },
        {
          "indexed": true,
          "internalType": "address",
          "name": "newOwner",
          "type": "address"
        }
      ],
      "name": "OwnershipTransferred",
      "type": "event"
    },
    {
      "anonymous": false,
      "inputs": [
        {
          "indexed": true,
          "internalType": "address",
          "name": "registryAddress",
          "type": "address"
        }
      ],
      "name": "RegistrySet",
      "type": "event"
    },
    {
      "anonymous": false,
      "inputs": [
        {
          "indexed": false,
          "internalType": "uint256",
          "name": "reserveFraction",
          "type": "uint256"
        }
      ],
      "name": "ReserveFractionSet",
      "type": "event"
    },
    {
      "anonymous": false,
      "inputs": [
        {
          "indexed": false,
          "internalType": "uint256",
          "name": "spread",
          "type": "uint256"
        }
      ],
      "name": "SpreadSet",
      "type": "event"
    },
    {
      "anonymous": false,
      "inputs": [
        {
          "indexed": true,
          "internalType": "address",
          "name": "stable",
          "type": "address"
        }
      ],
      "name": "StableTokenSet",
      "type": "event"
    },
    {
      "anonymous": false,
      "inputs": [
        {
          "indexed": false,
          "internalType": "uint256",
          "name": "updateFrequency",
          "type": "uint256"
        }
      ],
      "name": "UpdateFrequencySet",
      "type": "event"
    },
    {
      "constant": true,
      "inputs": [],
      "name": "goldBucket",
      "outputs": [
        {
          "internalType": "uint256",
          "name": "",
          "type": "uint256"
        }
      ],
      "payable": false,
      "stateMutability": "view",
      "type": "function"
    },
    {
      "constant": true,
      "inputs": [],
      "name": "initialized",
      "outputs": [
        {
          "internalType": "bool",
          "name": "",
          "type": "bool"
        }
      ],
      "payable": false,
      "stateMutability": "view",
      "type": "function"
    },
    {
      "constant": true,
      "inputs": [],
      "name": "isOwner",
      "outputs": [
        {
          "internalType": "bool",
          "name": "",
          "type": "bool"
        }
      ],
      "payable": false,
      "stateMutability": "view",
      "type": "function"
    },
    {
      "constant": true,
      "inputs": [],
      "name": "lastBucketUpdate",
      "outputs": [
        {
          "internalType": "uint256",
          "name": "",
          "type": "uint256"
        }
      ],
      "payable": false,
      "stateMutability": "view",
      "type": "function"
    },
    {
      "constant": true,
      "inputs": [],
      "name": "minimumReports",
      "outputs": [
        {
          "internalType": "uint256",
          "name": "",
          "type": "uint256"
        }
      ],
      "payable": false,
      "stateMutability": "view",
      "type": "function"
    },
    {
      "constant": true,
      "inputs": [],
      "name": "owner",
      "outputs": [
        {
          "internalType": "address",
          "name": "",
          "type": "address"
        }
      ],
      "payable": false,
      "stateMutability": "view",
      "type": "function"
    },
    {
      "constant": true,
      "inputs": [],
      "name": "registry",
      "outputs": [
        {
          "internalType": "contract IRegistry",
          "name": "",
          "type": "address"
        }
      ],
      "payable": false,
      "stateMutability": "view",
      "type": "function"
    },
    {
      "constant": false,
      "inputs": [],
      "name": "renounceOwnership",
      "outputs": [],
      "payable": false,
      "stateMutability": "nonpayable",
      "type": "function"
    },
    {
      "constant": true,
      "inputs": [],
      "name": "reserveFraction",
      "outputs": [
        {
          "internalType": "uint256",
          "name": "value",
          "type": "uint256"
        }
      ],
      "payable": false,
      "stateMutability": "view",
      "type": "function"
    },
    {
      "constant": false,
      "inputs": [
        {
          "internalType": "address",
          "name": "registryAddress",
          "type": "address"
        }
      ],
      "name": "setRegistry",
      "outputs": [],
      "payable": false,
      "stateMutability": "nonpayable",
      "type": "function"
    },
    {
      "constant": true,
      "inputs": [],
      "name": "spread",
      "outputs": [
        {
          "internalType": "uint256",
          "name": "value",
          "type": "uint256"
        }
      ],
      "payable": false,
      "stateMutability": "view",
      "type": "function"
    },
    {
      "constant": true,
      "inputs": [],
      "name": "stable",
      "outputs": [
        {
          "internalType": "address",
          "name": "",
          "type": "address"
        }
      ],
      "payable": false,
      "stateMutability": "view",
      "type": "function"
    },
    {
      "constant": true,
      "inputs": [],
      "name": "stableBucket",
      "outputs": [
        {
          "internalType": "uint256",
          "name": "",
          "type": "uint256"
        }
      ],
      "payable": false,
      "stateMutability": "view",
      "type": "function"
    },
    {
      "constant": true,
      "inputs": [],
      "name": "stableTokenRegistryId",
      "outputs": [
        {
          "internalType": "bytes32",
          "name": "",
          "type": "bytes32"
        }
      ],
      "payable": false,
      "stateMutability": "view",
      "type": "function"
    },
    {
      "constant": false,
      "inputs": [
        {
          "internalType": "address",
          "name": "newOwner",
          "type": "address"
        }
      ],
      "name": "transferOwnership",
      "outputs": [],
      "payable": false,
      "stateMutability": "nonpayable",
      "type": "function"
    },
    {
      "constant": true,
      "inputs": [],
      "name": "updateFrequency",
      "outputs": [
        {
          "internalType": "uint256",
          "name": "",
          "type": "uint256"
        }
      ],
      "payable": false,
      "stateMutability": "view",
      "type": "function"
    },
    {
      "constant": true,
      "inputs": [],
      "name": "getVersionNumber",
      "outputs": [
        {
          "internalType": "uint256",
          "name": "",
          "type": "uint256"
        },
        {
          "internalType": "uint256",
          "name": "",
          "type": "uint256"
        },
        {
          "internalType": "uint256",
          "name": "",
          "type": "uint256"
        },
        {
          "internalType": "uint256",
          "name": "",
          "type": "uint256"
        }
      ],
      "payable": false,
      "stateMutability": "pure",
      "type": "function"
    },
    {
      "constant": false,
      "inputs": [
        {
          "internalType": "address",
          "name": "registryAddress",
          "type": "address"
        },
        {
          "internalType": "string",
          "name": "stableTokenIdentifier",
          "type": "string"
        },
        {
          "internalType": "uint256",
          "name": "_spread",
          "type": "uint256"
        },
        {
          "internalType": "uint256",
          "name": "_reserveFraction",
          "type": "uint256"
        },
        {
          "internalType": "uint256",
          "name": "_updateFrequency",
          "type": "uint256"
        },
        {
          "internalType": "uint256",
          "name": "_minimumReports",
          "type": "uint256"
        }
      ],
      "name": "initialize",
      "outputs": [],
      "payable": false,
      "stateMutability": "nonpayable",
      "type": "function"
    },
    {
      "constant": false,
      "inputs": [],
      "name": "activateStable",
      "outputs": [],
      "payable": false,
      "stateMutability": "nonpayable",
      "type": "function"
    },
    {
      "constant": false,
      "inputs": [
        {
          "internalType": "uint256",
          "name": "sellAmount",
          "type": "uint256"
        },
        {
          "internalType": "uint256",
          "name": "minBuyAmount",
          "type": "uint256"
        },
        {
          "internalType": "bool",
          "name": "sellGold",
          "type": "bool"
        }
      ],
      "name": "sell",
      "outputs": [
        {
          "internalType": "uint256",
          "name": "",
          "type": "uint256"
        }
      ],
      "payable": false,
      "stateMutability": "nonpayable",
      "type": "function"
    },
    {
      "constant": false,
      "inputs": [
        {
          "internalType": "uint256",
          "name": "sellAmount",
          "type": "uint256"
        },
        {
          "internalType": "uint256",
          "name": "minBuyAmount",
          "type": "uint256"
        },
        {
          "internalType": "bool",
          "name": "sellGold",
          "type": "bool"
        }
      ],
      "name": "exchange",
      "outputs": [
        {
          "internalType": "uint256",
          "name": "",
          "type": "uint256"
        }
      ],
      "payable": false,
      "stateMutability": "nonpayable",
      "type": "function"
    },
    {
      "constant": false,
      "inputs": [
        {
          "internalType": "uint256",
          "name": "buyAmount",
          "type": "uint256"
        },
        {
          "internalType": "uint256",
          "name": "maxSellAmount",
          "type": "uint256"
        },
        {
          "internalType": "bool",
          "name": "buyGold",
          "type": "bool"
        }
      ],
      "name": "buy",
      "outputs": [
        {
          "internalType": "uint256",
          "name": "",
          "type": "uint256"
        }
      ],
      "payable": false,
      "stateMutability": "nonpayable",
      "type": "function"
    },
    {
      "constant": true,
      "inputs": [
        {
          "internalType": "uint256",
          "name": "sellAmount",
          "type": "uint256"
        },
        {
          "internalType": "bool",
          "name": "sellGold",
          "type": "bool"
        }
      ],
      "name": "getBuyTokenAmount",
      "outputs": [
        {
          "internalType": "uint256",
          "name": "",
          "type": "uint256"
        }
      ],
      "payable": false,
      "stateMutability": "view",
      "type": "function"
    },
    {
      "constant": true,
      "inputs": [
        {
          "internalType": "uint256",
          "name": "buyAmount",
          "type": "uint256"
        },
        {
          "internalType": "bool",
          "name": "sellGold",
          "type": "bool"
        }
      ],
      "name": "getSellTokenAmount",
      "outputs": [
        {
          "internalType": "uint256",
          "name": "",
          "type": "uint256"
        }
      ],
      "payable": false,
      "stateMutability": "view",
      "type": "function"
    },
    {
      "constant": true,
      "inputs": [
        {
          "internalType": "bool",
          "name": "sellGold",
          "type": "bool"
        }
      ],
      "name": "getBuyAndSellBuckets",
      "outputs": [
        {
          "internalType": "uint256",
          "name": "",
          "type": "uint256"
        },
        {
          "internalType": "uint256",
          "name": "",
          "type": "uint256"
        }
      ],
      "payable": false,
      "stateMutability": "view",
      "type": "function"
    },
    {
      "constant": false,
      "inputs": [
        {
          "internalType": "uint256",
          "name": "newUpdateFrequency",
          "type": "uint256"
        }
      ],
      "name": "setUpdateFrequency",
      "outputs": [],
      "payable": false,
      "stateMutability": "nonpayable",
      "type": "function"
    },
    {
      "constant": false,
      "inputs": [
        {
          "internalType": "uint256",
          "name": "newMininumReports",
          "type": "uint256"
        }
      ],
      "name": "setMinimumReports",
      "outputs": [],
      "payable": false,
      "stateMutability": "nonpayable",
      "type": "function"
    },
    {
      "constant": false,
      "inputs": [
        {
          "internalType": "address",
          "name": "newStableToken",
          "type": "address"
        }
      ],
      "name": "setStableToken",
      "outputs": [],
      "payable": false,
      "stateMutability": "nonpayable",
      "type": "function"
    },
    {
      "constant": false,
      "inputs": [
        {
          "internalType": "uint256",
          "name": "newSpread",
          "type": "uint256"
        }
      ],
      "name": "setSpread",
      "outputs": [],
      "payable": false,
      "stateMutability": "nonpayable",
      "type": "function"
    },
    {
      "constant": false,
      "inputs": [
        {
          "internalType": "uint256",
          "name": "newReserveFraction",
          "type": "uint256"
        }
      ],
      "name": "setReserveFraction",
      "outputs": [],
      "payable": false,
      "stateMutability": "nonpayable",
      "type": "function"
    }
  ],
  "bytecode": "0x608060405260006008553480156200001657600080fd5b5060405162003e6f38038062003e6f833981810160405260208110156200003c57600080fd5b810190808051906020019092919050505080806200006f5760016000806101000a81548160ff0219169083151502179055505b506000620000826200013060201b60201c565b905080600060016101000a81548173ffffffffffffffffffffffffffffffffffffffff021916908373ffffffffffffffffffffffffffffffffffffffff1602179055508073ffffffffffffffffffffffffffffffffffffffff16600073ffffffffffffffffffffffffffffffffffffffff167f8be0079c531659141344cd1fd0a4f28419497f9722a3daafe3b4186f6b6457e060405160405180910390a35060016002819055505062000138565b600033905090565b613d2780620001486000396000f3fe608060405234801561001057600080fd5b50600436106101da5760003560e01c806381bb18ec11610104578063c3434883116100a2578063db1bc87b11610071578063db1bc87b146107a8578063dda57b93146107ec578063e0c8b50a1461080a578063f2fde38b14610828576101da565b8063c343488314610657578063cf317778146106af578063d1a2bc1114610770578063d404f7f81461077a576101da565b80638f32d59b116100de5780638f32d59b146105755780639ed02b5814610597578063a91ee0dc146105e5578063b66a261c14610629576101da565b806381bb18ec146104b55780638ab1a5d4146104d35780638da5cb5b1461052b576101da565b806354255be01161017c5780636a5eaf471161014b5780636a5eaf47146103e8578063715018a61461041657806378ba9cfd146104205780637b1039991461046b576101da565b806354255be01461035b5780635c25c76c1461038e57806362f09084146103ac578063673ea086146103ca576101da565b806325ac2de6116101b857806325ac2de6146102695780632bc7d67a146102875780634a1be6cb146102df5780634c0226a21461030d576101da565b8063158ef93e146101df57806322503ce51461020157806322be3de11461021f575b600080fd5b6101e761086c565b604051808215151515815260200191505060405180910390f35b61020961087e565b6040518082815260200191505060405180910390f35b610227610884565b604051808273ffffffffffffffffffffffffffffffffffffffff1673ffffffffffffffffffffffffffffffffffffffff16815260200191505060405180910390f35b6102716108aa565b6040518082815260200191505060405180910390f35b6102c96004803603606081101561029d57600080fd5b8101908080359060200190929190803590602001909291908035151590602001909291905050506108b0565b6040518082815260200191505060405180910390f35b61030b600480360360208110156102f557600080fd5b81019080803590602001909291905050506108c6565b005b6103456004803603604081101561032357600080fd5b8101908080359060200190929190803515159060200190929190505050610981565b6040518082815260200191505060405180910390f35b6103636109a8565b6040518085815260200184815260200183815260200182815260200194505050505060405180910390f35b6103966109cf565b6040518082815260200191505060405180910390f35b6103b46109db565b6040518082815260200191505060405180910390f35b6103d26109e1565b6040518082815260200191505060405180910390f35b610414600480360360208110156103fe57600080fd5b81019080803590602001909291905050506109e7565b005b61041e610b38565b005b61044e6004803603602081101561043657600080fd5b81019080803515159060200190929190505050610c72565b604051808381526020018281526020019250505060405180910390f35b610473610cc2565b604051808273ffffffffffffffffffffffffffffffffffffffff1673ffffffffffffffffffffffffffffffffffffffff16815260200191505060405180910390f35b6104bd610ce8565b6040518082815260200191505060405180910390f35b610515600480360360608110156104e957600080fd5b810190808035906020019092919080359060200190929190803515159060200190929190505050610cee565b6040518082815260200191505060405180910390f35b610533610f2d565b604051808273ffffffffffffffffffffffffffffffffffffffff1673ffffffffffffffffffffffffffffffffffffffff16815260200191505060405180910390f35b61057d610f56565b604051808215151515815260200191505060405180910390f35b6105cf600480360360408110156105ad57600080fd5b8101908080359060200190929190803515159060200190929190505050610fb4565b6040518082815260200191505060405180910390f35b610627600480360360208110156105fb57600080fd5b81019080803573ffffffffffffffffffffffffffffffffffffffff169060200190929190505050610fdb565b005b6106556004803603602081101561063f57600080fd5b810190808035906020019092919050505061117f565b005b6106996004803603606081101561066d57600080fd5b8101908080359060200190929190803590602001909291908035151590602001909291905050506112c7565b6040518082815260200191505060405180910390f35b61076e600480360360c08110156106c557600080fd5b81019080803573ffffffffffffffffffffffffffffffffffffffff1690602001909291908035906020019064010000000081111561070257600080fd5b82018360208201111561071457600080fd5b8035906020019184600183028401116401000000008311171561073657600080fd5b90919293919293908035906020019092919080359060200190929190803590602001909291908035906020019092919050505061150d565b005b61077861161e565b005b6107a66004803603602081101561079057600080fd5b8101908080359060200190929190505050611801565b005b6107ea600480360360208110156107be57600080fd5b81019080803573ffffffffffffffffffffffffffffffffffffffff1690602001909291905050506118bc565b005b6107f4611942565b6040518082815260200191505060405180910390f35b61081261194e565b6040518082815260200191505060405180910390f35b61086a6004803603602081101561083e57600080fd5b81019080803573ffffffffffffffffffffffffffffffffffffffff169060200190929190505050611954565b005b6000809054906101000a900460ff1681565b600a5481565b600560009054906101000a900473ffffffffffffffffffffffffffffffffffffffff1681565b60075481565b60006108bd848484610cee565b90509392505050565b6108ce610f56565b610940576040517f08c379a00000000000000000000000000000000000000000000000000000000081526004018080602001828103825260208152602001807f4f776e61626c653a2063616c6c6572206973206e6f7420746865206f776e657281525060200191505060405180910390fd5b806009819055507f90c0a4a142fbfbc2ae8c21f50729a2f4bc56e85a66c1a1b6654f1e85092a54a6816040518082815260200191505060405180910390a150565b600080600061098f84610c72565b9150915061099e8282876119da565b9250505092915050565b60008060008060016002600080839350829250819150809050935093509350935090919293565b60038060000154905081565b60065481565b60095481565b6109ef610f56565b610a61576040517f08c379a00000000000000000000000000000000000000000000000000000000081526004018080602001828103825260208152602001807f4f776e61626c653a2063616c6c6572206973206e6f7420746865206f776e657281525060200191505060405180910390fd5b610a6a81611aa7565b600460008201518160000155905050610aa9610a84611ac5565b6004604051806020016040529081600082015481525050611aeb90919063ffffffff16565b610afe576040517f08c379a0000000000000000000000000000000000000000000000000000000008152600401808060200182810382526027815260200180613ccc6027913960400191505060405180910390fd5b7fb690f84efb1d9039c2834effb7bebc792a85bfec7ef84f4b269528454f363ccf816040518082815260200191505060405180910390a150565b610b40610f56565b610bb2576040517f08c379a00000000000000000000000000000000000000000000000000000000081526004018080602001828103825260208152602001807f4f776e61626c653a2063616c6c6572206973206e6f7420746865206f776e657281525060200191505060405180910390fd5b600073ffffffffffffffffffffffffffffffffffffffff16600060019054906101000a900473ffffffffffffffffffffffffffffffffffffffff1673ffffffffffffffffffffffffffffffffffffffff167f8be0079c531659141344cd1fd0a4f28419497f9722a3daafe3b4186f6b6457e060405160405180910390a360008060016101000a81548173ffffffffffffffffffffffffffffffffffffffff021916908373ffffffffffffffffffffffffffffffffffffffff160217905550565b6000806000600654905060006007549050610c8b611b00565b15610ca157610c98611efd565b80925081935050505b8415610cb4578082935093505050610cbd565b81819350935050505b915091565b600160009054906101000a900473ffffffffffffffffffffffffffffffffffffffff1681565b600b5481565b6000610cf8611f56565b73ffffffffffffffffffffffffffffffffffffffff1663e5839836306040518263ffffffff1660e01b8152600401808273ffffffffffffffffffffffffffffffffffffffff1673ffffffffffffffffffffffffffffffffffffffff16815260200191505060206040518083038186803b158015610d7457600080fd5b505afa158015610d88573d6000803e3d6000fd5b505050506040513d6020811015610d9e57600080fd5b810190808051906020019092919050505015610e05576040517f08c379a0000000000000000000000000000000000000000000000000000000008152600401808060200182810382526022815260200180613bb26022913960400191505060405180910390fd5b610e0d612051565b600160026000828254019250508190555060006002549050600080610e31856120c7565b915091506000610e4283838a6120ef565b905086811015610e9d576040517f08c379a0000000000000000000000000000000000000000000000000000000008152600401808060200182810382526039815260200180613b796039913960400191505060405180910390fd5b610ea888828861218f565b8094505050506002548114610f25576040517f08c379a000000000000000000000000000000000000000000000000000000000815260040180806020018281038252600e8152602001807f7265656e7472616e742063616c6c00000000000000000000000000000000000081525060200191505060405180910390fd5b509392505050565b60008060019054906101000a900473ffffffffffffffffffffffffffffffffffffffff16905090565b60008060019054906101000a900473ffffffffffffffffffffffffffffffffffffffff1673ffffffffffffffffffffffffffffffffffffffff16610f9861299b565b73ffffffffffffffffffffffffffffffffffffffff1614905090565b6000806000610fc284610c72565b91509150610fd18282876120ef565b9250505092915050565b610fe3610f56565b611055576040517f08c379a00000000000000000000000000000000000000000000000000000000081526004018080602001828103825260208152602001807f4f776e61626c653a2063616c6c6572206973206e6f7420746865206f776e657281525060200191505060405180910390fd5b600073ffffffffffffffffffffffffffffffffffffffff168173ffffffffffffffffffffffffffffffffffffffff1614156110f8576040517f08c379a00000000000000000000000000000000000000000000000000000000081526004018080602001828103825260208152602001807f43616e6e6f7420726567697374657220746865206e756c6c206164647265737381525060200191505060405180910390fd5b80600160006101000a81548173ffffffffffffffffffffffffffffffffffffffff021916908373ffffffffffffffffffffffffffffffffffffffff1602179055508073ffffffffffffffffffffffffffffffffffffffff167f27fe5f0c1c3b1ed427cc63d0f05759ffdecf9aec9e18d31ef366fc8a6cb5dc3b60405160405180910390a250565b611187610f56565b6111f9576040517f08c379a00000000000000000000000000000000000000000000000000000000081526004018080602001828103825260208152602001807f4f776e61626c653a2063616c6c6572206973206e6f7420746865206f776e657281525060200191505060405180910390fd5b61120281611aa7565b6003600082015181600001559050506112386003604051806020016040529081600082015481525050611233611ac5565b6129a3565b61128d576040517f08c379a0000000000000000000000000000000000000000000000000000000008152600401808060200182810382526033815260200180613c996033913960400191505060405180910390fd5b7f8946f328efcc515b5cc3282f6cd95e87a6c0d3508421af0b52d4d3620b3e2db3816040518082815260200191505060405180910390a150565b60006112d1611f56565b73ffffffffffffffffffffffffffffffffffffffff1663e5839836306040518263ffffffff1660e01b8152600401808273ffffffffffffffffffffffffffffffffffffffff1673ffffffffffffffffffffffffffffffffffffffff16815260200191505060206040518083038186803b15801561134d57600080fd5b505afa158015611361573d6000803e3d6000fd5b505050506040513d602081101561137757600080fd5b8101908080519060200190929190505050156113de576040517f08c379a0000000000000000000000000000000000000000000000000000000008152600401808060200182810382526022815260200180613bb26022913960400191505060405180910390fd5b6113e6612051565b600160026000828254019250508190555060006002549050600083159050600080611410836120c7565b91509150600061142183838b6119da565b90508781111561147c576040517f08c379a000000000000000000000000000000000000000000000000000000000815260040180806020018281038252603e815260200180613c0a603e913960400191505060405180910390fd5b611487818a8661218f565b809550505050506002548114611505576040517f08c379a000000000000000000000000000000000000000000000000000000000815260040180806020018281038252600e8152602001807f7265656e7472616e742063616c6c00000000000000000000000000000000000081525060200191505060405180910390fd5b509392505050565b6000809054906101000a900460ff161561158f576040517f08c379a000000000000000000000000000000000000000000000000000000000815260040180806020018281038252601c8152602001807f636f6e747261637420616c726561647920696e697469616c697a65640000000081525060200191505060405180910390fd5b60016000806101000a81548160ff0219169083151502179055506115b2336129b9565b6115bb87610fdb565b858560405160200180838380828437808301925050509250505060405160208183030381529060405280519060200120600b819055506115fa8461117f565b611603836109e7565b61160c826108c6565b61161581611801565b50505050505050565b611626610f56565b611698576040517f08c379a00000000000000000000000000000000000000000000000000000000081526004018080602001828103825260208152602001807f4f776e61626c653a2063616c6c6572206973206e6f7420746865206f776e657281525060200191505060405180910390fd5b600073ffffffffffffffffffffffffffffffffffffffff16600560009054906101000a900473ffffffffffffffffffffffffffffffffffffffff1673ffffffffffffffffffffffffffffffffffffffff161461173f576040517f08c379a0000000000000000000000000000000000000000000000000000000008152600401808060200182810382526025815260200180613b546025913960400191505060405180910390fd5b6117f7600160009054906101000a900473ffffffffffffffffffffffffffffffffffffffff1673ffffffffffffffffffffffffffffffffffffffff1663dcf0aaed600b546040518263ffffffff1660e01b81526004018082815260200191505060206040518083038186803b1580156117b757600080fd5b505afa1580156117cb573d6000803e3d6000fd5b505050506040513d60208110156117e157600080fd5b8101908080519060200190929190505050612aff565b6117ff612051565b565b611809610f56565b61187b576040517f08c379a00000000000000000000000000000000000000000000000000000000081526004018080602001828103825260208152602001807f4f776e61626c653a2063616c6c6572206973206e6f7420746865206f776e657281525060200191505060405180910390fd5b80600a819055507f08523596abc266fb46d9c40ddf78fdfd3c08142252833ddce1a2b46f76521035816040518082815260200191505060405180910390a150565b6118c4610f56565b611936576040517f08c379a00000000000000000000000000000000000000000000000000000000081526004018080602001828103825260208152602001807f4f776e61626c653a2063616c6c6572206973206e6f7420746865206f776e657281525060200191505060405180910390fd5b61193f81612aff565b50565b60048060000154905081565b60085481565b61195c610f56565b6119ce576040517f08c379a00000000000000000000000000000000000000000000000000000000081526004018080602001828103825260208152602001807f4f776e61626c653a2063616c6c6572206973206e6f7420746865206f776e657281525060200191505060405180910390fd5b6119d7816129b9565b50565b6000808214156119ed5760009050611aa0565b6119f5613b1a565b611a10611a0b8585612b8690919063ffffffff16565b612c0c565b9050611a1a613b1a565b611a76611a4d6003604051806020016040529081600082015481525050611a3f611ac5565b612c9690919063ffffffff16565b611a68611a63878a612d3d90919063ffffffff16565b612c0c565b612d8790919063ffffffff16565b9050611a9b611a84826131e6565b611a8d846131e6565b6131f490919063ffffffff16565b925050505b9392505050565b611aaf613b1a565b6040518060200160405280838152509050919050565b611acd613b1a565b604051806020016040528069d3c21bcecceda1000000815250905090565b60008160000151836000015110905092915050565b600080600160009054906101000a900473ffffffffffffffffffffffffffffffffffffffff1673ffffffffffffffffffffffffffffffffffffffff1663dcf0aaed60405160200180807f536f727465644f7261636c657300000000000000000000000000000000000000815250600d019050604051602081830303815290604052805190602001206040518263ffffffff1660e01b81526004018082815260200191505060206040518083038186803b158015611bbc57600080fd5b505afa158015611bd0573d6000803e3d6000fd5b505050506040513d6020811015611be657600080fd5b8101908080519060200190929190505050905060008173ffffffffffffffffffffffffffffffffffffffff1663ffe736bf600560009054906101000a900473ffffffffffffffffffffffffffffffffffffffff166040518263ffffffff1660e01b8152600401808273ffffffffffffffffffffffffffffffffffffffff1673ffffffffffffffffffffffffffffffffffffffff168152602001915050604080518083038186803b158015611c9957600080fd5b505afa158015611cad573d6000803e3d6000fd5b505050506040513d6040811015611cc357600080fd5b8101908080519060200190929190805190602001909291905050505090506000611cfa60095460085461323e90919063ffffffff16565b42101590506000600a548473ffffffffffffffffffffffffffffffffffffffff1663bbc66a94600560009054906101000a900473ffffffffffffffffffffffffffffffffffffffff166040518263ffffffff1660e01b8152600401808273ffffffffffffffffffffffffffffffffffffffff1673ffffffffffffffffffffffffffffffffffffffff16815260200191505060206040518083038186803b158015611da357600080fd5b505afa158015611db7573d6000803e3d6000fd5b505050506040513d6020811015611dcd57600080fd5b8101908080519060200190929190505050101590506000611df960095442612d3d90919063ffffffff16565b8573ffffffffffffffffffffffffffffffffffffffff1663071b48fc600560009054906101000a900473ffffffffffffffffffffffffffffffffffffffff166040518263ffffffff1660e01b8152600401808273ffffffffffffffffffffffffffffffffffffffff1673ffffffffffffffffffffffffffffffffffffffff16815260200191505060206040518083038186803b158015611e9857600080fd5b505afa158015611eac573d6000803e3d6000fd5b505050506040513d6020811015611ec257600080fd5b8101908080519060200190929190505050119050828015611ee05750815b8015611ee95750805b8015611ef3575083155b9550505050505090565b6000806000611f0a6132c6565b9050600080611f17613392565b80925081935050506000611f4682611f388686612b8690919063ffffffff16565b6131f490919063ffffffff16565b9050838195509550505050509091565b6000600160009054906101000a900473ffffffffffffffffffffffffffffffffffffffff1673ffffffffffffffffffffffffffffffffffffffff1663dcf0aaed60405160200180807f467265657a6572000000000000000000000000000000000000000000000000008152506007019050604051602081830303815290604052805190602001206040518263ffffffff1660e01b81526004018082815260200191505060206040518083038186803b15801561201157600080fd5b505afa158015612025573d6000803e3d6000fd5b505050506040513d602081101561203b57600080fd5b8101908080519060200190929190505050905090565b612059611b00565b156120c5574260088190555061206d611efd565b60066000600760008491905055839190505550507fa18ec663cb684011386aa866c4dacb32d2d2ad859a35d3440b6ce7200a76bad8600654600754604051808381526020018281526020019250505060405180910390a15b565b60008082156120df57600754600654915091506120ea565b600654600754915091505b915091565b6000808214156121025760009050612188565b61210a613b1a565b612113836135db565b905061211d613b1a565b61213861212987612c0c565b83612d8790919063ffffffff16565b9050612142613b1a565b61215d8361214f88612c0c565b61363490919063ffffffff16565b905061218261216b826131e6565b612174846131e6565b6131f490919063ffffffff16565b93505050505b9392505050565b6000600160009054906101000a900473ffffffffffffffffffffffffffffffffffffffff1673ffffffffffffffffffffffffffffffffffffffff1663dcf0aaed60405160200180807f52657365727665000000000000000000000000000000000000000000000000008152506007019050604051602081830303815290604052805190602001206040518263ffffffff1660e01b81526004018082815260200191505060206040518083038186803b15801561224a57600080fd5b505afa15801561225e573d6000803e3d6000fd5b505050506040513d602081101561227457600080fd5b81019080805190602001909291905050509050811561258d576122a28460065461323e90919063ffffffff16565b6006819055506122bd83600754612d3d90919063ffffffff16565b6007819055506122cb6136dd565b73ffffffffffffffffffffffffffffffffffffffff166323b872dd3383876040518463ffffffff1660e01b8152600401808473ffffffffffffffffffffffffffffffffffffffff1673ffffffffffffffffffffffffffffffffffffffff1681526020018373ffffffffffffffffffffffffffffffffffffffff1673ffffffffffffffffffffffffffffffffffffffff1681526020018281526020019350505050602060405180830381600087803b15801561238557600080fd5b505af1158015612399573d6000803e3d6000fd5b505050506040513d60208110156123af57600080fd5b8101908080519060200190929190505050612432576040517f08c379a000000000000000000000000000000000000000000000000000000000815260040180806020018281038252601d8152602001807f5472616e73666572206f662073656c6c20746f6b656e206661696c656400000081525060200191505060405180910390fd5b600560009054906101000a900473ffffffffffffffffffffffffffffffffffffffff1673ffffffffffffffffffffffffffffffffffffffff166340c10f1933856040518363ffffffff1660e01b8152600401808373ffffffffffffffffffffffffffffffffffffffff1673ffffffffffffffffffffffffffffffffffffffff16815260200182815260200192505050602060405180830381600087803b1580156124db57600080fd5b505af11580156124ef573d6000803e3d6000fd5b505050506040513d602081101561250557600080fd5b8101908080519060200190929190505050612588576040517f08c379a000000000000000000000000000000000000000000000000000000000815260040180806020018281038252601b8152602001807f4d696e74206f6620737461626c6520746f6b656e206661696c6564000000000081525060200191505060405180910390fd5b612933565b6125a28460075461323e90919063ffffffff16565b6007819055506125bd83600654612d3d90919063ffffffff16565b600681905550600560009054906101000a900473ffffffffffffffffffffffffffffffffffffffff1673ffffffffffffffffffffffffffffffffffffffff166323b872dd3330876040518463ffffffff1660e01b8152600401808473ffffffffffffffffffffffffffffffffffffffff1673ffffffffffffffffffffffffffffffffffffffff1681526020018373ffffffffffffffffffffffffffffffffffffffff1673ffffffffffffffffffffffffffffffffffffffff1681526020018281526020019350505050602060405180830381600087803b1580156126a057600080fd5b505af11580156126b4573d6000803e3d6000fd5b505050506040513d60208110156126ca57600080fd5b810190808051906020019092919050505061274d576040517f08c379a000000000000000000000000000000000000000000000000000000000815260040180806020018281038252601d8152602001807f5472616e73666572206f662073656c6c20746f6b656e206661696c656400000081525060200191505060405180910390fd5b600560009054906101000a900473ffffffffffffffffffffffffffffffffffffffff1673ffffffffffffffffffffffffffffffffffffffff166342966c68856040518263ffffffff1660e01b815260040180828152602001915050602060405180830381600087803b1580156127c257600080fd5b505af11580156127d6573d6000803e3d6000fd5b505050506040513d60208110156127ec57600080fd5b8101908080519060200190929190505050508073ffffffffffffffffffffffffffffffffffffffff166303a0fea333856040518363ffffffff1660e01b8152600401808373ffffffffffffffffffffffffffffffffffffffff1673ffffffffffffffffffffffffffffffffffffffff16815260200182815260200192505050602060405180830381600087803b15801561288557600080fd5b505af1158015612899573d6000803e3d6000fd5b505050506040513d60208110156128af57600080fd5b8101908080519060200190929190505050612932576040517f08c379a000000000000000000000000000000000000000000000000000000000815260040180806020018281038252601b8152602001807f5472616e73666572206f6620627579546f6b656e206661696c6564000000000081525060200191505060405180910390fd5b5b3373ffffffffffffffffffffffffffffffffffffffff167f402ac9185b4616422c2794bf5b118bfcc68ed496d52c0d9841dfa114fdeb05ba8585856040518084815260200183815260200182151515158152602001935050505060405180910390a250505050565b600033905090565b6000816000015183600001511115905092915050565b600073ffffffffffffffffffffffffffffffffffffffff168173ffffffffffffffffffffffffffffffffffffffff161415612a3f576040517f08c379a0000000000000000000000000000000000000000000000000000000008152600401808060200182810382526026815260200180613b2e6026913960400191505060405180910390fd5b8073ffffffffffffffffffffffffffffffffffffffff16600060019054906101000a900473ffffffffffffffffffffffffffffffffffffffff1673ffffffffffffffffffffffffffffffffffffffff167f8be0079c531659141344cd1fd0a4f28419497f9722a3daafe3b4186f6b6457e060405160405180910390a380600060016101000a81548173ffffffffffffffffffffffffffffffffffffffff021916908373ffffffffffffffffffffffffffffffffffffffff16021790555050565b80600560006101000a81548173ffffffffffffffffffffffffffffffffffffffff021916908373ffffffffffffffffffffffffffffffffffffffff1602179055508073ffffffffffffffffffffffffffffffffffffffff167f119a23392e161a0bc5f9d5f3e2a6040c45b40d43a36973e10ea1de916f3d8a8a60405160405180910390a250565b600080831415612b995760009050612c06565b6000828402905082848281612baa57fe5b0414612c01576040517f08c379a0000000000000000000000000000000000000000000000000000000008152600401808060200182810382526021815260200180613c786021913960400191505060405180910390fd5b809150505b92915050565b612c14613b1a565b612c1c6137d8565b821115612c74576040517f08c379a0000000000000000000000000000000000000000000000000000000008152600401808060200182810382526036815260200180613bd46036913960400191505060405180910390fd5b604051806020016040528069d3c21bcecceda100000084028152509050919050565b612c9e613b1a565b816000015183600001511015612d1c576040517f08c379a000000000000000000000000000000000000000000000000000000000815260040180806020018281038252601f8152602001807f737562737472616374696f6e20756e646572666c6f772064657465637465640081525060200191505060405180910390fd5b60405180602001604052808360000151856000015103815250905092915050565b6000612d7f83836040518060400160405280601e81526020017f536166654d6174683a207375627472616374696f6e206f766572666c6f7700008152506137f7565b905092915050565b612d8f613b1a565b600083600001511480612da6575060008260000151145b15612dc2576040518060200160405280600081525090506131e0565b69d3c21bcecceda100000082600001511415612de0578290506131e0565b69d3c21bcecceda100000083600001511415612dfe578190506131e0565b600069d3c21bcecceda1000000612e14856138b7565b6000015181612e1f57fe5b0490506000612e2d856138ee565b600001519050600069d3c21bcecceda1000000612e49866138b7565b6000015181612e5457fe5b0490506000612e62866138ee565b6000015190506000828502905060008514612ef65782858281612e8157fe5b0414612ef5576040517f08c379a00000000000000000000000000000000000000000000000000000000081526004018080602001828103825260168152602001807f6f766572666c6f7720783179312064657465637465640000000000000000000081525060200191505060405180910390fd5b5b600069d3c21bcecceda10000008202905060008214612f985769d3c21bcecceda1000000828281612f2357fe5b0414612f97576040517f08c379a000000000000000000000000000000000000000000000000000000000815260040180806020018281038252601f8152602001807f6f766572666c6f772078317931202a206669786564312064657465637465640081525060200191505060405180910390fd5b5b80915060008486029050600086146130295784868281612fb457fe5b0414613028576040517f08c379a00000000000000000000000000000000000000000000000000000000081526004018080602001828103825260168152602001807f6f766572666c6f7720783279312064657465637465640000000000000000000081525060200191505060405180910390fd5b5b60008488029050600088146130b7578488828161304257fe5b04146130b6576040517f08c379a00000000000000000000000000000000000000000000000000000000081526004018080602001828103825260168152602001807f6f766572666c6f7720783179322064657465637465640000000000000000000081525060200191505060405180910390fd5b5b6130bf61392b565b87816130c757fe5b0496506130d261392b565b85816130da57fe5b049450600085880290506000881461316b57858882816130f657fe5b041461316a576040517f08c379a00000000000000000000000000000000000000000000000000000000081526004018080602001828103825260168152602001807f6f766572666c6f7720783279322064657465637465640000000000000000000081525060200191505060405180910390fd5b5b613173613b1a565b604051806020016040528087815250905061319c81604051806020016040528087815250613634565b90506131b681604051806020016040528086815250613634565b90506131d081604051806020016040528085815250613634565b9050809a50505050505050505050505b92915050565b600081600001519050919050565b600061323683836040518060400160405280601a81526020017f536166654d6174683a206469766973696f6e206279207a65726f000000000000815250613938565b905092915050565b6000808284019050838110156132bc576040517f08c379a000000000000000000000000000000000000000000000000000000000815260040180806020018281038252601b8152602001807f536166654d6174683a206164646974696f6e206f766572666c6f77000000000081525060200191505060405180910390fd5b8091505092915050565b6000806132d16139fe565b73ffffffffffffffffffffffffffffffffffffffff16638b7df8d46040518163ffffffff1660e01b815260040160206040518083038186803b15801561331657600080fd5b505afa15801561332a573d6000803e3d6000fd5b505050506040513d602081101561334057600080fd5b8101908080519060200190929190505050905061338c61338761336283612c0c565b6004604051806020016040529081600082015481525050612d8790919063ffffffff16565b613af9565b91505090565b600080600080600160009054906101000a900473ffffffffffffffffffffffffffffffffffffffff1673ffffffffffffffffffffffffffffffffffffffff1663dcf0aaed60405160200180807f536f727465644f7261636c657300000000000000000000000000000000000000815250600d019050604051602081830303815290604052805190602001206040518263ffffffff1660e01b81526004018082815260200191505060206040518083038186803b15801561345157600080fd5b505afa158015613465573d6000803e3d6000fd5b505050506040513d602081101561347b57600080fd5b810190808051906020019092919050505073ffffffffffffffffffffffffffffffffffffffff1663ef90e1b0600560009054906101000a900473ffffffffffffffffffffffffffffffffffffffff166040518263ffffffff1660e01b8152600401808273ffffffffffffffffffffffffffffffffffffffff1673ffffffffffffffffffffffffffffffffffffffff168152602001915050604080518083038186803b15801561352957600080fd5b505afa15801561353d573d6000803e3d6000fd5b505050506040513d604081101561355357600080fd5b8101908080519060200190929190805190602001909291905050508092508193505050600081116135cf576040517f08c379a0000000000000000000000000000000000000000000000000000000008152600401808060200182810382526030815260200180613c486030913960400191505060405180910390fd5b81819350935050509091565b6135e3613b1a565b61362d6135ef83612c0c565b61361f6003604051806020016040529081600082015481525050613611611ac5565b612c9690919063ffffffff16565b612d8790919063ffffffff16565b9050919050565b61363c613b1a565b60008260000151846000015101905083600001518110156136c5576040517f08c379a00000000000000000000000000000000000000000000000000000000081526004018080602001828103825260158152602001807f616464206f766572666c6f77206465746563746564000000000000000000000081525060200191505060405180910390fd5b60405180602001604052808281525091505092915050565b6000600160009054906101000a900473ffffffffffffffffffffffffffffffffffffffff1673ffffffffffffffffffffffffffffffffffffffff1663dcf0aaed60405160200180807f476f6c64546f6b656e00000000000000000000000000000000000000000000008152506009019050604051602081830303815290604052805190602001206040518263ffffffff1660e01b81526004018082815260200191505060206040518083038186803b15801561379857600080fd5b505afa1580156137ac573d6000803e3d6000fd5b505050506040513d60208110156137c257600080fd5b8101908080519060200190929190505050905090565b60007601357c299a88ea76a58924d52ce4f26a85af186c2b9e74905090565b60008383111582906138a4576040517f08c379a00000000000000000000000000000000000000000000000000000000081526004018080602001828103825283818151815260200191508051906020019080838360005b8381101561386957808201518184015260208101905061384e565b50505050905090810190601f1680156138965780820380516001836020036101000a031916815260200191505b509250505060405180910390fd5b5060008385039050809150509392505050565b6138bf613b1a565b604051806020016040528069d3c21bcecceda1000000808560000151816138e257fe5b04028152509050919050565b6138f6613b1a565b604051806020016040528069d3c21bcecceda10000008085600001518161391957fe5b04028460000151038152509050919050565b600064e8d4a51000905090565b600080831182906139e4576040517f08c379a00000000000000000000000000000000000000000000000000000000081526004018080602001828103825283818151815260200191508051906020019080838360005b838110156139a957808201518184015260208101905061398e565b50505050905090810190601f1680156139d65780820380516001836020036101000a031916815260200191505b509250505060405180910390fd5b5060008385816139f057fe5b049050809150509392505050565b6000600160009054906101000a900473ffffffffffffffffffffffffffffffffffffffff1673ffffffffffffffffffffffffffffffffffffffff1663dcf0aaed60405160200180807f52657365727665000000000000000000000000000000000000000000000000008152506007019050604051602081830303815290604052805190602001206040518263ffffffff1660e01b81526004018082815260200191505060206040518083038186803b158015613ab957600080fd5b505afa158015613acd573d6000803e3d6000fd5b505050506040513d6020811015613ae357600080fd5b8101908080519060200190929190505050905090565b600069d3c21bcecceda1000000826000015181613b1257fe5b049050919050565b604051806020016040528060008152509056fe4f776e61626c653a206e6577206f776e657220697320746865207a65726f2061646472657373537461626c65546f6b656e206164647265737320616c72656164792061637469766174656443616c63756c6174656420627579416d6f756e7420776173206c657373207468616e20737065636966696564206d696e427579416d6f756e7463616e27742063616c6c207768656e20636f6e74726163742069732066726f7a656e63616e277420637265617465206669786964697479206e756d626572206c6172676572207468616e206d61784e65774669786564282943616c63756c617465642073656c6c416d6f756e74207761732067726561746572207468616e20737065636966696564206d617853656c6c416d6f756e7465786368616e676520726174652064656e6f6d696e61746f72206d7573742062652067726561746572207468616e2030536166654d6174683a206d756c7469706c69636174696f6e206f766572666c6f777468652076616c7565206f6620737072656164206d757374206265206c657373207468616e206f7220657175616c20746f203172657365727665206672616374696f6e206d75737420626520736d616c6c6572207468616e2031a265627a7a72315820927826d8153eeed341e96d181507b34aadcbf143410e79c700c83a6c561794a064736f6c634300050d0032",
  "source": "pragma solidity ^0.5.13;\n\nimport \"openzeppelin-solidity/contracts/math/SafeMath.sol\";\nimport \"openzeppelin-solidity/contracts/ownership/Ownable.sol\";\nimport \"./interfaces/IExchange.sol\";\nimport \"./interfaces/ISortedOracles.sol\";\nimport \"./interfaces/IReserve.sol\";\nimport \"./interfaces/IStableToken.sol\";\nimport \"../common/Initializable.sol\";\nimport \"../common/FixidityLib.sol\";\nimport \"../common/Freezable.sol\";\nimport \"../common/UsingRegistry.sol\";\nimport \"../common/interfaces/ICeloVersionedContract.sol\";\nimport \"../common/libraries/ReentrancyGuard.sol\";\n\n/**\n * @title Contract that allows to exchange StableToken for GoldToken and vice versa\n * using a Constant Product Market Maker Model\n */\ncontract Exchange is\n  IExchange,\n  ICeloVersionedContract,\n  Initializable,\n  Ownable,\n  UsingRegistry,\n  ReentrancyGuard,\n  Freezable\n{\n  using SafeMath for uint256;\n  using FixidityLib for FixidityLib.Fraction;\n\n  event Exchanged(address indexed exchanger, uint256 sellAmount, uint256 buyAmount, bool soldGold);\n  event UpdateFrequencySet(uint256 updateFrequency);\n  event MinimumReportsSet(uint256 minimumReports);\n  event StableTokenSet(address indexed stable);\n  event SpreadSet(uint256 spread);\n  event ReserveFractionSet(uint256 reserveFraction);\n  event BucketsUpdated(uint256 goldBucket, uint256 stableBucket);\n\n  FixidityLib.Fraction public spread;\n\n  // Fraction of the Reserve that is committed to the gold bucket when updating\n  // buckets.\n  FixidityLib.Fraction public reserveFraction;\n\n  address public stable;\n\n  // Size of the Uniswap gold bucket\n  uint256 public goldBucket;\n  // Size of the Uniswap stable token bucket\n  uint256 public stableBucket;\n\n  uint256 public lastBucketUpdate = 0;\n  uint256 public updateFrequency;\n  uint256 public minimumReports;\n\n  bytes32 public stableTokenRegistryId;\n\n  modifier updateBucketsIfNecessary() {\n    _updateBucketsIfNecessary();\n    _;\n  }\n\n  /**\n   * @notice Returns the storage, major, minor, and patch version of the contract.\n   * @return The storage, major, minor, and patch version of the contract.\n   */\n  function getVersionNumber() external pure returns (uint256, uint256, uint256, uint256) {\n    return (1, 2, 0, 0);\n  }\n\n  /**\n   * @notice Sets initialized == true on implementation contracts\n   * @param test Set to true to skip implementation initialization\n   */\n  constructor(bool test) public Initializable(test) {}\n\n  /**\n   * @notice Used in place of the constructor to allow the contract to be upgradable via proxy.\n   * @param registryAddress The address of the registry core smart contract.\n   * @param _spread Spread charged on exchanges\n   * @param _reserveFraction Fraction to commit to the gold bucket\n   * @param _updateFrequency The time period that needs to elapse between bucket\n   * updates\n   * @param _minimumReports The minimum number of fresh reports that need to be\n   * present in the oracle to update buckets\n   * commit to the gold bucket\n   * @param stableTokenIdentifier String identifier of stabletoken in registry\n   */\n  function initialize(\n    address registryAddress,\n    string calldata stableTokenIdentifier,\n    uint256 _spread,\n    uint256 _reserveFraction,\n    uint256 _updateFrequency,\n    uint256 _minimumReports\n  ) external initializer {\n    _transferOwnership(msg.sender);\n    setRegistry(registryAddress);\n    stableTokenRegistryId = keccak256(abi.encodePacked(stableTokenIdentifier));\n    setSpread(_spread);\n    setReserveFraction(_reserveFraction);\n    setUpdateFrequency(_updateFrequency);\n    setMinimumReports(_minimumReports);\n  }\n\n  /**\n   * @notice Ensures stable token address is set in storage and initializes buckets.\n   * @dev Will revert if stable token is not registered or does not have oracle reports.\n   */\n  function activateStable() external onlyOwner {\n    require(stable == address(0), \"StableToken address already activated\");\n    _setStableToken(registry.getAddressForOrDie(stableTokenRegistryId));\n    _updateBucketsIfNecessary();\n  }\n\n  /**\n   * @notice Exchanges a specific amount of one token for an unspecified amount\n   * (greater than a threshold) of another.\n   * @param sellAmount The number of tokens to send to the exchange.\n   * @param minBuyAmount The minimum number of tokens for the exchange to send in return.\n   * @param sellGold True if the caller is sending CELO to the exchange, false otherwise.\n   * @return The number of tokens sent by the exchange.\n   * @dev The caller must first have approved `sellAmount` to the exchange.\n   * @dev This function can be frozen via the Freezable interface.\n   */\n  function sell(uint256 sellAmount, uint256 minBuyAmount, bool sellGold)\n    public\n    onlyWhenNotFrozen\n    updateBucketsIfNecessary\n    nonReentrant\n    returns (uint256)\n  {\n    (uint256 buyTokenBucket, uint256 sellTokenBucket) = _getBuyAndSellBuckets(sellGold);\n    uint256 buyAmount = _getBuyTokenAmount(buyTokenBucket, sellTokenBucket, sellAmount);\n\n    require(buyAmount >= minBuyAmount, \"Calculated buyAmount was less than specified minBuyAmount\");\n\n    _exchange(sellAmount, buyAmount, sellGold);\n    return buyAmount;\n  }\n\n  /**\n   * @dev DEPRECATED - Use `buy` or `sell`.\n   * @notice Exchanges a specific amount of one token for an unspecified amount\n   * (greater than a threshold) of another.\n   * @param sellAmount The number of tokens to send to the exchange.\n   * @param minBuyAmount The minimum number of tokens for the exchange to send in return.\n   * @param sellGold True if the caller is sending CELO to the exchange, false otherwise.\n   * @return The number of tokens sent by the exchange.\n   * @dev The caller must first have approved `sellAmount` to the exchange.\n   * @dev This function can be frozen via the Freezable interface.\n   */\n  function exchange(uint256 sellAmount, uint256 minBuyAmount, bool sellGold)\n    external\n    returns (uint256)\n  {\n    return sell(sellAmount, minBuyAmount, sellGold);\n  }\n\n  /**\n   * @notice Exchanges an unspecified amount (up to a threshold) of one token for\n   * a specific amount of another.\n   * @param buyAmount The number of tokens for the exchange to send in return.\n   * @param maxSellAmount The maximum number of tokens to send to the exchange.\n   * @param buyGold True if the exchange is sending CELO to the caller, false otherwise.\n   * @return The number of tokens sent to the exchange.\n   * @dev The caller must first have approved `maxSellAmount` to the exchange.\n   * @dev This function can be frozen via the Freezable interface.\n   */\n  function buy(uint256 buyAmount, uint256 maxSellAmount, bool buyGold)\n    external\n    onlyWhenNotFrozen\n    updateBucketsIfNecessary\n    nonReentrant\n    returns (uint256)\n  {\n    bool sellGold = !buyGold;\n    (uint256 buyTokenBucket, uint256 sellTokenBucket) = _getBuyAndSellBuckets(sellGold);\n    uint256 sellAmount = _getSellTokenAmount(buyTokenBucket, sellTokenBucket, buyAmount);\n\n    require(\n      sellAmount <= maxSellAmount,\n      \"Calculated sellAmount was greater than specified maxSellAmount\"\n    );\n\n    _exchange(sellAmount, buyAmount, sellGold);\n    return sellAmount;\n  }\n\n  /**\n   * @notice Exchanges a specific amount of one token for a specific amount of another.\n   * @param sellAmount The number of tokens to send to the exchange.\n   * @param buyAmount The number of tokens for the exchange to send in return.\n   * @param sellGold True if the msg.sender is sending CELO to the exchange, false otherwise.\n   */\n  function _exchange(uint256 sellAmount, uint256 buyAmount, bool sellGold) private {\n    IReserve reserve = IReserve(registry.getAddressForOrDie(RESERVE_REGISTRY_ID));\n\n    if (sellGold) {\n      goldBucket = goldBucket.add(sellAmount);\n      stableBucket = stableBucket.sub(buyAmount);\n      require(\n        getGoldToken().transferFrom(msg.sender, address(reserve), sellAmount),\n        \"Transfer of sell token failed\"\n      );\n      require(IStableToken(stable).mint(msg.sender, buyAmount), \"Mint of stable token failed\");\n    } else {\n      stableBucket = stableBucket.add(sellAmount);\n      goldBucket = goldBucket.sub(buyAmount);\n      require(\n        IERC20(stable).transferFrom(msg.sender, address(this), sellAmount),\n        \"Transfer of sell token failed\"\n      );\n      IStableToken(stable).burn(sellAmount);\n\n      require(reserve.transferExchangeGold(msg.sender, buyAmount), \"Transfer of buyToken failed\");\n    }\n\n    emit Exchanged(msg.sender, sellAmount, buyAmount, sellGold);\n  }\n\n  /**\n   * @notice Returns the amount of buy tokens a user would get for sellAmount of the sell token.\n   * @param sellAmount The amount of sellToken the user is selling to the exchange.\n   * @param sellGold `true` if gold is the sell token.\n   * @return The corresponding buyToken amount.\n   */\n  function getBuyTokenAmount(uint256 sellAmount, bool sellGold) external view returns (uint256) {\n    (uint256 buyTokenBucket, uint256 sellTokenBucket) = getBuyAndSellBuckets(sellGold);\n    return _getBuyTokenAmount(buyTokenBucket, sellTokenBucket, sellAmount);\n  }\n\n  /**\n   * @notice Returns the amount of sell tokens a user would need to exchange to receive buyAmount of\n   * buy tokens.\n   * @param buyAmount The amount of buyToken the user would like to purchase.\n   * @param sellGold `true` if gold is the sell token.\n   * @return The corresponding sellToken amount.\n   */\n  function getSellTokenAmount(uint256 buyAmount, bool sellGold) external view returns (uint256) {\n    (uint256 buyTokenBucket, uint256 sellTokenBucket) = getBuyAndSellBuckets(sellGold);\n    return _getSellTokenAmount(buyTokenBucket, sellTokenBucket, buyAmount);\n  }\n\n  /**\n   * @notice Returns the buy token and sell token bucket sizes, in order. The ratio of\n   * the two also represents the exchange rate between the two.\n   * @param sellGold `true` if gold is the sell token.\n   * @return (buyTokenBucket, sellTokenBucket)\n   */\n  function getBuyAndSellBuckets(bool sellGold) public view returns (uint256, uint256) {\n    uint256 currentGoldBucket = goldBucket;\n    uint256 currentStableBucket = stableBucket;\n\n    if (shouldUpdateBuckets()) {\n      (currentGoldBucket, currentStableBucket) = getUpdatedBuckets();\n    }\n\n    if (sellGold) {\n      return (currentStableBucket, currentGoldBucket);\n    } else {\n      return (currentGoldBucket, currentStableBucket);\n    }\n  }\n\n  /**\n    * @notice Allows owner to set the update frequency\n    * @param newUpdateFrequency The new update frequency\n    */\n  function setUpdateFrequency(uint256 newUpdateFrequency) public onlyOwner {\n    updateFrequency = newUpdateFrequency;\n    emit UpdateFrequencySet(newUpdateFrequency);\n  }\n\n  /**\n    * @notice Allows owner to set the minimum number of reports required\n    * @param newMininumReports The new update minimum number of reports required\n    */\n  function setMinimumReports(uint256 newMininumReports) public onlyOwner {\n    minimumReports = newMininumReports;\n    emit MinimumReportsSet(newMininumReports);\n  }\n\n  /**\n    * @notice Allows owner to set the Stable Token address\n    * @param newStableToken The new address for Stable Token\n    */\n  function setStableToken(address newStableToken) public onlyOwner {\n    _setStableToken(newStableToken);\n  }\n\n  /**\n    * @notice Allows owner to set the spread\n    * @param newSpread The new value for the spread\n    */\n  function setSpread(uint256 newSpread) public onlyOwner {\n    spread = FixidityLib.wrap(newSpread);\n    require(\n      FixidityLib.lte(spread, FixidityLib.fixed1()),\n      \"the value of spread must be less than or equal to 1\"\n    );\n    emit SpreadSet(newSpread);\n  }\n\n  /**\n    * @notice Allows owner to set the Reserve Fraction\n    * @param newReserveFraction The new value for the reserve fraction\n    */\n  function setReserveFraction(uint256 newReserveFraction) public onlyOwner {\n    reserveFraction = FixidityLib.wrap(newReserveFraction);\n    require(reserveFraction.lt(FixidityLib.fixed1()), \"reserve fraction must be smaller than 1\");\n    emit ReserveFractionSet(newReserveFraction);\n  }\n\n  function _setStableToken(address newStableToken) internal {\n    stable = newStableToken;\n    emit StableTokenSet(newStableToken);\n  }\n\n  /**\n   * @notice Returns the buy token and sell token bucket sizes, in order. The ratio of\n   * the two also represents the exchange rate between the two.\n   * @param sellGold `true` if gold is the sell token.\n   * @return (buyTokenBucket, sellTokenBucket)\n   */\n  function _getBuyAndSellBuckets(bool sellGold) private view returns (uint256, uint256) {\n    if (sellGold) {\n      return (stableBucket, goldBucket);\n    } else {\n      return (goldBucket, stableBucket);\n    }\n  }\n\n  /**\n   * @dev Returns the amount of buy tokens a user would get for sellAmount of the sell.\n   * @param buyTokenBucket The buy token bucket size.\n   * @param sellTokenBucket The sell token bucket size.\n   * @param sellAmount The amount the user is selling to the exchange.\n   * @return The corresponding buy amount.\n   */\n  function _getBuyTokenAmount(uint256 buyTokenBucket, uint256 sellTokenBucket, uint256 sellAmount)\n    private\n    view\n    returns (uint256)\n  {\n    if (sellAmount == 0) return 0;\n\n    FixidityLib.Fraction memory reducedSellAmount = getReducedSellAmount(sellAmount);\n    FixidityLib.Fraction memory numerator = reducedSellAmount.multiply(\n      FixidityLib.newFixed(buyTokenBucket)\n    );\n    FixidityLib.Fraction memory denominator = FixidityLib.newFixed(sellTokenBucket).add(\n      reducedSellAmount\n    );\n\n    // Can't use FixidityLib.divide because denominator can easily be greater\n    // than maxFixedDivisor.\n    // Fortunately, we expect an integer result, so integer division gives us as\n    // much precision as we could hope for.\n    return numerator.unwrap().div(denominator.unwrap());\n  }\n\n  /**\n   * @notice Returns the amount of sell tokens a user would need to exchange to receive buyAmount of\n   * buy tokens.\n   * @param buyTokenBucket The buy token bucket size.\n   * @param sellTokenBucket The sell token bucket size.\n   * @param buyAmount The amount the user is buying from the exchange.\n   * @return The corresponding sell amount.\n   */\n  function _getSellTokenAmount(uint256 buyTokenBucket, uint256 sellTokenBucket, uint256 buyAmount)\n    private\n    view\n    returns (uint256)\n  {\n    if (buyAmount == 0) return 0;\n\n    FixidityLib.Fraction memory numerator = FixidityLib.newFixed(buyAmount.mul(sellTokenBucket));\n    FixidityLib.Fraction memory denominator = FixidityLib\n      .newFixed(buyTokenBucket.sub(buyAmount))\n      .multiply(FixidityLib.fixed1().subtract(spread));\n\n    // See comment in _getBuyTokenAmount\n    return numerator.unwrap().div(denominator.unwrap());\n  }\n\n  function getUpdatedBuckets() private view returns (uint256, uint256) {\n    uint256 updatedGoldBucket = getUpdatedGoldBucket();\n    uint256 exchangeRateNumerator;\n    uint256 exchangeRateDenominator;\n    (exchangeRateNumerator, exchangeRateDenominator) = getOracleExchangeRate();\n    uint256 updatedStableBucket = exchangeRateNumerator.mul(updatedGoldBucket).div(\n      exchangeRateDenominator\n    );\n    return (updatedGoldBucket, updatedStableBucket);\n  }\n\n  function getUpdatedGoldBucket() private view returns (uint256) {\n    uint256 reserveGoldBalance = getReserve().getUnfrozenReserveGoldBalance();\n    return reserveFraction.multiply(FixidityLib.newFixed(reserveGoldBalance)).fromFixed();\n  }\n\n  /**\n   * @notice If conditions are met, updates the Uniswap bucket sizes to track\n   * the price reported by the Oracle.\n   */\n  function _updateBucketsIfNecessary() private {\n    if (shouldUpdateBuckets()) {\n      // solhint-disable-next-line not-rely-on-time\n      lastBucketUpdate = now;\n\n      (goldBucket, stableBucket) = getUpdatedBuckets();\n      emit BucketsUpdated(goldBucket, stableBucket);\n    }\n  }\n\n  /**\n   * @notice Calculates the sell amount reduced by the spread.\n   * @param sellAmount The original sell amount.\n   * @return The reduced sell amount, computed as (1 - spread) * sellAmount\n   */\n  function getReducedSellAmount(uint256 sellAmount)\n    private\n    view\n    returns (FixidityLib.Fraction memory)\n  {\n    return FixidityLib.fixed1().subtract(spread).multiply(FixidityLib.newFixed(sellAmount));\n  }\n\n  /*\n   * @notice Checks conditions required for bucket updates.\n   * @return Whether or not buckets should be updated.\n   */\n  function shouldUpdateBuckets() private view returns (bool) {\n    ISortedOracles sortedOracles = ISortedOracles(\n      registry.getAddressForOrDie(SORTED_ORACLES_REGISTRY_ID)\n    );\n    (bool isReportExpired, ) = sortedOracles.isOldestReportExpired(stable);\n    // solhint-disable-next-line not-rely-on-time\n    bool timePassed = now >= lastBucketUpdate.add(updateFrequency);\n    bool enoughReports = sortedOracles.numRates(stable) >= minimumReports;\n    // solhint-disable-next-line not-rely-on-time\n    bool medianReportRecent = sortedOracles.medianTimestamp(stable) > now.sub(updateFrequency);\n    return timePassed && enoughReports && medianReportRecent && !isReportExpired;\n  }\n\n  function getOracleExchangeRate() private view returns (uint256, uint256) {\n    uint256 rateNumerator;\n    uint256 rateDenominator;\n    (rateNumerator, rateDenominator) = ISortedOracles(\n      registry.getAddressForOrDie(SORTED_ORACLES_REGISTRY_ID)\n    )\n      .medianRate(stable);\n    require(rateDenominator > 0, \"exchange rate denominator must be greater than 0\");\n    return (rateNumerator, rateDenominator);\n  }\n}\n",
  "sourcePath": "/Users/hiroki.yasui/go/src/github.com/celo-org/celo-monorepo/packages/protocol/contracts/stability/Exchange.sol",
  "compiler": {
    "name": "solc",
    "version": "0.5.13+commit.5b0b510c.Emscripten.clang"
  },
  "schemaVersion": "3.0.23",
  "updatedAt": "2022-05-06T03:53:13.047Z",
  "devdoc": {
    "methods": {
      "activateStable()": {
        "details": "Will revert if stable token is not registered or does not have oracle reports."
      },
      "buy(uint256,uint256,bool)": {
        "details": "The caller must first have approved `maxSellAmount` to the exchange.This function can be frozen via the Freezable interface.",
        "params": {
          "buyAmount": "The number of tokens for the exchange to send in return.",
          "buyGold": "True if the exchange is sending CELO to the caller, false otherwise.",
          "maxSellAmount": "The maximum number of tokens to send to the exchange."
        },
        "return": "The number of tokens sent to the exchange."
      },
      "constructor": {
        "params": {
          "test": "Set to true to skip implementation initialization"
        }
      },
      "exchange(uint256,uint256,bool)": {
        "details": "DEPRECATED - Use `buy` or `sell`.The caller must first have approved `sellAmount` to the exchange.This function can be frozen via the Freezable interface.",
        "params": {
          "minBuyAmount": "The minimum number of tokens for the exchange to send in return.",
          "sellAmount": "The number of tokens to send to the exchange.",
          "sellGold": "True if the caller is sending CELO to the exchange, false otherwise."
        },
        "return": "The number of tokens sent by the exchange."
      },
      "getBuyAndSellBuckets(bool)": {
        "params": {
          "sellGold": "`true` if gold is the sell token."
        },
        "return": "(buyTokenBucket, sellTokenBucket)"
      },
      "getBuyTokenAmount(uint256,bool)": {
        "params": {
          "sellAmount": "The amount of sellToken the user is selling to the exchange.",
          "sellGold": "`true` if gold is the sell token."
        },
        "return": "The corresponding buyToken amount."
      },
      "getSellTokenAmount(uint256,bool)": {
        "params": {
          "buyAmount": "The amount of buyToken the user would like to purchase.",
          "sellGold": "`true` if gold is the sell token."
        },
        "return": "The corresponding sellToken amount."
      },
      "getVersionNumber()": {
        "return": "The storage, major, minor, and patch version of the contract."
      },
      "initialize(address,string,uint256,uint256,uint256,uint256)": {
        "params": {
          "_minimumReports": "The minimum number of fresh reports that need to be present in the oracle to update buckets commit to the gold bucket",
          "_reserveFraction": "Fraction to commit to the gold bucket",
          "_spread": "Spread charged on exchanges",
          "_updateFrequency": "The time period that needs to elapse between bucket updates",
          "registryAddress": "The address of the registry core smart contract.",
          "stableTokenIdentifier": "String identifier of stabletoken in registry"
        }
      },
      "isOwner()": {
        "details": "Returns true if the caller is the current owner."
      },
      "owner()": {
        "details": "Returns the address of the current owner."
      },
      "renounceOwnership()": {
        "details": "Leaves the contract without owner. It will not be possible to call `onlyOwner` functions anymore. Can only be called by the current owner.     * NOTE: Renouncing ownership will leave the contract without an owner, thereby removing any functionality that is only available to the owner."
      },
      "sell(uint256,uint256,bool)": {
        "details": "The caller must first have approved `sellAmount` to the exchange.This function can be frozen via the Freezable interface.",
        "params": {
          "minBuyAmount": "The minimum number of tokens for the exchange to send in return.",
          "sellAmount": "The number of tokens to send to the exchange.",
          "sellGold": "True if the caller is sending CELO to the exchange, false otherwise."
        },
        "return": "The number of tokens sent by the exchange."
      },
      "setMinimumReports(uint256)": {
        "params": {
          "newMininumReports": "The new update minimum number of reports required"
        }
      },
      "setRegistry(address)": {
        "params": {
          "registryAddress": "The address of a registry contract for routing to other contracts."
        }
      },
      "setReserveFraction(uint256)": {
        "params": {
          "newReserveFraction": "The new value for the reserve fraction"
        }
      },
      "setSpread(uint256)": {
        "params": {
          "newSpread": "The new value for the spread"
        }
      },
      "setStableToken(address)": {
        "params": {
          "newStableToken": "The new address for Stable Token"
        }
      },
      "setUpdateFrequency(uint256)": {
        "params": {
          "newUpdateFrequency": "The new update frequency"
        }
      },
      "transferOwnership(address)": {
        "details": "Transfers ownership of the contract to a new account (`newOwner`). Can only be called by the current owner."
      }
    },
    "title": "Contract that allows to exchange StableToken for GoldToken and vice versa using a Constant Product Market Maker Model"
  },
  "userdoc": {
    "methods": {
      "activateStable()": {
        "notice": "Ensures stable token address is set in storage and initializes buckets."
      },
      "buy(uint256,uint256,bool)": {
        "notice": "Exchanges an unspecified amount (up to a threshold) of one token for a specific amount of another."
      },
      "constructor": "Sets initialized == true on implementation contracts",
      "exchange(uint256,uint256,bool)": {
        "notice": "Exchanges a specific amount of one token for an unspecified amount (greater than a threshold) of another."
      },
      "getBuyAndSellBuckets(bool)": {
        "notice": "Returns the buy token and sell token bucket sizes, in order. The ratio of the two also represents the exchange rate between the two."
      },
      "getBuyTokenAmount(uint256,bool)": {
        "notice": "Returns the amount of buy tokens a user would get for sellAmount of the sell token."
      },
      "getSellTokenAmount(uint256,bool)": {
        "notice": "Returns the amount of sell tokens a user would need to exchange to receive buyAmount of buy tokens."
      },
      "getVersionNumber()": {
        "notice": "Returns the storage, major, minor, and patch version of the contract."
      },
      "initialize(address,string,uint256,uint256,uint256,uint256)": {
        "notice": "Used in place of the constructor to allow the contract to be upgradable via proxy."
      },
      "sell(uint256,uint256,bool)": {
        "notice": "Exchanges a specific amount of one token for an unspecified amount (greater than a threshold) of another."
      },
      "setMinimumReports(uint256)": {
        "notice": "Allows owner to set the minimum number of reports required"
      },
      "setRegistry(address)": {
        "notice": "Updates the address pointing to a Registry contract."
      },
      "setReserveFraction(uint256)": {
        "notice": "Allows owner to set the Reserve Fraction"
      },
      "setSpread(uint256)": {
        "notice": "Allows owner to set the spread"
      },
      "setStableToken(address)": {
        "notice": "Allows owner to set the Stable Token address"
      },
      "setUpdateFrequency(uint256)": {
        "notice": "Allows owner to set the update frequency"
      }
    }
  }
}