{
  "contractName": "GasPriceMinimum",
  "abi": [
    {
      "inputs": [
        {
          "internalType": "bool",
          "name": "test",
          "type": "bool"
        }
      ],
      "payable": false,
      "stateMutability": "nonpayable",
      "type": "constructor"
    },
    {
      "anonymous": false,
      "inputs": [
        {
          "indexed": false,
          "internalType": "uint256",
          "name": "adjustmentSpeed",
          "type": "uint256"
        }
      ],
      "name": "AdjustmentSpeedSet",
      "type": "event"
    },
    {
      "anonymous": false,
      "inputs": [
        {
          "indexed": false,
          "internalType": "uint256",
          "name": "gasPriceMinimumFloor",
          "type": "uint256"
        }
      ],
      "name": "GasPriceMinimumFloorSet",
      "type": "event"
    },
    {
      "anonymous": false,
      "inputs": [
        {
          "indexed": false,
          "internalType": "uint256",
          "name": "gasPriceMinimum",
          "type": "uint256"
        }
      ],
      "name": "GasPriceMinimumUpdated",
      "type": "event"
    },
    {
      "anonymous": false,
      "inputs": [
        {
          "indexed": true,
          "internalType": "address",
          "name": "previousOwner",
          "type": "address"
        },
        {
          "indexed": true,
          "internalType": "address",
          "name": "newOwner",
          "type": "address"
        }
      ],
      "name": "OwnershipTransferred",
      "type": "event"
    },
    {
      "anonymous": false,
      "inputs": [
        {
          "indexed": true,
          "internalType": "address",
          "name": "registryAddress",
          "type": "address"
        }
      ],
      "name": "RegistrySet",
      "type": "event"
    },
    {
      "anonymous": false,
      "inputs": [
        {
          "indexed": false,
          "internalType": "uint256",
          "name": "targetDensity",
          "type": "uint256"
        }
      ],
      "name": "TargetDensitySet",
      "type": "event"
    },
    {
      "constant": true,
      "inputs": [],
      "name": "adjustmentSpeed",
      "outputs": [
        {
          "internalType": "uint256",
          "name": "value",
          "type": "uint256"
        }
      ],
      "payable": false,
      "stateMutability": "view",
      "type": "function"
    },
    {
      "constant": true,
      "inputs": [],
      "name": "gasPriceMinimum",
      "outputs": [
        {
          "internalType": "uint256",
          "name": "",
          "type": "uint256"
        }
      ],
      "payable": false,
      "stateMutability": "view",
      "type": "function"
    },
    {
      "constant": true,
      "inputs": [],
      "name": "gasPriceMinimumFloor",
      "outputs": [
        {
          "internalType": "uint256",
          "name": "",
          "type": "uint256"
        }
      ],
      "payable": false,
      "stateMutability": "view",
      "type": "function"
    },
    {
      "constant": true,
      "inputs": [],
      "name": "initialized",
      "outputs": [
        {
          "internalType": "bool",
          "name": "",
          "type": "bool"
        }
      ],
      "payable": false,
      "stateMutability": "view",
      "type": "function"
    },
    {
      "constant": true,
      "inputs": [],
      "name": "isOwner",
      "outputs": [
        {
          "internalType": "bool",
          "name": "",
          "type": "bool"
        }
      ],
      "payable": false,
      "stateMutability": "view",
      "type": "function"
    },
    {
      "constant": true,
      "inputs": [],
      "name": "owner",
      "outputs": [
        {
          "internalType": "address",
          "name": "",
          "type": "address"
        }
      ],
      "payable": false,
      "stateMutability": "view",
      "type": "function"
    },
    {
      "constant": true,
      "inputs": [],
      "name": "registry",
      "outputs": [
        {
          "internalType": "contract IRegistry",
          "name": "",
          "type": "address"
        }
      ],
      "payable": false,
      "stateMutability": "view",
      "type": "function"
    },
    {
      "constant": false,
      "inputs": [],
      "name": "renounceOwnership",
      "outputs": [],
      "payable": false,
      "stateMutability": "nonpayable",
      "type": "function"
    },
    {
      "constant": false,
      "inputs": [
        {
          "internalType": "address",
          "name": "registryAddress",
          "type": "address"
        }
      ],
      "name": "setRegistry",
      "outputs": [],
      "payable": false,
      "stateMutability": "nonpayable",
      "type": "function"
    },
    {
      "constant": true,
      "inputs": [],
      "name": "targetDensity",
      "outputs": [
        {
          "internalType": "uint256",
          "name": "value",
          "type": "uint256"
        }
      ],
      "payable": false,
      "stateMutability": "view",
      "type": "function"
    },
    {
      "constant": false,
      "inputs": [
        {
          "internalType": "address",
          "name": "newOwner",
          "type": "address"
        }
      ],
      "name": "transferOwnership",
      "outputs": [],
      "payable": false,
      "stateMutability": "nonpayable",
      "type": "function"
    },
    {
      "constant": true,
      "inputs": [],
      "name": "getVersionNumber",
      "outputs": [
        {
          "internalType": "uint256",
          "name": "",
          "type": "uint256"
        },
        {
          "internalType": "uint256",
          "name": "",
          "type": "uint256"
        },
        {
          "internalType": "uint256",
          "name": "",
          "type": "uint256"
        },
        {
          "internalType": "uint256",
          "name": "",
          "type": "uint256"
        }
      ],
      "payable": false,
      "stateMutability": "pure",
      "type": "function"
    },
    {
      "constant": false,
      "inputs": [
        {
          "internalType": "address",
          "name": "_registryAddress",
          "type": "address"
        },
        {
          "internalType": "uint256",
          "name": "_gasPriceMinimumFloor",
          "type": "uint256"
        },
        {
          "internalType": "uint256",
          "name": "_targetDensity",
          "type": "uint256"
        },
        {
          "internalType": "uint256",
          "name": "_adjustmentSpeed",
          "type": "uint256"
        }
      ],
      "name": "initialize",
      "outputs": [],
      "payable": false,
      "stateMutability": "nonpayable",
      "type": "function"
    },
    {
      "constant": false,
      "inputs": [
        {
          "internalType": "uint256",
          "name": "_adjustmentSpeed",
          "type": "uint256"
        }
      ],
      "name": "setAdjustmentSpeed",
      "outputs": [],
      "payable": false,
      "stateMutability": "nonpayable",
      "type": "function"
    },
    {
      "constant": false,
      "inputs": [
        {
          "internalType": "uint256",
          "name": "_targetDensity",
          "type": "uint256"
        }
      ],
      "name": "setTargetDensity",
      "outputs": [],
      "payable": false,
      "stateMutability": "nonpayable",
      "type": "function"
    },
    {
      "constant": false,
      "inputs": [
        {
          "internalType": "uint256",
          "name": "_gasPriceMinimumFloor",
          "type": "uint256"
        }
      ],
      "name": "setGasPriceMinimumFloor",
      "outputs": [],
      "payable": false,
      "stateMutability": "nonpayable",
      "type": "function"
    },
    {
      "constant": true,
      "inputs": [
        {
          "internalType": "address",
          "name": "tokenAddress",
          "type": "address"
        }
      ],
      "name": "getGasPriceMinimum",
      "outputs": [
        {
          "internalType": "uint256",
          "name": "",
          "type": "uint256"
        }
      ],
      "payable": false,
      "stateMutability": "view",
      "type": "function"
    },
    {
      "constant": false,
      "inputs": [
        {
          "internalType": "uint256",
          "name": "blockGasTotal",
          "type": "uint256"
        },
        {
          "internalType": "uint256",
          "name": "blockGasLimit",
          "type": "uint256"
        }
      ],
      "name": "updateGasPriceMinimum",
      "outputs": [
        {
          "internalType": "uint256",
          "name": "",
          "type": "uint256"
        }
      ],
      "payable": false,
      "stateMutability": "nonpayable",
      "type": "function"
    },
    {
      "constant": true,
      "inputs": [
        {
          "internalType": "uint256",
          "name": "blockGasTotal",
          "type": "uint256"
        },
        {
          "internalType": "uint256",
          "name": "blockGasLimit",
          "type": "uint256"
        }
      ],
      "name": "getUpdatedGasPriceMinimum",
      "outputs": [
        {
          "internalType": "uint256",
          "name": "",
          "type": "uint256"
        }
      ],
      "payable": false,
      "stateMutability": "view",
      "type": "function"
    }
  ],
  "bytecode": "0x608060405234801561001057600080fd5b506040516200225b3803806200225b8339818101604052602081101561003557600080fd5b810190808051906020019092919050505080600061005761011d60201b60201c565b9050806000806101000a81548173ffffffffffffffffffffffffffffffffffffffff021916908373ffffffffffffffffffffffffffffffffffffffff1602179055508073ffffffffffffffffffffffffffffffffffffffff16600073ffffffffffffffffffffffffffffffffffffffff167f8be0079c531659141344cd1fd0a4f28419497f9722a3daafe3b4186f6b6457e060405160405180910390a35080610116576001600060146101000a81548160ff0219169083151502179055505b5050610125565b600033905090565b61212680620001356000396000f3fe608060405234801561001057600080fd5b50600436106101215760003560e01c80638f32d59b116100ad578063b830f4a411610071578063b830f4a4146103ef578063c12398b41461041d578063ceff0bd614610469578063ef712c5b14610487578063f2fde38b146104d357610121565b80638f32d59b146102e557806393ca6fc414610307578063a54b7fc014610335578063a68f548e1461038d578063a91ee0dc146103ab57610121565b80634ec81af1116100f45780634ec81af1146101b257806354255be014610214578063715018a6146102475780637b103999146102515780638da5cb5b1461029b57610121565b8063158ef93e1461012657806330f726b91461014857806336945c2d146101765780634a3d5fe214610194575b600080fd5b61012e610517565b604051808215151515815260200191505060405180910390f35b6101746004803603602081101561015e57600080fd5b810190808035906020019092919050505061052a565b005b61017e61067b565b6040518082815260200191505060405180910390f35b61019c610681565b6040518082815260200191505060405180910390f35b610212600480360360808110156101c857600080fd5b81019080803573ffffffffffffffffffffffffffffffffffffffff16906020019092919080359060200190929190803590602001909291908035906020019092919050505061068d565b005b61021c610765565b6040518085815260200184815260200183815260200182815260200194505050505060405180910390f35b61024f61078c565b005b6102596108c5565b604051808273ffffffffffffffffffffffffffffffffffffffff1673ffffffffffffffffffffffffffffffffffffffff16815260200191505060405180910390f35b6102a36108eb565b604051808273ffffffffffffffffffffffffffffffffffffffff1673ffffffffffffffffffffffffffffffffffffffff16815260200191505060405180910390f35b6102ed610914565b604051808215151515815260200191505060405180910390f35b6103336004803603602081101561031d57600080fd5b8101908080359060200190929190505050610972565b005b6103776004803603602081101561034b57600080fd5b81019080803573ffffffffffffffffffffffffffffffffffffffff169060200190929190505050610ac3565b6040518082815260200191505060405180910390f35b610395610e22565b6040518082815260200191505060405180910390f35b6103ed600480360360208110156103c157600080fd5b81019080803573ffffffffffffffffffffffffffffffffffffffff169060200190929190505050610e2e565b005b61041b6004803603602081101561040557600080fd5b8101908080359060200190929190505050610fd2565b005b6104536004803603604081101561043357600080fd5b8101908080359060200190929190803590602001909291905050506110e6565b6040518082815260200191505060405180910390f35b6104716111dd565b6040518082815260200191505060405180910390f35b6104bd6004803603604081101561049d57600080fd5b8101908080359060200190929190803590602001909291905050506111e3565b6040518082815260200191505060405180910390f35b610515600480360360208110156104e957600080fd5b81019080803573ffffffffffffffffffffffffffffffffffffffff169060200190929190505050611389565b005b600060149054906101000a900460ff1681565b610532610914565b6105a4576040517f08c379a00000000000000000000000000000000000000000000000000000000081526004018080602001828103825260208152602001807f4f776e61626c653a2063616c6c6572206973206e6f7420746865206f776e657281525060200191505060405180910390fd5b6105ad8161140f565b6005600082015181600001559050506105ec6105c761142d565b600560405180602001604052908160008201548152505061145390919063ffffffff16565b610641576040517f08c379a0000000000000000000000000000000000000000000000000000000008152600401808060200182810382526027815260200180611ff86027913960400191505060405180910390fd5b7fd2e71cd7012df1df07d4908ff75ae4b2bfbb6c49d39144404661f1fd47253283816040518082815260200191505060405180910390a150565b60025481565b60048060000154905081565b600060149054906101000a900460ff1615610710576040517f08c379a000000000000000000000000000000000000000000000000000000000815260040180806020018281038252601c8152602001807f636f6e747261637420616c726561647920696e697469616c697a65640000000081525060200191505060405180910390fd5b6001600060146101000a81548160ff02191690831515021790555061073433611468565b61073d84610e2e565b8260028190555061074d83610fd2565b61075682610972565b61075f8161052a565b50505050565b60008060008060018060016000839350829250819150809050935093509350935090919293565b610794610914565b610806576040517f08c379a00000000000000000000000000000000000000000000000000000000081526004018080602001828103825260208152602001807f4f776e61626c653a2063616c6c6572206973206e6f7420746865206f776e657281525060200191505060405180910390fd5b600073ffffffffffffffffffffffffffffffffffffffff166000809054906101000a900473ffffffffffffffffffffffffffffffffffffffff1673ffffffffffffffffffffffffffffffffffffffff167f8be0079c531659141344cd1fd0a4f28419497f9722a3daafe3b4186f6b6457e060405160405180910390a360008060006101000a81548173ffffffffffffffffffffffffffffffffffffffff021916908373ffffffffffffffffffffffffffffffffffffffff160217905550565b600160009054906101000a900473ffffffffffffffffffffffffffffffffffffffff1681565b60008060009054906101000a900473ffffffffffffffffffffffffffffffffffffffff16905090565b60008060009054906101000a900473ffffffffffffffffffffffffffffffffffffffff1673ffffffffffffffffffffffffffffffffffffffff166109566115ac565b73ffffffffffffffffffffffffffffffffffffffff1614905090565b61097a610914565b6109ec576040517f08c379a00000000000000000000000000000000000000000000000000000000081526004018080602001828103825260208152602001807f4f776e61626c653a2063616c6c6572206973206e6f7420746865206f776e657281525060200191505060405180910390fd5b6109f58161140f565b600460008201518160000155905050610a34610a0f61142d565b600460405180602001604052908160008201548152505061145390919063ffffffff16565b610a89576040517f08c379a00000000000000000000000000000000000000000000000000000000081526004018080602001828103825260258152602001806120cd6025913960400191505060405180910390fd5b7f2a109bad06121312708ed2a3e9b3556ea85ef8eadd4d10d8181f50d114eb4fab816040518082815260200191505060405180910390a150565b60008073ffffffffffffffffffffffffffffffffffffffff168273ffffffffffffffffffffffffffffffffffffffff161480610c1d5750600160009054906101000a900473ffffffffffffffffffffffffffffffffffffffff1673ffffffffffffffffffffffffffffffffffffffff1663dcf0aaed60405160200180807f476f6c64546f6b656e00000000000000000000000000000000000000000000008152506009019050604051602081830303815290604052805190602001206040518263ffffffff1660e01b81526004018082815260200191505060206040518083038186803b158015610bb357600080fd5b505afa158015610bc7573d6000803e3d6000fd5b505050506040513d6020811015610bdd57600080fd5b810190808051906020019092919050505073ffffffffffffffffffffffffffffffffffffffff168273ffffffffffffffffffffffffffffffffffffffff16145b15610c2c576002549050610e1d565b6000600160009054906101000a900473ffffffffffffffffffffffffffffffffffffffff1673ffffffffffffffffffffffffffffffffffffffff1663dcf0aaed60405160200180807f536f727465644f7261636c657300000000000000000000000000000000000000815250600d019050604051602081830303815290604052805190602001206040518263ffffffff1660e01b81526004018082815260200191505060206040518083038186803b158015610ce757600080fd5b505afa158015610cfb573d6000803e3d6000fd5b505050506040513d6020811015610d1157600080fd5b810190808051906020019092919050505090506000808273ffffffffffffffffffffffffffffffffffffffff1663ef90e1b0866040518263ffffffff1660e01b8152600401808273ffffffffffffffffffffffffffffffffffffffff1673ffffffffffffffffffffffffffffffffffffffff168152602001915050604080518083038186803b158015610da357600080fd5b505afa158015610db7573d6000803e3d6000fd5b505050506040513d6040811015610dcd57600080fd5b8101908080519060200190929190805190602001909291905050508092508193505050610e1781610e09846002546115b490919063ffffffff16565b61163a90919063ffffffff16565b93505050505b919050565b60058060000154905081565b610e36610914565b610ea8576040517f08c379a00000000000000000000000000000000000000000000000000000000081526004018080602001828103825260208152602001807f4f776e61626c653a2063616c6c6572206973206e6f7420746865206f776e657281525060200191505060405180910390fd5b600073ffffffffffffffffffffffffffffffffffffffff168173ffffffffffffffffffffffffffffffffffffffff161415610f4b576040517f08c379a00000000000000000000000000000000000000000000000000000000081526004018080602001828103825260208152602001807f43616e6e6f7420726567697374657220746865206e756c6c206164647265737381525060200191505060405180910390fd5b80600160006101000a81548173ffffffffffffffffffffffffffffffffffffffff021916908373ffffffffffffffffffffffffffffffffffffffff1602179055508073ffffffffffffffffffffffffffffffffffffffff167f27fe5f0c1c3b1ed427cc63d0f05759ffdecf9aec9e18d31ef366fc8a6cb5dc3b60405160405180910390a250565b610fda610914565b61104c576040517f08c379a00000000000000000000000000000000000000000000000000000000081526004018080602001828103825260208152602001807f4f776e61626c653a2063616c6c6572206973206e6f7420746865206f776e657281525060200191505060405180910390fd5b600081116110a5576040517f08c379a000000000000000000000000000000000000000000000000000000000815260040180806020018281038252603181526020018061207b6031913960400191505060405180910390fd5b806003819055507f5548a13ccc1d9e4e2860461edda5ad49ba8a4fda485f67d954f9d7da8d2aff27816040518082815260200191505060405180910390a150565b60008073ffffffffffffffffffffffffffffffffffffffff163373ffffffffffffffffffffffffffffffffffffffff1614611189576040517f08c379a00000000000000000000000000000000000000000000000000000000081526004018080602001828103825260108152602001807f4f6e6c7920564d2063616e2063616c6c0000000000000000000000000000000081525060200191505060405180910390fd5b61119383836111e3565b6002819055507f6e53b2f8b69496c2a175588ad1326dbabe2f66df4d82f817aeca52e3474807fb6002546040518082815260200191505060405180910390a1600254905092915050565b60035481565b60006111ed611fe4565b6111f78484611684565b905060006112246004604051806020016040529081600082015481525050836116c690919063ffffffff16565b905061122e611fe4565b816112615761125c8360046040518060200160405290816000820154815250506116db90919063ffffffff16565b61128b565b61128a6004604051806020016040529081600082015481525050846116db90919063ffffffff16565b5b9050611295611fe4565b826112e1576112dc6112c683600560405180602001604052908160008201548152505061178290919063ffffffff16565b6112ce61142d565b6116db90919063ffffffff16565b611324565b61132361130d83600560405180602001604052908160008201548152505061178290919063ffffffff16565b61131561142d565b611be190919063ffffffff16565b5b9050600061136661136161133661142d565b611353611344600254611c8a565b8661178290919063ffffffff16565b611be190919063ffffffff16565b611d14565b905060035481101561137a5760035461137c565b805b9550505050505092915050565b611391610914565b611403576040517f08c379a00000000000000000000000000000000000000000000000000000000081526004018080602001828103825260208152602001807f4f776e61626c653a2063616c6c6572206973206e6f7420746865206f776e657281525060200191505060405180910390fd5b61140c81611468565b50565b611417611fe4565b6040518060200160405280838152509050919050565b611435611fe4565b604051806020016040528069d3c21bcecceda1000000815250905090565b60008160000151836000015110905092915050565b600073ffffffffffffffffffffffffffffffffffffffff168173ffffffffffffffffffffffffffffffffffffffff1614156114ee576040517f08c379a000000000000000000000000000000000000000000000000000000000815260040180806020018281038252602681526020018061201f6026913960400191505060405180910390fd5b8073ffffffffffffffffffffffffffffffffffffffff166000809054906101000a900473ffffffffffffffffffffffffffffffffffffffff1673ffffffffffffffffffffffffffffffffffffffff167f8be0079c531659141344cd1fd0a4f28419497f9722a3daafe3b4186f6b6457e060405160405180910390a3806000806101000a81548173ffffffffffffffffffffffffffffffffffffffff021916908373ffffffffffffffffffffffffffffffffffffffff16021790555050565b600033905090565b6000808314156115c75760009050611634565b60008284029050828482816115d857fe5b041461162f576040517f08c379a00000000000000000000000000000000000000000000000000000000081526004018080602001828103825260218152602001806120ac6021913960400191505060405180910390fd5b809150505b92915050565b600061167c83836040518060400160405280601a81526020017f536166654d6174683a206469766973696f6e206279207a65726f000000000000815250611d35565b905092915050565b61168c611fe4565b611694611fe4565b61169d84611c8a565b90506116a7611fe4565b6116b084611c8a565b90506116bc8282611dfb565b9250505092915050565b60008160000151836000015111905092915050565b6116e3611fe4565b816000015183600001511015611761576040517f08c379a000000000000000000000000000000000000000000000000000000000815260040180806020018281038252601f8152602001807f737562737472616374696f6e20756e646572666c6f772064657465637465640081525060200191505060405180910390fd5b60405180602001604052808360000151856000015103815250905092915050565b61178a611fe4565b6000836000015114806117a1575060008260000151145b156117bd57604051806020016040528060008152509050611bdb565b69d3c21bcecceda1000000826000015114156117db57829050611bdb565b69d3c21bcecceda1000000836000015114156117f957819050611bdb565b600069d3c21bcecceda100000061180f85611f44565b600001518161181a57fe5b049050600061182885611f7b565b600001519050600069d3c21bcecceda100000061184486611f44565b600001518161184f57fe5b049050600061185d86611f7b565b60000151905060008285029050600085146118f1578285828161187c57fe5b04146118f0576040517f08c379a00000000000000000000000000000000000000000000000000000000081526004018080602001828103825260168152602001807f6f766572666c6f7720783179312064657465637465640000000000000000000081525060200191505060405180910390fd5b5b600069d3c21bcecceda100000082029050600082146119935769d3c21bcecceda100000082828161191e57fe5b0414611992576040517f08c379a000000000000000000000000000000000000000000000000000000000815260040180806020018281038252601f8152602001807f6f766572666c6f772078317931202a206669786564312064657465637465640081525060200191505060405180910390fd5b5b8091506000848602905060008614611a2457848682816119af57fe5b0414611a23576040517f08c379a00000000000000000000000000000000000000000000000000000000081526004018080602001828103825260168152602001807f6f766572666c6f7720783279312064657465637465640000000000000000000081525060200191505060405180910390fd5b5b6000848802905060008814611ab25784888281611a3d57fe5b0414611ab1576040517f08c379a00000000000000000000000000000000000000000000000000000000081526004018080602001828103825260168152602001807f6f766572666c6f7720783179322064657465637465640000000000000000000081525060200191505060405180910390fd5b5b611aba611fb8565b8781611ac257fe5b049650611acd611fb8565b8581611ad557fe5b0494506000858802905060008814611b665785888281611af157fe5b0414611b65576040517f08c379a00000000000000000000000000000000000000000000000000000000081526004018080602001828103825260168152602001807f6f766572666c6f7720783279322064657465637465640000000000000000000081525060200191505060405180910390fd5b5b611b6e611fe4565b6040518060200160405280878152509050611b9781604051806020016040528087815250611be1565b9050611bb181604051806020016040528086815250611be1565b9050611bcb81604051806020016040528085815250611be1565b9050809a50505050505050505050505b92915050565b611be9611fe4565b6000826000015184600001510190508360000151811015611c72576040517f08c379a00000000000000000000000000000000000000000000000000000000081526004018080602001828103825260158152602001807f616464206f766572666c6f77206465746563746564000000000000000000000081525060200191505060405180910390fd5b60405180602001604052808281525091505092915050565b611c92611fe4565b611c9a611fc5565b821115611cf2576040517f08c379a00000000000000000000000000000000000000000000000000000000081526004018080602001828103825260368152602001806120456036913960400191505060405180910390fd5b604051806020016040528069d3c21bcecceda100000084028152509050919050565b600069d3c21bcecceda1000000826000015181611d2d57fe5b049050919050565b60008083118290611de1576040517f08c379a00000000000000000000000000000000000000000000000000000000081526004018080602001828103825283818151815260200191508051906020019080838360005b83811015611da6578082015181840152602081019050611d8b565b50505050905090810190601f168015611dd35780820380516001836020036101000a031916815260200191505b509250505060405180910390fd5b506000838581611ded57fe5b049050809150509392505050565b611e03611fe4565b600082600001511415611e7e576040517f08c379a00000000000000000000000000000000000000000000000000000000081526004018080602001828103825260118152602001807f63616e277420646976696465206279203000000000000000000000000000000081525060200191505060405180910390fd5b600069d3c21bcecceda10000008460000151029050836000015169d3c21bcecceda10000008281611eab57fe5b0414611f1f576040517f08c379a00000000000000000000000000000000000000000000000000000000081526004018080602001828103825260128152602001807f6f766572666c6f7720617420646976696465000000000000000000000000000081525060200191505060405180910390fd5b604051806020016040528084600001518381611f3757fe5b0481525091505092915050565b611f4c611fe4565b604051806020016040528069d3c21bcecceda100000080856000015181611f6f57fe5b04028152509050919050565b611f83611fe4565b604051806020016040528069d3c21bcecceda100000080856000015181611fa657fe5b04028460000151038152509050919050565b600064e8d4a51000905090565b60007601357c299a88ea76a58924d52ce4f26a85af186c2b9e74905090565b604051806020016040528060008152509056fe61646a7573746d656e74207370656564206d75737420626520736d616c6c6572207468616e20314f776e61626c653a206e6577206f776e657220697320746865207a65726f206164647265737363616e277420637265617465206669786964697479206e756d626572206c6172676572207468616e206d61784e657746697865642829676173207072696365206d696e696d756d20666c6f6f72206d7573742062652067726561746572207468616e207a65726f536166654d6174683a206d756c7469706c69636174696f6e206f766572666c6f777461726765742064656e73697479206d75737420626520736d616c6c6572207468616e2031a265627a7a7231582084642150d38195d503f7f397b4819adf91f2b8f2de8f4c0f92ccf3b7d7e542dc64736f6c634300050d0032",
  "source": "pragma solidity ^0.5.13;\n\nimport \"openzeppelin-solidity/contracts/math/SafeMath.sol\";\nimport \"openzeppelin-solidity/contracts/ownership/Ownable.sol\";\n\nimport \"./CalledByVm.sol\";\nimport \"./Initializable.sol\";\nimport \"./interfaces/ICeloVersionedContract.sol\";\nimport \"./FixidityLib.sol\";\nimport \"./UsingRegistry.sol\";\nimport \"../stability/interfaces/ISortedOracles.sol\";\n\n/**\n * @title Stores and provides gas price minimum for various currencies.\n */\ncontract GasPriceMinimum is\n  ICeloVersionedContract,\n  Ownable,\n  Initializable,\n  UsingRegistry,\n  CalledByVm\n{\n  using FixidityLib for FixidityLib.Fraction;\n  using SafeMath for uint256;\n\n  event TargetDensitySet(uint256 targetDensity);\n  event GasPriceMinimumFloorSet(uint256 gasPriceMinimumFloor);\n  event AdjustmentSpeedSet(uint256 adjustmentSpeed);\n  event GasPriceMinimumUpdated(uint256 gasPriceMinimum);\n\n  uint256 public gasPriceMinimum;\n  uint256 public gasPriceMinimumFloor;\n\n  // Block congestion level targeted by the gas price minimum calculation.\n  FixidityLib.Fraction public targetDensity;\n\n  // Speed of gas price minimum adjustment due to congestion.\n  FixidityLib.Fraction public adjustmentSpeed;\n\n  /**\n   * @notice Sets initialized == true on implementation contracts\n   * @param test Set to true to skip implementation initialization\n   */\n  constructor(bool test) public Initializable(test) {}\n\n  /**\n   * @notice Returns the storage, major, minor, and patch version of the contract.\n   * @return The storage, major, minor, and patch version of the contract.\n   */\n  function getVersionNumber() external pure returns (uint256, uint256, uint256, uint256) {\n    return (1, 1, 1, 0);\n  }\n\n  /**\n   * @notice Used in place of the constructor to allow the contract to be upgradable via proxy.\n   * @param _registryAddress The address of the registry core smart contract.\n   * @param _gasPriceMinimumFloor The lowest value the gas price minimum can be.\n   * @param _targetDensity The target gas fullness of blocks, expressed as a fixidity fraction.\n   * @param _adjustmentSpeed How quickly the minimum changes, expressed as a fixidity fraction.\n   */\n  function initialize(\n    address _registryAddress,\n    uint256 _gasPriceMinimumFloor,\n    uint256 _targetDensity,\n    uint256 _adjustmentSpeed\n  ) external initializer {\n    _transferOwnership(msg.sender);\n    setRegistry(_registryAddress);\n    gasPriceMinimum = _gasPriceMinimumFloor;\n    setGasPriceMinimumFloor(_gasPriceMinimumFloor);\n    setTargetDensity(_targetDensity);\n    setAdjustmentSpeed(_adjustmentSpeed);\n  }\n\n  /**\n   * @notice Set a multiplier that impacts how quickly gas price minimum is adjusted.\n   * @param _adjustmentSpeed How quickly the minimum changes, expressed as a fixidity fraction.\n   * @dev Value is expected to be < 1.\n   */\n  function setAdjustmentSpeed(uint256 _adjustmentSpeed) public onlyOwner {\n    adjustmentSpeed = FixidityLib.wrap(_adjustmentSpeed);\n    require(adjustmentSpeed.lt(FixidityLib.fixed1()), \"adjustment speed must be smaller than 1\");\n    emit AdjustmentSpeedSet(_adjustmentSpeed);\n  }\n\n  /**\n   * @notice Set the block density targeted by the gas price minimum algorithm.\n   * @param _targetDensity The target gas fullness of blocks, expressed as a fixidity fraction.\n   * @dev Value is expected to be < 1.\n   */\n  function setTargetDensity(uint256 _targetDensity) public onlyOwner {\n    targetDensity = FixidityLib.wrap(_targetDensity);\n    require(targetDensity.lt(FixidityLib.fixed1()), \"target density must be smaller than 1\");\n    emit TargetDensitySet(_targetDensity);\n  }\n\n  /**\n   * @notice Set the minimum gas price treshold.\n   * @param _gasPriceMinimumFloor The lowest value the gas price minimum can be.\n   * @dev Value is expected to be > 0.\n   */\n  function setGasPriceMinimumFloor(uint256 _gasPriceMinimumFloor) public onlyOwner {\n    require(_gasPriceMinimumFloor > 0, \"gas price minimum floor must be greater than zero\");\n    gasPriceMinimumFloor = _gasPriceMinimumFloor;\n    emit GasPriceMinimumFloorSet(_gasPriceMinimumFloor);\n  }\n\n  /**\n   * @notice Retrieve the current gas price minimum for a currency.\n   * @param tokenAddress The currency the gas price should be in (defaults to gold).\n   * @return current gas price minimum in the requested currency\n   */\n  function getGasPriceMinimum(address tokenAddress) external view returns (uint256) {\n    if (\n      tokenAddress == address(0) ||\n      tokenAddress == registry.getAddressForOrDie(GOLD_TOKEN_REGISTRY_ID)\n    ) {\n      return gasPriceMinimum;\n    } else {\n      ISortedOracles sortedOracles = ISortedOracles(\n        registry.getAddressForOrDie(SORTED_ORACLES_REGISTRY_ID)\n      );\n      uint256 rateNumerator;\n      uint256 rateDenominator;\n      (rateNumerator, rateDenominator) = sortedOracles.medianRate(tokenAddress);\n      return (gasPriceMinimum.mul(rateNumerator).div(rateDenominator));\n    }\n  }\n\n  /**\n   * @notice Adjust the gas price minimum based on governable parameters\n   * and block congestion.\n   * @param blockGasTotal The amount of gas in the most recent block.\n   * @param blockGasLimit The maxBlockGasLimit of the past block.\n   * @return result of the calculation (new gas price minimum)\n   */\n  function updateGasPriceMinimum(uint256 blockGasTotal, uint256 blockGasLimit)\n    external\n    onlyVm\n    returns (uint256)\n  {\n    gasPriceMinimum = getUpdatedGasPriceMinimum(blockGasTotal, blockGasLimit);\n    emit GasPriceMinimumUpdated(gasPriceMinimum);\n    return gasPriceMinimum;\n  }\n\n  /**\n   * @notice Calculates the gas price minimum based on governable parameters\n   * and block congestion.\n   * @param blockGasTotal The amount of gas in the most recent block.\n   * @param blockGasLimit The maxBlockGasLimit of the past block.\n   * @return result of the calculation (new gas price minimum)\n   * @dev Calculate using the following formula:\n   * oldGasPriceMinimum * (1 + (adjustmentSpeed * (blockDensity - targetDensity))) + 1.\n   */\n  function getUpdatedGasPriceMinimum(uint256 blockGasTotal, uint256 blockGasLimit)\n    public\n    view\n    returns (uint256)\n  {\n    FixidityLib.Fraction memory blockDensity = FixidityLib.newFixedFraction(\n      blockGasTotal,\n      blockGasLimit\n    );\n    bool densityGreaterThanTarget = blockDensity.gt(targetDensity);\n    FixidityLib.Fraction memory densityDelta = densityGreaterThanTarget\n      ? blockDensity.subtract(targetDensity)\n      : targetDensity.subtract(blockDensity);\n    FixidityLib.Fraction memory adjustment = densityGreaterThanTarget\n      ? FixidityLib.fixed1().add(adjustmentSpeed.multiply(densityDelta))\n      : FixidityLib.fixed1().subtract(adjustmentSpeed.multiply(densityDelta));\n\n    uint256 newGasPriceMinimum = adjustment\n      .multiply(FixidityLib.newFixed(gasPriceMinimum))\n      .add(FixidityLib.fixed1())\n      .fromFixed();\n\n    return newGasPriceMinimum >= gasPriceMinimumFloor ? newGasPriceMinimum : gasPriceMinimumFloor;\n  }\n}\n",
  "sourcePath": "/Users/hiroki.yasui/go/src/github.com/celo-org/celo-monorepo/packages/protocol/contracts/common/GasPriceMinimum.sol",
  "compiler": {
    "name": "solc",
    "version": "0.5.13+commit.5b0b510c.Emscripten.clang"
  },
  "schemaVersion": "3.0.23",
  "updatedAt": "2022-05-06T03:53:12.676Z",
  "devdoc": {
    "methods": {
      "constructor": {
        "params": {
          "test": "Set to true to skip implementation initialization"
        }
      },
      "getGasPriceMinimum(address)": {
        "params": {
          "tokenAddress": "The currency the gas price should be in (defaults to gold)."
        },
        "return": "current gas price minimum in the requested currency"
      },
      "getUpdatedGasPriceMinimum(uint256,uint256)": {
        "details": "Calculate using the following formula: oldGasPriceMinimum * (1 + (adjustmentSpeed * (blockDensity - targetDensity))) + 1.",
        "params": {
          "blockGasLimit": "The maxBlockGasLimit of the past block.",
          "blockGasTotal": "The amount of gas in the most recent block."
        },
        "return": "result of the calculation (new gas price minimum)"
      },
      "getVersionNumber()": {
        "return": "The storage, major, minor, and patch version of the contract."
      },
      "initialize(address,uint256,uint256,uint256)": {
        "params": {
          "_adjustmentSpeed": "How quickly the minimum changes, expressed as a fixidity fraction.",
          "_gasPriceMinimumFloor": "The lowest value the gas price minimum can be.",
          "_registryAddress": "The address of the registry core smart contract.",
          "_targetDensity": "The target gas fullness of blocks, expressed as a fixidity fraction."
        }
      },
      "isOwner()": {
        "details": "Returns true if the caller is the current owner."
      },
      "owner()": {
        "details": "Returns the address of the current owner."
      },
      "renounceOwnership()": {
        "details": "Leaves the contract without owner. It will not be possible to call `onlyOwner` functions anymore. Can only be called by the current owner.     * NOTE: Renouncing ownership will leave the contract without an owner, thereby removing any functionality that is only available to the owner."
      },
      "setAdjustmentSpeed(uint256)": {
        "details": "Value is expected to be < 1.",
        "params": {
          "_adjustmentSpeed": "How quickly the minimum changes, expressed as a fixidity fraction."
        }
      },
      "setGasPriceMinimumFloor(uint256)": {
        "details": "Value is expected to be > 0.",
        "params": {
          "_gasPriceMinimumFloor": "The lowest value the gas price minimum can be."
        }
      },
      "setRegistry(address)": {
        "params": {
          "registryAddress": "The address of a registry contract for routing to other contracts."
        }
      },
      "setTargetDensity(uint256)": {
        "details": "Value is expected to be < 1.",
        "params": {
          "_targetDensity": "The target gas fullness of blocks, expressed as a fixidity fraction."
        }
      },
      "transferOwnership(address)": {
        "details": "Transfers ownership of the contract to a new account (`newOwner`). Can only be called by the current owner."
      },
      "updateGasPriceMinimum(uint256,uint256)": {
        "params": {
          "blockGasLimit": "The maxBlockGasLimit of the past block.",
          "blockGasTotal": "The amount of gas in the most recent block."
        },
        "return": "result of the calculation (new gas price minimum)"
      }
    },
    "title": "Stores and provides gas price minimum for various currencies."
  },
  "userdoc": {
    "methods": {
      "constructor": "Sets initialized == true on implementation contracts",
      "getGasPriceMinimum(address)": {
        "notice": "Retrieve the current gas price minimum for a currency."
      },
      "getUpdatedGasPriceMinimum(uint256,uint256)": {
        "notice": "Calculates the gas price minimum based on governable parameters and block congestion."
      },
      "getVersionNumber()": {
        "notice": "Returns the storage, major, minor, and patch version of the contract."
      },
      "initialize(address,uint256,uint256,uint256)": {
        "notice": "Used in place of the constructor to allow the contract to be upgradable via proxy."
      },
      "setAdjustmentSpeed(uint256)": {
        "notice": "Set a multiplier that impacts how quickly gas price minimum is adjusted."
      },
      "setGasPriceMinimumFloor(uint256)": {
        "notice": "Set the minimum gas price treshold."
      },
      "setRegistry(address)": {
        "notice": "Updates the address pointing to a Registry contract."
      },
      "setTargetDensity(uint256)": {
        "notice": "Set the block density targeted by the gas price minimum algorithm."
      },
      "updateGasPriceMinimum(uint256,uint256)": {
        "notice": "Adjust the gas price minimum based on governable parameters and block congestion."
      }
    }
  }
}