{
  "contractName": "GovernanceTest",
  "abi": [
    {
      "anonymous": false,
      "inputs": [
        {
          "indexed": false,
          "internalType": "uint256",
          "name": "approvalStageDuration",
          "type": "uint256"
        }
      ],
      "name": "ApprovalStageDurationSet",
      "type": "event"
    },
    {
      "anonymous": false,
      "inputs": [
        {
          "indexed": true,
          "internalType": "address",
          "name": "approver",
          "type": "address"
        }
      ],
      "name": "ApproverSet",
      "type": "event"
    },
    {
      "anonymous": false,
      "inputs": [
        {
          "indexed": false,
          "internalType": "uint256",
          "name": "concurrentProposals",
          "type": "uint256"
        }
      ],
      "name": "ConcurrentProposalsSet",
      "type": "event"
    },
    {
      "anonymous": false,
      "inputs": [
        {
          "indexed": true,
          "internalType": "address",
          "name": "destination",
          "type": "address"
        },
        {
          "indexed": true,
          "internalType": "bytes4",
          "name": "functionId",
          "type": "bytes4"
        },
        {
          "indexed": false,
          "internalType": "uint256",
          "name": "threshold",
          "type": "uint256"
        }
      ],
      "name": "ConstitutionSet",
      "type": "event"
    },
    {
      "anonymous": false,
      "inputs": [
        {
          "indexed": false,
          "internalType": "uint256",
          "name": "dequeueFrequency",
          "type": "uint256"
        }
      ],
      "name": "DequeueFrequencySet",
      "type": "event"
    },
    {
      "anonymous": false,
      "inputs": [
        {
          "indexed": false,
          "internalType": "uint256",
          "name": "executionStageDuration",
          "type": "uint256"
        }
      ],
      "name": "ExecutionStageDurationSet",
      "type": "event"
    },
    {
      "anonymous": false,
      "inputs": [
        {
          "indexed": true,
          "internalType": "bytes32",
          "name": "hash",
          "type": "bytes32"
        }
      ],
      "name": "HotfixApproved",
      "type": "event"
    },
    {
      "anonymous": false,
      "inputs": [
        {
          "indexed": true,
          "internalType": "bytes32",
          "name": "hash",
          "type": "bytes32"
        }
      ],
      "name": "HotfixExecuted",
      "type": "event"
    },
    {
      "anonymous": false,
      "inputs": [
        {
          "indexed": true,
          "internalType": "bytes32",
          "name": "hash",
          "type": "bytes32"
        },
        {
          "indexed": true,
          "internalType": "uint256",
          "name": "epoch",
          "type": "uint256"
        }
      ],
      "name": "HotfixPrepared",
      "type": "event"
    },
    {
      "anonymous": false,
      "inputs": [
        {
          "indexed": true,
          "internalType": "bytes32",
          "name": "hash",
          "type": "bytes32"
        },
        {
          "indexed": false,
          "internalType": "address",
          "name": "whitelister",
          "type": "address"
        }
      ],
      "name": "HotfixWhitelisted",
      "type": "event"
    },
    {
      "anonymous": false,
      "inputs": [
        {
          "indexed": false,
          "internalType": "uint256",
          "name": "minDeposit",
          "type": "uint256"
        }
      ],
      "name": "MinDepositSet",
      "type": "event"
    },
    {
      "anonymous": false,
      "inputs": [
        {
          "indexed": true,
          "internalType": "address",
          "name": "previousOwner",
          "type": "address"
        },
        {
          "indexed": true,
          "internalType": "address",
          "name": "newOwner",
          "type": "address"
        }
      ],
      "name": "OwnershipTransferred",
      "type": "event"
    },
    {
      "anonymous": false,
      "inputs": [
        {
          "indexed": false,
          "internalType": "uint256",
          "name": "baselineQuorumFactor",
          "type": "uint256"
        }
      ],
      "name": "ParticipationBaselineQuorumFactorSet",
      "type": "event"
    },
    {
      "anonymous": false,
      "inputs": [
        {
          "indexed": false,
          "internalType": "uint256",
          "name": "baselineUpdateFactor",
          "type": "uint256"
        }
      ],
      "name": "ParticipationBaselineUpdateFactorSet",
      "type": "event"
    },
    {
      "anonymous": false,
      "inputs": [
        {
          "indexed": false,
          "internalType": "uint256",
          "name": "participationBaseline",
          "type": "uint256"
        }
      ],
      "name": "ParticipationBaselineUpdated",
      "type": "event"
    },
    {
      "anonymous": false,
      "inputs": [
        {
          "indexed": false,
          "internalType": "uint256",
          "name": "participationFloor",
          "type": "uint256"
        }
      ],
      "name": "ParticipationFloorSet",
      "type": "event"
    },
    {
      "anonymous": false,
      "inputs": [
        {
          "indexed": true,
          "internalType": "uint256",
          "name": "proposalId",
          "type": "uint256"
        }
      ],
      "name": "ProposalApproved",
      "type": "event"
    },
    {
      "anonymous": false,
      "inputs": [
        {
          "indexed": true,
          "internalType": "uint256",
          "name": "proposalId",
          "type": "uint256"
        },
        {
          "indexed": false,
          "internalType": "uint256",
          "name": "timestamp",
          "type": "uint256"
        }
      ],
      "name": "ProposalDequeued",
      "type": "event"
    },
    {
      "anonymous": false,
      "inputs": [
        {
          "indexed": true,
          "internalType": "uint256",
          "name": "proposalId",
          "type": "uint256"
        }
      ],
      "name": "ProposalExecuted",
      "type": "event"
    },
    {
      "anonymous": false,
      "inputs": [
        {
          "indexed": true,
          "internalType": "uint256",
          "name": "proposalId",
          "type": "uint256"
        }
      ],
      "name": "ProposalExpired",
      "type": "event"
    },
    {
      "anonymous": false,
      "inputs": [
        {
          "indexed": true,
          "internalType": "uint256",
          "name": "proposalId",
          "type": "uint256"
        },
        {
          "indexed": true,
          "internalType": "address",
          "name": "proposer",
          "type": "address"
        },
        {
          "indexed": false,
          "internalType": "uint256",
          "name": "transactionCount",
          "type": "uint256"
        },
        {
          "indexed": false,
          "internalType": "uint256",
          "name": "deposit",
          "type": "uint256"
        },
        {
          "indexed": false,
          "internalType": "uint256",
          "name": "timestamp",
          "type": "uint256"
        }
      ],
      "name": "ProposalQueued",
      "type": "event"
    },
    {
      "anonymous": false,
      "inputs": [
        {
          "indexed": true,
          "internalType": "uint256",
          "name": "proposalId",
          "type": "uint256"
        },
        {
          "indexed": true,
          "internalType": "address",
          "name": "account",
          "type": "address"
        },
        {
          "indexed": false,
          "internalType": "uint256",
          "name": "revokedUpvotes",
          "type": "uint256"
        }
      ],
      "name": "ProposalUpvoteRevoked",
      "type": "event"
    },
    {
      "anonymous": false,
      "inputs": [
        {
          "indexed": true,
          "internalType": "uint256",
          "name": "proposalId",
          "type": "uint256"
        },
        {
          "indexed": true,
          "internalType": "address",
          "name": "account",
          "type": "address"
        },
        {
          "indexed": false,
          "internalType": "uint256",
          "name": "upvotes",
          "type": "uint256"
        }
      ],
      "name": "ProposalUpvoted",
      "type": "event"
    },
    {
      "anonymous": false,
      "inputs": [
        {
          "indexed": true,
          "internalType": "uint256",
          "name": "proposalId",
          "type": "uint256"
        },
        {
          "indexed": true,
          "internalType": "address",
          "name": "account",
          "type": "address"
        },
        {
          "indexed": false,
          "internalType": "uint256",
          "name": "value",
          "type": "uint256"
        },
        {
          "indexed": false,
          "internalType": "uint256",
          "name": "weight",
          "type": "uint256"
        }
      ],
      "name": "ProposalVoteRevoked",
      "type": "event"
    },
    {
      "anonymous": false,
      "inputs": [
        {
          "indexed": true,
          "internalType": "uint256",
          "name": "proposalId",
          "type": "uint256"
        },
        {
          "indexed": true,
          "internalType": "address",
          "name": "account",
          "type": "address"
        },
        {
          "indexed": false,
          "internalType": "uint256",
          "name": "value",
          "type": "uint256"
        },
        {
          "indexed": false,
          "internalType": "uint256",
          "name": "weight",
          "type": "uint256"
        }
      ],
      "name": "ProposalVoted",
      "type": "event"
    },
    {
      "anonymous": false,
      "inputs": [
        {
          "indexed": false,
          "internalType": "uint256",
          "name": "queueExpiry",
          "type": "uint256"
        }
      ],
      "name": "QueueExpirySet",
      "type": "event"
    },
    {
      "anonymous": false,
      "inputs": [
        {
          "indexed": false,
          "internalType": "uint256",
          "name": "referendumStageDuration",
          "type": "uint256"
        }
      ],
      "name": "ReferendumStageDurationSet",
      "type": "event"
    },
    {
      "anonymous": false,
      "inputs": [
        {
          "indexed": true,
          "internalType": "address",
          "name": "registryAddress",
          "type": "address"
        }
      ],
      "name": "RegistrySet",
      "type": "event"
    },
    {
      "payable": true,
      "stateMutability": "payable",
      "type": "fallback"
    },
    {
      "constant": false,
      "inputs": [
        {
          "internalType": "uint256",
          "name": "proposalId",
          "type": "uint256"
        },
        {
          "internalType": "uint256",
          "name": "index",
          "type": "uint256"
        }
      ],
      "name": "approve",
      "outputs": [
        {
          "internalType": "bool",
          "name": "",
          "type": "bool"
        }
      ],
      "payable": false,
      "stateMutability": "nonpayable",
      "type": "function"
    },
    {
      "constant": false,
      "inputs": [
        {
          "internalType": "bytes32",
          "name": "hash",
          "type": "bytes32"
        }
      ],
      "name": "approveHotfix",
      "outputs": [],
      "payable": false,
      "stateMutability": "nonpayable",
      "type": "function"
    },
    {
      "constant": true,
      "inputs": [],
      "name": "approver",
      "outputs": [
        {
          "internalType": "address",
          "name": "",
          "type": "address"
        }
      ],
      "payable": false,
      "stateMutability": "view",
      "type": "function"
    },
    {
      "constant": true,
      "inputs": [
        {
          "internalType": "address",
          "name": "sender",
          "type": "address"
        },
        {
          "internalType": "bytes",
          "name": "blsKey",
          "type": "bytes"
        },
        {
          "internalType": "bytes",
          "name": "blsPop",
          "type": "bytes"
        }
      ],
      "name": "checkProofOfPossession",
      "outputs": [
        {
          "internalType": "bool",
          "name": "",
          "type": "bool"
        }
      ],
      "payable": false,
      "stateMutability": "view",
      "type": "function"
    },
    {
      "constant": true,
      "inputs": [],
      "name": "concurrentProposals",
      "outputs": [
        {
          "internalType": "uint256",
          "name": "",
          "type": "uint256"
        }
      ],
      "payable": false,
      "stateMutability": "view",
      "type": "function"
    },
    {
      "constant": true,
      "inputs": [],
      "name": "dequeueFrequency",
      "outputs": [
        {
          "internalType": "uint256",
          "name": "",
          "type": "uint256"
        }
      ],
      "payable": false,
      "stateMutability": "view",
      "type": "function"
    },
    {
      "constant": false,
      "inputs": [],
      "name": "dequeueProposalsIfReady",
      "outputs": [],
      "payable": false,
      "stateMutability": "nonpayable",
      "type": "function"
    },
    {
      "constant": true,
      "inputs": [
        {
          "internalType": "uint256",
          "name": "",
          "type": "uint256"
        }
      ],
      "name": "dequeued",
      "outputs": [
        {
          "internalType": "uint256",
          "name": "",
          "type": "uint256"
        }
      ],
      "payable": false,
      "stateMutability": "view",
      "type": "function"
    },
    {
      "constant": true,
      "inputs": [
        {
          "internalType": "uint256",
          "name": "",
          "type": "uint256"
        }
      ],
      "name": "emptyIndices",
      "outputs": [
        {
          "internalType": "uint256",
          "name": "",
          "type": "uint256"
        }
      ],
      "payable": false,
      "stateMutability": "view",
      "type": "function"
    },
    {
      "constant": false,
      "inputs": [
        {
          "internalType": "uint256",
          "name": "proposalId",
          "type": "uint256"
        },
        {
          "internalType": "uint256",
          "name": "index",
          "type": "uint256"
        }
      ],
      "name": "execute",
      "outputs": [
        {
          "internalType": "bool",
          "name": "",
          "type": "bool"
        }
      ],
      "payable": false,
      "stateMutability": "nonpayable",
      "type": "function"
    },
    {
      "constant": false,
      "inputs": [
        {
          "internalType": "uint256[]",
          "name": "values",
          "type": "uint256[]"
        },
        {
          "internalType": "address[]",
          "name": "destinations",
          "type": "address[]"
        },
        {
          "internalType": "bytes",
          "name": "data",
          "type": "bytes"
        },
        {
          "internalType": "uint256[]",
          "name": "dataLengths",
          "type": "uint256[]"
        },
        {
          "internalType": "bytes32",
          "name": "salt",
          "type": "bytes32"
        }
      ],
      "name": "executeHotfix",
      "outputs": [],
      "payable": false,
      "stateMutability": "nonpayable",
      "type": "function"
    },
    {
      "constant": true,
      "inputs": [
        {
          "internalType": "uint256",
          "name": "aNumerator",
          "type": "uint256"
        },
        {
          "internalType": "uint256",
          "name": "aDenominator",
          "type": "uint256"
        },
        {
          "internalType": "uint256",
          "name": "bNumerator",
          "type": "uint256"
        },
        {
          "internalType": "uint256",
          "name": "bDenominator",
          "type": "uint256"
        },
        {
          "internalType": "uint256",
          "name": "exponent",
          "type": "uint256"
        },
        {
          "internalType": "uint256",
          "name": "_decimals",
          "type": "uint256"
        }
      ],
      "name": "fractionMulExp",
      "outputs": [
        {
          "internalType": "uint256",
          "name": "",
          "type": "uint256"
        },
        {
          "internalType": "uint256",
          "name": "",
          "type": "uint256"
        }
      ],
      "payable": false,
      "stateMutability": "view",
      "type": "function"
    },
    {
      "constant": true,
      "inputs": [],
      "name": "getApprovalStageDuration",
      "outputs": [
        {
          "internalType": "uint256",
          "name": "",
          "type": "uint256"
        }
      ],
      "payable": false,
      "stateMutability": "view",
      "type": "function"
    },
    {
      "constant": true,
      "inputs": [
        {
          "internalType": "bytes",
          "name": "header",
          "type": "bytes"
        }
      ],
      "name": "getBlockNumberFromHeader",
      "outputs": [
        {
          "internalType": "uint256",
          "name": "",
          "type": "uint256"
        }
      ],
      "payable": false,
      "stateMutability": "view",
      "type": "function"
    },
    {
      "constant": true,
      "inputs": [
        {
          "internalType": "address",
          "name": "destination",
          "type": "address"
        },
        {
          "internalType": "bytes4",
          "name": "functionId",
          "type": "bytes4"
        }
      ],
      "name": "getConstitution",
      "outputs": [
        {
          "internalType": "uint256",
          "name": "",
          "type": "uint256"
        }
      ],
      "payable": false,
      "stateMutability": "view",
      "type": "function"
    },
    {
      "constant": true,
      "inputs": [],
      "name": "getDequeue",
      "outputs": [
        {
          "internalType": "uint256[]",
          "name": "",
          "type": "uint256[]"
        }
      ],
      "payable": false,
      "stateMutability": "view",
      "type": "function"
    },
    {
      "constant": true,
      "inputs": [],
      "name": "getEpochNumber",
      "outputs": [
        {
          "internalType": "uint256",
          "name": "",
          "type": "uint256"
        }
      ],
      "payable": false,
      "stateMutability": "view",
      "type": "function"
    },
    {
      "constant": true,
      "inputs": [
        {
          "internalType": "uint256",
          "name": "blockNumber",
          "type": "uint256"
        }
      ],
      "name": "getEpochNumberOfBlock",
      "outputs": [
        {
          "internalType": "uint256",
          "name": "",
          "type": "uint256"
        }
      ],
      "payable": false,
      "stateMutability": "view",
      "type": "function"
    },
    {
      "constant": true,
      "inputs": [],
      "name": "getEpochSize",
      "outputs": [
        {
          "internalType": "uint256",
          "name": "",
          "type": "uint256"
        }
      ],
      "payable": false,
      "stateMutability": "view",
      "type": "function"
    },
    {
      "constant": true,
      "inputs": [],
      "name": "getExecutionStageDuration",
      "outputs": [
        {
          "internalType": "uint256",
          "name": "",
          "type": "uint256"
        }
      ],
      "payable": false,
      "stateMutability": "view",
      "type": "function"
    },
    {
      "constant": true,
      "inputs": [
        {
          "internalType": "bytes32",
          "name": "hash",
          "type": "bytes32"
        }
      ],
      "name": "getHotfixRecord",
      "outputs": [
        {
          "internalType": "bool",
          "name": "",
          "type": "bool"
        },
        {
          "internalType": "bool",
          "name": "",
          "type": "bool"
        },
        {
          "internalType": "uint256",
          "name": "",
          "type": "uint256"
        }
      ],
      "payable": false,
      "stateMutability": "view",
      "type": "function"
    },
    {
      "constant": true,
      "inputs": [
        {
          "internalType": "address",
          "name": "account",
          "type": "address"
        }
      ],
      "name": "getMostRecentReferendumProposal",
      "outputs": [
        {
          "internalType": "uint256",
          "name": "",
          "type": "uint256"
        }
      ],
      "payable": false,
      "stateMutability": "view",
      "type": "function"
    },
    {
      "constant": true,
      "inputs": [
        {
          "internalType": "uint256",
          "name": "blockNumber",
          "type": "uint256"
        }
      ],
      "name": "getParentSealBitmap",
      "outputs": [
        {
          "internalType": "bytes32",
          "name": "",
          "type": "bytes32"
        }
      ],
      "payable": false,
      "stateMutability": "view",
      "type": "function"
    },
    {
      "constant": true,
      "inputs": [],
      "name": "getParticipationParameters",
      "outputs": [
        {
          "internalType": "uint256",
          "name": "",
          "type": "uint256"
        },
        {
          "internalType": "uint256",
          "name": "",
          "type": "uint256"
        },
        {
          "internalType": "uint256",
          "name": "",
          "type": "uint256"
        },
        {
          "internalType": "uint256",
          "name": "",
          "type": "uint256"
        }
      ],
      "payable": false,
      "stateMutability": "view",
      "type": "function"
    },
    {
      "constant": true,
      "inputs": [
        {
          "internalType": "uint256",
          "name": "proposalId",
          "type": "uint256"
        }
      ],
      "name": "getProposal",
      "outputs": [
        {
          "internalType": "address",
          "name": "",
          "type": "address"
        },
        {
          "internalType": "uint256",
          "name": "",
          "type": "uint256"
        },
        {
          "internalType": "uint256",
          "name": "",
          "type": "uint256"
        },
        {
          "internalType": "uint256",
          "name": "",
          "type": "uint256"
        },
        {
          "internalType": "string",
          "name": "",
          "type": "string"
        }
      ],
      "payable": false,
      "stateMutability": "view",
      "type": "function"
    },
    {
      "constant": true,
      "inputs": [
        {
          "internalType": "uint256",
          "name": "proposalId",
          "type": "uint256"
        }
      ],
      "name": "getProposalStage",
      "outputs": [
        {
          "internalType": "enum Proposals.Stage",
          "name": "",
          "type": "uint8"
        }
      ],
      "payable": false,
      "stateMutability": "view",
      "type": "function"
    },
    {
      "constant": true,
      "inputs": [
        {
          "internalType": "uint256",
          "name": "proposalId",
          "type": "uint256"
        },
        {
          "internalType": "uint256",
          "name": "index",
          "type": "uint256"
        }
      ],
      "name": "getProposalTransaction",
      "outputs": [
        {
          "internalType": "uint256",
          "name": "",
          "type": "uint256"
        },
        {
          "internalType": "address",
          "name": "",
          "type": "address"
        },
        {
          "internalType": "bytes",
          "name": "",
          "type": "bytes"
        }
      ],
      "payable": false,
      "stateMutability": "view",
      "type": "function"
    },
    {
      "constant": true,
      "inputs": [],
      "name": "getQueue",
      "outputs": [
        {
          "internalType": "uint256[]",
          "name": "",
          "type": "uint256[]"
        },
        {
          "internalType": "uint256[]",
          "name": "",
          "type": "uint256[]"
        }
      ],
      "payable": false,
      "stateMutability": "view",
      "type": "function"
    },
    {
      "constant": true,
      "inputs": [],
      "name": "getQueueLength",
      "outputs": [
        {
          "internalType": "uint256",
          "name": "",
          "type": "uint256"
        }
      ],
      "payable": false,
      "stateMutability": "view",
      "type": "function"
    },
    {
      "constant": true,
      "inputs": [],
      "name": "getReferendumStageDuration",
      "outputs": [
        {
          "internalType": "uint256",
          "name": "",
          "type": "uint256"
        }
      ],
      "payable": false,
      "stateMutability": "view",
      "type": "function"
    },
    {
      "constant": true,
      "inputs": [
        {
          "internalType": "address",
          "name": "account",
          "type": "address"
        }
      ],
      "name": "getUpvoteRecord",
      "outputs": [
        {
          "internalType": "uint256",
          "name": "",
          "type": "uint256"
        },
        {
          "internalType": "uint256",
          "name": "",
          "type": "uint256"
        }
      ],
      "payable": false,
      "stateMutability": "view",
      "type": "function"
    },
    {
      "constant": true,
      "inputs": [
        {
          "internalType": "uint256",
          "name": "proposalId",
          "type": "uint256"
        }
      ],
      "name": "getUpvotes",
      "outputs": [
        {
          "internalType": "uint256",
          "name": "",
          "type": "uint256"
        }
      ],
      "payable": false,
      "stateMutability": "view",
      "type": "function"
    },
    {
      "constant": true,
      "inputs": [
        {
          "internalType": "bytes",
          "name": "header",
          "type": "bytes"
        }
      ],
      "name": "getVerifiedSealBitmapFromHeader",
      "outputs": [
        {
          "internalType": "bytes32",
          "name": "",
          "type": "bytes32"
        }
      ],
      "payable": false,
      "stateMutability": "view",
      "type": "function"
    },
    {
      "constant": true,
      "inputs": [],
      "name": "getVersionNumber",
      "outputs": [
        {
          "internalType": "uint256",
          "name": "",
          "type": "uint256"
        },
        {
          "internalType": "uint256",
          "name": "",
          "type": "uint256"
        },
        {
          "internalType": "uint256",
          "name": "",
          "type": "uint256"
        },
        {
          "internalType": "uint256",
          "name": "",
          "type": "uint256"
        }
      ],
      "payable": false,
      "stateMutability": "pure",
      "type": "function"
    },
    {
      "constant": true,
      "inputs": [
        {
          "internalType": "address",
          "name": "account",
          "type": "address"
        },
        {
          "internalType": "uint256",
          "name": "index",
          "type": "uint256"
        }
      ],
      "name": "getVoteRecord",
      "outputs": [
        {
          "internalType": "uint256",
          "name": "",
          "type": "uint256"
        },
        {
          "internalType": "uint256",
          "name": "",
          "type": "uint256"
        },
        {
          "internalType": "uint256",
          "name": "",
          "type": "uint256"
        }
      ],
      "payable": false,
      "stateMutability": "view",
      "type": "function"
    },
    {
      "constant": true,
      "inputs": [
        {
          "internalType": "uint256",
          "name": "proposalId",
          "type": "uint256"
        }
      ],
      "name": "getVoteTotals",
      "outputs": [
        {
          "internalType": "uint256",
          "name": "",
          "type": "uint256"
        },
        {
          "internalType": "uint256",
          "name": "",
          "type": "uint256"
        },
        {
          "internalType": "uint256",
          "name": "",
          "type": "uint256"
        }
      ],
      "payable": false,
      "stateMutability": "view",
      "type": "function"
    },
    {
      "constant": true,
      "inputs": [
        {
          "internalType": "bytes",
          "name": "header",
          "type": "bytes"
        }
      ],
      "name": "hashHeader",
      "outputs": [
        {
          "internalType": "bytes32",
          "name": "",
          "type": "bytes32"
        }
      ],
      "payable": false,
      "stateMutability": "view",
      "type": "function"
    },
    {
      "constant": true,
      "inputs": [
        {
          "internalType": "bytes32",
          "name": "hash",
          "type": "bytes32"
        }
      ],
      "name": "hotfixWhitelistValidatorTally",
      "outputs": [
        {
          "internalType": "uint256",
          "name": "",
          "type": "uint256"
        }
      ],
      "payable": false,
      "stateMutability": "view",
      "type": "function"
    },
    {
      "constant": true,
      "inputs": [
        {
          "internalType": "bytes32",
          "name": "",
          "type": "bytes32"
        }
      ],
      "name": "hotfixes",
      "outputs": [
        {
          "internalType": "bool",
          "name": "executed",
          "type": "bool"
        },
        {
          "internalType": "bool",
          "name": "approved",
          "type": "bool"
        },
        {
          "internalType": "uint256",
          "name": "preparedEpoch",
          "type": "uint256"
        }
      ],
      "payable": false,
      "stateMutability": "view",
      "type": "function"
    },
    {
      "constant": false,
      "inputs": [
        {
          "internalType": "address",
          "name": "registryAddress",
          "type": "address"
        },
        {
          "internalType": "address",
          "name": "_approver",
          "type": "address"
        },
        {
          "internalType": "uint256",
          "name": "_concurrentProposals",
          "type": "uint256"
        },
        {
          "internalType": "uint256",
          "name": "_minDeposit",
          "type": "uint256"
        },
        {
          "internalType": "uint256",
          "name": "_queueExpiry",
          "type": "uint256"
        },
        {
          "internalType": "uint256",
          "name": "_dequeueFrequency",
          "type": "uint256"
        },
        {
          "internalType": "uint256",
          "name": "approvalStageDuration",
          "type": "uint256"
        },
        {
          "internalType": "uint256",
          "name": "referendumStageDuration",
          "type": "uint256"
        },
        {
          "internalType": "uint256",
          "name": "executionStageDuration",
          "type": "uint256"
        },
        {
          "internalType": "uint256",
          "name": "participationBaseline",
          "type": "uint256"
        },
        {
          "internalType": "uint256",
          "name": "participationFloor",
          "type": "uint256"
        },
        {
          "internalType": "uint256",
          "name": "baselineUpdateFactor",
          "type": "uint256"
        },
        {
          "internalType": "uint256",
          "name": "baselineQuorumFactor",
          "type": "uint256"
        }
      ],
      "name": "initialize",
      "outputs": [],
      "payable": false,
      "stateMutability": "nonpayable",
      "type": "function"
    },
    {
      "constant": true,
      "inputs": [],
      "name": "initialized",
      "outputs": [
        {
          "internalType": "bool",
          "name": "",
          "type": "bool"
        }
      ],
      "payable": false,
      "stateMutability": "view",
      "type": "function"
    },
    {
      "constant": true,
      "inputs": [
        {
          "internalType": "uint256",
          "name": "proposalId",
          "type": "uint256"
        }
      ],
      "name": "isApproved",
      "outputs": [
        {
          "internalType": "bool",
          "name": "",
          "type": "bool"
        }
      ],
      "payable": false,
      "stateMutability": "view",
      "type": "function"
    },
    {
      "constant": true,
      "inputs": [
        {
          "internalType": "uint256",
          "name": "proposalId",
          "type": "uint256"
        },
        {
          "internalType": "uint256",
          "name": "index",
          "type": "uint256"
        }
      ],
      "name": "isDequeuedProposal",
      "outputs": [
        {
          "internalType": "bool",
          "name": "",
          "type": "bool"
        }
      ],
      "payable": false,
      "stateMutability": "view",
      "type": "function"
    },
    {
      "constant": true,
      "inputs": [
        {
          "internalType": "uint256",
          "name": "proposalId",
          "type": "uint256"
        }
      ],
      "name": "isDequeuedProposalExpired",
      "outputs": [
        {
          "internalType": "bool",
          "name": "",
          "type": "bool"
        }
      ],
      "payable": false,
      "stateMutability": "view",
      "type": "function"
    },
    {
      "constant": true,
      "inputs": [
        {
          "internalType": "bytes32",
          "name": "hash",
          "type": "bytes32"
        }
      ],
      "name": "isHotfixPassing",
      "outputs": [
        {
          "internalType": "bool",
          "name": "",
          "type": "bool"
        }
      ],
      "payable": false,
      "stateMutability": "view",
      "type": "function"
    },
    {
      "constant": true,
      "inputs": [
        {
          "internalType": "bytes32",
          "name": "hash",
          "type": "bytes32"
        },
        {
          "internalType": "address",
          "name": "whitelister",
          "type": "address"
        }
      ],
      "name": "isHotfixWhitelistedBy",
      "outputs": [
        {
          "internalType": "bool",
          "name": "",
          "type": "bool"
        }
      ],
      "payable": false,
      "stateMutability": "view",
      "type": "function"
    },
    {
      "constant": true,
      "inputs": [],
      "name": "isOwner",
      "outputs": [
        {
          "internalType": "bool",
          "name": "",
          "type": "bool"
        }
      ],
      "payable": false,
      "stateMutability": "view",
      "type": "function"
    },
    {
      "constant": true,
      "inputs": [
        {
          "internalType": "uint256",
          "name": "proposalId",
          "type": "uint256"
        }
      ],
      "name": "isProposalPassing",
      "outputs": [
        {
          "internalType": "bool",
          "name": "",
          "type": "bool"
        }
      ],
      "payable": false,
      "stateMutability": "view",
      "type": "function"
    },
    {
      "constant": true,
      "inputs": [
        {
          "internalType": "uint256",
          "name": "proposalId",
          "type": "uint256"
        }
      ],
      "name": "isQueued",
      "outputs": [
        {
          "internalType": "bool",
          "name": "",
          "type": "bool"
        }
      ],
      "payable": false,
      "stateMutability": "view",
      "type": "function"
    },
    {
      "constant": true,
      "inputs": [
        {
          "internalType": "uint256",
          "name": "proposalId",
          "type": "uint256"
        }
      ],
      "name": "isQueuedProposalExpired",
      "outputs": [
        {
          "internalType": "bool",
          "name": "",
          "type": "bool"
        }
      ],
      "payable": false,
      "stateMutability": "view",
      "type": "function"
    },
    {
      "constant": true,
      "inputs": [
        {
          "internalType": "address",
          "name": "account",
          "type": "address"
        }
      ],
      "name": "isVoting",
      "outputs": [
        {
          "internalType": "bool",
          "name": "",
          "type": "bool"
        }
      ],
      "payable": false,
      "stateMutability": "view",
      "type": "function"
    },
    {
      "constant": true,
      "inputs": [],
      "name": "lastDequeue",
      "outputs": [
        {
          "internalType": "uint256",
          "name": "",
          "type": "uint256"
        }
      ],
      "payable": false,
      "stateMutability": "view",
      "type": "function"
    },
    {
      "constant": true,
      "inputs": [],
      "name": "minDeposit",
      "outputs": [
        {
          "internalType": "uint256",
          "name": "",
          "type": "uint256"
        }
      ],
      "payable": false,
      "stateMutability": "view",
      "type": "function"
    },
    {
      "constant": true,
      "inputs": [
        {
          "internalType": "uint256",
          "name": "blockNumber",
          "type": "uint256"
        }
      ],
      "name": "minQuorumSize",
      "outputs": [
        {
          "internalType": "uint256",
          "name": "",
          "type": "uint256"
        }
      ],
      "payable": false,
      "stateMutability": "view",
      "type": "function"
    },
    {
      "constant": true,
      "inputs": [],
      "name": "minQuorumSizeInCurrentSet",
      "outputs": [
        {
          "internalType": "uint256",
          "name": "",
          "type": "uint256"
        }
      ],
      "payable": false,
      "stateMutability": "view",
      "type": "function"
    },
    {
      "constant": true,
      "inputs": [],
      "name": "owner",
      "outputs": [
        {
          "internalType": "address",
          "name": "",
          "type": "address"
        }
      ],
      "payable": false,
      "stateMutability": "view",
      "type": "function"
    },
    {
      "constant": false,
      "inputs": [
        {
          "internalType": "bytes32",
          "name": "hash",
          "type": "bytes32"
        }
      ],
      "name": "prepareHotfix",
      "outputs": [],
      "payable": false,
      "stateMutability": "nonpayable",
      "type": "function"
    },
    {
      "constant": true,
      "inputs": [],
      "name": "proposalCount",
      "outputs": [
        {
          "internalType": "uint256",
          "name": "",
          "type": "uint256"
        }
      ],
      "payable": false,
      "stateMutability": "view",
      "type": "function"
    },
    {
      "constant": true,
      "inputs": [
        {
          "internalType": "uint256",
          "name": "proposalId",
          "type": "uint256"
        }
      ],
      "name": "proposalExists",
      "outputs": [
        {
          "internalType": "bool",
          "name": "",
          "type": "bool"
        }
      ],
      "payable": false,
      "stateMutability": "view",
      "type": "function"
    },
    {
      "constant": false,
      "inputs": [
        {
          "internalType": "uint256[]",
          "name": "values",
          "type": "uint256[]"
        },
        {
          "internalType": "address[]",
          "name": "destinations",
          "type": "address[]"
        },
        {
          "internalType": "bytes",
          "name": "data",
          "type": "bytes"
        },
        {
          "internalType": "uint256[]",
          "name": "dataLengths",
          "type": "uint256[]"
        },
        {
          "internalType": "string",
          "name": "descriptionUrl",
          "type": "string"
        }
      ],
      "name": "propose",
      "outputs": [
        {
          "internalType": "uint256",
          "name": "",
          "type": "uint256"
        }
      ],
      "payable": true,
      "stateMutability": "payable",
      "type": "function"
    },
    {
      "constant": true,
      "inputs": [],
      "name": "queueExpiry",
      "outputs": [
        {
          "internalType": "uint256",
          "name": "",
          "type": "uint256"
        }
      ],
      "payable": false,
      "stateMutability": "view",
      "type": "function"
    },
    {
      "constant": true,
      "inputs": [
        {
          "internalType": "address",
          "name": "",
          "type": "address"
        }
      ],
      "name": "refundedDeposits",
      "outputs": [
        {
          "internalType": "uint256",
          "name": "",
          "type": "uint256"
        }
      ],
      "payable": false,
      "stateMutability": "view",
      "type": "function"
    },
    {
      "constant": true,
      "inputs": [],
      "name": "registry",
      "outputs": [
        {
          "internalType": "contract IRegistry",
          "name": "",
          "type": "address"
        }
      ],
      "payable": false,
      "stateMutability": "view",
      "type": "function"
    },
    {
      "constant": false,
      "inputs": [],
      "name": "renounceOwnership",
      "outputs": [],
      "payable": false,
      "stateMutability": "nonpayable",
      "type": "function"
    },
    {
      "constant": false,
      "inputs": [
        {
          "internalType": "uint256",
          "name": "lesser",
          "type": "uint256"
        },
        {
          "internalType": "uint256",
          "name": "greater",
          "type": "uint256"
        }
      ],
      "name": "revokeUpvote",
      "outputs": [
        {
          "internalType": "bool",
          "name": "",
          "type": "bool"
        }
      ],
      "payable": false,
      "stateMutability": "nonpayable",
      "type": "function"
    },
    {
      "constant": false,
      "inputs": [],
      "name": "revokeVotes",
      "outputs": [
        {
          "internalType": "bool",
          "name": "",
          "type": "bool"
        }
      ],
      "payable": false,
      "stateMutability": "nonpayable",
      "type": "function"
    },
    {
      "constant": false,
      "inputs": [
        {
          "internalType": "uint256",
          "name": "approvalStageDuration",
          "type": "uint256"
        }
      ],
      "name": "setApprovalStageDuration",
      "outputs": [],
      "payable": false,
      "stateMutability": "nonpayable",
      "type": "function"
    },
    {
      "constant": false,
      "inputs": [
        {
          "internalType": "address",
          "name": "_approver",
          "type": "address"
        }
      ],
      "name": "setApprover",
      "outputs": [],
      "payable": false,
      "stateMutability": "nonpayable",
      "type": "function"
    },
    {
      "constant": false,
      "inputs": [
        {
          "internalType": "uint256",
          "name": "baselineQuorumFactor",
          "type": "uint256"
        }
      ],
      "name": "setBaselineQuorumFactor",
      "outputs": [],
      "payable": false,
      "stateMutability": "nonpayable",
      "type": "function"
    },
    {
      "constant": false,
      "inputs": [
        {
          "internalType": "uint256",
          "name": "baselineUpdateFactor",
          "type": "uint256"
        }
      ],
      "name": "setBaselineUpdateFactor",
      "outputs": [],
      "payable": false,
      "stateMutability": "nonpayable",
      "type": "function"
    },
    {
      "constant": false,
      "inputs": [
        {
          "internalType": "uint256",
          "name": "_concurrentProposals",
          "type": "uint256"
        }
      ],
      "name": "setConcurrentProposals",
      "outputs": [],
      "payable": false,
      "stateMutability": "nonpayable",
      "type": "function"
    },
    {
      "constant": false,
      "inputs": [
        {
          "internalType": "address",
          "name": "destination",
          "type": "address"
        },
        {
          "internalType": "bytes4",
          "name": "functionId",
          "type": "bytes4"
        },
        {
          "internalType": "uint256",
          "name": "threshold",
          "type": "uint256"
        }
      ],
      "name": "setConstitution",
      "outputs": [],
      "payable": false,
      "stateMutability": "nonpayable",
      "type": "function"
    },
    {
      "constant": false,
      "inputs": [
        {
          "internalType": "uint256",
          "name": "_dequeueFrequency",
          "type": "uint256"
        }
      ],
      "name": "setDequeueFrequency",
      "outputs": [],
      "payable": false,
      "stateMutability": "nonpayable",
      "type": "function"
    },
    {
      "constant": false,
      "inputs": [
        {
          "internalType": "uint256",
          "name": "executionStageDuration",
          "type": "uint256"
        }
      ],
      "name": "setExecutionStageDuration",
      "outputs": [],
      "payable": false,
      "stateMutability": "nonpayable",
      "type": "function"
    },
    {
      "constant": false,
      "inputs": [
        {
          "internalType": "uint256",
          "name": "_minDeposit",
          "type": "uint256"
        }
      ],
      "name": "setMinDeposit",
      "outputs": [],
      "payable": false,
      "stateMutability": "nonpayable",
      "type": "function"
    },
    {
      "constant": false,
      "inputs": [
        {
          "internalType": "uint256",
          "name": "participationBaseline",
          "type": "uint256"
        }
      ],
      "name": "setParticipationBaseline",
      "outputs": [],
      "payable": false,
      "stateMutability": "nonpayable",
      "type": "function"
    },
    {
      "constant": false,
      "inputs": [
        {
          "internalType": "uint256",
          "name": "participationFloor",
          "type": "uint256"
        }
      ],
      "name": "setParticipationFloor",
      "outputs": [],
      "payable": false,
      "stateMutability": "nonpayable",
      "type": "function"
    },
    {
      "constant": false,
      "inputs": [
        {
          "internalType": "uint256",
          "name": "_queueExpiry",
          "type": "uint256"
        }
      ],
      "name": "setQueueExpiry",
      "outputs": [],
      "payable": false,
      "stateMutability": "nonpayable",
      "type": "function"
    },
    {
      "constant": false,
      "inputs": [
        {
          "internalType": "uint256",
          "name": "referendumStageDuration",
          "type": "uint256"
        }
      ],
      "name": "setReferendumStageDuration",
      "outputs": [],
      "payable": false,
      "stateMutability": "nonpayable",
      "type": "function"
    },
    {
      "constant": false,
      "inputs": [
        {
          "internalType": "address",
          "name": "registryAddress",
          "type": "address"
        }
      ],
      "name": "setRegistry",
      "outputs": [],
      "payable": false,
      "stateMutability": "nonpayable",
      "type": "function"
    },
    {
      "constant": true,
      "inputs": [],
      "name": "stageDurations",
      "outputs": [
        {
          "internalType": "uint256",
          "name": "approval",
          "type": "uint256"
        },
        {
          "internalType": "uint256",
          "name": "referendum",
          "type": "uint256"
        },
        {
          "internalType": "uint256",
          "name": "execution",
          "type": "uint256"
        }
      ],
      "payable": false,
      "stateMutability": "view",
      "type": "function"
    },
    {
      "constant": false,
      "inputs": [
        {
          "internalType": "address",
          "name": "newOwner",
          "type": "address"
        }
      ],
      "name": "transferOwnership",
      "outputs": [],
      "payable": false,
      "stateMutability": "nonpayable",
      "type": "function"
    },
    {
      "constant": false,
      "inputs": [
        {
          "internalType": "uint256",
          "name": "proposalId",
          "type": "uint256"
        },
        {
          "internalType": "uint256",
          "name": "lesser",
          "type": "uint256"
        },
        {
          "internalType": "uint256",
          "name": "greater",
          "type": "uint256"
        }
      ],
      "name": "upvote",
      "outputs": [
        {
          "internalType": "bool",
          "name": "",
          "type": "bool"
        }
      ],
      "payable": false,
      "stateMutability": "nonpayable",
      "type": "function"
    },
    {
      "constant": true,
      "inputs": [
        {
          "internalType": "uint256",
          "name": "index",
          "type": "uint256"
        },
        {
          "internalType": "uint256",
          "name": "blockNumber",
          "type": "uint256"
        }
      ],
      "name": "validatorSignerAddressFromSet",
      "outputs": [
        {
          "internalType": "address",
          "name": "",
          "type": "address"
        }
      ],
      "payable": false,
      "stateMutability": "view",
      "type": "function"
    },
    {
      "constant": false,
      "inputs": [
        {
          "internalType": "uint256",
          "name": "proposalId",
          "type": "uint256"
        },
        {
          "internalType": "uint256",
          "name": "index",
          "type": "uint256"
        },
        {
          "internalType": "enum Proposals.VoteValue",
          "name": "value",
          "type": "uint8"
        }
      ],
      "name": "vote",
      "outputs": [
        {
          "internalType": "bool",
          "name": "",
          "type": "bool"
        }
      ],
      "payable": false,
      "stateMutability": "nonpayable",
      "type": "function"
    },
    {
      "constant": false,
      "inputs": [
        {
          "internalType": "bytes32",
          "name": "hash",
          "type": "bytes32"
        }
      ],
      "name": "whitelistHotfix",
      "outputs": [],
      "payable": false,
      "stateMutability": "nonpayable",
      "type": "function"
    },
    {
      "constant": false,
      "inputs": [],
      "name": "withdraw",
      "outputs": [
        {
          "internalType": "bool",
          "name": "",
          "type": "bool"
        }
      ],
      "payable": false,
      "stateMutability": "nonpayable",
      "type": "function"
    },
    {
      "constant": true,
      "inputs": [],
      "name": "numberValidatorsInCurrentSet",
      "outputs": [
        {
          "internalType": "uint256",
          "name": "",
          "type": "uint256"
        }
      ],
      "payable": false,
      "stateMutability": "view",
      "type": "function"
    },
    {
      "constant": true,
      "inputs": [
        {
          "internalType": "uint256",
          "name": "",
          "type": "uint256"
        }
      ],
      "name": "numberValidatorsInSet",
      "outputs": [
        {
          "internalType": "uint256",
          "name": "",
          "type": "uint256"
        }
      ],
      "payable": false,
      "stateMutability": "view",
      "type": "function"
    },
    {
      "constant": true,
      "inputs": [
        {
          "internalType": "uint256",
          "name": "index",
          "type": "uint256"
        }
      ],
      "name": "validatorSignerAddressFromCurrentSet",
      "outputs": [
        {
          "internalType": "address",
          "name": "",
          "type": "address"
        }
      ],
      "payable": false,
      "stateMutability": "view",
      "type": "function"
    },
    {
      "constant": false,
      "inputs": [
        {
          "internalType": "address",
          "name": "validator",
          "type": "address"
        }
      ],
      "name": "addValidator",
      "outputs": [],
      "payable": false,
      "stateMutability": "nonpayable",
      "type": "function"
    }
  ],
  "bytecode": "0x6080604052600180600062000019620000e860201b60201c565b9050806000806101000a81548173ffffffffffffffffffffffffffffffffffffffff021916908373ffffffffffffffffffffffffffffffffffffffff1602179055508073ffffffffffffffffffffffffffffffffffffffff16600073ffffffffffffffffffffffffffffffffffffffff167f8be0079c531659141344cd1fd0a4f28419497f9722a3daafe3b4186f6b6457e060405160405180910390a35080620000d9576001600060146101000a81548160ff0219169083151502179055505b506001808190555050620000f0565b600033905090565b61bcfe80620001006000396000f3fe6080604052600436106104ec5760003560e01c80637910867b1161028c578063b15f0f581161015a578063cea69e74116100cc578063e50e652d11610085578063e50e652d146125ff578063ec6830721461264e578063ed385274146126d6578063f2fde38b1461275a578063fae8db0a146127ab578063ffea74c0146127fa576104ec565b8063cea69e741461228a578063cf48eb94146122c5578063d704f0c514612454578063da35c6641461254c578063df4da46114612577578063e41db455146125a2576104ec565b8063c1939b201161011e578063c1939b2014611f74578063c73a6d7814612054578063c7f758a8146120a7578063c805956d146121a3578063c8d8d2b5146121e3578063cd845a761461221e576104ec565b8063b15f0f5814611e26578063b8f7700514611e61578063bbb2eab914611e8c578063c0aee5f414611ef6578063c134b2fc14611f21576104ec565b806397b9eba6116101fe578063a91ee0dc116101b7578063a91ee0dc14611c74578063aa2feb8314611cc5578063ad78c10914611d14578063add004df14611d3f578063af108a0e14611d8e578063b0f9984214611deb576104ec565b806397b9eba614611aa757806398f4270214611b355780639a6c3d8314611b845780639a7b3be714611bbf5780639b2b592f14611bea5780639cb02dfc14611c39576104ec565b80638a883626116102505780638a883626146118b05780638da5cb5b1461198c5780638e905ed6146119e35780638f32d59b14611a0e5780638fcc9cfb14611a3d5780639381ab2514611a78576104ec565b80637910867b146117515780637b103999146117a45780638018556e146117fb57806381d4728d1461183657806387ee8a0f14611885576104ec565b80633fa5fed0116103c95780635d35a3d91161033b57806367960e91116102f457806367960e91146115495780636de8a63b146116255780636f2ab69314611691578063715018a6146116e45780637385e5da146116fb57806377d26a2a14611726576104ec565b80635d35a3d9146111855780635f115a85146111e25780635f8dd6491461125f57806360b4d34d146112c857806365bbdaa01461132d5780636643ac581461150e576104ec565b806354255be01161038d57806354255be014610f645780635601eaea14610fa45780635733397814611001578063582ae53b146110685780635c759394146110c55780635d180adb14611100576104ec565b80633fa5fed014610d3457806341b3d18514610da757806345a7849914610dd25780634b2c2f4414610e375780634d238c8e14610f13576104ec565b806323f0ab65116104625780633156560e116104265780633156560e14610bc0578063344944cf14610c115780633b1eb4bf14610c645780633bb0ed2b14610cb35780633ccfd60b14610cca5780633db9dd9a14610cf9576104ec565b806323f0ab651461090b5780632762132114610aa2578063283aaefb14610af55780632c05235514610b5a57806330a095d014610b95576104ec565b8063123633ea116104b4578063123633ea1461071f5780631374b22d1461079a578063141a8dd8146107ed578063152b483414610844578063158ef93e146108a15780631c65bc61146108d0576104ec565b806301fce27e1461056757806304acaec91461061b5780630e0b78ae146106565780630f717e42146106bb5780631201a0fb146106f4575b60008036905014610565576040517f08c379a000000000000000000000000000000000000000000000000000000000815260040180806020018281038252600e8152602001807f756e6b6e6f776e206d6574686f6400000000000000000000000000000000000081525060200191505060405180910390fd5b005b34801561057357600080fd5b5061057c612825565b604051808060200180602001838103835285818151815260200191508051906020019060200280838360005b838110156105c35780820151818401526020810190506105a8565b50505050905001838103825284818151815260200191508051906020019060200280838360005b838110156106055780820151818401526020810190506105ea565b5050505090500194505050505060405180910390f35b34801561062757600080fd5b506106546004803603602081101561063e57600080fd5b81019080803590602001909291905050506129ea565b005b34801561066257600080fd5b5061068f6004803603602081101561067957600080fd5b8101908080359060200190929190505050612bc2565b604051808415151515815260200183151515158152602001828152602001935050505060405180910390f35b3480156106c757600080fd5b506106d0612c33565b60405180848152602001838152602001828152602001935050505060405180910390f35b34801561070057600080fd5b50610709612c4b565b6040518082815260200191505060405180910390f35b34801561072b57600080fd5b506107586004803603602081101561074257600080fd5b8101908080359060200190929190505050612c51565b604051808273ffffffffffffffffffffffffffffffffffffffff1673ffffffffffffffffffffffffffffffffffffffff16815260200191505060405180910390f35b3480156107a657600080fd5b506107d3600480360360208110156107bd57600080fd5b8101908080359060200190929190505050612c92565b604051808215151515815260200191505060405180910390f35b3480156107f957600080fd5b50610802612cb6565b604051808273ffffffffffffffffffffffffffffffffffffffff1673ffffffffffffffffffffffffffffffffffffffff16815260200191505060405180910390f35b34801561085057600080fd5b506108876004803603604081101561086757600080fd5b810190808035906020019092919080359060200190929190505050612cdc565b604051808215151515815260200191505060405180910390f35b3480156108ad57600080fd5b506108b6612d03565b604051808215151515815260200191505060405180910390f35b3480156108dc57600080fd5b50610909600480360360208110156108f357600080fd5b8101908080359060200190929190505050612d16565b005b34801561091757600080fd5b50610a886004803603606081101561092e57600080fd5b81019080803573ffffffffffffffffffffffffffffffffffffffff1690602001909291908035906020019064010000000081111561096b57600080fd5b82018360208201111561097d57600080fd5b8035906020019184600183028401116401000000008311171561099f57600080fd5b91908080601f016020809104026020016040519081016040528093929190818152602001838380828437600081840152601f19601f82011690508083019250505050505050919291929080359060200190640100000000811115610a0257600080fd5b820183602082011115610a1457600080fd5b80359060200191846001830284011164010000000083111715610a3657600080fd5b91908080601f016020809104026020016040519081016040528093929190818152602001838380828437600081840152601f19601f820116905080830192505050505050509192919290505050612ed1565b604051808215151515815260200191505060405180910390f35b348015610aae57600080fd5b50610adb60048036036020811015610ac557600080fd5b810190808035906020019092919050505061308a565b604051808215151515815260200191505060405180910390f35b348015610b0157600080fd5b50610b4460048036036020811015610b1857600080fd5b81019080803573ffffffffffffffffffffffffffffffffffffffff1690602001909291905050506130ae565b6040518082815260200191505060405180910390f35b348015610b6657600080fd5b50610b9360048036036020811015610b7d57600080fd5b81019080803590602001909291905050506130fa565b005b348015610ba157600080fd5b50610baa613286565b6040518082815260200191505060405180910390f35b348015610bcc57600080fd5b50610c0f60048036036020811015610be357600080fd5b81019080803573ffffffffffffffffffffffffffffffffffffffff169060200190929190505050613293565b005b348015610c1d57600080fd5b50610c4a60048036036020811015610c3457600080fd5b81019080803590602001909291905050506134fb565b604051808215151515815260200191505060405180910390f35b348015610c7057600080fd5b50610c9d60048036036020811015610c8757600080fd5b8101908080359060200190929190505050613517565b6040518082815260200191505060405180910390f35b348015610cbf57600080fd5b50610cc8613531565b005b348015610cd657600080fd5b50610cdf613920565b604051808215151515815260200191505060405180910390f35b348015610d0557600080fd5b50610d3260048036036020811015610d1c57600080fd5b8101908080359060200190929190505050613b57565b005b348015610d4057600080fd5b50610d8d60048036036040811015610d5757600080fd5b8101908080359060200190929190803573ffffffffffffffffffffffffffffffffffffffff169060200190929190505050613d2f565b604051808215151515815260200191505060405180910390f35b348015610db357600080fd5b50610dbc613d9a565b6040518082815260200191505060405180910390f35b348015610dde57600080fd5b50610e0b60048036036020811015610df557600080fd5b8101908080359060200190929190505050613da0565b604051808415151515815260200183151515158152602001828152602001935050505060405180910390f35b348015610e4357600080fd5b50610efd60048036036020811015610e5a57600080fd5b8101908080359060200190640100000000811115610e7757600080fd5b820183602082011115610e8957600080fd5b80359060200191846001830284011164010000000083111715610eab57600080fd5b91908080601f016020809104026020016040519081016040528093929190818152602001838380828437600081840152601f19601f820116905080830192505050505050509192919290505050613de4565b6040518082815260200191505060405180910390f35b348015610f1f57600080fd5b50610f6260048036036020811015610f3657600080fd5b81019080803573ffffffffffffffffffffffffffffffffffffffff169060200190929190505050613f78565b005b348015610f7057600080fd5b50610f79613fe1565b6040518085815260200184815260200183815260200182815260200194505050505060405180910390f35b348015610fb057600080fd5b50610fe760048036036040811015610fc757600080fd5b810190808035906020019092919080359060200190929190505050614008565b604051808215151515815260200191505060405180910390f35b34801561100d57600080fd5b5061104e6004803603606081101561102457600080fd5b810190808035906020019092919080359060200190929190803590602001909291905050506141f3565b604051808215151515815260200191505060405180910390f35b34801561107457600080fd5b506110a16004803603602081101561108b57600080fd5b8101908080359060200190929190505050614888565b604051808260058111156110b157fe5b60ff16815260200191505060405180910390f35b3480156110d157600080fd5b506110fe600480360360208110156110e857600080fd5b8101908080359060200190929190505050614924565b005b34801561110c57600080fd5b506111436004803603604081101561112357600080fd5b810190808035906020019092919080359060200190929190505050614afc565b604051808273ffffffffffffffffffffffffffffffffffffffff1673ffffffffffffffffffffffffffffffffffffffff16815260200191505060405180910390f35b34801561119157600080fd5b506111c8600480360360408110156111a857600080fd5b810190808035906020019092919080359060200190929190505050614c4e565b604051808215151515815260200191505060405180910390f35b3480156111ee57600080fd5b5061123b6004803603604081101561120557600080fd5b81019080803573ffffffffffffffffffffffffffffffffffffffff16906020019092919080359060200190929190505050614f33565b60405180848152602001838152602001828152602001935050505060405180910390f35b34801561126b57600080fd5b506112ae6004803603602081101561128257600080fd5b81019080803573ffffffffffffffffffffffffffffffffffffffff169060200190929190505050614fc3565b604051808215151515815260200191505060405180910390f35b3480156112d457600080fd5b50611317600480360360208110156112eb57600080fd5b81019080803573ffffffffffffffffffffffffffffffffffffffff16906020019092919050505061509f565b6040518082815260200191505060405180910390f35b6114f8600480360360a081101561134357600080fd5b810190808035906020019064010000000081111561136057600080fd5b82018360208201111561137257600080fd5b8035906020019184602083028401116401000000008311171561139457600080fd5b9091929391929390803590602001906401000000008111156113b557600080fd5b8201836020820111156113c757600080fd5b803590602001918460208302840111640100000000831117156113e957600080fd5b90919293919293908035906020019064010000000081111561140a57600080fd5b82018360208201111561141c57600080fd5b8035906020019184600183028401116401000000008311171561143e57600080fd5b90919293919293908035906020019064010000000081111561145f57600080fd5b82018360208201111561147157600080fd5b8035906020019184602083028401116401000000008311171561149357600080fd5b9091929391929390803590602001906401000000008111156114b457600080fd5b8201836020820111156114c657600080fd5b803590602001918460018302840111640100000000831117156114e857600080fd5b90919293919293905050506150b7565b6040518082815260200191505060405180910390f35b34801561151a57600080fd5b506115476004803603602081101561153157600080fd5b8101908080359060200190929190505050615433565b005b34801561155557600080fd5b5061160f6004803603602081101561156c57600080fd5b810190808035906020019064010000000081111561158957600080fd5b82018360208201111561159b57600080fd5b803590602001918460018302840111640100000000831117156115bd57600080fd5b91908080601f016020809104026020016040519081016040528093929190818152602001838380828437600081840152601f19601f8201169050808301925050505050505091929192905050506155e2565b6040518082815260200191505060405180910390f35b34801561163157600080fd5b5061163a615776565b6040518080602001828103825283818151815260200191508051906020019060200280838360005b8381101561167d578082015181840152602081019050611662565b505050509050019250505060405180910390f35b34801561169d57600080fd5b506116ca600480360360208110156116b457600080fd5b81019080803590602001909291905050506157ce565b604051808215151515815260200191505060405180910390f35b3480156116f057600080fd5b506116f961580b565b005b34801561170757600080fd5b50611710615944565b6040518082815260200191505060405180910390f35b34801561173257600080fd5b5061173b615954565b6040518082815260200191505060405180910390f35b34801561175d57600080fd5b5061178a6004803603602081101561177457600080fd5b810190808035906020019092919050505061595a565b604051808215151515815260200191505060405180910390f35b3480156117b057600080fd5b506117b961597e565b604051808273ffffffffffffffffffffffffffffffffffffffff1673ffffffffffffffffffffffffffffffffffffffff16815260200191505060405180910390f35b34801561180757600080fd5b506118346004803603602081101561181e57600080fd5b81019080803590602001909291905050506159a4565b005b34801561184257600080fd5b5061186f6004803603602081101561185957600080fd5b8101908080359060200190929190505050615b30565b6040518082815260200191505060405180910390f35b34801561189157600080fd5b5061189a615c86565b6040518082815260200191505060405180910390f35b3480156118bc57600080fd5b50611976600480360360208110156118d357600080fd5b81019080803590602001906401000000008111156118f057600080fd5b82018360208201111561190257600080fd5b8035906020019184600183028401116401000000008311171561192457600080fd5b91908080601f016020809104026020016040519081016040528093929190818152602001838380828437600081840152601f19601f820116905080830192505050505050509192919290505050615c93565b6040518082815260200191505060405180910390f35b34801561199857600080fd5b506119a1615e27565b604051808273ffffffffffffffffffffffffffffffffffffffff1673ffffffffffffffffffffffffffffffffffffffff16815260200191505060405180910390f35b3480156119ef57600080fd5b506119f8615e50565b6040518082815260200191505060405180910390f35b348015611a1a57600080fd5b50611a23615e56565b604051808215151515815260200191505060405180910390f35b348015611a4957600080fd5b50611a7660048036036020811015611a6057600080fd5b8101908080359060200190929190505050615eb4565b005b348015611a8457600080fd5b50611a8d61605d565b604051808215151515815260200191505060405180910390f35b348015611ab357600080fd5b50611b1f60048036036040811015611aca57600080fd5b81019080803573ffffffffffffffffffffffffffffffffffffffff16906020019092919080357bffffffffffffffffffffffffffffffffffffffffffffffffffffffff191690602001909291905050506164e2565b6040518082815260200191505060405180910390f35b348015611b4157600080fd5b50611b6e60048036036020811015611b5857600080fd5b81019080803590602001909291905050506164fe565b6040518082815260200191505060405180910390f35b348015611b9057600080fd5b50611bbd60048036036020811015611ba757600080fd5b8101908080359060200190929190505050616617565b005b348015611bcb57600080fd5b50611bd46167c6565b6040518082815260200191505060405180910390f35b348015611bf657600080fd5b50611c2360048036036020811015611c0d57600080fd5b81019080803590602001909291905050506167d6565b6040518082815260200191505060405180910390f35b348015611c4557600080fd5b50611c7260048036036020811015611c5c57600080fd5b81019080803590602001909291905050506167e5565b005b348015611c8057600080fd5b50611cc360048036036020811015611c9757600080fd5b81019080803573ffffffffffffffffffffffffffffffffffffffff1690602001909291905050506169a3565b005b348015611cd157600080fd5b50611cfe60048036036020811015611ce857600080fd5b8101908080359060200190929190505050616b47565b6040518082815260200191505060405180910390f35b348015611d2057600080fd5b50611d29616b68565b6040518082815260200191505060405180910390f35b348015611d4b57600080fd5b50611d7860048036036020811015611d6257600080fd5b8101908080359060200190929190505050616b75565b6040518082815260200191505060405180910390f35b348015611d9a57600080fd5b50611dd160048036036040811015611db157600080fd5b810190808035906020019092919080359060200190929190505050616b96565b604051808215151515815260200191505060405180910390f35b348015611df757600080fd5b50611e2460048036036020811015611e0e57600080fd5b8101908080359060200190929190505050617029565b005b348015611e3257600080fd5b50611e5f60048036036020811015611e4957600080fd5b81019080803590602001909291905050506171e4565b005b348015611e6d57600080fd5b50611e76617350565b6040518082815260200191505060405180910390f35b348015611e9857600080fd5b50611edc60048036036060811015611eaf57600080fd5b810190808035906020019092919080359060200190929190803560ff169060200190929190505050617360565b604051808215151515815260200191505060405180910390f35b348015611f0257600080fd5b50611f0b617a8a565b6040518082815260200191505060405180910390f35b348015611f2d57600080fd5b50611f5a60048036036020811015611f4457600080fd5b8101908080359060200190929190505050617a90565b604051808215151515815260200191505060405180910390f35b348015611f8057600080fd5b5061205260048036036101a0811015611f9857600080fd5b81019080803573ffffffffffffffffffffffffffffffffffffffff169060200190929190803573ffffffffffffffffffffffffffffffffffffffff1690602001909291908035906020019092919080359060200190929190803590602001909291908035906020019092919080359060200190929190803590602001909291908035906020019092919080359060200190929190803590602001909291908035906020019092919080359060200190929190505050617ab4565b005b34801561206057600080fd5b5061208d6004803603602081101561207757600080fd5b8101908080359060200190929190505050617be6565b604051808215151515815260200191505060405180910390f35b3480156120b357600080fd5b506120e0600480360360208110156120ca57600080fd5b8101908080359060200190929190505050617c84565b604051808673ffffffffffffffffffffffffffffffffffffffff1673ffffffffffffffffffffffffffffffffffffffff16815260200185815260200184815260200183815260200180602001828103825283818151815260200191508051906020019080838360005b83811015612164578082015181840152602081019050612149565b50505050905090810190601f1680156121915780820380516001836020036101000a031916815260200191505b50965050505050505060405180910390f35b3480156121af57600080fd5b506121b8617d56565b6040518085815260200184815260200183815260200182815260200194505050505060405180910390f35b3480156121ef57600080fd5b5061221c6004803603602081101561220657600080fd5b8101908080359060200190929190505050617df2565b005b34801561222a57600080fd5b5061226d6004803603602081101561224157600080fd5b81019080803573ffffffffffffffffffffffffffffffffffffffff169060200190929190505050617f7e565b604051808381526020018281526020019250505060405180910390f35b34801561229657600080fd5b506122c3600480360360208110156122ad57600080fd5b8101908080359060200190929190505050618000565b005b3480156122d157600080fd5b50612452600480360360a08110156122e857600080fd5b810190808035906020019064010000000081111561230557600080fd5b82018360208201111561231757600080fd5b8035906020019184602083028401116401000000008311171561233957600080fd5b90919293919293908035906020019064010000000081111561235a57600080fd5b82018360208201111561236c57600080fd5b8035906020019184602083028401116401000000008311171561238e57600080fd5b9091929391929390803590602001906401000000008111156123af57600080fd5b8201836020820111156123c157600080fd5b803590602001918460018302840111640100000000831117156123e357600080fd5b90919293919293908035906020019064010000000081111561240457600080fd5b82018360208201111561241657600080fd5b8035906020019184602083028401116401000000008311171561243857600080fd5b9091929391929390803590602001909291905050506181af565b005b34801561246057600080fd5b506124976004803603604081101561247757600080fd5b810190808035906020019092919080359060200190929190505050618596565b604051808481526020018373ffffffffffffffffffffffffffffffffffffffff1673ffffffffffffffffffffffffffffffffffffffff16815260200180602001828103825283818151815260200191508051906020019080838360005b8381101561250f5780820151818401526020810190506124f4565b50505050905090810190601f16801561253c5780820380516001836020036101000a031916815260200191505b5094505050505060405180910390f35b34801561255857600080fd5b50612561618720565b6040518082815260200191505060405180910390f35b34801561258357600080fd5b5061258c618726565b6040518082815260200191505060405180910390f35b3480156125ae57600080fd5b506125db600480360360208110156125c557600080fd5b8101908080359060200190929190505050618862565b60405180848152602001838152602001828152602001935050505060405180910390f35b34801561260b57600080fd5b506126386004803603602081101561262257600080fd5b810190808035906020019092919050505061888f565b6040518082815260200191505060405180910390f35b34801561265a57600080fd5b506126b9600480360360c081101561267157600080fd5b810190808035906020019092919080359060200190929190803590602001909291908035906020019092919080359060200190929190803590602001909291905050506188da565b604051808381526020018281526020019250505060405180910390f35b3480156126e257600080fd5b50612758600480360360608110156126f957600080fd5b81019080803573ffffffffffffffffffffffffffffffffffffffff16906020019092919080357bffffffffffffffffffffffffffffffffffffffffffffffffffffffff1916906020019092919080359060200190929190505050618aee565b005b34801561276657600080fd5b506127a96004803603602081101561277d57600080fd5b81019080803573ffffffffffffffffffffffffffffffffffffffff169060200190929190505050618e2b565b005b3480156127b757600080fd5b506127e4600480360360208110156127ce57600080fd5b8101908080359060200190929190505050618eb1565b6040518082815260200191505060405180910390f35b34801561280657600080fd5b5061280f618ffa565b6040518082815260200191505060405180910390f35b606080601273__IntegerSortedLinkedList_______________6369b317e390916040518263ffffffff1660e01b81526004018082815260200191505060006040518083038186803b15801561287a57600080fd5b505af415801561288e573d6000803e3d6000fd5b505050506040513d6000823e3d601f19601f8201168201806040525060408110156128b857600080fd5b81019080805160405193929190846401000000008211156128d857600080fd5b838201915060208201858111156128ee57600080fd5b825186602082028301116401000000008211171561290b57600080fd5b8083526020830192505050908051906020019060200280838360005b83811015612942578082015181840152602081019050612927565b505050509050016040526020018051604051939291908464010000000082111561296b57600080fd5b8382019150602082018581111561298157600080fd5b825186602082028301116401000000008211171561299e57600080fd5b8083526020830192505050908051906020019060200280838360005b838110156129d55780820151818401526020810190506129ba565b50505050905001604052505050915091509091565b6129f2615e56565b612a64576040517f08c379a00000000000000000000000000000000000000000000000000000000081526004018080602001828103825260208152602001807f4f776e61626c653a2063616c6c6572206973206e6f7420746865206f776e657281525060200191505060405180910390fd5b612a6c61b526565b612a7582619007565b9050612a8081619025565b612ad5576040517f08c379a000000000000000000000000000000000000000000000000000000000815260040180806020018281038252602781526020018061b8db6027913960400191505060405180910390fd5b612b0160196003016040518060200160405290816000820154815250508261903f90919063ffffffff16565b15612b74576040517f08c379a00000000000000000000000000000000000000000000000000000000081526004018080602001828103825260208152602001807f426173656c696e652071756f72756d20666163746f7220756e6368616e67656481525060200191505060405180910390fd5b806019600301600082015181600001559050507fddfdbe55eaaa70fe2b8bc82a9b0734c25cabe7cb6f1457f9644019f0b5ff91fc826040518082815260200191505060405180910390a15050565b60008060006011600085815260200190815260200160002060000160019054906101000a900460ff166011600086815260200190815260200160002060000160009054906101000a900460ff1660116000878152602001908152602001600020600101549250925092509193909250565b60038060000154908060010154908060020154905083565b600a5481565b6000601d8281548110612c6057fe5b9060005260206000200160009054906101000a900473ffffffffffffffffffffffffffffffffffffffff169050919050565b6000612caf600f6000848152602001908152602001600020619054565b9050919050565b600860009054906101000a900473ffffffffffffffffffffffffffffffffffffffff1681565b6000612cfb600f60008581526020019081526020016000208484619064565b905092915050565b600060149054906101000a900460ff1681565b612d1e615e56565b612d90576040517f08c379a00000000000000000000000000000000000000000000000000000000081526004018080602001828103825260208152602001807f4f776e61626c653a2063616c6c6572206973206e6f7420746865206f776e657281525060200191505060405180910390fd5b612d9861b526565b612da182619007565b9050612dac81619025565b612e01576040517f08c379a000000000000000000000000000000000000000000000000000000000815260040180806020018281038252602481526020018061bbd06024913960400191505060405180910390fd5b612e2d60196001016040518060200160405290816000820154815250508261903f90919063ffffffff16565b15612e83576040517f08c379a000000000000000000000000000000000000000000000000000000000815260040180806020018281038252602681526020018061b94a6026913960400191505060405180910390fd5b806019600101600082015181600001559050507f122a37b609e0f758b6a23c43506cb567017a4d18b21fa91312fb42b44975a5b5826040518082815260200191505060405180910390a15050565b60008060fb73ffffffffffffffffffffffffffffffffffffffff16858585604051602001808473ffffffffffffffffffffffffffffffffffffffff1673ffffffffffffffffffffffffffffffffffffffff1660601b815260140183805190602001908083835b60208310612f5a5780518252602082019150602081019050602083039250612f37565b6001836020036101000a03801982511681845116808217855250505050505090500182805190602001908083835b60208310612fab5780518252602082019150602081019050602083039250612f88565b6001836020036101000a03801982511681845116808217855250505050505090500193505050506040516020818303038152906040526040518082805190602001908083835b602083106130145780518252602082019150602081019050602083039250612ff1565b6001836020036101000a038019825116818451168082178552505050505050905001915050600060405180830381855afa9150503d8060008114613074576040519150601f19603f3d011682016040523d82523d6000602084013e613079565b606091505b505080915050809150509392505050565b60006130a7600f60008481526020019081526020016000206190f7565b9050919050565b6000601060008373ffffffffffffffffffffffffffffffffffffffff1673ffffffffffffffffffffffffffffffffffffffff168152602001908152602001600020600201549050919050565b613102615e56565b613174576040517f08c379a00000000000000000000000000000000000000000000000000000000081526004018080602001828103825260208152602001807f4f776e61626c653a2063616c6c6572206973206e6f7420746865206f776e657281525060200191505060405180910390fd5b600081116131cd576040517f08c379a000000000000000000000000000000000000000000000000000000000815260040180806020018281038252602181526020018061b8186021913960400191505060405180910390fd5b600654811415613245576040517f08c379a00000000000000000000000000000000000000000000000000000000081526004018080602001828103825260158152602001807f517565756545787069727920756e6368616e676564000000000000000000000081525060200191505060405180910390fd5b806006819055507f4ecbf0bb0701615e2d6f9b0a0996056c959fe359ce76aa7ce06c5f1d57dae4d7816040518082815260200191505060405180910390a150565b6000600360020154905090565b61329b615e56565b61330d576040517f08c379a00000000000000000000000000000000000000000000000000000000081526004018080602001828103825260208152602001807f4f776e61626c653a2063616c6c6572206973206e6f7420746865206f776e657281525060200191505060405180910390fd5b600073ffffffffffffffffffffffffffffffffffffffff168173ffffffffffffffffffffffffffffffffffffffff1614156133b0576040517f08c379a00000000000000000000000000000000000000000000000000000000081526004018080602001828103825260148152602001807f417070726f7665722063616e6e6f74206265203000000000000000000000000081525060200191505060405180910390fd5b600860009054906101000a900473ffffffffffffffffffffffffffffffffffffffff1673ffffffffffffffffffffffffffffffffffffffff168173ffffffffffffffffffffffffffffffffffffffff161415613474576040517f08c379a00000000000000000000000000000000000000000000000000000000081526004018080602001828103825260128152602001807f417070726f76657220756e6368616e676564000000000000000000000000000081525060200191505060405180910390fd5b80600860006101000a81548173ffffffffffffffffffffffffffffffffffffffff021916908373ffffffffffffffffffffffffffffffffffffffff1602179055508073ffffffffffffffffffffffffffffffffffffffff167fa03757d836cb0b61c0fbba2147f5d51d6071ff3dd5bf6963beb55563d64878e160405160405180910390a250565b6000613505615944565b61350e83615b30565b10159050919050565b600061352a82613525618726565b6192d6565b9050919050565b61354860075460095461931e90919063ffffffff16565b421061391e576000613564600a546012600001600201546193a6565b90506060601273__IntegerSortedLinkedList_______________6377b024799091846040518363ffffffff1660e01b8152600401808381526020018281526020019250505060006040518083038186803b1580156135c257600080fd5b505af41580156135d6573d6000803e3d6000fd5b505050506040513d6000823e3d601f19601f82011682018060405250602081101561360057600080fd5b810190808051604051939291908464010000000082111561362057600080fd5b8382019150602082018581111561363657600080fd5b825186602082028301116401000000008211171561365357600080fd5b8083526020830192505050908051906020019060200280838360005b8381101561368a57808201518184015260208101905061366f565b50505050905001604052505050905060008090505b828110156139135760008282815181106136b557fe5b602002602001015190506000600f600083815260200190815260200160002090506136df816193bf565b1561371857817f88e53c486703527139dfc8d97a1e559d9bd93d3f9d52cda4e06564111e7a264360405160405180910390a250506138f8565b6137928160010154600d60008460000160009054906101000a900473ffffffffffffffffffffffffffffffffffffffff1673ffffffffffffffffffffffffffffffffffffffff1673ffffffffffffffffffffffffffffffffffffffff1681526020019081526020016000205461931e90919063ffffffff16565b600d60008360000160009054906101000a900473ffffffffffffffffffffffffffffffffffffffff1673ffffffffffffffffffffffffffffffffffffffff1673ffffffffffffffffffffffffffffffffffffffff168152602001908152602001600020819055504281600201819055506000601880549050111561389057600061382b60016018805490506193e490919063ffffffff16565b90508260176018838154811061383d57fe5b90600052602060002001548154811061385257fe5b90600052602060002001819055506018818154811061386d57fe5b906000526020600020016000905580601881613889919061b539565b50506138bd565b60178290806001815401808255809150509060018203906000526020600020016000909192909190915055505b817f3e069fb74dcf5fbc07740b0d40d7f7fc48e9c0ca5dc3d19eb34d2e05d74c5543426040518082815260200191505060405180910390a250505b61390c60018261931e90919063ffffffff16565b905061369f565b504260098190555050505b565b600060018060008282540192505081905550600060015490506000600d60003373ffffffffffffffffffffffffffffffffffffffff1673ffffffffffffffffffffffffffffffffffffffff168152602001908152602001600020549050600081116139f3576040517f08c379a00000000000000000000000000000000000000000000000000000000081526004018080602001828103825260138152602001807f4e6f7468696e6720746f2077697468647261770000000000000000000000000081525060200191505060405180910390fd5b47811115613a69576040517f08c379a00000000000000000000000000000000000000000000000000000000081526004018080602001828103825260148152602001807f496e636f6e73697374656e742062616c616e636500000000000000000000000081525060200191505060405180910390fd5b6000600d60003373ffffffffffffffffffffffffffffffffffffffff1673ffffffffffffffffffffffffffffffffffffffff16815260200190815260200160002081905550613ad7813373ffffffffffffffffffffffffffffffffffffffff1661942e90919063ffffffff16565b60019250506001548114613b53576040517f08c379a000000000000000000000000000000000000000000000000000000000815260040180806020018281038252600e8152602001807f7265656e7472616e742063616c6c00000000000000000000000000000000000081525060200191505060405180910390fd5b5090565b613b5f615e56565b613bd1576040517f08c379a00000000000000000000000000000000000000000000000000000000081526004018080602001828103825260208152602001807f4f776e61626c653a2063616c6c6572206973206e6f7420746865206f776e657281525060200191505060405180910390fd5b613bd961b526565b613be282619007565b9050613bed81619025565b613c42576040517f08c379a000000000000000000000000000000000000000000000000000000000815260040180806020018281038252602781526020018061b8396027913960400191505060405180910390fd5b613c6e60196000016040518060200160405290816000820154815250508261903f90919063ffffffff16565b15613ce1576040517f08c379a00000000000000000000000000000000000000000000000000000000081526004018080602001828103825260208152602001807f50617274696369706174696f6e20626173656c696e6520756e6368616e67656481525060200191505060405180910390fd5b806019600001600082015181600001559050507f51131d2820f04a6b6edd20e22a07d5bf847e265a3906e85256fca7d6043417c5826040518082815260200191505060405180910390a15050565b60006011600084815260200190815260200160002060020160008373ffffffffffffffffffffffffffffffffffffffff1673ffffffffffffffffffffffffffffffffffffffff16815260200190815260200160002060009054906101000a900460ff16905092915050565b600c5481565b60116020528060005260406000206000915090508060000160009054906101000a900460ff16908060000160019054906101000a900460ff16908060010154905083565b60006060600060f473ffffffffffffffffffffffffffffffffffffffff16846040516020018082805190602001908083835b60208310613e395780518252602082019150602081019050602083039250613e16565b6001836020036101000a0380198251168184511680821785525050505050509050019150506040516020818303038152906040526040518082805190602001908083835b60208310613ea05780518252602082019150602081019050602083039250613e7d565b6001836020036101000a038019825116818451168082178552505050505050905001915050600060405180830381855afa9150503d8060008114613f00576040519150601f19603f3d011682016040523d82523d6000602084013e613f05565b606091505b50809350819250505080613f64576040517f08c379a000000000000000000000000000000000000000000000000000000000815260040180806020018281038252603881526020018061b9d16038913960400191505060405180910390fd5b613f6f826000619568565b92505050919050565b601d8190806001815401808255809150509060018203906000526020600020016000909192909190916101000a81548173ffffffffffffffffffffffffffffffffffffffff021916908373ffffffffffffffffffffffffffffffffffffffff1602179055505050565b60008060008060016002600180839350829250819150809050935093509350935090919293565b60006001806000828254019250508190555060006001549050614029613531565b6000806140368686619609565b91509150600061404583619054565b9050801561416f576004600581111561405a57fe5b82600581111561406657fe5b1480156140785750614077836190f7565b5b6140cd576040517f08c379a000000000000000000000000000000000000000000000000000000000815260040180806020018281038252602e81526020018061ba9e602e913960400191505060405180910390fd5b8273__Proposals_____________________________63c67e7b4b90916040518263ffffffff1660e01b81526004018082815260200191505060006040518083038186803b15801561411e57600080fd5b505af4158015614132573d6000803e3d6000fd5b50505050867f712ae1383f79ac853f8d882153778e0260ef8f03b504e2866e0593e04d2b291f60405160405180910390a261416e8388886196f0565b5b80945050505060015481146141ec576040517f08c379a000000000000000000000000000000000000000000000000000000000815260040180806020018281038252600e8152602001807f7265656e7472616e742063616c6c00000000000000000000000000000000000081525060200191505060405180910390fd5b5092915050565b60006001806000828254019250508190555060006001549050614214613531565b61421d8561980e565b1561422b5760009150614809565b60006142356198e1565b73ffffffffffffffffffffffffffffffffffffffff16636642d594336040518263ffffffff1660e01b8152600401808273ffffffffffffffffffffffffffffffffffffffff1673ffffffffffffffffffffffffffffffffffffffff16815260200191505060206040518083038186803b1580156142b157600080fd5b505afa1580156142c5573d6000803e3d6000fd5b505050506040513d60208110156142db57600080fd5b810190808051906020019092919050505090506000601060008373ffffffffffffffffffffffffffffffffffffffff1673ffffffffffffffffffffffffffffffffffffffff1681526020019081526020016000209050614341816000016000015461980e565b50600061434c6199dc565b73ffffffffffffffffffffffffffffffffffffffff166330ec70f5846040518263ffffffff1660e01b8152600401808273ffffffffffffffffffffffffffffffffffffffff1673ffffffffffffffffffffffffffffffffffffffff16815260200191505060206040518083038186803b1580156143c857600080fd5b505afa1580156143dc573d6000803e3d6000fd5b505050506040513d60208110156143f257600080fd5b810190808051906020019092919050505090506000811161445e576040517f08c379a000000000000000000000000000000000000000000000000000000000815260040180806020018281038252602281526020018061bb3c6022913960400191505060405180910390fd5b601273__IntegerSortedLinkedList_______________63bfc5163890918a6040518363ffffffff1660e01b8152600401808381526020018281526020019250505060206040518083038186803b1580156144b857600080fd5b505af41580156144cc573d6000803e3d6000fd5b505050506040513d60208110156144e257600080fd5b8101908080519060200190929190505050614548576040517f08c379a000000000000000000000000000000000000000000000000000000000815260040180806020018281038252602981526020018061ba3f6029913960400191505060405180910390fd5b6000826000016000015414806145f75750601273__IntegerSortedLinkedList_______________63bfc51638909184600001600001546040518363ffffffff1660e01b8152600401808381526020018281526020019250505060206040518083038186803b1580156145ba57600080fd5b505af41580156145ce573d6000803e3d6000fd5b505050506040513d60208110156145e457600080fd5b8101908080519060200190929190505050155b61464c576040517f08c379a000000000000000000000000000000000000000000000000000000000815260040180806020018281038252602b81526020018061bc51602b913960400191505060405180910390fd5b60006146f582601273__IntegerSortedLinkedList_______________637577759990918d6040518363ffffffff1660e01b8152600401808381526020018281526020019250505060206040518083038186803b1580156146ac57600080fd5b505af41580156146c0573d6000803e3d6000fd5b505050506040513d60208110156146d657600080fd5b810190808051906020019092919050505061931e90919063ffffffff16565b9050601273__IntegerSortedLinkedList_______________63239491ba90918b848c8c6040518663ffffffff1660e01b8152600401808681526020018581526020018481526020018381526020018281526020019550505050505060006040518083038186803b15801561476957600080fd5b505af415801561477d573d6000803e3d6000fd5b5050505060405180604001604052808a8152602001838152508360000160008201518160000155602082015181600101559050508373ffffffffffffffffffffffffffffffffffffffff16897fd19965d25ef670a1e322fbf05475924b7b12d81fd6b96ab718b261782efb3d62846040518082815260200191505060405180910390a360019550505050505b6001548114614880576040517f08c379a000000000000000000000000000000000000000000000000000000000815260040180806020018281038252600e8152602001807f7265656e7472616e742063616c6c00000000000000000000000000000000000081525060200191505060405180910390fd5b509392505050565b6000808214806148995750600b5482115b156148a7576000905061491f565b6000600f600084815260200190815260200160002090506148c783617be6565b156148eb576148d5816193bf565b6148e05760016148e3565b60055b91505061491f565b6000614901600383619ad790919063ffffffff16565b905061490d8282619b94565b614917578061491a565b60055b925050505b919050565b61492c615e56565b61499e576040517f08c379a00000000000000000000000000000000000000000000000000000000081526004018080602001828103825260208152602001807f4f776e61626c653a2063616c6c6572206973206e6f7420746865206f776e657281525060200191505060405180910390fd5b6149a661b526565b6149af82619007565b90506149ba81619025565b614a0f576040517f08c379a000000000000000000000000000000000000000000000000000000000815260040180806020018281038252602781526020018061b9aa6027913960400191505060405180910390fd5b614a3b60196002016040518060200160405290816000820154815250508261903f90919063ffffffff16565b15614aae576040517f08c379a00000000000000000000000000000000000000000000000000000000081526004018080602001828103825260208152602001807f426173656c696e652075706461746520666163746f7220756e6368616e67656481525060200191505060405180910390fd5b806019600201600082015181600001559050507f8dedb4d995dd500718c7c5f6a077fba6153a7ee063da961d9fcab90ff528ac1f826040518082815260200191505060405180910390a15050565b60006060600060fa73ffffffffffffffffffffffffffffffffffffffff16858560405160200180838152602001828152602001925050506040516020818303038152906040526040518082805190602001908083835b60208310614b755780518252602082019150602081019050602083039250614b52565b6001836020036101000a038019825116818451168082178552505050505050905001915050600060405180830381855afa9150503d8060008114614bd5576040519150601f19603f3d011682016040523d82523d6000602084013e614bda565b606091505b50809350819250505080614c39576040517f08c379a000000000000000000000000000000000000000000000000000000000815260040180806020018281038252603681526020018061ba686036913960400191505060405180910390fd5b614c44826000619c1e565b9250505092915050565b6000600860009054906101000a900473ffffffffffffffffffffffffffffffffffffffff1673ffffffffffffffffffffffffffffffffffffffff163373ffffffffffffffffffffffffffffffffffffffff1614614d13576040517f08c379a00000000000000000000000000000000000000000000000000000000081526004018080602001828103825260178152602001807f6d73672e73656e646572206e6f7420617070726f76657200000000000000000081525060200191505060405180910390fd5b614d1b613531565b600080614d288585619609565b91509150614d3582619054565b614d4457600092505050614f2d565b614d4d82619c35565b15614dc0576040517f08c379a00000000000000000000000000000000000000000000000000000000081526004018080602001828103825260198152602001807f50726f706f73616c20616c726561647920617070726f7665640000000000000081525060200191505060405180910390fd5b60026005811115614dcd57fe5b816005811115614dd957fe5b14614e4c576040517f08c379a000000000000000000000000000000000000000000000000000000000815260040180806020018281038252601e8152602001807f50726f706f73616c206e6f7420696e20617070726f76616c207374616765000081525060200191505060405180910390fd5b60018260070160006101000a81548160ff021916908315150217905550614e716199dc565b73ffffffffffffffffffffffffffffffffffffffff166330a61d596040518163ffffffff1660e01b815260040160206040518083038186803b158015614eb657600080fd5b505afa158015614eca573d6000803e3d6000fd5b505050506040513d6020811015614ee057600080fd5b81019080805190602001909291905050508260080181905550847f28ec9e38ba73636ceb2f6c1574136f83bd46284a3c74734b711bf45e12f8d92960405160405180910390a26001925050505b92915050565b600080600080601060008773ffffffffffffffffffffffffffffffffffffffff1673ffffffffffffffffffffffffffffffffffffffff1681526020019081526020016000206003016000868152602001908152602001600020905080600101548160000160009054906101000a900460ff166003811115614fb057fe5b8260020154935093509350509250925092565b600080601060008473ffffffffffffffffffffffffffffffffffffffff1673ffffffffffffffffffffffffffffffffffffffff1681526020019081526020016000209050600081600001600001549050600080821415801561502a575061502982617be6565b5b801561503c575061503a82617a90565b155b90506000600f600085600201548152602001908152602001600020905060006003600581111561506857fe5b61507c600384619ad790919063ffffffff16565b600581111561508757fe5b14905082806150935750805b95505050505050919050565b600d6020528060005260406000206000915090505481565b60006150c1613531565b600c54341015615139576040517f08c379a00000000000000000000000000000000000000000000000000000000081526004018080602001828103825260118152602001807f546f6f20736d616c6c206465706f73697400000000000000000000000000000081525060200191505060405180910390fd5b61514f6001600b5461931e90919063ffffffff16565b600b819055506000600f6000600b54815260200190815260200160002090508073__Proposals_____________________________633053123f90918e8e8e8e8e8e8e8e33346040518c63ffffffff1660e01b8152600401808c8152602001806020018060200180602001806020018773ffffffffffffffffffffffffffffffffffffffff1673ffffffffffffffffffffffffffffffffffffffff16815260200186815260200185810385528f8f82818152602001925060200280828437600081840152601f19601f82011690508083019250505085810384528d8d82818152602001925060200280828437600081840152601f19601f82011690508083019250505085810383528b8b82818152602001925080828437600081840152601f19601f8201169050808301925050508581038252898982818152602001925060200280828437600081840152601f19601f8201169050808301925050509f5050505050505050505050505050505060006040518083038186803b1580156152d457600080fd5b505af41580156152e8573d6000803e3d6000fd5b5050505061534384848080601f016020809104026020016040519081016040528093929190818152602001838380828437600081840152601f19601f8201169050808301925050505050505082619c5090919063ffffffff16565b601273__IntegerSortedLinkedList_______________63d7a8acc19091600b546040518363ffffffff1660e01b8152600401808381526020018281526020019250505060006040518083038186803b15801561539f57600080fd5b505af41580156153b3573d6000803e3d6000fd5b505050503373ffffffffffffffffffffffffffffffffffffffff16600b547f1bfe527f3548d9258c2512b6689f0acfccdd0557d80a53845db25fc57e93d8fe8360060180549050344260405180848152602001838152602001828152602001935050505060405180910390a3600b549150509a9950505050505050505050565b61543b615e56565b6154ad576040517f08c379a00000000000000000000000000000000000000000000000000000000081526004018080602001828103825260208152602001807f4f776e61626c653a2063616c6c6572206973206e6f7420746865206f776e657281525060200191505060405180910390fd5b60008111615523576040517f08c379a000000000000000000000000000000000000000000000000000000000815260040180806020018281038252601e8152602001807f4475726174696f6e206d757374206265206c6172676572207468616e2030000081525060200191505060405180910390fd5b60036002015481141561559e576040517f08c379a00000000000000000000000000000000000000000000000000000000081526004018080602001828103825260128152602001807f4475726174696f6e20756e6368616e676564000000000000000000000000000081525060200191505060405180910390fd5b806003600201819055507f7819c8059302d1d66abc7fe228ecc02214e0bc5c529956c13717aabefce937d8816040518082815260200191505060405180910390a150565b60006060600060f673ffffffffffffffffffffffffffffffffffffffff16846040516020018082805190602001908083835b602083106156375780518252602082019150602081019050602083039250615614565b6001836020036101000a0380198251168184511680821785525050505050509050019150506040516020818303038152906040526040518082805190602001908083835b6020831061569e578051825260208201915060208101905060208303925061567b565b6001836020036101000a038019825116818451168082178552505050505050905001915050600060405180830381855afa9150503d80600081146156fe576040519150601f19603f3d011682016040523d82523d6000602084013e615703565b606091505b50809350819250505080615762576040517f08c379a000000000000000000000000000000000000000000000000000000000815260040180806020018281038252602381526020018061bc7c6023913960400191505060405180910390fd5b61576d826000619568565b92505050919050565b606060178054806020026020016040519081016040528092919081815260200182805480156157c457602002820191906000526020600020905b8154815260200190600101908083116157b0575b5050505050905090565b600080600f60008481526020019081526020016000209050615803816157fe600384619ad790919063ffffffff16565b619b94565b915050919050565b615813615e56565b615885576040517f08c379a00000000000000000000000000000000000000000000000000000000081526004018080602001828103825260208152602001807f4f776e61626c653a2063616c6c6572206973206e6f7420746865206f776e657281525060200191505060405180910390fd5b600073ffffffffffffffffffffffffffffffffffffffff166000809054906101000a900473ffffffffffffffffffffffffffffffffffffffff1673ffffffffffffffffffffffffffffffffffffffff167f8be0079c531659141344cd1fd0a4f28419497f9722a3daafe3b4186f6b6457e060405160405180910390a360008060006101000a81548173ffffffffffffffffffffffffffffffffffffffff021916908373ffffffffffffffffffffffffffffffffffffffff160217905550565b600061594f4361888f565b905090565b60075481565b6000615977600f6000848152602001908152602001600020619c35565b9050919050565b600260009054906101000a900473ffffffffffffffffffffffffffffffffffffffff1681565b6159ac615e56565b615a1e576040517f08c379a00000000000000000000000000000000000000000000000000000000081526004018080602001828103825260208152602001807f4f776e61626c653a2063616c6c6572206973206e6f7420746865206f776e657281525060200191505060405180910390fd5b60008111615a77576040517f08c379a000000000000000000000000000000000000000000000000000000000815260040180806020018281038252602681526020018061bacc6026913960400191505060405180910390fd5b600754811415615aef576040517f08c379a000000000000000000000000000000000000000000000000000000000815260040180806020018281038252601a8152602001807f646571756575654672657175656e637920756e6368616e67656400000000000081525060200191505060405180910390fd5b806007819055507f391e82aae76c653cd640ad1b6028e2ee39ca4f29b30152e3d0a9ddd7e1169c34816040518082815260200191505060405180910390a150565b600080600090506000615b41615c86565b90506000615b4d6198e1565b905060008090505b82811015615c7a576000615b6882612c51565b905060008373ffffffffffffffffffffffffffffffffffffffff166393c5c487836040518263ffffffff1660e01b8152600401808273ffffffffffffffffffffffffffffffffffffffff1673ffffffffffffffffffffffffffffffffffffffff16815260200191505060206040518083038186803b158015615be957600080fd5b505afa158015615bfd573d6000803e3d6000fd5b505050506040513d6020811015615c1357600080fd5b81019080805190602001909291905050509050615c308883613d2f565b80615c415750615c408882613d2f565b5b15615c5d57615c5a60018761931e90919063ffffffff16565b95505b5050615c7360018261931e90919063ffffffff16565b9050615b55565b50829350505050919050565b6000601d80549050905090565b60006060600060f773ffffffffffffffffffffffffffffffffffffffff16846040516020018082805190602001908083835b60208310615ce85780518252602082019150602081019050602083039250615cc5565b6001836020036101000a0380198251168184511680821785525050505050509050019150506040516020818303038152906040526040518082805190602001908083835b60208310615d4f5780518252602082019150602081019050602083039250615d2c565b6001836020036101000a038019825116818451168082178552505050505050905001915050600060405180830381855afa9150503d8060008114615daf576040519150601f19603f3d011682016040523d82523d6000602084013e615db4565b606091505b50809350819250505080615e13576040517f08c379a000000000000000000000000000000000000000000000000000000000815260040180806020018281038252603181526020018061bc206031913960400191505060405180910390fd5b615e1e826000619c1e565b92505050919050565b60008060009054906101000a900473ffffffffffffffffffffffffffffffffffffffff16905090565b60065481565b60008060009054906101000a900473ffffffffffffffffffffffffffffffffffffffff1673ffffffffffffffffffffffffffffffffffffffff16615e98619cc8565b73ffffffffffffffffffffffffffffffffffffffff1614905090565b615ebc615e56565b615f2e576040517f08c379a00000000000000000000000000000000000000000000000000000000081526004018080602001828103825260208152602001807f4f776e61626c653a2063616c6c6572206973206e6f7420746865206f776e657281525060200191505060405180910390fd5b60008111615fa4576040517f08c379a00000000000000000000000000000000000000000000000000000000081526004018080602001828103825260208152602001807f6d696e4465706f736974206d757374206265206c6172676572207468616e203081525060200191505060405180910390fd5b600c5481141561601c576040517f08c379a00000000000000000000000000000000000000000000000000000000081526004018080602001828103825260198152602001807f4d696e696d756d206465706f73697420756e6368616e6765640000000000000081525060200191505060405180910390fd5b80600c819055507fc50a7f0bdf88c216b2541b0bdea26f22305460e39ffc672ec1a7501732c5ba81816040518082815260200191505060405180910390a150565b6000600180600082825401925050819055506000600154905060006160806198e1565b73ffffffffffffffffffffffffffffffffffffffff16636642d594336040518263ffffffff1660e01b8152600401808273ffffffffffffffffffffffffffffffffffffffff1673ffffffffffffffffffffffffffffffffffffffff16815260200191505060206040518083038186803b1580156160fc57600080fd5b505afa158015616110573d6000803e3d6000fd5b505050506040513d602081101561612657600080fd5b810190808051906020019092919050505090506000601060008373ffffffffffffffffffffffffffffffffffffffff1673ffffffffffffffffffffffffffffffffffffffff168152602001908152602001600020905060008090505b6017805490508110156164565760008260030160008381526020019081526020016000209050600060038111156161b557fe5b8160000160009054906101000a900460ff1660038111156161d257fe5b141580156161fa5750601782815481106161e857fe5b90600052602060002001548160010154145b1561643a57600080616210836001015485619609565b915091506003600581111561622157fe5b81600581111561622d57fe5b14156163fb578173__Proposals_____________________________63b05cd27f9091856002015460008760000160009054906101000a900460ff1660006040518663ffffffff1660e01b81526004018086815260200185815260200184815260200183600381111561629c57fe5b60ff1681526020018260038111156162b057fe5b60ff1681526020019550505050505060006040518083038186803b1580156162d757600080fd5b505af41580156162eb573d6000803e3d6000fd5b505050506162f76199dc565b73ffffffffffffffffffffffffffffffffffffffff166330a61d596040518163ffffffff1660e01b815260040160206040518083038186803b15801561633c57600080fd5b505afa158015616350573d6000803e3d6000fd5b505050506040513d602081101561636657600080fd5b810190808051906020019092919050505082600801819055508573ffffffffffffffffffffffffffffffffffffffff1683600101547fb59283e3d5436f05576bddef72ddbfb6344c216ed6ea6d7ced2e9bbb94c661ab8560000160009054906101000a900460ff1660038111156163d957fe5b8660020154604051808381526020018281526020019250505060405180910390a35b846003016000858152602001908152602001600020600080820160006101000a81549060ff021916905560018201600090556002820160009055505050505b5061644f60018261931e90919063ffffffff16565b9050616182565b506000816002018190555060019350505060015481146164de576040517f08c379a000000000000000000000000000000000000000000000000000000000815260040180806020018281038252600e8152602001807f7265656e7472616e742063616c6c00000000000000000000000000000000000081525060200191505060405180910390fd5b5090565b60006164f66164f18484619cd0565b619f22565b905092915050565b600061650982617be6565b61657b576040517f08c379a00000000000000000000000000000000000000000000000000000000081526004018080602001828103825260138152602001807f50726f706f73616c206e6f74207175657565640000000000000000000000000081525060200191505060405180910390fd5b601273__IntegerSortedLinkedList_______________63757775999091846040518363ffffffff1660e01b8152600401808381526020018281526020019250505060206040518083038186803b1580156165d557600080fd5b505af41580156165e9573d6000803e3d6000fd5b505050506040513d60208110156165ff57600080fd5b81019080805190602001909291905050509050919050565b61661f615e56565b616691576040517f08c379a00000000000000000000000000000000000000000000000000000000081526004018080602001828103825260208152602001807f4f776e61626c653a2063616c6c6572206973206e6f7420746865206f776e657281525060200191505060405180910390fd5b60008111616707576040517f08c379a000000000000000000000000000000000000000000000000000000000815260040180806020018281038252601e8152602001807f4475726174696f6e206d757374206265206c6172676572207468616e2030000081525060200191505060405180910390fd5b600360000154811415616782576040517f08c379a00000000000000000000000000000000000000000000000000000000081526004018080602001828103825260128152602001807f4475726174696f6e20756e6368616e676564000000000000000000000000000081525060200191505060405180910390fd5b806003600001819055507fbc44c003a66b841b48c220869efb738b265af305649ac8bafe8efe0c8130e313816040518082815260200191505060405180910390a150565b60006167d143613517565b905090565b6000601d805490509050919050565b806011600082815260200190815260200160002060000160009054906101000a900460ff161561687d576040517f08c379a00000000000000000000000000000000000000000000000000000000081526004018080602001828103825260178152602001807f686f7466697820616c726561647920657865637574656400000000000000000081525060200191505060405180910390fd5b616886826134fb565b6168db576040517f08c379a000000000000000000000000000000000000000000000000000000000815260040180806020018281038252602981526020018061bb136029913960400191505060405180910390fd5b60006168e56167c6565b905080601160008581526020019081526020016000206001015410616955576040517f08c379a000000000000000000000000000000000000000000000000000000000815260040180806020018281038252602681526020018061bb856026913960400191505060405180910390fd5b80601160008581526020019081526020016000206001018190555080837f6f184ec313435b3307a4fe59e2293381f08419a87214464c875a2a247e8af5e060405160405180910390a3505050565b6169ab615e56565b616a1d576040517f08c379a00000000000000000000000000000000000000000000000000000000081526004018080602001828103825260208152602001807f4f776e61626c653a2063616c6c6572206973206e6f7420746865206f776e657281525060200191505060405180910390fd5b600073ffffffffffffffffffffffffffffffffffffffff168173ffffffffffffffffffffffffffffffffffffffff161415616ac0576040517f08c379a00000000000000000000000000000000000000000000000000000000081526004018080602001828103825260208152602001807f43616e6e6f7420726567697374657220746865206e756c6c206164647265737381525060200191505060405180910390fd5b80600260006101000a81548173ffffffffffffffffffffffffffffffffffffffff021916908373ffffffffffffffffffffffffffffffffffffffff1602179055508073ffffffffffffffffffffffffffffffffffffffff167f27fe5f0c1c3b1ed427cc63d0f05759ffdecf9aec9e18d31ef366fc8a6cb5dc3b60405160405180910390a250565b60188181548110616b5457fe5b906000526020600020016000915090505481565b6000600360010154905090565b60178181548110616b8257fe5b906000526020600020016000915090505481565b60006001806000828254019250508190555060006001549050616bb7613531565b6000616bc16198e1565b73ffffffffffffffffffffffffffffffffffffffff16636642d594336040518263ffffffff1660e01b8152600401808273ffffffffffffffffffffffffffffffffffffffff1673ffffffffffffffffffffffffffffffffffffffff16815260200191505060206040518083038186803b158015616c3d57600080fd5b505afa158015616c51573d6000803e3d6000fd5b505050506040513d6020811015616c6757600080fd5b810190808051906020019092919050505090506000601060008373ffffffffffffffffffffffffffffffffffffffff1673ffffffffffffffffffffffffffffffffffffffff16815260200190815260200160002090506000816000016000015490506000811415616d40576040517f08c379a00000000000000000000000000000000000000000000000000000000081526004018080602001828103825260208152602001807f4163636f756e7420686173206e6f20686973746f726963616c207570766f746581525060200191505060405180910390fd5b616d498161980e565b50601273__IntegerSortedLinkedList_______________63bfc516389091836040518363ffffffff1660e01b8152600401808381526020018281526020019250505060206040518083038186803b158015616da457600080fd5b505af4158015616db8573d6000803e3d6000fd5b505050506040513d6020811015616dce57600080fd5b810190808051906020019092919050505015616f7257601273__IntegerSortedLinkedList_______________63239491ba909183616eb18660000160010154601273__IntegerSortedLinkedList_______________63757775999091896040518363ffffffff1660e01b8152600401808381526020018281526020019250505060206040518083038186803b158015616e6857600080fd5b505af4158015616e7c573d6000803e3d6000fd5b505050506040513d6020811015616e9257600080fd5b81019080805190602001909291905050506193e490919063ffffffff16565b8b8b6040518663ffffffff1660e01b8152600401808681526020018581526020018481526020018381526020018281526020019550505050505060006040518083038186803b158015616f0357600080fd5b505af4158015616f17573d6000803e3d6000fd5b505050508273ffffffffffffffffffffffffffffffffffffffff16817f7dc46237a819c9171a9c037ec98928e563892905c4d23373ca0f3f500f4ed11484600001600101546040518082815260200191505060405180910390a35b6040518060400160405280600081526020016000815250826000016000820151816000015560208201518160010155905050600194505050506001548114617022576040517f08c379a000000000000000000000000000000000000000000000000000000000815260040180806020018281038252600e8152602001807f7265656e7472616e742063616c6c00000000000000000000000000000000000081525060200191505060405180910390fd5b5092915050565b806011600082815260200190815260200160002060000160009054906101000a900460ff16156170c1576040517f08c379a00000000000000000000000000000000000000000000000000000000081526004018080602001828103825260178152602001807f686f7466697820616c726561647920657865637574656400000000000000000081525060200191505060405180910390fd5b600860009054906101000a900473ffffffffffffffffffffffffffffffffffffffff1673ffffffffffffffffffffffffffffffffffffffff163373ffffffffffffffffffffffffffffffffffffffff1614617184576040517f08c379a00000000000000000000000000000000000000000000000000000000081526004018080602001828103825260178152602001807f6d73672e73656e646572206e6f7420617070726f76657200000000000000000081525060200191505060405180910390fd5b60016011600084815260200190815260200160002060000160016101000a81548160ff021916908315150217905550817f36bc158cba244a94dc9b8c08d327e8f7e3c2ab5f1925454c577527466f04851f60405160405180910390a25050565b806011600082815260200190815260200160002060000160009054906101000a900460ff161561727c576040517f08c379a00000000000000000000000000000000000000000000000000000000081526004018080602001828103825260178152602001807f686f7466697820616c726561647920657865637574656400000000000000000081525060200191505060405180910390fd5b60016011600084815260200190815260200160002060020160003373ffffffffffffffffffffffffffffffffffffffff1673ffffffffffffffffffffffffffffffffffffffff16815260200190815260200160002060006101000a81548160ff021916908315150217905550817ff6d22d0b43a6753880b8f9511b82b86cd0fe349cd580bbe6a25b6dc063ef496f33604051808273ffffffffffffffffffffffffffffffffffffffff1673ffffffffffffffffffffffffffffffffffffffff16815260200191505060405180910390a25050565b6000601260000160020154905090565b60006001806000828254019250508190555060006001549050617381613531565b60008061738e8787619609565b9150915061739b82619054565b6173aa57600093505050617a0b565b60006173b46198e1565b73ffffffffffffffffffffffffffffffffffffffff16636642d594336040518263ffffffff1660e01b8152600401808273ffffffffffffffffffffffffffffffffffffffff1673ffffffffffffffffffffffffffffffffffffffff16815260200191505060206040518083038186803b15801561743057600080fd5b505afa158015617444573d6000803e3d6000fd5b505050506040513d602081101561745a57600080fd5b810190808051906020019092919050505090506000601060008373ffffffffffffffffffffffffffffffffffffffff1673ffffffffffffffffffffffffffffffffffffffff168152602001908152602001600020905060006174ba6199dc565b73ffffffffffffffffffffffffffffffffffffffff166330ec70f5846040518263ffffffff1660e01b8152600401808273ffffffffffffffffffffffffffffffffffffffff1673ffffffffffffffffffffffffffffffffffffffff16815260200191505060206040518083038186803b15801561753657600080fd5b505afa15801561754a573d6000803e3d6000fd5b505050506040513d602081101561756057600080fd5b8101908080519060200190929190505050905061757c85619c35565b6175ee576040517f08c379a00000000000000000000000000000000000000000000000000000000081526004018080602001828103825260158152602001807f50726f706f73616c206e6f7420617070726f766564000000000000000000000081525060200191505060405180910390fd5b600360058111156175fb57fe5b84600581111561760757fe5b1461767a576040517f08c379a00000000000000000000000000000000000000000000000000000000081526004018080602001828103825260188152602001807f496e636f72726563742070726f706f73616c207374617465000000000000000081525060200191505060405180910390fd5b6000600381111561768757fe5b88600381111561769357fe5b1415617707576040517f08c379a00000000000000000000000000000000000000000000000000000000081526004018080602001828103825260108152602001807f566f74652076616c756520756e7365740000000000000000000000000000000081525060200191505060405180910390fd5b6000811161777d576040517f08c379a00000000000000000000000000000000000000000000000000000000081526004018080602001828103825260118152602001807f566f74657220776569676874207a65726f00000000000000000000000000000081525060200191505060405180910390fd5b60008260030160008b815260200190815260200160002090508573__Proposals_____________________________63b05cd27f90918360020154858f8660010154146177cb5760006177de565b8560000160009054906101000a900460ff165b8e6040518663ffffffff1660e01b81526004018086815260200185815260200184815260200183600381111561781057fe5b60ff16815260200182600381111561782457fe5b60ff1681526020019550505050505060006040518083038186803b15801561784b57600080fd5b505af415801561785f573d6000803e3d6000fd5b5050505061786b6199dc565b73ffffffffffffffffffffffffffffffffffffffff166330a61d596040518163ffffffff1660e01b815260040160206040518083038186803b1580156178b057600080fd5b505afa1580156178c4573d6000803e3d6000fd5b505050506040513d60208110156178da57600080fd5b8101908080519060200190929190505050866008018190555060405180606001604052808a600381111561790a57fe5b81526020018c8152602001838152508360030160008c815260200190815260200160002060008201518160000160006101000a81548160ff0219169083600381111561795257fe5b02179055506020820151816001015560408201518160020155905050600f600084600201548152602001908152602001600020600201548660020154111561799e578a83600201819055505b8373ffffffffffffffffffffffffffffffffffffffff168b7ff3709dc32cf1356da6b8a12a5be1401aeb00989556be7b16ae566e65fef7a9df8b60038111156179e357fe5b85604051808381526020018281526020019250505060405180910390a3600197505050505050505b6001548114617a82576040517f08c379a000000000000000000000000000000000000000000000000000000000815260040180806020018281038252600e8152602001807f7265656e7472616e742063616c6c00000000000000000000000000000000000081525060200191505060405180910390fd5b509392505050565b60095481565b6000617aad600f60008481526020019081526020016000206193bf565b9050919050565b600060149054906101000a900460ff1615617b37576040517f08c379a000000000000000000000000000000000000000000000000000000000815260040180806020018281038252601c8152602001807f636f6e747261637420616c726561647920696e697469616c697a65640000000081525060200191505060405180910390fd5b6001600060146101000a81548160ff021916908315150217905550617b5b33619f30565b617b648d6169a3565b617b6d8c613293565b617b768b617df2565b617b7f8a615eb4565b617b88896130fa565b617b91886159a4565b617b9a87616617565b617ba386618000565b617bac85615433565b617bb584613b57565b617bbe83612d16565b617bc782614924565b617bd0816129ea565b4260098190555050505050505050505050505050565b6000601273__IntegerSortedLinkedList_______________63bfc516389091846040518363ffffffff1660e01b8152600401808381526020018281526020019250505060206040518083038186803b158015617c4257600080fd5b505af4158015617c56573d6000803e3d6000fd5b505050506040513d6020811015617c6c57600080fd5b81019080805190602001909291905050509050919050565b6000806000806060617ca7600f600088815260200190815260200160002061a074565b808054600181600116156101000203166002900480601f016020809104026020016040519081016040528092919081815260200182805460018160011615610100020316600290048015617d3c5780601f10617d1157610100808354040283529160200191617d3c565b820191906000526020600020905b815481529060010190602001808311617d1f57829003601f168201915b505050505090509450945094509450945091939590929450565b600080600080617d7e6019600001604051806020016040529081600082015481525050619f22565b617da06019600101604051806020016040529081600082015481525050619f22565b617dc26019600201604051806020016040529081600082015481525050619f22565b617de46019600301604051806020016040529081600082015481525050619f22565b935093509350935090919293565b617dfa615e56565b617e6c576040517f08c379a00000000000000000000000000000000000000000000000000000000081526004018080602001828103825260208152602001807f4f776e61626c653a2063616c6c6572206973206e6f7420746865206f776e657281525060200191505060405180910390fd5b60008111617ec5576040517f08c379a000000000000000000000000000000000000000000000000000000000815260040180806020018281038252602c81526020018061b860602c913960400191505060405180910390fd5b600a54811415617f3d576040517f08c379a000000000000000000000000000000000000000000000000000000000815260040180806020018281038252601d8152602001807f4e756d626572206f662070726f706f73616c7320756e6368616e67656400000081525060200191505060405180910390fd5b80600a819055507f85399b9b2595eb13c392e1638ca77730156cd8d48d4733df4db068e4aa6b93a6816040518082815260200191505060405180910390a150565b600080617f8961b565565b601060008573ffffffffffffffffffffffffffffffffffffffff1673ffffffffffffffffffffffffffffffffffffffff168152602001908152602001600020600001604051806040016040529081600082015481526020016001820154815250509050806000015181602001519250925050915091565b618008615e56565b61807a576040517f08c379a00000000000000000000000000000000000000000000000000000000081526004018080602001828103825260208152602001807f4f776e61626c653a2063616c6c6572206973206e6f7420746865206f776e657281525060200191505060405180910390fd5b600081116180f0576040517f08c379a000000000000000000000000000000000000000000000000000000000815260040180806020018281038252601e8152602001807f4475726174696f6e206d757374206265206c6172676572207468616e2030000081525060200191505060405180910390fd5b60036001015481141561816b576040517f08c379a00000000000000000000000000000000000000000000000000000000081526004018080602001828103825260128152602001807f4475726174696f6e20756e6368616e676564000000000000000000000000000081525060200191505060405180910390fd5b806003600101819055507f90290eb9b27055e686a69fb810bada5381e544d07b8270021da2d355a6c96ed6816040518082815260200191505060405180910390a150565b6000898989898989898989604051602001808060200180602001806020018060200186815260200185810385528e8e82818152602001925060200280828437600081840152601f19601f82011690508083019250505085810384528c8c82818152602001925060200280828437600081840152601f19601f82011690508083019250505085810383528a8a82818152602001925080828437600081840152601f19601f8201169050808301925050508581038252888882818152602001925060200280828437600081840152601f19601f8201169050808301925050509d505050505050505050505050505060405160208183030381529060405280519060200120905060008060006182c184612bc2565b925092509250811561833b576040517f08c379a00000000000000000000000000000000000000000000000000000000081526004018080602001828103825260178152602001807f686f7466697820616c726561647920657865637574656400000000000000000081525060200191505060405180910390fd5b826183ae576040517f08c379a00000000000000000000000000000000000000000000000000000000081526004018080602001828103825260138152602001807f686f74666978206e6f7420617070726f7665640000000000000000000000000081525060200191505060405180910390fd5b6183b66167c6565b811461840d576040517f08c379a000000000000000000000000000000000000000000000000000000000815260040180806020018281038252602681526020018061b7f26026913960400191505060405180910390fd5b61852b6185268e8e80806020026020016040519081016040528093929190818152602001838360200280828437600081840152601f19601f820116905080830192505050505050508d8d80806020026020016040519081016040528093929190818152602001838360200280828437600081840152601f19601f820116905080830192505050505050508c8c8080601f016020809104026020016040519081016040528093929190818152602001838380828437600081840152601f19601f820116905080830192505050505050508b8b80806020026020016040519081016040528093929190818152602001838360200280828437600081840152601f19601f8201169050808301925050505050505033600061a0cd565b61a2f6565b60016011600086815260200190815260200160002060000160006101000a81548160ff021916908315150217905550837f708a7934acb657a77a617b1fcd5f6d7d9ad592b72934841bff01acefd10f9b6360405160405180910390a250505050505050505050505050565b6000806060600f600086815260200190815260200160002073__Proposals_____________________________63e6a5192f9091866040518363ffffffff1660e01b8152600401808381526020018281526020019250505060006040518083038186803b15801561860657600080fd5b505af415801561861a573d6000803e3d6000fd5b505050506040513d6000823e3d601f19601f82011682018060405250606081101561864457600080fd5b8101908080519060200190929190805190602001909291908051604051939291908464010000000082111561867857600080fd5b8382019150602082018581111561868e57600080fd5b82518660018202830111640100000000821117156186ab57600080fd5b8083526020830192505050908051906020019080838360005b838110156186df5780820151818401526020810190506186c4565b50505050905090810190601f16801561870c5780820380516001836020036101000a031916815260200191505b506040525050509250925092509250925092565b600b5481565b60006060600060f873ffffffffffffffffffffffffffffffffffffffff166040516020016040516020818303038152906040526040518082805190602001908083835b6020831061878c5780518252602082019150602081019050602083039250618769565b6001836020036101000a038019825116818451168082178552505050505050905001915050600060405180830381855afa9150503d80600081146187ec576040519150601f19603f3d011682016040523d82523d6000602084013e6187f1565b606091505b50809350819250505080618850576040517f08c379a000000000000000000000000000000000000000000000000000000000815260040180806020018281038252602581526020018061bbab6025913960400191505060405180910390fd5b61885b826000619c1e565b9250505090565b6000806000618882600f600086815260200190815260200160002061a306565b9250925092509193909250565b60006188d360036188c560026188b760026188a9886167d6565b61a33090919063ffffffff16565b61931e90919063ffffffff16565b61a3b690919063ffffffff16565b9050919050565b600080600087141580156188ef575060008514155b618961576040517f08c379a00000000000000000000000000000000000000000000000000000000081526004018080602001828103825260158152602001807f612064656e6f6d696e61746f72206973207a65726f000000000000000000000081525060200191505060405180910390fd5b6000806000606060fc73ffffffffffffffffffffffffffffffffffffffff168c8c8c8c8c8c6040516020018087815260200186815260200185815260200184815260200183815260200182815260200196505050505050506040516020818303038152906040526040518082805190602001908083835b602083106189fb57805182526020820191506020810190506020830392506189d8565b6001836020036101000a038019825116818451168082178552505050505050905001915050600060405180830381855afa9150503d8060008114618a5b576040519150601f19603f3d011682016040523d82523d6000602084013e618a60565b606091505b50809250819350505081618abf576040517f08c379a000000000000000000000000000000000000000000000000000000000815260040180806020018281038252602781526020018061bb5e6027913960400191505060405180910390fd5b618aca816000619c1e565b9350618ad7816020619c1e565b925083839550955050505050965096945050505050565b618af6615e56565b618b68576040517f08c379a00000000000000000000000000000000000000000000000000000000081526004018080602001828103825260208152602001807f4f776e61626c653a2063616c6c6572206973206e6f7420746865206f776e657281525060200191505060405180910390fd5b600073ffffffffffffffffffffffffffffffffffffffff168373ffffffffffffffffffffffffffffffffffffffff161415618c0b576040517f08c379a000000000000000000000000000000000000000000000000000000000815260040180806020018281038252601a8152602001807f44657374696e6174696f6e2063616e6e6f74206265207a65726f00000000000081525060200191505060405180910390fd5b6969e10de76676d080000081118015618c335750618c2f618c2a61a400565b619f22565b8111155b618c88576040517f08c379a000000000000000000000000000000000000000000000000000000000815260040180806020018281038252604881526020018061b9026048913960600191505060405180910390fd5b600060e01b827bffffffffffffffffffffffffffffffffffffffffffffffffffffffff19161415618d1057618cbc81619007565b600e60008573ffffffffffffffffffffffffffffffffffffffff1673ffffffffffffffffffffffffffffffffffffffff16815260200190815260200160002060000160008201518160000155905050618db8565b618d1981619007565b600e60008573ffffffffffffffffffffffffffffffffffffffff1673ffffffffffffffffffffffffffffffffffffffff1681526020019081526020016000206001016000847bffffffffffffffffffffffffffffffffffffffffffffffffffffffff19167bffffffffffffffffffffffffffffffffffffffffffffffffffffffff19168152602001908152602001600020600082015181600001559050505b817bffffffffffffffffffffffffffffffffffffffffffffffffffffffff19168373ffffffffffffffffffffffffffffffffffffffff167f60c5b4756af49d7b071b00dbf0f87af605cce11896ecd3b760d19f0f9d3fbcef836040518082815260200191505060405180910390a3505050565b618e33615e56565b618ea5576040517f08c379a00000000000000000000000000000000000000000000000000000000081526004018080602001828103825260208152602001807f4f776e61626c653a2063616c6c6572206973206e6f7420746865206f776e657281525060200191505060405180910390fd5b618eae81619f30565b50565b60006060600060f573ffffffffffffffffffffffffffffffffffffffff1684604051602001808281526020019150506040516020818303038152906040526040518082805190602001908083835b60208310618f225780518252602082019150602081019050602083039250618eff565b6001836020036101000a038019825116818451168082178552505050505050905001915050600060405180830381855afa9150503d8060008114618f82576040519150601f19603f3d011682016040523d82523d6000602084013e618f87565b606091505b50809350819250505080618fe6576040517f08c379a000000000000000000000000000000000000000000000000000000000815260040180806020018281038252602c81526020018061bbf4602c913960400191505060405180910390fd5b618ff1826000619568565b92505050919050565b6000600360000154905090565b61900f61b526565b6040518060200160405280838152509050919050565b60006190388261903361a400565b61a426565b9050919050565b60008160000151836000015114905092915050565b6000808260020154119050919050565b600060178054905082106190c3576040517f08c379a000000000000000000000000000000000000000000000000000000000815260040180806020018281038252602b81526020018061bc9f602b913960400191505060405180910390fd5b6190cc84619054565b80156190ee575082601783815481106190e157fe5b9060005260206000200154145b90509392505050565b600061910161b526565b6191586191496019600301604051806020016040529081600082015481525050601960000160405180602001604052908160008201548152505061a43c90919063ffffffff16565b8461a89b90919063ffffffff16565b905060008090505b83600601805490508110156192ca57600061923285600601838154811061918357fe5b90600052602060002090600302016002018054600181600116156101000203166002900480601f0160208091040260200160405190810160405280929190818152602001828054600181600116156101000203166002900480156192285780601f106191fd57610100808354040283529160200191619228565b820191906000526020600020905b81548152906001019060200180831161920b57829003601f168201915b505050505061a98a565b905061923c61b526565b61928686600601848154811061924e57fe5b906000526020600020906003020160010160009054906101000a900473ffffffffffffffffffffffffffffffffffffffff1683619cd0565b905061929b818561a42690919063ffffffff16565b156192ad5760009450505050506192d1565b50506192c360018261931e90919063ffffffff16565b9050619160565b5060019150505b919050565b6000808284816192e257fe5b04905060008385816192f057fe5b0614156193005780915050619318565b61931460018261931e90919063ffffffff16565b9150505b92915050565b60008082840190508381101561939c576040517f08c379a000000000000000000000000000000000000000000000000000000000815260040180806020018281038252601b8152602001807f536166654d6174683a206164646974696f6e206f766572666c6f77000000000081525060200191505060405180910390fd5b8091505092915050565b60008183106193b557816193b7565b825b905092915050565b60006193da600654836002015461931e90919063ffffffff16565b4210159050919050565b600061942683836040518060400160405280601e81526020017f536166654d6174683a207375627472616374696f6e206f766572666c6f77000081525061aae7565b905092915050565b804710156194a4576040517f08c379a000000000000000000000000000000000000000000000000000000000815260040180806020018281038252601d8152602001807f416464726573733a20696e73756666696369656e742062616c616e636500000081525060200191505060405180910390fd5b60008273ffffffffffffffffffffffffffffffffffffffff168260405180600001905060006040518083038185875af1925050503d8060008114619504576040519150601f19603f3d011682016040523d82523d6000602084013e619509565b606091505b5050905080619563576040517f08c379a000000000000000000000000000000000000000000000000000000000815260040180806020018281038252603a81526020018061b970603a913960400191505060405180910390fd5b505050565b600061957e60208361931e90919063ffffffff16565b835110156195f4576040517f08c379a00000000000000000000000000000000000000000000000000000000081526004018080602001828103825260148152602001807f736c6963696e67206f7574206f662072616e676500000000000000000000000081525060200191505060405180910390fd5b60006020830184015190508091505092915050565b6000806000600f6000868152602001908152602001600020905061962e818686619064565b6196a0576040517f08c379a00000000000000000000000000000000000000000000000000000000081526004018080602001828103825260158152602001807f50726f706f73616c206e6f74206465717565756564000000000000000000000081525060200191505060405180910390fd5b60006196b6600383619ad790919063ffffffff16565b90506196c28282619b94565b156196e0576196d28287876196f0565b8160059350935050506196e9565b81819350935050505b9250929050565b6196f983619c35565b8015619709575060008360080154115b15619718576197178361aba7565b5b60006017828154811061972757fe5b90600052602060002001819055506018819080600181540180825580915050906001820390600052602060002001600090919290919091505550600f6000838152602001908152602001600020600080820160006101000a81549073ffffffffffffffffffffffffffffffffffffffff021916905560018201600090556002820160009055600382016000808201600090556001820160009055600282016000905550506006820160006197db919061b57f565b6007820160006101000a81549060ff02191690556008820160009055600982016000619807919061b5a3565b5050505050565b600061981982617be6565b801561982a575061982982617a90565b5b156198d757601273__IntegerSortedLinkedList_______________63eed5f7be9091846040518363ffffffff1660e01b8152600401808381526020018281526020019250505060006040518083038186803b15801561988957600080fd5b505af415801561989d573d6000803e3d6000fd5b50505050817f88e53c486703527139dfc8d97a1e559d9bd93d3f9d52cda4e06564111e7a264360405160405180910390a2600190506198dc565b600090505b919050565b6000600260009054906101000a900473ffffffffffffffffffffffffffffffffffffffff1673ffffffffffffffffffffffffffffffffffffffff1663dcf0aaed60405160200180807f4163636f756e74730000000000000000000000000000000000000000000000008152506008019050604051602081830303815290604052805190602001206040518263ffffffff1660e01b81526004018082815260200191505060206040518083038186803b15801561999c57600080fd5b505afa1580156199b0573d6000803e3d6000fd5b505050506040513d60208110156199c657600080fd5b8101908080519060200190929190505050905090565b6000600260009054906101000a900473ffffffffffffffffffffffffffffffffffffffff1673ffffffffffffffffffffffffffffffffffffffff1663dcf0aaed60405160200180807f4c6f636b6564476f6c6400000000000000000000000000000000000000000000815250600a019050604051602081830303815290604052805190602001206040518263ffffffff1660e01b81526004018082815260200191505060206040518083038186803b158015619a9757600080fd5b505afa158015619aab573d6000803e3d6000fd5b505050506040513d6020811015619ac157600080fd5b8101908080519060200190929190505050905090565b600080619b218360020154619b138560010154619b058760000154896002015461931e90919063ffffffff16565b61931e90919063ffffffff16565b61931e90919063ffffffff16565b9050804210619b34576005915050619b8e565b619b4b8360020154826193e490919063ffffffff16565b9050804210619b5e576004915050619b8e565b619b758360010154826193e490919063ffffffff16565b9050804210619b88576003915050619b8e565b60029150505b92915050565b600060046005811115619ba357fe5b826005811115619baf57fe5b1180619be3575060036005811115619bc357fe5b826005811115619bcf57fe5b118015619be25750619be0836190f7565b155b5b80619c16575060026005811115619bf657fe5b826005811115619c0257fe5b118015619c155750619c1383619c35565b155b5b905092915050565b6000619c2a8383619568565b60001c905092915050565b60008160070160009054906101000a900460ff169050919050565b600081511415619cab576040517f08c379a000000000000000000000000000000000000000000000000000000000815260040180806020018281038252602981526020018061b8b26029913960400191505060405180910390fd5b80826009019080519060200190619cc392919061b5eb565b505050565b600033905090565b619cd861b526565b619ce061b526565b619cf36969e10de76676d0800000619007565b90506000619da5600e60008773ffffffffffffffffffffffffffffffffffffffff1673ffffffffffffffffffffffffffffffffffffffff1681526020019081526020016000206001016000867bffffffffffffffffffffffffffffffffffffffffffffffffffffffff19167bffffffffffffffffffffffffffffffffffffffffffffffffffffffff19168152602001908152602001600020604051806020016040529081600082015481525050619f22565b14619e5757600e60008573ffffffffffffffffffffffffffffffffffffffff1673ffffffffffffffffffffffffffffffffffffffff1681526020019081526020016000206001016000847bffffffffffffffffffffffffffffffffffffffffffffffffffffffff19167bffffffffffffffffffffffffffffffffffffffffffffffffffffffff191681526020019081526020016000206040518060200160405290816000820154815250509050619f18565b6000619eb8600e60008773ffffffffffffffffffffffffffffffffffffffff1673ffffffffffffffffffffffffffffffffffffffff168152602001908152602001600020600001604051806020016040529081600082015481525050619f22565b14619f1757600e60008573ffffffffffffffffffffffffffffffffffffffff1673ffffffffffffffffffffffffffffffffffffffff16815260200190815260200160002060000160405180602001604052908160008201548152505090505b5b8091505092915050565b600081600001519050919050565b600073ffffffffffffffffffffffffffffffffffffffff168173ffffffffffffffffffffffffffffffffffffffff161415619fb6576040517f08c379a000000000000000000000000000000000000000000000000000000000815260040180806020018281038252602681526020018061b88c6026913960400191505060405180910390fd5b8073ffffffffffffffffffffffffffffffffffffffff166000809054906101000a900473ffffffffffffffffffffffffffffffffffffffff1673ffffffffffffffffffffffffffffffffffffffff167f8be0079c531659141344cd1fd0a4f28419497f9722a3daafe3b4186f6b6457e060405160405180910390a3806000806101000a81548173ffffffffffffffffffffffffffffffffffffffff021916908373ffffffffffffffffffffffffffffffffffffffff16021790555050565b60008060008060008560000160009054906101000a900473ffffffffffffffffffffffffffffffffffffffff16866001015487600201548860060180549050896009018090509450945094509450945091939590929450565b61a0d561b66b565b8551875114801561a0e7575083518651145b61a159576040517f08c379a00000000000000000000000000000000000000000000000000000000081526004018080602001828103825260158152602001807f4172726179206c656e677468206d69736d61746368000000000000000000000081525060200191505060405180910390fd5b60008751905061a16761b66b565b84816000019073ffffffffffffffffffffffffffffffffffffffff16908173ffffffffffffffffffffffffffffffffffffffff1681525050838160200181815250504281604001818152505060008090508260405190808252806020026020018201604052801561a1f257816020015b61a1df61b6ce565b81526020019060019003908161a1d75790505b50826080018190525060008090505b8381101561a2e55760405180606001604052808c838151811061a22057fe5b602002602001015181526020018b838151811061a23957fe5b602002602001015173ffffffffffffffffffffffffffffffffffffffff16815260200161a284848b858151811061a26c57fe5b60200260200101518d61ad3d9092919063ffffffff16565b8152508360800151828151811061a29757fe5b602002602001018190525061a2c888828151811061a2b157fe5b60200260200101518361931e90919063ffffffff16565b915061a2de60018261931e90919063ffffffff16565b905061a201565b508193505050509695505050505050565b61a303816080015161adc9565b50565b60008060008360030160000154846003016001015485600301600201549250925092509193909250565b60008083141561a343576000905061a3b0565b600082840290508284828161a35457fe5b041461a3ab576040517f08c379a000000000000000000000000000000000000000000000000000000000815260040180806020018281038252602181526020018061baf26021913960400191505060405180910390fd5b809150505b92915050565b600061a3f883836040518060400160405280601a81526020017f536166654d6174683a206469766973696f6e206279207a65726f00000000000081525061aed2565b905092915050565b61a40861b526565b604051806020016040528069d3c21bcecceda1000000815250905090565b6000816000015183600001511115905092915050565b61a44461b526565b60008360000151148061a45b575060008260000151145b1561a4775760405180602001604052806000815250905061a895565b69d3c21bcecceda10000008260000151141561a4955782905061a895565b69d3c21bcecceda10000008360000151141561a4b35781905061a895565b600069d3c21bcecceda100000061a4c98561af98565b600001518161a4d457fe5b049050600061a4e28561afcf565b600001519050600069d3c21bcecceda100000061a4fe8661af98565b600001518161a50957fe5b049050600061a5178661afcf565b600001519050600082850290506000851461a5ab578285828161a53657fe5b041461a5aa576040517f08c379a00000000000000000000000000000000000000000000000000000000081526004018080602001828103825260168152602001807f6f766572666c6f7720783179312064657465637465640000000000000000000081525060200191505060405180910390fd5b5b600069d3c21bcecceda1000000820290506000821461a64d5769d3c21bcecceda100000082828161a5d857fe5b041461a64c576040517f08c379a000000000000000000000000000000000000000000000000000000000815260040180806020018281038252601f8152602001807f6f766572666c6f772078317931202a206669786564312064657465637465640081525060200191505060405180910390fd5b5b809150600084860290506000861461a6de578486828161a66957fe5b041461a6dd576040517f08c379a00000000000000000000000000000000000000000000000000000000081526004018080602001828103825260168152602001807f6f766572666c6f7720783279312064657465637465640000000000000000000081525060200191505060405180910390fd5b5b600084880290506000881461a76c578488828161a6f757fe5b041461a76b576040517f08c379a00000000000000000000000000000000000000000000000000000000081526004018080602001828103825260168152602001807f6f766572666c6f7720783179322064657465637465640000000000000000000081525060200191505060405180910390fd5b5b61a77461b00c565b878161a77c57fe5b04965061a78761b00c565b858161a78f57fe5b049450600085880290506000881461a820578588828161a7ab57fe5b041461a81f576040517f08c379a00000000000000000000000000000000000000000000000000000000081526004018080602001828103825260168152602001807f6f766572666c6f7720783279322064657465637465640000000000000000000081525060200191505060405180910390fd5b5b61a82861b526565b604051806020016040528087815250905061a8518160405180602001604052808781525061b019565b905061a86b8160405180602001604052808681525061b019565b905061a8858160405180602001604052808581525061b019565b9050809a50505050505050505050505b92915050565b61a8a361b526565b600083600301600001549050600081141561a8ca5761a8c2600061b0c2565b91505061a984565b600084600301600101549050600061a904866003016002015461a8f6848661931e90919063ffffffff16565b61931e90919063ffffffff16565b9050600061a92f61a92a61a91b896008015461b0c2565b8861a43c90919063ffffffff16565b61b14c565b90508181111561a9615761a95e61a94f83836193e490919063ffffffff16565b8461931e90919063ffffffff16565b92505b61a97d8461a978858761931e90919063ffffffff16565b61b16d565b9450505050505b92915050565b600060188260038151811061a99b57fe5b602001015160f81c60f81b7effffffffffffffffffffffffffffffffffffffffffffffffffffffffffffff19167bffffffffffffffffffffffffffffffffffffffffffffffffffffffff1916901c60108360028151811061a9f857fe5b602001015160f81c60f81b7effffffffffffffffffffffffffffffffffffffffffffffffffffffffffffff19167bffffffffffffffffffffffffffffffffffffffffffffffffffffffff1916901c60088460018151811061aa5557fe5b602001015160f81c60f81b7effffffffffffffffffffffffffffffffffffffffffffffffffffffffffffff19167bffffffffffffffffffffffffffffffffffffffffffffffffffffffff1916901c8460008151811061aab057fe5b602001015160f81c60f81b7effffffffffffffffffffffffffffffffffffffffffffffffffffffffffffff19161717179050919050565b600083831115829061ab94576040517f08c379a00000000000000000000000000000000000000000000000000000000081526004018080602001828103825283818151815260200191508051906020019080838360005b8381101561ab5957808201518184015260208101905061ab3e565b50505050905090810190601f16801561ab865780820380516001836020036101000a031916815260200191505b509250505060405180910390fd5b5060008385039050809150509392505050565b61abaf61b526565b61abb88261b1af565b905061abc261b526565b61abee60196002016040518060200160405290816000820154815250508361a43c90919063ffffffff16565b905061abf861b526565b61ac5661ac2e601960020160405180602001604052908160008201548152505061ac2061a400565b61b20b90919063ffffffff16565b601960000160405180602001604052908160008201548152505061a43c90919063ffffffff16565b905061ac6b818361b01990919063ffffffff16565b60196000016000820151816000015590505061acc26019600101604051806020016040529081600082015481525050601960000160405180602001604052908160008201548152505061b2b290919063ffffffff16565b1561acdf5760196001016019600001600082015481600001559050505b7f51131d2820f04a6b6edd20e22a07d5bf847e265a3906e85256fca7d6043417c561ad226019600001604051806020016040529081600082015481525050619f22565b6040518082815260200191505060405180910390a150505050565b60608183018451101561ad4f57600080fd5b606082156000811461ad6c5760405191506020820160405261adbd565b6040519150601f8416801560200281840101858101878315602002848b0101015b8183101561adaa578051835260208301925060208101905061ad8d565b50868552601f19601f8301166040525050505b50809150509392505050565b60008090505b815181101561aece5761ae4182828151811061ade757fe5b60200260200101516020015183838151811061adff57fe5b60200260200101516000015184848151811061ae1757fe5b6020026020010151604001515185858151811061ae3057fe5b60200260200101516040015161b2c7565b61aeb3576040517f08c379a00000000000000000000000000000000000000000000000000000000081526004018080602001828103825260198152602001807f50726f706f73616c20657865637574696f6e206661696c65640000000000000081525060200191505060405180910390fd5b61aec760018261931e90919063ffffffff16565b905061adcf565b5050565b6000808311829061af7e576040517f08c379a00000000000000000000000000000000000000000000000000000000081526004018080602001828103825283818151815260200191508051906020019080838360005b8381101561af4357808201518184015260208101905061af28565b50505050905090810190601f16801561af705780820380516001836020036101000a031916815260200191505b509250505060405180910390fd5b50600083858161af8a57fe5b049050809150509392505050565b61afa061b526565b604051806020016040528069d3c21bcecceda10000008085600001518161afc357fe5b04028152509050919050565b61afd761b526565b604051806020016040528069d3c21bcecceda10000008085600001518161affa57fe5b04028460000151038152509050919050565b600064e8d4a51000905090565b61b02161b526565b600082600001518460000151019050836000015181101561b0aa576040517f08c379a00000000000000000000000000000000000000000000000000000000081526004018080602001828103825260158152602001807f616464206f766572666c6f77206465746563746564000000000000000000000081525060200191505060405180910390fd5b60405180602001604052808281525091505092915050565b61b0ca61b526565b61b0d261b373565b82111561b12a576040517f08c379a000000000000000000000000000000000000000000000000000000000815260040180806020018281038252603681526020018061ba096036913960400191505060405180910390fd5b604051806020016040528069d3c21bcecceda100000084028152509050919050565b600069d3c21bcecceda100000082600001518161b16557fe5b049050919050565b61b17561b526565b61b17d61b526565b61b1868461b0c2565b905061b19061b526565b61b1998461b0c2565b905061b1a5828261b392565b9250505092915050565b61b1b761b526565b600061b1f3836003016002015461b1e58560030160010154866003016000015461931e90919063ffffffff16565b61931e90919063ffffffff16565b905061b20381846008015461b16d565b915050919050565b61b21361b526565b81600001518360000151101561b291576040517f08c379a000000000000000000000000000000000000000000000000000000000815260040180806020018281038252601f8152602001807f737562737472616374696f6e20756e646572666c6f772064657465637465640081525060200191505060405180910390fd5b60405180602001604052808360000151856000015103815250905092915050565b60008160000151836000015110905092915050565b600080600084111561b34f5761b2dc8661b4db565b61b34e576040517f08c379a00000000000000000000000000000000000000000000000000000000081526004018080602001828103825260188152602001807f496e76616c696420636f6e74726163742061646472657373000000000000000081525060200191505060405180910390fd5b5b6040516020840160008287838a8c6187965a03f19250505080915050949350505050565b60007601357c299a88ea76a58924d52ce4f26a85af186c2b9e74905090565b61b39a61b526565b60008260000151141561b415576040517f08c379a00000000000000000000000000000000000000000000000000000000081526004018080602001828103825260118152602001807f63616e277420646976696465206279203000000000000000000000000000000081525060200191505060405180910390fd5b600069d3c21bcecceda10000008460000151029050836000015169d3c21bcecceda1000000828161b44257fe5b041461b4b6576040517f08c379a00000000000000000000000000000000000000000000000000000000081526004018080602001828103825260128152602001807f6f766572666c6f7720617420646976696465000000000000000000000000000081525060200191505060405180910390fd5b60405180602001604052808460000151838161b4ce57fe5b0481525091505092915050565b60008060007fc5d2460186f7233c927e7db2dcc703c0e500b653ca82273b7bfad8045d85a47060001b9050833f915080821415801561b51d57506000801b8214155b92505050919050565b6040518060200160405280600081525090565b81548183558181111561b5605781836000526020600020918201910161b55f919061b705565b5b505050565b604051806040016040528060008152602001600081525090565b508054600082556003029060005260206000209081019061b5a0919061b72a565b50565b50805460018160011615610100020316600290046000825580601f1061b5c9575061b5e8565b601f01602090049060005260206000209081019061b5e7919061b705565b5b50565b828054600181600116156101000203166002900490600052602060002090601f016020900481019282601f1061b62c57805160ff191683800117855561b65a565b8280016001018555821561b65a579182015b8281111561b65957825182559160200191906001019061b63e565b5b50905061b667919061b705565b5090565b604051806101000160405280600073ffffffffffffffffffffffffffffffffffffffff168152602001600081526020016000815260200161b6aa61b788565b81526020016060815260200160001515815260200160008152602001606081525090565b604051806060016040528060008152602001600073ffffffffffffffffffffffffffffffffffffffff168152602001606081525090565b61b72791905b8082111561b72357600081600090555060010161b70b565b5090565b90565b61b78591905b8082111561b781576000808201600090556001820160006101000a81549073ffffffffffffffffffffffffffffffffffffffff021916905560028201600061b778919061b7a9565b5060030161b730565b5090565b90565b60405180606001604052806000815260200160008152602001600081525090565b50805460018160011615610100020316600290046000825580601f1061b7cf575061b7ee565b601f01602090049060005260206000209081019061b7ed919061b705565b5b5056fe686f74666978206d75737420626520707265706172656420666f7220746869732065706f63685175657565457870697279206d757374206265206c6172676572207468616e203050617274696369706174696f6e20626173656c696e652067726561746572207468616e206f6e654e756d626572206f662070726f706f73616c73206d757374206265206c6172676572207468616e207a65726f4f776e61626c653a206e6577206f776e657220697320746865207a65726f20616464726573734465736372697074696f6e2075726c206d7573742068617665206e6f6e2d7a65726f206c656e677468426173656c696e652071756f72756d20666163746f722067726561746572207468616e206f6e655468726573686f6c642068617320746f2062652067726561746572207468616e206d616a6f7269747920616e64206e6f742067726561746572207468616e20756e616e696d69747950617274696369706174696f6e20626173656c696e6520666c6f6f7220756e6368616e676564416464726573733a20756e61626c6520746f2073656e642076616c75652c20726563697069656e74206d61792068617665207265766572746564426173656c696e652075706461746520666163746f722067726561746572207468616e206f6e656572726f722063616c6c696e672067657456657269666965645365616c4269746d617046726f6d48656164657220707265636f6d70696c6563616e277420637265617465206669786964697479206e756d626572206c6172676572207468616e206d61784e65774669786564282963616e6e6f74207570766f746520612070726f706f73616c206e6f7420696e207468652071756575656572726f722063616c6c696e672076616c696461746f725369676e65724164647265737346726f6d53657420707265636f6d70696c6550726f706f73616c206e6f7420696e20657865637574696f6e207374616765206f72206e6f742070617373696e67646571756575654672657175656e6379206d757374206265206c6172676572207468616e2030536166654d6174683a206d756c7469706c69636174696f6e206f766572666c6f77686f74666978206e6f742077686974656c69737465642062792032662b312076616c696461746f727363616e6e6f74207570766f746520776974686f7574206c6f636b696e6720676f6c646572726f722063616c6c696e67206672616374696f6e4d756c45787020707265636f6d70696c65686f7466697820616c726561647920707265706172656420666f7220746869732065706f63686572726f722063616c6c696e672067657445706f636853697a6520707265636f6d70696c6550617274696369706174696f6e20666c6f6f722067726561746572207468616e206f6e656572726f722063616c6c696e6720676574506172656e745365616c4269746d617020707265636f6d70696c656572726f722063616c6c696e6720676574426c6f636b4e756d62657246726f6d48656164657220707265636f6d70696c6563616e6e6f74207570766f7465206d6f7265207468616e206f6e65207175657565642070726f706f73616c6572726f722063616c6c696e67206861736848656164657220707265636f6d70696c6550726f766964656420696e6465782067726561746572207468616e2064657175657565206c656e6774682ea265627a7a723158209ce7d4128083bec79ae4b17da875f90f6770d877168eb71afe74d8aa884d3a9e64736f6c634300050d0032",
  "source": "pragma solidity ^0.5.13;\n\nimport \"../Governance.sol\";\n\ncontract GovernanceTest is Governance(true) {\n  address[] validatorSet;\n\n  // Minimally override core functions from UsingPrecompiles\n  function numberValidatorsInCurrentSet() public view returns (uint256) {\n    return validatorSet.length;\n  }\n\n  function numberValidatorsInSet(uint256) public view returns (uint256) {\n    return validatorSet.length;\n  }\n\n  function validatorSignerAddressFromCurrentSet(uint256 index) public view returns (address) {\n    return validatorSet[index];\n  }\n\n  // Expose test utilities\n  function addValidator(address validator) external {\n    validatorSet.push(validator);\n  }\n}\n",
  "sourcePath": "/Users/hiroki.yasui/go/src/github.com/celo-org/celo-monorepo/packages/protocol/contracts/governance/test/GovernanceTest.sol",
  "compiler": {
    "name": "solc",
    "version": "0.5.13+commit.5b0b510c.Emscripten.clang"
  },
  "schemaVersion": "3.0.23",
  "updatedAt": "2022-05-06T03:53:12.970Z",
  "devdoc": {
    "methods": {
      "approve(uint256,uint256)": {
        "params": {
          "index": "The index of the proposal ID in `dequeued`.",
          "proposalId": "The ID of the proposal to approve."
        },
        "return": "Whether or not the approval was made successfully."
      },
      "approveHotfix(bytes32)": {
        "params": {
          "hash": "The abi encoded keccak256 hash of the hotfix transaction(s) to be approved."
        }
      },
      "checkProofOfPossession(address,bytes,bytes)": {
        "params": {
          "blsKey": "The BLS public key that the validator is using for consensus, should pass proof  of possession. 48 bytes.",
          "blsPop": "The BLS public key proof-of-possession, which consists of a signature on the  account address. 96 bytes.",
          "sender": "The address signed by the BLS key to generate the proof of possession."
        },
        "return": "True upon success."
      },
      "dequeueProposalsIfReady()": {
        "details": "If any of the top proposals have expired, they are deleted."
      },
      "execute(uint256,uint256)": {
        "details": "Does not remove the proposal if the execution fails.",
        "params": {
          "index": "The index of the proposal ID in `dequeued`.",
          "proposalId": "The ID of the proposal to vote on."
        },
        "return": "Whether or not the proposal was executed successfully."
      },
      "executeHotfix(uint256[],address[],bytes,uint256[],bytes32)": {
        "details": "Reverts if hotfix is already executed, not approved, or not prepared for current epoch.",
        "params": {
          "data": "The concatenated data to be included in the proposed transactions.",
          "dataLengths": "The lengths of each transaction's data.",
          "destinations": "The destination addresses of the proposed transactions.",
          "salt": "Arbitrary salt associated with hotfix which guarantees uniqueness of hash.",
          "values": "The values of CELO to be sent in the proposed transactions."
        }
      },
      "fractionMulExp(uint256,uint256,uint256,uint256,uint256,uint256)": {
        "params": {
          "_decimals": "precision",
          "aDenominator": "Denominator of first fraction",
          "aNumerator": "Numerator of first fraction",
          "bDenominator": "Denominator of exponentiated fraction",
          "bNumerator": "Numerator of exponentiated fraction",
          "exponent": "exponent to raise b to"
        },
        "return": "numerator/denominator of the computed quantity (not reduced)."
      },
      "getApprovalStageDuration()": {
        "return": "The number of seconds proposals stay in approval stage."
      },
      "getBlockNumberFromHeader(bytes)": {
        "params": {
          "header": "RLP encoded header"
        },
        "return": "Block number."
      },
      "getConstitution(address,bytes4)": {
        "params": {
          "destination": "The destination address to get the constitution for.",
          "functionId": "The function ID to get the constitution for, zero for the destination  default."
        },
        "return": "The ratio of yes:no votes needed to exceed in order to pass the proposal."
      },
      "getDequeue()": {
        "details": "Note that this includes unused indices with proposalId == 0 from deleted proposals.",
        "return": "The dequeued proposal IDs."
      },
      "getEpochNumber()": {
        "return": "Current epoch number."
      },
      "getEpochNumberOfBlock(uint256)": {
        "params": {
          "blockNumber": "Block number where epoch number is calculated."
        },
        "return": "Epoch number."
      },
      "getEpochSize()": {
        "return": "The current epoch size in blocks."
      },
      "getExecutionStageDuration()": {
        "return": "The number of seconds proposals stay in the execution stage."
      },
      "getHotfixRecord(bytes32)": {
        "params": {
          "hash": "The abi encoded keccak256 hash of the hotfix transaction."
        },
        "return": "Hotfix tuple of (approved, executed, preparedEpoch)"
      },
      "getMostRecentReferendumProposal(address)": {
        "params": {
          "account": "The address of the account."
        },
        "return": "The ID of the most recently dequeued proposal voted on by `account`.."
      },
      "getParentSealBitmap(uint256)": {
        "params": {
          "blockNumber": "Block number to retrieve. Must be within 4 epochs of the current number."
        },
        "return": "Bitmap parent seal with set bits at indices corresponding to signing validators."
      },
      "getParticipationParameters()": {
        "return": "The participation parameters."
      },
      "getProposal(uint256)": {
        "params": {
          "proposalId": "The ID of the proposal to unpack."
        },
        "return": "The unpacked proposal with its transaction count."
      },
      "getProposalStage(uint256)": {
        "params": {
          "proposalId": "The ID of the proposal to query."
        },
        "return": "proposal stage"
      },
      "getProposalTransaction(uint256,uint256)": {
        "params": {
          "index": "The index of the specified transaction in the proposal's transaction list.",
          "proposalId": "The ID of the proposal to query."
        },
        "return": "The specified transaction."
      },
      "getQueue()": {
        "details": "Note that this includes expired proposals that have yet to be removed from the queue.",
        "return": "The proposal ID and upvote total for all queued proposals."
      },
      "getQueueLength()": {
        "return": "The number of proposals in the queue."
      },
      "getReferendumStageDuration()": {
        "return": "The number of seconds proposals stay in the referendum stage."
      },
      "getUpvoteRecord(address)": {
        "params": {
          "account": "The address of the account."
        },
        "return": "The ID of the proposal upvoted by `account` and the weight of that upvote."
      },
      "getUpvotes(uint256)": {
        "params": {
          "proposalId": "The ID of the proposal."
        },
        "return": "The number of upvotes a queued proposal has received."
      },
      "getVerifiedSealBitmapFromHeader(bytes)": {
        "params": {
          "header": "RLP encoded header"
        },
        "return": "Bitmap parent seal with set bits at indices correspoinding to signing validators."
      },
      "getVersionNumber()": {
        "return": "The storage, major, minor, and patch version of the contract."
      },
      "getVoteRecord(address,uint256)": {
        "params": {
          "account": "The address of the account to get the record for.",
          "index": "The index in `dequeued`."
        },
        "return": "The corresponding proposal ID, vote value, and weight."
      },
      "getVoteTotals(uint256)": {
        "params": {
          "proposalId": "The ID of the proposal."
        },
        "return": "The yes, no, and abstain vote totals."
      },
      "hashHeader(bytes)": {
        "params": {
          "header": "RLP encoded header"
        },
        "return": "Header hash."
      },
      "hotfixWhitelistValidatorTally(bytes32)": {
        "params": {
          "hash": "The abi encoded keccak256 hash of the hotfix transaction."
        },
        "return": "Whitelist tally"
      },
      "initialize(address,address,uint256,uint256,uint256,uint256,uint256,uint256,uint256,uint256,uint256,uint256,uint256)": {
        "details": "Should be called only once.",
        "params": {
          "_approver": "The address that needs to approve proposals to move to the referendum stage.",
          "_concurrentProposals": "The number of proposals to dequeue at once.",
          "_dequeueFrequency": "The number of seconds before the next batch of proposals can be  dequeued.",
          "_minDeposit": "The minimum CELO deposit needed to make a proposal.",
          "_queueExpiry": "The number of seconds a proposal can stay in the queue before expiring.",
          "approvalStageDuration": "The number of seconds the approver has to approve a proposal  after it is dequeued.",
          "baselineQuorumFactor": "The proportion of the baseline that constitutes quorum.",
          "baselineUpdateFactor": "The weight of the new participation in the baseline update rule.",
          "executionStageDuration": "The number of seconds users have to execute a passed proposal  after the referendum stage ends.",
          "participationBaseline": "The initial value of the participation baseline.",
          "participationFloor": "The participation floor.",
          "referendumStageDuration": "The number of seconds users have to vote on a dequeued proposal  after the approval stage ends.",
          "registryAddress": "The address of the registry contract."
        }
      },
      "isApproved(uint256)": {
        "params": {
          "proposalId": "The ID of the proposal."
        },
        "return": "Whether or not the proposal has been approved."
      },
      "isDequeuedProposal(uint256,uint256)": {
        "params": {
          "index": "The index of the proposal ID in `dequeued`.",
          "proposalId": "The ID of the proposal."
        },
        "return": "Whether the proposal is in `dequeued`."
      },
      "isDequeuedProposalExpired(uint256)": {
        "params": {
          "proposalId": "The ID of the proposal."
        },
        "return": "Whether or not the dequeued proposal has expired."
      },
      "isHotfixPassing(bytes32)": {
        "params": {
          "hash": "The abi encoded keccak256 hash of the hotfix transaction."
        },
        "return": "Whether validator whitelist tally >= validator byzantine quorum"
      },
      "isHotfixWhitelistedBy(bytes32,address)": {
        "params": {
          "hash": "The abi encoded keccak256 hash of the hotfix transaction(s) to be whitelisted.",
          "whitelister": "Address to check whitelist status of."
        }
      },
      "isOwner()": {
        "details": "Returns true if the caller is the current owner."
      },
      "isProposalPassing(uint256)": {
        "params": {
          "proposalId": "The ID of the proposal."
        },
        "return": "Whether or not the proposal is passing."
      },
      "isQueued(uint256)": {
        "details": "NOTE: proposal may be expired",
        "params": {
          "proposalId": "The ID of the proposal."
        },
        "return": "Whether or not the proposal is in the queue."
      },
      "isQueuedProposalExpired(uint256)": {
        "params": {
          "proposalId": "The ID of the proposal."
        },
        "return": "Whether or not the dequeued proposal has expired."
      },
      "isVoting(address)": {
        "params": {
          "account": "The address of the account."
        },
        "return": "Whether or not the account is voting on proposals."
      },
      "minQuorumSize(uint256)": {
        "details": "Computed in celo-blockchain as int(math.Ceil(float64(2*valSet.Size()) / 3))"
      },
      "minQuorumSizeInCurrentSet()": {
        "return": "Byzantine quorum of validators."
      },
      "owner()": {
        "details": "Returns the address of the current owner."
      },
      "prepareHotfix(bytes32)": {
        "params": {
          "hash": "The hash of the hotfix to be prepared."
        }
      },
      "proposalExists(uint256)": {
        "params": {
          "proposalId": "The ID of the proposal."
        },
        "return": "Whether or not the proposal exists."
      },
      "propose(uint256[],address[],bytes,uint256[],string)": {
        "details": "The minimum deposit must be included with the proposal, returned if/when the proposal is  dequeued.",
        "params": {
          "data": "The concatenated data to be included in the proposed transactions.",
          "dataLengths": "The lengths of each transaction's data.",
          "destinations": "The destination addresses of the proposed transactions.",
          "values": "The values of CELO to be sent in the proposed transactions."
        },
        "return": "The ID of the newly proposed proposal."
      },
      "renounceOwnership()": {
        "details": "Leaves the contract without owner. It will not be possible to call `onlyOwner` functions anymore. Can only be called by the current owner.     * NOTE: Renouncing ownership will leave the contract without an owner, thereby removing any functionality that is only available to the owner."
      },
      "revokeUpvote(uint256,uint256)": {
        "details": "Provide 0 for `lesser`/`greater` when the proposal will be at the tail/head of the queue.",
        "params": {
          "greater": "The ID of the proposal that will be just ahead of the previously upvoted  proposal in the queue.",
          "lesser": "The ID of the proposal that will be just behind the previously upvoted proposal  in the queue."
        },
        "return": "Whether or not the upvote was revoked successfully."
      },
      "revokeVotes()": {
        "return": "Whether or not all votes of an account were successfully revoked."
      },
      "setApprovalStageDuration(uint256)": {
        "params": {
          "approvalStageDuration": "The number of seconds proposals stay in the approval stage."
        }
      },
      "setApprover(address)": {
        "params": {
          "_approver": "The address that has permission to approve proposals in the approval stage."
        }
      },
      "setBaselineQuorumFactor(uint256)": {
        "params": {
          "baselineQuorumFactor": "The new baseline quorum factor."
        }
      },
      "setBaselineUpdateFactor(uint256)": {
        "params": {
          "baselineUpdateFactor": "The new baseline update factor."
        }
      },
      "setConcurrentProposals(uint256)": {
        "params": {
          "_concurrentProposals": "The number of proposals to dequeue at at a time."
        }
      },
      "setConstitution(address,bytes4,uint256)": {
        "details": "If no constitution is explicitly set the default is a simple majority, i.e. 1:2.",
        "params": {
          "destination": "The destination of proposals for which this threshold should apply.",
          "functionId": "The function ID of proposals for which this threshold should apply. Zero  will set the default.",
          "threshold": "The threshold."
        }
      },
      "setDequeueFrequency(uint256)": {
        "params": {
          "_dequeueFrequency": "The number of seconds before the next batch of proposals can be  dequeued."
        }
      },
      "setExecutionStageDuration(uint256)": {
        "params": {
          "executionStageDuration": "The number of seconds proposals stay in the execution stage."
        }
      },
      "setMinDeposit(uint256)": {
        "params": {
          "_minDeposit": "The minimum CELO deposit needed to make a proposal."
        }
      },
      "setParticipationBaseline(uint256)": {
        "params": {
          "participationBaseline": "The value of the baseline."
        }
      },
      "setParticipationFloor(uint256)": {
        "params": {
          "participationFloor": "The value at which the baseline is floored."
        }
      },
      "setQueueExpiry(uint256)": {
        "params": {
          "_queueExpiry": "The number of seconds a proposal can stay in the queue before expiring."
        }
      },
      "setReferendumStageDuration(uint256)": {
        "params": {
          "referendumStageDuration": "The number of seconds proposals stay in the referendum stage."
        }
      },
      "setRegistry(address)": {
        "params": {
          "registryAddress": "The address of a registry contract for routing to other contracts."
        }
      },
      "transferOwnership(address)": {
        "details": "Transfers ownership of the contract to a new account (`newOwner`). Can only be called by the current owner."
      },
      "upvote(uint256,uint256,uint256)": {
        "details": "Provide 0 for `lesser`/`greater` when the proposal will be at the tail/head of the queue.Reverts if the account has already upvoted a proposal in the queue.",
        "params": {
          "greater": "The ID of the proposal that will be just ahead `proposalId` in the queue.",
          "lesser": "The ID of the proposal that will be just behind `proposalId` in the queue.",
          "proposalId": "The ID of the proposal to upvote."
        },
        "return": "Whether or not the upvote was made successfully."
      },
      "validatorSignerAddressFromSet(uint256,uint256)": {
        "params": {
          "blockNumber": "Block number to retrieve the validator set from.",
          "index": "Index of requested validator in the validator set."
        },
        "return": "Address of validator at the requested index."
      },
      "vote(uint256,uint256,uint8)": {
        "params": {
          "index": "The index of the proposal ID in `dequeued`.",
          "proposalId": "The ID of the proposal to vote on.",
          "value": "Whether to vote yes, no, or abstain."
        },
        "return": "Whether or not the vote was cast successfully."
      },
      "whitelistHotfix(bytes32)": {
        "params": {
          "hash": "The abi encoded keccak256 hash of the hotfix transaction(s) to be whitelisted."
        }
      },
      "withdraw()": {
        "return": "Whether or not the withdraw was successful."
      }
    }
  },
  "userdoc": {
    "methods": {
      "approve(uint256,uint256)": {
        "notice": "Approves a proposal in the approval stage."
      },
      "approveHotfix(bytes32)": {
        "notice": "Approves the hash of a hotfix transaction(s)."
      },
      "checkProofOfPossession(address,bytes,bytes)": {
        "notice": "Checks a BLS proof of possession."
      },
      "dequeueProposalsIfReady()": {
        "notice": "Removes the proposals with the most upvotes from the queue, moving them to the  approval stage."
      },
      "execute(uint256,uint256)": {
        "notice": "Executes a proposal in the execution stage, removing it from `dequeued`."
      },
      "executeHotfix(uint256[],address[],bytes,uint256[],bytes32)": {
        "notice": "Executes a whitelisted proposal."
      },
      "fractionMulExp(uint256,uint256,uint256,uint256,uint256,uint256)": {
        "notice": "calculate a * b^x for fractions a, b to `decimals` precision"
      },
      "getApprovalStageDuration()": {
        "notice": "Returns the number of seconds proposals stay in approval stage."
      },
      "getBlockNumberFromHeader(bytes)": {
        "notice": "Parses block number out of header."
      },
      "getConstitution(address,bytes4)": {
        "notice": "Returns the constitution for a particular destination and function ID."
      },
      "getDequeue()": {
        "notice": "Returns the dequeued proposal IDs."
      },
      "getEpochNumber()": {
        "notice": "Returns the epoch number at a block."
      },
      "getEpochNumberOfBlock(uint256)": {
        "notice": "Returns the epoch number at a block."
      },
      "getEpochSize()": {
        "notice": "Returns the current epoch size in blocks."
      },
      "getExecutionStageDuration()": {
        "notice": "Returns the number of seconds proposals stay in the execution stage."
      },
      "getHotfixRecord(bytes32)": {
        "notice": "Gets information about a hotfix."
      },
      "getMostRecentReferendumProposal(address)": {
        "notice": "Returns the ID of the most recently dequeued proposal voted on by `account`."
      },
      "getParentSealBitmap(uint256)": {
        "notice": "Gets the parent seal bitmap from the header at the given block number."
      },
      "getParticipationParameters()": {
        "notice": "Returns the participation parameters."
      },
      "getProposal(uint256)": {
        "notice": "Returns an unpacked proposal struct with its transaction count."
      },
      "getProposalStage(uint256)": {
        "notice": "Returns stage of governance process given proposal is in"
      },
      "getProposalTransaction(uint256,uint256)": {
        "notice": "Returns a specified transaction in a proposal."
      },
      "getQueue()": {
        "notice": "Returns the proposal ID and upvote total for all queued proposals."
      },
      "getQueueLength()": {
        "notice": "Returns the number of proposals in the queue."
      },
      "getReferendumStageDuration()": {
        "notice": "Returns the number of seconds proposals stay in the referendum stage."
      },
      "getUpvoteRecord(address)": {
        "notice": "Returns the ID of the proposal upvoted by `account` and the weight of that upvote."
      },
      "getUpvotes(uint256)": {
        "notice": "Returns the number of upvotes the queued proposal has received."
      },
      "getVerifiedSealBitmapFromHeader(bytes)": {
        "notice": "Verifies the BLS signature on the header and returns the seal bitmap. The validator set used for verification is retrieved based on the parent hash field of the header.  If the parent hash is not in the blockchain, verification fails."
      },
      "getVersionNumber()": {
        "notice": "Returns the storage, major, minor, and patch version of the contract."
      },
      "getVoteRecord(address,uint256)": {
        "notice": "Returns an accounts vote record on a particular index in `dequeued`."
      },
      "getVoteTotals(uint256)": {
        "notice": "Returns the referendum vote totals for a proposal."
      },
      "hashHeader(bytes)": {
        "notice": "Computes hash of header."
      },
      "hotfixWhitelistValidatorTally(bytes32)": {
        "notice": "Returns number of validators from current set which have whitelisted the given hotfix."
      },
      "initialize(address,address,uint256,uint256,uint256,uint256,uint256,uint256,uint256,uint256,uint256,uint256,uint256)": {
        "notice": "Used in place of the constructor to allow the contract to be upgradable via proxy."
      },
      "isApproved(uint256)": {
        "notice": "Returns whether or not a proposal has been approved."
      },
      "isDequeuedProposal(uint256,uint256)": {
        "notice": "Returns whether a proposal is dequeued at the given index."
      },
      "isDequeuedProposalExpired(uint256)": {
        "notice": "Returns whether or not a dequeued proposal has expired."
      },
      "isHotfixPassing(bytes32)": {
        "notice": "Checks if a byzantine quorum of validators has whitelisted the given hotfix."
      },
      "isHotfixWhitelistedBy(bytes32,address)": {
        "notice": "Returns whether given hotfix hash has been whitelisted by given address."
      },
      "isProposalPassing(uint256)": {
        "notice": "Returns whether or not a particular proposal is passing according to the constitution  and the participation levels."
      },
      "isQueued(uint256)": {
        "notice": "Returns whether or not a proposal is in the queue."
      },
      "isQueuedProposalExpired(uint256)": {
        "notice": "Returns whether or not a queued proposal has expired."
      },
      "isVoting(address)": {
        "notice": "Returns whether or not a particular account is voting on proposals."
      },
      "minQuorumSize(uint256)": {
        "notice": "Returns the minimum number of required signers for a given block number."
      },
      "minQuorumSizeInCurrentSet()": {
        "notice": "Computes byzantine quorum from current validator set size"
      },
      "prepareHotfix(bytes32)": {
        "notice": "Gives hotfix a prepared epoch for execution."
      },
      "proposalExists(uint256)": {
        "notice": "Returns whether or not a proposal exists."
      },
      "propose(uint256[],address[],bytes,uint256[],string)": {
        "notice": "Creates a new proposal and adds it to end of the queue with no upvotes."
      },
      "revokeUpvote(uint256,uint256)": {
        "notice": "Revokes an upvote on a queued proposal."
      },
      "revokeVotes()": {
        "notice": "Revoke votes on all proposals of sender in the referendum stage."
      },
      "setApprovalStageDuration(uint256)": {
        "notice": "Updates the number of seconds proposals stay in the approval stage."
      },
      "setApprover(address)": {
        "notice": "Updates the address that has permission to approve proposals in the approval stage."
      },
      "setBaselineQuorumFactor(uint256)": {
        "notice": "Updates the proportion of the baseline that constitutes quorum."
      },
      "setBaselineUpdateFactor(uint256)": {
        "notice": "Updates the weight of the new participation in the baseline update rule."
      },
      "setConcurrentProposals(uint256)": {
        "notice": "Updates the number of proposals to dequeue at a time."
      },
      "setConstitution(address,bytes4,uint256)": {
        "notice": "Updates the ratio of yes:yes+no votes needed for a specific class of proposals to pass."
      },
      "setDequeueFrequency(uint256)": {
        "notice": "Updates the minimum number of seconds before the next batch of proposals can be  dequeued."
      },
      "setExecutionStageDuration(uint256)": {
        "notice": "Updates the number of seconds proposals stay in the execution stage."
      },
      "setMinDeposit(uint256)": {
        "notice": "Updates the minimum deposit needed to make a proposal."
      },
      "setParticipationBaseline(uint256)": {
        "notice": "Updates the participation baseline."
      },
      "setParticipationFloor(uint256)": {
        "notice": "Updates the floor of the participation baseline."
      },
      "setQueueExpiry(uint256)": {
        "notice": "Updates the number of seconds before a queued proposal expires."
      },
      "setReferendumStageDuration(uint256)": {
        "notice": "Updates the number of seconds proposals stay in the referendum stage."
      },
      "setRegistry(address)": {
        "notice": "Updates the address pointing to a Registry contract."
      },
      "upvote(uint256,uint256,uint256)": {
        "notice": "Upvotes a queued proposal."
      },
      "validatorSignerAddressFromSet(uint256,uint256)": {
        "notice": "Gets a validator address from the validator set at the given block number."
      },
      "vote(uint256,uint256,uint8)": {
        "notice": "Votes on a proposal in the referendum stage."
      },
      "whitelistHotfix(bytes32)": {
        "notice": "Whitelists the hash of a hotfix transaction(s)."
      },
      "withdraw()": {
        "notice": "Withdraws refunded CELO deposits."
      }
    }
  }
}