{
  "contractName": "GrandaMento",
  "abi": [
    {
      "inputs": [
        {
          "internalType": "bool",
          "name": "test",
          "type": "bool"
        }
      ],
      "payable": false,
      "stateMutability": "nonpayable",
      "type": "constructor"
    },
    {
      "anonymous": false,
      "inputs": [
        {
          "indexed": false,
          "internalType": "address",
          "name": "approver",
          "type": "address"
        }
      ],
      "name": "ApproverSet",
      "type": "event"
    },
    {
      "anonymous": false,
      "inputs": [
        {
          "indexed": true,
          "internalType": "uint256",
          "name": "proposalId",
          "type": "uint256"
        }
      ],
      "name": "ExchangeProposalApproved",
      "type": "event"
    },
    {
      "anonymous": false,
      "inputs": [
        {
          "indexed": true,
          "internalType": "uint256",
          "name": "proposalId",
          "type": "uint256"
        }
      ],
      "name": "ExchangeProposalCancelled",
      "type": "event"
    },
    {
      "anonymous": false,
      "inputs": [
        {
          "indexed": true,
          "internalType": "uint256",
          "name": "proposalId",
          "type": "uint256"
        },
        {
          "indexed": true,
          "internalType": "address",
          "name": "exchanger",
          "type": "address"
        },
        {
          "indexed": false,
          "internalType": "string",
          "name": "stableTokenRegistryId",
          "type": "string"
        },
        {
          "indexed": false,
          "internalType": "uint256",
          "name": "sellAmount",
          "type": "uint256"
        },
        {
          "indexed": false,
          "internalType": "uint256",
          "name": "buyAmount",
          "type": "uint256"
        },
        {
          "indexed": false,
          "internalType": "bool",
          "name": "sellCelo",
          "type": "bool"
        }
      ],
      "name": "ExchangeProposalCreated",
      "type": "event"
    },
    {
      "anonymous": false,
      "inputs": [
        {
          "indexed": true,
          "internalType": "uint256",
          "name": "proposalId",
          "type": "uint256"
        }
      ],
      "name": "ExchangeProposalExecuted",
      "type": "event"
    },
    {
      "anonymous": false,
      "inputs": [
        {
          "indexed": false,
          "internalType": "uint256",
          "name": "maxApprovalExchangeRateChange",
          "type": "uint256"
        }
      ],
      "name": "MaxApprovalExchangeRateChangeSet",
      "type": "event"
    },
    {
      "anonymous": false,
      "inputs": [
        {
          "indexed": true,
          "internalType": "address",
          "name": "previousOwner",
          "type": "address"
        },
        {
          "indexed": true,
          "internalType": "address",
          "name": "newOwner",
          "type": "address"
        }
      ],
      "name": "OwnershipTransferred",
      "type": "event"
    },
    {
      "anonymous": false,
      "inputs": [
        {
          "indexed": true,
          "internalType": "address",
          "name": "registryAddress",
          "type": "address"
        }
      ],
      "name": "RegistrySet",
      "type": "event"
    },
    {
      "anonymous": false,
      "inputs": [
        {
          "indexed": false,
          "internalType": "uint256",
          "name": "spread",
          "type": "uint256"
        }
      ],
      "name": "SpreadSet",
      "type": "event"
    },
    {
      "anonymous": false,
      "inputs": [
        {
          "indexed": false,
          "internalType": "string",
          "name": "stableTokenRegistryId",
          "type": "string"
        },
        {
          "indexed": false,
          "internalType": "uint256",
          "name": "minExchangeAmount",
          "type": "uint256"
        },
        {
          "indexed": false,
          "internalType": "uint256",
          "name": "maxExchangeAmount",
          "type": "uint256"
        }
      ],
      "name": "StableTokenExchangeLimitsSet",
      "type": "event"
    },
    {
      "anonymous": false,
      "inputs": [
        {
          "indexed": false,
          "internalType": "uint256",
          "name": "vetoPeriodSeconds",
          "type": "uint256"
        }
      ],
      "name": "VetoPeriodSecondsSet",
      "type": "event"
    },
    {
      "constant": true,
      "inputs": [
        {
          "internalType": "uint256",
          "name": "",
          "type": "uint256"
        }
      ],
      "name": "activeProposalIdsSuperset",
      "outputs": [
        {
          "internalType": "uint256",
          "name": "",
          "type": "uint256"
        }
      ],
      "payable": false,
      "stateMutability": "view",
      "type": "function"
    },
    {
      "constant": true,
      "inputs": [],
      "name": "approver",
      "outputs": [
        {
          "internalType": "address",
          "name": "",
          "type": "address"
        }
      ],
      "payable": false,
      "stateMutability": "view",
      "type": "function"
    },
    {
      "constant": true,
      "inputs": [],
      "name": "exchangeProposalCount",
      "outputs": [
        {
          "internalType": "uint256",
          "name": "",
          "type": "uint256"
        }
      ],
      "payable": false,
      "stateMutability": "view",
      "type": "function"
    },
    {
      "constant": true,
      "inputs": [
        {
          "internalType": "uint256",
          "name": "",
          "type": "uint256"
        }
      ],
      "name": "exchangeProposals",
      "outputs": [
        {
          "internalType": "address payable",
          "name": "exchanger",
          "type": "address"
        },
        {
          "internalType": "address",
          "name": "stableToken",
          "type": "address"
        },
        {
          "internalType": "enum GrandaMento.ExchangeProposalState",
          "name": "state",
          "type": "uint8"
        },
        {
          "internalType": "bool",
          "name": "sellCelo",
          "type": "bool"
        },
        {
          "internalType": "uint256",
          "name": "sellAmount",
          "type": "uint256"
        },
        {
          "internalType": "uint256",
          "name": "buyAmount",
          "type": "uint256"
        },
        {
          "internalType": "uint256",
          "name": "celoStableTokenExchangeRate",
          "type": "uint256"
        },
        {
          "internalType": "uint256",
          "name": "vetoPeriodSeconds",
          "type": "uint256"
        },
        {
          "internalType": "uint256",
          "name": "approvalTimestamp",
          "type": "uint256"
        }
      ],
      "payable": false,
      "stateMutability": "view",
      "type": "function"
    },
    {
      "constant": true,
      "inputs": [],
      "name": "initialized",
      "outputs": [
        {
          "internalType": "bool",
          "name": "",
          "type": "bool"
        }
      ],
      "payable": false,
      "stateMutability": "view",
      "type": "function"
    },
    {
      "constant": true,
      "inputs": [],
      "name": "isOwner",
      "outputs": [
        {
          "internalType": "bool",
          "name": "",
          "type": "bool"
        }
      ],
      "payable": false,
      "stateMutability": "view",
      "type": "function"
    },
    {
      "constant": true,
      "inputs": [],
      "name": "maxApprovalExchangeRateChange",
      "outputs": [
        {
          "internalType": "uint256",
          "name": "value",
          "type": "uint256"
        }
      ],
      "payable": false,
      "stateMutability": "view",
      "type": "function"
    },
    {
      "constant": true,
      "inputs": [],
      "name": "owner",
      "outputs": [
        {
          "internalType": "address",
          "name": "",
          "type": "address"
        }
      ],
      "payable": false,
      "stateMutability": "view",
      "type": "function"
    },
    {
      "constant": true,
      "inputs": [],
      "name": "registry",
      "outputs": [
        {
          "internalType": "contract IRegistry",
          "name": "",
          "type": "address"
        }
      ],
      "payable": false,
      "stateMutability": "view",
      "type": "function"
    },
    {
      "constant": false,
      "inputs": [],
      "name": "renounceOwnership",
      "outputs": [],
      "payable": false,
      "stateMutability": "nonpayable",
      "type": "function"
    },
    {
      "constant": false,
      "inputs": [
        {
          "internalType": "address",
          "name": "registryAddress",
          "type": "address"
        }
      ],
      "name": "setRegistry",
      "outputs": [],
      "payable": false,
      "stateMutability": "nonpayable",
      "type": "function"
    },
    {
      "constant": true,
      "inputs": [],
      "name": "spread",
      "outputs": [
        {
          "internalType": "uint256",
          "name": "value",
          "type": "uint256"
        }
      ],
      "payable": false,
      "stateMutability": "view",
      "type": "function"
    },
    {
      "constant": true,
      "inputs": [
        {
          "internalType": "string",
          "name": "",
          "type": "string"
        }
      ],
      "name": "stableTokenExchangeLimits",
      "outputs": [
        {
          "internalType": "uint256",
          "name": "minExchangeAmount",
          "type": "uint256"
        },
        {
          "internalType": "uint256",
          "name": "maxExchangeAmount",
          "type": "uint256"
        }
      ],
      "payable": false,
      "stateMutability": "view",
      "type": "function"
    },
    {
      "constant": false,
      "inputs": [
        {
          "internalType": "address",
          "name": "newOwner",
          "type": "address"
        }
      ],
      "name": "transferOwnership",
      "outputs": [],
      "payable": false,
      "stateMutability": "nonpayable",
      "type": "function"
    },
    {
      "constant": true,
      "inputs": [],
      "name": "vetoPeriodSeconds",
      "outputs": [
        {
          "internalType": "uint256",
          "name": "",
          "type": "uint256"
        }
      ],
      "payable": false,
      "stateMutability": "view",
      "type": "function"
    },
    {
      "constant": true,
      "inputs": [],
      "name": "getVersionNumber",
      "outputs": [
        {
          "internalType": "uint256",
          "name": "",
          "type": "uint256"
        },
        {
          "internalType": "uint256",
          "name": "",
          "type": "uint256"
        },
        {
          "internalType": "uint256",
          "name": "",
          "type": "uint256"
        },
        {
          "internalType": "uint256",
          "name": "",
          "type": "uint256"
        }
      ],
      "payable": false,
      "stateMutability": "pure",
      "type": "function"
    },
    {
      "constant": false,
      "inputs": [
        {
          "internalType": "address",
          "name": "_registry",
          "type": "address"
        },
        {
          "internalType": "address",
          "name": "_approver",
          "type": "address"
        },
        {
          "internalType": "uint256",
          "name": "_maxApprovalExchangeRateChange",
          "type": "uint256"
        },
        {
          "internalType": "uint256",
          "name": "_spread",
          "type": "uint256"
        },
        {
          "internalType": "uint256",
          "name": "_vetoPeriodSeconds",
          "type": "uint256"
        }
      ],
      "name": "initialize",
      "outputs": [],
      "payable": false,
      "stateMutability": "nonpayable",
      "type": "function"
    },
    {
      "constant": false,
      "inputs": [
        {
          "internalType": "string",
          "name": "stableTokenRegistryId",
          "type": "string"
        },
        {
          "internalType": "uint256",
          "name": "sellAmount",
          "type": "uint256"
        },
        {
          "internalType": "bool",
          "name": "sellCelo",
          "type": "bool"
        }
      ],
      "name": "createExchangeProposal",
      "outputs": [
        {
          "internalType": "uint256",
          "name": "",
          "type": "uint256"
        }
      ],
      "payable": false,
      "stateMutability": "nonpayable",
      "type": "function"
    },
    {
      "constant": false,
      "inputs": [
        {
          "internalType": "uint256",
          "name": "proposalId",
          "type": "uint256"
        }
      ],
      "name": "approveExchangeProposal",
      "outputs": [],
      "payable": false,
      "stateMutability": "nonpayable",
      "type": "function"
    },
    {
      "constant": false,
      "inputs": [
        {
          "internalType": "uint256",
          "name": "proposalId",
          "type": "uint256"
        }
      ],
      "name": "cancelExchangeProposal",
      "outputs": [],
      "payable": false,
      "stateMutability": "nonpayable",
      "type": "function"
    },
    {
      "constant": false,
      "inputs": [
        {
          "internalType": "uint256",
          "name": "proposalId",
          "type": "uint256"
        }
      ],
      "name": "executeExchangeProposal",
      "outputs": [],
      "payable": false,
      "stateMutability": "nonpayable",
      "type": "function"
    },
    {
      "constant": true,
      "inputs": [
        {
          "internalType": "uint256",
          "name": "celoStableTokenExchangeRate",
          "type": "uint256"
        },
        {
          "internalType": "uint256",
          "name": "sellAmount",
          "type": "uint256"
        },
        {
          "internalType": "bool",
          "name": "sellCelo",
          "type": "bool"
        }
      ],
      "name": "getBuyAmount",
      "outputs": [
        {
          "internalType": "uint256",
          "name": "",
          "type": "uint256"
        }
      ],
      "payable": false,
      "stateMutability": "view",
      "type": "function"
    },
    {
      "constant": false,
      "inputs": [
        {
          "internalType": "uint256",
          "name": "index",
          "type": "uint256"
        }
      ],
      "name": "removeFromActiveProposalIdsSuperset",
      "outputs": [],
      "payable": false,
      "stateMutability": "nonpayable",
      "type": "function"
    },
    {
      "constant": true,
      "inputs": [],
      "name": "getActiveProposalIds",
      "outputs": [
        {
          "internalType": "uint256[]",
          "name": "",
          "type": "uint256[]"
        }
      ],
      "payable": false,
      "stateMutability": "view",
      "type": "function"
    },
    {
      "constant": true,
      "inputs": [
        {
          "internalType": "string",
          "name": "stableTokenRegistryId",
          "type": "string"
        }
      ],
      "name": "getStableTokenExchangeLimits",
      "outputs": [
        {
          "internalType": "uint256",
          "name": "",
          "type": "uint256"
        },
        {
          "internalType": "uint256",
          "name": "",
          "type": "uint256"
        }
      ],
      "payable": false,
      "stateMutability": "view",
      "type": "function"
    },
    {
      "constant": false,
      "inputs": [
        {
          "internalType": "address",
          "name": "newApprover",
          "type": "address"
        }
      ],
      "name": "setApprover",
      "outputs": [],
      "payable": false,
      "stateMutability": "nonpayable",
      "type": "function"
    },
    {
      "constant": false,
      "inputs": [
        {
          "internalType": "uint256",
          "name": "newMaxApprovalExchangeRateChange",
          "type": "uint256"
        }
      ],
      "name": "setMaxApprovalExchangeRateChange",
      "outputs": [],
      "payable": false,
      "stateMutability": "nonpayable",
      "type": "function"
    },
    {
      "constant": false,
      "inputs": [
        {
          "internalType": "uint256",
          "name": "newSpread",
          "type": "uint256"
        }
      ],
      "name": "setSpread",
      "outputs": [],
      "payable": false,
      "stateMutability": "nonpayable",
      "type": "function"
    },
    {
      "constant": false,
      "inputs": [
        {
          "internalType": "string",
          "name": "stableTokenRegistryId",
          "type": "string"
        },
        {
          "internalType": "uint256",
          "name": "minExchangeAmount",
          "type": "uint256"
        },
        {
          "internalType": "uint256",
          "name": "maxExchangeAmount",
          "type": "uint256"
        }
      ],
      "name": "setStableTokenExchangeLimits",
      "outputs": [],
      "payable": false,
      "stateMutability": "nonpayable",
      "type": "function"
    },
    {
      "constant": false,
      "inputs": [
        {
          "internalType": "uint256",
          "name": "newVetoPeriodSeconds",
          "type": "uint256"
        }
      ],
      "name": "setVetoPeriodSeconds",
      "outputs": [],
      "payable": false,
      "stateMutability": "nonpayable",
      "type": "function"
    }
  ],
  "bytecode": "0x60806040523480156200001157600080fd5b5060405162004c8438038062004c84833981810160405260208110156200003757600080fd5b81019080805190602001909291905050508060006200005b6200012b60201b60201c565b9050806000806101000a81548173ffffffffffffffffffffffffffffffffffffffff021916908373ffffffffffffffffffffffffffffffffffffffff1602179055508073ffffffffffffffffffffffffffffffffffffffff16600073ffffffffffffffffffffffffffffffffffffffff167f8be0079c531659141344cd1fd0a4f28419497f9722a3daafe3b4186f6b6457e060405160405180910390a350806200011b576001600060146101000a81548160ff0219169083151502179055505b5060016002819055505062000133565b600033905090565b614b4180620001436000396000f3fe608060405234801561001057600080fd5b50600436106101da5760003560e01c80637b10399911610104578063be4c0d2c116100a2578063e33ddfc011610071578063e33ddfc0146109e2578063e7be36c814610a6f578063e7f6d98014610a9d578063f2fde38b14610abb576101da565b8063be4c0d2c1461082e578063c89f6e1714610904578063cb60cca014610932578063d13f90b414610960576101da565b8063a91ee0dc116100de578063a91ee0dc14610770578063aa853da4146107b4578063b66a261c146107d2578063b7430ab014610800576101da565b80637b103999146106ba5780638da5cb5b146107045780638f32d59b1461074e576101da565b80633ff9d6371161017c5780635c25c76c1161014b5780635c25c76c146105905780635eb8fc76146105ae578063715018a61461065157806371a1aea71461065b576101da565b80633ff9d637146104a557806344ca493a146104c357806349dc646a1461050557806354255be01461055d576101da565b8063158ef93e116101b8578063158ef93e1461032d5780631f4328b51461034f5780633156560e1461037d5780633b5b4f2c146103c1576101da565b8063049ecbd9146101df578063139fdcff1461020d578063141a8dd8146102e3575b600080fd5b61020b600480360360208110156101f557600080fd5b8101908080359060200190929190505050610aff565b005b6102c66004803603602081101561022357600080fd5b810190808035906020019064010000000081111561024057600080fd5b82018360208201111561025257600080fd5b8035906020019184600183028401116401000000008311171561027457600080fd5b91908080601f016020809104026020016040519081016040528093929190818152602001838380828437600081840152601f19601f820116905080830192505050505050509192919290505050610c16565b604051808381526020018281526020019250505060405180910390f35b6102eb610d1c565b604051808273ffffffffffffffffffffffffffffffffffffffff1673ffffffffffffffffffffffffffffffffffffffff16815260200191505060405180910390f35b610335610d42565b604051808215151515815260200191505060405180910390f35b61037b6004803603602081101561036557600080fd5b8101908080359060200190929190505050610d55565b005b6103bf6004803603602081101561039357600080fd5b81019080803573ffffffffffffffffffffffffffffffffffffffff1690602001909291905050506110d4565b005b6103ed600480360360208110156103d757600080fd5b81019080803590602001909291905050506111f5565b604051808a73ffffffffffffffffffffffffffffffffffffffff1673ffffffffffffffffffffffffffffffffffffffff1681526020018973ffffffffffffffffffffffffffffffffffffffff1673ffffffffffffffffffffffffffffffffffffffff16815260200188600481111561046157fe5b60ff16815260200187151515158152602001868152602001858152602001848152602001838152602001828152602001995050505050505050505060405180910390f35b6104ad61129d565b6040518082815260200191505060405180910390f35b6104ef600480360360208110156104d957600080fd5b81019080803590602001909291905050506112a9565b6040518082815260200191505060405180910390f35b6105476004803603606081101561051b57600080fd5b8101908080359060200190929190803590602001909291908035151590602001909291905050506112ca565b6040518082815260200191505060405180910390f35b61056561136a565b6040518085815260200184815260200183815260200182815260200194505050505060405180910390f35b610598611390565b6040518082815260200191505060405180910390f35b61063b600480360360608110156105c457600080fd5b81019080803590602001906401000000008111156105e157600080fd5b8201836020820111156105f357600080fd5b8035906020019184600183028401116401000000008311171561061557600080fd5b90919293919293908035906020019092919080351515906020019092919050505061139c565b6040518082815260200191505060405180910390f35b610659611bfe565b005b610663611d37565b6040518080602001828103825283818151815260200191508051906020019060200280838360005b838110156106a657808201518184015260208101905061068b565b505050509050019250505060405180910390f35b6106c2611e64565b604051808273ffffffffffffffffffffffffffffffffffffffff1673ffffffffffffffffffffffffffffffffffffffff16815260200191505060405180910390f35b61070c611e8a565b604051808273ffffffffffffffffffffffffffffffffffffffff1673ffffffffffffffffffffffffffffffffffffffff16815260200191505060405180910390f35b610756611eb3565b604051808215151515815260200191505060405180910390f35b6107b26004803603602081101561078657600080fd5b81019080803573ffffffffffffffffffffffffffffffffffffffff169060200190929190505050611f11565b005b6107bc6120b5565b6040518082815260200191505060405180910390f35b6107fe600480360360208110156107e857600080fd5b81019080803590602001909291905050506120bb565b005b61082c6004803603602081101561081657600080fd5b810190808035906020019092919050505061220c565b005b6108e76004803603602081101561084457600080fd5b810190808035906020019064010000000081111561086157600080fd5b82018360208201111561087357600080fd5b8035906020019184600183028401116401000000008311171561089557600080fd5b91908080601f016020809104026020016040519081016040528093929190818152602001838380828437600081840152601f19601f8201169050808301925050505050505091929192905050506122d8565b604051808381526020018281526020019250505060405180910390f35b6109306004803603602081101561091a57600080fd5b8101908080359060200190929190505050612312565b005b61095e6004803603602081101561094857600080fd5b810190808035906020019092919050505061288a565b005b6109e0600480360360a081101561097657600080fd5b81019080803573ffffffffffffffffffffffffffffffffffffffff169060200190929190803573ffffffffffffffffffffffffffffffffffffffff169060200190929190803590602001909291908035906020019092919080359060200190929190505050613101565b005b610a6d600480360360608110156109f857600080fd5b8101908080359060200190640100000000811115610a1557600080fd5b820183602082011115610a2757600080fd5b80359060200191846001830284011164010000000083111715610a4957600080fd5b909192939192939080359060200190929190803590602001909291905050506131dc565b005b610a9b60048036036020811015610a8557600080fd5b810190808035906020019092919050505061337b565b005b610aa561357b565b6040518082815260200191505060405180910390f35b610afd60048036036020811015610ad157600080fd5b81019080803573ffffffffffffffffffffffffffffffffffffffff169060200190929190505050613581565b005b610b07611eb3565b610b79576040517f08c379a00000000000000000000000000000000000000000000000000000000081526004018080602001828103825260208152602001807f4f776e61626c653a2063616c6c6572206973206e6f7420746865206f776e657281525060200191505060405180910390fd5b6224ea00811115610bd5576040517f08c379a0000000000000000000000000000000000000000000000000000000008152600401808060200182810382526021815260200180614aec6021913960400191505060405180910390fd5b806006819055507f444fcf883d2258a54ed4f56fa23112232c0eef64dc4af5cab8c3dd7546a028b9816040518082815260200191505060405180910390a150565b600080610c21614844565b6007846040518082805190602001908083835b60208310610c575780518252602082019150602081019050602083039250610c34565b6001836020036101000a03801982511681845116808217855250505050505090500191505090815260200160405180910390206040518060400160405290816000820154815260200160018201548152505090506000816020015111610d08576040517f08c379a00000000000000000000000000000000000000000000000000000000081526004018080602001828103825260308152602001806149b96030913960400191505060405180910390fd5b806000015181602001519250925050915091565b600360009054906101000a900473ffffffffffffffffffffffffffffffffffffffff1681565b600060149054906101000a900460ff1681565b600160026000828254019250508190555060006002549050600360009054906101000a900473ffffffffffffffffffffffffffffffffffffffff1673ffffffffffffffffffffffffffffffffffffffff163373ffffffffffffffffffffffffffffffffffffffff1614610e30576040517f08c379a00000000000000000000000000000000000000000000000000000000081526004018080602001828103825260178152602001807f53656e646572206d75737420626520617070726f76657200000000000000000081525060200191505060405180910390fd5b600060086000848152602001908152602001600020905060016004811115610e5457fe5b8160010160149054906101000a900460ff166004811115610e7157fe5b14610ec7576040517f08c379a000000000000000000000000000000000000000000000000000000000815260040180806020018281038252602281526020018061494f6022913960400191505060405180910390fd5b610ecf61485e565b610efc8260010160009054906101000a900473ffffffffffffffffffffffffffffffffffffffff16613607565b9050610f0661485e565b610f138360040154613767565b9050610f1d61485e565b610f2561485e565b610f38838561378590919063ffffffff16565b610f43578284610f46565b83835b91509150610f5261485e565b610f7784610f69858561379a90919063ffffffff16565b61384190919063ffffffff16565b9050610fa260046040518060200160405290816000820154815250508261398a90919063ffffffff16565b610ff7576040517f08c379a000000000000000000000000000000000000000000000000000000000815260040180806020018281038252603b815260200180614a45603b913960400191505060405180910390fd5b42866006018190555060028660010160146101000a81548160ff0219169083600481111561102157fe5b0217905550877f8b2b870c73325a932fadfc3f0d07358f8086320c6e6c27d36b5ea14d7c3d541360405160405180910390a250505050505060025481146110d0576040517f08c379a000000000000000000000000000000000000000000000000000000000815260040180806020018281038252600e8152602001807f7265656e7472616e742063616c6c00000000000000000000000000000000000081525060200191505060405180910390fd5b5050565b6110dc611eb3565b61114e576040517f08c379a00000000000000000000000000000000000000000000000000000000081526004018080602001828103825260208152602001807f4f776e61626c653a2063616c6c6572206973206e6f7420746865206f776e657281525060200191505060405180910390fd5b80600360006101000a81548173ffffffffffffffffffffffffffffffffffffffff021916908373ffffffffffffffffffffffffffffffffffffffff1602179055507fa03757d836cb0b61c0fbba2147f5d51d6071ff3dd5bf6963beb55563d64878e181604051808273ffffffffffffffffffffffffffffffffffffffff1673ffffffffffffffffffffffffffffffffffffffff16815260200191505060405180910390a150565b60086020528060005260406000206000915090508060000160009054906101000a900473ffffffffffffffffffffffffffffffffffffffff16908060010160009054906101000a900473ffffffffffffffffffffffffffffffffffffffff16908060010160149054906101000a900460ff16908060010160159054906101000a900460ff16908060020154908060030154908060040154908060050154908060060154905089565b60048060000154905081565b600981815481106112b657fe5b906000526020600020016000915090505481565b60006112d461485e565b6112dd85613767565b9050826112f0576112ed816139a0565b90505b6112f861485e565b61134261130486613a52565b6113346005604051806020016040529081600082015481525050611326613adc565b61379a90919063ffffffff16565b613b0290919063ffffffff16565b905061135f61135a8284613b0290919063ffffffff16565b613f61565b925050509392505050565b600080600080600180600080839350829250819150809050935093509350935090919293565b60058060000154905081565b60006001600260008282540192505081905550600060025490506000600160009054906101000a900473ffffffffffffffffffffffffffffffffffffffff1673ffffffffffffffffffffffffffffffffffffffff16638932cbf488886040518363ffffffff1660e01b815260040180806020018281038252848482818152602001925080828437600081840152601f19601f820116905080830192505050935050505060206040518083038186803b15801561145757600080fd5b505afa15801561146b573d6000803e3d6000fd5b505050506040513d602081101561148157600080fd5b8101908080519060200190929190505050905060006114a76114a283613607565b613f82565b905060006114b68288886112ca565b90506000806115088b8b8080601f016020809104026020016040519081016040528093929190818152602001838380828437600081840152601f19601f82011690508083019250505050505050610c16565b91509150600088611519578961151b565b835b905081811115801561152d5750828110155b611582576040517f08c379a000000000000000000000000000000000000000000000000000000000815260040180806020018281038252602e815260200180614a17602e913960400191505060405180910390fd5b505050600086611592578361159b565b61159a613f90565b5b90508073ffffffffffffffffffffffffffffffffffffffff166323b872dd33308b6040518463ffffffff1660e01b8152600401808473ffffffffffffffffffffffffffffffffffffffff1673ffffffffffffffffffffffffffffffffffffffff1681526020018373ffffffffffffffffffffffffffffffffffffffff1673ffffffffffffffffffffffffffffffffffffffff1681526020018281526020019350505050602060405180830381600087803b15801561165857600080fd5b505af115801561166c573d6000803e3d6000fd5b505050506040513d602081101561168257600080fd5b8101908080519060200190929190505050611705576040517f08c379a00000000000000000000000000000000000000000000000000000000081526004018080602001828103825260208152602001807f5472616e7366657220696e206f662073656c6c20746f6b656e206661696c656481525060200191505060405180910390fd5b61171b6001600a5461408b90919063ffffffff16565b600a819055506000876117b9578473ffffffffffffffffffffffffffffffffffffffff166312c6c0998a6040518263ffffffff1660e01b81526004018082815260200191505060206040518083038186803b15801561177957600080fd5b505afa15801561178d573d6000803e3d6000fd5b505050506040513d60208110156117a357600080fd5b81019080805190602001909291905050506117bb565b885b90506040518061012001604052803373ffffffffffffffffffffffffffffffffffffffff1681526020018673ffffffffffffffffffffffffffffffffffffffff1681526020016001600481111561180e57fe5b815260200189151581526020018281526020018481526020018581526020016006548152602001600081525060086000600a54815260200190815260200160002060008201518160000160006101000a81548173ffffffffffffffffffffffffffffffffffffffff021916908373ffffffffffffffffffffffffffffffffffffffff16021790555060208201518160010160006101000a81548173ffffffffffffffffffffffffffffffffffffffff021916908373ffffffffffffffffffffffffffffffffffffffff16021790555060408201518160010160146101000a81548160ff0219169083600481111561190157fe5b021790555060608201518160010160156101000a81548160ff0219169083151502179055506080820151816002015560a0820151816003015560c0820151816004015560e082015181600501556101008201518160060155905050611aab60086000600a548152602001908152602001600020604051806101200160405290816000820160009054906101000a900473ffffffffffffffffffffffffffffffffffffffff1673ffffffffffffffffffffffffffffffffffffffff1673ffffffffffffffffffffffffffffffffffffffff1681526020016001820160009054906101000a900473ffffffffffffffffffffffffffffffffffffffff1673ffffffffffffffffffffffffffffffffffffffff1673ffffffffffffffffffffffffffffffffffffffff1681526020016001820160149054906101000a900460ff166004811115611a4a57fe5b6004811115611a5557fe5b81526020016001820160159054906101000a900460ff1615151515815260200160028201548152602001600382015481526020016004820154815260200160058201548152602001600682015481525050614113565b50506009600a5490806001815401808255809150509060018203906000526020600020016000909192909190915055503373ffffffffffffffffffffffffffffffffffffffff16600a547f988f3fd60d91f43c99361ce5de82a51999ffd3deda06baac9235df289bb7c6498d8d8d888e6040518080602001858152602001848152602001831515151581526020018281038252878782818152602001925080828437600081840152601f19601f820116905080830192505050965050505050505060405180910390a3600a54965050505050506002548114611bf5576040517f08c379a000000000000000000000000000000000000000000000000000000000815260040180806020018281038252600e8152602001807f7265656e7472616e742063616c6c00000000000000000000000000000000000081525060200191505060405180910390fd5b50949350505050565b611c06611eb3565b611c78576040517f08c379a00000000000000000000000000000000000000000000000000000000081526004018080602001828103825260208152602001807f4f776e61626c653a2063616c6c6572206973206e6f7420746865206f776e657281525060200191505060405180910390fd5b600073ffffffffffffffffffffffffffffffffffffffff166000809054906101000a900473ffffffffffffffffffffffffffffffffffffffff1673ffffffffffffffffffffffffffffffffffffffff167f8be0079c531659141344cd1fd0a4f28419497f9722a3daafe3b4186f6b6457e060405160405180910390a360008060006101000a81548173ffffffffffffffffffffffffffffffffffffffff021916908373ffffffffffffffffffffffffffffffffffffffff160217905550565b606080600980549050604051908082528060200260200182016040528015611d6e5781602001602082028038833980820191505090505b50905060008090505b600980549050811015611e5c57600060098281548110611d9357fe5b9060005260206000200154905060016004811115611dad57fe5b6008600083815260200190815260200160002060010160149054906101000a900460ff166004811115611ddc57fe5b1480611e21575060026004811115611df057fe5b6008600083815260200190815260200160002060010160149054906101000a900460ff166004811115611e1f57fe5b145b15611e405780838381518110611e3357fe5b6020026020010181815250505b50611e5560018261408b90919063ffffffff16565b9050611d77565b508091505090565b600160009054906101000a900473ffffffffffffffffffffffffffffffffffffffff1681565b60008060009054906101000a900473ffffffffffffffffffffffffffffffffffffffff16905090565b60008060009054906101000a900473ffffffffffffffffffffffffffffffffffffffff1673ffffffffffffffffffffffffffffffffffffffff16611ef56142af565b73ffffffffffffffffffffffffffffffffffffffff1614905090565b611f19611eb3565b611f8b576040517f08c379a00000000000000000000000000000000000000000000000000000000081526004018080602001828103825260208152602001807f4f776e61626c653a2063616c6c6572206973206e6f7420746865206f776e657281525060200191505060405180910390fd5b600073ffffffffffffffffffffffffffffffffffffffff168173ffffffffffffffffffffffffffffffffffffffff16141561202e576040517f08c379a00000000000000000000000000000000000000000000000000000000081526004018080602001828103825260208152602001807f43616e6e6f7420726567697374657220746865206e756c6c206164647265737381525060200191505060405180910390fd5b80600160006101000a81548173ffffffffffffffffffffffffffffffffffffffff021916908373ffffffffffffffffffffffffffffffffffffffff1602179055508073ffffffffffffffffffffffffffffffffffffffff167f27fe5f0c1c3b1ed427cc63d0f05759ffdecf9aec9e18d31ef366fc8a6cb5dc3b60405160405180910390a250565b600a5481565b6120c3611eb3565b612135576040517f08c379a00000000000000000000000000000000000000000000000000000000081526004018080602001828103825260208152602001807f4f776e61626c653a2063616c6c6572206973206e6f7420746865206f776e657281525060200191505060405180910390fd5b612145612140613adc565b613f82565b8111156121ba576040517f08c379a000000000000000000000000000000000000000000000000000000000815260040180806020018281038252601d8152602001807f537072656164206d75737420626520736d616c6c6572207468616e203100000081525060200191505060405180910390fd5b6121c381613767565b6005600082015181600001559050507f8946f328efcc515b5cc3282f6cd95e87a6c0d3508421af0b52d4d3620b3e2db3816040518082815260200191505060405180910390a150565b612214611eb3565b612286576040517f08c379a00000000000000000000000000000000000000000000000000000000081526004018080602001828103825260208152602001807f4f776e61626c653a2063616c6c6572206973206e6f7420746865206f776e657281525060200191505060405180910390fd5b61228f81613767565b6004600082015181600001559050507f64efcc8d6bb33e1eb5c31f8bec9ac8a42321a1fa36c6d831c759a6da5c2797f7816040518082815260200191505060405180910390a150565b6007818051602081018201805184825260208301602085012081835280955050505050506000915090508060000154908060010154905082565b60016002600082825401925050819055506000600254905060006008600084815260200190815260200160002090506001600481111561234e57fe5b8160010160149054906101000a900460ff16600481111561236b57fe5b141561243b573373ffffffffffffffffffffffffffffffffffffffff168160000160009054906101000a900473ffffffffffffffffffffffffffffffffffffffff1673ffffffffffffffffffffffffffffffffffffffff1614612436576040517f08c379a00000000000000000000000000000000000000000000000000000000081526004018080602001828103825260188152602001807f53656e646572206d7573742062652065786368616e676572000000000000000081525060200191505060405180910390fd5b61253c565b6002600481111561244857fe5b8160010160149054906101000a900460ff16600481111561246557fe5b14156124ea57612473611eb3565b6124e5576040517f08c379a00000000000000000000000000000000000000000000000000000000081526004018080602001828103825260148152602001807f53656e646572206d757374206265206f776e657200000000000000000000000081525060200191505060405180910390fd5b61253b565b6040517f08c379a000000000000000000000000000000000000000000000000000000000815260040180806020018281038252602e8152602001806149e9602e913960400191505060405180910390fd5b5b60048160010160146101000a81548160ff0219169083600481111561255d57fe5b02179055506000806126a083604051806101200160405290816000820160009054906101000a900473ffffffffffffffffffffffffffffffffffffffff1673ffffffffffffffffffffffffffffffffffffffff1673ffffffffffffffffffffffffffffffffffffffff1681526020016001820160009054906101000a900473ffffffffffffffffffffffffffffffffffffffff1673ffffffffffffffffffffffffffffffffffffffff1673ffffffffffffffffffffffffffffffffffffffff1681526020016001820160149054906101000a900460ff16600481111561263f57fe5b600481111561264a57fe5b81526020016001820160159054906101000a900460ff1615151515815260200160028201548152602001600382015481526020016004820154815260200160058201548152602001600682015481525050614113565b915091508173ffffffffffffffffffffffffffffffffffffffff1663a9059cbb8460000160009054906101000a900473ffffffffffffffffffffffffffffffffffffffff16836040518363ffffffff1660e01b8152600401808373ffffffffffffffffffffffffffffffffffffffff1673ffffffffffffffffffffffffffffffffffffffff16815260200182815260200192505050602060405180830381600087803b15801561274f57600080fd5b505af1158015612763573d6000803e3d6000fd5b505050506040513d602081101561277957600080fd5b81019080805190602001909291905050506127df576040517f08c379a0000000000000000000000000000000000000000000000000000000008152600401808060200182810382526023815260200180614ac96023913960400191505060405180910390fd5b847f80079243b2a36fa4656ef4ac30e5a3ebe1d048ca90b5b91cf3d597bf526dcaa760405160405180910390a25050506002548114612886576040517f08c379a000000000000000000000000000000000000000000000000000000000815260040180806020018281038252600e8152602001807f7265656e7472616e742063616c6c00000000000000000000000000000000000081525060200191505060405180910390fd5b5050565b6001600260008282540192505081905550600060025490506000600860008481526020019081526020016000209050600260048111156128c657fe5b8160010160149054906101000a900460ff1660048111156128e357fe5b14612939576040517f08c379a00000000000000000000000000000000000000000000000000000000081526004018080602001828103825260228152602001806149716022913960400191505060405180910390fd5b426129558260050154836006015461408b90919063ffffffff16565b11156129c9576040517f08c379a00000000000000000000000000000000000000000000000000000000081526004018080602001828103825260178152602001807f5665746f20706572696f64206e6f7420656c617073656400000000000000000081525060200191505060405180910390fd5b60038160010160146101000a81548160ff021916908360048111156129ea57fe5b0217905550600080612b2d83604051806101200160405290816000820160009054906101000a900473ffffffffffffffffffffffffffffffffffffffff1673ffffffffffffffffffffffffffffffffffffffff1673ffffffffffffffffffffffffffffffffffffffff1681526020016001820160009054906101000a900473ffffffffffffffffffffffffffffffffffffffff1673ffffffffffffffffffffffffffffffffffffffff1673ffffffffffffffffffffffffffffffffffffffff1681526020016001820160149054906101000a900460ff166004811115612acc57fe5b6004811115612ad757fe5b81526020016001820160159054906101000a900460ff1615151515815260200160028201548152602001600382015481526020016004820154815260200160058201548152602001600682015481525050614113565b915091508260010160159054906101000a900460ff1615612deb578173ffffffffffffffffffffffffffffffffffffffff1663a9059cbb612b6c6142b7565b836040518363ffffffff1660e01b8152600401808373ffffffffffffffffffffffffffffffffffffffff1673ffffffffffffffffffffffffffffffffffffffff16815260200182815260200192505050602060405180830381600087803b158015612bd657600080fd5b505af1158015612bea573d6000803e3d6000fd5b505050506040513d6020811015612c0057600080fd5b8101908080519060200190929190505050612c66576040517f08c379a00000000000000000000000000000000000000000000000000000000081526004018080602001828103825260268152602001806149936026913960400191505060405180910390fd5b8260010160009054906101000a900473ffffffffffffffffffffffffffffffffffffffff1673ffffffffffffffffffffffffffffffffffffffff166340c10f198460000160009054906101000a900473ffffffffffffffffffffffffffffffffffffffff1685600301546040518363ffffffff1660e01b8152600401808373ffffffffffffffffffffffffffffffffffffffff1673ffffffffffffffffffffffffffffffffffffffff16815260200182815260200192505050602060405180830381600087803b158015612d3957600080fd5b505af1158015612d4d573d6000803e3d6000fd5b505050506040513d6020811015612d6357600080fd5b8101908080519060200190929190505050612de6576040517f08c379a00000000000000000000000000000000000000000000000000000000081526004018080602001828103825260188152602001807f537461626c6520746f6b656e206d696e74206661696c6564000000000000000081525060200191505060405180910390fd5b613056565b8260010160009054906101000a900473ffffffffffffffffffffffffffffffffffffffff1673ffffffffffffffffffffffffffffffffffffffff166342966c68826040518263ffffffff1660e01b815260040180828152602001915050602060405180830381600087803b158015612e6257600080fd5b505af1158015612e76573d6000803e3d6000fd5b505050506040513d6020811015612e8c57600080fd5b8101908080519060200190929190505050612f0f576040517f08c379a00000000000000000000000000000000000000000000000000000000081526004018080602001828103825260188152602001807f537461626c6520746f6b656e206275726e206661696c6564000000000000000081525060200191505060405180910390fd5b612f176142b7565b73ffffffffffffffffffffffffffffffffffffffff166303a0fea38460000160009054906101000a900473ffffffffffffffffffffffffffffffffffffffff1685600301546040518363ffffffff1660e01b8152600401808373ffffffffffffffffffffffffffffffffffffffff1673ffffffffffffffffffffffffffffffffffffffff16815260200182815260200192505050602060405180830381600087803b158015612fc557600080fd5b505af1158015612fd9573d6000803e3d6000fd5b505050506040513d6020811015612fef57600080fd5b8101908080519060200190929190505050613055576040517f08c379a0000000000000000000000000000000000000000000000000000000008152600401808060200182810382526028815260200180614a806028913960400191505060405180910390fd5b5b847f0b4c107dd8ed767c40dcc74867774b42e6987abba9874b97b9740d3bcb5c9ccb60405160405180910390a250505060025481146130fd576040517f08c379a000000000000000000000000000000000000000000000000000000000815260040180806020018281038252600e8152602001807f7265656e7472616e742063616c6c00000000000000000000000000000000000081525060200191505060405180910390fd5b5050565b600060149054906101000a900460ff1615613184576040517f08c379a000000000000000000000000000000000000000000000000000000000815260040180806020018281038252601c8152602001807f636f6e747261637420616c726561647920696e697469616c697a65640000000081525060200191505060405180910390fd5b6001600060146101000a81548160ff0219169083151502179055506131a8336143b2565b6131b185611f11565b6131ba846110d4565b6131c38361220c565b6131cc826120bb565b6131d581610aff565b5050505050565b6131e4611eb3565b613256576040517f08c379a00000000000000000000000000000000000000000000000000000000081526004018080602001828103825260208152602001807f4f776e61626c653a2063616c6c6572206973206e6f7420746865206f776e657281525060200191505060405180910390fd5b808211156132af576040517f08c379a00000000000000000000000000000000000000000000000000000000081526004018080602001828103825260308152602001806148e96030913960400191505060405180910390fd5b60405180604001604052808381526020018281525060078585604051808383808284378083019250505092505050908152602001604051809103902060008201518160000155602082015181600101559050507f64b64d5a316c373e148f92eebf62bd8ce51e1c34b056eb81c7a4d1f0e47636668484848460405180806020018481526020018381526020018281038252868682818152602001925080828437600081840152601f19601f8201169050808301925050509550505050505060405180910390a150505050565b60098054905081106133f5576040517f08c379a00000000000000000000000000000000000000000000000000000000081526004018080602001828103825260138152602001807f496e646578206f7574206f6620626f756e64730000000000000000000000000081525060200191505060405180910390fd5b60006009828154811061340457fe5b906000526020600020015490506001600481111561341e57fe5b6008600083815260200190815260200160002060010160149054906101000a900460ff16600481111561344d57fe5b1415801561349557506002600481111561346357fe5b6008600083815260200190815260200160002060010160149054906101000a900460ff16600481111561349257fe5b14155b613507576040517f08c379a000000000000000000000000000000000000000000000000000000000815260040180806020018281038252601e8152602001807f45786368616e67652070726f706f73616c206e6f7420696e616374697665000081525060200191505060405180910390fd5b600061352260016009805490506144f690919063ffffffff16565b905080831015613560576009818154811061353957fe5b90600052602060002001546009848154811061355157fe5b90600052602060002001819055505b60098054809190600190036135759190614871565b50505050565b60065481565b613589611eb3565b6135fb576040517f08c379a00000000000000000000000000000000000000000000000000000000081526004018080602001828103825260208152602001807f4f776e61626c653a2063616c6c6572206973206e6f7420746865206f776e657281525060200191505060405180910390fd5b613604816143b2565b50565b61360f61485e565b60008061361a614540565b73ffffffffffffffffffffffffffffffffffffffff1663ef90e1b0856040518263ffffffff1660e01b8152600401808273ffffffffffffffffffffffffffffffffffffffff1673ffffffffffffffffffffffffffffffffffffffff168152602001915050604080518083038186803b15801561369557600080fd5b505afa1580156136a9573d6000803e3d6000fd5b505050506040513d60408110156136bf57600080fd5b81019080805190602001909291908051906020019092919050505080925081935050506000811161373b576040517f08c379a0000000000000000000000000000000000000000000000000000000008152600401808060200182810382526021815260200180614aa86021913960400191505060405180910390fd5b61375e61374782613767565b61375084613767565b61384190919063ffffffff16565b92505050919050565b61376f61485e565b6040518060200160405280838152509050919050565b60008160000151836000015110905092915050565b6137a261485e565b816000015183600001511015613820576040517f08c379a000000000000000000000000000000000000000000000000000000000815260040180806020018281038252601f8152602001807f737562737472616374696f6e20756e646572666c6f772064657465637465640081525060200191505060405180910390fd5b60405180602001604052808360000151856000015103815250905092915050565b61384961485e565b6000826000015114156138c4576040517f08c379a00000000000000000000000000000000000000000000000000000000081526004018080602001828103825260118152602001807f63616e277420646976696465206279203000000000000000000000000000000081525060200191505060405180910390fd5b600069d3c21bcecceda10000008460000151029050836000015169d3c21bcecceda100000082816138f157fe5b0414613965576040517f08c379a00000000000000000000000000000000000000000000000000000000081526004018080602001828103825260128152602001807f6f766572666c6f7720617420646976696465000000000000000000000000000081525060200191505060405180910390fd5b60405180602001604052808460000151838161397d57fe5b0481525091505092915050565b6000816000015183600001511115905092915050565b6139a861485e565b600082600001511415613a23576040517f08c379a00000000000000000000000000000000000000000000000000000000081526004018080602001828103825260188152602001807f63616e27742063616c6c207265636970726f63616c283029000000000000000081525060200191505060405180910390fd5b6040518060200160405280836000015169d3c21bcecceda1000000800281613a4757fe5b048152509050919050565b613a5a61485e565b613a6261463b565b821115613aba576040517f08c379a00000000000000000000000000000000000000000000000000000000081526004018080602001828103825260368152602001806149196036913960400191505060405180910390fd5b604051806020016040528069d3c21bcecceda100000084028152509050919050565b613ae461485e565b604051806020016040528069d3c21bcecceda1000000815250905090565b613b0a61485e565b600083600001511480613b21575060008260000151145b15613b3d57604051806020016040528060008152509050613f5b565b69d3c21bcecceda100000082600001511415613b5b57829050613f5b565b69d3c21bcecceda100000083600001511415613b7957819050613f5b565b600069d3c21bcecceda1000000613b8f8561465a565b6000015181613b9a57fe5b0490506000613ba885614691565b600001519050600069d3c21bcecceda1000000613bc48661465a565b6000015181613bcf57fe5b0490506000613bdd86614691565b6000015190506000828502905060008514613c715782858281613bfc57fe5b0414613c70576040517f08c379a00000000000000000000000000000000000000000000000000000000081526004018080602001828103825260168152602001807f6f766572666c6f7720783179312064657465637465640000000000000000000081525060200191505060405180910390fd5b5b600069d3c21bcecceda10000008202905060008214613d135769d3c21bcecceda1000000828281613c9e57fe5b0414613d12576040517f08c379a000000000000000000000000000000000000000000000000000000000815260040180806020018281038252601f8152602001807f6f766572666c6f772078317931202a206669786564312064657465637465640081525060200191505060405180910390fd5b5b8091506000848602905060008614613da45784868281613d2f57fe5b0414613da3576040517f08c379a00000000000000000000000000000000000000000000000000000000081526004018080602001828103825260168152602001807f6f766572666c6f7720783279312064657465637465640000000000000000000081525060200191505060405180910390fd5b5b6000848802905060008814613e325784888281613dbd57fe5b0414613e31576040517f08c379a00000000000000000000000000000000000000000000000000000000081526004018080602001828103825260168152602001807f6f766572666c6f7720783179322064657465637465640000000000000000000081525060200191505060405180910390fd5b5b613e3a6146ce565b8781613e4257fe5b049650613e4d6146ce565b8581613e5557fe5b0494506000858802905060008814613ee65785888281613e7157fe5b0414613ee5576040517f08c379a00000000000000000000000000000000000000000000000000000000081526004018080602001828103825260168152602001807f6f766572666c6f7720783279322064657465637465640000000000000000000081525060200191505060405180910390fd5b5b613eee61485e565b6040518060200160405280878152509050613f17816040518060200160405280878152506146db565b9050613f31816040518060200160405280868152506146db565b9050613f4b816040518060200160405280858152506146db565b9050809a50505050505050505050505b92915050565b600069d3c21bcecceda1000000826000015181613f7a57fe5b049050919050565b600081600001519050919050565b6000600160009054906101000a900473ffffffffffffffffffffffffffffffffffffffff1673ffffffffffffffffffffffffffffffffffffffff1663dcf0aaed60405160200180807f476f6c64546f6b656e00000000000000000000000000000000000000000000008152506009019050604051602081830303815290604052805190602001206040518263ffffffff1660e01b81526004018082815260200191505060206040518083038186803b15801561404b57600080fd5b505afa15801561405f573d6000803e3d6000fd5b505050506040513d602081101561407557600080fd5b8101908080519060200190929190505050905090565b600080828401905083811015614109576040517f08c379a000000000000000000000000000000000000000000000000000000000815260040180806020018281038252601b8152602001807f536166654d6174683a206164646974696f6e206f766572666c6f77000000000081525060200191505060405180910390fd5b8091505092915050565b6000806000808460600151156141395761412b613f90565b9150846080015190506141d9565b6000856020015190508092508073ffffffffffffffffffffffffffffffffffffffff1663af31f58787608001516040518263ffffffff1660e01b81526004018082815260200191505060206040518083038186803b15801561419a57600080fd5b505afa1580156141ae573d6000803e3d6000fd5b505050506040513d60208110156141c457600080fd5b81019080805190602001909291905050509150505b60008273ffffffffffffffffffffffffffffffffffffffff166370a08231306040518263ffffffff1660e01b8152600401808273ffffffffffffffffffffffffffffffffffffffff1673ffffffffffffffffffffffffffffffffffffffff16815260200191505060206040518083038186803b15801561425857600080fd5b505afa15801561426c573d6000803e3d6000fd5b505050506040513d602081101561428257600080fd5b81019080805190602001909291905050509050818110156142a1578091505b828294509450505050915091565b600033905090565b6000600160009054906101000a900473ffffffffffffffffffffffffffffffffffffffff1673ffffffffffffffffffffffffffffffffffffffff1663dcf0aaed60405160200180807f52657365727665000000000000000000000000000000000000000000000000008152506007019050604051602081830303815290604052805190602001206040518263ffffffff1660e01b81526004018082815260200191505060206040518083038186803b15801561437257600080fd5b505afa158015614386573d6000803e3d6000fd5b505050506040513d602081101561439c57600080fd5b8101908080519060200190929190505050905090565b600073ffffffffffffffffffffffffffffffffffffffff168173ffffffffffffffffffffffffffffffffffffffff161415614438576040517f08c379a00000000000000000000000000000000000000000000000000000000081526004018080602001828103825260268152602001806148c36026913960400191505060405180910390fd5b8073ffffffffffffffffffffffffffffffffffffffff166000809054906101000a900473ffffffffffffffffffffffffffffffffffffffff1673ffffffffffffffffffffffffffffffffffffffff167f8be0079c531659141344cd1fd0a4f28419497f9722a3daafe3b4186f6b6457e060405160405180910390a3806000806101000a81548173ffffffffffffffffffffffffffffffffffffffff021916908373ffffffffffffffffffffffffffffffffffffffff16021790555050565b600061453883836040518060400160405280601e81526020017f536166654d6174683a207375627472616374696f6e206f766572666c6f770000815250614784565b905092915050565b6000600160009054906101000a900473ffffffffffffffffffffffffffffffffffffffff1673ffffffffffffffffffffffffffffffffffffffff1663dcf0aaed60405160200180807f536f727465644f7261636c657300000000000000000000000000000000000000815250600d019050604051602081830303815290604052805190602001206040518263ffffffff1660e01b81526004018082815260200191505060206040518083038186803b1580156145fb57600080fd5b505afa15801561460f573d6000803e3d6000fd5b505050506040513d602081101561462557600080fd5b8101908080519060200190929190505050905090565b60007601357c299a88ea76a58924d52ce4f26a85af186c2b9e74905090565b61466261485e565b604051806020016040528069d3c21bcecceda10000008085600001518161468557fe5b04028152509050919050565b61469961485e565b604051806020016040528069d3c21bcecceda1000000808560000151816146bc57fe5b04028460000151038152509050919050565b600064e8d4a51000905090565b6146e361485e565b600082600001518460000151019050836000015181101561476c576040517f08c379a00000000000000000000000000000000000000000000000000000000081526004018080602001828103825260158152602001807f616464206f766572666c6f77206465746563746564000000000000000000000081525060200191505060405180910390fd5b60405180602001604052808281525091505092915050565b6000838311158290614831576040517f08c379a00000000000000000000000000000000000000000000000000000000081526004018080602001828103825283818151815260200191508051906020019080838360005b838110156147f65780820151818401526020810190506147db565b50505050905090810190601f1680156148235780820380516001836020036101000a031916815260200191505b509250505060405180910390fd5b5060008385039050809150509392505050565b604051806040016040528060008152602001600081525090565b6040518060200160405280600081525090565b81548183558181111561489857818360005260206000209182019101614897919061489d565b5b505050565b6148bf91905b808211156148bb5760008160009055506001016148a3565b5090565b9056fe4f776e61626c653a206e6577206f776e657220697320746865207a65726f20616464726573734d696e2065786368616e676520616d6f756e74206d757374206e6f742062652067726561746572207468616e206d617863616e277420637265617465206669786964697479206e756d626572206c6172676572207468616e206d61784e65774669786564282950726f706f73616c206d75737420626520696e2050726f706f73656420737461746550726f706f73616c206d75737420626520696e20417070726f7665642073746174655472616e73666572206f7574206f662043454c4f20746f2052657365727665206661696c65644d617820737461626c6520746f6b656e2065786368616e676520616d6f756e74206d75737420626520646566696e656450726f706f73616c206d75737420626520696e2050726f706f736564206f7220417070726f766564207374617465537461626c6520746f6b656e2065786368616e676520616d6f756e74206e6f742077697468696e206c696d69747343454c4f2065786368616e6765207261746520697320746f6f20646966666572656e742066726f6d207468652070726f706f7365642070726963655472616e73666572206f7574206f662043454c4f2066726f6d2052657365727665206661696c65644e6f206f7261636c652072617465732070726573656e7420666f7220746f6b656e5472616e73666572206f7574206f6620726566756e6420746f6b656e206661696c65645665746f20706572696f642063616e6e6f74206578636565642034207765656b73a265627a7a72315820d32d4f3ece6073ebb846b13d3ab8f28cf641898b22ed587a76c9b5ec5ee55bd564736f6c634300050d0032",
  "source": "pragma solidity ^0.5.13;\n\nimport \"openzeppelin-solidity/contracts/math/SafeMath.sol\";\nimport \"openzeppelin-solidity/contracts/ownership/Ownable.sol\";\n\nimport \"../common/FixidityLib.sol\";\nimport \"../common/Initializable.sol\";\nimport \"../common/UsingRegistry.sol\";\nimport \"../common/interfaces/ICeloVersionedContract.sol\";\nimport \"../common/libraries/ReentrancyGuard.sol\";\nimport \"../stability/interfaces/IStableToken.sol\";\n\n/**\n * @title Facilitates large exchanges between CELO stable tokens.\n */\ncontract GrandaMento is\n  ICeloVersionedContract,\n  Ownable,\n  Initializable,\n  UsingRegistry,\n  ReentrancyGuard\n{\n  using FixidityLib for FixidityLib.Fraction;\n  using SafeMath for uint256;\n\n  // Emitted when a new exchange proposal is created.\n  event ExchangeProposalCreated(\n    uint256 indexed proposalId,\n    address indexed exchanger,\n    string stableTokenRegistryId,\n    uint256 sellAmount,\n    uint256 buyAmount,\n    bool sellCelo\n  );\n\n  // Emitted when an exchange proposal is approved by the approver.\n  event ExchangeProposalApproved(uint256 indexed proposalId);\n\n  // Emitted when an exchange proposal is cancelled.\n  event ExchangeProposalCancelled(uint256 indexed proposalId);\n\n  // Emitted when an exchange proposal is executed.\n  event ExchangeProposalExecuted(uint256 indexed proposalId);\n\n  // Emitted when the approver is set.\n  event ApproverSet(address approver);\n\n  // Emitted when maxApprovalExchangeRateChange is set.\n  event MaxApprovalExchangeRateChangeSet(uint256 maxApprovalExchangeRateChange);\n\n  // Emitted when the spread is set.\n  event SpreadSet(uint256 spread);\n\n  // Emitted when the veto period in seconds is set.\n  event VetoPeriodSecondsSet(uint256 vetoPeriodSeconds);\n\n  // Emitted when the exchange limits for a stable token are set.\n  event StableTokenExchangeLimitsSet(\n    string stableTokenRegistryId,\n    uint256 minExchangeAmount,\n    uint256 maxExchangeAmount\n  );\n\n  enum ExchangeProposalState { None, Proposed, Approved, Executed, Cancelled }\n\n  struct ExchangeLimits {\n    // The minimum amount of an asset that can be exchanged in a single proposal.\n    uint256 minExchangeAmount;\n    // The maximum amount of an asset that can be exchanged in a single proposal.\n    uint256 maxExchangeAmount;\n  }\n\n  struct ExchangeProposal {\n    // The exchanger/proposer of the exchange proposal.\n    address payable exchanger;\n    // The stable token involved in this proposal. This is stored rather than\n    // the stable token's registry ID in case the contract address is changed\n    // after a proposal is created, which could affect refunding or burning the\n    // stable token.\n    address stableToken;\n    // The state of the exchange proposal.\n    ExchangeProposalState state;\n    // Whether the exchanger is selling CELO and buying stableToken.\n    bool sellCelo;\n    // The amount of the sell token being sold. If a stable token is being sold,\n    // the amount of stable token in \"units\" is stored rather than the \"value.\"\n    // This is because stable tokens may experience demurrage/inflation, where\n    // the amount of stable token \"units\" doesn't change with time, but the \"value\"\n    // does. This is important to ensure the correct inflation-adjusted amount\n    // of the stable token is transferred out of this contract when a deposit is\n    // refunded or an exchange selling the stable token is executed.\n    // See StableToken.sol for more details on what \"units\" vs \"values\" are.\n    uint256 sellAmount;\n    // The amount of the buy token being bought. For stable tokens, this is\n    // kept track of as the value, not units.\n    uint256 buyAmount;\n    // The price of CELO quoted in stableToken at the time of the exchange proposal\n    // creation. This is the price used to calculate the buyAmount. Used for a\n    // safety check when an approval is being made that the price isn't wildly\n    // different. Recalculating buyAmount is not sufficient because if a stable token\n    // is being sold that has demurrage enabled, the original value when the stable\n    // tokens were deposited cannot be calculated.\n    uint256 celoStableTokenExchangeRate;\n    // The veto period in seconds at the time the proposal was created. This is kept\n    // track of on a per-proposal basis to lock-in the veto period for a proposal so\n    // that changes to the contract's vetoPeriodSeconds do not affect existing\n    // proposals.\n    uint256 vetoPeriodSeconds;\n    // The timestamp (`block.timestamp`) at which the exchange proposal was approved\n    // in seconds. If the exchange proposal has not ever been approved, is 0.\n    uint256 approvalTimestamp;\n  }\n\n  // The address with the authority to approve exchange proposals.\n  address public approver;\n\n  // The maximum allowed change in the CELO/stable token price when an exchange proposal\n  // is being approved relative to the rate when the exchange proposal was created.\n  FixidityLib.Fraction public maxApprovalExchangeRateChange;\n\n  // The percent fee imposed upon an exchange execution.\n  FixidityLib.Fraction public spread;\n\n  // The period in seconds after an approval during which an exchange proposal can be vetoed.\n  uint256 public vetoPeriodSeconds;\n\n  // The minimum and maximum amount of the stable token that can be minted or\n  // burned in a single exchange. Indexed by the stable token registry identifier string.\n  mapping(string => ExchangeLimits) public stableTokenExchangeLimits;\n\n  // State for all exchange proposals. Indexed by the exchange proposal ID.\n  mapping(uint256 => ExchangeProposal) public exchangeProposals;\n\n  // An array containing a superset of the IDs of exchange proposals that are currently\n  // in the Proposed or Approved state. Intended to allow easy viewing of all active\n  // exchange proposals. It's possible for a proposal ID in this array to no longer be\n  // active, so filtering is required to find the true set of active proposal IDs.\n  // A superset is kept because exchange proposal vetoes, intended to be done\n  // by Governance, effectively go through a multi-day timelock. If the veto\n  // call was required to provide the index in an array of activeProposalIds to\n  // remove corresponding to the vetoed exchange proposal, the timelock could result\n  // in the provided index being stale by the time the veto would be executed.\n  // Alternative approaches exist, like maintaining a linkedlist of active proposal\n  // IDs, but this approach was chosen for its low implementation complexity.\n  uint256[] public activeProposalIdsSuperset;\n\n  // Number of exchange proposals that have ever been created. Used for assigning\n  // an exchange proposal ID to a new proposal.\n  uint256 public exchangeProposalCount;\n\n  /**\n   * @notice Reverts if the sender is not the approver.\n   */\n  modifier onlyApprover() {\n    require(msg.sender == approver, \"Sender must be approver\");\n    _;\n  }\n\n  /**\n   * @notice Sets initialized == true on implementation contracts.\n   * @param test Set to true to skip implementation initialization.\n   */\n  constructor(bool test) public Initializable(test) {}\n\n  /**\n   * @notice Returns the storage, major, minor, and patch version of the contract.\n   * @return The storage, major, minor, and patch version of the contract.\n   */\n  function getVersionNumber() external pure returns (uint256, uint256, uint256, uint256) {\n    return (1, 1, 0, 0);\n  }\n\n  /**\n   * @notice Used in place of the constructor to allow the contract to be upgradable via proxy.\n   * @param _registry The address of the registry.\n   * @param _approver The approver that has the ability to approve exchange proposals.\n   * @param _maxApprovalExchangeRateChange The maximum allowed change in CELO price\n   * between an exchange proposal's creation and approval.\n   * @param _spread The spread charged on exchanges.\n   * @param _vetoPeriodSeconds The length of the veto period in seconds.\n   */\n  function initialize(\n    address _registry,\n    address _approver,\n    uint256 _maxApprovalExchangeRateChange,\n    uint256 _spread,\n    uint256 _vetoPeriodSeconds\n  ) external initializer {\n    _transferOwnership(msg.sender);\n    setRegistry(_registry);\n    setApprover(_approver);\n    setMaxApprovalExchangeRateChange(_maxApprovalExchangeRateChange);\n    setSpread(_spread);\n    setVetoPeriodSeconds(_vetoPeriodSeconds);\n  }\n\n  /**\n   * @notice Creates a new exchange proposal and deposits the tokens being sold.\n   * @dev Stable token value amounts are used for the sellAmount, not unit amounts.\n   * @param stableTokenRegistryId The string registry ID for the stable token\n   * involved in the exchange.\n   * @param sellAmount The amount of the sell token being sold.\n   * @param sellCelo Whether CELO is being sold.\n   * @return The proposal identifier for the newly created exchange proposal.\n   */\n  function createExchangeProposal(\n    string calldata stableTokenRegistryId,\n    uint256 sellAmount,\n    bool sellCelo\n  ) external nonReentrant returns (uint256) {\n    address stableToken = registry.getAddressForStringOrDie(stableTokenRegistryId);\n\n    // Gets the price of CELO quoted in stableToken.\n    uint256 celoStableTokenExchangeRate = getOracleExchangeRate(stableToken).unwrap();\n\n    // Using the current oracle exchange rate, calculate what the buy amount is.\n    // This takes the spread into consideration.\n    uint256 buyAmount = getBuyAmount(celoStableTokenExchangeRate, sellAmount, sellCelo);\n\n    // Create new scope to prevent a stack too deep error.\n    {\n      // Get the minimum and maximum amount of stable token than can be involved\n      // in the exchange. This reverts if exchange limits for the stable token have\n      // not been set.\n      (uint256 minExchangeAmount, uint256 maxExchangeAmount) = getStableTokenExchangeLimits(\n        stableTokenRegistryId\n      );\n      // Ensure that the amount of stableToken being bought or sold is within\n      // the configurable exchange limits.\n      uint256 stableTokenExchangeAmount = sellCelo ? buyAmount : sellAmount;\n      require(\n        stableTokenExchangeAmount <= maxExchangeAmount &&\n          stableTokenExchangeAmount >= minExchangeAmount,\n        \"Stable token exchange amount not within limits\"\n      );\n    }\n\n    // Deposit the assets being sold.\n    IERC20 sellToken = sellCelo ? getGoldToken() : IERC20(stableToken);\n    require(\n      sellToken.transferFrom(msg.sender, address(this), sellAmount),\n      \"Transfer in of sell token failed\"\n    );\n\n    // Record the proposal.\n    // Add 1 to the running proposal count, and use the updated proposal count as\n    // the proposal ID. Proposal IDs intentionally start at 1.\n    exchangeProposalCount = exchangeProposalCount.add(1);\n    // For stable tokens, the amount is stored in units to deal with demurrage.\n    uint256 storedSellAmount = sellCelo\n      ? sellAmount\n      : IStableToken(stableToken).valueToUnits(sellAmount);\n    exchangeProposals[exchangeProposalCount] = ExchangeProposal({\n      exchanger: msg.sender,\n      stableToken: stableToken,\n      state: ExchangeProposalState.Proposed,\n      sellCelo: sellCelo,\n      sellAmount: storedSellAmount,\n      buyAmount: buyAmount,\n      celoStableTokenExchangeRate: celoStableTokenExchangeRate,\n      vetoPeriodSeconds: vetoPeriodSeconds,\n      approvalTimestamp: 0 // initial value when not approved yet\n    });\n    // StableToken.unitsToValue (called within getSellTokenAndSellAmount) can\n    // overflow for very large StableToken amounts. Call it here as a sanity\n    // check, so that the overflow happens here, blocking proposal creation\n    // rather than when attempting to execute the proposal, which would lock\n    // funds in this contract.\n    getSellTokenAndSellAmount(exchangeProposals[exchangeProposalCount]);\n    // Push it into the array of active proposals.\n    activeProposalIdsSuperset.push(exchangeProposalCount);\n    // Even if stable tokens are being sold, the sellAmount emitted is the \"value.\"\n    emit ExchangeProposalCreated(\n      exchangeProposalCount,\n      msg.sender,\n      stableTokenRegistryId,\n      sellAmount,\n      buyAmount,\n      sellCelo\n    );\n    return exchangeProposalCount;\n  }\n\n  /**\n   * @notice Approves an existing exchange proposal.\n   * @dev Sender must be the approver. Exchange proposal must be in the Proposed state.\n   * @param proposalId The identifier of the proposal to approve.\n   */\n  function approveExchangeProposal(uint256 proposalId) external nonReentrant onlyApprover {\n    ExchangeProposal storage proposal = exchangeProposals[proposalId];\n    // Ensure the proposal is in the Proposed state.\n    require(proposal.state == ExchangeProposalState.Proposed, \"Proposal must be in Proposed state\");\n    // Ensure the change in the current price of CELO quoted in the stable token\n    // relative to the value when the proposal was created is within the allowed limit.\n    FixidityLib.Fraction memory currentRate = getOracleExchangeRate(proposal.stableToken);\n    FixidityLib.Fraction memory proposalRate = FixidityLib.wrap(\n      proposal.celoStableTokenExchangeRate\n    );\n    (FixidityLib.Fraction memory lesserRate, FixidityLib.Fraction memory greaterRate) = currentRate\n      .lt(proposalRate)\n      ? (currentRate, proposalRate)\n      : (proposalRate, currentRate);\n    FixidityLib.Fraction memory rateChange = greaterRate.subtract(lesserRate).divide(proposalRate);\n    require(\n      rateChange.lte(maxApprovalExchangeRateChange),\n      \"CELO exchange rate is too different from the proposed price\"\n    );\n\n    // Set the time the approval occurred and change the state.\n    proposal.approvalTimestamp = block.timestamp;\n    proposal.state = ExchangeProposalState.Approved;\n    emit ExchangeProposalApproved(proposalId);\n  }\n\n  /**\n   * @notice Cancels an exchange proposal.\n   * @dev Only callable by the exchanger if the proposal is in the Proposed state\n   * or the owner if the proposal is in the Approved state.\n   * @param proposalId The identifier of the proposal to cancel.\n   */\n  function cancelExchangeProposal(uint256 proposalId) external nonReentrant {\n    ExchangeProposal storage proposal = exchangeProposals[proposalId];\n    // Require the appropriate state and sender.\n    // This will also revert if a proposalId is given that does not correspond\n    // to a previously created exchange proposal.\n    if (proposal.state == ExchangeProposalState.Proposed) {\n      require(proposal.exchanger == msg.sender, \"Sender must be exchanger\");\n    } else if (proposal.state == ExchangeProposalState.Approved) {\n      require(isOwner(), \"Sender must be owner\");\n    } else {\n      revert(\"Proposal must be in Proposed or Approved state\");\n    }\n    // Mark the proposal as cancelled. Do so prior to refunding as a measure against reentrancy.\n    proposal.state = ExchangeProposalState.Cancelled;\n    // Get the token and amount that will be refunded to the proposer.\n    (IERC20 refundToken, uint256 refundAmount) = getSellTokenAndSellAmount(proposal);\n    // Finally, transfer out the deposited funds.\n    require(\n      refundToken.transfer(proposal.exchanger, refundAmount),\n      \"Transfer out of refund token failed\"\n    );\n    emit ExchangeProposalCancelled(proposalId);\n  }\n\n  /**\n   * @notice Executes an exchange proposal that's been approved and not vetoed.\n   * @dev Callable by anyone. Reverts if the proposal is not in the Approved state\n   * or proposal.vetoPeriodSeconds has not elapsed since approval.\n   * @param proposalId The identifier of the proposal to execute.\n   */\n  function executeExchangeProposal(uint256 proposalId) external nonReentrant {\n    ExchangeProposal storage proposal = exchangeProposals[proposalId];\n    // Require that the proposal is in the Approved state.\n    require(proposal.state == ExchangeProposalState.Approved, \"Proposal must be in Approved state\");\n    // Require that the veto period has elapsed since the approval time.\n    require(\n      proposal.approvalTimestamp.add(proposal.vetoPeriodSeconds) <= block.timestamp,\n      \"Veto period not elapsed\"\n    );\n    // Mark the proposal as executed. Do so prior to exchanging as a measure against reentrancy.\n    proposal.state = ExchangeProposalState.Executed;\n    // Perform the exchange.\n    (IERC20 sellToken, uint256 sellAmount) = getSellTokenAndSellAmount(proposal);\n    // If the exchange sells CELO, the CELO is sent to the Reserve from this contract\n    // and stable token is minted to the exchanger.\n    if (proposal.sellCelo) {\n      // Send the CELO from this contract to the reserve.\n      require(\n        sellToken.transfer(address(getReserve()), sellAmount),\n        \"Transfer out of CELO to Reserve failed\"\n      );\n      // Mint stable token to the exchanger.\n      require(\n        IStableToken(proposal.stableToken).mint(proposal.exchanger, proposal.buyAmount),\n        \"Stable token mint failed\"\n      );\n    } else {\n      // If the exchange is selling stable token, the stable token is burned from\n      // this contract and CELO is transferred from the Reserve to the exchanger.\n\n      // Burn the stable token from this contract.\n      require(IStableToken(proposal.stableToken).burn(sellAmount), \"Stable token burn failed\");\n      // Transfer the CELO from the Reserve to the exchanger.\n      require(\n        getReserve().transferExchangeGold(proposal.exchanger, proposal.buyAmount),\n        \"Transfer out of CELO from Reserve failed\"\n      );\n    }\n    emit ExchangeProposalExecuted(proposalId);\n  }\n\n  /**\n   * @notice Gets the sell token and the sell amount for a proposal.\n   * @dev For stable token sell amounts that are stored as units, the value\n   * is returned. Ensures sell amount is not greater than this contract's balance.\n   * @param proposal The proposal to get the sell token and sell amount for.\n   * @return (the IERC20 sell token, the value sell amount).\n   */\n  function getSellTokenAndSellAmount(ExchangeProposal memory proposal)\n    private\n    view\n    returns (IERC20, uint256)\n  {\n    IERC20 sellToken;\n    uint256 sellAmount;\n    if (proposal.sellCelo) {\n      sellToken = getGoldToken();\n      sellAmount = proposal.sellAmount;\n    } else {\n      address stableToken = proposal.stableToken;\n      sellToken = IERC20(stableToken);\n      // When selling stableToken, the sell amount is stored in units.\n      // Units must be converted to value when refunding.\n      sellAmount = IStableToken(stableToken).unitsToValue(proposal.sellAmount);\n    }\n    // In the event a precision issue from the unit <-> value calculations results\n    // in sellAmount being greater than this contract's balance, set the sellAmount\n    // to the entire balance.\n    // This check should not be necessary for CELO, but is done so regardless\n    // for extra certainty that cancelling an exchange proposal can never fail\n    // if for some reason the CELO balance of this contract is less than the\n    // recorded sell amount.\n    uint256 totalBalance = sellToken.balanceOf(address(this));\n    if (totalBalance < sellAmount) {\n      sellAmount = totalBalance;\n    }\n    return (sellToken, sellAmount);\n  }\n\n  /**\n   * @notice Using the oracle price, charges the spread and calculates the amount of\n   * the asset being bought.\n   * @dev Stable token value amounts are used for the sellAmount, not unit amounts.\n   * Assumes both CELO and the stable token have 18 decimals.\n   * @param celoStableTokenExchangeRate The unwrapped fraction exchange rate of CELO\n   * quoted in the stable token.\n   * @param sellAmount The amount of the sell token being sold.\n   * @param sellCelo Whether CELO is being sold.\n   * @return The amount of the asset being bought.\n   */\n  function getBuyAmount(uint256 celoStableTokenExchangeRate, uint256 sellAmount, bool sellCelo)\n    public\n    view\n    returns (uint256)\n  {\n    FixidityLib.Fraction memory exchangeRate = FixidityLib.wrap(celoStableTokenExchangeRate);\n    // If stableToken is being sold, instead use the price of stableToken\n    // quoted in CELO.\n    if (!sellCelo) {\n      exchangeRate = exchangeRate.reciprocal();\n    }\n    // The sell amount taking the spread into account, ie:\n    // (1 - spread) * sellAmount\n    FixidityLib.Fraction memory adjustedSellAmount = FixidityLib.fixed1().subtract(spread).multiply(\n      FixidityLib.newFixed(sellAmount)\n    );\n    // Calculate the buy amount:\n    // exchangeRate * adjustedSellAmount\n    return exchangeRate.multiply(adjustedSellAmount).fromFixed();\n  }\n\n  /**\n   * @notice Removes the proposal ID found at the provided index of activeProposalIdsSuperset\n   * if the exchange proposal is not active.\n   * @dev Anyone can call. Reverts if the exchange proposal is active.\n   * @param index The index of the proposal ID to remove from activeProposalIdsSuperset.\n   */\n  function removeFromActiveProposalIdsSuperset(uint256 index) external {\n    require(index < activeProposalIdsSuperset.length, \"Index out of bounds\");\n    uint256 proposalId = activeProposalIdsSuperset[index];\n    // Require the exchange proposal to be inactive.\n    require(\n      exchangeProposals[proposalId].state != ExchangeProposalState.Proposed &&\n        exchangeProposals[proposalId].state != ExchangeProposalState.Approved,\n      \"Exchange proposal not inactive\"\n    );\n    // If not removing the last element, overwrite the index with the value of\n    // the last element.\n    uint256 lastIndex = activeProposalIdsSuperset.length.sub(1);\n    if (index < lastIndex) {\n      activeProposalIdsSuperset[index] = activeProposalIdsSuperset[lastIndex];\n    }\n    // Delete the last element.\n    activeProposalIdsSuperset.length--;\n  }\n\n  /**\n   * @notice Gets the proposal identifiers of exchange proposals in the\n   * Proposed or Approved state. Returns a version of activeProposalIdsSuperset\n   * with inactive proposal IDs set as 0.\n   * @dev Elements with a proposal ID of 0 should be filtered out by the consumer.\n   * @return An array of active exchange proposals IDs.\n   */\n  function getActiveProposalIds() external view returns (uint256[] memory) {\n    // Solidity doesn't play well with dynamically sized memory arrays.\n    // Instead, this array is created with the same length as activeProposalIdsSuperset,\n    // and will replace elements that are inactive proposal IDs with the value 0.\n    uint256[] memory activeProposalIds = new uint256[](activeProposalIdsSuperset.length);\n\n    for (uint256 i = 0; i < activeProposalIdsSuperset.length; i = i.add(1)) {\n      uint256 proposalId = activeProposalIdsSuperset[i];\n      if (\n        exchangeProposals[proposalId].state == ExchangeProposalState.Proposed ||\n        exchangeProposals[proposalId].state == ExchangeProposalState.Approved\n      ) {\n        activeProposalIds[i] = proposalId;\n      }\n    }\n    return activeProposalIds;\n  }\n\n  /**\n   * @notice Gets the oracle CELO price quoted in the stable token.\n   * @dev Reverts if there is not a rate for the provided stable token.\n   * @param stableToken The stable token to get the oracle price for.\n   * @return The oracle CELO price quoted in the stable token.\n   */\n  function getOracleExchangeRate(address stableToken)\n    private\n    view\n    returns (FixidityLib.Fraction memory)\n  {\n    uint256 rateNumerator;\n    uint256 rateDenominator;\n    (rateNumerator, rateDenominator) = getSortedOracles().medianRate(stableToken);\n    // When rateDenominator is 0, it means there are no rates known to SortedOracles.\n    require(rateDenominator > 0, \"No oracle rates present for token\");\n    return FixidityLib.wrap(rateNumerator).divide(FixidityLib.wrap(rateDenominator));\n  }\n\n  /**\n   * @notice Gets the minimum and maximum amount of a stable token that can be\n   * involved in a single exchange.\n   * @dev Reverts if there is no explicit exchange limit for the stable token.\n   * @param stableTokenRegistryId The string registry ID for the stable token.\n   * @return (minimum exchange amount, maximum exchange amount).\n   */\n  function getStableTokenExchangeLimits(string memory stableTokenRegistryId)\n    public\n    view\n    returns (uint256, uint256)\n  {\n    ExchangeLimits memory exchangeLimits = stableTokenExchangeLimits[stableTokenRegistryId];\n    // Require the configurable stableToken max exchange amount to be > 0.\n    // This covers the case where a stableToken has never been explicitly permitted.\n    require(\n      exchangeLimits.maxExchangeAmount > 0,\n      \"Max stable token exchange amount must be defined\"\n    );\n    return (exchangeLimits.minExchangeAmount, exchangeLimits.maxExchangeAmount);\n  }\n\n  /**\n   * @notice Sets the approver.\n   * @dev Sender must be owner. New approver is allowed to be address(0).\n   * @param newApprover The new value for the approver.\n   */\n  function setApprover(address newApprover) public onlyOwner {\n    approver = newApprover;\n    emit ApproverSet(newApprover);\n  }\n\n  /**\n   * @notice Sets the maximum allowed change in the CELO/stable token price when\n   * an exchange proposal is being approved relative to the price when the proposal\n   * was created.\n   * @dev Sender must be owner.\n   * @param newMaxApprovalExchangeRateChange The new value for maxApprovalExchangeRateChange\n   * to be wrapped.\n   */\n  function setMaxApprovalExchangeRateChange(uint256 newMaxApprovalExchangeRateChange)\n    public\n    onlyOwner\n  {\n    maxApprovalExchangeRateChange = FixidityLib.wrap(newMaxApprovalExchangeRateChange);\n    emit MaxApprovalExchangeRateChangeSet(newMaxApprovalExchangeRateChange);\n  }\n\n  /**\n   * @notice Sets the spread.\n   * @dev Sender must be owner.\n   * @param newSpread The new value for the spread to be wrapped. Must be <= fixed 1.\n   */\n  function setSpread(uint256 newSpread) public onlyOwner {\n    require(newSpread <= FixidityLib.fixed1().unwrap(), \"Spread must be smaller than 1\");\n    spread = FixidityLib.wrap(newSpread);\n    emit SpreadSet(newSpread);\n  }\n\n  /**\n   * @notice Sets the minimum and maximum amount of the stable token an exchange can involve.\n   * @dev Sender must be owner. Setting the maxExchangeAmount to 0 effectively disables new\n   * exchange proposals for the token.\n   * @param stableTokenRegistryId The registry ID string for the stable token to set limits for.\n   * @param minExchangeAmount The new minimum exchange amount for the stable token.\n   * @param maxExchangeAmount The new maximum exchange amount for the stable token.\n   */\n  function setStableTokenExchangeLimits(\n    string calldata stableTokenRegistryId,\n    uint256 minExchangeAmount,\n    uint256 maxExchangeAmount\n  ) external onlyOwner {\n    require(\n      minExchangeAmount <= maxExchangeAmount,\n      \"Min exchange amount must not be greater than max\"\n    );\n    stableTokenExchangeLimits[stableTokenRegistryId] = ExchangeLimits({\n      minExchangeAmount: minExchangeAmount,\n      maxExchangeAmount: maxExchangeAmount\n    });\n    emit StableTokenExchangeLimitsSet(stableTokenRegistryId, minExchangeAmount, maxExchangeAmount);\n  }\n\n  /**\n   * @notice Sets the veto period in seconds.\n   * @dev Sender must be owner.\n   * @param newVetoPeriodSeconds The new value for the veto period in seconds.\n   */\n  function setVetoPeriodSeconds(uint256 newVetoPeriodSeconds) public onlyOwner {\n    // Hardcode a max of 4 weeks.\n    // A minimum is not enforced for flexibility. A case of interest is if\n    // Governance were to be set as the `approver`, it would be desirable to\n    // set the veto period to 0 seconds.\n    require(newVetoPeriodSeconds <= 4 weeks, \"Veto period cannot exceed 4 weeks\");\n    vetoPeriodSeconds = newVetoPeriodSeconds;\n    emit VetoPeriodSecondsSet(newVetoPeriodSeconds);\n  }\n}\n",
  "sourcePath": "/Users/hiroki.yasui/go/src/github.com/celo-org/celo-monorepo/packages/protocol/contracts/stability/GrandaMento.sol",
  "compiler": {
    "name": "solc",
    "version": "0.5.13+commit.5b0b510c.Emscripten.clang"
  },
  "schemaVersion": "3.0.23",
  "updatedAt": "2022-05-06T03:53:13.058Z",
  "devdoc": {
    "methods": {
      "approveExchangeProposal(uint256)": {
        "details": "Sender must be the approver. Exchange proposal must be in the Proposed state.",
        "params": {
          "proposalId": "The identifier of the proposal to approve."
        }
      },
      "cancelExchangeProposal(uint256)": {
        "details": "Only callable by the exchanger if the proposal is in the Proposed state or the owner if the proposal is in the Approved state.",
        "params": {
          "proposalId": "The identifier of the proposal to cancel."
        }
      },
      "constructor": {
        "params": {
          "test": "Set to true to skip implementation initialization."
        }
      },
      "createExchangeProposal(string,uint256,bool)": {
        "details": "Stable token value amounts are used for the sellAmount, not unit amounts.",
        "params": {
          "sellAmount": "The amount of the sell token being sold.",
          "sellCelo": "Whether CELO is being sold.",
          "stableTokenRegistryId": "The string registry ID for the stable token involved in the exchange."
        },
        "return": "The proposal identifier for the newly created exchange proposal."
      },
      "executeExchangeProposal(uint256)": {
        "details": "Callable by anyone. Reverts if the proposal is not in the Approved state or proposal.vetoPeriodSeconds has not elapsed since approval.",
        "params": {
          "proposalId": "The identifier of the proposal to execute."
        }
      },
      "getActiveProposalIds()": {
        "details": "Elements with a proposal ID of 0 should be filtered out by the consumer.",
        "return": "An array of active exchange proposals IDs."
      },
      "getBuyAmount(uint256,uint256,bool)": {
        "details": "Stable token value amounts are used for the sellAmount, not unit amounts. Assumes both CELO and the stable token have 18 decimals.",
        "params": {
          "celoStableTokenExchangeRate": "The unwrapped fraction exchange rate of CELO quoted in the stable token.",
          "sellAmount": "The amount of the sell token being sold.",
          "sellCelo": "Whether CELO is being sold."
        },
        "return": "The amount of the asset being bought."
      },
      "getStableTokenExchangeLimits(string)": {
        "details": "Reverts if there is no explicit exchange limit for the stable token.",
        "params": {
          "stableTokenRegistryId": "The string registry ID for the stable token."
        },
        "return": "(minimum exchange amount, maximum exchange amount)."
      },
      "getVersionNumber()": {
        "return": "The storage, major, minor, and patch version of the contract."
      },
      "initialize(address,address,uint256,uint256,uint256)": {
        "params": {
          "_approver": "The approver that has the ability to approve exchange proposals.",
          "_maxApprovalExchangeRateChange": "The maximum allowed change in CELO price between an exchange proposal's creation and approval.",
          "_registry": "The address of the registry.",
          "_spread": "The spread charged on exchanges.",
          "_vetoPeriodSeconds": "The length of the veto period in seconds."
        }
      },
      "isOwner()": {
        "details": "Returns true if the caller is the current owner."
      },
      "owner()": {
        "details": "Returns the address of the current owner."
      },
      "removeFromActiveProposalIdsSuperset(uint256)": {
        "details": "Anyone can call. Reverts if the exchange proposal is active.",
        "params": {
          "index": "The index of the proposal ID to remove from activeProposalIdsSuperset."
        }
      },
      "renounceOwnership()": {
        "details": "Leaves the contract without owner. It will not be possible to call `onlyOwner` functions anymore. Can only be called by the current owner.     * NOTE: Renouncing ownership will leave the contract without an owner, thereby removing any functionality that is only available to the owner."
      },
      "setApprover(address)": {
        "details": "Sender must be owner. New approver is allowed to be address(0).",
        "params": {
          "newApprover": "The new value for the approver."
        }
      },
      "setMaxApprovalExchangeRateChange(uint256)": {
        "details": "Sender must be owner.",
        "params": {
          "newMaxApprovalExchangeRateChange": "The new value for maxApprovalExchangeRateChange to be wrapped."
        }
      },
      "setRegistry(address)": {
        "params": {
          "registryAddress": "The address of a registry contract for routing to other contracts."
        }
      },
      "setSpread(uint256)": {
        "details": "Sender must be owner.",
        "params": {
          "newSpread": "The new value for the spread to be wrapped. Must be <= fixed 1."
        }
      },
      "setStableTokenExchangeLimits(string,uint256,uint256)": {
        "details": "Sender must be owner. Setting the maxExchangeAmount to 0 effectively disables new exchange proposals for the token.",
        "params": {
          "maxExchangeAmount": "The new maximum exchange amount for the stable token.",
          "minExchangeAmount": "The new minimum exchange amount for the stable token.",
          "stableTokenRegistryId": "The registry ID string for the stable token to set limits for."
        }
      },
      "setVetoPeriodSeconds(uint256)": {
        "details": "Sender must be owner.",
        "params": {
          "newVetoPeriodSeconds": "The new value for the veto period in seconds."
        }
      },
      "transferOwnership(address)": {
        "details": "Transfers ownership of the contract to a new account (`newOwner`). Can only be called by the current owner."
      }
    },
    "title": "Facilitates large exchanges between CELO stable tokens."
  },
  "userdoc": {
    "methods": {
      "approveExchangeProposal(uint256)": {
        "notice": "Approves an existing exchange proposal."
      },
      "cancelExchangeProposal(uint256)": {
        "notice": "Cancels an exchange proposal."
      },
      "constructor": "Sets initialized == true on implementation contracts.",
      "createExchangeProposal(string,uint256,bool)": {
        "notice": "Creates a new exchange proposal and deposits the tokens being sold."
      },
      "executeExchangeProposal(uint256)": {
        "notice": "Executes an exchange proposal that's been approved and not vetoed."
      },
      "getActiveProposalIds()": {
        "notice": "Gets the proposal identifiers of exchange proposals in the Proposed or Approved state. Returns a version of activeProposalIdsSuperset with inactive proposal IDs set as 0."
      },
      "getBuyAmount(uint256,uint256,bool)": {
        "notice": "Using the oracle price, charges the spread and calculates the amount of the asset being bought."
      },
      "getStableTokenExchangeLimits(string)": {
        "notice": "Gets the minimum and maximum amount of a stable token that can be involved in a single exchange."
      },
      "getVersionNumber()": {
        "notice": "Returns the storage, major, minor, and patch version of the contract."
      },
      "initialize(address,address,uint256,uint256,uint256)": {
        "notice": "Used in place of the constructor to allow the contract to be upgradable via proxy."
      },
      "removeFromActiveProposalIdsSuperset(uint256)": {
        "notice": "Removes the proposal ID found at the provided index of activeProposalIdsSuperset if the exchange proposal is not active."
      },
      "setApprover(address)": {
        "notice": "Sets the approver."
      },
      "setMaxApprovalExchangeRateChange(uint256)": {
        "notice": "Sets the maximum allowed change in the CELO/stable token price when an exchange proposal is being approved relative to the price when the proposal was created."
      },
      "setRegistry(address)": {
        "notice": "Updates the address pointing to a Registry contract."
      },
      "setSpread(uint256)": {
        "notice": "Sets the spread."
      },
      "setStableTokenExchangeLimits(string,uint256,uint256)": {
        "notice": "Sets the minimum and maximum amount of the stable token an exchange can involve."
      },
      "setVetoPeriodSeconds(uint256)": {
        "notice": "Sets the veto period in seconds."
      }
    }
  }
}