{
  "contractName": "HeapTest",
  "abi": [
    {
      "constant": true,
      "inputs": [
        {
          "internalType": "uint256[]",
          "name": "intValues",
          "type": "uint256[]"
        }
      ],
      "name": "sort",
      "outputs": [
        {
          "internalType": "uint256[]",
          "name": "",
          "type": "uint256[]"
        }
      ],
      "payable": false,
      "stateMutability": "pure",
      "type": "function"
    }
  ],
  "bytecode": "0x608060405234801561001057600080fd5b50610899806100206000396000f3fe608060405234801561001057600080fd5b506004361061002b5760003560e01c80639ec8b02614610030575b600080fd5b6100e66004803603602081101561004657600080fd5b810190808035906020019064010000000081111561006357600080fd5b82018360208201111561007557600080fd5b8035906020019184602083028401116401000000008311171561009757600080fd5b919080806020026020016040519081016040528093929190818152602001838360200280828437600081840152601f19601f82011690508083019250505050505050919291929050505061013d565b6040518080602001828103825283818151815260200191508051906020019060200280838360005b8381101561012957808201518184015260208101905061010e565b505050509050019250505060405180910390f35b606060008251905060608160405190808252806020026020018201604052801561018157816020015b61016e6107fa565b8152602001906001900390816101665790505b5090506060826040519080825280602002602001820160405280156101b55781602001602082028038833980820191505090505b50905060008090505b8381101561021f57808282815181106101d357fe5b6020026020010181815250506101fb8682815181106101ee57fe5b6020026020010151610333565b83828151811061020757fe5b602002602001018190525080806001019150506101be565b5060006002848161022c57fe5b0490505b600081126102525761024482848387610351565b808060019003915050610230565b5060008390505b600081111561028f5761027182600183036000610666565b6102818284600060018503610351565b808060019003915050610259565b506060836040519080825280602002602001820160405280156102c15781602001602082028038833980820191505090505b50905060008090505b8481101561032657610301848483815181106102e257fe5b6020026020010151815181106102f457fe5b60200260200101516106c9565b82828151811061030d57fe5b60200260200101818152505080806001019150506102ca565b5080945050505050919050565b61033b61080d565b6040518060200160405280838152509050919050565b82518451146103ab576040517f08c379a00000000000000000000000000000000000000000000000000000000081526004018080602001828103825260238152602001806108426023913960400191505060405180910390fd5b83518210610421576040517f08c379a000000000000000000000000000000000000000000000000000000000815260040180806020018281038252601d8152602001807f6865617020737461727420696e646578206f7574206f662072616e676500000081525060200191505060405180910390fd5b8351811115610498576040517f08c379a00000000000000000000000000000000000000000000000000000000081526004018080602001828103825260188152602001807f68656170206c656e677468206f7574206f662072616e6765000000000000000081525060200191505060405180910390fd5b60008290505b60011561065f5760006104ce60016104c06002856106d790919063ffffffff16565b61075d90919063ffffffff16565b905060006104f960026104eb6002866106d790919063ffffffff16565b61075d90919063ffffffff16565b90506000839050848310801561056a57506105698789838151811061051a57fe5b60200260200101518151811061052c57fe5b6020026020010151888a868151811061054157fe5b60200260200101518151811061055357fe5b60200260200101516107e590919063ffffffff16565b5b15610573578290505b84821080156105dd57506105dc8789838151811061058d57fe5b60200260200101518151811061059f57fe5b6020026020010151888a85815181106105b457fe5b6020026020010151815181106105c657fe5b60200260200101516107e590919063ffffffff16565b5b156105e6578190505b838114156105f65750505061065f565b600088858151811061060457fe5b6020026020010151905088828151811061061a57fe5b602002602001015189868151811061062e57fe5b6020026020010181815250508089838151811061064757fe5b6020026020010181815250508194505050505061049e565b5050505050565b600083838151811061067457fe5b6020026020010151905083828151811061068a57fe5b602002602001015184848151811061069e57fe5b602002602001018181525050808483815181106106b757fe5b60200260200101818152505050505050565b600081600001519050919050565b6000808314156106ea5760009050610757565b60008284029050828482816106fb57fe5b0414610752576040517f08c379a00000000000000000000000000000000000000000000000000000000081526004018080602001828103825260218152602001806108216021913960400191505060405180910390fd5b809150505b92915050565b6000808284019050838110156107db576040517f08c379a000000000000000000000000000000000000000000000000000000000815260040180806020018281038252601b8152602001807f536166654d6174683a206164646974696f6e206f766572666c6f77000000000081525060200191505060405180910390fd5b8091505092915050565b60008160000151836000015111905092915050565b6040518060200160405280600081525090565b604051806020016040528060008152509056fe536166654d6174683a206d756c7469706c69636174696f6e206f766572666c6f776b657920616e642076616c7565206172726179206c656e677468206d69736d61746368a265627a7a723158203c9ff6e87790a5e3cdbc5a0ceea942b7784080b6a04fd3460de6d3cf5e59f32c64736f6c634300050d0032",
  "source": "pragma solidity ^0.5.13;\n\nimport \"../libraries/Heap.sol\";\n\ncontract HeapTest {\n  using FixidityLib for FixidityLib.Fraction;\n\n  function swapKeys(uint256[] memory keys, uint256 i, uint256 j) internal pure {\n    uint256 tmp = keys[i];\n    keys[i] = keys[j];\n    keys[j] = tmp;\n  }\n\n  function sort(uint256[] memory intValues) public pure returns (uint256[] memory) {\n    uint256 length = intValues.length;\n    FixidityLib.Fraction[] memory values = new FixidityLib.Fraction[](length);\n    uint256[] memory keys = new uint256[](length);\n    for (uint256 i = 0; i < length; i++) {\n      keys[i] = i;\n      values[i] = FixidityLib.wrap(intValues[i]);\n    }\n    // heapify\n    for (int256 start = int256(length / 2); start >= 0; start--) {\n      Heap.siftDown(keys, values, uint256(start), length);\n    }\n    for (uint256 end = length; end > 0; end--) {\n      swapKeys(keys, end - 1, 0);\n      Heap.siftDown(keys, values, 0, end - 1);\n    }\n    uint256[] memory result = new uint256[](length);\n    for (uint256 i = 0; i < length; i++) {\n      result[i] = values[keys[i]].unwrap();\n    }\n    return result;\n  }\n\n}\n",
  "sourcePath": "/Users/hiroki.yasui/go/src/github.com/celo-org/celo-monorepo/packages/protocol/contracts/common/test/HeapTest.sol",
  "compiler": {
    "name": "solc",
    "version": "0.5.13+commit.5b0b510c.Emscripten.clang"
  },
  "schemaVersion": "3.0.23",
  "updatedAt": "2022-05-06T03:53:12.798Z",
  "devdoc": {
    "methods": {}
  },
  "userdoc": {
    "methods": {}
  }
}