{
  "contractName": "IdentityProxyTest",
  "abi": [
    {
      "constant": true,
      "inputs": [],
      "name": "amountLastPaid",
      "outputs": [
        {
          "internalType": "uint256",
          "name": "",
          "type": "uint256"
        }
      ],
      "payable": false,
      "stateMutability": "view",
      "type": "function"
    },
    {
      "constant": true,
      "inputs": [],
      "name": "lastAddress",
      "outputs": [
        {
          "internalType": "address",
          "name": "",
          "type": "address"
        }
      ],
      "payable": false,
      "stateMutability": "view",
      "type": "function"
    },
    {
      "constant": true,
      "inputs": [],
      "name": "x",
      "outputs": [
        {
          "internalType": "uint256",
          "name": "",
          "type": "uint256"
        }
      ],
      "payable": false,
      "stateMutability": "view",
      "type": "function"
    },
    {
      "constant": false,
      "inputs": [],
      "name": "callMe",
      "outputs": [],
      "payable": false,
      "stateMutability": "nonpayable",
      "type": "function"
    },
    {
      "constant": false,
      "inputs": [],
      "name": "payMe",
      "outputs": [],
      "payable": true,
      "stateMutability": "payable",
      "type": "function"
    },
    {
      "constant": false,
      "inputs": [
        {
          "internalType": "uint256",
          "name": "_x",
          "type": "uint256"
        }
      ],
      "name": "setX",
      "outputs": [],
      "payable": false,
      "stateMutability": "nonpayable",
      "type": "function"
    }
  ],
  "bytecode": "0x608060405234801561001057600080fd5b5061021e806100206000396000f3fe6080604052600436106100555760003560e01c80630c55699c1461005a5780634018d9aa146100855780635574d9d0146100c0578063b0bea725146100eb578063cd68100c14610102578063d997ccb314610159575b600080fd5b34801561006657600080fd5b5061006f610163565b6040518082815260200191505060405180910390f35b34801561009157600080fd5b506100be600480360360208110156100a857600080fd5b8101908080359060200190929190505050610169565b005b3480156100cc57600080fd5b506100d5610173565b6040518082815260200191505060405180910390f35b3480156100f757600080fd5b50610100610179565b005b34801561010e57600080fd5b506101176101bb565b604051808273ffffffffffffffffffffffffffffffffffffffff1673ffffffffffffffffffffffffffffffffffffffff16815260200191505060405180910390f35b6101616101e0565b005b60015481565b8060018190555050565b60025481565b336000806101000a81548173ffffffffffffffffffffffffffffffffffffffff021916908373ffffffffffffffffffffffffffffffffffffffff160217905550565b6000809054906101000a900473ffffffffffffffffffffffffffffffffffffffff1681565b3460028190555056fea265627a7a723158201f7ea6e8074dae59fb1f020f2bcba95e87835f5e70ab7ca063146c327fa8d11264736f6c634300050d0032",
  "source": "pragma solidity ^0.5.13;\n\ncontract IdentityProxyTest {\n  address public lastAddress;\n  uint256 public x;\n  uint256 public amountLastPaid;\n\n  function callMe() external {\n    lastAddress = msg.sender;\n  }\n\n  function payMe() external payable {\n    amountLastPaid = msg.value;\n  }\n\n  function setX(uint256 _x) external {\n    x = _x;\n  }\n}\n",
  "sourcePath": "/Users/hiroki.yasui/go/src/github.com/celo-org/celo-monorepo/packages/protocol/contracts/identity/test/IdentityProxyTest.sol",
  "compiler": {
    "name": "solc",
    "version": "0.5.13+commit.5b0b510c.Emscripten.clang"
  },
  "schemaVersion": "3.0.23",
  "updatedAt": "2022-05-06T03:53:13.036Z",
  "devdoc": {
    "methods": {}
  },
  "userdoc": {
    "methods": {}
  }
}