{
  "contractName": "LinkedListTest",
  "abi": [
    {
      "constant": false,
      "inputs": [
        {
          "internalType": "bytes32",
          "name": "key",
          "type": "bytes32"
        },
        {
          "internalType": "bytes32",
          "name": "previousKey",
          "type": "bytes32"
        },
        {
          "internalType": "bytes32",
          "name": "nextKey",
          "type": "bytes32"
        }
      ],
      "name": "insert",
      "outputs": [],
      "payable": false,
      "stateMutability": "nonpayable",
      "type": "function"
    },
    {
      "constant": false,
      "inputs": [
        {
          "internalType": "bytes32",
          "name": "key",
          "type": "bytes32"
        },
        {
          "internalType": "bytes32",
          "name": "previousKey",
          "type": "bytes32"
        },
        {
          "internalType": "bytes32",
          "name": "nextKey",
          "type": "bytes32"
        }
      ],
      "name": "update",
      "outputs": [],
      "payable": false,
      "stateMutability": "nonpayable",
      "type": "function"
    },
    {
      "constant": false,
      "inputs": [
        {
          "internalType": "bytes32",
          "name": "key",
          "type": "bytes32"
        }
      ],
      "name": "remove",
      "outputs": [],
      "payable": false,
      "stateMutability": "nonpayable",
      "type": "function"
    },
    {
      "constant": true,
      "inputs": [
        {
          "internalType": "bytes32",
          "name": "key",
          "type": "bytes32"
        }
      ],
      "name": "contains",
      "outputs": [
        {
          "internalType": "bool",
          "name": "",
          "type": "bool"
        }
      ],
      "payable": false,
      "stateMutability": "view",
      "type": "function"
    },
    {
      "constant": true,
      "inputs": [],
      "name": "getNumElements",
      "outputs": [
        {
          "internalType": "uint256",
          "name": "",
          "type": "uint256"
        }
      ],
      "payable": false,
      "stateMutability": "view",
      "type": "function"
    },
    {
      "constant": true,
      "inputs": [],
      "name": "getKeys",
      "outputs": [
        {
          "internalType": "bytes32[]",
          "name": "",
          "type": "bytes32[]"
        }
      ],
      "payable": false,
      "stateMutability": "view",
      "type": "function"
    },
    {
      "constant": true,
      "inputs": [],
      "name": "head",
      "outputs": [
        {
          "internalType": "bytes32",
          "name": "",
          "type": "bytes32"
        }
      ],
      "payable": false,
      "stateMutability": "view",
      "type": "function"
    },
    {
      "constant": true,
      "inputs": [],
      "name": "tail",
      "outputs": [
        {
          "internalType": "bytes32",
          "name": "",
          "type": "bytes32"
        }
      ],
      "payable": false,
      "stateMutability": "view",
      "type": "function"
    }
  ],
  "bytecode": "0x608060405234801561001057600080fd5b50610d9c806100206000396000f3fe608060405234801561001057600080fd5b50600436106100885760003560e01c80638f7dcfa31161005b5780638f7dcfa31461016e57806395bc26731461018c5780639c0d2525146101ba578063a112f22a146101fc57610088565b806313d8c8401461008d5780631d1a696d146100ab5780632150c518146100f15780635f16727614610150575b600080fd5b61009561023e565b6040518082815260200191505060405180910390f35b6100d7600480360360208110156100c157600080fd5b810190808035906020019092919050505061024a565b604051808215151515815260200191505060405180910390f35b6100f9610267565b6040518080602001828103825283818151815260200191508051906020019060200280838360005b8381101561013c578082015181840152602081019050610121565b505050509050019250505060405180910390f35b610158610278565b6040518082815260200191505060405180910390f35b610176610284565b6040518082815260200191505060405180910390f35b6101b8600480360360208110156101a257600080fd5b8101908080359060200190929190505050610290565b005b6101fa600480360360608110156101d057600080fd5b810190808035906020019092919080359060200190929190803590602001909291905050506102a7565b005b61023c6004803603606081101561021257600080fd5b810190808035906020019092919080359060200190929190803590602001909291905050506102c4565b005b60008060010154905090565b60006102608260006102e190919063ffffffff16565b9050919050565b60606102736000610311565b905090565b60008060020154905090565b60008060000154905090565b6102a481600061032890919063ffffffff16565b50565b6102bf83838360006104c5909392919063ffffffff16565b505050565b6102dc8383836000610584909392919063ffffffff16565b505050565b600082600301600083815260200190815260200160002060020160009054906101000a900460ff16905092915050565b60606103218283600201546109cb565b9050919050565b600082600301600083815260200190815260200160002090506000801b821415801561035a575061035983836102e1565b5b6103cc576040517f08c379a000000000000000000000000000000000000000000000000000000000815260040180806020018281038252600f8152602001807f6b6579206e6f7420696e206c697374000000000000000000000000000000000081525060200191505060405180910390fd5b6000801b81600001541461040a5760008360030160008360000154815260200190815260200160002090508160010154816001018190555050610418565b806001015483600101819055505b6000801b8160010154146104565760008360030160008360010154815260200190815260200160002090508160000154816000018190555050610464565b806000015483600001819055505b82600301600083815260200190815260200160002060008082016000905560018201600090556002820160006101000a81549060ff021916905550506104b860018460020154610aed90919063ffffffff16565b8360020181905550505050565b6000801b83141580156104d85750818314155b80156104e45750808314155b80156104f657506104f584846102e1565b5b610568576040517f08c379a000000000000000000000000000000000000000000000000000000000815260040180806020018281038252600e8152602001807f6b6579206f6e20696e206c69737400000000000000000000000000000000000081525060200191505060405180910390fd5b6105728484610328565b61057e84848484610584565b50505050565b6000801b8314156105fd576040517f08c379a00000000000000000000000000000000000000000000000000000000081526004018080602001828103825260138152602001807f4b6579206d75737420626520646566696e65640000000000000000000000000081525060200191505060405180910390fd5b61060784846102e1565b1561067a576040517f08c379a00000000000000000000000000000000000000000000000000000000081526004018080602001828103825260208152602001807f43616e277420696e7365727420616e206578697374696e6720656c656d656e7481525060200191505060405180910390fd5b82821415801561068a5750828114155b6106df576040517f08c379a0000000000000000000000000000000000000000000000000000000008152600401808060200182810382526030815260200180610c806030913960400191505060405180910390fd5b6000846003016000858152602001908152602001600020905060018160020160006101000a81548160ff021916908315150217905550600085600201541415610739578385600101819055508385600001819055506109a4565b6000801b8314158061074e57506000801b8214155b6107a3576040517f08c379a000000000000000000000000000000000000000000000000000000000815260040180806020018281038252602d815260200180610d3b602d913960400191505060405180910390fd5b8281600001819055508181600101819055506000801b83146108a2576107c985846102e1565b61081e576040517f08c379a0000000000000000000000000000000000000000000000000000000008152600401808060200182810382526034815260200180610cd76034913960400191505060405180910390fd5b6000856003016000858152602001908152602001600020905082816001015414610893576040517f08c379a0000000000000000000000000000000000000000000000000000000008152600401808060200182810382526027815260200180610cb06027913960400191505060405180910390fd5b848160010181905550506108ac565b8385600101819055505b6000801b8214610999576108c085836102e1565b610915576040517f08c379a0000000000000000000000000000000000000000000000000000000008152600401808060200182810382526030815260200180610d0b6030913960400191505060405180910390fd5b600085600301600084815260200190815260200160002090508381600001541461098a576040517f08c379a0000000000000000000000000000000000000000000000000000000008152600401808060200182810382526027815260200180610cb06027913960400191505060405180910390fd5b848160000181905550506109a3565b8385600001819055505b5b6109bc60018660020154610b3790919063ffffffff16565b85600201819055505050505050565b60608260020154821115610a47576040517f08c379a00000000000000000000000000000000000000000000000000000000081526004018080602001828103825260138152602001807f6e6f7420656e6f75676820656c656d656e74730000000000000000000000000081525060200191505060405180910390fd5b606082604051908082528060200260200182016040528015610a785781602001602082028038833980820191505090505b50905060008460000154905060008090505b84811015610ae15781838281518110610a9f57fe5b602002602001018181525050856003016000838152602001908152602001600020600001549150610ada600182610b3790919063ffffffff16565b9050610a8a565b50819250505092915050565b6000610b2f83836040518060400160405280601e81526020017f536166654d6174683a207375627472616374696f6e206f766572666c6f770000815250610bbf565b905092915050565b600080828401905083811015610bb5576040517f08c379a000000000000000000000000000000000000000000000000000000000815260040180806020018281038252601b8152602001807f536166654d6174683a206164646974696f6e206f766572666c6f77000000000081525060200191505060405180910390fd5b8091505092915050565b6000838311158290610c6c576040517f08c379a00000000000000000000000000000000000000000000000000000000081526004018080602001828103825283818151815260200191508051906020019080838360005b83811015610c31578082015181840152602081019050610c16565b50505050905090810190601f168015610c5e5780820380516001836020036101000a031916815260200191505b509250505060405180910390fd5b506000838503905080915050939250505056fe4b65792063616e6e6f74206265207468652073616d652061732070726576696f75734b6579206f72206e6578744b657970726576696f75734b6579206d7573742062652061646a6163656e7420746f206e6578744b657949662070726576696f75734b657920697320646566696e65642c206974206d75737420657869737420696e20746865206c6973744966206e6578744b657920697320646566696e65642c206974206d75737420657869737420696e20746865206c6973744569746865722070726576696f75734b6579206f72206e6578744b6579206d75737420626520646566696e6564a265627a7a72315820ca180bde491cb2bedaa9e1b62bc0b072b330f26ce0d3982b49cf4b05184022d564736f6c634300050d0032",
  "source": "pragma solidity ^0.5.13;\n\nimport \"../linkedlists/LinkedList.sol\";\n\ncontract LinkedListTest {\n  using LinkedList for LinkedList.List;\n\n  LinkedList.List private list;\n\n  function insert(bytes32 key, bytes32 previousKey, bytes32 nextKey) external {\n    list.insert(key, previousKey, nextKey);\n  }\n\n  function update(bytes32 key, bytes32 previousKey, bytes32 nextKey) external {\n    list.update(key, previousKey, nextKey);\n  }\n\n  function remove(bytes32 key) external {\n    list.remove(key);\n  }\n\n  function contains(bytes32 key) external view returns (bool) {\n    return list.contains(key);\n  }\n\n  function getNumElements() external view returns (uint256) {\n    return list.numElements;\n  }\n\n  function getKeys() external view returns (bytes32[] memory) {\n    return list.getKeys();\n  }\n\n  function head() external view returns (bytes32) {\n    return list.head;\n  }\n\n  function tail() external view returns (bytes32) {\n    return list.tail;\n  }\n\n}\n",
  "sourcePath": "/Users/hiroki.yasui/go/src/github.com/celo-org/celo-monorepo/packages/protocol/contracts/common/test/LinkedListTest.sol",
  "compiler": {
    "name": "solc",
    "version": "0.5.13+commit.5b0b510c.Emscripten.clang"
  },
  "schemaVersion": "3.0.23",
  "updatedAt": "2022-05-06T03:53:12.805Z",
  "devdoc": {
    "methods": {}
  },
  "userdoc": {
    "methods": {}
  }
}