{
  "contractName": "LockedGold",
  "abi": [
    {
      "inputs": [
        {
          "internalType": "bool",
          "name": "test",
          "type": "bool"
        }
      ],
      "payable": false,
      "stateMutability": "nonpayable",
      "type": "constructor"
    },
    {
      "anonymous": false,
      "inputs": [
        {
          "indexed": true,
          "internalType": "address",
          "name": "slashed",
          "type": "address"
        },
        {
          "indexed": false,
          "internalType": "uint256",
          "name": "penalty",
          "type": "uint256"
        },
        {
          "indexed": true,
          "internalType": "address",
          "name": "reporter",
          "type": "address"
        },
        {
          "indexed": false,
          "internalType": "uint256",
          "name": "reward",
          "type": "uint256"
        }
      ],
      "name": "AccountSlashed",
      "type": "event"
    },
    {
      "anonymous": false,
      "inputs": [
        {
          "indexed": true,
          "internalType": "address",
          "name": "account",
          "type": "address"
        },
        {
          "indexed": false,
          "internalType": "uint256",
          "name": "value",
          "type": "uint256"
        }
      ],
      "name": "GoldLocked",
      "type": "event"
    },
    {
      "anonymous": false,
      "inputs": [
        {
          "indexed": true,
          "internalType": "address",
          "name": "account",
          "type": "address"
        },
        {
          "indexed": false,
          "internalType": "uint256",
          "name": "value",
          "type": "uint256"
        }
      ],
      "name": "GoldRelocked",
      "type": "event"
    },
    {
      "anonymous": false,
      "inputs": [
        {
          "indexed": true,
          "internalType": "address",
          "name": "account",
          "type": "address"
        },
        {
          "indexed": false,
          "internalType": "uint256",
          "name": "value",
          "type": "uint256"
        },
        {
          "indexed": false,
          "internalType": "uint256",
          "name": "available",
          "type": "uint256"
        }
      ],
      "name": "GoldUnlocked",
      "type": "event"
    },
    {
      "anonymous": false,
      "inputs": [
        {
          "indexed": true,
          "internalType": "address",
          "name": "account",
          "type": "address"
        },
        {
          "indexed": false,
          "internalType": "uint256",
          "name": "value",
          "type": "uint256"
        }
      ],
      "name": "GoldWithdrawn",
      "type": "event"
    },
    {
      "anonymous": false,
      "inputs": [
        {
          "indexed": true,
          "internalType": "address",
          "name": "previousOwner",
          "type": "address"
        },
        {
          "indexed": true,
          "internalType": "address",
          "name": "newOwner",
          "type": "address"
        }
      ],
      "name": "OwnershipTransferred",
      "type": "event"
    },
    {
      "anonymous": false,
      "inputs": [
        {
          "indexed": true,
          "internalType": "address",
          "name": "registryAddress",
          "type": "address"
        }
      ],
      "name": "RegistrySet",
      "type": "event"
    },
    {
      "anonymous": false,
      "inputs": [
        {
          "indexed": true,
          "internalType": "string",
          "name": "slasherIdentifier",
          "type": "string"
        }
      ],
      "name": "SlasherWhitelistAdded",
      "type": "event"
    },
    {
      "anonymous": false,
      "inputs": [
        {
          "indexed": true,
          "internalType": "string",
          "name": "slasherIdentifier",
          "type": "string"
        }
      ],
      "name": "SlasherWhitelistRemoved",
      "type": "event"
    },
    {
      "anonymous": false,
      "inputs": [
        {
          "indexed": false,
          "internalType": "uint256",
          "name": "period",
          "type": "uint256"
        }
      ],
      "name": "UnlockingPeriodSet",
      "type": "event"
    },
    {
      "constant": true,
      "inputs": [],
      "name": "initialized",
      "outputs": [
        {
          "internalType": "bool",
          "name": "",
          "type": "bool"
        }
      ],
      "payable": false,
      "stateMutability": "view",
      "type": "function"
    },
    {
      "constant": true,
      "inputs": [],
      "name": "isOwner",
      "outputs": [
        {
          "internalType": "bool",
          "name": "",
          "type": "bool"
        }
      ],
      "payable": false,
      "stateMutability": "view",
      "type": "function"
    },
    {
      "constant": true,
      "inputs": [],
      "name": "owner",
      "outputs": [
        {
          "internalType": "address",
          "name": "",
          "type": "address"
        }
      ],
      "payable": false,
      "stateMutability": "view",
      "type": "function"
    },
    {
      "constant": true,
      "inputs": [],
      "name": "registry",
      "outputs": [
        {
          "internalType": "contract IRegistry",
          "name": "",
          "type": "address"
        }
      ],
      "payable": false,
      "stateMutability": "view",
      "type": "function"
    },
    {
      "constant": false,
      "inputs": [],
      "name": "renounceOwnership",
      "outputs": [],
      "payable": false,
      "stateMutability": "nonpayable",
      "type": "function"
    },
    {
      "constant": false,
      "inputs": [
        {
          "internalType": "address",
          "name": "registryAddress",
          "type": "address"
        }
      ],
      "name": "setRegistry",
      "outputs": [],
      "payable": false,
      "stateMutability": "nonpayable",
      "type": "function"
    },
    {
      "constant": true,
      "inputs": [
        {
          "internalType": "uint256",
          "name": "",
          "type": "uint256"
        }
      ],
      "name": "slashingWhitelist",
      "outputs": [
        {
          "internalType": "bytes32",
          "name": "",
          "type": "bytes32"
        }
      ],
      "payable": false,
      "stateMutability": "view",
      "type": "function"
    },
    {
      "constant": true,
      "inputs": [],
      "name": "totalNonvoting",
      "outputs": [
        {
          "internalType": "uint256",
          "name": "",
          "type": "uint256"
        }
      ],
      "payable": false,
      "stateMutability": "view",
      "type": "function"
    },
    {
      "constant": false,
      "inputs": [
        {
          "internalType": "address",
          "name": "newOwner",
          "type": "address"
        }
      ],
      "name": "transferOwnership",
      "outputs": [],
      "payable": false,
      "stateMutability": "nonpayable",
      "type": "function"
    },
    {
      "constant": true,
      "inputs": [],
      "name": "unlockingPeriod",
      "outputs": [
        {
          "internalType": "uint256",
          "name": "",
          "type": "uint256"
        }
      ],
      "payable": false,
      "stateMutability": "view",
      "type": "function"
    },
    {
      "constant": true,
      "inputs": [
        {
          "internalType": "address",
          "name": "slasher",
          "type": "address"
        }
      ],
      "name": "isSlasher",
      "outputs": [
        {
          "internalType": "bool",
          "name": "",
          "type": "bool"
        }
      ],
      "payable": false,
      "stateMutability": "view",
      "type": "function"
    },
    {
      "constant": true,
      "inputs": [],
      "name": "getVersionNumber",
      "outputs": [
        {
          "internalType": "uint256",
          "name": "",
          "type": "uint256"
        },
        {
          "internalType": "uint256",
          "name": "",
          "type": "uint256"
        },
        {
          "internalType": "uint256",
          "name": "",
          "type": "uint256"
        },
        {
          "internalType": "uint256",
          "name": "",
          "type": "uint256"
        }
      ],
      "payable": false,
      "stateMutability": "pure",
      "type": "function"
    },
    {
      "constant": false,
      "inputs": [
        {
          "internalType": "address",
          "name": "registryAddress",
          "type": "address"
        },
        {
          "internalType": "uint256",
          "name": "_unlockingPeriod",
          "type": "uint256"
        }
      ],
      "name": "initialize",
      "outputs": [],
      "payable": false,
      "stateMutability": "nonpayable",
      "type": "function"
    },
    {
      "constant": false,
      "inputs": [
        {
          "internalType": "uint256",
          "name": "value",
          "type": "uint256"
        }
      ],
      "name": "setUnlockingPeriod",
      "outputs": [],
      "payable": false,
      "stateMutability": "nonpayable",
      "type": "function"
    },
    {
      "constant": false,
      "inputs": [],
      "name": "lock",
      "outputs": [],
      "payable": true,
      "stateMutability": "payable",
      "type": "function"
    },
    {
      "constant": false,
      "inputs": [
        {
          "internalType": "address",
          "name": "account",
          "type": "address"
        },
        {
          "internalType": "uint256",
          "name": "value",
          "type": "uint256"
        }
      ],
      "name": "incrementNonvotingAccountBalance",
      "outputs": [],
      "payable": false,
      "stateMutability": "nonpayable",
      "type": "function"
    },
    {
      "constant": false,
      "inputs": [
        {
          "internalType": "address",
          "name": "account",
          "type": "address"
        },
        {
          "internalType": "uint256",
          "name": "value",
          "type": "uint256"
        }
      ],
      "name": "decrementNonvotingAccountBalance",
      "outputs": [],
      "payable": false,
      "stateMutability": "nonpayable",
      "type": "function"
    },
    {
      "constant": false,
      "inputs": [
        {
          "internalType": "uint256",
          "name": "value",
          "type": "uint256"
        }
      ],
      "name": "unlock",
      "outputs": [],
      "payable": false,
      "stateMutability": "nonpayable",
      "type": "function"
    },
    {
      "constant": false,
      "inputs": [
        {
          "internalType": "uint256",
          "name": "index",
          "type": "uint256"
        },
        {
          "internalType": "uint256",
          "name": "value",
          "type": "uint256"
        }
      ],
      "name": "relock",
      "outputs": [],
      "payable": false,
      "stateMutability": "nonpayable",
      "type": "function"
    },
    {
      "constant": false,
      "inputs": [
        {
          "internalType": "uint256",
          "name": "index",
          "type": "uint256"
        }
      ],
      "name": "withdraw",
      "outputs": [],
      "payable": false,
      "stateMutability": "nonpayable",
      "type": "function"
    },
    {
      "constant": true,
      "inputs": [],
      "name": "getTotalLockedGold",
      "outputs": [
        {
          "internalType": "uint256",
          "name": "",
          "type": "uint256"
        }
      ],
      "payable": false,
      "stateMutability": "view",
      "type": "function"
    },
    {
      "constant": true,
      "inputs": [],
      "name": "getNonvotingLockedGold",
      "outputs": [
        {
          "internalType": "uint256",
          "name": "",
          "type": "uint256"
        }
      ],
      "payable": false,
      "stateMutability": "view",
      "type": "function"
    },
    {
      "constant": true,
      "inputs": [
        {
          "internalType": "address",
          "name": "account",
          "type": "address"
        }
      ],
      "name": "getAccountTotalLockedGold",
      "outputs": [
        {
          "internalType": "uint256",
          "name": "",
          "type": "uint256"
        }
      ],
      "payable": false,
      "stateMutability": "view",
      "type": "function"
    },
    {
      "constant": true,
      "inputs": [
        {
          "internalType": "address",
          "name": "account",
          "type": "address"
        }
      ],
      "name": "getAccountNonvotingLockedGold",
      "outputs": [
        {
          "internalType": "uint256",
          "name": "",
          "type": "uint256"
        }
      ],
      "payable": false,
      "stateMutability": "view",
      "type": "function"
    },
    {
      "constant": true,
      "inputs": [
        {
          "internalType": "address",
          "name": "account",
          "type": "address"
        }
      ],
      "name": "getPendingWithdrawals",
      "outputs": [
        {
          "internalType": "uint256[]",
          "name": "",
          "type": "uint256[]"
        },
        {
          "internalType": "uint256[]",
          "name": "",
          "type": "uint256[]"
        }
      ],
      "payable": false,
      "stateMutability": "view",
      "type": "function"
    },
    {
      "constant": true,
      "inputs": [
        {
          "internalType": "address",
          "name": "account",
          "type": "address"
        },
        {
          "internalType": "uint256",
          "name": "index",
          "type": "uint256"
        }
      ],
      "name": "getPendingWithdrawal",
      "outputs": [
        {
          "internalType": "uint256",
          "name": "",
          "type": "uint256"
        },
        {
          "internalType": "uint256",
          "name": "",
          "type": "uint256"
        }
      ],
      "payable": false,
      "stateMutability": "view",
      "type": "function"
    },
    {
      "constant": true,
      "inputs": [
        {
          "internalType": "address",
          "name": "account",
          "type": "address"
        }
      ],
      "name": "getTotalPendingWithdrawals",
      "outputs": [
        {
          "internalType": "uint256",
          "name": "",
          "type": "uint256"
        }
      ],
      "payable": false,
      "stateMutability": "view",
      "type": "function"
    },
    {
      "constant": true,
      "inputs": [],
      "name": "getSlashingWhitelist",
      "outputs": [
        {
          "internalType": "bytes32[]",
          "name": "",
          "type": "bytes32[]"
        }
      ],
      "payable": false,
      "stateMutability": "view",
      "type": "function"
    },
    {
      "constant": false,
      "inputs": [
        {
          "internalType": "string",
          "name": "slasherIdentifier",
          "type": "string"
        }
      ],
      "name": "addSlasher",
      "outputs": [],
      "payable": false,
      "stateMutability": "nonpayable",
      "type": "function"
    },
    {
      "constant": false,
      "inputs": [
        {
          "internalType": "string",
          "name": "slasherIdentifier",
          "type": "string"
        },
        {
          "internalType": "uint256",
          "name": "index",
          "type": "uint256"
        }
      ],
      "name": "removeSlasher",
      "outputs": [],
      "payable": false,
      "stateMutability": "nonpayable",
      "type": "function"
    },
    {
      "constant": false,
      "inputs": [
        {
          "internalType": "address",
          "name": "account",
          "type": "address"
        },
        {
          "internalType": "uint256",
          "name": "penalty",
          "type": "uint256"
        },
        {
          "internalType": "address",
          "name": "reporter",
          "type": "address"
        },
        {
          "internalType": "uint256",
          "name": "reward",
          "type": "uint256"
        },
        {
          "internalType": "address[]",
          "name": "lessers",
          "type": "address[]"
        },
        {
          "internalType": "address[]",
          "name": "greaters",
          "type": "address[]"
        },
        {
          "internalType": "uint256[]",
          "name": "indices",
          "type": "uint256[]"
        }
      ],
      "name": "slash",
      "outputs": [],
      "payable": false,
      "stateMutability": "nonpayable",
      "type": "function"
    }
  ],
  "bytecode": "0x60806040523480156200001157600080fd5b5060405162004abb38038062004abb833981810160405260208110156200003757600080fd5b810190808051906020019092919050505080600160008190555080620000725760018060006101000a81548160ff0219169083151502179055505b506000620000856200012a60201b60201c565b9050806001806101000a81548173ffffffffffffffffffffffffffffffffffffffff021916908373ffffffffffffffffffffffffffffffffffffffff1602179055508073ffffffffffffffffffffffffffffffffffffffff16600073ffffffffffffffffffffffffffffffffffffffff167f8be0079c531659141344cd1fd0a4f28419497f9722a3daafe3b4186f6b6457e060405160405180910390a3505062000132565b600033905090565b61497980620001426000396000f3fe6080604052600436106101d85760003560e01c80636adcc93811610102578063b2fb30cb11610095578063d15ca4ed11610064578063d15ca4ed14610b31578063f2fde38b14610ba7578063f340c0d014610bf8578063f83d08ba14610ce6576101d8565b8063b2fb30cb14610a01578063b6e1e49d14610a46578063c1867f6d14610aab578063cd6dc68714610ad6576101d8565b8063807876b7116100d1578063807876b7146108ff5780638da5cb5b1461092a5780638f32d59b14610981578063a91ee0dc146109b0576101d8565b80636adcc938146107e75780636edf77a514610836578063715018a6146108915780637b103999146108a8576101d8565b806330ec70f51161017a57806357601c5d1161014957806357601c5d146106825780636198e339146106eb578063648911981461072657806366f0633b146107ac576101d8565b806330ec70f5146103f457806331993fc9146104595780633f199b40146105dd57806354255be014610642576101d8565b80631fe2dfda116101b65780631fe2dfda146102d357806320637d8e146103635780632e1a7d4d1461038e57806330a61d59146103c9576101d8565b806308764ee2146101dd578063158ef93e1461024957806318a4ff8c14610278575b600080fd5b3480156101e957600080fd5b506101f2610cf0565b6040518080602001828103825283818151815260200191508051906020019060200280838360005b8381101561023557808201518184015260208101905061021a565b505050509050019250505060405180910390f35b34801561025557600080fd5b5061025e610d48565b604051808215151515815260200191505060405180910390f35b34801561028457600080fd5b506102d16004803603604081101561029b57600080fd5b81019080803573ffffffffffffffffffffffffffffffffffffffff16906020019092919080359060200190929190505050610d5b565b005b3480156102df57600080fd5b50610361600480360360408110156102f657600080fd5b810190808035906020019064010000000081111561031357600080fd5b82018360208201111561032557600080fd5b8035906020019184600183028401116401000000008311171561034757600080fd5b909192939192939080359060200190929190505050610eff565b005b34801561036f57600080fd5b506103786111e5565b6040518082815260200191505060405180910390f35b34801561039a57600080fd5b506103c7600480360360208110156103b157600080fd5b81019080803590602001909291905050506111eb565b005b3480156103d557600080fd5b506103de61160d565b6040518082815260200191505060405180910390f35b34801561040057600080fd5b506104436004803603602081101561041757600080fd5b81019080803573ffffffffffffffffffffffffffffffffffffffff1690602001909291905050506116b0565b6040518082815260200191505060405180910390f35b34801561046557600080fd5b506105db600480360360e081101561047c57600080fd5b81019080803573ffffffffffffffffffffffffffffffffffffffff16906020019092919080359060200190929190803573ffffffffffffffffffffffffffffffffffffffff16906020019092919080359060200190929190803590602001906401000000008111156104ed57600080fd5b8201836020820111156104ff57600080fd5b8035906020019184602083028401116401000000008311171561052157600080fd5b90919293919293908035906020019064010000000081111561054257600080fd5b82018360208201111561055457600080fd5b8035906020019184602083028401116401000000008311171561057657600080fd5b90919293919293908035906020019064010000000081111561059757600080fd5b8201836020820111156105a957600080fd5b803590602001918460208302840111640100000000831117156105cb57600080fd5b90919293919293905050506117d1565b005b3480156105e957600080fd5b5061062c6004803603602081101561060057600080fd5b81019080803573ffffffffffffffffffffffffffffffffffffffff169060200190929190505050611f5c565b6040518082815260200191505060405180910390f35b34801561064e57600080fd5b50610657611fa8565b6040518085815260200184815260200183815260200182815260200194505050505060405180910390f35b34801561068e57600080fd5b506106d1600480360360208110156106a557600080fd5b81019080803573ffffffffffffffffffffffffffffffffffffffff169060200190929190505050611fcf565b604051808215151515815260200191505060405180910390f35b3480156106f757600080fd5b506107246004803603602081101561070e57600080fd5b81019080803590602001909291905050506120f9565b005b34801561073257600080fd5b506107aa6004803603602081101561074957600080fd5b810190808035906020019064010000000081111561076657600080fd5b82018360208201111561077857600080fd5b8035906020019184600183028401116401000000008311171561079a57600080fd5b9091929391929390505050612665565b005b3480156107b857600080fd5b506107e5600480360360208110156107cf57600080fd5b810190808035906020019092919050505061299f565b005b3480156107f357600080fd5b506108206004803603602081101561080a57600080fd5b8101908080359060200190929190505050612ad2565b6040518082815260200191505060405180910390f35b34801561084257600080fd5b5061088f6004803603604081101561085957600080fd5b81019080803573ffffffffffffffffffffffffffffffffffffffff16906020019092919080359060200190929190505050612af3565b005b34801561089d57600080fd5b506108a6612c97565b005b3480156108b457600080fd5b506108bd612dd0565b604051808273ffffffffffffffffffffffffffffffffffffffff1673ffffffffffffffffffffffffffffffffffffffff16815260200191505060405180910390f35b34801561090b57600080fd5b50610914612df6565b6040518082815260200191505060405180910390f35b34801561093657600080fd5b5061093f612e00565b604051808273ffffffffffffffffffffffffffffffffffffffff1673ffffffffffffffffffffffffffffffffffffffff16815260200191505060405180910390f35b34801561098d57600080fd5b50610996612e29565b604051808215151515815260200191505060405180910390f35b3480156109bc57600080fd5b506109ff600480360360208110156109d357600080fd5b81019080803573ffffffffffffffffffffffffffffffffffffffff169060200190929190505050612e87565b005b348015610a0d57600080fd5b50610a4460048036036040811015610a2457600080fd5b81019080803590602001909291908035906020019092919050505061302b565b005b348015610a5257600080fd5b50610a9560048036036020811015610a6957600080fd5b81019080803573ffffffffffffffffffffffffffffffffffffffff1690602001909291905050506133c3565b6040518082815260200191505060405180910390f35b348015610ab757600080fd5b50610ac06134db565b6040518082815260200191505060405180910390f35b348015610ae257600080fd5b50610b2f60048036036040811015610af957600080fd5b81019080803573ffffffffffffffffffffffffffffffffffffffff169060200190929190803590602001909291905050506134e1565b005b348015610b3d57600080fd5b50610b8a60048036036040811015610b5457600080fd5b81019080803573ffffffffffffffffffffffffffffffffffffffff1690602001909291908035906020019092919050505061359d565b604051808381526020018281526020019250505060405180910390f35b348015610bb357600080fd5b50610bf660048036036020811015610bca57600080fd5b81019080803573ffffffffffffffffffffffffffffffffffffffff169060200190929190505050613825565b005b348015610c0457600080fd5b50610c4760048036036020811015610c1b57600080fd5b81019080803573ffffffffffffffffffffffffffffffffffffffff1690602001909291905050506138ab565b604051808060200180602001838103835285818151815260200191508051906020019060200280838360005b83811015610c8e578082015181840152602081019050610c73565b50505050905001838103825284818151815260200191508051906020019060200280838360005b83811015610cd0578082015181840152602081019050610cb5565b5050505090500194505050505060405180910390f35b610cee613b88565b005b60606005805480602002602001604051908101604052809291908181526020018280548015610d3e57602002820191906000526020600020905b815481526020019060010190808311610d2a575b5050505050905090565b600160009054906101000a900460ff1681565b60405160200180807f456c656374696f6e0000000000000000000000000000000000000000000000008152506008019050604051602081830303815290604052805190602001203373ffffffffffffffffffffffffffffffffffffffff16600260009054906101000a900473ffffffffffffffffffffffffffffffffffffffff1673ffffffffffffffffffffffffffffffffffffffff1663dcf0aaed836040518263ffffffff1660e01b81526004018082815260200191505060206040518083038186803b158015610e2c57600080fd5b505afa158015610e40573d6000803e3d6000fd5b505050506040513d6020811015610e5657600080fd5b810190808051906020019092919050505073ffffffffffffffffffffffffffffffffffffffff1614610ef0576040517f08c379a00000000000000000000000000000000000000000000000000000000081526004018080602001828103825260188152602001807f6f6e6c79207265676973746572656420636f6e7472616374000000000000000081525060200191505060405180910390fd5b610efa8383613da1565b505050565b610f07612e29565b610f79576040517f08c379a00000000000000000000000000000000000000000000000000000000081526004018080602001828103825260208152602001807f4f776e61626c653a2063616c6c6572206973206e6f7420746865206f776e657281525060200191505060405180910390fd5b600083836040516020018083838082843780830192505050925050506040516020818303038152906040528051906020012090506004600082815260200190815260200160002060009054906101000a900460ff16611023576040517f08c379a00000000000000000000000000000000000000000000000000000000081526004018080602001828103825260278152602001806148fd6027913960400191505060405180910390fd5b6005805490508210611080576040517f08c379a00000000000000000000000000000000000000000000000000000000081526004018080602001828103825260288152602001806148d56028913960400191505060405180910390fd5b806005838154811061108e57fe5b90600052602060002001541461110c576040517f08c379a000000000000000000000000000000000000000000000000000000000815260040180806020018281038252601e8152602001807f496e64657820646f65736e2774206d61746368206964656e746966696572000081525060200191505060405180910390fd5b60056001600580549050038154811061112157fe5b90600052602060002001546005838154811061113957fe5b9060005260206000200181905550600580548061115257fe5b6001900381819060005260206000200160009055905560006004600083815260200190815260200160002060006101000a81548160ff021916908315150217905550838360405180838380828437808301925050509250505060405180910390207faee8df56d95b5766042c2ff4dcb39a120f0a09dd21bb9c143f86a314eff4b71460405160405180910390a250505050565b60075481565b60016000808282540192505081905550600080549050611209613e5b565b73ffffffffffffffffffffffffffffffffffffffff166325ca4c9c336040518263ffffffff1660e01b8152600401808273ffffffffffffffffffffffffffffffffffffffff1673ffffffffffffffffffffffffffffffffffffffff16815260200191505060206040518083038186803b15801561128557600080fd5b505afa158015611299573d6000803e3d6000fd5b505050506040513d60208110156112af57600080fd5b8101908080519060200190929190505050611332576040517f08c379a000000000000000000000000000000000000000000000000000000000815260040180806020018281038252600f8152602001807f556e6b6e6f776e206163636f756e74000000000000000000000000000000000081525060200191505060405180910390fd5b6000600360003373ffffffffffffffffffffffffffffffffffffffff1673ffffffffffffffffffffffffffffffffffffffff1681526020019081526020016000209050806001018054905083106113f1576040517f08c379a000000000000000000000000000000000000000000000000000000000815260040180806020018281038252601c8152602001807f4261642070656e64696e67207769746864726177616c20696e6465780000000081525060200191505060405180910390fd5b600081600101848154811061140257fe5b90600052602060002090600202019050806001015442101561148c576040517f08c379a00000000000000000000000000000000000000000000000000000000081526004018080602001828103825260208152602001807f50656e64696e67207769746864726177616c206e6f7420617661696c61626c6581525060200191505060405180910390fd5b6000816000015490506114a28360010186613f56565b47811115611518576040517f08c379a00000000000000000000000000000000000000000000000000000000081526004018080602001828103825260148152602001807f496e636f6e73697374656e742062616c616e636500000000000000000000000081525060200191505060405180910390fd5b611541813373ffffffffffffffffffffffffffffffffffffffff16613fd090919063ffffffff16565b3373ffffffffffffffffffffffffffffffffffffffff167f292d39ba701489b7f640c83806d3eeabe0a32c9f0a61b49e95612ebad42211cd826040518082815260200191505060405180910390a25050506000548114611609576040517f08c379a000000000000000000000000000000000000000000000000000000000815260040180806020018281038252600e8152602001807f7265656e7472616e742063616c6c00000000000000000000000000000000000081525060200191505060405180910390fd5b5050565b60006116ab61161a61410a565b73ffffffffffffffffffffffffffffffffffffffff16639a0e7d666040518163ffffffff1660e01b815260040160206040518083038186803b15801561165f57600080fd5b505afa158015611673573d6000803e3d6000fd5b505050506040513d602081101561168957600080fd5b810190808051906020019092919050505060065461420590919063ffffffff16565b905090565b600080600360008473ffffffffffffffffffffffffffffffffffffffff1673ffffffffffffffffffffffffffffffffffffffff1681526020019081526020016000206000015490506117c961170361410a565b73ffffffffffffffffffffffffffffffffffffffff16636c781a2c856040518263ffffffff1660e01b8152600401808273ffffffffffffffffffffffffffffffffffffffff1673ffffffffffffffffffffffffffffffffffffffff16815260200191505060206040518083038186803b15801561177f57600080fd5b505afa158015611793573d6000803e3d6000fd5b505050506040513d60208110156117a957600080fd5b81019080805190602001909291905050508261420590919063ffffffff16565b915050919050565b600260009054906101000a900473ffffffffffffffffffffffffffffffffffffffff1673ffffffffffffffffffffffffffffffffffffffff166317c508186005336040518363ffffffff1660e01b815260040180806020018373ffffffffffffffffffffffffffffffffffffffff1673ffffffffffffffffffffffffffffffffffffffff168152602001828103825284818154815260200191508054801561189857602002820191906000526020600020905b815481526020019060010190808311611884575b5050935050505060206040518083038186803b1580156118b757600080fd5b505afa1580156118cb573d6000803e3d6000fd5b505050506040513d60208110156118e157600080fd5b8101908080519060200190929190505050611947576040517f08c379a00000000000000000000000000000000000000000000000000000000081526004018080602001828103825260248152602001806148286024913960400191505060405180910390fd5b600061195b8a6119568d6116b0565b61428d565b9050878110156119d3576040517f08c379a000000000000000000000000000000000000000000000000000000000815260040180806020018281038252601d8152602001807f7265776172642063616e6e6f74206578636565642070656e616c74792e00000081525060200191505060405180910390fd5b600073ffffffffffffffffffffffffffffffffffffffff168973ffffffffffffffffffffffffffffffffffffffff1614611ac957611a0f613e5b565b73ffffffffffffffffffffffffffffffffffffffff166393c5c4878a6040518263ffffffff1660e01b8152600401808273ffffffffffffffffffffffffffffffffffffffff1673ffffffffffffffffffffffffffffffffffffffff16815260200191505060206040518083038186803b158015611a8b57600080fd5b505afa158015611a9f573d6000803e3d6000fd5b505050506040513d6020811015611ab557600080fd5b810190808051906020019092919050505098505b6000600360008d73ffffffffffffffffffffffffffffffffffffffff1673ffffffffffffffffffffffffffffffffffffffff168152602001908152602001600020600001549050600080905082821015611cf857611b3082846142a690919063ffffffff16565b905080611b3b61410a565b73ffffffffffffffffffffffffffffffffffffffff16638ef01def8f848d8d8d8d8d8d6040518963ffffffff1660e01b8152600401808973ffffffffffffffffffffffffffffffffffffffff1673ffffffffffffffffffffffffffffffffffffffff16815260200188815260200180602001806020018060200184810384528a8a82818152602001925060200280828437600081840152601f19601f8201169050808301925050508481038352888882818152602001925060200280828437600081840152601f19601f8201169050808301925050508481038252868682818152602001925060200280828437600081840152601f19601f8201169050808301925050509b505050505050505050505050602060405180830381600087803b158015611c6657600080fd5b505af1158015611c7a573d6000803e3d6000fd5b505050506040513d6020811015611c9057600080fd5b810190808051906020019092919050505014611cf7576040517f08c379a00000000000000000000000000000000000000000000000000000000081526004018080602001828103825260218152602001806149246021913960400191505060405180910390fd5b5b611d148d611d0f83866142a690919063ffffffff16565b613da1565b611d1e8b8b6142f0565b50506000600260009054906101000a900473ffffffffffffffffffffffffffffffffffffffff1673ffffffffffffffffffffffffffffffffffffffff1663dcf0aaed60405160200180807f476f7665726e616e636500000000000000000000000000000000000000000000815250600a019050604051602081830303815290604052805190602001206040518263ffffffff1660e01b81526004018082815260200191505060206040518083038186803b158015611ddb57600080fd5b505afa158015611def573d6000803e3d6000fd5b505050506040513d6020811015611e0557600080fd5b81019080805190602001909291905050509050600081905047611e318b856142a690919063ffffffff16565b1115611ea5576040517f08c379a00000000000000000000000000000000000000000000000000000000081526004018080602001828103825260148152602001807f496e636f6e73697374656e742062616c616e636500000000000000000000000081525060200191505060405180910390fd5b611ee0611ebb8b856142a690919063ffffffff16565b8273ffffffffffffffffffffffffffffffffffffffff16613fd090919063ffffffff16565b8a73ffffffffffffffffffffffffffffffffffffffff168d73ffffffffffffffffffffffffffffffffffffffff167f7abcb995a115c34a67528d58d5fc5ce02c22cb835ce1685046163f7d366d7111858d604051808381526020018281526020019250505060405180910390a350505050505050505050505050565b6000600360008373ffffffffffffffffffffffffffffffffffffffff1673ffffffffffffffffffffffffffffffffffffffff168152602001908152602001600020600001549050919050565b60008060008060018060026000839350829250819150809050935093509350935090919293565b6000600260009054906101000a900473ffffffffffffffffffffffffffffffffffffffff1673ffffffffffffffffffffffffffffffffffffffff166317c508186005846040518363ffffffff1660e01b815260040180806020018373ffffffffffffffffffffffffffffffffffffffff1673ffffffffffffffffffffffffffffffffffffffff168152602001828103825284818154815260200191508054801561209857602002820191906000526020600020905b815481526020019060010190808311612084575b5050935050505060206040518083038186803b1580156120b757600080fd5b505afa1580156120cb573d6000803e3d6000fd5b505050506040513d60208110156120e157600080fd5b81019080805190602001909291905050509050919050565b60016000808282540192505081905550600080549050612117613e5b565b73ffffffffffffffffffffffffffffffffffffffff166325ca4c9c336040518263ffffffff1660e01b8152600401808273ffffffffffffffffffffffffffffffffffffffff1673ffffffffffffffffffffffffffffffffffffffff16815260200191505060206040518083038186803b15801561219357600080fd5b505afa1580156121a7573d6000803e3d6000fd5b505050506040513d60208110156121bd57600080fd5b8101908080519060200190929190505050612240576040517f08c379a000000000000000000000000000000000000000000000000000000000815260040180806020018281038252600f8152602001807f556e6b6e6f776e206163636f756e74000000000000000000000000000000000081525060200191505060405180910390fd5b6000600360003373ffffffffffffffffffffffffffffffffffffffff1673ffffffffffffffffffffffffffffffffffffffff168152602001908152602001600020905061228b6143aa565b73ffffffffffffffffffffffffffffffffffffffff16635f8dd649336040518263ffffffff1660e01b8152600401808273ffffffffffffffffffffffffffffffffffffffff1673ffffffffffffffffffffffffffffffffffffffff16815260200191505060206040518083038186803b15801561230757600080fd5b505afa15801561231b573d6000803e3d6000fd5b505050506040513d602081101561233157600080fd5b8101908080519060200190929190505050156123b5576040517f08c379a000000000000000000000000000000000000000000000000000000000815260040180806020018281038252600e8152602001807f4163636f756e74206c6f636b656400000000000000000000000000000000000081525060200191505060405180910390fd5b60006123bf6144a5565b73ffffffffffffffffffffffffffffffffffffffff1663dcff4cf6336040518263ffffffff1660e01b8152600401808273ffffffffffffffffffffffffffffffffffffffff1673ffffffffffffffffffffffffffffffffffffffff16815260200191505060206040518083038186803b15801561243b57600080fd5b505afa15801561244f573d6000803e3d6000fd5b505050506040513d602081101561246557600080fd5b8101908080519060200190929190505050905060008114806124a1575061249d8461248f336116b0565b6142a690919063ffffffff16565b8111155b612513576040517f08c379a000000000000000000000000000000000000000000000000000000000815260040180806020018281038252601e8152602001807f547279696e6720746f20756e6c6f636b20746f6f206d75636820676f6c64000081525060200191505060405180910390fd5b61251d3385613da1565b60006125346007544261420590919063ffffffff16565b9050826001016040518060400160405280878152602001838152509080600181540180825580915050906001820390600052602060002090600202016000909192909190915060008201518160000155602082015181600101555050503373ffffffffffffffffffffffffffffffffffffffff167fb1a3aef2a332070da206ad1868a5e327f5aa5144e00e9a7b40717c153158a5888683604051808381526020018281526020019250505060405180910390a25050506000548114612661576040517f08c379a000000000000000000000000000000000000000000000000000000000815260040180806020018281038252600e8152602001807f7265656e7472616e742063616c6c00000000000000000000000000000000000081525060200191505060405180910390fd5b5050565b61266d612e29565b6126df576040517f08c379a00000000000000000000000000000000000000000000000000000000081526004018080602001828103825260208152602001807f4f776e61626c653a2063616c6c6572206973206e6f7420746865206f776e657281525060200191505060405180910390fd5b60008282604051602001808383808284378083019250505092505050604051602081830303815290604052805190602001209050600073ffffffffffffffffffffffffffffffffffffffff16600260009054906101000a900473ffffffffffffffffffffffffffffffffffffffff1673ffffffffffffffffffffffffffffffffffffffff1663dd927233836040518263ffffffff1660e01b81526004018082815260200191505060206040518083038186803b15801561279e57600080fd5b505afa1580156127b2573d6000803e3d6000fd5b505050506040513d60208110156127c857600080fd5b810190808051906020019092919050505073ffffffffffffffffffffffffffffffffffffffff161415612863576040517f08c379a000000000000000000000000000000000000000000000000000000000815260040180806020018281038252601c8152602001807f4964656e746966696572206973206e6f7420726567697374657265640000000081525060200191505060405180910390fd5b6004600082815260200190815260200160002060009054906101000a900460ff16156128f7576040517f08c379a000000000000000000000000000000000000000000000000000000000815260040180806020018281038252601c8152602001807f43616e6e6f742061646420736c61736865722049442074776963652e0000000081525060200191505060405180910390fd5b600581908060018154018082558091505090600182039060005260206000200160009091929091909150555060016004600083815260200190815260200160002060006101000a81548160ff021916908315150217905550828260405180838380828437808301925050509250505060405180910390207f92a16cb9e1846d175c3007fc61953d186452c9ea1aa34183eb4b7f88cd3f07bb60405160405180910390a2505050565b6129a7612e29565b612a19576040517f08c379a00000000000000000000000000000000000000000000000000000000081526004018080602001828103825260208152602001807f4f776e61626c653a2063616c6c6572206973206e6f7420746865206f776e657281525060200191505060405180910390fd5b600754811415612a91576040517f08c379a000000000000000000000000000000000000000000000000000000000815260040180806020018281038252601c8152602001807f556e6c6f636b696e6720706572696f64206e6f74206368616e6765640000000081525060200191505060405180910390fd5b806007819055507fd9274a7c98edc7c66931fc71872764091e7023fe3867358f8504d4c21b161fc5816040518082815260200191505060405180910390a150565b60058181548110612adf57fe5b906000526020600020016000915090505481565b60405160200180807f456c656374696f6e0000000000000000000000000000000000000000000000008152506008019050604051602081830303815290604052805190602001203373ffffffffffffffffffffffffffffffffffffffff16600260009054906101000a900473ffffffffffffffffffffffffffffffffffffffff1673ffffffffffffffffffffffffffffffffffffffff1663dcf0aaed836040518263ffffffff1660e01b81526004018082815260200191505060206040518083038186803b158015612bc457600080fd5b505afa158015612bd8573d6000803e3d6000fd5b505050506040513d6020811015612bee57600080fd5b810190808051906020019092919050505073ffffffffffffffffffffffffffffffffffffffff1614612c88576040517f08c379a00000000000000000000000000000000000000000000000000000000081526004018080602001828103825260188152602001807f6f6e6c79207265676973746572656420636f6e7472616374000000000000000081525060200191505060405180910390fd5b612c9283836142f0565b505050565b612c9f612e29565b612d11576040517f08c379a00000000000000000000000000000000000000000000000000000000081526004018080602001828103825260208152602001807f4f776e61626c653a2063616c6c6572206973206e6f7420746865206f776e657281525060200191505060405180910390fd5b600073ffffffffffffffffffffffffffffffffffffffff166001809054906101000a900473ffffffffffffffffffffffffffffffffffffffff1673ffffffffffffffffffffffffffffffffffffffff167f8be0079c531659141344cd1fd0a4f28419497f9722a3daafe3b4186f6b6457e060405160405180910390a360006001806101000a81548173ffffffffffffffffffffffffffffffffffffffff021916908373ffffffffffffffffffffffffffffffffffffffff160217905550565b600260009054906101000a900473ffffffffffffffffffffffffffffffffffffffff1681565b6000600654905090565b60006001809054906101000a900473ffffffffffffffffffffffffffffffffffffffff16905090565b60006001809054906101000a900473ffffffffffffffffffffffffffffffffffffffff1673ffffffffffffffffffffffffffffffffffffffff16612e6b6145a0565b73ffffffffffffffffffffffffffffffffffffffff1614905090565b612e8f612e29565b612f01576040517f08c379a00000000000000000000000000000000000000000000000000000000081526004018080602001828103825260208152602001807f4f776e61626c653a2063616c6c6572206973206e6f7420746865206f776e657281525060200191505060405180910390fd5b600073ffffffffffffffffffffffffffffffffffffffff168173ffffffffffffffffffffffffffffffffffffffff161415612fa4576040517f08c379a00000000000000000000000000000000000000000000000000000000081526004018080602001828103825260208152602001807f43616e6e6f7420726567697374657220746865206e756c6c206164647265737381525060200191505060405180910390fd5b80600260006101000a81548173ffffffffffffffffffffffffffffffffffffffff021916908373ffffffffffffffffffffffffffffffffffffffff1602179055508073ffffffffffffffffffffffffffffffffffffffff167f27fe5f0c1c3b1ed427cc63d0f05759ffdecf9aec9e18d31ef366fc8a6cb5dc3b60405160405180910390a250565b60016000808282540192505081905550600080549050613049613e5b565b73ffffffffffffffffffffffffffffffffffffffff166325ca4c9c336040518263ffffffff1660e01b8152600401808273ffffffffffffffffffffffffffffffffffffffff1673ffffffffffffffffffffffffffffffffffffffff16815260200191505060206040518083038186803b1580156130c557600080fd5b505afa1580156130d9573d6000803e3d6000fd5b505050506040513d60208110156130ef57600080fd5b8101908080519060200190929190505050613172576040517f08c379a000000000000000000000000000000000000000000000000000000000815260040180806020018281038252600f8152602001807f556e6b6e6f776e206163636f756e74000000000000000000000000000000000081525060200191505060405180910390fd5b6000600360003373ffffffffffffffffffffffffffffffffffffffff1673ffffffffffffffffffffffffffffffffffffffff168152602001908152602001600020905080600101805490508410613231576040517f08c379a000000000000000000000000000000000000000000000000000000000815260040180806020018281038252601c8152602001807f4261642070656e64696e67207769746864726177616c20696e6465780000000081525060200191505060405180910390fd5b600081600101858154811061324257fe5b9060005260206000209060020201905080600001548411156132af576040517f08c379a00000000000000000000000000000000000000000000000000000000081526004018080602001828103825260298152602001806148ac6029913960400191505060405180910390fd5b80600001548414156132cd576132c88260010186613f56565b6132ed565b6132e48482600001546142a690919063ffffffff16565b81600001819055505b6132f733856142f0565b3373ffffffffffffffffffffffffffffffffffffffff167fa823fc38a01c2f76d7057a79bb5c317710f26f7dbdea78634598d5519d0f7cb0856040518082815260200191505060405180910390a2505060005481146133be576040517f08c379a000000000000000000000000000000000000000000000000000000000815260040180806020018281038252600e8152602001807f7265656e7472616e742063616c6c00000000000000000000000000000000000081525060200191505060405180910390fd5b505050565b600080600090506060600360008573ffffffffffffffffffffffffffffffffffffffff1673ffffffffffffffffffffffffffffffffffffffff168152602001908152602001600020600101805480602002602001604051908101604052809291908181526020016000905b828210156134745783829060005260206000209060020201604051806040016040529081600082015481526020016001820154815250508152602001906001019061342e565b50505050905060008090505b81518110156134d0576134b382828151811061349857fe5b6020026020010151600001518461420590919063ffffffff16565b92506134c960018261420590919063ffffffff16565b9050613480565b508192505050919050565b60065481565b600160009054906101000a900460ff1615613564576040517f08c379a000000000000000000000000000000000000000000000000000000000815260040180806020018281038252601c8152602001807f636f6e747261637420616c726561647920696e697469616c697a65640000000081525060200191505060405180910390fd5b60018060006101000a81548160ff021916908315150217905550613587336145a8565b61359082612e87565b6135998161299f565b5050565b6000806135a8613e5b565b73ffffffffffffffffffffffffffffffffffffffff166325ca4c9c856040518263ffffffff1660e01b8152600401808273ffffffffffffffffffffffffffffffffffffffff1673ffffffffffffffffffffffffffffffffffffffff16815260200191505060206040518083038186803b15801561362457600080fd5b505afa158015613638573d6000803e3d6000fd5b505050506040513d602081101561364e57600080fd5b81019080805190602001909291905050506136d1576040517f08c379a000000000000000000000000000000000000000000000000000000000815260040180806020018281038252600f8152602001807f556e6b6e6f776e206163636f756e74000000000000000000000000000000000081525060200191505060405180910390fd5b600360008573ffffffffffffffffffffffffffffffffffffffff1673ffffffffffffffffffffffffffffffffffffffff16815260200190815260200160002060010180549050831061378b576040517f08c379a000000000000000000000000000000000000000000000000000000000815260040180806020018281038252601c8152602001807f4261642070656e64696e67207769746864726177616c20696e6465780000000081525060200191505060405180910390fd5b6137936147ac565b600360008673ffffffffffffffffffffffffffffffffffffffff1673ffffffffffffffffffffffffffffffffffffffff16815260200190815260200160002060010184815481106137e057fe5b90600052602060002090600202016040518060400160405290816000820154815260200160018201548152505090508060000151816020015192509250509250929050565b61382d612e29565b61389f576040517f08c379a00000000000000000000000000000000000000000000000000000000081526004018080602001828103825260208152602001807f4f776e61626c653a2063616c6c6572206973206e6f7420746865206f776e657281525060200191505060405180910390fd5b6138a8816145a8565b50565b6060806138b6613e5b565b73ffffffffffffffffffffffffffffffffffffffff166325ca4c9c846040518263ffffffff1660e01b8152600401808273ffffffffffffffffffffffffffffffffffffffff1673ffffffffffffffffffffffffffffffffffffffff16815260200191505060206040518083038186803b15801561393257600080fd5b505afa158015613946573d6000803e3d6000fd5b505050506040513d602081101561395c57600080fd5b81019080805190602001909291905050506139df576040517f08c379a000000000000000000000000000000000000000000000000000000000815260040180806020018281038252600f8152602001807f556e6b6e6f776e206163636f756e74000000000000000000000000000000000081525060200191505060405180910390fd5b6000600360008573ffffffffffffffffffffffffffffffffffffffff1673ffffffffffffffffffffffffffffffffffffffff168152602001908152602001600020600101805490509050606081604051908082528060200260200182016040528015613a5a5781602001602082028038833980820191505090505b509050606082604051908082528060200260200182016040528015613a8e5781602001602082028038833980820191505090505b50905060008090505b83811015613b7957613aa76147ac565b600360008973ffffffffffffffffffffffffffffffffffffffff1673ffffffffffffffffffffffffffffffffffffffff1681526020019081526020016000206001018281548110613af457fe5b90600052602060002090600202016040518060400160405290816000820154815260200160018201548152505090508060000151848381518110613b3457fe5b6020026020010181815250508060200151838381518110613b5157fe5b60200260200101818152505050613b7260018261420590919063ffffffff16565b9050613a97565b50818194509450505050915091565b60016000808282540192505081905550600080549050613ba6613e5b565b73ffffffffffffffffffffffffffffffffffffffff166325ca4c9c336040518263ffffffff1660e01b8152600401808273ffffffffffffffffffffffffffffffffffffffff1673ffffffffffffffffffffffffffffffffffffffff16815260200191505060206040518083038186803b158015613c2257600080fd5b505afa158015613c36573d6000803e3d6000fd5b505050506040513d6020811015613c4c57600080fd5b8101908080519060200190929190505050613ccf576040517f08c379a000000000000000000000000000000000000000000000000000000000815260040180806020018281038252600b8152602001807f6e6f74206163636f756e7400000000000000000000000000000000000000000081525060200191505060405180910390fd5b613cd933346142f0565b3373ffffffffffffffffffffffffffffffffffffffff167f0f0f2fc5b4c987a49e1663ce2c2d65de12f3b701ff02b4d09461421e63e609e7346040518082815260200191505060405180910390a26000548114613d9e576040517f08c379a000000000000000000000000000000000000000000000000000000000815260040180806020018281038252600e8152602001807f7265656e7472616e742063616c6c00000000000000000000000000000000000081525060200191505060405180910390fd5b50565b613df681600360008573ffffffffffffffffffffffffffffffffffffffff1673ffffffffffffffffffffffffffffffffffffffff168152602001908152602001600020600001546142a690919063ffffffff16565b600360008473ffffffffffffffffffffffffffffffffffffffff1673ffffffffffffffffffffffffffffffffffffffff16815260200190815260200160002060000181905550613e51816006546142a690919063ffffffff16565b6006819055505050565b6000600260009054906101000a900473ffffffffffffffffffffffffffffffffffffffff1673ffffffffffffffffffffffffffffffffffffffff1663dcf0aaed60405160200180807f4163636f756e74730000000000000000000000000000000000000000000000008152506008019050604051602081830303815290604052805190602001206040518263ffffffff1660e01b81526004018082815260200191505060206040518083038186803b158015613f1657600080fd5b505afa158015613f2a573d6000803e3d6000fd5b505050506040513d6020811015613f4057600080fd5b8101908080519060200190929190505050905090565b6000613f70600184805490506142a690919063ffffffff16565b9050828181548110613f7e57fe5b9060005260206000209060020201838381548110613f9857fe5b90600052602060002090600202016000820154816000015560018201548160010155905050808381613fca91906147c6565b50505050565b80471015614046576040517f08c379a000000000000000000000000000000000000000000000000000000000815260040180806020018281038252601d8152602001807f416464726573733a20696e73756666696369656e742062616c616e636500000081525060200191505060405180910390fd5b60008273ffffffffffffffffffffffffffffffffffffffff168260405180600001905060006040518083038185875af1925050503d80600081146140a6576040519150601f19603f3d011682016040523d82523d6000602084013e6140ab565b606091505b5050905080614105576040517f08c379a000000000000000000000000000000000000000000000000000000000815260040180806020018281038252603a815260200180614872603a913960400191505060405180910390fd5b505050565b6000600260009054906101000a900473ffffffffffffffffffffffffffffffffffffffff1673ffffffffffffffffffffffffffffffffffffffff1663dcf0aaed60405160200180807f456c656374696f6e0000000000000000000000000000000000000000000000008152506008019050604051602081830303815290604052805190602001206040518263ffffffff1660e01b81526004018082815260200191505060206040518083038186803b1580156141c557600080fd5b505afa1580156141d9573d6000803e3d6000fd5b505050506040513d60208110156141ef57600080fd5b8101908080519060200190929190505050905090565b600080828401905083811015614283576040517f08c379a000000000000000000000000000000000000000000000000000000000815260040180806020018281038252601b8152602001807f536166654d6174683a206164646974696f6e206f766572666c6f77000000000081525060200191505060405180910390fd5b8091505092915050565b600081831061429c578161429e565b825b905092915050565b60006142e883836040518060400160405280601e81526020017f536166654d6174683a207375627472616374696f6e206f766572666c6f7700008152506146ec565b905092915050565b61434581600360008573ffffffffffffffffffffffffffffffffffffffff1673ffffffffffffffffffffffffffffffffffffffff1681526020019081526020016000206000015461420590919063ffffffff16565b600360008473ffffffffffffffffffffffffffffffffffffffff1673ffffffffffffffffffffffffffffffffffffffff168152602001908152602001600020600001819055506143a08160065461420590919063ffffffff16565b6006819055505050565b6000600260009054906101000a900473ffffffffffffffffffffffffffffffffffffffff1673ffffffffffffffffffffffffffffffffffffffff1663dcf0aaed60405160200180807f476f7665726e616e636500000000000000000000000000000000000000000000815250600a019050604051602081830303815290604052805190602001206040518263ffffffff1660e01b81526004018082815260200191505060206040518083038186803b15801561446557600080fd5b505afa158015614479573d6000803e3d6000fd5b505050506040513d602081101561448f57600080fd5b8101908080519060200190929190505050905090565b6000600260009054906101000a900473ffffffffffffffffffffffffffffffffffffffff1673ffffffffffffffffffffffffffffffffffffffff1663dcf0aaed60405160200180807f56616c696461746f727300000000000000000000000000000000000000000000815250600a019050604051602081830303815290604052805190602001206040518263ffffffff1660e01b81526004018082815260200191505060206040518083038186803b15801561456057600080fd5b505afa158015614574573d6000803e3d6000fd5b505050506040513d602081101561458a57600080fd5b8101908080519060200190929190505050905090565b600033905090565b600073ffffffffffffffffffffffffffffffffffffffff168173ffffffffffffffffffffffffffffffffffffffff16141561462e576040517f08c379a000000000000000000000000000000000000000000000000000000000815260040180806020018281038252602681526020018061484c6026913960400191505060405180910390fd5b8073ffffffffffffffffffffffffffffffffffffffff166001809054906101000a900473ffffffffffffffffffffffffffffffffffffffff1673ffffffffffffffffffffffffffffffffffffffff167f8be0079c531659141344cd1fd0a4f28419497f9722a3daafe3b4186f6b6457e060405160405180910390a3806001806101000a81548173ffffffffffffffffffffffffffffffffffffffff021916908373ffffffffffffffffffffffffffffffffffffffff16021790555050565b6000838311158290614799576040517f08c379a00000000000000000000000000000000000000000000000000000000081526004018080602001828103825283818151815260200191508051906020019080838360005b8381101561475e578082015181840152602081019050614743565b50505050905090810190601f16801561478b5780820380516001836020036101000a031916815260200191505b509250505060405180910390fd5b5060008385039050809150509392505050565b604051806040016040528060008152602001600081525090565b8154818355818111156147f3576002028160020283600052602060002091820191016147f291906147f8565b5b505050565b61482491905b80821115614820576000808201600090556001820160009055506002016147fe565b5090565b9056fe43616c6c6572206973206e6f7420612077686974656c697374656420736c61736865722e4f776e61626c653a206e6577206f776e657220697320746865207a65726f2061646472657373416464726573733a20756e61626c6520746f2073656e642076616c75652c20726563697069656e74206d617920686176652072657665727465645265717565737465642076616c7565206c6172676572207468616e2070656e64696e672076616c756550726f766964656420696e64657820657863656564732077686974656c69737420626f756e64732e43616e6e6f742072656d6f766520736c6173686572204944206e6f74207965742061646465642e43616e6e6f74207265766f6b6520656e6f75676820766f74696e6720676f6c642ea265627a7a723158204abf5f5383c4bb7b75f9c5cded65263c7751ac7eee09285ea76f767971fe964e64736f6c634300050d0032",
  "source": "pragma solidity ^0.5.13;\n\nimport \"openzeppelin-solidity/contracts/math/Math.sol\";\nimport \"openzeppelin-solidity/contracts/math/SafeMath.sol\";\nimport \"openzeppelin-solidity/contracts/ownership/Ownable.sol\";\nimport \"openzeppelin-solidity/contracts/utils/Address.sol\";\n\nimport \"./interfaces/ILockedGold.sol\";\n\nimport \"../common/Initializable.sol\";\nimport \"../common/Signatures.sol\";\nimport \"../common/UsingRegistry.sol\";\nimport \"../common/interfaces/ICeloVersionedContract.sol\";\nimport \"../common/libraries/ReentrancyGuard.sol\";\n\ncontract LockedGold is\n  ILockedGold,\n  ICeloVersionedContract,\n  ReentrancyGuard,\n  Initializable,\n  UsingRegistry\n{\n  using SafeMath for uint256;\n  using Address for address payable; // prettier-ignore\n\n  struct PendingWithdrawal {\n    // The value of the pending withdrawal.\n    uint256 value;\n    // The timestamp at which the pending withdrawal becomes available.\n    uint256 timestamp;\n  }\n\n  // NOTE: This contract does not store an account's locked gold that is being used in electing\n  // validators.\n  struct Balances {\n    // The amount of locked gold that this account has that is not currently participating in\n    // validator elections.\n    uint256 nonvoting;\n    // Gold that has been unlocked and will become available for withdrawal.\n    PendingWithdrawal[] pendingWithdrawals;\n  }\n\n  mapping(address => Balances) internal balances;\n\n  // Iterable map to store whitelisted identifiers.\n  // Necessary to allow iterating over whitelisted IDs to check ID's address at runtime.\n  mapping(bytes32 => bool) internal slashingMap;\n  bytes32[] public slashingWhitelist;\n\n  modifier onlySlasher {\n    require(\n      registry.isOneOf(slashingWhitelist, msg.sender),\n      \"Caller is not a whitelisted slasher.\"\n    );\n    _;\n  }\n\n  function isSlasher(address slasher) external view returns (bool) {\n    return (registry.isOneOf(slashingWhitelist, slasher));\n  }\n\n  uint256 public totalNonvoting;\n  uint256 public unlockingPeriod;\n\n  event UnlockingPeriodSet(uint256 period);\n  event GoldLocked(address indexed account, uint256 value);\n  event GoldUnlocked(address indexed account, uint256 value, uint256 available);\n  event GoldRelocked(address indexed account, uint256 value);\n  event GoldWithdrawn(address indexed account, uint256 value);\n  event SlasherWhitelistAdded(string indexed slasherIdentifier);\n  event SlasherWhitelistRemoved(string indexed slasherIdentifier);\n  event AccountSlashed(\n    address indexed slashed,\n    uint256 penalty,\n    address indexed reporter,\n    uint256 reward\n  );\n\n  /**\n  * @notice Returns the storage, major, minor, and patch version of the contract.\n  * @return The storage, major, minor, and patch version of the contract.\n  */\n  function getVersionNumber() external pure returns (uint256, uint256, uint256, uint256) {\n    return (1, 1, 2, 0);\n  }\n\n  /**\n   * @notice Sets initialized == true on implementation contracts\n   * @param test Set to true to skip implementation initialization\n   */\n  constructor(bool test) public Initializable(test) {}\n\n  /**\n   * @notice Used in place of the constructor to allow the contract to be upgradable via proxy.\n   * @param registryAddress The address of the registry core smart contract.\n   * @param _unlockingPeriod The unlocking period in seconds.\n   */\n  function initialize(address registryAddress, uint256 _unlockingPeriod) external initializer {\n    _transferOwnership(msg.sender);\n    setRegistry(registryAddress);\n    setUnlockingPeriod(_unlockingPeriod);\n  }\n\n  /**\n   * @notice Sets the duration in seconds users must wait before withdrawing gold after unlocking.\n   * @param value The unlocking period in seconds.\n   */\n  function setUnlockingPeriod(uint256 value) public onlyOwner {\n    require(value != unlockingPeriod, \"Unlocking period not changed\");\n    unlockingPeriod = value;\n    emit UnlockingPeriodSet(value);\n  }\n\n  /**\n   * @notice Locks gold to be used for voting.\n   */\n  function lock() external payable nonReentrant {\n    require(getAccounts().isAccount(msg.sender), \"not account\");\n    _incrementNonvotingAccountBalance(msg.sender, msg.value);\n    emit GoldLocked(msg.sender, msg.value);\n  }\n\n  /**\n   * @notice Increments the non-voting balance for an account.\n   * @param account The account whose non-voting balance should be incremented.\n   * @param value The amount by which to increment.\n   * @dev Can only be called by the registered Election smart contract.\n   */\n  function incrementNonvotingAccountBalance(address account, uint256 value)\n    external\n    onlyRegisteredContract(ELECTION_REGISTRY_ID)\n  {\n    _incrementNonvotingAccountBalance(account, value);\n  }\n\n  /**\n   * @notice Decrements the non-voting balance for an account.\n   * @param account The account whose non-voting balance should be decremented.\n   * @param value The amount by which to decrement.\n   * @dev Can only be called by the registered \"Election\" smart contract.\n   */\n  function decrementNonvotingAccountBalance(address account, uint256 value)\n    external\n    onlyRegisteredContract(ELECTION_REGISTRY_ID)\n  {\n    _decrementNonvotingAccountBalance(account, value);\n  }\n\n  /**\n   * @notice Increments the non-voting balance for an account.\n   * @param account The account whose non-voting balance should be incremented.\n   * @param value The amount by which to increment.\n   */\n  function _incrementNonvotingAccountBalance(address account, uint256 value) private {\n    balances[account].nonvoting = balances[account].nonvoting.add(value);\n    totalNonvoting = totalNonvoting.add(value);\n  }\n\n  /**\n   * @notice Decrements the non-voting balance for an account.\n   * @param account The account whose non-voting balance should be decremented.\n   * @param value The amount by which to decrement.\n   */\n  function _decrementNonvotingAccountBalance(address account, uint256 value) private {\n    balances[account].nonvoting = balances[account].nonvoting.sub(value);\n    totalNonvoting = totalNonvoting.sub(value);\n  }\n\n  /**\n   * @notice Unlocks gold that becomes withdrawable after the unlocking period.\n   * @param value The amount of gold to unlock.\n   */\n  function unlock(uint256 value) external nonReentrant {\n    require(getAccounts().isAccount(msg.sender), \"Unknown account\");\n    Balances storage account = balances[msg.sender];\n    // Prevent unlocking gold when voting on governance proposals so that the gold cannot be\n    // used to vote more than once.\n    require(!getGovernance().isVoting(msg.sender), \"Account locked\");\n    uint256 balanceRequirement = getValidators().getAccountLockedGoldRequirement(msg.sender);\n    require(\n      balanceRequirement == 0 ||\n        balanceRequirement <= getAccountTotalLockedGold(msg.sender).sub(value),\n      \"Trying to unlock too much gold\"\n    );\n    _decrementNonvotingAccountBalance(msg.sender, value);\n    uint256 available = now.add(unlockingPeriod);\n    // CERTORA: the slot containing the length could be MAX_UINT\n    account.pendingWithdrawals.push(PendingWithdrawal(value, available));\n    emit GoldUnlocked(msg.sender, value, available);\n  }\n\n  /**\n   * @notice Relocks gold that has been unlocked but not withdrawn.\n   * @param index The index of the pending withdrawal to relock from.\n   * @param value The value to relock from the specified pending withdrawal.\n   */\n  function relock(uint256 index, uint256 value) external nonReentrant {\n    require(getAccounts().isAccount(msg.sender), \"Unknown account\");\n    Balances storage account = balances[msg.sender];\n    require(index < account.pendingWithdrawals.length, \"Bad pending withdrawal index\");\n    PendingWithdrawal storage pendingWithdrawal = account.pendingWithdrawals[index];\n    require(value <= pendingWithdrawal.value, \"Requested value larger than pending value\");\n    if (value == pendingWithdrawal.value) {\n      deletePendingWithdrawal(account.pendingWithdrawals, index);\n    } else {\n      pendingWithdrawal.value = pendingWithdrawal.value.sub(value);\n    }\n    _incrementNonvotingAccountBalance(msg.sender, value);\n    emit GoldRelocked(msg.sender, value);\n  }\n\n  /**\n   * @notice Withdraws gold that has been unlocked after the unlocking period has passed.\n   * @param index The index of the pending withdrawal to withdraw.\n   */\n  function withdraw(uint256 index) external nonReentrant {\n    require(getAccounts().isAccount(msg.sender), \"Unknown account\");\n    Balances storage account = balances[msg.sender];\n    require(index < account.pendingWithdrawals.length, \"Bad pending withdrawal index\");\n    PendingWithdrawal storage pendingWithdrawal = account.pendingWithdrawals[index];\n    require(now >= pendingWithdrawal.timestamp, \"Pending withdrawal not available\");\n    uint256 value = pendingWithdrawal.value;\n    deletePendingWithdrawal(account.pendingWithdrawals, index);\n    require(value <= address(this).balance, \"Inconsistent balance\");\n    msg.sender.sendValue(value);\n    emit GoldWithdrawn(msg.sender, value);\n  }\n\n  /**\n   * @notice Returns the total amount of locked gold in the system. Note that this does not include\n   *   gold that has been unlocked but not yet withdrawn.\n   * @return The total amount of locked gold in the system.\n   */\n  function getTotalLockedGold() external view returns (uint256) {\n    return totalNonvoting.add(getElection().getTotalVotes());\n  }\n\n  /**\n   * @notice Returns the total amount of locked gold not being used to vote in elections.\n   * @return The total amount of locked gold not being used to vote in elections.\n   */\n  function getNonvotingLockedGold() external view returns (uint256) {\n    return totalNonvoting;\n  }\n\n  /**\n   * @notice Returns the total amount of locked gold for an account.\n   * @param account The account.\n   * @return The total amount of locked gold for an account.\n   */\n  function getAccountTotalLockedGold(address account) public view returns (uint256) {\n    uint256 total = balances[account].nonvoting;\n    return total.add(getElection().getTotalVotesByAccount(account));\n  }\n\n  /**\n   * @notice Returns the total amount of non-voting locked gold for an account.\n   * @param account The account.\n   * @return The total amount of non-voting locked gold for an account.\n   */\n  function getAccountNonvotingLockedGold(address account) external view returns (uint256) {\n    return balances[account].nonvoting;\n  }\n\n  /**\n   * @notice Returns the pending withdrawals from unlocked gold for an account.\n   * @param account The address of the account.\n   * @return The value and timestamp for each pending withdrawal.\n   */\n  function getPendingWithdrawals(address account)\n    external\n    view\n    returns (uint256[] memory, uint256[] memory)\n  {\n    require(getAccounts().isAccount(account), \"Unknown account\");\n    uint256 length = balances[account].pendingWithdrawals.length;\n    uint256[] memory values = new uint256[](length);\n    uint256[] memory timestamps = new uint256[](length);\n    for (uint256 i = 0; i < length; i = i.add(1)) {\n      PendingWithdrawal memory pendingWithdrawal = (balances[account].pendingWithdrawals[i]);\n      values[i] = pendingWithdrawal.value;\n      timestamps[i] = pendingWithdrawal.timestamp;\n    }\n    return (values, timestamps);\n  }\n\n  /**\n   * @notice Returns the pending withdrawal at a given index for a given account.\n   * @param account The address of the account.\n   * @param index The index of the pending withdrawal.\n   * @return The value of the pending withdrawal.\n   * @return The timestamp of the pending withdrawal.\n   */\n  function getPendingWithdrawal(address account, uint256 index)\n    external\n    view\n    returns (uint256, uint256)\n  {\n    require(getAccounts().isAccount(account), \"Unknown account\");\n    require(index < balances[account].pendingWithdrawals.length, \"Bad pending withdrawal index\");\n    PendingWithdrawal memory pendingWithdrawal = (balances[account].pendingWithdrawals[index]);\n\n    return (pendingWithdrawal.value, pendingWithdrawal.timestamp);\n  }\n\n  /**\n   * @notice Returns the total amount to withdraw from unlocked gold for an account.\n   * @param account The address of the account.\n   * @return Total amount to withdraw.\n   */\n  function getTotalPendingWithdrawals(address account) external view returns (uint256) {\n    uint256 pendingWithdrawalSum = 0;\n    PendingWithdrawal[] memory withdrawals = balances[account].pendingWithdrawals;\n    for (uint256 i = 0; i < withdrawals.length; i = i.add(1)) {\n      pendingWithdrawalSum = pendingWithdrawalSum.add(withdrawals[i].value);\n    }\n    return pendingWithdrawalSum;\n  }\n\n  function getSlashingWhitelist() external view returns (bytes32[] memory) {\n    return slashingWhitelist;\n  }\n\n  /**\n   * @notice Deletes a pending withdrawal.\n   * @param list The list of pending withdrawals from which to delete.\n   * @param index The index of the pending withdrawal to delete.\n   */\n  function deletePendingWithdrawal(PendingWithdrawal[] storage list, uint256 index) private {\n    uint256 lastIndex = list.length.sub(1);\n    list[index] = list[lastIndex];\n    list.length = lastIndex;\n  }\n\n  /**\n   * @notice Adds `slasher` to whitelist of approved slashing addresses.\n   * @param slasherIdentifier Identifier to whitelist.\n   */\n  function addSlasher(string calldata slasherIdentifier) external onlyOwner {\n    bytes32 keyBytes = keccak256(abi.encodePacked(slasherIdentifier));\n    require(registry.getAddressFor(keyBytes) != address(0), \"Identifier is not registered\");\n    require(!slashingMap[keyBytes], \"Cannot add slasher ID twice.\");\n    slashingWhitelist.push(keyBytes);\n    slashingMap[keyBytes] = true;\n    emit SlasherWhitelistAdded(slasherIdentifier);\n  }\n\n  /**\n   * @notice Removes `slasher` from whitelist of approved slashing addresses.\n   * @param slasherIdentifier Identifier to remove from whitelist.\n   * @param index Index of the provided identifier in slashingWhiteList array.\n   */\n  function removeSlasher(string calldata slasherIdentifier, uint256 index) external onlyOwner {\n    bytes32 keyBytes = keccak256(abi.encodePacked(slasherIdentifier));\n    require(slashingMap[keyBytes], \"Cannot remove slasher ID not yet added.\");\n    require(index < slashingWhitelist.length, \"Provided index exceeds whitelist bounds.\");\n    require(slashingWhitelist[index] == keyBytes, \"Index doesn't match identifier\");\n    slashingWhitelist[index] = slashingWhitelist[slashingWhitelist.length - 1];\n    slashingWhitelist.pop();\n    slashingMap[keyBytes] = false;\n    emit SlasherWhitelistRemoved(slasherIdentifier);\n  }\n\n  /**\n   * @notice Slashes `account` by reducing its nonvoting locked gold by `penalty`.\n   *         If there is not enough nonvoting locked gold to slash, calls into\n   *         `Election.slashVotes` to slash the remaining gold. If `account` does not have\n   *         `penalty` worth of locked gold, slashes `account`'s total locked gold.\n   *         Also sends `reward` gold to the reporter, and penalty-reward to the Community Fund.\n   * @param account Address of account being slashed.\n   * @param penalty Amount to slash account.\n   * @param reporter Address of account reporting the slasher.\n   * @param reward Reward to give reporter.\n   * @param lessers The groups receiving fewer votes than i'th group, or 0 if the i'th group has\n   *                the fewest votes of any validator group.\n   * @param greaters The groups receiving more votes than the i'th group, or 0 if the i'th group\n   *                 has the most votes of any validator group.\n   * @param indices The indices of the i'th group in `account`'s voting list.\n   * @dev Fails if `reward` is greater than `account`'s total locked gold.\n   */\n  function slash(\n    address account,\n    uint256 penalty,\n    address reporter,\n    uint256 reward,\n    address[] calldata lessers,\n    address[] calldata greaters,\n    uint256[] calldata indices\n  ) external onlySlasher {\n    uint256 maxSlash = Math.min(penalty, getAccountTotalLockedGold(account));\n    require(maxSlash >= reward, \"reward cannot exceed penalty.\");\n    // `reporter` receives the reward in locked CELO, so it must be given to an account\n    // There is no reward for slashing via the GovernanceSlasher, and `reporter`\n    // is set to 0x0.\n    if (reporter != address(0)) {\n      reporter = getAccounts().signerToAccount(reporter);\n    }\n    // Local scoping is required to avoid Solc \"stack too deep\" error from too many locals.\n    {\n      uint256 nonvotingBalance = balances[account].nonvoting;\n      uint256 difference = 0;\n      // If not enough nonvoting, revoke the difference\n      if (nonvotingBalance < maxSlash) {\n        difference = maxSlash.sub(nonvotingBalance);\n        require(\n          getElection().forceDecrementVotes(account, difference, lessers, greaters, indices) ==\n            difference,\n          \"Cannot revoke enough voting gold.\"\n        );\n      }\n      // forceDecrementVotes does not increment nonvoting account balance, so we can't double count\n      _decrementNonvotingAccountBalance(account, maxSlash.sub(difference));\n      _incrementNonvotingAccountBalance(reporter, reward);\n    }\n    address communityFund = registry.getAddressForOrDie(GOVERNANCE_REGISTRY_ID);\n    address payable communityFundPayable = address(uint160(communityFund));\n    require(maxSlash.sub(reward) <= address(this).balance, \"Inconsistent balance\");\n    communityFundPayable.sendValue(maxSlash.sub(reward));\n    emit AccountSlashed(account, maxSlash, reporter, reward);\n  }\n}\n",
  "sourcePath": "/Users/hiroki.yasui/go/src/github.com/celo-org/celo-monorepo/packages/protocol/contracts/governance/LockedGold.sol",
  "compiler": {
    "name": "solc",
    "version": "0.5.13+commit.5b0b510c.Emscripten.clang"
  },
  "schemaVersion": "3.0.23",
  "updatedAt": "2022-05-06T03:53:12.874Z",
  "devdoc": {
    "methods": {
      "addSlasher(string)": {
        "params": {
          "slasherIdentifier": "Identifier to whitelist."
        }
      },
      "constructor": {
        "params": {
          "test": "Set to true to skip implementation initialization"
        }
      },
      "decrementNonvotingAccountBalance(address,uint256)": {
        "details": "Can only be called by the registered \"Election\" smart contract.",
        "params": {
          "account": "The account whose non-voting balance should be decremented.",
          "value": "The amount by which to decrement."
        }
      },
      "getAccountNonvotingLockedGold(address)": {
        "params": {
          "account": "The account."
        },
        "return": "The total amount of non-voting locked gold for an account."
      },
      "getAccountTotalLockedGold(address)": {
        "params": {
          "account": "The account."
        },
        "return": "The total amount of locked gold for an account."
      },
      "getNonvotingLockedGold()": {
        "return": "The total amount of locked gold not being used to vote in elections."
      },
      "getPendingWithdrawal(address,uint256)": {
        "params": {
          "account": "The address of the account.",
          "index": "The index of the pending withdrawal."
        },
        "return": "The value of the pending withdrawal.The timestamp of the pending withdrawal."
      },
      "getPendingWithdrawals(address)": {
        "params": {
          "account": "The address of the account."
        },
        "return": "The value and timestamp for each pending withdrawal."
      },
      "getTotalLockedGold()": {
        "return": "The total amount of locked gold in the system."
      },
      "getTotalPendingWithdrawals(address)": {
        "params": {
          "account": "The address of the account."
        },
        "return": "Total amount to withdraw."
      },
      "getVersionNumber()": {
        "return": "The storage, major, minor, and patch version of the contract."
      },
      "incrementNonvotingAccountBalance(address,uint256)": {
        "details": "Can only be called by the registered Election smart contract.",
        "params": {
          "account": "The account whose non-voting balance should be incremented.",
          "value": "The amount by which to increment."
        }
      },
      "initialize(address,uint256)": {
        "params": {
          "_unlockingPeriod": "The unlocking period in seconds.",
          "registryAddress": "The address of the registry core smart contract."
        }
      },
      "isOwner()": {
        "details": "Returns true if the caller is the current owner."
      },
      "owner()": {
        "details": "Returns the address of the current owner."
      },
      "relock(uint256,uint256)": {
        "params": {
          "index": "The index of the pending withdrawal to relock from.",
          "value": "The value to relock from the specified pending withdrawal."
        }
      },
      "removeSlasher(string,uint256)": {
        "params": {
          "index": "Index of the provided identifier in slashingWhiteList array.",
          "slasherIdentifier": "Identifier to remove from whitelist."
        }
      },
      "renounceOwnership()": {
        "details": "Leaves the contract without owner. It will not be possible to call `onlyOwner` functions anymore. Can only be called by the current owner.     * NOTE: Renouncing ownership will leave the contract without an owner, thereby removing any functionality that is only available to the owner."
      },
      "setRegistry(address)": {
        "params": {
          "registryAddress": "The address of a registry contract for routing to other contracts."
        }
      },
      "setUnlockingPeriod(uint256)": {
        "params": {
          "value": "The unlocking period in seconds."
        }
      },
      "slash(address,uint256,address,uint256,address[],address[],uint256[])": {
        "details": "Fails if `reward` is greater than `account`'s total locked gold.",
        "params": {
          "account": "Address of account being slashed.",
          "greaters": "The groups receiving more votes than the i'th group, or 0 if the i'th group                has the most votes of any validator group.",
          "indices": "The indices of the i'th group in `account`'s voting list.",
          "lessers": "The groups receiving fewer votes than i'th group, or 0 if the i'th group has               the fewest votes of any validator group.",
          "penalty": "Amount to slash account.",
          "reporter": "Address of account reporting the slasher.",
          "reward": "Reward to give reporter."
        }
      },
      "transferOwnership(address)": {
        "details": "Transfers ownership of the contract to a new account (`newOwner`). Can only be called by the current owner."
      },
      "unlock(uint256)": {
        "params": {
          "value": "The amount of gold to unlock."
        }
      },
      "withdraw(uint256)": {
        "params": {
          "index": "The index of the pending withdrawal to withdraw."
        }
      }
    }
  },
  "userdoc": {
    "methods": {
      "addSlasher(string)": {
        "notice": "Adds `slasher` to whitelist of approved slashing addresses."
      },
      "constructor": "Sets initialized == true on implementation contracts",
      "decrementNonvotingAccountBalance(address,uint256)": {
        "notice": "Decrements the non-voting balance for an account."
      },
      "getAccountNonvotingLockedGold(address)": {
        "notice": "Returns the total amount of non-voting locked gold for an account."
      },
      "getAccountTotalLockedGold(address)": {
        "notice": "Returns the total amount of locked gold for an account."
      },
      "getNonvotingLockedGold()": {
        "notice": "Returns the total amount of locked gold not being used to vote in elections."
      },
      "getPendingWithdrawal(address,uint256)": {
        "notice": "Returns the pending withdrawal at a given index for a given account."
      },
      "getPendingWithdrawals(address)": {
        "notice": "Returns the pending withdrawals from unlocked gold for an account."
      },
      "getTotalLockedGold()": {
        "notice": "Returns the total amount of locked gold in the system. Note that this does not include  gold that has been unlocked but not yet withdrawn."
      },
      "getTotalPendingWithdrawals(address)": {
        "notice": "Returns the total amount to withdraw from unlocked gold for an account."
      },
      "getVersionNumber()": {
        "notice": "Returns the storage, major, minor, and patch version of the contract."
      },
      "incrementNonvotingAccountBalance(address,uint256)": {
        "notice": "Increments the non-voting balance for an account."
      },
      "initialize(address,uint256)": {
        "notice": "Used in place of the constructor to allow the contract to be upgradable via proxy."
      },
      "lock()": {
        "notice": "Locks gold to be used for voting."
      },
      "relock(uint256,uint256)": {
        "notice": "Relocks gold that has been unlocked but not withdrawn."
      },
      "removeSlasher(string,uint256)": {
        "notice": "Removes `slasher` from whitelist of approved slashing addresses."
      },
      "setRegistry(address)": {
        "notice": "Updates the address pointing to a Registry contract."
      },
      "setUnlockingPeriod(uint256)": {
        "notice": "Sets the duration in seconds users must wait before withdrawing gold after unlocking."
      },
      "slash(address,uint256,address,uint256,address[],address[],uint256[])": {
        "notice": "Slashes `account` by reducing its nonvoting locked gold by `penalty`.        If there is not enough nonvoting locked gold to slash, calls into        `Election.slashVotes` to slash the remaining gold. If `account` does not have        `penalty` worth of locked gold, slashes `account`'s total locked gold.        Also sends `reward` gold to the reporter, and penalty-reward to the Community Fund."
      },
      "unlock(uint256)": {
        "notice": "Unlocks gold that becomes withdrawable after the unlocking period."
      },
      "withdraw(uint256)": {
        "notice": "Withdraws gold that has been unlocked after the unlocking period has passed."
      }
    }
  }
}