{
  "contractName": "MetaTransactionWallet",
  "abi": [
    {
      "inputs": [
        {
          "internalType": "bool",
          "name": "test",
          "type": "bool"
        }
      ],
      "payable": false,
      "stateMutability": "nonpayable",
      "type": "constructor"
    },
    {
      "anonymous": false,
      "inputs": [
        {
          "indexed": true,
          "internalType": "address",
          "name": "sender",
          "type": "address"
        },
        {
          "indexed": false,
          "internalType": "uint256",
          "name": "value",
          "type": "uint256"
        }
      ],
      "name": "Deposit",
      "type": "event"
    },
    {
      "anonymous": false,
      "inputs": [
        {
          "indexed": false,
          "internalType": "bytes32",
          "name": "eip712DomainSeparator",
          "type": "bytes32"
        }
      ],
      "name": "EIP712DomainSeparatorSet",
      "type": "event"
    },
    {
      "anonymous": false,
      "inputs": [
        {
          "indexed": true,
          "internalType": "address",
          "name": "guardian",
          "type": "address"
        }
      ],
      "name": "GuardianSet",
      "type": "event"
    },
    {
      "anonymous": false,
      "inputs": [
        {
          "indexed": true,
          "internalType": "address",
          "name": "destination",
          "type": "address"
        },
        {
          "indexed": false,
          "internalType": "uint256",
          "name": "value",
          "type": "uint256"
        },
        {
          "indexed": false,
          "internalType": "bytes",
          "name": "data",
          "type": "bytes"
        },
        {
          "indexed": true,
          "internalType": "uint256",
          "name": "nonce",
          "type": "uint256"
        },
        {
          "indexed": false,
          "internalType": "bytes",
          "name": "returnData",
          "type": "bytes"
        }
      ],
      "name": "MetaTransactionExecution",
      "type": "event"
    },
    {
      "anonymous": false,
      "inputs": [
        {
          "indexed": true,
          "internalType": "address",
          "name": "previousOwner",
          "type": "address"
        },
        {
          "indexed": true,
          "internalType": "address",
          "name": "newOwner",
          "type": "address"
        }
      ],
      "name": "OwnershipTransferred",
      "type": "event"
    },
    {
      "anonymous": false,
      "inputs": [
        {
          "indexed": true,
          "internalType": "address",
          "name": "signer",
          "type": "address"
        }
      ],
      "name": "SignerSet",
      "type": "event"
    },
    {
      "anonymous": false,
      "inputs": [
        {
          "indexed": true,
          "internalType": "address",
          "name": "destination",
          "type": "address"
        },
        {
          "indexed": false,
          "internalType": "uint256",
          "name": "value",
          "type": "uint256"
        },
        {
          "indexed": false,
          "internalType": "bytes",
          "name": "data",
          "type": "bytes"
        },
        {
          "indexed": false,
          "internalType": "bytes",
          "name": "returnData",
          "type": "bytes"
        }
      ],
      "name": "TransactionExecution",
      "type": "event"
    },
    {
      "anonymous": false,
      "inputs": [
        {
          "indexed": true,
          "internalType": "address",
          "name": "newSigner",
          "type": "address"
        }
      ],
      "name": "WalletRecovered",
      "type": "event"
    },
    {
      "payable": true,
      "stateMutability": "payable",
      "type": "fallback"
    },
    {
      "constant": true,
      "inputs": [],
      "name": "EIP712_EXECUTE_META_TRANSACTION_TYPEHASH",
      "outputs": [
        {
          "internalType": "bytes32",
          "name": "",
          "type": "bytes32"
        }
      ],
      "payable": false,
      "stateMutability": "view",
      "type": "function"
    },
    {
      "constant": true,
      "inputs": [],
      "name": "eip712DomainSeparator",
      "outputs": [
        {
          "internalType": "bytes32",
          "name": "",
          "type": "bytes32"
        }
      ],
      "payable": false,
      "stateMutability": "view",
      "type": "function"
    },
    {
      "constant": true,
      "inputs": [],
      "name": "guardian",
      "outputs": [
        {
          "internalType": "address",
          "name": "",
          "type": "address"
        }
      ],
      "payable": false,
      "stateMutability": "view",
      "type": "function"
    },
    {
      "constant": true,
      "inputs": [],
      "name": "initialized",
      "outputs": [
        {
          "internalType": "bool",
          "name": "",
          "type": "bool"
        }
      ],
      "payable": false,
      "stateMutability": "view",
      "type": "function"
    },
    {
      "constant": true,
      "inputs": [],
      "name": "isOwner",
      "outputs": [
        {
          "internalType": "bool",
          "name": "",
          "type": "bool"
        }
      ],
      "payable": false,
      "stateMutability": "view",
      "type": "function"
    },
    {
      "constant": true,
      "inputs": [],
      "name": "nonce",
      "outputs": [
        {
          "internalType": "uint256",
          "name": "",
          "type": "uint256"
        }
      ],
      "payable": false,
      "stateMutability": "view",
      "type": "function"
    },
    {
      "constant": true,
      "inputs": [],
      "name": "owner",
      "outputs": [
        {
          "internalType": "address",
          "name": "",
          "type": "address"
        }
      ],
      "payable": false,
      "stateMutability": "view",
      "type": "function"
    },
    {
      "constant": false,
      "inputs": [],
      "name": "renounceOwnership",
      "outputs": [],
      "payable": false,
      "stateMutability": "nonpayable",
      "type": "function"
    },
    {
      "constant": true,
      "inputs": [],
      "name": "signer",
      "outputs": [
        {
          "internalType": "address",
          "name": "",
          "type": "address"
        }
      ],
      "payable": false,
      "stateMutability": "view",
      "type": "function"
    },
    {
      "constant": false,
      "inputs": [
        {
          "internalType": "address",
          "name": "newOwner",
          "type": "address"
        }
      ],
      "name": "transferOwnership",
      "outputs": [],
      "payable": false,
      "stateMutability": "nonpayable",
      "type": "function"
    },
    {
      "constant": true,
      "inputs": [],
      "name": "getVersionNumber",
      "outputs": [
        {
          "internalType": "uint256",
          "name": "",
          "type": "uint256"
        },
        {
          "internalType": "uint256",
          "name": "",
          "type": "uint256"
        },
        {
          "internalType": "uint256",
          "name": "",
          "type": "uint256"
        },
        {
          "internalType": "uint256",
          "name": "",
          "type": "uint256"
        }
      ],
      "payable": false,
      "stateMutability": "pure",
      "type": "function"
    },
    {
      "constant": false,
      "inputs": [
        {
          "internalType": "address",
          "name": "_signer",
          "type": "address"
        }
      ],
      "name": "initialize",
      "outputs": [],
      "payable": false,
      "stateMutability": "nonpayable",
      "type": "function"
    },
    {
      "constant": false,
      "inputs": [
        {
          "internalType": "address",
          "name": "_signer",
          "type": "address"
        }
      ],
      "name": "setSigner",
      "outputs": [],
      "payable": false,
      "stateMutability": "nonpayable",
      "type": "function"
    },
    {
      "constant": false,
      "inputs": [
        {
          "internalType": "address",
          "name": "_guardian",
          "type": "address"
        }
      ],
      "name": "setGuardian",
      "outputs": [],
      "payable": false,
      "stateMutability": "nonpayable",
      "type": "function"
    },
    {
      "constant": false,
      "inputs": [
        {
          "internalType": "address",
          "name": "newSigner",
          "type": "address"
        }
      ],
      "name": "recoverWallet",
      "outputs": [],
      "payable": false,
      "stateMutability": "nonpayable",
      "type": "function"
    },
    {
      "constant": false,
      "inputs": [],
      "name": "setEip712DomainSeparator",
      "outputs": [],
      "payable": false,
      "stateMutability": "nonpayable",
      "type": "function"
    },
    {
      "constant": true,
      "inputs": [
        {
          "internalType": "address",
          "name": "destination",
          "type": "address"
        },
        {
          "internalType": "uint256",
          "name": "value",
          "type": "uint256"
        },
        {
          "internalType": "bytes",
          "name": "data",
          "type": "bytes"
        },
        {
          "internalType": "uint256",
          "name": "_nonce",
          "type": "uint256"
        }
      ],
      "name": "getMetaTransactionDigest",
      "outputs": [
        {
          "internalType": "bytes32",
          "name": "",
          "type": "bytes32"
        }
      ],
      "payable": false,
      "stateMutability": "view",
      "type": "function"
    },
    {
      "constant": true,
      "inputs": [
        {
          "internalType": "address",
          "name": "destination",
          "type": "address"
        },
        {
          "internalType": "uint256",
          "name": "value",
          "type": "uint256"
        },
        {
          "internalType": "bytes",
          "name": "data",
          "type": "bytes"
        },
        {
          "internalType": "uint256",
          "name": "_nonce",
          "type": "uint256"
        },
        {
          "internalType": "uint8",
          "name": "v",
          "type": "uint8"
        },
        {
          "internalType": "bytes32",
          "name": "r",
          "type": "bytes32"
        },
        {
          "internalType": "bytes32",
          "name": "s",
          "type": "bytes32"
        }
      ],
      "name": "getMetaTransactionSigner",
      "outputs": [
        {
          "internalType": "address",
          "name": "",
          "type": "address"
        }
      ],
      "payable": false,
      "stateMutability": "view",
      "type": "function"
    },
    {
      "constant": false,
      "inputs": [
        {
          "internalType": "address",
          "name": "destination",
          "type": "address"
        },
        {
          "internalType": "uint256",
          "name": "value",
          "type": "uint256"
        },
        {
          "internalType": "bytes",
          "name": "data",
          "type": "bytes"
        },
        {
          "internalType": "uint8",
          "name": "v",
          "type": "uint8"
        },
        {
          "internalType": "bytes32",
          "name": "r",
          "type": "bytes32"
        },
        {
          "internalType": "bytes32",
          "name": "s",
          "type": "bytes32"
        }
      ],
      "name": "executeMetaTransaction",
      "outputs": [
        {
          "internalType": "bytes",
          "name": "",
          "type": "bytes"
        }
      ],
      "payable": false,
      "stateMutability": "nonpayable",
      "type": "function"
    },
    {
      "constant": false,
      "inputs": [
        {
          "internalType": "address",
          "name": "destination",
          "type": "address"
        },
        {
          "internalType": "uint256",
          "name": "value",
          "type": "uint256"
        },
        {
          "internalType": "bytes",
          "name": "data",
          "type": "bytes"
        }
      ],
      "name": "executeTransaction",
      "outputs": [
        {
          "internalType": "bytes",
          "name": "",
          "type": "bytes"
        }
      ],
      "payable": false,
      "stateMutability": "nonpayable",
      "type": "function"
    },
    {
      "constant": false,
      "inputs": [
        {
          "internalType": "address[]",
          "name": "destinations",
          "type": "address[]"
        },
        {
          "internalType": "uint256[]",
          "name": "values",
          "type": "uint256[]"
        },
        {
          "internalType": "bytes",
          "name": "data",
          "type": "bytes"
        },
        {
          "internalType": "uint256[]",
          "name": "dataLengths",
          "type": "uint256[]"
        }
      ],
      "name": "executeTransactions",
      "outputs": [
        {
          "internalType": "bytes",
          "name": "",
          "type": "bytes"
        },
        {
          "internalType": "uint256[]",
          "name": "",
          "type": "uint256[]"
        }
      ],
      "payable": false,
      "stateMutability": "nonpayable",
      "type": "function"
    }
  ],
  "bytecode": "0x60806040523480156200001157600080fd5b50604051620027bd380380620027bd833981810160405260208110156200003757600080fd5b810190808051906020019092919050505080806200006a5760016000806101000a81548160ff0219169083151502179055505b5060006200007d6200012360201b60201c565b905080600060016101000a81548173ffffffffffffffffffffffffffffffffffffffff021916908373ffffffffffffffffffffffffffffffffffffffff1602179055508073ffffffffffffffffffffffffffffffffffffffff16600073ffffffffffffffffffffffffffffffffffffffff167f8be0079c531659141344cd1fd0a4f28419497f9722a3daafe3b4186f6b6457e060405160405180910390a350506200012b565b600033905090565b612682806200013b6000396000f3fe60806040526004361061012a5760003560e01c80638a0dac4a116100ab578063c23bfbf71161006f578063c23bfbf714610634578063c352419f1461087a578063c4d66de8146109d7578063e691826314610a28578063ea36cbc514610af6578063f2fde38b14610c405761012a565b80638a0dac4a146104e15780638da5cb5b146105325780638f32d59b146105895780638f671849146105b8578063affed0e0146106095761012a565b806354255be0116100f257806354255be0146103e357806357ea4a1a146104235780635b07fdd81461044e5780636c19e78314610479578063715018a6146104ca5761012a565b8063158ef93e14610184578063238ac933146101b35780633184b3c51461020a5780633f579f4214610221578063452a93201461038c575b6000341115610182573373ffffffffffffffffffffffffffffffffffffffff167fe1fffcc4923d04b559f4d29a8bfc6cda04eb5b0d3c460751c2402c5c5cc9109c346040518082815260200191505060405180910390a25b005b34801561019057600080fd5b50610199610c91565b604051808215151515815260200191505060405180910390f35b3480156101bf57600080fd5b506101c8610ca3565b604051808273ffffffffffffffffffffffffffffffffffffffff1673ffffffffffffffffffffffffffffffffffffffff16815260200191505060405180910390f35b34801561021657600080fd5b5061021f610cc9565b005b34801561022d57600080fd5b506103116004803603606081101561024457600080fd5b81019080803573ffffffffffffffffffffffffffffffffffffffff169060200190929190803590602001909291908035906020019064010000000081111561028b57600080fd5b82018360208201111561029d57600080fd5b803590602001918460018302840111640100000000831117156102bf57600080fd5b91908080601f016020809104026020016040519081016040528093929190818152602001838380828437600081840152601f19601f820116905080830192505050505050509192919290505050610e0c565b6040518080602001828103825283818151815260200191508051906020019080838360005b83811015610351578082015181840152602081019050610336565b50505050905090810190601f16801561037e5780820380516001836020036101000a031916815260200191505b509250505060405180910390f35b34801561039857600080fd5b506103a1611050565b604051808273ffffffffffffffffffffffffffffffffffffffff1673ffffffffffffffffffffffffffffffffffffffff16815260200191505060405180910390f35b3480156103ef57600080fd5b506103f8611076565b6040518085815260200184815260200183815260200182815260200194505050505060405180910390f35b34801561042f57600080fd5b5061043861109c565b6040518082815260200191505060405180910390f35b34801561045a57600080fd5b506104636110c3565b6040518082815260200191505060405180910390f35b34801561048557600080fd5b506104c86004803603602081101561049c57600080fd5b81019080803573ffffffffffffffffffffffffffffffffffffffff1690602001909291905050506110c9565b005b3480156104d657600080fd5b506104df61114f565b005b3480156104ed57600080fd5b506105306004803603602081101561050457600080fd5b81019080803573ffffffffffffffffffffffffffffffffffffffff169060200190929190505050611289565b005b34801561053e57600080fd5b506105476113ac565b604051808273ffffffffffffffffffffffffffffffffffffffff1673ffffffffffffffffffffffffffffffffffffffff16815260200191505060405180910390f35b34801561059557600080fd5b5061059e6113d5565b604051808215151515815260200191505060405180910390f35b3480156105c457600080fd5b50610607600480360360208110156105db57600080fd5b81019080803573ffffffffffffffffffffffffffffffffffffffff169060200190929190505050611433565b005b34801561061557600080fd5b5061061e611545565b6040518082815260200191505060405180910390f35b34801561064057600080fd5b506107b76004803603608081101561065757600080fd5b810190808035906020019064010000000081111561067457600080fd5b82018360208201111561068657600080fd5b803590602001918460208302840111640100000000831117156106a857600080fd5b9091929391929390803590602001906401000000008111156106c957600080fd5b8201836020820111156106db57600080fd5b803590602001918460208302840111640100000000831117156106fd57600080fd5b90919293919293908035906020019064010000000081111561071e57600080fd5b82018360208201111561073057600080fd5b8035906020019184600183028401116401000000008311171561075257600080fd5b90919293919293908035906020019064010000000081111561077357600080fd5b82018360208201111561078557600080fd5b803590602001918460208302840111640100000000831117156107a757600080fd5b909192939192939050505061154b565b604051808060200180602001838103835285818151815260200191508051906020019080838360005b838110156107fb5780820151818401526020810190506107e0565b50505050905090810190601f1680156108285780820380516001836020036101000a031916815260200191505b50838103825284818151815260200191508051906020019060200280838360005b83811015610864578082015181840152602081019050610849565b5050505090500194505050505060405180910390f35b34801561088657600080fd5b50610995600480360360e081101561089d57600080fd5b81019080803573ffffffffffffffffffffffffffffffffffffffff16906020019092919080359060200190929190803590602001906401000000008111156108e457600080fd5b8201836020820111156108f657600080fd5b8035906020019184600183028401116401000000008311171561091857600080fd5b91908080601f016020809104026020016040519081016040528093929190818152602001838380828437600081840152601f19601f82011690508083019250505050505050919291929080359060200190929190803560ff1690602001909291908035906020019092919080359060200190929190505050611860565b604051808273ffffffffffffffffffffffffffffffffffffffff1673ffffffffffffffffffffffffffffffffffffffff16815260200191505060405180910390f35b3480156109e357600080fd5b50610a26600480360360208110156109fa57600080fd5b81019080803573ffffffffffffffffffffffffffffffffffffffff169060200190929190505050611931565b005b348015610a3457600080fd5b50610ae060048036036080811015610a4b57600080fd5b81019080803573ffffffffffffffffffffffffffffffffffffffff1690602001909291908035906020019092919080359060200190640100000000811115610a9257600080fd5b820183602082011115610aa457600080fd5b80359060200191846001830284011164010000000083111715610ac657600080fd5b9091929391929390803590602001909291905050506119ea565b6040518082815260200191505060405180910390f35b348015610b0257600080fd5b50610bc5600480360360c0811015610b1957600080fd5b81019080803573ffffffffffffffffffffffffffffffffffffffff1690602001909291908035906020019092919080359060200190640100000000811115610b6057600080fd5b820183602082011115610b7257600080fd5b80359060200191846001830284011164010000000083111715610b9457600080fd5b9091929391929390803560ff1690602001909291908035906020019092919080359060200190929190505050611adf565b6040518080602001828103825283818151815260200191508051906020019080838360005b83811015610c05578082015181840152602081019050610bea565b50505050905090810190601f168015610c325780820380516001836020036101000a031916815260200191505b509250505060405180910390f35b348015610c4c57600080fd5b50610c8f60048036036020811015610c6357600080fd5b81019080803573ffffffffffffffffffffffffffffffffffffffff169060200190929190505050611d81565b005b6000809054906101000a900460ff1681565b600360009054906101000a900473ffffffffffffffffffffffffffffffffffffffff1681565b600046905060405180806125d760529139605201905060405180910390206040518060400160405280601581526020017f4d6574615472616e73616374696f6e57616c6c657400000000000000000000008152508051906020012060405180807f312e310000000000000000000000000000000000000000000000000000000000815250600301905060405180910390208330604051602001808681526020018581526020018481526020018381526020018273ffffffffffffffffffffffffffffffffffffffff1673ffffffffffffffffffffffffffffffffffffffff16815260200195505050505050604051602081830303815290604052805190602001206001819055507ffc0bad7bd2704c62e2e5e69325dc36cb761ace9063381f1bf0152485a052526e6001546040518082815260200191505060405180910390a150565b6060600360009054906101000a900473ffffffffffffffffffffffffffffffffffffffff1673ffffffffffffffffffffffffffffffffffffffff163373ffffffffffffffffffffffffffffffffffffffff161480610e9c5750610e6d6113ac565b73ffffffffffffffffffffffffffffffffffffffff163373ffffffffffffffffffffffffffffffffffffffff16145b610f0e576040517f08c379a000000000000000000000000000000000000000000000000000000000815260040180806020018281038252601a8152602001807f496e76616c6964207472616e73616374696f6e2073656e64657200000000000081525060200191505060405180910390fd5b6060610f1b858585611e07565b90508473ffffffffffffffffffffffffffffffffffffffff167fe29fd77eef48ed6dbf850a6ad37dc4f50ee50d2d6111ca90421d24712b369511858584604051808481526020018060200180602001838103835285818151815260200191508051906020019080838360005b83811015610fa2578082015181840152602081019050610f87565b50505050905090810190601f168015610fcf5780820380516001836020036101000a031916815260200191505b50838103825284818151815260200191508051906020019080838360005b83811015611008578082015181840152602081019050610fed565b50505050905090810190601f1680156110355780820380516001836020036101000a031916815260200191505b509550505050505060405180910390a2809150509392505050565b600460009054906101000a900473ffffffffffffffffffffffffffffffffffffffff1681565b600080600080600180600180839350829250819150809050935093509350935090919293565b7f509c6e92324b7214543573524d0bb493d654d3410fa4f4937b3d2f4a903edd3360001b81565b60015481565b6110d16113d5565b611143576040517f08c379a00000000000000000000000000000000000000000000000000000000081526004018080602001828103825260208152602001807f4f776e61626c653a2063616c6c6572206973206e6f7420746865206f776e657281525060200191505060405180910390fd5b61114c81611fce565b50565b6111576113d5565b6111c9576040517f08c379a00000000000000000000000000000000000000000000000000000000081526004018080602001828103825260208152602001807f4f776e61626c653a2063616c6c6572206973206e6f7420746865206f776e657281525060200191505060405180910390fd5b600073ffffffffffffffffffffffffffffffffffffffff16600060019054906101000a900473ffffffffffffffffffffffffffffffffffffffff1673ffffffffffffffffffffffffffffffffffffffff167f8be0079c531659141344cd1fd0a4f28419497f9722a3daafe3b4186f6b6457e060405160405180910390a360008060016101000a81548173ffffffffffffffffffffffffffffffffffffffff021916908373ffffffffffffffffffffffffffffffffffffffff160217905550565b6112916113d5565b611303576040517f08c379a00000000000000000000000000000000000000000000000000000000081526004018080602001828103825260208152602001807f4f776e61626c653a2063616c6c6572206973206e6f7420746865206f776e657281525060200191505060405180910390fd5b80600460006101000a81548173ffffffffffffffffffffffffffffffffffffffff021916908373ffffffffffffffffffffffffffffffffffffffff160217905550600460009054906101000a900473ffffffffffffffffffffffffffffffffffffffff1673ffffffffffffffffffffffffffffffffffffffff167fe6c09ffe4572dc9ceaa5ddde4ae41befa655d6fdfe8052077af0970f700e942e60405160405180910390a250565b60008060019054906101000a900473ffffffffffffffffffffffffffffffffffffffff16905090565b60008060019054906101000a900473ffffffffffffffffffffffffffffffffffffffff1673ffffffffffffffffffffffffffffffffffffffff166114176120fd565b73ffffffffffffffffffffffffffffffffffffffff1614905090565b3373ffffffffffffffffffffffffffffffffffffffff16600460009054906101000a900473ffffffffffffffffffffffffffffffffffffffff1673ffffffffffffffffffffffffffffffffffffffff16146114f6576040517f08c379a000000000000000000000000000000000000000000000000000000000815260040180806020018281038252601a8152602001807f43616c6c6572206973206e6f742074686520677561726469616e00000000000081525060200191505060405180910390fd5b6114ff81611fce565b8073ffffffffffffffffffffffffffffffffffffffff167ff8b0d9f949d0419338bbce471b281004fd4c9528336fd83b96027356790b9f2c60405160405180910390a250565b60025481565b606080878790508a8a905014801561156857508383905088889050145b6115da576040517f08c379a00000000000000000000000000000000000000000000000000000000081526004018080602001828103825260208152602001807f496e70757420617272617973206d7573742062652073616d65206c656e67746881525060200191505060405180910390fd5b6060808b8b905060405190808252806020026020018201604052801561160f5781602001602082028038833980820191505090505b509050600080905060008090505b8d8d90508110156117ee5760606116cf8f8f8481811061163957fe5b9050602002013573ffffffffffffffffffffffffffffffffffffffff168e8e8581811061166257fe5b905060200201356116ca8e8e8080601f016020809104026020016040519081016040528093929190818152602001838380828437600081840152601f19601f82011690508083019250505050505050878e8e898181106116be57fe5b90506020020135612105565b610e0c565b905084816040516020018083805190602001908083835b6020831061170957805182526020820191506020810190506020830392506116e6565b6001836020036101000a03801982511681845116808217855250505050505090500182805190602001908083835b6020831061175a5780518252602082019150602081019050602083039250611737565b6001836020036101000a038019825116818451168082178552505050505050905001925050506040516020818303038152906040529450805184838151811061179f57fe5b6020026020010181815250506117d08989848181106117ba57fe5b905060200201358461213490919063ffffffff16565b9250506117e760018261213490919063ffffffff16565b905061161d565b5088889050811461184a576040517f08c379a00000000000000000000000000000000000000000000000000000000081526004018080602001828103825260258152602001806126296025913960400191505060405180910390fd5b8282945094505050509850989650505050505050565b60008061186f898989896121bc565b905073__Signatures____________________________6334d1a233600154838888886040518663ffffffff1660e01b8152600401808681526020018581526020018460ff1660ff1681526020018381526020018281526020019550505050505060206040518083038186803b1580156118e857600080fd5b505af41580156118fc573d6000803e3d6000fd5b505050506040513d602081101561191257600080fd5b8101908080519060200190929190505050915050979650505050505050565b6000809054906101000a900460ff16156119b3576040517f08c379a000000000000000000000000000000000000000000000000000000000815260040180806020018281038252601c8152602001807f636f6e747261637420616c726561647920696e697469616c697a65640000000081525060200191505060405180910390fd5b60016000806101000a81548160ff0219169083151502179055506119d681611fce565b6119de610cc9565b6119e730612265565b50565b600080611a3d878787878080601f016020809104026020016040519081016040528093929190818152602001838380828437600081840152601f19601f82011690508083019250505050505050866121bc565b905073__Signatures____________________________6368331709600154836040518363ffffffff1660e01b8152600401808381526020018281526020019250505060206040518083038186803b158015611a9857600080fd5b505af4158015611aac573d6000803e3d6000fd5b505050506040513d6020811015611ac257600080fd5b810190808051906020019092919050505091505095945050505050565b60606000611b38898989898080601f016020809104026020016040519081016040528093929190818152602001838380828437600081840152601f19601f82011690508083019250505050505050600254898989611860565b9050600360009054906101000a900473ffffffffffffffffffffffffffffffffffffffff1673ffffffffffffffffffffffffffffffffffffffff168173ffffffffffffffffffffffffffffffffffffffff1614611bfd576040517f08c379a000000000000000000000000000000000000000000000000000000000815260040180806020018281038252601f8152602001807f496e76616c6964206d6574612d7472616e73616374696f6e207369676e65720081525060200191505060405180910390fd5b611c13600160025461213490919063ffffffff16565b6002819055506060611c6a8a8a8a8a8080601f016020809104026020016040519081016040528093929190818152602001838380828437600081840152601f19601f82011690508083019250505050505050611e07565b9050611c8260016002546123ab90919063ffffffff16565b8a73ffffffffffffffffffffffffffffffffffffffff167f1be898b46e76e7b961415a78af7ee8559e90bd6b1df208ab006bc5a4e04b5a628b8b8b866040518085815260200180602001806020018381038352868682818152602001925080828437600081840152601f19601f820116905080830192505050838103825284818151815260200191508051906020019080838360005b83811015611d33578082015181840152602081019050611d18565b50505050905090810190601f168015611d605780820380516001836020036101000a031916815260200191505b50965050505050505060405180910390a38092505050979650505050505050565b611d896113d5565b611dfb576040517f08c379a00000000000000000000000000000000000000000000000000000000081526004018080602001828103825260208152602001807f4f776e61626c653a2063616c6c6572206973206e6f7420746865206f776e657281525060200191505060405180910390fd5b611e0481612265565b50565b6060600082511115611e8f57611e1c846123f5565b611e8e576040517f08c379a00000000000000000000000000000000000000000000000000000000081526004018080602001828103825260188152602001807f496e76616c696420636f6e74726163742061646472657373000000000000000081525060200191505060405180910390fd5b5b600060608573ffffffffffffffffffffffffffffffffffffffff1685856040518082805190602001908083835b60208310611edf5780518252602082019150602081019050602083039250611ebc565b6001836020036101000a03801982511681845116808217855250505050505090500191505060006040518083038185875af1925050503d8060008114611f41576040519150601f19603f3d011682016040523d82523d6000602084013e611f46565b606091505b50809250819350505081611fc2576040517f08c379a000000000000000000000000000000000000000000000000000000000815260040180806020018281038252601d8152602001807f5472616e73616374696f6e20657865637574696f6e206661696c65642e00000081525060200191505060405180910390fd5b80925050509392505050565b600073ffffffffffffffffffffffffffffffffffffffff168173ffffffffffffffffffffffffffffffffffffffff161415612054576040517f08c379a00000000000000000000000000000000000000000000000000000000081526004018080602001828103825260248152602001806125b36024913960400191505060405180910390fd5b80600360006101000a81548173ffffffffffffffffffffffffffffffffffffffff021916908373ffffffffffffffffffffffffffffffffffffffff160217905550600360009054906101000a900473ffffffffffffffffffffffffffffffffffffffff1673ffffffffffffffffffffffffffffffffffffffff167f9eaa897564d022fb8c5efaf0acdb5d9d27b440b2aad44400b6e1c702e65b9ed360405160405180910390a250565b600033905090565b6060806000831115612129576121268484876124409092919063ffffffff16565b90505b809150509392505050565b6000808284019050838110156121b2576040517f08c379a000000000000000000000000000000000000000000000000000000000815260040180806020018281038252601b8152602001807f536166654d6174683a206164646974696f6e206f766572666c6f77000000000081525060200191505060405180910390fd5b8091505092915050565b60007f509c6e92324b7214543573524d0bb493d654d3410fa4f4937b3d2f4a903edd3360001b8585858051906020012085604051602001808681526020018573ffffffffffffffffffffffffffffffffffffffff1673ffffffffffffffffffffffffffffffffffffffff16815260200184815260200183815260200182815260200195505050505050604051602081830303815290604052805190602001209050949350505050565b600073ffffffffffffffffffffffffffffffffffffffff168173ffffffffffffffffffffffffffffffffffffffff1614156122eb576040517f08c379a000000000000000000000000000000000000000000000000000000000815260040180806020018281038252602681526020018061258d6026913960400191505060405180910390fd5b8073ffffffffffffffffffffffffffffffffffffffff16600060019054906101000a900473ffffffffffffffffffffffffffffffffffffffff1673ffffffffffffffffffffffffffffffffffffffff167f8be0079c531659141344cd1fd0a4f28419497f9722a3daafe3b4186f6b6457e060405160405180910390a380600060016101000a81548173ffffffffffffffffffffffffffffffffffffffff021916908373ffffffffffffffffffffffffffffffffffffffff16021790555050565b60006123ed83836040518060400160405280601e81526020017f536166654d6174683a207375627472616374696f6e206f766572666c6f7700008152506124cc565b905092915050565b60008060007fc5d2460186f7233c927e7db2dcc703c0e500b653ca82273b7bfad8045d85a47060001b9050833f915080821415801561243757506000801b8214155b92505050919050565b60608183018451101561245257600080fd5b606082156000811461246f576040519150602082016040526124c0565b6040519150601f8416801560200281840101858101878315602002848b0101015b818310156124ad5780518352602083019250602081019050612490565b50868552601f19601f8301166040525050505b50809150509392505050565b6000838311158290612579576040517f08c379a00000000000000000000000000000000000000000000000000000000081526004018080602001828103825283818151815260200191508051906020019080838360005b8381101561253e578082015181840152602081019050612523565b50505050905090810190601f16801561256b5780820380516001836020036101000a031916815260200191505b509250505060405180910390fd5b506000838503905080915050939250505056fe4f776e61626c653a206e6577206f776e657220697320746865207a65726f206164647265737363616e6e6f742061737369676e207a65726f2061646472657373206173207369676e6572454950373132446f6d61696e28737472696e67206e616d652c737472696e672076657273696f6e2c75696e7432353620636861696e49642c6164647265737320766572696679696e67436f6e747261637429646174612063616e6e6f74206861766520657874726120627974657320617070656e646564a265627a7a723158203866f68405b3293800a7c6134be44e3dbaadc4f8380f2e7063265fc45f9c675c64736f6c634300050d0032",
  "source": "pragma solidity ^0.5.13;\nimport \"openzeppelin-solidity/contracts/math/SafeMath.sol\";\nimport \"openzeppelin-solidity/contracts/ownership/Ownable.sol\";\nimport \"solidity-bytes-utils/contracts/BytesLib.sol\";\n\nimport \"./interfaces/ICeloVersionedContract.sol\";\nimport \"./interfaces/IMetaTransactionWallet.sol\";\nimport \"./ExternalCall.sol\";\nimport \"./Initializable.sol\";\nimport \"./Signatures.sol\";\n\ncontract MetaTransactionWallet is\n  IMetaTransactionWallet,\n  ICeloVersionedContract,\n  Initializable,\n  Ownable\n{\n  using SafeMath for uint256;\n  using BytesLib for bytes;\n\n  bytes32 public eip712DomainSeparator;\n  // The EIP712 typehash for ExecuteMetaTransaction, i.e. keccak256(\n  // \"ExecuteMetaTransaction(address destination,uint256 value,bytes data,uint256 nonce)\");\n  bytes32 public constant EIP712_EXECUTE_META_TRANSACTION_TYPEHASH = (\n    0x509c6e92324b7214543573524d0bb493d654d3410fa4f4937b3d2f4a903edd33\n  );\n  uint256 public nonce;\n  address public signer;\n  address public guardian;\n\n  event SignerSet(address indexed signer);\n  event GuardianSet(address indexed guardian);\n  event WalletRecovered(address indexed newSigner);\n  event EIP712DomainSeparatorSet(bytes32 eip712DomainSeparator);\n  event Deposit(address indexed sender, uint256 value);\n  event TransactionExecution(\n    address indexed destination,\n    uint256 value,\n    bytes data,\n    bytes returnData\n  );\n  event MetaTransactionExecution(\n    address indexed destination,\n    uint256 value,\n    bytes data,\n    uint256 indexed nonce,\n    bytes returnData\n  );\n\n  // onlyGuardian functions can only be called when the guardian is not the zero address and\n  // the caller is the guardian.\n  modifier onlyGuardian() {\n    // Note that if the guardian is not set (e.g. its address 0), this require statement will fail.\n    require(guardian == msg.sender, \"Caller is not the guardian\");\n    _;\n  }\n\n  /**\n   * @notice Sets initialized == true on implementation contracts\n   * @param test Set to true to skip implementation initialization\n   */\n  constructor(bool test) public Initializable(test) {}\n\n  /**\n   * @dev Fallback function allows to deposit ether.\n   */\n  function() external payable {\n    if (msg.value > 0) emit Deposit(msg.sender, msg.value);\n  }\n\n  /**\n   * @notice Returns the storage, major, minor, and patch version of the contract.\n   * @return The storage, major, minor, and patch version of the contract.\n   */\n  function getVersionNumber() external pure returns (uint256, uint256, uint256, uint256) {\n    return (1, 1, 1, 1);\n  }\n\n  /**\n   * @notice Used in place of the constructor to allow the contract to be upgradable via proxy.\n   * @param _signer The address authorized to execute transactions via this wallet.\n   */\n  function initialize(address _signer) external initializer {\n    _setSigner(_signer);\n    setEip712DomainSeparator();\n    // MetaTransactionWallet owns itself, which necessitates that all onlyOwner functions\n    // be called via executeTransaction or executeMetaTransaction.\n    // If the signer was the owner, onlyOwner functions would not be callable via\n    // meta-transactions.\n    _transferOwnership(address(this));\n  }\n\n  /**\n   * @notice Transfers control of the wallet to a new signer.\n   * @param _signer The address authorized to execute transactions via this wallet.\n   */\n  function setSigner(address _signer) external onlyOwner {\n    _setSigner(_signer);\n  }\n\n  /**\n   * @notice Sets the wallet's guardian address.\n   * @param _guardian The address authorized to change the wallet's signer\n   */\n  function setGuardian(address _guardian) external onlyOwner {\n    guardian = _guardian;\n    emit GuardianSet(guardian);\n  }\n\n  /**\n   * @notice Changes the wallet's signer\n   * @param newSigner The new signer address\n   */\n  function recoverWallet(address newSigner) external onlyGuardian {\n    _setSigner(newSigner);\n    emit WalletRecovered(newSigner);\n  }\n\n  /**\n   * @notice Sets the EIP-712 domain separator.\n   * @dev Should be called every time the wallet is upgraded to a new version.\n   */\n  function setEip712DomainSeparator() public {\n    uint256 id;\n    assembly {\n      id := chainid\n    }\n    // Note: `version` is the storage.major part of this contract's version (an\n    // increase to either of these could mean backwards incompatibilities).\n    eip712DomainSeparator = keccak256(\n      abi.encode(\n        keccak256(\n          \"EIP712Domain(string name,string version,uint256 chainId,address verifyingContract)\"\n        ),\n        keccak256(bytes(\"MetaTransactionWallet\")),\n        keccak256(\"1.1\"),\n        id,\n        address(this)\n      )\n    );\n    emit EIP712DomainSeparatorSet(eip712DomainSeparator);\n  }\n\n  /**\n   * @notice Returns the struct hash of the MetaTransaction\n   * @param destination The address to which the meta-transaction is to be sent.\n   * @param value The CELO value to be sent with the meta-transaction.\n   * @param data The data to be sent with the meta-transaction.\n   * @param _nonce The nonce for this meta-transaction local to this wallet.\n   * @return The digest of the provided meta-transaction.\n   */\n  function _getMetaTransactionStructHash(\n    address destination,\n    uint256 value,\n    bytes memory data,\n    uint256 _nonce\n  ) internal view returns (bytes32) {\n    return\n      keccak256(\n        abi.encode(\n          EIP712_EXECUTE_META_TRANSACTION_TYPEHASH,\n          destination,\n          value,\n          keccak256(data),\n          _nonce\n        )\n      );\n  }\n\n  /**\n   * @notice Returns the digest of the provided meta-transaction, to be signed by `sender`.\n   * @param destination The address to which the meta-transaction is to be sent.\n   * @param value The CELO value to be sent with the meta-transaction.\n   * @param data The data to be sent with the meta-transaction.\n   * @param _nonce The nonce for this meta-transaction local to this wallet.\n   * @return The digest of the provided meta-transaction.\n   */\n  function getMetaTransactionDigest(\n    address destination,\n    uint256 value,\n    bytes calldata data,\n    uint256 _nonce\n  ) external view returns (bytes32) {\n    bytes32 structHash = _getMetaTransactionStructHash(destination, value, data, _nonce);\n    return Signatures.toEthSignedTypedDataHash(eip712DomainSeparator, structHash);\n  }\n\n  /**\n   * @notice Returns the address that signed the provided meta-transaction.\n   * @param destination The address to which the meta-transaction is to be sent.\n   * @param value The CELO value to be sent with the meta-transaction.\n   * @param data The data to be sent with the meta-transaction.\n   * @param _nonce The nonce for this meta-transaction local to this wallet.\n   * @param v The recovery id of the ECDSA signature of the meta-transaction.\n   * @param r Output value r of the ECDSA signature.\n   * @param s Output value s of the ECDSA signature.\n   * @return The address that signed the provided meta-transaction.\n   */\n  function getMetaTransactionSigner(\n    address destination,\n    uint256 value,\n    bytes memory data,\n    uint256 _nonce,\n    uint8 v,\n    bytes32 r,\n    bytes32 s\n  ) public view returns (address) {\n    bytes32 structHash = _getMetaTransactionStructHash(destination, value, data, _nonce);\n    return Signatures.getSignerOfTypedDataHash(eip712DomainSeparator, structHash, v, r, s);\n  }\n\n  /**\n   * @notice Executes a meta-transaction on behalf of the signer.\n   * @param destination The address to which the meta-transaction is to be sent.\n   * @param value The CELO value to be sent with the meta-transaction.\n   * @param data The data to be sent with the meta-transaction.\n   * @param v The recovery id of the ECDSA signature of the meta-transaction.\n   * @param r Output value r of the ECDSA signature.\n   * @param s Output value s of the ECDSA signature.\n   * @return The return value of the meta-transaction execution.\n   */\n  function executeMetaTransaction(\n    address destination,\n    uint256 value,\n    bytes calldata data,\n    uint8 v,\n    bytes32 r,\n    bytes32 s\n  ) external returns (bytes memory) {\n    address _signer = getMetaTransactionSigner(destination, value, data, nonce, v, r, s);\n    require(_signer == signer, \"Invalid meta-transaction signer\");\n    nonce = nonce.add(1);\n    bytes memory returnData = ExternalCall.execute(destination, value, data);\n    emit MetaTransactionExecution(destination, value, data, nonce.sub(1), returnData);\n    return returnData;\n  }\n\n  /**\n   * @notice Executes a transaction on behalf of the signer.`\n   * @param destination The address to which the transaction is to be sent.\n   * @param value The CELO value to be sent with the transaction.\n   * @param data The data to be sent with the transaction.\n   * @return The return value of the transaction execution.\n   */\n  function executeTransaction(address destination, uint256 value, bytes memory data)\n    public\n    returns (bytes memory)\n  {\n    // Allowing the owner to call execute transaction allows, when the contract is self-owned,\n    // for the signer to sign and execute a batch of transactions via a meta-transaction.\n    require(msg.sender == signer || msg.sender == owner(), \"Invalid transaction sender\");\n    bytes memory returnData = ExternalCall.execute(destination, value, data);\n    emit TransactionExecution(destination, value, data, returnData);\n    return returnData;\n  }\n\n  /**\n   * @notice Executes multiple transactions on behalf of the signer.`\n   * @param destinations The address to which each transaction is to be sent.\n   * @param values The CELO value to be sent with each transaction.\n   * @param data The concatenated data to be sent in each transaction.\n   * @param dataLengths The length of each transaction's data.\n   * @return The return values of all transactions appended as bytes and an array of the length\n   *         of each transaction output which will be 0 if a transaction had no output \n   */\n  function executeTransactions(\n    address[] calldata destinations,\n    uint256[] calldata values,\n    bytes calldata data,\n    uint256[] calldata dataLengths\n  ) external returns (bytes memory, uint256[] memory) {\n    require(\n      destinations.length == values.length && values.length == dataLengths.length,\n      \"Input arrays must be same length\"\n    );\n\n    bytes memory returnValues;\n    uint256[] memory returnLengths = new uint256[](destinations.length);\n    uint256 dataPosition = 0;\n    for (uint256 i = 0; i < destinations.length; i = i.add(1)) {\n      bytes memory returnVal = executeTransaction(\n        destinations[i],\n        values[i],\n        sliceData(data, dataPosition, dataLengths[i])\n      );\n      returnValues = abi.encodePacked(returnValues, returnVal);\n      returnLengths[i] = returnVal.length;\n      dataPosition = dataPosition.add(dataLengths[i]);\n    }\n\n    require(dataPosition == data.length, \"data cannot have extra bytes appended\");\n    return (returnValues, returnLengths);\n  }\n\n  /**\n   * @notice Returns a slice from a byte array.\n   * @param data The byte array.\n   * @param start The start index of the slice to take.\n   * @param length The length of the slice to take.\n   * @return A slice from a byte array.\n   */\n  function sliceData(bytes memory data, uint256 start, uint256 length)\n    internal\n    returns (bytes memory)\n  {\n    // When length == 0 bytes.slice does not seem to always return an empty byte array.\n    bytes memory sliced;\n    if (length > 0) {\n      sliced = data.slice(start, length);\n    }\n    return sliced;\n  }\n\n  function _setSigner(address _signer) internal {\n    require(_signer != address(0), \"cannot assign zero address as signer\");\n    signer = _signer;\n    emit SignerSet(signer);\n  }\n\n}\n",
  "sourcePath": "/Users/hiroki.yasui/go/src/github.com/celo-org/celo-monorepo/packages/protocol/contracts/common/MetaTransactionWallet.sol",
  "compiler": {
    "name": "solc",
    "version": "0.5.13+commit.5b0b510c.Emscripten.clang"
  },
  "schemaVersion": "3.0.23",
  "updatedAt": "2022-05-06T03:53:12.688Z",
  "devdoc": {
    "methods": {
      "constructor": {
        "params": {
          "test": "Set to true to skip implementation initialization"
        }
      },
      "executeMetaTransaction(address,uint256,bytes,uint8,bytes32,bytes32)": {
        "params": {
          "data": "The data to be sent with the meta-transaction.",
          "destination": "The address to which the meta-transaction is to be sent.",
          "r": "Output value r of the ECDSA signature.",
          "s": "Output value s of the ECDSA signature.",
          "v": "The recovery id of the ECDSA signature of the meta-transaction.",
          "value": "The CELO value to be sent with the meta-transaction."
        },
        "return": "The return value of the meta-transaction execution."
      },
      "executeTransaction(address,uint256,bytes)": {
        "params": {
          "data": "The data to be sent with the transaction.",
          "destination": "The address to which the transaction is to be sent.",
          "value": "The CELO value to be sent with the transaction."
        },
        "return": "The return value of the transaction execution."
      },
      "executeTransactions(address[],uint256[],bytes,uint256[])": {
        "params": {
          "data": "The concatenated data to be sent in each transaction.",
          "dataLengths": "The length of each transaction's data.",
          "destinations": "The address to which each transaction is to be sent.",
          "values": "The CELO value to be sent with each transaction."
        },
        "return": "The return values of all transactions appended as bytes and an array of the length        of each transaction output which will be 0 if a transaction had no output "
      },
      "getMetaTransactionDigest(address,uint256,bytes,uint256)": {
        "params": {
          "_nonce": "The nonce for this meta-transaction local to this wallet.",
          "data": "The data to be sent with the meta-transaction.",
          "destination": "The address to which the meta-transaction is to be sent.",
          "value": "The CELO value to be sent with the meta-transaction."
        },
        "return": "The digest of the provided meta-transaction."
      },
      "getMetaTransactionSigner(address,uint256,bytes,uint256,uint8,bytes32,bytes32)": {
        "params": {
          "_nonce": "The nonce for this meta-transaction local to this wallet.",
          "data": "The data to be sent with the meta-transaction.",
          "destination": "The address to which the meta-transaction is to be sent.",
          "r": "Output value r of the ECDSA signature.",
          "s": "Output value s of the ECDSA signature.",
          "v": "The recovery id of the ECDSA signature of the meta-transaction.",
          "value": "The CELO value to be sent with the meta-transaction."
        },
        "return": "The address that signed the provided meta-transaction."
      },
      "getVersionNumber()": {
        "return": "The storage, major, minor, and patch version of the contract."
      },
      "initialize(address)": {
        "params": {
          "_signer": "The address authorized to execute transactions via this wallet."
        }
      },
      "isOwner()": {
        "details": "Returns true if the caller is the current owner."
      },
      "owner()": {
        "details": "Returns the address of the current owner."
      },
      "recoverWallet(address)": {
        "params": {
          "newSigner": "The new signer address"
        }
      },
      "renounceOwnership()": {
        "details": "Leaves the contract without owner. It will not be possible to call `onlyOwner` functions anymore. Can only be called by the current owner.     * NOTE: Renouncing ownership will leave the contract without an owner, thereby removing any functionality that is only available to the owner."
      },
      "setEip712DomainSeparator()": {
        "details": "Should be called every time the wallet is upgraded to a new version."
      },
      "setGuardian(address)": {
        "params": {
          "_guardian": "The address authorized to change the wallet's signer"
        }
      },
      "setSigner(address)": {
        "params": {
          "_signer": "The address authorized to execute transactions via this wallet."
        }
      },
      "transferOwnership(address)": {
        "details": "Transfers ownership of the contract to a new account (`newOwner`). Can only be called by the current owner."
      }
    }
  },
  "userdoc": {
    "methods": {
      "constructor": "Sets initialized == true on implementation contracts",
      "executeMetaTransaction(address,uint256,bytes,uint8,bytes32,bytes32)": {
        "notice": "Executes a meta-transaction on behalf of the signer."
      },
      "executeTransaction(address,uint256,bytes)": {
        "notice": "Executes a transaction on behalf of the signer.`"
      },
      "executeTransactions(address[],uint256[],bytes,uint256[])": {
        "notice": "Executes multiple transactions on behalf of the signer.`"
      },
      "getMetaTransactionDigest(address,uint256,bytes,uint256)": {
        "notice": "Returns the digest of the provided meta-transaction, to be signed by `sender`."
      },
      "getMetaTransactionSigner(address,uint256,bytes,uint256,uint8,bytes32,bytes32)": {
        "notice": "Returns the address that signed the provided meta-transaction."
      },
      "getVersionNumber()": {
        "notice": "Returns the storage, major, minor, and patch version of the contract."
      },
      "initialize(address)": {
        "notice": "Used in place of the constructor to allow the contract to be upgradable via proxy."
      },
      "recoverWallet(address)": {
        "notice": "Changes the wallet's signer"
      },
      "setEip712DomainSeparator()": {
        "notice": "Sets the EIP-712 domain separator."
      },
      "setGuardian(address)": {
        "notice": "Sets the wallet's guardian address."
      },
      "setSigner(address)": {
        "notice": "Transfers control of the wallet to a new signer."
      }
    }
  }
}