{
  "contractName": "MockLockedGold",
  "abi": [
    {
      "constant": true,
      "inputs": [
        {
          "internalType": "address",
          "name": "",
          "type": "address"
        }
      ],
      "name": "accountTotalLockedGold",
      "outputs": [
        {
          "internalType": "uint256",
          "name": "",
          "type": "uint256"
        }
      ],
      "payable": false,
      "stateMutability": "view",
      "type": "function"
    },
    {
      "constant": true,
      "inputs": [
        {
          "internalType": "address",
          "name": "",
          "type": "address"
        }
      ],
      "name": "authorizedBy",
      "outputs": [
        {
          "internalType": "address",
          "name": "",
          "type": "address"
        }
      ],
      "payable": false,
      "stateMutability": "view",
      "type": "function"
    },
    {
      "constant": true,
      "inputs": [
        {
          "internalType": "address",
          "name": "",
          "type": "address"
        }
      ],
      "name": "authorizedValidators",
      "outputs": [
        {
          "internalType": "address",
          "name": "",
          "type": "address"
        }
      ],
      "payable": false,
      "stateMutability": "view",
      "type": "function"
    },
    {
      "constant": true,
      "inputs": [
        {
          "internalType": "address",
          "name": "",
          "type": "address"
        }
      ],
      "name": "nonvotingAccountBalance",
      "outputs": [
        {
          "internalType": "uint256",
          "name": "",
          "type": "uint256"
        }
      ],
      "payable": false,
      "stateMutability": "view",
      "type": "function"
    },
    {
      "constant": true,
      "inputs": [
        {
          "internalType": "address",
          "name": "",
          "type": "address"
        }
      ],
      "name": "slashingWhitelist",
      "outputs": [
        {
          "internalType": "bool",
          "name": "",
          "type": "bool"
        }
      ],
      "payable": false,
      "stateMutability": "view",
      "type": "function"
    },
    {
      "constant": false,
      "inputs": [
        {
          "internalType": "address",
          "name": "account",
          "type": "address"
        },
        {
          "internalType": "uint256",
          "name": "value",
          "type": "uint256"
        }
      ],
      "name": "incrementNonvotingAccountBalance",
      "outputs": [],
      "payable": false,
      "stateMutability": "nonpayable",
      "type": "function"
    },
    {
      "constant": false,
      "inputs": [
        {
          "internalType": "address",
          "name": "account",
          "type": "address"
        },
        {
          "internalType": "uint256",
          "name": "value",
          "type": "uint256"
        }
      ],
      "name": "decrementNonvotingAccountBalance",
      "outputs": [],
      "payable": false,
      "stateMutability": "nonpayable",
      "type": "function"
    },
    {
      "constant": false,
      "inputs": [
        {
          "internalType": "address",
          "name": "account",
          "type": "address"
        },
        {
          "internalType": "uint256",
          "name": "value",
          "type": "uint256"
        }
      ],
      "name": "setAccountTotalLockedGold",
      "outputs": [],
      "payable": false,
      "stateMutability": "nonpayable",
      "type": "function"
    },
    {
      "constant": true,
      "inputs": [
        {
          "internalType": "address",
          "name": "account",
          "type": "address"
        }
      ],
      "name": "getAccountTotalLockedGold",
      "outputs": [
        {
          "internalType": "uint256",
          "name": "",
          "type": "uint256"
        }
      ],
      "payable": false,
      "stateMutability": "view",
      "type": "function"
    },
    {
      "constant": false,
      "inputs": [
        {
          "internalType": "uint256",
          "name": "value",
          "type": "uint256"
        }
      ],
      "name": "setTotalLockedGold",
      "outputs": [],
      "payable": false,
      "stateMutability": "nonpayable",
      "type": "function"
    },
    {
      "constant": true,
      "inputs": [],
      "name": "getTotalLockedGold",
      "outputs": [
        {
          "internalType": "uint256",
          "name": "",
          "type": "uint256"
        }
      ],
      "payable": false,
      "stateMutability": "view",
      "type": "function"
    },
    {
      "constant": false,
      "inputs": [],
      "name": "lock",
      "outputs": [],
      "payable": true,
      "stateMutability": "payable",
      "type": "function"
    },
    {
      "constant": false,
      "inputs": [
        {
          "internalType": "uint256",
          "name": "value",
          "type": "uint256"
        }
      ],
      "name": "unlock",
      "outputs": [],
      "payable": false,
      "stateMutability": "nonpayable",
      "type": "function"
    },
    {
      "constant": false,
      "inputs": [
        {
          "internalType": "uint256",
          "name": "index",
          "type": "uint256"
        },
        {
          "internalType": "uint256",
          "name": "value",
          "type": "uint256"
        }
      ],
      "name": "relock",
      "outputs": [],
      "payable": false,
      "stateMutability": "nonpayable",
      "type": "function"
    },
    {
      "constant": false,
      "inputs": [
        {
          "internalType": "uint256",
          "name": "index",
          "type": "uint256"
        }
      ],
      "name": "withdraw",
      "outputs": [],
      "payable": false,
      "stateMutability": "nonpayable",
      "type": "function"
    },
    {
      "constant": false,
      "inputs": [
        {
          "internalType": "address",
          "name": "account",
          "type": "address"
        },
        {
          "internalType": "uint256",
          "name": "penalty",
          "type": "uint256"
        },
        {
          "internalType": "address",
          "name": "",
          "type": "address"
        },
        {
          "internalType": "uint256",
          "name": "",
          "type": "uint256"
        },
        {
          "internalType": "address[]",
          "name": "",
          "type": "address[]"
        },
        {
          "internalType": "address[]",
          "name": "",
          "type": "address[]"
        },
        {
          "internalType": "uint256[]",
          "name": "",
          "type": "uint256[]"
        }
      ],
      "name": "slash",
      "outputs": [],
      "payable": false,
      "stateMutability": "nonpayable",
      "type": "function"
    },
    {
      "constant": false,
      "inputs": [
        {
          "internalType": "address",
          "name": "slasher",
          "type": "address"
        }
      ],
      "name": "addSlasher",
      "outputs": [],
      "payable": false,
      "stateMutability": "nonpayable",
      "type": "function"
    },
    {
      "constant": false,
      "inputs": [
        {
          "internalType": "address",
          "name": "slasher",
          "type": "address"
        }
      ],
      "name": "removeSlasher",
      "outputs": [],
      "payable": false,
      "stateMutability": "nonpayable",
      "type": "function"
    },
    {
      "constant": true,
      "inputs": [
        {
          "internalType": "address",
          "name": "slasher",
          "type": "address"
        }
      ],
      "name": "isSlasher",
      "outputs": [
        {
          "internalType": "bool",
          "name": "",
          "type": "bool"
        }
      ],
      "payable": false,
      "stateMutability": "view",
      "type": "function"
    },
    {
      "constant": true,
      "inputs": [
        {
          "internalType": "address",
          "name": "",
          "type": "address"
        }
      ],
      "name": "getPendingWithdrawals",
      "outputs": [
        {
          "internalType": "uint256[]",
          "name": "",
          "type": "uint256[]"
        },
        {
          "internalType": "uint256[]",
          "name": "",
          "type": "uint256[]"
        }
      ],
      "payable": false,
      "stateMutability": "view",
      "type": "function"
    },
    {
      "constant": true,
      "inputs": [
        {
          "internalType": "address",
          "name": "",
          "type": "address"
        }
      ],
      "name": "getTotalPendingWithdrawals",
      "outputs": [
        {
          "internalType": "uint256",
          "name": "",
          "type": "uint256"
        }
      ],
      "payable": false,
      "stateMutability": "view",
      "type": "function"
    }
  ],
  "bytecode": "0x608060405234801561001057600080fd5b50611184806100206000396000f3fe60806040526004361061012a5760003560e01c806368a9f19c116100ab578063b6e1e49d1161006f578063b6e1e49d146107af578063dca0afc114610814578063f0f8b02f14610879578063f340c0d0146108d4578063f83d08ba146109c2578063ff7cb832146109cc5761012a565b806368a9f19c146105dc5780636edf77a51461062d578063aac6aa9c14610688578063b2fb30cb146106d9578063b5a664c21461071e5761012a565b806330ec70f5116100f257806330ec70f5146102be57806331993fc91461032357806357601c5d146104a757806358714163146105105780636198e339146105a15761012a565b80630bf7f5f81461012f57806318a4ff8c146101985780631ea3eba7146101f35780632e1a7d4d1461025857806330a61d5914610293575b600080fd5b34801561013b57600080fd5b5061017e6004803603602081101561015257600080fd5b81019080803573ffffffffffffffffffffffffffffffffffffffff169060200190929190505050610a07565b604051808215151515815260200191505060405180910390f35b3480156101a457600080fd5b506101f1600480360360408110156101bb57600080fd5b81019080803573ffffffffffffffffffffffffffffffffffffffff16906020019092919080359060200190929190505050610a27565b005b3480156101ff57600080fd5b506102426004803603602081101561021657600080fd5b81019080803573ffffffffffffffffffffffffffffffffffffffff169060200190929190505050610ac0565b6040518082815260200191505060405180910390f35b34801561026457600080fd5b506102916004803603602081101561027b57600080fd5b8101908080359060200190929190505050610ad8565b005b34801561029f57600080fd5b506102a8610adb565b6040518082815260200191505060405180910390f35b3480156102ca57600080fd5b5061030d600480360360208110156102e157600080fd5b81019080803573ffffffffffffffffffffffffffffffffffffffff169060200190929190505050610ae5565b6040518082815260200191505060405180910390f35b34801561032f57600080fd5b506104a5600480360360e081101561034657600080fd5b81019080803573ffffffffffffffffffffffffffffffffffffffff16906020019092919080359060200190929190803573ffffffffffffffffffffffffffffffffffffffff16906020019092919080359060200190929190803590602001906401000000008111156103b757600080fd5b8201836020820111156103c957600080fd5b803590602001918460208302840111640100000000831117156103eb57600080fd5b90919293919293908035906020019064010000000081111561040c57600080fd5b82018360208201111561041e57600080fd5b8035906020019184602083028401116401000000008311171561044057600080fd5b90919293919293908035906020019064010000000081111561046157600080fd5b82018360208201111561047357600080fd5b8035906020019184602083028401116401000000008311171561049557600080fd5b9091929391929390505050610b2d565b005b3480156104b357600080fd5b506104f6600480360360208110156104ca57600080fd5b81019080803573ffffffffffffffffffffffffffffffffffffffff169060200190929190505050610bcc565b604051808215151515815260200191505060405180910390f35b34801561051c57600080fd5b5061055f6004803603602081101561053357600080fd5b81019080803573ffffffffffffffffffffffffffffffffffffffff169060200190929190505050610c22565b604051808273ffffffffffffffffffffffffffffffffffffffff1673ffffffffffffffffffffffffffffffffffffffff16815260200191505060405180910390f35b3480156105ad57600080fd5b506105da600480360360208110156105c457600080fd5b8101908080359060200190929190505050610c55565b005b3480156105e857600080fd5b5061062b600480360360208110156105ff57600080fd5b81019080803573ffffffffffffffffffffffffffffffffffffffff169060200190929190505050610ceb565b005b34801561063957600080fd5b506106866004803603604081101561065057600080fd5b81019080803573ffffffffffffffffffffffffffffffffffffffff16906020019092919080359060200190929190505050610d46565b005b34801561069457600080fd5b506106d7600480360360208110156106ab57600080fd5b81019080803573ffffffffffffffffffffffffffffffffffffffff169060200190929190505050610ddf565b005b3480156106e557600080fd5b5061071c600480360360408110156106fc57600080fd5b810190808035906020019092919080359060200190929190505050610e3a565b005b34801561072a57600080fd5b5061076d6004803603602081101561074157600080fd5b81019080803573ffffffffffffffffffffffffffffffffffffffff169060200190929190505050610e3e565b604051808273ffffffffffffffffffffffffffffffffffffffff1673ffffffffffffffffffffffffffffffffffffffff16815260200191505060405180910390f35b3480156107bb57600080fd5b506107fe600480360360208110156107d257600080fd5b81019080803573ffffffffffffffffffffffffffffffffffffffff169060200190929190505050610e71565b6040518082815260200191505060405180910390f35b34801561082057600080fd5b506108636004803603602081101561083757600080fd5b81019080803573ffffffffffffffffffffffffffffffffffffffff169060200190929190505050610e7b565b6040518082815260200191505060405180910390f35b34801561088557600080fd5b506108d26004803603604081101561089c57600080fd5b81019080803573ffffffffffffffffffffffffffffffffffffffff16906020019092919080359060200190929190505050610e93565b005b3480156108e057600080fd5b50610923600480360360208110156108f757600080fd5b81019080803573ffffffffffffffffffffffffffffffffffffffff169060200190929190505050610eda565b604051808060200180602001838103835285818151815260200191508051906020019060200280838360005b8381101561096a57808201518184015260208101905061094f565b50505050905001838103825284818151815260200191508051906020019060200280838360005b838110156109ac578082015181840152602081019050610991565b5050505090500194505050505060405180910390f35b6109ca610f1e565b005b3480156109d857600080fd5b50610a05600480360360208110156109ef57600080fd5b8101908080359060200190929190505050610fb3565b005b60056020528060005260406000206000915054906101000a900460ff1681565b610a7981600160008573ffffffffffffffffffffffffffffffffffffffff1673ffffffffffffffffffffffffffffffffffffffff16815260200190815260200160002054610fbd90919063ffffffff16565b600160008473ffffffffffffffffffffffffffffffffffffffff1673ffffffffffffffffffffffffffffffffffffffff168152602001908152602001600020819055505050565b60006020528060005260406000206000915090505481565b50565b6000600454905090565b60008060008373ffffffffffffffffffffffffffffffffffffffff1673ffffffffffffffffffffffffffffffffffffffff168152602001908152602001600020549050919050565b610b7e896000808d73ffffffffffffffffffffffffffffffffffffffff1673ffffffffffffffffffffffffffffffffffffffff16815260200190815260200160002054610fbd90919063ffffffff16565b6000808c73ffffffffffffffffffffffffffffffffffffffff1673ffffffffffffffffffffffffffffffffffffffff1681526020019081526020016000208190555050505050505050505050565b6000600560008373ffffffffffffffffffffffffffffffffffffffff1673ffffffffffffffffffffffffffffffffffffffff16815260200190815260200160002060009054906101000a900460ff169050919050565b60026020528060005260406000206000915054906101000a900473ffffffffffffffffffffffffffffffffffffffff1681565b610ca6816000803373ffffffffffffffffffffffffffffffffffffffff1673ffffffffffffffffffffffffffffffffffffffff16815260200190815260200160002054610fbd90919063ffffffff16565b6000803373ffffffffffffffffffffffffffffffffffffffff1673ffffffffffffffffffffffffffffffffffffffff1681526020019081526020016000208190555050565b6001600560008373ffffffffffffffffffffffffffffffffffffffff1673ffffffffffffffffffffffffffffffffffffffff16815260200190815260200160002060006101000a81548160ff02191690831515021790555050565b610d9881600160008573ffffffffffffffffffffffffffffffffffffffff1673ffffffffffffffffffffffffffffffffffffffff1681526020019081526020016000205461100790919063ffffffff16565b600160008473ffffffffffffffffffffffffffffffffffffffff1673ffffffffffffffffffffffffffffffffffffffff168152602001908152602001600020819055505050565b6000600560008373ffffffffffffffffffffffffffffffffffffffff1673ffffffffffffffffffffffffffffffffffffffff16815260200190815260200160002060006101000a81548160ff02191690831515021790555050565b5050565b60036020528060005260406000206000915054906101000a900473ffffffffffffffffffffffffffffffffffffffff1681565b6000809050919050565b60016020528060005260406000206000915090505481565b806000808473ffffffffffffffffffffffffffffffffffffffff1673ffffffffffffffffffffffffffffffffffffffff168152602001908152602001600020819055505050565b60608060606000604051908082528060200260200182016040528015610f0f5781602001602082028038833980820191505090505b50905080819250925050915091565b610f6f346000803373ffffffffffffffffffffffffffffffffffffffff1673ffffffffffffffffffffffffffffffffffffffff1681526020019081526020016000205461100790919063ffffffff16565b6000803373ffffffffffffffffffffffffffffffffffffffff1673ffffffffffffffffffffffffffffffffffffffff16815260200190815260200160002081905550565b8060048190555050565b6000610fff83836040518060400160405280601e81526020017f536166654d6174683a207375627472616374696f6e206f766572666c6f77000081525061108f565b905092915050565b600080828401905083811015611085576040517f08c379a000000000000000000000000000000000000000000000000000000000815260040180806020018281038252601b8152602001807f536166654d6174683a206164646974696f6e206f766572666c6f77000000000081525060200191505060405180910390fd5b8091505092915050565b600083831115829061113c576040517f08c379a00000000000000000000000000000000000000000000000000000000081526004018080602001828103825283818151815260200191508051906020019080838360005b838110156111015780820151818401526020810190506110e6565b50505050905090810190601f16801561112e5780820380516001836020036101000a031916815260200191505b509250505060405180910390fd5b506000838503905080915050939250505056fea265627a7a72315820cacc5b78cc7bab74c97733ad6d1dbf2e1a8e83f6e91ebe43dcc34ac6bcd3b40d64736f6c634300050d0032",
  "source": "pragma solidity ^0.5.13;\n\nimport \"openzeppelin-solidity/contracts/math/SafeMath.sol\";\n\nimport \"../interfaces/ILockedGold.sol\";\n\n/**\n * @title A mock LockedGold for testing.\n */\ncontract MockLockedGold is ILockedGold {\n  using SafeMath for uint256;\n\n  struct Authorizations {\n    address validator;\n    address voter;\n  }\n\n  mapping(address => uint256) public accountTotalLockedGold;\n  mapping(address => uint256) public nonvotingAccountBalance;\n  mapping(address => address) public authorizedValidators;\n  mapping(address => address) public authorizedBy;\n  uint256 private totalLockedGold;\n  mapping(address => bool) public slashingWhitelist;\n\n  function incrementNonvotingAccountBalance(address account, uint256 value) external {\n    nonvotingAccountBalance[account] = nonvotingAccountBalance[account].add(value);\n  }\n\n  function decrementNonvotingAccountBalance(address account, uint256 value) public {\n    nonvotingAccountBalance[account] = nonvotingAccountBalance[account].sub(value);\n  }\n\n  function setAccountTotalLockedGold(address account, uint256 value) external {\n    accountTotalLockedGold[account] = value;\n  }\n\n  function getAccountTotalLockedGold(address account) external view returns (uint256) {\n    return accountTotalLockedGold[account];\n  }\n\n  function setTotalLockedGold(uint256 value) external {\n    totalLockedGold = value;\n  }\n  function getTotalLockedGold() external view returns (uint256) {\n    return totalLockedGold;\n  }\n\n  function lock() external payable {\n    accountTotalLockedGold[msg.sender] = accountTotalLockedGold[msg.sender].add(msg.value);\n  }\n\n  function unlock(uint256 value) external {\n    accountTotalLockedGold[msg.sender] = accountTotalLockedGold[msg.sender].sub(value);\n  }\n\n  function relock(uint256 index, uint256 value) external {\n    // TODO: add implementation if necessary to mock behaviour\n  }\n\n  function withdraw(uint256 index) external {\n    // TODO: add implementation if necessary to mock behaviour\n  }\n\n  function slash(\n    address account,\n    uint256 penalty,\n    address,\n    uint256,\n    address[] calldata,\n    address[] calldata,\n    uint256[] calldata\n  ) external {\n    accountTotalLockedGold[account] = accountTotalLockedGold[account].sub(penalty);\n  }\n  function addSlasher(address slasher) external {\n    slashingWhitelist[slasher] = true;\n  }\n  function removeSlasher(address slasher) external {\n    slashingWhitelist[slasher] = false;\n  }\n  function isSlasher(address slasher) external view returns (bool) {\n    return slashingWhitelist[slasher];\n  }\n\n  function getPendingWithdrawals(address)\n    external\n    view\n    returns (uint256[] memory, uint256[] memory)\n  {\n    uint256[] memory empty = new uint256[](0);\n    return (empty, empty);\n  }\n\n  function getTotalPendingWithdrawals(address) external view returns (uint256) {\n    return 0;\n  }\n}\n",
  "sourcePath": "/Users/hiroki.yasui/go/src/github.com/celo-org/celo-monorepo/packages/protocol/contracts/governance/test/MockLockedGold.sol",
  "compiler": {
    "name": "solc",
    "version": "0.5.13+commit.5b0b510c.Emscripten.clang"
  },
  "schemaVersion": "3.0.23",
  "updatedAt": "2022-05-06T03:53:12.977Z",
  "devdoc": {
    "methods": {},
    "title": "A mock LockedGold for testing."
  },
  "userdoc": {
    "methods": {}
  }
}