{
  "contractName": "MockRandom",
  "abi": [
    {
      "anonymous": false,
      "inputs": [
        {
          "indexed": true,
          "internalType": "address",
          "name": "previousOwner",
          "type": "address"
        },
        {
          "indexed": true,
          "internalType": "address",
          "name": "newOwner",
          "type": "address"
        }
      ],
      "name": "OwnershipTransferred",
      "type": "event"
    },
    {
      "anonymous": false,
      "inputs": [
        {
          "indexed": false,
          "internalType": "uint256",
          "name": "value",
          "type": "uint256"
        }
      ],
      "name": "RandomnessBlockRetentionWindowSet",
      "type": "event"
    },
    {
      "constant": true,
      "inputs": [
        {
          "internalType": "address",
          "name": "sender",
          "type": "address"
        },
        {
          "internalType": "bytes",
          "name": "blsKey",
          "type": "bytes"
        },
        {
          "internalType": "bytes",
          "name": "blsPop",
          "type": "bytes"
        }
      ],
      "name": "checkProofOfPossession",
      "outputs": [
        {
          "internalType": "bool",
          "name": "",
          "type": "bool"
        }
      ],
      "payable": false,
      "stateMutability": "view",
      "type": "function"
    },
    {
      "constant": true,
      "inputs": [
        {
          "internalType": "address",
          "name": "",
          "type": "address"
        }
      ],
      "name": "commitments",
      "outputs": [
        {
          "internalType": "bytes32",
          "name": "",
          "type": "bytes32"
        }
      ],
      "payable": false,
      "stateMutability": "view",
      "type": "function"
    },
    {
      "constant": true,
      "inputs": [
        {
          "internalType": "bytes32",
          "name": "randomness",
          "type": "bytes32"
        }
      ],
      "name": "computeCommitment",
      "outputs": [
        {
          "internalType": "bytes32",
          "name": "",
          "type": "bytes32"
        }
      ],
      "payable": false,
      "stateMutability": "pure",
      "type": "function"
    },
    {
      "constant": true,
      "inputs": [
        {
          "internalType": "uint256",
          "name": "aNumerator",
          "type": "uint256"
        },
        {
          "internalType": "uint256",
          "name": "aDenominator",
          "type": "uint256"
        },
        {
          "internalType": "uint256",
          "name": "bNumerator",
          "type": "uint256"
        },
        {
          "internalType": "uint256",
          "name": "bDenominator",
          "type": "uint256"
        },
        {
          "internalType": "uint256",
          "name": "exponent",
          "type": "uint256"
        },
        {
          "internalType": "uint256",
          "name": "_decimals",
          "type": "uint256"
        }
      ],
      "name": "fractionMulExp",
      "outputs": [
        {
          "internalType": "uint256",
          "name": "",
          "type": "uint256"
        },
        {
          "internalType": "uint256",
          "name": "",
          "type": "uint256"
        }
      ],
      "payable": false,
      "stateMutability": "view",
      "type": "function"
    },
    {
      "constant": true,
      "inputs": [
        {
          "internalType": "bytes",
          "name": "header",
          "type": "bytes"
        }
      ],
      "name": "getBlockNumberFromHeader",
      "outputs": [
        {
          "internalType": "uint256",
          "name": "",
          "type": "uint256"
        }
      ],
      "payable": false,
      "stateMutability": "view",
      "type": "function"
    },
    {
      "constant": true,
      "inputs": [],
      "name": "getEpochNumber",
      "outputs": [
        {
          "internalType": "uint256",
          "name": "",
          "type": "uint256"
        }
      ],
      "payable": false,
      "stateMutability": "view",
      "type": "function"
    },
    {
      "constant": true,
      "inputs": [
        {
          "internalType": "uint256",
          "name": "blockNumber",
          "type": "uint256"
        }
      ],
      "name": "getEpochNumberOfBlock",
      "outputs": [
        {
          "internalType": "uint256",
          "name": "",
          "type": "uint256"
        }
      ],
      "payable": false,
      "stateMutability": "view",
      "type": "function"
    },
    {
      "constant": true,
      "inputs": [],
      "name": "getEpochSize",
      "outputs": [
        {
          "internalType": "uint256",
          "name": "",
          "type": "uint256"
        }
      ],
      "payable": false,
      "stateMutability": "view",
      "type": "function"
    },
    {
      "constant": true,
      "inputs": [
        {
          "internalType": "uint256",
          "name": "blockNumber",
          "type": "uint256"
        }
      ],
      "name": "getParentSealBitmap",
      "outputs": [
        {
          "internalType": "bytes32",
          "name": "",
          "type": "bytes32"
        }
      ],
      "payable": false,
      "stateMutability": "view",
      "type": "function"
    },
    {
      "constant": true,
      "inputs": [
        {
          "internalType": "bytes",
          "name": "header",
          "type": "bytes"
        }
      ],
      "name": "getVerifiedSealBitmapFromHeader",
      "outputs": [
        {
          "internalType": "bytes32",
          "name": "",
          "type": "bytes32"
        }
      ],
      "payable": false,
      "stateMutability": "view",
      "type": "function"
    },
    {
      "constant": true,
      "inputs": [],
      "name": "getVersionNumber",
      "outputs": [
        {
          "internalType": "uint256",
          "name": "",
          "type": "uint256"
        },
        {
          "internalType": "uint256",
          "name": "",
          "type": "uint256"
        },
        {
          "internalType": "uint256",
          "name": "",
          "type": "uint256"
        },
        {
          "internalType": "uint256",
          "name": "",
          "type": "uint256"
        }
      ],
      "payable": false,
      "stateMutability": "pure",
      "type": "function"
    },
    {
      "constant": true,
      "inputs": [
        {
          "internalType": "bytes",
          "name": "header",
          "type": "bytes"
        }
      ],
      "name": "hashHeader",
      "outputs": [
        {
          "internalType": "bytes32",
          "name": "",
          "type": "bytes32"
        }
      ],
      "payable": false,
      "stateMutability": "view",
      "type": "function"
    },
    {
      "constant": false,
      "inputs": [
        {
          "internalType": "uint256",
          "name": "_randomnessBlockRetentionWindow",
          "type": "uint256"
        }
      ],
      "name": "initialize",
      "outputs": [],
      "payable": false,
      "stateMutability": "nonpayable",
      "type": "function"
    },
    {
      "constant": true,
      "inputs": [],
      "name": "initialized",
      "outputs": [
        {
          "internalType": "bool",
          "name": "",
          "type": "bool"
        }
      ],
      "payable": false,
      "stateMutability": "view",
      "type": "function"
    },
    {
      "constant": true,
      "inputs": [],
      "name": "isOwner",
      "outputs": [
        {
          "internalType": "bool",
          "name": "",
          "type": "bool"
        }
      ],
      "payable": false,
      "stateMutability": "view",
      "type": "function"
    },
    {
      "constant": true,
      "inputs": [
        {
          "internalType": "uint256",
          "name": "blockNumber",
          "type": "uint256"
        }
      ],
      "name": "minQuorumSize",
      "outputs": [
        {
          "internalType": "uint256",
          "name": "",
          "type": "uint256"
        }
      ],
      "payable": false,
      "stateMutability": "view",
      "type": "function"
    },
    {
      "constant": true,
      "inputs": [],
      "name": "minQuorumSizeInCurrentSet",
      "outputs": [
        {
          "internalType": "uint256",
          "name": "",
          "type": "uint256"
        }
      ],
      "payable": false,
      "stateMutability": "view",
      "type": "function"
    },
    {
      "constant": true,
      "inputs": [],
      "name": "numberValidatorsInCurrentSet",
      "outputs": [
        {
          "internalType": "uint256",
          "name": "",
          "type": "uint256"
        }
      ],
      "payable": false,
      "stateMutability": "view",
      "type": "function"
    },
    {
      "constant": true,
      "inputs": [
        {
          "internalType": "uint256",
          "name": "blockNumber",
          "type": "uint256"
        }
      ],
      "name": "numberValidatorsInSet",
      "outputs": [
        {
          "internalType": "uint256",
          "name": "",
          "type": "uint256"
        }
      ],
      "payable": false,
      "stateMutability": "view",
      "type": "function"
    },
    {
      "constant": true,
      "inputs": [],
      "name": "owner",
      "outputs": [
        {
          "internalType": "address",
          "name": "",
          "type": "address"
        }
      ],
      "payable": false,
      "stateMutability": "view",
      "type": "function"
    },
    {
      "constant": true,
      "inputs": [],
      "name": "random",
      "outputs": [
        {
          "internalType": "bytes32",
          "name": "",
          "type": "bytes32"
        }
      ],
      "payable": false,
      "stateMutability": "view",
      "type": "function"
    },
    {
      "constant": true,
      "inputs": [],
      "name": "randomnessBlockRetentionWindow",
      "outputs": [
        {
          "internalType": "uint256",
          "name": "",
          "type": "uint256"
        }
      ],
      "payable": false,
      "stateMutability": "view",
      "type": "function"
    },
    {
      "constant": false,
      "inputs": [],
      "name": "renounceOwnership",
      "outputs": [],
      "payable": false,
      "stateMutability": "nonpayable",
      "type": "function"
    },
    {
      "constant": false,
      "inputs": [
        {
          "internalType": "bytes32",
          "name": "randomness",
          "type": "bytes32"
        },
        {
          "internalType": "bytes32",
          "name": "newCommitment",
          "type": "bytes32"
        },
        {
          "internalType": "address",
          "name": "proposer",
          "type": "address"
        }
      ],
      "name": "revealAndCommit",
      "outputs": [],
      "payable": false,
      "stateMutability": "nonpayable",
      "type": "function"
    },
    {
      "constant": false,
      "inputs": [
        {
          "internalType": "uint256",
          "name": "value",
          "type": "uint256"
        }
      ],
      "name": "setRandomnessBlockRetentionWindow",
      "outputs": [],
      "payable": false,
      "stateMutability": "nonpayable",
      "type": "function"
    },
    {
      "constant": false,
      "inputs": [
        {
          "internalType": "address",
          "name": "newOwner",
          "type": "address"
        }
      ],
      "name": "transferOwnership",
      "outputs": [],
      "payable": false,
      "stateMutability": "nonpayable",
      "type": "function"
    },
    {
      "constant": true,
      "inputs": [
        {
          "internalType": "uint256",
          "name": "index",
          "type": "uint256"
        }
      ],
      "name": "validatorSignerAddressFromCurrentSet",
      "outputs": [
        {
          "internalType": "address",
          "name": "",
          "type": "address"
        }
      ],
      "payable": false,
      "stateMutability": "view",
      "type": "function"
    },
    {
      "constant": true,
      "inputs": [
        {
          "internalType": "uint256",
          "name": "index",
          "type": "uint256"
        },
        {
          "internalType": "uint256",
          "name": "blockNumber",
          "type": "uint256"
        }
      ],
      "name": "validatorSignerAddressFromSet",
      "outputs": [
        {
          "internalType": "address",
          "name": "",
          "type": "address"
        }
      ],
      "payable": false,
      "stateMutability": "view",
      "type": "function"
    },
    {
      "constant": false,
      "inputs": [
        {
          "internalType": "uint256",
          "name": "blockNumber",
          "type": "uint256"
        },
        {
          "internalType": "bytes32",
          "name": "randomness",
          "type": "bytes32"
        }
      ],
      "name": "addTestRandomness",
      "outputs": [],
      "payable": false,
      "stateMutability": "nonpayable",
      "type": "function"
    },
    {
      "constant": true,
      "inputs": [
        {
          "internalType": "uint256",
          "name": "blockNumber",
          "type": "uint256"
        }
      ],
      "name": "getBlockRandomness",
      "outputs": [
        {
          "internalType": "bytes32",
          "name": "",
          "type": "bytes32"
        }
      ],
      "payable": false,
      "stateMutability": "view",
      "type": "function"
    }
  ],
  "bytecode": "0x608060405260018060006100176100dd60201b60201c565b9050806000806101000a81548173ffffffffffffffffffffffffffffffffffffffff021916908373ffffffffffffffffffffffffffffffffffffffff1602179055508073ffffffffffffffffffffffffffffffffffffffff16600073ffffffffffffffffffffffffffffffffffffffff167f8be0079c531659141344cd1fd0a4f28419497f9722a3daafe3b4186f6b6457e060405160405180910390a350806100d6576001600060146101000a81548160ff0219169083151502179055505b50506100e5565b600033905090565b61311b80620000f56000396000f3fe608060405234801561001057600080fd5b50600436106101da5760003560e01c80638da5cb5b11610104578063e45def95116100a2578063f2fde38b11610071578063f2fde38b14610ad4578063fae8db0a14610b18578063fc48472614610b5a578063fe4b84df14610b9c576101da565b8063e45def95146109a1578063e50e652d146109bf578063e8fcf72314610a01578063ec68307214610a59576101da565b80639a7b3be7116100de5780639a7b3be7146108e15780639b2b592f146108ff578063c387742b14610941578063df4da46114610983576101da565b80638da5cb5b146108475780638f32d59b1461089157806392e5d98f146108b3576101da565b80635ec01e4d1161017c57806375832efc1161014b57806375832efc146106ca57806387ca71661461072257806387ee8a0f1461075a5780638a88362614610778576101da565b80635ec01e4d146105b557806367960e91146105d3578063715018a6146106a25780637385e5da146106ac576101da565b80633b1eb4bf116101b85780633b1eb4bf146103f95780634b2c2f441461043b57806354255be01461050a5780635d180adb1461053d576101da565b8063123633ea146101df578063158ef93e1461024d57806323f0ab651461026f575b600080fd5b61020b600480360360208110156101f557600080fd5b8101908080359060200190929190505050610bca565b604051808273ffffffffffffffffffffffffffffffffffffffff1673ffffffffffffffffffffffffffffffffffffffff16815260200191505060405180910390f35b610255610d1b565b604051808215151515815260200191505060405180910390f35b6103df6004803603606081101561028557600080fd5b81019080803573ffffffffffffffffffffffffffffffffffffffff169060200190929190803590602001906401000000008111156102c257600080fd5b8201836020820111156102d457600080fd5b803590602001918460018302840111640100000000831117156102f657600080fd5b91908080601f016020809104026020016040519081016040528093929190818152602001838380828437600081840152601f19601f8201169050808301925050505050505091929192908035906020019064010000000081111561035957600080fd5b82018360208201111561036b57600080fd5b8035906020019184600183028401116401000000008311171561038d57600080fd5b91908080601f016020809104026020016040519081016040528093929190818152602001838380828437600081840152601f19601f820116905080830192505050505050509192919290505050610d2e565b604051808215151515815260200191505060405180910390f35b6104256004803603602081101561040f57600080fd5b8101908080359060200190929190505050610ee7565b6040518082815260200191505060405180910390f35b6104f46004803603602081101561045157600080fd5b810190808035906020019064010000000081111561046e57600080fd5b82018360208201111561048057600080fd5b803590602001918460018302840111640100000000831117156104a257600080fd5b91908080601f016020809104026020016040519081016040528093929190818152602001838380828437600081840152601f19601f820116905080830192505050505050509192919290505050610f01565b6040518082815260200191505060405180910390f35b610512611095565b6040518085815260200184815260200183815260200182815260200194505050505060405180910390f35b6105736004803603604081101561055357600080fd5b8101908080359060200190929190803590602001909291905050506110bc565b604051808273ffffffffffffffffffffffffffffffffffffffff1673ffffffffffffffffffffffffffffffffffffffff16815260200191505060405180910390f35b6105bd61120e565b6040518082815260200191505060405180910390f35b61068c600480360360208110156105e957600080fd5b810190808035906020019064010000000081111561060657600080fd5b82018360208201111561061857600080fd5b8035906020019184600183028401116401000000008311171561063a57600080fd5b91908080601f016020809104026020016040519081016040528093929190818152602001838380828437600081840152601f19601f82011690508083019250505050505050919291929050505061121f565b6040518082815260200191505060405180910390f35b6106aa6113b3565b005b6106b46114ec565b6040518082815260200191505060405180910390f35b610720600480360360608110156106e057600080fd5b810190808035906020019092919080359060200190929190803573ffffffffffffffffffffffffffffffffffffffff1690602001909291905050506114fc565b005b6107586004803603604081101561073857600080fd5b8101908080359060200190929190803590602001909291905050506115ae565b005b6107626115ca565b6040518082815260200191505060405180910390f35b6108316004803603602081101561078e57600080fd5b81019080803590602001906401000000008111156107ab57600080fd5b8201836020820111156107bd57600080fd5b803590602001918460018302840111640100000000831117156107df57600080fd5b91908080601f016020809104026020016040519081016040528093929190818152602001838380828437600081840152601f19601f820116905080830192505050505050509192919290505050611711565b6040518082815260200191505060405180910390f35b61084f6118a5565b604051808273ffffffffffffffffffffffffffffffffffffffff1673ffffffffffffffffffffffffffffffffffffffff16815260200191505060405180910390f35b6108996118ce565b604051808215151515815260200191505060405180910390f35b6108df600480360360208110156108c957600080fd5b810190808035906020019092919050505061192c565b005b6108e9611a40565b6040518082815260200191505060405180910390f35b61092b6004803603602081101561091557600080fd5b8101908080359060200190929190505050611a50565b6040518082815260200191505060405180910390f35b61096d6004803603602081101561095757600080fd5b8101908080359060200190929190505050611b99565b6040518082815260200191505060405180910390f35b61098b611bc9565b6040518082815260200191505060405180910390f35b6109a9611d05565b6040518082815260200191505060405180910390f35b6109eb600480360360208110156109d557600080fd5b8101908080359060200190929190505050611d0b565b6040518082815260200191505060405180910390f35b610a4360048036036020811015610a1757600080fd5b81019080803573ffffffffffffffffffffffffffffffffffffffff169060200190929190505050611d56565b6040518082815260200191505060405180910390f35b610ab7600480360360c0811015610a6f57600080fd5b81019080803590602001909291908035906020019092919080359060200190929190803590602001909291908035906020019092919080359060200190929190505050611d6e565b604051808381526020018281526020019250505060405180910390f35b610b1660048036036020811015610aea57600080fd5b81019080803573ffffffffffffffffffffffffffffffffffffffff169060200190929190505050611f82565b005b610b4460048036036020811015610b2e57600080fd5b8101908080359060200190929190505050612008565b6040518082815260200191505060405180910390f35b610b8660048036036020811015610b7057600080fd5b8101908080359060200190929190505050612151565b6040518082815260200191505060405180910390f35b610bc860048036036020811015610bb257600080fd5b81019080803590602001909291905050506121fa565b005b60006060600060fa73ffffffffffffffffffffffffffffffffffffffff16844360405160200180838152602001828152602001925050506040516020818303038152906040526040518082805190602001908083835b60208310610c435780518252602082019150602081019050602083039250610c20565b6001836020036101000a038019825116818451168082178552505050505050905001915050600060405180830381855afa9150503d8060008114610ca3576040519150601f19603f3d011682016040523d82523d6000602084013e610ca8565b606091505b50809350819250505080610d07576040517f08c379a000000000000000000000000000000000000000000000000000000000815260040180806020018281038252603d815260200180612eba603d913960400191505060405180910390fd5b610d128260006122ad565b92505050919050565b600060149054906101000a900460ff1681565b60008060fb73ffffffffffffffffffffffffffffffffffffffff16858585604051602001808473ffffffffffffffffffffffffffffffffffffffff1673ffffffffffffffffffffffffffffffffffffffff1660601b815260140183805190602001908083835b60208310610db75780518252602082019150602081019050602083039250610d94565b6001836020036101000a03801982511681845116808217855250505050505090500182805190602001908083835b60208310610e085780518252602082019150602081019050602083039250610de5565b6001836020036101000a03801982511681845116808217855250505050505090500193505050506040516020818303038152906040526040518082805190602001908083835b60208310610e715780518252602082019150602081019050602083039250610e4e565b6001836020036101000a038019825116818451168082178552505050505050905001915050600060405180830381855afa9150503d8060008114610ed1576040519150601f19603f3d011682016040523d82523d6000602084013e610ed6565b606091505b505080915050809150509392505050565b6000610efa82610ef5611bc9565b6122c4565b9050919050565b60006060600060f473ffffffffffffffffffffffffffffffffffffffff16846040516020018082805190602001908083835b60208310610f565780518252602082019150602081019050602083039250610f33565b6001836020036101000a0380198251168184511680821785525050505050509050019150506040516020818303038152906040526040518082805190602001908083835b60208310610fbd5780518252602082019150602081019050602083039250610f9a565b6001836020036101000a038019825116818451168082178552505050505050905001915050600060405180830381855afa9150503d806000811461101d576040519150601f19603f3d011682016040523d82523d6000602084013e611022565b606091505b50809350819250505080611081576040517f08c379a0000000000000000000000000000000000000000000000000000000008152600401808060200182810382526038815260200180612e826038913960400191505060405180910390fd5b61108c82600061230c565b92505050919050565b60008060008060018060016000839350829250819150809050935093509350935090919293565b60006060600060fa73ffffffffffffffffffffffffffffffffffffffff16858560405160200180838152602001828152602001925050506040516020818303038152906040526040518082805190602001908083835b602083106111355780518252602082019150602081019050602083039250611112565b6001836020036101000a038019825116818451168082178552505050505050905001915050600060405180830381855afa9150503d8060008114611195576040519150601f19603f3d011682016040523d82523d6000602084013e61119a565b606091505b508093508192505050806111f9576040517f08c379a0000000000000000000000000000000000000000000000000000000008152600401808060200182810382526036815260200180612f2c6036913960400191505060405180910390fd5b6112048260006122ad565b9250505092915050565b600061121a43436123ad565b905090565b60006060600060f673ffffffffffffffffffffffffffffffffffffffff16846040516020018082805190602001908083835b602083106112745780518252602082019150602081019050602083039250611251565b6001836020036101000a0380198251168184511680821785525050505050509050019150506040516020818303038152906040526040518082805190602001908083835b602083106112db57805182526020820191506020810190506020830392506112b8565b6001836020036101000a038019825116818451168082178552505050505050905001915050600060405180830381855afa9150503d806000811461133b576040519150601f19603f3d011682016040523d82523d6000602084013e611340565b606091505b5080935081925050508061139f576040517f08c379a000000000000000000000000000000000000000000000000000000000815260040180806020018281038252602381526020018061308f6023913960400191505060405180910390fd5b6113aa82600061230c565b92505050919050565b6113bb6118ce565b61142d576040517f08c379a00000000000000000000000000000000000000000000000000000000081526004018080602001828103825260208152602001807f4f776e61626c653a2063616c6c6572206973206e6f7420746865206f776e657281525060200191505060405180910390fd5b600073ffffffffffffffffffffffffffffffffffffffff166000809054906101000a900473ffffffffffffffffffffffffffffffffffffffff1673ffffffffffffffffffffffffffffffffffffffff167f8be0079c531659141344cd1fd0a4f28419497f9722a3daafe3b4186f6b6457e060405160405180910390a360008060006101000a81548173ffffffffffffffffffffffffffffffffffffffff021916908373ffffffffffffffffffffffffffffffffffffffff160217905550565b60006114f743611d0b565b905090565b600073ffffffffffffffffffffffffffffffffffffffff163373ffffffffffffffffffffffffffffffffffffffff161461159e576040517f08c379a00000000000000000000000000000000000000000000000000000000081526004018080602001828103825260108152602001807f4f6e6c7920564d2063616e2063616c6c0000000000000000000000000000000081525060200191505060405180910390fd5b6115a98383836124c8565b505050565b8060076000848152602001908152602001600020819055505050565b60006060600060f973ffffffffffffffffffffffffffffffffffffffff1643604051602001808281526020019150506040516020818303038152906040526040518082805190602001908083835b6020831061163b5780518252602082019150602081019050602083039250611618565b6001836020036101000a038019825116818451168082178552505050505050905001915050600060405180830381855afa9150503d806000811461169b576040519150601f19603f3d011682016040523d82523d6000602084013e6116a0565b606091505b508093508192505050806116ff576040517f08c379a0000000000000000000000000000000000000000000000000000000008152600401808060200182810382526035815260200180612ef76035913960400191505060405180910390fd5b61170a8260006122ad565b9250505090565b60006060600060f773ffffffffffffffffffffffffffffffffffffffff16846040516020018082805190602001908083835b602083106117665780518252602082019150602081019050602083039250611743565b6001836020036101000a0380198251168184511680821785525050505050509050019150506040516020818303038152906040526040518082805190602001908083835b602083106117cd57805182526020820191506020810190506020830392506117aa565b6001836020036101000a038019825116818451168082178552505050505050905001915050600060405180830381855afa9150503d806000811461182d576040519150601f19603f3d011682016040523d82523d6000602084013e611832565b606091505b50809350819250505080611891576040517f08c379a000000000000000000000000000000000000000000000000000000000815260040180806020018281038252603181526020018061305e6031913960400191505060405180910390fd5b61189c8260006122ad565b92505050919050565b60008060009054906101000a900473ffffffffffffffffffffffffffffffffffffffff16905090565b60008060009054906101000a900473ffffffffffffffffffffffffffffffffffffffff1673ffffffffffffffffffffffffffffffffffffffff166119106127b0565b73ffffffffffffffffffffffffffffffffffffffff1614905090565b6119346118ce565b6119a6576040517f08c379a00000000000000000000000000000000000000000000000000000000081526004018080602001828103825260208152602001807f4f776e61626c653a2063616c6c6572206973206e6f7420746865206f776e657281525060200191505060405180910390fd5b600081116119ff576040517f08c379a000000000000000000000000000000000000000000000000000000000815260040180806020018281038252602c815260200180612e29602c913960400191505060405180910390fd5b806002819055507f337b24e614d34558109f3dee80fbcb3c5a4b08a6611bee45581772f64d1681e5816040518082815260200191505060405180910390a150565b6000611a4b43610ee7565b905090565b60006060600060f973ffffffffffffffffffffffffffffffffffffffff1684604051602001808281526020019150506040516020818303038152906040526040518082805190602001908083835b60208310611ac15780518252602082019150602081019050602083039250611a9e565b6001836020036101000a038019825116818451168082178552505050505050905001915050600060405180830381855afa9150503d8060008114611b21576040519150601f19603f3d011682016040523d82523d6000602084013e611b26565b606091505b50809350819250505080611b85576040517f08c379a000000000000000000000000000000000000000000000000000000000815260040180806020018281038252602e815260200180612dd5602e913960400191505060405180910390fd5b611b908260006122ad565b92505050919050565b60008160405160200180828152602001915050604051602081830303815290604052805190602001209050919050565b60006060600060f873ffffffffffffffffffffffffffffffffffffffff166040516020016040516020818303038152906040526040518082805190602001908083835b60208310611c2f5780518252602082019150602081019050602083039250611c0c565b6001836020036101000a038019825116818451168082178552505050505050905001915050600060405180830381855afa9150503d8060008114611c8f576040519150601f19603f3d011682016040523d82523d6000602084013e611c94565b606091505b50809350819250505080611cf3576040517f08c379a0000000000000000000000000000000000000000000000000000000008152600401808060200182810382526025815260200180612fd26025913960400191505060405180910390fd5b611cfe8260006122ad565b9250505090565b60025481565b6000611d4f6003611d416002611d336002611d2588611a50565b6127b890919063ffffffff16565b61283e90919063ffffffff16565b6128c690919063ffffffff16565b9050919050565b60016020528060005260406000206000915090505481565b60008060008714158015611d83575060008514155b611df5576040517f08c379a00000000000000000000000000000000000000000000000000000000081526004018080602001828103825260158152602001807f612064656e6f6d696e61746f72206973207a65726f000000000000000000000081525060200191505060405180910390fd5b6000806000606060fc73ffffffffffffffffffffffffffffffffffffffff168c8c8c8c8c8c6040516020018087815260200186815260200185815260200184815260200183815260200182815260200196505050505050506040516020818303038152906040526040518082805190602001908083835b60208310611e8f5780518252602082019150602081019050602083039250611e6c565b6001836020036101000a038019825116818451168082178552505050505050905001915050600060405180830381855afa9150503d8060008114611eef576040519150601f19603f3d011682016040523d82523d6000602084013e611ef4565b606091505b50809250819350505081611f53576040517f08c379a0000000000000000000000000000000000000000000000000000000008152600401808060200182810382526027815260200180612fab6027913960400191505060405180910390fd5b611f5e8160006122ad565b9350611f6b8160206122ad565b925083839550955050505050965096945050505050565b611f8a6118ce565b611ffc576040517f08c379a00000000000000000000000000000000000000000000000000000000081526004018080602001828103825260208152602001807f4f776e61626c653a2063616c6c6572206973206e6f7420746865206f776e657281525060200191505060405180910390fd5b61200581612910565b50565b60006060600060f573ffffffffffffffffffffffffffffffffffffffff1684604051602001808281526020019150506040516020818303038152906040526040518082805190602001908083835b602083106120795780518252602082019150602081019050602083039250612056565b6001836020036101000a038019825116818451168082178552505050505050905001915050600060405180830381855afa9150503d80600081146120d9576040519150601f19603f3d011682016040523d82523d6000602084013e6120de565b606091505b5080935081925050508061213d576040517f08c379a000000000000000000000000000000000000000000000000000000000815260040180806020018281038252602c815260200180613032602c913960400191505060405180910390fd5b61214882600061230c565b92505050919050565b60008060001b600760008481526020019081526020016000205414156121df576040517f08c379a00000000000000000000000000000000000000000000000000000000081526004018080602001828103825260138152602001807f4e6f2072616e646f6d6e65737320666f756e640000000000000000000000000081525060200191505060405180910390fd5b60076000838152602001908152602001600020549050919050565b600060149054906101000a900460ff161561227d576040517f08c379a000000000000000000000000000000000000000000000000000000000815260040180806020018281038252601c8152602001807f636f6e747261637420616c726561647920696e697469616c697a65640000000081525060200191505060405180910390fd5b6001600060146101000a81548160ff0219169083151502179055506122a133612910565b6122aa8161192c565b50565b60006122b9838361230c565b60001c905092915050565b6000808284816122d057fe5b04905060008385816122de57fe5b0614156122ee5780915050612306565b61230260018261283e90919063ffffffff16565b9150505b92915050565b600061232260208361283e90919063ffffffff16565b83511015612398576040517f08c379a00000000000000000000000000000000000000000000000000000000081526004018080602001828103825260148152602001807f736c6963696e67206f7574206f662072616e676500000000000000000000000081525060200191505060405180910390fd5b60006020830184015190508091505092915050565b600081831115612408576040517f08c379a0000000000000000000000000000000000000000000000000000000008152600401808060200182810382526028815260200180612f836028913960400191505060405180910390fd5b600654831480612457575061242860055483612a5490919063ffffffff16565b83118015612456575081600254101580612455575061245260025483612a5490919063ffffffff16565b83115b5b5b6124ac576040517f08c379a00000000000000000000000000000000000000000000000000000000081526004018080602001828103825260358152602001806130b26035913960400191505060405180910390fd5b6003600084815260200190815260200160002054905092915050565b6124d46000801b611b99565b821415612549576040517f08c379a000000000000000000000000000000000000000000000000000000000815260040180806020018281038252601d8152602001807f63616e6e6f7420636f6d6d6974207a65726f2072616e646f6d6e65737300000081525060200191505060405180910390fd5b6000801b600160008373ffffffffffffffffffffffffffffffffffffffff1673ffffffffffffffffffffffffffffffffffffffff1681526020019081526020016000205414612698576000801b8314156125ee576040517f08c379a000000000000000000000000000000000000000000000000000000000815260040180806020018281038252603b815260200180612ff7603b913960400191505060405180910390fd5b60006125f984611b99565b9050600160008373ffffffffffffffffffffffffffffffffffffffff1673ffffffffffffffffffffffffffffffffffffffff168152602001908152602001600020548114612692576040517f08c379a000000000000000000000000000000000000000000000000000000000815260040180806020018281038252602d815260200180612e55602d913960400191505060405180910390fd5b506126f4565b6000801b83146126f3576040517f08c379a000000000000000000000000000000000000000000000000000000000815260040180806020018281038252603c815260200180612d99603c913960400191505060405180910390fd5b5b600080431461271657612711600143612a5490919063ffffffff16565b612719565b60005b905061276643600360008481526020019081526020016000205486604051602001808381526020018281526020019250505060405160208183030381529060405280519060200120612a9e565b82600160008473ffffffffffffffffffffffffffffffffffffffff1673ffffffffffffffffffffffffffffffffffffffff1681526020019081526020016000208190555050505050565b600033905090565b6000808314156127cb5760009050612838565b60008284029050828482816127dc57fe5b0414612833576040517f08c379a0000000000000000000000000000000000000000000000000000000008152600401808060200182810382526021815260200180612f626021913960400191505060405180910390fd5b809150505b92915050565b6000808284019050838110156128bc576040517f08c379a000000000000000000000000000000000000000000000000000000000815260040180806020018281038252601b8152602001807f536166654d6174683a206164646974696f6e206f766572666c6f77000000000081525060200191505060405180910390fd5b8091505092915050565b600061290883836040518060400160405280601a81526020017f536166654d6174683a206469766973696f6e206279207a65726f000000000000815250612bee565b905092915050565b600073ffffffffffffffffffffffffffffffffffffffff168173ffffffffffffffffffffffffffffffffffffffff161415612996576040517f08c379a0000000000000000000000000000000000000000000000000000000008152600401808060200182810382526026815260200180612e036026913960400191505060405180910390fd5b8073ffffffffffffffffffffffffffffffffffffffff166000809054906101000a900473ffffffffffffffffffffffffffffffffffffffff1673ffffffffffffffffffffffffffffffffffffffff167f8be0079c531659141344cd1fd0a4f28419497f9722a3daafe3b4186f6b6457e060405160405180910390a3806000806101000a81548173ffffffffffffffffffffffffffffffffffffffff021916908373ffffffffffffffffffffffffffffffffffffffff16021790555050565b6000612a9683836040518060400160405280601e81526020017f536166654d6174683a207375627472616374696f6e206f766572666c6f770000815250612cb4565b905092915050565b8060036000848152602001908152602001600020819055506000612ac0611bc9565b8381612ac857fe5b061415612b01576004546006541015612af557600360006006548152602001908152602001600020600090555b81600681905550612bea565b60006005541415612b2057816004819055506001600581905550612be9565b6002546005541115612b9257612b37600454612d74565b612b55612b50600160045461283e90919063ffffffff16565b612d74565b612b6b600260045461283e90919063ffffffff16565b600481905550612b876001600554612a5490919063ffffffff16565b600581905550612be8565b6002546005541415612bca57612ba9600454612d74565b612bbf600160045461283e90919063ffffffff16565b600481905550612be7565b612be0600160055461283e90919063ffffffff16565b6005819055505b5b5b5b5050565b60008083118290612c9a576040517f08c379a00000000000000000000000000000000000000000000000000000000081526004018080602001828103825283818151815260200191508051906020019080838360005b83811015612c5f578082015181840152602081019050612c44565b50505050905090810190601f168015612c8c5780820380516001836020036101000a031916815260200191505b509250505060405180910390fd5b506000838581612ca657fe5b049050809150509392505050565b6000838311158290612d61576040517f08c379a00000000000000000000000000000000000000000000000000000000081526004018080602001828103825283818151815260200191508051906020019080838360005b83811015612d26578082015181840152602081019050612d0b565b50505050905090810190601f168015612d535780820380516001836020036101000a031916815260200191505b509250505060405180910390fd5b5060008385039050809150509392505050565b6006548114612d955760036000828152602001908152602001600020600090555b5056fe72616e646f6d6e6573732073686f756c64206265207a65726f206966207468657265206973206e6f2070726576696f757320636f6d6d69746d656e746572726f722063616c6c696e67206e756d62657256616c696461746f7273496e53657420707265636f6d70696c654f776e61626c653a206e6577206f776e657220697320746865207a65726f206164647265737372616e646f6d6e657373426c6f636b5265746574696f6e57696e646f772063616e6e6f74206265207a65726f636f6d6d69746d656e74206469646e2774206d617463682074686520706f737465642072616e646f6d6e6573736572726f722063616c6c696e672067657456657269666965645365616c4269746d617046726f6d48656164657220707265636f6d70696c656572726f722063616c6c696e672076616c696461746f725369676e65724164647265737346726f6d43757272656e7453657420707265636f6d70696c656572726f722063616c6c696e67206e756d62657256616c696461746f7273496e43757272656e7453657420707265636f6d70696c656572726f722063616c6c696e672076616c696461746f725369676e65724164647265737346726f6d53657420707265636f6d70696c65536166654d6174683a206d756c7469706c69636174696f6e206f766572666c6f7743616e6e6f742071756572792072616e646f6d6e657373206f662066757475726520626c6f636b736572726f722063616c6c696e67206672616374696f6e4d756c45787020707265636f6d70696c656572726f722063616c6c696e672067657445706f636853697a6520707265636f6d70696c6572616e646f6d6e6573732063616e6e6f74206265207a65726f20696620746865726520697320612070726576696f757320636f6d6d69746d656e746572726f722063616c6c696e6720676574506172656e745365616c4269746d617020707265636f6d70696c656572726f722063616c6c696e6720676574426c6f636b4e756d62657246726f6d48656164657220707265636f6d70696c656572726f722063616c6c696e67206861736848656164657220707265636f6d70696c6543616e6e6f742071756572792072616e646f6d6e657373206f6c646572207468616e207468652073746f72656420686973746f7279a265627a7a723158208bd19098624878360467dd710850ccdb94bc7ae673e48c4fc9869b47a3e0684264736f6c634300050d0032",
  "source": "pragma solidity ^0.5.13;\n\nimport \"../Random.sol\";\n\ncontract MockRandom is Random(true) {\n  mapping(uint256 => bytes32) private history;\n\n  function addTestRandomness(uint256 blockNumber, bytes32 randomness) external {\n    history[blockNumber] = randomness;\n  }\n  function getBlockRandomness(uint256 blockNumber) external view returns (bytes32) {\n    require(history[blockNumber] != 0x0, \"No randomness found\");\n    return history[blockNumber];\n  }\n}\n",
  "sourcePath": "/Users/hiroki.yasui/go/src/github.com/celo-org/celo-monorepo/packages/protocol/contracts/identity/test/MockRandom.sol",
  "compiler": {
    "name": "solc",
    "version": "0.5.13+commit.5b0b510c.Emscripten.clang"
  },
  "schemaVersion": "3.0.23",
  "updatedAt": "2022-05-06T03:53:13.043Z",
  "devdoc": {
    "methods": {
      "checkProofOfPossession(address,bytes,bytes)": {
        "params": {
          "blsKey": "The BLS public key that the validator is using for consensus, should pass proof  of possession. 48 bytes.",
          "blsPop": "The BLS public key proof-of-possession, which consists of a signature on the  account address. 96 bytes.",
          "sender": "The address signed by the BLS key to generate the proof of possession."
        },
        "return": "True upon success."
      },
      "computeCommitment(bytes32)": {
        "params": {
          "randomness": "The value for which the commitment hash is computed."
        },
        "return": "Commitment parameter."
      },
      "fractionMulExp(uint256,uint256,uint256,uint256,uint256,uint256)": {
        "params": {
          "_decimals": "precision",
          "aDenominator": "Denominator of first fraction",
          "aNumerator": "Numerator of first fraction",
          "bDenominator": "Denominator of exponentiated fraction",
          "bNumerator": "Numerator of exponentiated fraction",
          "exponent": "exponent to raise b to"
        },
        "return": "numerator/denominator of the computed quantity (not reduced)."
      },
      "getBlockNumberFromHeader(bytes)": {
        "params": {
          "header": "RLP encoded header"
        },
        "return": "Block number."
      },
      "getEpochNumber()": {
        "return": "Current epoch number."
      },
      "getEpochNumberOfBlock(uint256)": {
        "params": {
          "blockNumber": "Block number where epoch number is calculated."
        },
        "return": "Epoch number."
      },
      "getEpochSize()": {
        "return": "The current epoch size in blocks."
      },
      "getParentSealBitmap(uint256)": {
        "params": {
          "blockNumber": "Block number to retrieve. Must be within 4 epochs of the current number."
        },
        "return": "Bitmap parent seal with set bits at indices corresponding to signing validators."
      },
      "getVerifiedSealBitmapFromHeader(bytes)": {
        "params": {
          "header": "RLP encoded header"
        },
        "return": "Bitmap parent seal with set bits at indices correspoinding to signing validators."
      },
      "getVersionNumber()": {
        "return": "The storage, major, minor, and patch version of the contract."
      },
      "hashHeader(bytes)": {
        "params": {
          "header": "RLP encoded header"
        },
        "return": "Header hash."
      },
      "initialize(uint256)": {
        "params": {
          "_randomnessBlockRetentionWindow": "Number of old random blocks whose randomness values can be queried."
        }
      },
      "isOwner()": {
        "details": "Returns true if the caller is the current owner."
      },
      "minQuorumSize(uint256)": {
        "details": "Computed in celo-blockchain as int(math.Ceil(float64(2*valSet.Size()) / 3))"
      },
      "minQuorumSizeInCurrentSet()": {
        "return": "Byzantine quorum of validators."
      },
      "numberValidatorsInCurrentSet()": {
        "return": "Size of the current elected validator set."
      },
      "numberValidatorsInSet(uint256)": {
        "params": {
          "blockNumber": "Block number to retrieve the validator set from."
        },
        "return": "Size of the validator set."
      },
      "owner()": {
        "details": "Returns the address of the current owner."
      },
      "random()": {
        "return": "Returns the current randomness value."
      },
      "renounceOwnership()": {
        "details": "Leaves the contract without owner. It will not be possible to call `onlyOwner` functions anymore. Can only be called by the current owner.     * NOTE: Renouncing ownership will leave the contract without an owner, thereby removing any functionality that is only available to the owner."
      },
      "revealAndCommit(bytes32,bytes32,address)": {
        "details": "If the Random contract is pointed to by the Registry, the first transaction in a block should be a special transaction to address 0x0 with 64 bytes of data - the concatenated `randomness` and `newCommitment`. Before running regular transactions, this function should be called.",
        "params": {
          "newCommitment": "The hash of randomness that will be revealed in the future.",
          "proposer": "Address of the block proposer.",
          "randomness": "Bytes that will be added to the entropy pool."
        }
      },
      "setRandomnessBlockRetentionWindow(uint256)": {
        "params": {
          "value": "Number of old random blocks whose randomness values can be queried."
        }
      },
      "transferOwnership(address)": {
        "details": "Transfers ownership of the contract to a new account (`newOwner`). Can only be called by the current owner."
      },
      "validatorSignerAddressFromCurrentSet(uint256)": {
        "params": {
          "index": "Index of requested validator in the validator set."
        },
        "return": "Address of validator at the requested index."
      },
      "validatorSignerAddressFromSet(uint256,uint256)": {
        "params": {
          "blockNumber": "Block number to retrieve the validator set from.",
          "index": "Index of requested validator in the validator set."
        },
        "return": "Address of validator at the requested index."
      }
    }
  },
  "userdoc": {
    "methods": {
      "checkProofOfPossession(address,bytes,bytes)": {
        "notice": "Checks a BLS proof of possession."
      },
      "computeCommitment(bytes32)": {
        "notice": "Compute the commitment hash for a given randomness value."
      },
      "fractionMulExp(uint256,uint256,uint256,uint256,uint256,uint256)": {
        "notice": "calculate a * b^x for fractions a, b to `decimals` precision"
      },
      "getBlockNumberFromHeader(bytes)": {
        "notice": "Parses block number out of header."
      },
      "getEpochNumber()": {
        "notice": "Returns the epoch number at a block."
      },
      "getEpochNumberOfBlock(uint256)": {
        "notice": "Returns the epoch number at a block."
      },
      "getEpochSize()": {
        "notice": "Returns the current epoch size in blocks."
      },
      "getParentSealBitmap(uint256)": {
        "notice": "Gets the parent seal bitmap from the header at the given block number."
      },
      "getVerifiedSealBitmapFromHeader(bytes)": {
        "notice": "Verifies the BLS signature on the header and returns the seal bitmap. The validator set used for verification is retrieved based on the parent hash field of the header.  If the parent hash is not in the blockchain, verification fails."
      },
      "getVersionNumber()": {
        "notice": "Returns the storage, major, minor, and patch version of the contract."
      },
      "hashHeader(bytes)": {
        "notice": "Computes hash of header."
      },
      "initialize(uint256)": {
        "notice": "Used in place of the constructor to allow the contract to be upgradable via proxy."
      },
      "minQuorumSize(uint256)": {
        "notice": "Returns the minimum number of required signers for a given block number."
      },
      "minQuorumSizeInCurrentSet()": {
        "notice": "Computes byzantine quorum from current validator set size"
      },
      "numberValidatorsInCurrentSet()": {
        "notice": "Gets the size of the current elected validator set."
      },
      "numberValidatorsInSet(uint256)": {
        "notice": "Gets the size of the validator set that must sign the given block number."
      },
      "random()": {
        "notice": "Querying the current randomness value."
      },
      "revealAndCommit(bytes32,bytes32,address)": {
        "notice": "Implements step of the randomness protocol."
      },
      "setRandomnessBlockRetentionWindow(uint256)": {
        "notice": "Sets the number of old random blocks whose randomness values can be queried."
      },
      "validatorSignerAddressFromCurrentSet(uint256)": {
        "notice": "Gets a validator address from the current validator set."
      },
      "validatorSignerAddressFromSet(uint256,uint256)": {
        "notice": "Gets a validator address from the validator set at the given block number."
      }
    }
  }
}