{
  "contractName": "MockGovernance",
  "abi": [
    {
      "payable": true,
      "stateMutability": "payable",
      "type": "fallback"
    },
    {
      "constant": true,
      "inputs": [
        {
          "internalType": "address",
          "name": "",
          "type": "address"
        }
      ],
      "name": "isVoting",
      "outputs": [
        {
          "internalType": "bool",
          "name": "",
          "type": "bool"
        }
      ],
      "payable": false,
      "stateMutability": "view",
      "type": "function"
    },
    {
      "constant": false,
      "inputs": [
        {
          "internalType": "address",
          "name": "voter",
          "type": "address"
        }
      ],
      "name": "setVoting",
      "outputs": [],
      "payable": false,
      "stateMutability": "nonpayable",
      "type": "function"
    }
  ],
  "bytecode": "0x608060405234801561001057600080fd5b50610194806100206000396000f3fe6080604052600436106100295760003560e01c80635f8dd6491461002b578063c4d0795114610094575b005b34801561003757600080fd5b5061007a6004803603602081101561004e57600080fd5b81019080803573ffffffffffffffffffffffffffffffffffffffff1690602001909291905050506100e5565b604051808215151515815260200191505060405180910390f35b3480156100a057600080fd5b506100e3600480360360208110156100b757600080fd5b81019080803573ffffffffffffffffffffffffffffffffffffffff169060200190929190505050610105565b005b60006020528060005260406000206000915054906101000a900460ff1681565b60016000808373ffffffffffffffffffffffffffffffffffffffff1673ffffffffffffffffffffffffffffffffffffffff16815260200190815260200160002060006101000a81548160ff0219169083151502179055505056fea265627a7a72315820a486f750f23aef9e70ae1af64e880637c9d444384140d06196fa38f0e23e239d64736f6c634300050d0032",
  "source": "pragma solidity ^0.5.13;\n\nimport \"../interfaces/IGovernance.sol\";\n\n/**\n * @title A mock Governance for testing.\n */\ncontract MockGovernance is IGovernance {\n  mapping(address => bool) public isVoting;\n\n  function() external payable {} // solhint-disable no-empty-blocks\n\n  function setVoting(address voter) external {\n    isVoting[voter] = true;\n  }\n}\n",
  "sourcePath": "/Users/hiroki.yasui/go/src/github.com/celo-org/celo-monorepo/packages/protocol/contracts/governance/test/MockGovernance.sol",
  "compiler": {
    "name": "solc",
    "version": "0.5.13+commit.5b0b510c.Emscripten.clang"
  },
  "schemaVersion": "3.0.23",
  "updatedAt": "2022-05-06T03:53:12.976Z",
  "devdoc": {
    "methods": {},
    "title": "A mock Governance for testing."
  },
  "userdoc": {
    "methods": {}
  }
}