{
  "contractName": "MockAttestations",
  "abi": [
    {
      "constant": false,
      "inputs": [
        {
          "internalType": "bytes32",
          "name": "identifier",
          "type": "bytes32"
        },
        {
          "internalType": "uint8",
          "name": "",
          "type": "uint8"
        },
        {
          "internalType": "bytes32",
          "name": "",
          "type": "bytes32"
        },
        {
          "internalType": "bytes32",
          "name": "",
          "type": "bytes32"
        }
      ],
      "name": "complete",
      "outputs": [],
      "payable": false,
      "stateMutability": "nonpayable",
      "type": "function"
    },
    {
      "constant": false,
      "inputs": [
        {
          "internalType": "bytes32",
          "name": "identifier",
          "type": "bytes32"
        },
        {
          "internalType": "uint8",
          "name": "",
          "type": "uint8"
        },
        {
          "internalType": "bytes32",
          "name": "",
          "type": "bytes32"
        },
        {
          "internalType": "bytes32",
          "name": "",
          "type": "bytes32"
        }
      ],
      "name": "request",
      "outputs": [],
      "payable": false,
      "stateMutability": "nonpayable",
      "type": "function"
    },
    {
      "constant": true,
      "inputs": [],
      "name": "getMaxAttestations",
      "outputs": [
        {
          "internalType": "uint256",
          "name": "",
          "type": "uint256"
        }
      ],
      "payable": false,
      "stateMutability": "pure",
      "type": "function"
    },
    {
      "constant": true,
      "inputs": [
        {
          "internalType": "bytes32",
          "name": "identifier",
          "type": "bytes32"
        },
        {
          "internalType": "address",
          "name": "account",
          "type": "address"
        }
      ],
      "name": "getAttestationStats",
      "outputs": [
        {
          "internalType": "uint64",
          "name": "",
          "type": "uint64"
        },
        {
          "internalType": "uint64",
          "name": "",
          "type": "uint64"
        }
      ],
      "payable": false,
      "stateMutability": "view",
      "type": "function"
    },
    {
      "constant": true,
      "inputs": [
        {
          "internalType": "bytes32",
          "name": "identifier",
          "type": "bytes32"
        }
      ],
      "name": "lookupAccountsForIdentifier",
      "outputs": [
        {
          "internalType": "address[]",
          "name": "",
          "type": "address[]"
        }
      ],
      "payable": false,
      "stateMutability": "view",
      "type": "function"
    }
  ],
  "bytecode": "0x608060405234801561001057600080fd5b5061060f806100206000396000f3fe608060405234801561001057600080fd5b50600436106100575760003560e01c806303cc1aff1461005c578063257690db146100df578063596abea51461012e5780637796a684146101bf578063fb6a2e53146101dd575b600080fd5b6100886004803603602081101561007257600080fd5b810190808035906020019092919050505061022c565b6040518080602001828103825283818151815260200191508051906020019060200280838360005b838110156100cb5780820151818401526020810190506100b0565b505050509050019250505060405180910390f35b61012c600480360360808110156100f557600080fd5b8101908080359060200190929190803560ff16906020019092919080359060200190929190803590602001909291905050506102cf565b005b61017a6004803603604081101561014457600080fd5b8101908080359060200190929190803573ffffffffffffffffffffffffffffffffffffffff169060200190929190505050610363565b604051808367ffffffffffffffff1667ffffffffffffffff1681526020018267ffffffffffffffff1667ffffffffffffffff1681526020019250505060405180910390f35b6101c761044f565b6040518082815260200191505060405180910390f35b61022a600480360360808110156101f357600080fd5b8101908080359060200190929190803560ff1690602001909291908035906020019092919080359060200190929190505050610458565b005b60606000808381526020019081526020016000206000018054806020026020016040519081016040528092919081815260200182805480156102c357602002820191906000526020600020905b8160009054906101000a900473ffffffffffffffffffffffffffffffffffffffff1673ffffffffffffffffffffffffffffffffffffffff1681526020019060010190808311610279575b50505050509050919050565b60008085815260200190815260200160002060010160003373ffffffffffffffffffffffffffffffffffffffff1673ffffffffffffffffffffffffffffffffffffffff168152602001908152602001600020600001600481819054906101000a900463ffffffff168092919060010191906101000a81548163ffffffff021916908363ffffffff1602179055505050505050565b60008060008085815260200190815260200160002060010160008473ffffffffffffffffffffffffffffffffffffffff1673ffffffffffffffffffffffffffffffffffffffff16815260200190815260200160002060000160009054906101000a900463ffffffff1660008086815260200190815260200160002060010160008573ffffffffffffffffffffffffffffffffffffffff1673ffffffffffffffffffffffffffffffffffffffff16815260200190815260200160002060000160049054906101000a900463ffffffff168163ffffffff1691508063ffffffff169050915091509250929050565b60006014905090565b60008085815260200190815260200160002060010160003373ffffffffffffffffffffffffffffffffffffffff1673ffffffffffffffffffffffffffffffffffffffff168152602001908152602001600020600001600081819054906101000a900463ffffffff168092919060010191906101000a81548163ffffffff021916908363ffffffff16021790555050600160008086815260200190815260200160002060010160003373ffffffffffffffffffffffffffffffffffffffff1673ffffffffffffffffffffffffffffffffffffffff16815260200190815260200160002060000160009054906101000a900463ffffffff1663ffffffff1614156105d4576000808581526020019081526020016000206000013390806001815401808255809150509060018203906000526020600020016000909192909190916101000a81548173ffffffffffffffffffffffffffffffffffffffff021916908373ffffffffffffffffffffffffffffffffffffffff160217905550505b5050505056fea265627a7a72315820bb56da23a9eae7440c2771ecf67338310b4ac5af08cfb08b204418e292d2005a64736f6c634300050d0032",
  "source": "pragma solidity ^0.5.13;\n\nimport \"openzeppelin-solidity/contracts/math/SafeMath.sol\";\n\n/**\n * @title A mock Attestations for testing.\n */\ncontract MockAttestations {\n  enum AttestationStatus { None, Incomplete, Complete }\n\n  struct Attestation {\n    AttestationStatus status;\n    uint128 time;\n  }\n\n  struct Attestations {\n    uint32 completed;\n    uint32 requested;\n    address[] issuers;\n    mapping(address => Attestation) issuedAttestations;\n  }\n\n  struct IdentifierState {\n    address[] accounts;\n    mapping(address => Attestations) attestations;\n  }\n\n  mapping(bytes32 => IdentifierState) identifiers;\n\n  function complete(bytes32 identifier, uint8, bytes32, bytes32) external {\n    identifiers[identifier].attestations[msg.sender].completed++;\n\n    if (identifiers[identifier].attestations[msg.sender].completed == 1) {\n      identifiers[identifier].accounts.push(msg.sender);\n    }\n  }\n\n  function request(bytes32 identifier, uint8, bytes32, bytes32) external {\n    identifiers[identifier].attestations[msg.sender].requested++;\n  }\n\n  function getMaxAttestations() external pure returns (uint256) {\n    return 20;\n  }\n\n  function getAttestationStats(bytes32 identifier, address account)\n    external\n    view\n    returns (uint64, uint64)\n  {\n    return (\n      identifiers[identifier].attestations[account].completed,\n      identifiers[identifier].attestations[account].requested\n    );\n  }\n\n  function lookupAccountsForIdentifier(bytes32 identifier)\n    external\n    view\n    returns (address[] memory)\n  {\n    return identifiers[identifier].accounts;\n  }\n}\n",
  "sourcePath": "/Users/hiroki.yasui/go/src/github.com/celo-org/celo-monorepo/packages/protocol/contracts/identity/test/MockAttestations.sol",
  "compiler": {
    "name": "solc",
    "version": "0.5.13+commit.5b0b510c.Emscripten.clang"
  },
  "schemaVersion": "3.0.23",
  "updatedAt": "2022-05-06T03:53:13.038Z",
  "devdoc": {
    "methods": {},
    "title": "A mock Attestations for testing."
  },
  "userdoc": {
    "methods": {}
  }
}