{
  "contractName": "Reserve",
  "abi": [
    {
      "inputs": [
        {
          "internalType": "bool",
          "name": "test",
          "type": "bool"
        }
      ],
      "payable": false,
      "stateMutability": "nonpayable",
      "type": "constructor"
    },
    {
      "anonymous": false,
      "inputs": [
        {
          "indexed": false,
          "internalType": "bytes32[]",
          "name": "symbols",
          "type": "bytes32[]"
        },
        {
          "indexed": false,
          "internalType": "uint256[]",
          "name": "weights",
          "type": "uint256[]"
        }
      ],
      "name": "AssetAllocationSet",
      "type": "event"
    },
    {
      "anonymous": false,
      "inputs": [
        {
          "indexed": false,
          "internalType": "uint256",
          "name": "ratio",
          "type": "uint256"
        }
      ],
      "name": "DailySpendingRatioSet",
      "type": "event"
    },
    {
      "anonymous": false,
      "inputs": [
        {
          "indexed": true,
          "internalType": "address",
          "name": "exchangeSpender",
          "type": "address"
        }
      ],
      "name": "ExchangeSpenderAdded",
      "type": "event"
    },
    {
      "anonymous": false,
      "inputs": [
        {
          "indexed": true,
          "internalType": "address",
          "name": "exchangeSpender",
          "type": "address"
        }
      ],
      "name": "ExchangeSpenderRemoved",
      "type": "event"
    },
    {
      "anonymous": false,
      "inputs": [
        {
          "indexed": true,
          "internalType": "address",
          "name": "otherReserveAddress",
          "type": "address"
        }
      ],
      "name": "OtherReserveAddressAdded",
      "type": "event"
    },
    {
      "anonymous": false,
      "inputs": [
        {
          "indexed": true,
          "internalType": "address",
          "name": "otherReserveAddress",
          "type": "address"
        },
        {
          "indexed": false,
          "internalType": "uint256",
          "name": "index",
          "type": "uint256"
        }
      ],
      "name": "OtherReserveAddressRemoved",
      "type": "event"
    },
    {
      "anonymous": false,
      "inputs": [
        {
          "indexed": true,
          "internalType": "address",
          "name": "previousOwner",
          "type": "address"
        },
        {
          "indexed": true,
          "internalType": "address",
          "name": "newOwner",
          "type": "address"
        }
      ],
      "name": "OwnershipTransferred",
      "type": "event"
    },
    {
      "anonymous": false,
      "inputs": [
        {
          "indexed": true,
          "internalType": "address",
          "name": "registryAddress",
          "type": "address"
        }
      ],
      "name": "RegistrySet",
      "type": "event"
    },
    {
      "anonymous": false,
      "inputs": [
        {
          "indexed": true,
          "internalType": "address",
          "name": "spender",
          "type": "address"
        },
        {
          "indexed": true,
          "internalType": "address",
          "name": "to",
          "type": "address"
        },
        {
          "indexed": false,
          "internalType": "uint256",
          "name": "value",
          "type": "uint256"
        }
      ],
      "name": "ReserveGoldTransferred",
      "type": "event"
    },
    {
      "anonymous": false,
      "inputs": [
        {
          "indexed": true,
          "internalType": "address",
          "name": "spender",
          "type": "address"
        }
      ],
      "name": "SpenderAdded",
      "type": "event"
    },
    {
      "anonymous": false,
      "inputs": [
        {
          "indexed": true,
          "internalType": "address",
          "name": "spender",
          "type": "address"
        }
      ],
      "name": "SpenderRemoved",
      "type": "event"
    },
    {
      "anonymous": false,
      "inputs": [
        {
          "indexed": false,
          "internalType": "uint256",
          "name": "value",
          "type": "uint256"
        }
      ],
      "name": "TobinTaxReserveRatioSet",
      "type": "event"
    },
    {
      "anonymous": false,
      "inputs": [
        {
          "indexed": false,
          "internalType": "uint256",
          "name": "value",
          "type": "uint256"
        }
      ],
      "name": "TobinTaxSet",
      "type": "event"
    },
    {
      "anonymous": false,
      "inputs": [
        {
          "indexed": false,
          "internalType": "uint256",
          "name": "value",
          "type": "uint256"
        }
      ],
      "name": "TobinTaxStalenessThresholdSet",
      "type": "event"
    },
    {
      "anonymous": false,
      "inputs": [
        {
          "indexed": true,
          "internalType": "address",
          "name": "token",
          "type": "address"
        }
      ],
      "name": "TokenAdded",
      "type": "event"
    },
    {
      "anonymous": false,
      "inputs": [
        {
          "indexed": true,
          "internalType": "address",
          "name": "token",
          "type": "address"
        },
        {
          "indexed": false,
          "internalType": "uint256",
          "name": "index",
          "type": "uint256"
        }
      ],
      "name": "TokenRemoved",
      "type": "event"
    },
    {
      "payable": true,
      "stateMutability": "payable",
      "type": "fallback"
    },
    {
      "constant": true,
      "inputs": [
        {
          "internalType": "uint256",
          "name": "",
          "type": "uint256"
        }
      ],
      "name": "assetAllocationSymbols",
      "outputs": [
        {
          "internalType": "bytes32",
          "name": "",
          "type": "bytes32"
        }
      ],
      "payable": false,
      "stateMutability": "view",
      "type": "function"
    },
    {
      "constant": true,
      "inputs": [
        {
          "internalType": "bytes32",
          "name": "",
          "type": "bytes32"
        }
      ],
      "name": "assetAllocationWeights",
      "outputs": [
        {
          "internalType": "uint256",
          "name": "",
          "type": "uint256"
        }
      ],
      "payable": false,
      "stateMutability": "view",
      "type": "function"
    },
    {
      "constant": true,
      "inputs": [
        {
          "internalType": "uint256",
          "name": "",
          "type": "uint256"
        }
      ],
      "name": "exchangeSpenderAddresses",
      "outputs": [
        {
          "internalType": "address",
          "name": "",
          "type": "address"
        }
      ],
      "payable": false,
      "stateMutability": "view",
      "type": "function"
    },
    {
      "constant": true,
      "inputs": [],
      "name": "frozenReserveGoldDays",
      "outputs": [
        {
          "internalType": "uint256",
          "name": "",
          "type": "uint256"
        }
      ],
      "payable": false,
      "stateMutability": "view",
      "type": "function"
    },
    {
      "constant": true,
      "inputs": [],
      "name": "frozenReserveGoldStartBalance",
      "outputs": [
        {
          "internalType": "uint256",
          "name": "",
          "type": "uint256"
        }
      ],
      "payable": false,
      "stateMutability": "view",
      "type": "function"
    },
    {
      "constant": true,
      "inputs": [],
      "name": "frozenReserveGoldStartDay",
      "outputs": [
        {
          "internalType": "uint256",
          "name": "",
          "type": "uint256"
        }
      ],
      "payable": false,
      "stateMutability": "view",
      "type": "function"
    },
    {
      "constant": true,
      "inputs": [],
      "name": "initialized",
      "outputs": [
        {
          "internalType": "bool",
          "name": "",
          "type": "bool"
        }
      ],
      "payable": false,
      "stateMutability": "view",
      "type": "function"
    },
    {
      "constant": true,
      "inputs": [
        {
          "internalType": "address",
          "name": "",
          "type": "address"
        }
      ],
      "name": "isExchangeSpender",
      "outputs": [
        {
          "internalType": "bool",
          "name": "",
          "type": "bool"
        }
      ],
      "payable": false,
      "stateMutability": "view",
      "type": "function"
    },
    {
      "constant": true,
      "inputs": [
        {
          "internalType": "address",
          "name": "",
          "type": "address"
        }
      ],
      "name": "isOtherReserveAddress",
      "outputs": [
        {
          "internalType": "bool",
          "name": "",
          "type": "bool"
        }
      ],
      "payable": false,
      "stateMutability": "view",
      "type": "function"
    },
    {
      "constant": true,
      "inputs": [],
      "name": "isOwner",
      "outputs": [
        {
          "internalType": "bool",
          "name": "",
          "type": "bool"
        }
      ],
      "payable": false,
      "stateMutability": "view",
      "type": "function"
    },
    {
      "constant": true,
      "inputs": [
        {
          "internalType": "address",
          "name": "",
          "type": "address"
        }
      ],
      "name": "isSpender",
      "outputs": [
        {
          "internalType": "bool",
          "name": "",
          "type": "bool"
        }
      ],
      "payable": false,
      "stateMutability": "view",
      "type": "function"
    },
    {
      "constant": true,
      "inputs": [
        {
          "internalType": "address",
          "name": "",
          "type": "address"
        }
      ],
      "name": "isToken",
      "outputs": [
        {
          "internalType": "bool",
          "name": "",
          "type": "bool"
        }
      ],
      "payable": false,
      "stateMutability": "view",
      "type": "function"
    },
    {
      "constant": true,
      "inputs": [],
      "name": "lastSpendingDay",
      "outputs": [
        {
          "internalType": "uint256",
          "name": "",
          "type": "uint256"
        }
      ],
      "payable": false,
      "stateMutability": "view",
      "type": "function"
    },
    {
      "constant": true,
      "inputs": [
        {
          "internalType": "uint256",
          "name": "",
          "type": "uint256"
        }
      ],
      "name": "otherReserveAddresses",
      "outputs": [
        {
          "internalType": "address",
          "name": "",
          "type": "address"
        }
      ],
      "payable": false,
      "stateMutability": "view",
      "type": "function"
    },
    {
      "constant": true,
      "inputs": [],
      "name": "owner",
      "outputs": [
        {
          "internalType": "address",
          "name": "",
          "type": "address"
        }
      ],
      "payable": false,
      "stateMutability": "view",
      "type": "function"
    },
    {
      "constant": true,
      "inputs": [],
      "name": "registry",
      "outputs": [
        {
          "internalType": "contract IRegistry",
          "name": "",
          "type": "address"
        }
      ],
      "payable": false,
      "stateMutability": "view",
      "type": "function"
    },
    {
      "constant": false,
      "inputs": [],
      "name": "renounceOwnership",
      "outputs": [],
      "payable": false,
      "stateMutability": "nonpayable",
      "type": "function"
    },
    {
      "constant": false,
      "inputs": [
        {
          "internalType": "address",
          "name": "registryAddress",
          "type": "address"
        }
      ],
      "name": "setRegistry",
      "outputs": [],
      "payable": false,
      "stateMutability": "nonpayable",
      "type": "function"
    },
    {
      "constant": true,
      "inputs": [],
      "name": "spendingLimit",
      "outputs": [
        {
          "internalType": "uint256",
          "name": "",
          "type": "uint256"
        }
      ],
      "payable": false,
      "stateMutability": "view",
      "type": "function"
    },
    {
      "constant": true,
      "inputs": [],
      "name": "tobinTax",
      "outputs": [
        {
          "internalType": "uint256",
          "name": "",
          "type": "uint256"
        }
      ],
      "payable": false,
      "stateMutability": "view",
      "type": "function"
    },
    {
      "constant": true,
      "inputs": [],
      "name": "tobinTaxCache",
      "outputs": [
        {
          "internalType": "uint128",
          "name": "numerator",
          "type": "uint128"
        },
        {
          "internalType": "uint128",
          "name": "timestamp",
          "type": "uint128"
        }
      ],
      "payable": false,
      "stateMutability": "view",
      "type": "function"
    },
    {
      "constant": true,
      "inputs": [],
      "name": "tobinTaxReserveRatio",
      "outputs": [
        {
          "internalType": "uint256",
          "name": "",
          "type": "uint256"
        }
      ],
      "payable": false,
      "stateMutability": "view",
      "type": "function"
    },
    {
      "constant": true,
      "inputs": [],
      "name": "tobinTaxStalenessThreshold",
      "outputs": [
        {
          "internalType": "uint256",
          "name": "",
          "type": "uint256"
        }
      ],
      "payable": false,
      "stateMutability": "view",
      "type": "function"
    },
    {
      "constant": false,
      "inputs": [
        {
          "internalType": "address",
          "name": "newOwner",
          "type": "address"
        }
      ],
      "name": "transferOwnership",
      "outputs": [],
      "payable": false,
      "stateMutability": "nonpayable",
      "type": "function"
    },
    {
      "constant": true,
      "inputs": [],
      "name": "getVersionNumber",
      "outputs": [
        {
          "internalType": "uint256",
          "name": "",
          "type": "uint256"
        },
        {
          "internalType": "uint256",
          "name": "",
          "type": "uint256"
        },
        {
          "internalType": "uint256",
          "name": "",
          "type": "uint256"
        },
        {
          "internalType": "uint256",
          "name": "",
          "type": "uint256"
        }
      ],
      "payable": false,
      "stateMutability": "pure",
      "type": "function"
    },
    {
      "constant": false,
      "inputs": [
        {
          "internalType": "address",
          "name": "registryAddress",
          "type": "address"
        },
        {
          "internalType": "uint256",
          "name": "_tobinTaxStalenessThreshold",
          "type": "uint256"
        },
        {
          "internalType": "uint256",
          "name": "_spendingRatio",
          "type": "uint256"
        },
        {
          "internalType": "uint256",
          "name": "_frozenGold",
          "type": "uint256"
        },
        {
          "internalType": "uint256",
          "name": "_frozenDays",
          "type": "uint256"
        },
        {
          "internalType": "bytes32[]",
          "name": "_assetAllocationSymbols",
          "type": "bytes32[]"
        },
        {
          "internalType": "uint256[]",
          "name": "_assetAllocationWeights",
          "type": "uint256[]"
        },
        {
          "internalType": "uint256",
          "name": "_tobinTax",
          "type": "uint256"
        },
        {
          "internalType": "uint256",
          "name": "_tobinTaxReserveRatio",
          "type": "uint256"
        }
      ],
      "name": "initialize",
      "outputs": [],
      "payable": false,
      "stateMutability": "nonpayable",
      "type": "function"
    },
    {
      "constant": false,
      "inputs": [
        {
          "internalType": "uint256",
          "name": "value",
          "type": "uint256"
        }
      ],
      "name": "setTobinTaxStalenessThreshold",
      "outputs": [],
      "payable": false,
      "stateMutability": "nonpayable",
      "type": "function"
    },
    {
      "constant": false,
      "inputs": [
        {
          "internalType": "uint256",
          "name": "value",
          "type": "uint256"
        }
      ],
      "name": "setTobinTax",
      "outputs": [],
      "payable": false,
      "stateMutability": "nonpayable",
      "type": "function"
    },
    {
      "constant": false,
      "inputs": [
        {
          "internalType": "uint256",
          "name": "value",
          "type": "uint256"
        }
      ],
      "name": "setTobinTaxReserveRatio",
      "outputs": [],
      "payable": false,
      "stateMutability": "nonpayable",
      "type": "function"
    },
    {
      "constant": false,
      "inputs": [
        {
          "internalType": "uint256",
          "name": "ratio",
          "type": "uint256"
        }
      ],
      "name": "setDailySpendingRatio",
      "outputs": [],
      "payable": false,
      "stateMutability": "nonpayable",
      "type": "function"
    },
    {
      "constant": true,
      "inputs": [],
      "name": "getDailySpendingRatio",
      "outputs": [
        {
          "internalType": "uint256",
          "name": "",
          "type": "uint256"
        }
      ],
      "payable": false,
      "stateMutability": "view",
      "type": "function"
    },
    {
      "constant": false,
      "inputs": [
        {
          "internalType": "uint256",
          "name": "frozenGold",
          "type": "uint256"
        },
        {
          "internalType": "uint256",
          "name": "frozenDays",
          "type": "uint256"
        }
      ],
      "name": "setFrozenGold",
      "outputs": [],
      "payable": false,
      "stateMutability": "nonpayable",
      "type": "function"
    },
    {
      "constant": false,
      "inputs": [
        {
          "internalType": "bytes32[]",
          "name": "symbols",
          "type": "bytes32[]"
        },
        {
          "internalType": "uint256[]",
          "name": "weights",
          "type": "uint256[]"
        }
      ],
      "name": "setAssetAllocations",
      "outputs": [],
      "payable": false,
      "stateMutability": "nonpayable",
      "type": "function"
    },
    {
      "constant": false,
      "inputs": [
        {
          "internalType": "address",
          "name": "token",
          "type": "address"
        }
      ],
      "name": "addToken",
      "outputs": [
        {
          "internalType": "bool",
          "name": "",
          "type": "bool"
        }
      ],
      "payable": false,
      "stateMutability": "nonpayable",
      "type": "function"
    },
    {
      "constant": false,
      "inputs": [
        {
          "internalType": "address",
          "name": "token",
          "type": "address"
        },
        {
          "internalType": "uint256",
          "name": "index",
          "type": "uint256"
        }
      ],
      "name": "removeToken",
      "outputs": [
        {
          "internalType": "bool",
          "name": "",
          "type": "bool"
        }
      ],
      "payable": false,
      "stateMutability": "nonpayable",
      "type": "function"
    },
    {
      "constant": false,
      "inputs": [
        {
          "internalType": "address",
          "name": "reserveAddress",
          "type": "address"
        }
      ],
      "name": "addOtherReserveAddress",
      "outputs": [
        {
          "internalType": "bool",
          "name": "",
          "type": "bool"
        }
      ],
      "payable": false,
      "stateMutability": "nonpayable",
      "type": "function"
    },
    {
      "constant": false,
      "inputs": [
        {
          "internalType": "address",
          "name": "reserveAddress",
          "type": "address"
        },
        {
          "internalType": "uint256",
          "name": "index",
          "type": "uint256"
        }
      ],
      "name": "removeOtherReserveAddress",
      "outputs": [
        {
          "internalType": "bool",
          "name": "",
          "type": "bool"
        }
      ],
      "payable": false,
      "stateMutability": "nonpayable",
      "type": "function"
    },
    {
      "constant": false,
      "inputs": [
        {
          "internalType": "address",
          "name": "spender",
          "type": "address"
        }
      ],
      "name": "addSpender",
      "outputs": [],
      "payable": false,
      "stateMutability": "nonpayable",
      "type": "function"
    },
    {
      "constant": false,
      "inputs": [
        {
          "internalType": "address",
          "name": "spender",
          "type": "address"
        }
      ],
      "name": "removeSpender",
      "outputs": [],
      "payable": false,
      "stateMutability": "nonpayable",
      "type": "function"
    },
    {
      "constant": false,
      "inputs": [
        {
          "internalType": "address",
          "name": "spender",
          "type": "address"
        }
      ],
      "name": "addExchangeSpender",
      "outputs": [],
      "payable": false,
      "stateMutability": "nonpayable",
      "type": "function"
    },
    {
      "constant": false,
      "inputs": [
        {
          "internalType": "address",
          "name": "spender",
          "type": "address"
        },
        {
          "internalType": "uint256",
          "name": "index",
          "type": "uint256"
        }
      ],
      "name": "removeExchangeSpender",
      "outputs": [],
      "payable": false,
      "stateMutability": "nonpayable",
      "type": "function"
    },
    {
      "constant": true,
      "inputs": [],
      "name": "getExchangeSpenders",
      "outputs": [
        {
          "internalType": "address[]",
          "name": "",
          "type": "address[]"
        }
      ],
      "payable": false,
      "stateMutability": "view",
      "type": "function"
    },
    {
      "constant": false,
      "inputs": [
        {
          "internalType": "address payable",
          "name": "to",
          "type": "address"
        },
        {
          "internalType": "uint256",
          "name": "value",
          "type": "uint256"
        }
      ],
      "name": "transferGold",
      "outputs": [
        {
          "internalType": "bool",
          "name": "",
          "type": "bool"
        }
      ],
      "payable": false,
      "stateMutability": "nonpayable",
      "type": "function"
    },
    {
      "constant": false,
      "inputs": [
        {
          "internalType": "address payable",
          "name": "to",
          "type": "address"
        },
        {
          "internalType": "uint256",
          "name": "value",
          "type": "uint256"
        }
      ],
      "name": "transferExchangeGold",
      "outputs": [
        {
          "internalType": "bool",
          "name": "",
          "type": "bool"
        }
      ],
      "payable": false,
      "stateMutability": "nonpayable",
      "type": "function"
    },
    {
      "constant": false,
      "inputs": [],
      "name": "getOrComputeTobinTax",
      "outputs": [
        {
          "internalType": "uint256",
          "name": "",
          "type": "uint256"
        },
        {
          "internalType": "uint256",
          "name": "",
          "type": "uint256"
        }
      ],
      "payable": false,
      "stateMutability": "nonpayable",
      "type": "function"
    },
    {
      "constant": true,
      "inputs": [],
      "name": "getTokens",
      "outputs": [
        {
          "internalType": "address[]",
          "name": "",
          "type": "address[]"
        }
      ],
      "payable": false,
      "stateMutability": "view",
      "type": "function"
    },
    {
      "constant": true,
      "inputs": [],
      "name": "getOtherReserveAddresses",
      "outputs": [
        {
          "internalType": "address[]",
          "name": "",
          "type": "address[]"
        }
      ],
      "payable": false,
      "stateMutability": "view",
      "type": "function"
    },
    {
      "constant": true,
      "inputs": [],
      "name": "getAssetAllocationSymbols",
      "outputs": [
        {
          "internalType": "bytes32[]",
          "name": "",
          "type": "bytes32[]"
        }
      ],
      "payable": false,
      "stateMutability": "view",
      "type": "function"
    },
    {
      "constant": true,
      "inputs": [],
      "name": "getAssetAllocationWeights",
      "outputs": [
        {
          "internalType": "uint256[]",
          "name": "",
          "type": "uint256[]"
        }
      ],
      "payable": false,
      "stateMutability": "view",
      "type": "function"
    },
    {
      "constant": true,
      "inputs": [],
      "name": "getUnfrozenBalance",
      "outputs": [
        {
          "internalType": "uint256",
          "name": "",
          "type": "uint256"
        }
      ],
      "payable": false,
      "stateMutability": "view",
      "type": "function"
    },
    {
      "constant": true,
      "inputs": [],
      "name": "getReserveGoldBalance",
      "outputs": [
        {
          "internalType": "uint256",
          "name": "",
          "type": "uint256"
        }
      ],
      "payable": false,
      "stateMutability": "view",
      "type": "function"
    },
    {
      "constant": true,
      "inputs": [],
      "name": "getOtherReserveAddressesGoldBalance",
      "outputs": [
        {
          "internalType": "uint256",
          "name": "",
          "type": "uint256"
        }
      ],
      "payable": false,
      "stateMutability": "view",
      "type": "function"
    },
    {
      "constant": true,
      "inputs": [],
      "name": "getUnfrozenReserveGoldBalance",
      "outputs": [
        {
          "internalType": "uint256",
          "name": "",
          "type": "uint256"
        }
      ],
      "payable": false,
      "stateMutability": "view",
      "type": "function"
    },
    {
      "constant": true,
      "inputs": [],
      "name": "getFrozenReserveGoldBalance",
      "outputs": [
        {
          "internalType": "uint256",
          "name": "",
          "type": "uint256"
        }
      ],
      "payable": false,
      "stateMutability": "view",
      "type": "function"
    },
    {
      "constant": true,
      "inputs": [],
      "name": "getReserveRatio",
      "outputs": [
        {
          "internalType": "uint256",
          "name": "",
          "type": "uint256"
        }
      ],
      "payable": false,
      "stateMutability": "view",
      "type": "function"
    }
  ],
  "bytecode": "0x60806040523480156200001157600080fd5b5060405162005f0238038062005f02833981810160405260208110156200003757600080fd5b81019080805190602001909291905050508060006200005b6200012b60201b60201c565b9050806000806101000a81548173ffffffffffffffffffffffffffffffffffffffff021916908373ffffffffffffffffffffffffffffffffffffffff1602179055508073ffffffffffffffffffffffffffffffffffffffff16600073ffffffffffffffffffffffffffffffffffffffff167f8be0079c531659141344cd1fd0a4f28419497f9722a3daafe3b4186f6b6457e060405160405180910390a350806200011b576001600060146101000a81548160ff0219169083151502179055505b5060016002819055505062000133565b600033905090565b615dbf80620001436000396000f3fe6080604052600436106103505760003560e01c806381b861a6116101c6578063ad62ad10116100f7578063e6b76e9c11610095578063ec4f797b1161006f578063ec4f797b1461146e578063f0b7182b146114bd578063f2fde38b1461150e578063fa9ed95a1461155f57610350565b8063e6b76e9c1461139d578063e7e31e7a146113d8578063e83b373b1461142957610350565b8063d48bfca7116100d1578063d48bfca714611272578063e30f579d146112db578063e33a88e714611306578063e50a6c1e1461133157610350565b8063ad62ad1014611083578063b003dcf1146110be578063ca56d33b1461111957610350565b80638f32d59b11610164578063a1ab55b31161013e578063a1ab55b314610e53578063a3e1f00d14610e8e578063a91ee0dc14610fc6578063aa6ca8081461101757610350565b80638f32d59b14610d4f5780639a206ece14610d7e5780639c3e2f0f14610de757610350565b80638b7df8d4116101a05780638b7df8d414610c515780638ce5877c14610c7c5780638d9a5e6f14610ccd5780638da5cb5b14610cf857610350565b806381b861a614610b8f5780638438796a14610bba578063894098d614610c2657610350565b806339d7f76e116102a05780637090db4e1161023e57806376769a601161021857806376769a6014610a795780637897a78e14610aa45780637b10399914610acf5780637b52207514610b2657610350565b80637090db4e14610a0c578063715018a614610a37578063765c1fe914610a4e57610350565b806354255be01161027a57806354255be0146108b357806356b6d0d5146108f35780635a18b08b1461091e5780635c4a31451461099957610350565b806339d7f76e146107a457806340899365146107cf5780634cea8ded1461084a57610350565b8063158ef93e1161030d5780631c39c7d5116102e75780631c39c7d514610623578063220159681461069657806322796e83146106ff5780632aa1c16d1461077957610350565b8063158ef93e1461055957806317f9a6f71461058857806319f37361146105ba57610350565b806301da32bd1461035257806303a0fea31461038d57806303d835f3146104005780630db279be1461042b5780631218f9821461047a57806313baf1e6146104e6575b005b34801561035e57600080fd5b5061038b6004803603602081101561037557600080fd5b810190808035906020019092919050505061158a565b005b34801561039957600080fd5b506103e6600480360360408110156103b057600080fd5b81019080803573ffffffffffffffffffffffffffffffffffffffff169060200190929190803590602001909291905050506116db565b604051808215151515815260200191505060405180910390f35b34801561040c57600080fd5b506104156118d9565b6040518082815260200191505060405180910390f35b34801561043757600080fd5b506104646004803603602081101561044e57600080fd5b81019080803590602001909291905050506118df565b6040518082815260200191505060405180910390f35b34801561048657600080fd5b5061048f611900565b6040518080602001828103825283818151815260200191508051906020019060200280838360005b838110156104d25780820151818401526020810190506104b7565b505050509050019250505060405180910390f35b3480156104f257600080fd5b5061053f6004803603604081101561050957600080fd5b81019080803573ffffffffffffffffffffffffffffffffffffffff1690602001909291908035906020019092919050505061198e565b604051808215151515815260200191505060405180910390f35b34801561056557600080fd5b5061056e611d18565b604051808215151515815260200191505060405180910390f35b34801561059457600080fd5b5061059d611d2b565b604051808381526020018281526020019250505060405180910390f35b3480156105c657600080fd5b50610609600480360360208110156105dd57600080fd5b81019080803573ffffffffffffffffffffffffffffffffffffffff169060200190929190505050611ee1565b604051808215151515815260200191505060405180910390f35b34801561062f57600080fd5b5061067c6004803603604081101561064657600080fd5b81019080803573ffffffffffffffffffffffffffffffffffffffff16906020019092919080359060200190929190505050611f01565b604051808215151515815260200191505060405180910390f35b3480156106a257600080fd5b506106e5600480360360208110156106b957600080fd5b81019080803573ffffffffffffffffffffffffffffffffffffffff16906020019092919050505061215c565b604051808215151515815260200191505060405180910390f35b34801561070b57600080fd5b50610714612432565b60405180836fffffffffffffffffffffffffffffffff166fffffffffffffffffffffffffffffffff168152602001826fffffffffffffffffffffffffffffffff166fffffffffffffffffffffffffffffffff1681526020019250505060405180910390f35b34801561078557600080fd5b5061078e61247c565b6040518082815260200191505060405180910390f35b3480156107b057600080fd5b506107b9612500565b6040518082815260200191505060405180910390f35b3480156107db57600080fd5b50610808600480360360208110156107f257600080fd5b8101908080359060200190929190505050612506565b604051808273ffffffffffffffffffffffffffffffffffffffff1673ffffffffffffffffffffffffffffffffffffffff16815260200191505060405180910390f35b34801561085657600080fd5b506108996004803603602081101561086d57600080fd5b81019080803573ffffffffffffffffffffffffffffffffffffffff169060200190929190505050612542565b604051808215151515815260200191505060405180910390f35b3480156108bf57600080fd5b506108c8612562565b6040518085815260200184815260200183815260200182815260200194505050505060405180910390f35b3480156108ff57600080fd5b50610908612588565b6040518082815260200191505060405180910390f35b34801561092a57600080fd5b506109576004803603602081101561094157600080fd5b8101908080359060200190929190505050612954565b604051808273ffffffffffffffffffffffffffffffffffffffff1673ffffffffffffffffffffffffffffffffffffffff16815260200191505060405180910390f35b3480156109a557600080fd5b506109f2600480360360408110156109bc57600080fd5b81019080803573ffffffffffffffffffffffffffffffffffffffff16906020019092919080359060200190929190505050612990565b604051808215151515815260200191505060405180910390f35b348015610a1857600080fd5b50610a21612d18565b6040518082815260200191505060405180910390f35b348015610a4357600080fd5b50610a4c612d1e565b005b348015610a5a57600080fd5b50610a63612e57565b6040518082815260200191505060405180910390f35b348015610a8557600080fd5b50610a8e612ef7565b6040518082815260200191505060405180910390f35b348015610ab057600080fd5b50610ab9612efd565b6040518082815260200191505060405180910390f35b348015610adb57600080fd5b50610ae4612f23565b604051808273ffffffffffffffffffffffffffffffffffffffff1673ffffffffffffffffffffffffffffffffffffffff16815260200191505060405180910390f35b348015610b3257600080fd5b50610b7560048036036020811015610b4957600080fd5b81019080803573ffffffffffffffffffffffffffffffffffffffff169060200190929190505050612f49565b604051808215151515815260200191505060405180910390f35b348015610b9b57600080fd5b50610ba4612f69565b6040518082815260200191505060405180910390f35b348015610bc657600080fd5b50610bcf612f6f565b6040518080602001828103825283818151815260200191508051906020019060200280838360005b83811015610c12578082015181840152602081019050610bf7565b505050509050019250505060405180910390f35b348015610c3257600080fd5b50610c3b612fc7565b6040518082815260200191505060405180910390f35b348015610c5d57600080fd5b50610c66612fcd565b6040518082815260200191505060405180910390f35b348015610c8857600080fd5b50610ccb60048036036020811015610c9f57600080fd5b81019080803573ffffffffffffffffffffffffffffffffffffffff169060200190929190505050612ff5565b005b348015610cd957600080fd5b50610ce261310d565b6040518082815260200191505060405180910390f35b348015610d0457600080fd5b50610d0d61312e565b604051808273ffffffffffffffffffffffffffffffffffffffff1673ffffffffffffffffffffffffffffffffffffffff16815260200191505060405180910390f35b348015610d5b57600080fd5b50610d64613157565b604051808215151515815260200191505060405180910390f35b348015610d8a57600080fd5b50610dcd60048036036020811015610da157600080fd5b81019080803573ffffffffffffffffffffffffffffffffffffffff1690602001909291905050506131b5565b604051808215151515815260200191505060405180910390f35b348015610df357600080fd5b50610dfc6131d5565b6040518080602001828103825283818151815260200191508051906020019060200280838360005b83811015610e3f578082015181840152602081019050610e24565b505050509050019250505060405180910390f35b348015610e5f57600080fd5b50610e8c60048036036020811015610e7657600080fd5b8101908080359060200190929190505050613263565b005b348015610e9a57600080fd5b50610fc46004803603610120811015610eb257600080fd5b81019080803573ffffffffffffffffffffffffffffffffffffffff1690602001909291908035906020019092919080359060200190929190803590602001909291908035906020019092919080359060200190640100000000811115610f1757600080fd5b820183602082011115610f2957600080fd5b80359060200191846020830284011164010000000083111715610f4b57600080fd5b909192939192939080359060200190640100000000811115610f6c57600080fd5b820183602082011115610f7e57600080fd5b80359060200191846020830284011164010000000083111715610fa057600080fd5b90919293919293908035906020019092919080359060200190929190505050613394565b005b348015610fd257600080fd5b5061101560048036036020811015610fe957600080fd5b81019080803573ffffffffffffffffffffffffffffffffffffffff16906020019092919050505061350b565b005b34801561102357600080fd5b5061102c6136af565b6040518080602001828103825283818151815260200191508051906020019060200280838360005b8381101561106f578082015181840152602081019050611054565b505050509050019250505060405180910390f35b34801561108f57600080fd5b506110bc600480360360208110156110a657600080fd5b810190808035906020019092919050505061373d565b005b3480156110ca57600080fd5b50611117600480360360408110156110e157600080fd5b81019080803573ffffffffffffffffffffffffffffffffffffffff169060200190929190803590602001909291905050506137f8565b005b34801561112557600080fd5b506112706004803603604081101561113c57600080fd5b810190808035906020019064010000000081111561115957600080fd5b82018360208201111561116b57600080fd5b8035906020019184602083028401116401000000008311171561118d57600080fd5b919080806020026020016040519081016040528093929190818152602001838360200280828437600081840152601f19601f820116905080830192505050505050509192919290803590602001906401000000008111156111ed57600080fd5b8201836020820111156111ff57600080fd5b8035906020019184602083028401116401000000008311171561122157600080fd5b919080806020026020016040519081016040528093929190818152602001838360200280828437600081840152601f19601f820116905080830192505050505050509192919290505050613b7d565b005b34801561127e57600080fd5b506112c16004803603602081101561129557600080fd5b81019080803573ffffffffffffffffffffffffffffffffffffffff169060200190929190505050614035565b604051808215151515815260200191505060405180910390f35b3480156112e757600080fd5b506112f061430b565b6040518082815260200191505060405180910390f35b34801561131257600080fd5b5061131b614346565b6040518082815260200191505060405180910390f35b34801561133d57600080fd5b5061134661434c565b6040518080602001828103825283818151815260200191508051906020019060200280838360005b8381101561138957808201518184015260208101905061136e565b505050509050019250505060405180910390f35b3480156113a957600080fd5b506113d6600480360360208110156113c057600080fd5b81019080803590602001909291905050506143ff565b005b3480156113e457600080fd5b50611427600480360360208110156113fb57600080fd5b81019080803573ffffffffffffffffffffffffffffffffffffffff169060200190929190505050614531565b005b34801561143557600080fd5b5061146c6004803603604081101561144c57600080fd5b8101908080359060200190929190803590602001909291905050506146ec565b005b34801561147a57600080fd5b506114a76004803603602081101561149157600080fd5b8101908080359060200190929190505050614801565b6040518082815260200191505060405180910390f35b3480156114c957600080fd5b5061150c600480360360208110156114e057600080fd5b81019080803573ffffffffffffffffffffffffffffffffffffffff169060200190929190505050614819565b005b34801561151a57600080fd5b5061155d6004803603602081101561153157600080fd5b81019080803573ffffffffffffffffffffffffffffffffffffffff169060200190929190505050614add565b005b34801561156b57600080fd5b50611574614b63565b6040518082815260200191505060405180910390f35b611592613157565b611604576040517f08c379a00000000000000000000000000000000000000000000000000000000081526004018080602001828103825260208152602001807f4f776e61626c653a2063616c6c6572206973206e6f7420746865206f776e657281525060200191505060405180910390fd5b61160d81614b69565b60106000820151816000015590505061164c611627614b87565b6010604051806020016040529081600082015481525050614bad90919063ffffffff16565b6116a1576040517f08c379a0000000000000000000000000000000000000000000000000000000008152600401808060200182810382526026815260200180615ce56026913960400191505060405180910390fd5b7fb08f0607338ad77f5b08ccf831e533cefcc2d373c173e87a8f61144f1d82be1e816040518082815260200191505060405180910390a150565b600033601460008273ffffffffffffffffffffffffffffffffffffffff1673ffffffffffffffffffffffffffffffffffffffff16815260200190815260200160002060009054906101000a900460ff168061185457508073ffffffffffffffffffffffffffffffffffffffff16600160009054906101000a900473ffffffffffffffffffffffffffffffffffffffff1673ffffffffffffffffffffffffffffffffffffffff1663dcf0aaed60405160200180807f45786368616e67650000000000000000000000000000000000000000000000008152506008019050604051602081830303815290604052805190602001206040518263ffffffff1660e01b81526004018082815260200191505060206040518083038186803b15801561180157600080fd5b505afa158015611815573d6000803e3d6000fd5b505050506040513d602081101561182b57600080fd5b810190808051906020019092919050505073ffffffffffffffffffffffffffffffffffffffff16145b6118c6576040517f08c379a000000000000000000000000000000000000000000000000000000000815260040180806020018281038252601c8152602001807f41646472657373206e6f7420616c6c6f77656420746f207370656e640000000081525060200191505060405180910390fd5b6118d08484614bc3565b91505092915050565b60115481565b600c81815481106118ec57fe5b906000526020600020016000915090505481565b6060601580548060200260200160405190810160405280929190818152602001828054801561198457602002820191906000526020600020905b8160009054906101000a900473ffffffffffffffffffffffffffffffffffffffff1673ffffffffffffffffffffffffffffffffffffffff168152602001906001019080831161193a575b5050505050905090565b6000611998613157565b611a0a576040517f08c379a00000000000000000000000000000000000000000000000000000000081526004018080602001828103825260208152602001807f4f776e61626c653a2063616c6c6572206973206e6f7420746865206f776e657281525060200191505060405180910390fd5b82600360008273ffffffffffffffffffffffffffffffffffffffff1673ffffffffffffffffffffffffffffffffffffffff16815260200190815260200160002060009054906101000a900460ff16611aca576040517f08c379a000000000000000000000000000000000000000000000000000000000815260040180806020018281038252601f8152602001807f746f6b656e206164647220776173206e6576657220726567697374657265640081525060200191505060405180910390fd5b60048054905083108015611b4057508373ffffffffffffffffffffffffffffffffffffffff1660048481548110611afd57fe5b9060005260206000200160009054906101000a900473ffffffffffffffffffffffffffffffffffffffff1673ffffffffffffffffffffffffffffffffffffffff16145b611b95576040517f08c379a000000000000000000000000000000000000000000000000000000000815260040180806020018281038252602a815260200180615d0b602a913960400191505060405180910390fd5b6000600360008673ffffffffffffffffffffffffffffffffffffffff1673ffffffffffffffffffffffffffffffffffffffff16815260200190815260200160002060006101000a81548160ff02191690831515021790555060006004611c0a6001600480549050614cda90919063ffffffff16565b81548110611c1457fe5b9060005260206000200160009054906101000a900473ffffffffffffffffffffffffffffffffffffffff1690508060048581548110611c4f57fe5b9060005260206000200160006101000a81548173ffffffffffffffffffffffffffffffffffffffff021916908373ffffffffffffffffffffffffffffffffffffffff160217905550611cb06001600480549050614cda90919063ffffffff16565b600481611cbd9190615ac5565b508473ffffffffffffffffffffffffffffffffffffffff167fbe9bb4bdca0a094babd75e3a98b1d2e2390633430d0a2f6e2b9970e2ee03fb2e856040518082815260200191505060405180910390a260019250505092915050565b600060149054906101000a900460ff1681565b600080600160026000828254019250508190555060006002549050600654611d8f600560000160109054906101000a90046fffffffffffffffffffffffffffffffff166fffffffffffffffffffffffffffffffff1642614cda90919063ffffffff16565b1115611e1d57611da5611da0614d24565b614d8c565b600560000160006101000a8154816fffffffffffffffffffffffffffffffff02191690836fffffffffffffffffffffffffffffffff16021790555042600560000160106101000a8154816fffffffffffffffffffffffffffffffff02191690836fffffffffffffffffffffffffffffffff1602179055505b600560000160009054906101000a90046fffffffffffffffffffffffffffffffff166fffffffffffffffffffffffffffffffff16611e61611e5c614b87565b614d8c565b925092506002548114611edc576040517f08c379a000000000000000000000000000000000000000000000000000000000815260040180806020018281038252600e8152602001807f7265656e7472616e742063616c6c00000000000000000000000000000000000081525060200191505060405180910390fd5b509091565b60036020528060005260406000206000915054906101000a900460ff1681565b6000600960003373ffffffffffffffffffffffffffffffffffffffff1673ffffffffffffffffffffffffffffffffffffffff16815260200190815260200160002060009054906101000a900460ff16611fa5576040517f08c379a000000000000000000000000000000000000000000000000000000000815260040180806020018281038252602c815260200180615d5f602c913960400191505060405180910390fd5b600a60008473ffffffffffffffffffffffffffffffffffffffff1673ffffffffffffffffffffffffffffffffffffffff16815260200190815260200160002060009054906101000a900460ff16612047576040517f08c379a000000000000000000000000000000000000000000000000000000000815260040180806020018281038252602a815260200180615d35602a913960400191505060405180910390fd5b600062015180428161205557fe5b049050600e548111156120b657600061206c612fcd565b905081600e819055506120ae6120a961208483614d9a565b6010604051806020016040529081600082015481525050614e2490919063ffffffff16565b615283565b600f81905550505b82600f54101561212e576040517f08c379a00000000000000000000000000000000000000000000000000000000081526004018080602001828103825260188152602001807f457863656564696e67207370656e64696e67206c696d6974000000000000000081525060200191505060405180910390fd5b61214383600f54614cda90919063ffffffff16565b600f819055506121538484614bc3565b91505092915050565b6000612166613157565b6121d8576040517f08c379a00000000000000000000000000000000000000000000000000000000081526004018080602001828103825260208152602001807f4f776e61626c653a2063616c6c6572206973206e6f7420746865206f776e657281525060200191505060405180910390fd5b600160026000828254019250508190555060006002549050600a60008473ffffffffffffffffffffffffffffffffffffffff1673ffffffffffffffffffffffffffffffffffffffff16815260200190815260200160002060009054906101000a900460ff16156122b0576040517f08c379a000000000000000000000000000000000000000000000000000000000815260040180806020018281038252601a8152602001807f72657365727665206164647220616c726561647920616464656400000000000081525060200191505060405180910390fd5b6001600a60008573ffffffffffffffffffffffffffffffffffffffff1673ffffffffffffffffffffffffffffffffffffffff16815260200190815260200160002060006101000a81548160ff021916908315150217905550600b8390806001815401808255809150509060018203906000526020600020016000909192909190916101000a81548173ffffffffffffffffffffffffffffffffffffffff021916908373ffffffffffffffffffffffffffffffffffffffff160217905550508273ffffffffffffffffffffffffffffffffffffffff167fd78793225285ecf9cf5f0f84b1cdc335c2cb4d6810ff0b9fd156ad6026c89cea60405160405180910390a260019150600254811461242c576040517f08c379a000000000000000000000000000000000000000000000000000000000815260040180806020018281038252600e8152602001807f7265656e7472616e742063616c6c00000000000000000000000000000000000081525060200191505060405180910390fd5b50919050565b60058060000160009054906101000a90046fffffffffffffffffffffffffffffffff16908060000160109054906101000a90046fffffffffffffffffffffffffffffffff16905082565b60008062015180428161248b57fe5b04905060006124a560125483614cda90919063ffffffff16565b905060135481106124bb576000925050506124fd565b6124f86124e76013546124d9846011546152a490919063ffffffff16565b61532a90919063ffffffff16565b601154614cda90919063ffffffff16565b925050505b90565b600f5481565b600b818154811061251357fe5b906000526020600020016000915054906101000a900473ffffffffffffffffffffffffffffffffffffffff1681565b60146020528060005260406000206000915054906101000a900460ff1681565b600080600080600180600280839350829250819150809050935093509350935090919293565b600080600160009054906101000a900473ffffffffffffffffffffffffffffffffffffffff1673ffffffffffffffffffffffffffffffffffffffff1663dcf0aaed60405160200180807f536f727465644f7261636c657300000000000000000000000000000000000000815250600d019050604051602081830303815290604052805190602001206040518263ffffffff1660e01b81526004018082815260200191505060206040518083038186803b15801561264457600080fd5b505afa158015612658573d6000803e3d6000fd5b505050506040513d602081101561266e57600080fd5b8101908080519060200190929190505050905060008190506000612690612fcd565b9050600080905061269f615af1565b6126db600d60007f63474c4400000000000000000000000000000000000000000000000000000000815260200190815260200160002054614b69565b905060008090505b60048054905081101561290c576000808673ffffffffffffffffffffffffffffffffffffffff1663ef90e1b06004858154811061271c57fe5b9060005260206000200160009054906101000a900473ffffffffffffffffffffffffffffffffffffffff166040518263ffffffff1660e01b8152600401808273ffffffffffffffffffffffffffffffffffffffff1673ffffffffffffffffffffffffffffffffffffffff168152602001915050604080518083038186803b1580156127a657600080fd5b505afa1580156127ba573d6000803e3d6000fd5b505050506040513d60408110156127d057600080fd5b810190808051906020019092919080519060200190929190505050809250819350505060006004848154811061280257fe5b9060005260206000200160009054906101000a900473ffffffffffffffffffffffffffffffffffffffff1673ffffffffffffffffffffffffffffffffffffffff166318160ddd6040518163ffffffff1660e01b815260040160206040518083038186803b15801561287257600080fd5b505afa158015612886573d6000803e3d6000fd5b505050506040513d602081101561289c57600080fd5b8101908080519060200190929190505050905060006128d6846128c885856152a490919063ffffffff16565b61532a90919063ffffffff16565b90506128eb818861537490919063ffffffff16565b96505050505061290560018261537490919063ffffffff16565b90506126e3565b5061294a61294561291c84614d9a565b6129378461292988614d9a565b6153fc90919063ffffffff16565b6153fc90919063ffffffff16565b614d8c565b9550505050505090565b6015818154811061296157fe5b906000526020600020016000915054906101000a900473ffffffffffffffffffffffffffffffffffffffff1681565b600061299a613157565b612a0c576040517f08c379a00000000000000000000000000000000000000000000000000000000081526004018080602001828103825260208152602001807f4f776e61626c653a2063616c6c6572206973206e6f7420746865206f776e657281525060200191505060405180910390fd5b600a60008473ffffffffffffffffffffffffffffffffffffffff1673ffffffffffffffffffffffffffffffffffffffff16815260200190815260200160002060009054906101000a900460ff16612acb576040517f08c379a000000000000000000000000000000000000000000000000000000000815260040180806020018281038252601c8152602001807f72657365727665206164647220776173206e657665722061646465640000000081525060200191505060405180910390fd5b600b8054905082108015612b4157508273ffffffffffffffffffffffffffffffffffffffff16600b8381548110612afe57fe5b9060005260206000200160009054906101000a900473ffffffffffffffffffffffffffffffffffffffff1673ffffffffffffffffffffffffffffffffffffffff16145b612b96576040517f08c379a000000000000000000000000000000000000000000000000000000000815260040180806020018281038252602d815260200180615cb8602d913960400191505060405180910390fd5b6000600a60008573ffffffffffffffffffffffffffffffffffffffff1673ffffffffffffffffffffffffffffffffffffffff16815260200190815260200160002060006101000a81548160ff0219169083151502179055506000600b612c0b6001600b80549050614cda90919063ffffffff16565b81548110612c1557fe5b9060005260206000200160009054906101000a900473ffffffffffffffffffffffffffffffffffffffff16905080600b8481548110612c5057fe5b9060005260206000200160006101000a81548173ffffffffffffffffffffffffffffffffffffffff021916908373ffffffffffffffffffffffffffffffffffffffff160217905550612cb16001600b80549050614cda90919063ffffffff16565b600b81612cbe9190615ac5565b508373ffffffffffffffffffffffffffffffffffffffff167f89b4ee5cecfdfb246ede373c10283b5038afe56a531fc1d2f3ed8c5507a52fcb846040518082815260200191505060405180910390a2600191505092915050565b60135481565b612d26613157565b612d98576040517f08c379a00000000000000000000000000000000000000000000000000000000081526004018080602001828103825260208152602001807f4f776e61626c653a2063616c6c6572206973206e6f7420746865206f776e657281525060200191505060405180910390fd5b600073ffffffffffffffffffffffffffffffffffffffff166000809054906101000a900473ffffffffffffffffffffffffffffffffffffffff1673ffffffffffffffffffffffffffffffffffffffff167f8be0079c531659141344cd1fd0a4f28419497f9722a3daafe3b4186f6b6457e060405160405180910390a360008060006101000a81548173ffffffffffffffffffffffffffffffffffffffff021916908373ffffffffffffffffffffffffffffffffffffffff160217905550565b6000806000905060008090505b600b80549050811015612eef57612ed2600b8281548110612e8157fe5b9060005260206000200160009054906101000a900473ffffffffffffffffffffffffffffffffffffffff1673ffffffffffffffffffffffffffffffffffffffff16318361537490919063ffffffff16565b9150612ee860018261537490919063ffffffff16565b9050612e64565b508091505090565b60085481565b6000612f1e6010604051806020016040529081600082015481525050614d8c565b905090565b600160009054906101000a900473ffffffffffffffffffffffffffffffffffffffff1681565b600a6020528060005260406000206000915054906101000a900460ff1681565b60125481565b6060600c805480602002602001604051908101604052809291908181526020018280548015612fbd57602002820191906000526020600020905b815481526020019060010190808311612fa9575b5050505050905090565b60075481565b6000612ff0612fda612e57565b612fe261430b565b61537490919063ffffffff16565b905090565b612ffd613157565b61306f576040517f08c379a00000000000000000000000000000000000000000000000000000000081526004018080602001828103825260208152602001807f4f776e61626c653a2063616c6c6572206973206e6f7420746865206f776e657281525060200191505060405180910390fd5b6000600960008373ffffffffffffffffffffffffffffffffffffffff1673ffffffffffffffffffffffffffffffffffffffff16815260200190815260200160002060006101000a81548160ff0219169083151502179055508073ffffffffffffffffffffffffffffffffffffffff167fab8cff50266d80b9c9d9703af934ca455b9218286bf4fcaa05653a564c499e4b60405160405180910390a250565b600061312961311a612e57565b4761537490919063ffffffff16565b905090565b60008060009054906101000a900473ffffffffffffffffffffffffffffffffffffffff16905090565b60008060009054906101000a900473ffffffffffffffffffffffffffffffffffffffff1673ffffffffffffffffffffffffffffffffffffffff16613199615545565b73ffffffffffffffffffffffffffffffffffffffff1614905090565b60096020528060005260406000206000915054906101000a900460ff1681565b6060600b80548060200260200160405190810160405280929190818152602001828054801561325957602002820191906000526020600020905b8160009054906101000a900473ffffffffffffffffffffffffffffffffffffffff1673ffffffffffffffffffffffffffffffffffffffff168152602001906001019080831161320f575b5050505050905090565b61326b613157565b6132dd576040517f08c379a00000000000000000000000000000000000000000000000000000000081526004018080602001828103825260208152602001807f4f776e61626c653a2063616c6c6572206973206e6f7420746865206f776e657281525060200191505060405180910390fd5b60008111613353576040517f08c379a000000000000000000000000000000000000000000000000000000000815260040180806020018281038252600e8152602001807f76616c756520776173207a65726f00000000000000000000000000000000000081525060200191505060405180910390fd5b806006819055507f7bfe94ca3147f135fcd6d94ebf61d33fa34fbe904f933ccae66911b9548544f2816040518082815260200191505060405180910390a150565b600060149054906101000a900460ff1615613417576040517f08c379a000000000000000000000000000000000000000000000000000000000815260040180806020018281038252601c8152602001807f636f6e747261637420616c726561647920696e697469616c697a65640000000081525060200191505060405180910390fd5b6001600060146101000a81548160ff02191690831515021790555061343b3361554d565b6134448b61350b565b61344d8a613263565b6134568961158a565b61346088886146ec565b6134ec868680806020026020016040519081016040528093929190818152602001838360200280828437600081840152601f19601f82011690508083019250505050505050858580806020026020016040519081016040528093929190818152602001838360200280828437600081840152601f19601f82011690508083019250505050505050613b7d565b6134f5826143ff565b6134fe8161373d565b5050505050505050505050565b613513613157565b613585576040517f08c379a00000000000000000000000000000000000000000000000000000000081526004018080602001828103825260208152602001807f4f776e61626c653a2063616c6c6572206973206e6f7420746865206f776e657281525060200191505060405180910390fd5b600073ffffffffffffffffffffffffffffffffffffffff168173ffffffffffffffffffffffffffffffffffffffff161415613628576040517f08c379a00000000000000000000000000000000000000000000000000000000081526004018080602001828103825260208152602001807f43616e6e6f7420726567697374657220746865206e756c6c206164647265737381525060200191505060405180910390fd5b80600160006101000a81548173ffffffffffffffffffffffffffffffffffffffff021916908373ffffffffffffffffffffffffffffffffffffffff1602179055508073ffffffffffffffffffffffffffffffffffffffff167f27fe5f0c1c3b1ed427cc63d0f05759ffdecf9aec9e18d31ef366fc8a6cb5dc3b60405160405180910390a250565b6060600480548060200260200160405190810160405280929190818152602001828054801561373357602002820191906000526020600020905b8160009054906101000a900473ffffffffffffffffffffffffffffffffffffffff1673ffffffffffffffffffffffffffffffffffffffff16815260200190600101908083116136e9575b5050505050905090565b613745613157565b6137b7576040517f08c379a00000000000000000000000000000000000000000000000000000000081526004018080602001828103825260208152602001807f4f776e61626c653a2063616c6c6572206973206e6f7420746865206f776e657281525060200191505060405180910390fd5b806008819055507f4da8e8b2223fbbb897200fb9dfb6b986c1b4188621114d407ee8ec363569fc37816040518082815260200191505060405180910390a150565b613800613157565b613872576040517f08c379a00000000000000000000000000000000000000000000000000000000081526004018080602001828103825260208152602001807f4f776e61626c653a2063616c6c6572206973206e6f7420746865206f776e657281525060200191505060405180910390fd5b6000601460008473ffffffffffffffffffffffffffffffffffffffff1673ffffffffffffffffffffffffffffffffffffffff16815260200190815260200160002060006101000a81548160ff02191690831515021790555060006015805490509050808210613949576040517f08c379a00000000000000000000000000000000000000000000000000000000081526004018080602001828103825260108152602001807f496e64657820697320696e76616c69640000000000000000000000000000000081525060200191505060405180910390fd5b6015828154811061395657fe5b9060005260206000200160009054906101000a900473ffffffffffffffffffffffffffffffffffffffff1673ffffffffffffffffffffffffffffffffffffffff168373ffffffffffffffffffffffffffffffffffffffff1614613a21576040517f08c379a000000000000000000000000000000000000000000000000000000000815260040180806020018281038252601c8152602001807f496e64657820646f6573206e6f74206d61746368207370656e6465720000000081525060200191505060405180910390fd5b6000613a37600183614cda90919063ffffffff16565b9050808314613ace5760158181548110613a4d57fe5b9060005260206000200160009054906101000a900473ffffffffffffffffffffffffffffffffffffffff1660158481548110613a8557fe5b9060005260206000200160006101000a81548173ffffffffffffffffffffffffffffffffffffffff021916908373ffffffffffffffffffffffffffffffffffffffff1602179055505b600060158281548110613add57fe5b9060005260206000200160006101000a81548173ffffffffffffffffffffffffffffffffffffffff021916908373ffffffffffffffffffffffffffffffffffffffff16021790555080601581613b339190615ac5565b508373ffffffffffffffffffffffffffffffffffffffff167f20aaa18caa668680a42b328a15fd50d580bac65d8bd346e104355473c6373ff360405160405180910390a250505050565b613b85613157565b613bf7576040517f08c379a00000000000000000000000000000000000000000000000000000000081526004018080602001828103825260208152602001807f4f776e61626c653a2063616c6c6572206973206e6f7420746865206f776e657281525060200191505060405180910390fd5b8051825114613c6e576040517f08c379a00000000000000000000000000000000000000000000000000000000081526004018080602001828103825260158152602001807f4172726179206c656e677468206d69736d61746368000000000000000000000081525060200191505060405180910390fd5b613c76615af1565b613c806000614b69565b905060008090505b8251811015613cdc57613cbf613cb0848381518110613ca357fe5b6020026020010151614b69565b8361569190919063ffffffff16565b9150613cd560018261537490919063ffffffff16565b9050613c88565b50613cf7613ce8614b87565b8261573a90919063ffffffff16565b613d4c576040517f08c379a0000000000000000000000000000000000000000000000000000000008152600401808060200182810382526021815260200180615c766021913960400191505060405180910390fd5b60008090505b600c80549050811015613da857600d6000600c8381548110613d7057fe5b9060005260206000200154815260200190815260200160002060009055613da160018261537490919063ffffffff16565b9050613d52565b5082600c9080519060200190613dbf929190615b04565b5060008090505b8351811015613ec4576000600d6000868481518110613de157fe5b602002602001015181526020019081526020016000205414613e6b576040517f08c379a00000000000000000000000000000000000000000000000000000000081526004018080602001828103825260178152602001807f43616e6e6f74207365742077656967687420747769636500000000000000000081525060200191505060405180910390fd5b828181518110613e7757fe5b6020026020010151600d6000868481518110613e8f57fe5b6020026020010151815260200190815260200160002081905550613ebd60018261537490919063ffffffff16565b9050613dc6565b506000600d60007f63474c44000000000000000000000000000000000000000000000000000000008152602001908152602001600020541415613f6f576040517f08c379a000000000000000000000000000000000000000000000000000000000815260040180806020018281038252601a8152602001807f4d757374207365742063474c442061737365742077656967687400000000000081525060200191505060405180910390fd5b7f55b488abd19ae7621712324d3d42c2ef7a9575f64f5503103286a1161fb408558383604051808060200180602001838103835285818151815260200191508051906020019060200280838360005b83811015613fd9578082015181840152602081019050613fbe565b50505050905001838103825284818151815260200191508051906020019060200280838360005b8381101561401b578082015181840152602081019050614000565b5050505090500194505050505060405180910390a1505050565b600061403f613157565b6140b1576040517f08c379a00000000000000000000000000000000000000000000000000000000081526004018080602001828103825260208152602001807f4f776e61626c653a2063616c6c6572206973206e6f7420746865206f776e657281525060200191505060405180910390fd5b600160026000828254019250508190555060006002549050600360008473ffffffffffffffffffffffffffffffffffffffff1673ffffffffffffffffffffffffffffffffffffffff16815260200190815260200160002060009054906101000a900460ff1615614189576040517f08c379a000000000000000000000000000000000000000000000000000000000815260040180806020018281038252601d8152602001807f746f6b656e206164647220616c7265616479207265676973746572656400000081525060200191505060405180910390fd5b6001600360008573ffffffffffffffffffffffffffffffffffffffff1673ffffffffffffffffffffffffffffffffffffffff16815260200190815260200160002060006101000a81548160ff02191690831515021790555060048390806001815401808255809150509060018203906000526020600020016000909192909190916101000a81548173ffffffffffffffffffffffffffffffffffffffff021916908373ffffffffffffffffffffffffffffffffffffffff160217905550508273ffffffffffffffffffffffffffffffffffffffff167f784c8f4dbf0ffedd6e72c76501c545a70f8b203b30a26ce542bf92ba87c248a460405160405180910390a2600191506002548114614305576040517f08c379a000000000000000000000000000000000000000000000000000000000815260040180806020018281038252600e8152602001807f7265656e7472616e742063616c6c00000000000000000000000000000000000081525060200191505060405180910390fd5b50919050565b600080479050600061431b61247c565b905080821161432b57600061433f565b61433e8183614cda90919063ffffffff16565b5b9250505090565b60065481565b606080600c805490506040519080825280602002602001820160405280156143835781602001602082028038833980820191505090505b50905060008090505b600c805490508110156143f757600d6000600c83815481106143aa57fe5b90600052602060002001548152602001908152602001600020548282815181106143d057fe5b6020026020010181815250506143f060018261537490919063ffffffff16565b905061438c565b508091505090565b614407613157565b614479576040517f08c379a00000000000000000000000000000000000000000000000000000000081526004018080602001828103825260208152602001807f4f776e61626c653a2063616c6c6572206973206e6f7420746865206f776e657281525060200191505060405180910390fd5b61449b614484614b87565b61448d83614b69565b614bad90919063ffffffff16565b6144f0576040517f08c379a0000000000000000000000000000000000000000000000000000000008152600401808060200182810382526021815260200180615bc26021913960400191505060405180910390fd5b806007819055507ffe69856ffb1b1d6cb00c1d8151726e6e95032b1666282eeb293ecadd58b29a6e816040518082815260200191505060405180910390a150565b614539613157565b6145ab576040517f08c379a00000000000000000000000000000000000000000000000000000000081526004018080602001828103825260208152602001807f4f776e61626c653a2063616c6c6572206973206e6f7420746865206f776e657281525060200191505060405180910390fd5b8073ffffffffffffffffffffffffffffffffffffffff16600073ffffffffffffffffffffffffffffffffffffffff16141561464e576040517f08c379a00000000000000000000000000000000000000000000000000000000081526004018080602001828103825260158152602001807f5370656e6465722063616e2774206265206e756c6c000000000000000000000081525060200191505060405180910390fd5b6001600960008373ffffffffffffffffffffffffffffffffffffffff1673ffffffffffffffffffffffffffffffffffffffff16815260200190815260200160002060006101000a81548160ff0219169083151502179055508073ffffffffffffffffffffffffffffffffffffffff167f3139419c41cdd7abca84fa19dd21118cd285d3e2ce1a9444e8161ce9fa62fdcd60405160405180910390a250565b6146f4613157565b614766576040517f08c379a00000000000000000000000000000000000000000000000000000000081526004018080602001828103825260208152602001807f4f776e61626c653a2063616c6c6572206973206e6f7420746865206f776e657281525060200191505060405180910390fd5b478211156147dc576040517f08c379a000000000000000000000000000000000000000000000000000000000815260040180806020018281038252601f8152602001807f43616e6e6f7420667265657a65206d6f7265207468616e2062616c616e63650081525060200191505060405180910390fd5b816011819055506201518042816147ef57fe5b04601281905550806013819055505050565b600d6020528060005260406000206000915090505481565b614821613157565b614893576040517f08c379a00000000000000000000000000000000000000000000000000000000081526004018080602001828103825260208152602001807f4f776e61626c653a2063616c6c6572206973206e6f7420746865206f776e657281525060200191505060405180910390fd5b8073ffffffffffffffffffffffffffffffffffffffff16600073ffffffffffffffffffffffffffffffffffffffff161415614936576040517f08c379a00000000000000000000000000000000000000000000000000000000081526004018080602001828103825260158152602001807f5370656e6465722063616e2774206265206e756c6c000000000000000000000081525060200191505060405180910390fd5b601460008273ffffffffffffffffffffffffffffffffffffffff1673ffffffffffffffffffffffffffffffffffffffff16815260200190815260200160002060009054906101000a900460ff16156149d9576040517f08c379a0000000000000000000000000000000000000000000000000000000008152600401808060200182810382526023815260200180615c1d6023913960400191505060405180910390fd5b6001601460008373ffffffffffffffffffffffffffffffffffffffff1673ffffffffffffffffffffffffffffffffffffffff16815260200190815260200160002060006101000a81548160ff02191690831515021790555060158190806001815401808255809150509060018203906000526020600020016000909192909190916101000a81548173ffffffffffffffffffffffffffffffffffffffff021916908373ffffffffffffffffffffffffffffffffffffffff160217905550508073ffffffffffffffffffffffffffffffffffffffff167f71bccdb89fff4d914e3d2e472b327e3debaf4c4d6f1dfe528f430447e4cbcf5f60405160405180910390a250565b614ae5613157565b614b57576040517f08c379a00000000000000000000000000000000000000000000000000000000081526004018080602001828103825260208152602001807f4f776e61626c653a2063616c6c6572206973206e6f7420746865206f776e657281525060200191505060405180910390fd5b614b608161554d565b50565b600e5481565b614b71615af1565b6040518060200160405280838152509050919050565b614b8f615af1565b604051806020016040528069d3c21bcecceda1000000815250905090565b6000816000015183600001511115905092915050565b6000614bcd61430b565b821115614c42576040517f08c379a000000000000000000000000000000000000000000000000000000000815260040180806020018281038252601b8152602001807f457863656564696e6720756e66726f7a656e207265736572766573000000000081525060200191505060405180910390fd5b614c6b828473ffffffffffffffffffffffffffffffffffffffff1661574f90919063ffffffff16565b8273ffffffffffffffffffffffffffffffffffffffff163373ffffffffffffffffffffffffffffffffffffffff167f4dd1abe16ad3d4f829372dc77766ca2cce34e205af9b10f8cc1fab370425864f846040518082815260200191505060405180910390a36001905092915050565b6000614d1c83836040518060400160405280601e81526020017f536166654d6174683a207375627472616374696f6e206f766572666c6f770000815250615889565b905092915050565b614d2c615af1565b614d34615af1565b614d44614d3f612588565b614b69565b9050614d63614d54600854614b69565b8261594990919063ffffffff16565b15614d7a57614d726000614b69565b915050614d89565b614d85600754614b69565b9150505b90565b600081600001519050919050565b614da2615af1565b614daa61595f565b821115614e02576040517f08c379a0000000000000000000000000000000000000000000000000000000008152600401808060200182810382526036815260200180615c406036913960400191505060405180910390fd5b604051806020016040528069d3c21bcecceda100000084028152509050919050565b614e2c615af1565b600083600001511480614e43575060008260000151145b15614e5f5760405180602001604052806000815250905061527d565b69d3c21bcecceda100000082600001511415614e7d5782905061527d565b69d3c21bcecceda100000083600001511415614e9b5781905061527d565b600069d3c21bcecceda1000000614eb18561597e565b6000015181614ebc57fe5b0490506000614eca856159b5565b600001519050600069d3c21bcecceda1000000614ee68661597e565b6000015181614ef157fe5b0490506000614eff866159b5565b6000015190506000828502905060008514614f935782858281614f1e57fe5b0414614f92576040517f08c379a00000000000000000000000000000000000000000000000000000000081526004018080602001828103825260168152602001807f6f766572666c6f7720783179312064657465637465640000000000000000000081525060200191505060405180910390fd5b5b600069d3c21bcecceda100000082029050600082146150355769d3c21bcecceda1000000828281614fc057fe5b0414615034576040517f08c379a000000000000000000000000000000000000000000000000000000000815260040180806020018281038252601f8152602001807f6f766572666c6f772078317931202a206669786564312064657465637465640081525060200191505060405180910390fd5b5b80915060008486029050600086146150c6578486828161505157fe5b04146150c5576040517f08c379a00000000000000000000000000000000000000000000000000000000081526004018080602001828103825260168152602001807f6f766572666c6f7720783279312064657465637465640000000000000000000081525060200191505060405180910390fd5b5b600084880290506000881461515457848882816150df57fe5b0414615153576040517f08c379a00000000000000000000000000000000000000000000000000000000081526004018080602001828103825260168152602001807f6f766572666c6f7720783179322064657465637465640000000000000000000081525060200191505060405180910390fd5b5b61515c6159f2565b878161516457fe5b04965061516f6159f2565b858161517757fe5b0494506000858802905060008814615208578588828161519357fe5b0414615207576040517f08c379a00000000000000000000000000000000000000000000000000000000081526004018080602001828103825260168152602001807f6f766572666c6f7720783279322064657465637465640000000000000000000081525060200191505060405180910390fd5b5b615210615af1565b604051806020016040528087815250905061523981604051806020016040528087815250615691565b905061525381604051806020016040528086815250615691565b905061526d81604051806020016040528085815250615691565b9050809a50505050505050505050505b92915050565b600069d3c21bcecceda100000082600001518161529c57fe5b049050919050565b6000808314156152b75760009050615324565b60008284029050828482816152c857fe5b041461531f576040517f08c379a0000000000000000000000000000000000000000000000000000000008152600401808060200182810382526021815260200180615c976021913960400191505060405180910390fd5b809150505b92915050565b600061536c83836040518060400160405280601a81526020017f536166654d6174683a206469766973696f6e206279207a65726f0000000000008152506159ff565b905092915050565b6000808284019050838110156153f2576040517f08c379a000000000000000000000000000000000000000000000000000000000815260040180806020018281038252601b8152602001807f536166654d6174683a206164646974696f6e206f766572666c6f77000000000081525060200191505060405180910390fd5b8091505092915050565b615404615af1565b60008260000151141561547f576040517f08c379a00000000000000000000000000000000000000000000000000000000081526004018080602001828103825260118152602001807f63616e277420646976696465206279203000000000000000000000000000000081525060200191505060405180910390fd5b600069d3c21bcecceda10000008460000151029050836000015169d3c21bcecceda100000082816154ac57fe5b0414615520576040517f08c379a00000000000000000000000000000000000000000000000000000000081526004018080602001828103825260128152602001807f6f766572666c6f7720617420646976696465000000000000000000000000000081525060200191505060405180910390fd5b60405180602001604052808460000151838161553857fe5b0481525091505092915050565b600033905090565b600073ffffffffffffffffffffffffffffffffffffffff168173ffffffffffffffffffffffffffffffffffffffff1614156155d3576040517f08c379a0000000000000000000000000000000000000000000000000000000008152600401808060200182810382526026815260200180615b9c6026913960400191505060405180910390fd5b8073ffffffffffffffffffffffffffffffffffffffff166000809054906101000a900473ffffffffffffffffffffffffffffffffffffffff1673ffffffffffffffffffffffffffffffffffffffff167f8be0079c531659141344cd1fd0a4f28419497f9722a3daafe3b4186f6b6457e060405160405180910390a3806000806101000a81548173ffffffffffffffffffffffffffffffffffffffff021916908373ffffffffffffffffffffffffffffffffffffffff16021790555050565b615699615af1565b6000826000015184600001510190508360000151811015615722576040517f08c379a00000000000000000000000000000000000000000000000000000000081526004018080602001828103825260158152602001807f616464206f766572666c6f77206465746563746564000000000000000000000081525060200191505060405180910390fd5b60405180602001604052808281525091505092915050565b60008160000151836000015114905092915050565b804710156157c5576040517f08c379a000000000000000000000000000000000000000000000000000000000815260040180806020018281038252601d8152602001807f416464726573733a20696e73756666696369656e742062616c616e636500000081525060200191505060405180910390fd5b60008273ffffffffffffffffffffffffffffffffffffffff168260405180600001905060006040518083038185875af1925050503d8060008114615825576040519150601f19603f3d011682016040523d82523d6000602084013e61582a565b606091505b5050905080615884576040517f08c379a000000000000000000000000000000000000000000000000000000000815260040180806020018281038252603a815260200180615be3603a913960400191505060405180910390fd5b505050565b6000838311158290615936576040517f08c379a00000000000000000000000000000000000000000000000000000000081526004018080602001828103825283818151815260200191508051906020019080838360005b838110156158fb5780820151818401526020810190506158e0565b50505050905090810190601f1680156159285780820380516001836020036101000a031916815260200191505b509250505060405180910390fd5b5060008385039050809150509392505050565b6000816000015183600001511015905092915050565b60007601357c299a88ea76a58924d52ce4f26a85af186c2b9e74905090565b615986615af1565b604051806020016040528069d3c21bcecceda1000000808560000151816159a957fe5b04028152509050919050565b6159bd615af1565b604051806020016040528069d3c21bcecceda1000000808560000151816159e057fe5b04028460000151038152509050919050565b600064e8d4a51000905090565b60008083118290615aab576040517f08c379a00000000000000000000000000000000000000000000000000000000081526004018080602001828103825283818151815260200191508051906020019080838360005b83811015615a70578082015181840152602081019050615a55565b50505050905090810190601f168015615a9d5780820380516001836020036101000a031916815260200191505b509250505060405180910390fd5b506000838581615ab757fe5b049050809150509392505050565b815481835581811115615aec57818360005260206000209182019101615aeb9190615b51565b5b505050565b6040518060200160405280600081525090565b828054828255906000526020600020908101928215615b40579160200282015b82811115615b3f578251825591602001919060010190615b24565b5b509050615b4d9190615b76565b5090565b615b7391905b80821115615b6f576000816000905550600101615b57565b5090565b90565b615b9891905b80821115615b94576000816000905550600101615b7c565b5090565b9056fe4f776e61626c653a206e6577206f776e657220697320746865207a65726f2061646472657373746f62696e207461782063616e6e6f74206265206c6172676572207468616e2031416464726573733a20756e61626c6520746f2073656e642076616c75652c20726563697069656e74206d617920686176652072657665727465644164647265737320697320616c72656164792045786368616e6765205370656e64657263616e277420637265617465206669786964697479206e756d626572206c6172676572207468616e206d61784e65774669786564282953756d206f6620617373657420616c6c6f636174696f6e206d7573742062652031536166654d6174683a206d756c7469706c69636174696f6e206f766572666c6f77696e64657820696e746f2072657365727665206c697374206e6f74206d617070656420746f20616464726573737370656e64696e6720726174696f2063616e6e6f74206265206c6172676572207468616e2031696e64657820696e746f20746f6b656e73206c697374206e6f74206d617070656420746f20746f6b656e63616e206f6e6c79207472616e7366657220746f206f746865722072657365727665206164647265737373656e646572206e6f7420616c6c6f77656420746f207472616e7366657220526573657276652066756e6473a265627a7a723158206d01d0517f337b83c2b8404bdfb8b42a1e8df5b06532f8036db23edcd1135e0964736f6c634300050d0032",
  "source": "pragma solidity ^0.5.13;\n\nimport \"openzeppelin-solidity/contracts/math/SafeMath.sol\";\nimport \"openzeppelin-solidity/contracts/ownership/Ownable.sol\";\nimport \"openzeppelin-solidity/contracts/utils/Address.sol\";\n\nimport \"./interfaces/IReserve.sol\";\nimport \"./interfaces/ISortedOracles.sol\";\n\nimport \"../common/FixidityLib.sol\";\nimport \"../common/Initializable.sol\";\nimport \"../common/UsingRegistry.sol\";\nimport \"../common/interfaces/ICeloVersionedContract.sol\";\nimport \"../common/libraries/ReentrancyGuard.sol\";\n\n/**\n * @title Ensures price stability of StableTokens with respect to their pegs\n */\ncontract Reserve is\n  IReserve,\n  ICeloVersionedContract,\n  Ownable,\n  Initializable,\n  UsingRegistry,\n  ReentrancyGuard\n{\n  using SafeMath for uint256;\n  using FixidityLib for FixidityLib.Fraction;\n  using Address for address payable; // prettier-ignore\n\n  struct TobinTaxCache {\n    uint128 numerator;\n    uint128 timestamp;\n  }\n\n  mapping(address => bool) public isToken;\n  address[] private _tokens;\n  TobinTaxCache public tobinTaxCache;\n  uint256 public tobinTaxStalenessThreshold;\n  uint256 public tobinTax;\n  uint256 public tobinTaxReserveRatio;\n  mapping(address => bool) public isSpender;\n\n  mapping(address => bool) public isOtherReserveAddress;\n  address[] public otherReserveAddresses;\n\n  bytes32[] public assetAllocationSymbols;\n  mapping(bytes32 => uint256) public assetAllocationWeights;\n\n  uint256 public lastSpendingDay;\n  uint256 public spendingLimit;\n  FixidityLib.Fraction private spendingRatio;\n\n  uint256 public frozenReserveGoldStartBalance;\n  uint256 public frozenReserveGoldStartDay;\n  uint256 public frozenReserveGoldDays;\n\n  mapping(address => bool) public isExchangeSpender;\n  address[] public exchangeSpenderAddresses;\n\n  event TobinTaxStalenessThresholdSet(uint256 value);\n  event DailySpendingRatioSet(uint256 ratio);\n  event TokenAdded(address indexed token);\n  event TokenRemoved(address indexed token, uint256 index);\n  event SpenderAdded(address indexed spender);\n  event SpenderRemoved(address indexed spender);\n  event OtherReserveAddressAdded(address indexed otherReserveAddress);\n  event OtherReserveAddressRemoved(address indexed otherReserveAddress, uint256 index);\n  event AssetAllocationSet(bytes32[] symbols, uint256[] weights);\n  event ReserveGoldTransferred(address indexed spender, address indexed to, uint256 value);\n  event TobinTaxSet(uint256 value);\n  event TobinTaxReserveRatioSet(uint256 value);\n  event ExchangeSpenderAdded(address indexed exchangeSpender);\n  event ExchangeSpenderRemoved(address indexed exchangeSpender);\n\n  /**\n   * @notice Sets initialized == true on implementation contracts\n   * @param test Set to true to skip implementation initialization\n   */\n  constructor(bool test) public Initializable(test) {}\n\n  modifier isStableToken(address token) {\n    require(isToken[token], \"token addr was never registered\");\n    _;\n  }\n\n  /**\n   * @notice Returns the storage, major, minor, and patch version of the contract.\n   * @return The storage, major, minor, and patch version of the contract.\n   */\n  function getVersionNumber() external pure returns (uint256, uint256, uint256, uint256) {\n    return (1, 1, 2, 2);\n  }\n\n  function() external payable {} // solhint-disable no-empty-blocks\n\n  /**\n   * @notice Used in place of the constructor to allow the contract to be upgradable via proxy.\n   * @param registryAddress The address of the registry core smart contract.\n   * @param _tobinTaxStalenessThreshold The initial number of seconds to cache tobin tax value for.\n   * @param _spendingRatio The relative daily spending limit for the reserve spender.\n   * @param _frozenGold The balance of reserve gold that is frozen.\n   * @param _frozenDays The number of days during which the frozen gold thaws.\n   * @param _assetAllocationSymbols The symbols of the reserve assets.\n   * @param _assetAllocationWeights The reserve asset weights.\n   * @param _tobinTax The tobin tax value as a fixidity fraction.\n   * @param _tobinTaxReserveRatio When to turn on the tobin tax, as a fixidity fraction.\n   */\n  function initialize(\n    address registryAddress,\n    uint256 _tobinTaxStalenessThreshold,\n    uint256 _spendingRatio,\n    uint256 _frozenGold,\n    uint256 _frozenDays,\n    bytes32[] calldata _assetAllocationSymbols,\n    uint256[] calldata _assetAllocationWeights,\n    uint256 _tobinTax,\n    uint256 _tobinTaxReserveRatio\n  ) external initializer {\n    _transferOwnership(msg.sender);\n    setRegistry(registryAddress);\n    setTobinTaxStalenessThreshold(_tobinTaxStalenessThreshold);\n    setDailySpendingRatio(_spendingRatio);\n    setFrozenGold(_frozenGold, _frozenDays);\n    setAssetAllocations(_assetAllocationSymbols, _assetAllocationWeights);\n    setTobinTax(_tobinTax);\n    setTobinTaxReserveRatio(_tobinTaxReserveRatio);\n  }\n\n  /**\n   * @notice Sets the number of seconds to cache the tobin tax value for.\n   * @param value The number of seconds to cache the tobin tax value for.\n   */\n  function setTobinTaxStalenessThreshold(uint256 value) public onlyOwner {\n    require(value > 0, \"value was zero\");\n    tobinTaxStalenessThreshold = value;\n    emit TobinTaxStalenessThresholdSet(value);\n  }\n\n  /**\n   * @notice Sets the tobin tax.\n   * @param value The tobin tax.\n   */\n  function setTobinTax(uint256 value) public onlyOwner {\n    require(FixidityLib.wrap(value).lte(FixidityLib.fixed1()), \"tobin tax cannot be larger than 1\");\n    tobinTax = value;\n    emit TobinTaxSet(value);\n  }\n\n  /**\n   * @notice Sets the reserve ratio at which the tobin tax sets in.\n   * @param value The reserve ratio at which the tobin tax sets in.\n   */\n  function setTobinTaxReserveRatio(uint256 value) public onlyOwner {\n    tobinTaxReserveRatio = value;\n    emit TobinTaxReserveRatioSet(value);\n  }\n\n  /**\n   * @notice Set the ratio of reserve that is spendable per day.\n   * @param ratio Spending ratio as unwrapped Fraction.\n   */\n  function setDailySpendingRatio(uint256 ratio) public onlyOwner {\n    spendingRatio = FixidityLib.wrap(ratio);\n    require(spendingRatio.lte(FixidityLib.fixed1()), \"spending ratio cannot be larger than 1\");\n    emit DailySpendingRatioSet(ratio);\n  }\n\n  /**\n   * @notice Get daily spending ratio.\n   * @return Spending ratio as unwrapped Fraction.\n   */\n  function getDailySpendingRatio() public view returns (uint256) {\n    return spendingRatio.unwrap();\n  }\n\n  /**\n   * @notice Sets the balance of reserve gold frozen from transfer.\n   * @param frozenGold The amount of CELO frozen.\n   * @param frozenDays The number of days the frozen CELO thaws over.\n   */\n  function setFrozenGold(uint256 frozenGold, uint256 frozenDays) public onlyOwner {\n    require(frozenGold <= address(this).balance, \"Cannot freeze more than balance\");\n    frozenReserveGoldStartBalance = frozenGold;\n    frozenReserveGoldStartDay = now / 1 days;\n    frozenReserveGoldDays = frozenDays;\n  }\n\n  /**\n   * @notice Sets target allocations for CELO and a diversified basket of non-Celo assets.\n   * @param symbols The symbol of each asset in the Reserve portfolio.\n   * @param weights The weight for the corresponding asset as unwrapped Fixidity.Fraction.\n   */\n  function setAssetAllocations(bytes32[] memory symbols, uint256[] memory weights)\n    public\n    onlyOwner\n  {\n    require(symbols.length == weights.length, \"Array length mismatch\");\n    FixidityLib.Fraction memory sum = FixidityLib.wrap(0);\n    for (uint256 i = 0; i < weights.length; i = i.add(1)) {\n      sum = sum.add(FixidityLib.wrap(weights[i]));\n    }\n    require(sum.equals(FixidityLib.fixed1()), \"Sum of asset allocation must be 1\");\n    for (uint256 i = 0; i < assetAllocationSymbols.length; i = i.add(1)) {\n      delete assetAllocationWeights[assetAllocationSymbols[i]];\n    }\n    assetAllocationSymbols = symbols;\n    for (uint256 i = 0; i < symbols.length; i = i.add(1)) {\n      require(assetAllocationWeights[symbols[i]] == 0, \"Cannot set weight twice\");\n      assetAllocationWeights[symbols[i]] = weights[i];\n    }\n    // NOTE: The CELO asset launched as \"Celo Gold\" (cGLD), but was renamed to\n    // just CELO by the community.\n    // TODO: Change \"cGLD\" to \"CELO\" in this file, after ensuring that any\n    // off chain tools working with asset allocation weights are aware of this\n    // change.\n    require(assetAllocationWeights[\"cGLD\"] != 0, \"Must set cGLD asset weight\");\n    emit AssetAllocationSet(symbols, weights);\n  }\n\n  /**\n   * @notice Add a token that the reserve will stabilize.\n   * @param token The address of the token being stabilized.\n   * @return Returns true if the transaction succeeds.\n   */\n  function addToken(address token) external onlyOwner nonReentrant returns (bool) {\n    require(!isToken[token], \"token addr already registered\");\n    isToken[token] = true;\n    _tokens.push(token);\n    emit TokenAdded(token);\n    return true;\n  }\n\n  /**\n   * @notice Remove a token that the reserve will no longer stabilize.\n   * @param token The address of the token no longer being stabilized.\n   * @param index The index of the token in _tokens.\n   * @return Returns true if the transaction succeeds.\n   */\n  function removeToken(address token, uint256 index)\n    external\n    onlyOwner\n    isStableToken(token)\n    returns (bool)\n  {\n    require(\n      index < _tokens.length && _tokens[index] == token,\n      \"index into tokens list not mapped to token\"\n    );\n    isToken[token] = false;\n    address lastItem = _tokens[_tokens.length.sub(1)];\n    _tokens[index] = lastItem;\n    _tokens.length = _tokens.length.sub(1);\n    emit TokenRemoved(token, index);\n    return true;\n  }\n\n  /**\n   * @notice Add a reserve address whose balance shall be included in the reserve ratio.\n   * @param reserveAddress The reserve address to add.\n   * @return Returns true if the transaction succeeds.\n   */\n  function addOtherReserveAddress(address reserveAddress)\n    external\n    onlyOwner\n    nonReentrant\n    returns (bool)\n  {\n    require(!isOtherReserveAddress[reserveAddress], \"reserve addr already added\");\n    isOtherReserveAddress[reserveAddress] = true;\n    otherReserveAddresses.push(reserveAddress);\n    emit OtherReserveAddressAdded(reserveAddress);\n    return true;\n  }\n\n  /**\n   * @notice Remove reserve address whose balance shall no longer be included in the reserve ratio.\n   * @param reserveAddress The reserve address to remove.\n   * @param index The index of the reserve address in otherReserveAddresses.\n   * @return Returns true if the transaction succeeds.\n   */\n  function removeOtherReserveAddress(address reserveAddress, uint256 index)\n    external\n    onlyOwner\n    returns (bool)\n  {\n    require(isOtherReserveAddress[reserveAddress], \"reserve addr was never added\");\n    require(\n      index < otherReserveAddresses.length && otherReserveAddresses[index] == reserveAddress,\n      \"index into reserve list not mapped to address\"\n    );\n    isOtherReserveAddress[reserveAddress] = false;\n    address lastItem = otherReserveAddresses[otherReserveAddresses.length.sub(1)];\n    otherReserveAddresses[index] = lastItem;\n    otherReserveAddresses.length = otherReserveAddresses.length.sub(1);\n    emit OtherReserveAddressRemoved(reserveAddress, index);\n    return true;\n  }\n\n  /**\n   * @notice Gives an address permission to spend Reserve funds.\n   * @param spender The address that is allowed to spend Reserve funds.\n   */\n  function addSpender(address spender) external onlyOwner {\n    require(address(0) != spender, \"Spender can't be null\");\n    isSpender[spender] = true;\n    emit SpenderAdded(spender);\n  }\n\n  /**\n   * @notice Takes away an address's permission to spend Reserve funds.\n   * @param spender The address that is to be no longer allowed to spend Reserve funds.\n   */\n  function removeSpender(address spender) external onlyOwner {\n    isSpender[spender] = false;\n    emit SpenderRemoved(spender);\n  }\n\n  /**\n   * @notice Checks if an address is able to spend as an exchange.\n   * @dev isExchangeSpender was introduced after cUSD, so the cUSD Exchange is not included in it.\n   * If cUSD's Exchange were to be added to isExchangeSpender, the check with the\n   * registry could be removed.\n   * @param spender The address to be checked.\n   */\n  modifier isAllowedToSpendExchange(address spender) {\n    require(\n      isExchangeSpender[spender] || (registry.getAddressForOrDie(EXCHANGE_REGISTRY_ID) == spender),\n      \"Address not allowed to spend\"\n    );\n    _;\n  }\n\n  /**\n   * @notice Gives an address permission to spend Reserve without limit.\n   * @param spender The address that is allowed to spend Reserve funds.\n   */\n  function addExchangeSpender(address spender) external onlyOwner {\n    require(address(0) != spender, \"Spender can't be null\");\n    require(!isExchangeSpender[spender], \"Address is already Exchange Spender\");\n    isExchangeSpender[spender] = true;\n    exchangeSpenderAddresses.push(spender);\n    emit ExchangeSpenderAdded(spender);\n  }\n\n  /**\n   * @notice Takes away an address's permission to spend Reserve funds without limits.\n   * @param spender The address that is to be no longer allowed to spend Reserve funds.\n   * @param index The index in exchangeSpenderAddresses of spender.\n   */\n  function removeExchangeSpender(address spender, uint256 index) external onlyOwner {\n    isExchangeSpender[spender] = false;\n    uint256 numAddresses = exchangeSpenderAddresses.length;\n    require(index < numAddresses, \"Index is invalid\");\n    require(spender == exchangeSpenderAddresses[index], \"Index does not match spender\");\n    uint256 newNumAddresses = numAddresses.sub(1);\n\n    if (index != newNumAddresses) {\n      exchangeSpenderAddresses[index] = exchangeSpenderAddresses[newNumAddresses];\n    }\n\n    exchangeSpenderAddresses[newNumAddresses] = address(0x0);\n    exchangeSpenderAddresses.length = newNumAddresses;\n    emit ExchangeSpenderRemoved(spender);\n  }\n\n  /**\n   * @notice Returns addresses of exchanges permitted to spend Reserve funds.\n   * Because exchangeSpenderAddresses was introduced after cUSD, cUSD's exchange\n   * is not included in this list.\n   * @return An array of addresses permitted to spend Reserve funds.\n   */\n  function getExchangeSpenders() external view returns (address[] memory) {\n    return exchangeSpenderAddresses;\n  }\n\n  /**\n   * @notice Transfer gold to a whitelisted address subject to reserve spending limits.\n   * @param to The address that will receive the gold.\n   * @param value The amount of gold to transfer.\n   * @return Returns true if the transaction succeeds.\n   */\n  function transferGold(address payable to, uint256 value) external returns (bool) {\n    require(isSpender[msg.sender], \"sender not allowed to transfer Reserve funds\");\n    require(isOtherReserveAddress[to], \"can only transfer to other reserve address\");\n    uint256 currentDay = now / 1 days;\n    if (currentDay > lastSpendingDay) {\n      uint256 balance = getUnfrozenReserveGoldBalance();\n      lastSpendingDay = currentDay;\n      spendingLimit = spendingRatio.multiply(FixidityLib.newFixed(balance)).fromFixed();\n    }\n    require(spendingLimit >= value, \"Exceeding spending limit\");\n    spendingLimit = spendingLimit.sub(value);\n    return _transferGold(to, value);\n  }\n\n  /**\n   * @notice Transfer unfrozen gold to any address.\n   * @param to The address that will receive the gold.\n   * @param value The amount of gold to transfer.\n   * @return Returns true if the transaction succeeds.\n   */\n  function _transferGold(address payable to, uint256 value) internal returns (bool) {\n    require(value <= getUnfrozenBalance(), \"Exceeding unfrozen reserves\");\n    to.sendValue(value);\n    emit ReserveGoldTransferred(msg.sender, to, value);\n    return true;\n  }\n\n  /**\n   * @notice Transfer unfrozen gold to any address, used for one side of CP-DOTO.\n   * @dev Transfers are not subject to a daily spending limit.\n   * @param to The address that will receive the gold.\n   * @param value The amount of gold to transfer.\n   * @return Returns true if the transaction succeeds.\n   */\n  function transferExchangeGold(address payable to, uint256 value)\n    external\n    isAllowedToSpendExchange(msg.sender)\n    returns (bool)\n  {\n    return _transferGold(to, value);\n  }\n\n  /**\n   * @notice Returns the tobin tax, recomputing it if it's stale.\n   * @return The tobin tax amount as a fraction.\n   */\n  function getOrComputeTobinTax() external nonReentrant returns (uint256, uint256) {\n    // solhint-disable-next-line not-rely-on-time\n    if (now.sub(tobinTaxCache.timestamp) > tobinTaxStalenessThreshold) {\n      tobinTaxCache.numerator = uint128(computeTobinTax().unwrap());\n      tobinTaxCache.timestamp = uint128(now); // solhint-disable-line not-rely-on-time\n    }\n    return (uint256(tobinTaxCache.numerator), FixidityLib.fixed1().unwrap());\n  }\n\n  /**\n   * @notice Returns the list of stabilized token addresses.\n   * @return An array of addresses of stabilized tokens.\n   */\n  function getTokens() external view returns (address[] memory) {\n    return _tokens;\n  }\n\n  /**\n   * @notice Returns the list other addresses included in the reserve total.\n   * @return An array of other addresses included in the reserve total.\n   */\n  function getOtherReserveAddresses() external view returns (address[] memory) {\n    return otherReserveAddresses;\n  }\n\n  /**\n   * @notice Returns a list of token symbols that have been allocated.\n   * @return An array of token symbols that have been allocated.\n   */\n  function getAssetAllocationSymbols() external view returns (bytes32[] memory) {\n    return assetAllocationSymbols;\n  }\n\n  /**\n   * @notice Returns a list of weights used for the allocation of reserve assets.\n   * @return An array of a list of weights used for the allocation of reserve assets.\n   */\n  function getAssetAllocationWeights() external view returns (uint256[] memory) {\n    uint256[] memory weights = new uint256[](assetAllocationSymbols.length);\n    for (uint256 i = 0; i < assetAllocationSymbols.length; i = i.add(1)) {\n      weights[i] = assetAllocationWeights[assetAllocationSymbols[i]];\n    }\n    return weights;\n  }\n\n  /**\n   * @notice Returns the amount of unfrozen CELO in the reserve.\n   * @return The total unfrozen CELO in the reserve.\n   */\n  function getUnfrozenBalance() public view returns (uint256) {\n    uint256 balance = address(this).balance;\n    uint256 frozenReserveGold = getFrozenReserveGoldBalance();\n    return balance > frozenReserveGold ? balance.sub(frozenReserveGold) : 0;\n  }\n\n  /**\n   * @notice Returns the amount of CELO included in the reserve.\n   * @return The CELO amount included in the reserve.\n   */\n  function getReserveGoldBalance() public view returns (uint256) {\n    return address(this).balance.add(getOtherReserveAddressesGoldBalance());\n  }\n\n  /**\n   * @notice Returns the amount of CELO included in other reserve addresses.\n   * @return The CELO amount included in other reserve addresses.\n   */\n  function getOtherReserveAddressesGoldBalance() public view returns (uint256) {\n    uint256 reserveGoldBalance = 0;\n    for (uint256 i = 0; i < otherReserveAddresses.length; i = i.add(1)) {\n      reserveGoldBalance = reserveGoldBalance.add(otherReserveAddresses[i].balance);\n    }\n    return reserveGoldBalance;\n  }\n\n  /**\n   * @notice Returns the amount of unfrozen CELO included in the reserve.\n   * @return The unfrozen CELO amount included in the reserve.\n   */\n  function getUnfrozenReserveGoldBalance() public view returns (uint256) {\n    return getUnfrozenBalance().add(getOtherReserveAddressesGoldBalance());\n  }\n\n  /**\n   * @notice Returns the amount of frozen CELO in the reserve.\n   * @return The total frozen CELO in the reserve.\n   */\n  function getFrozenReserveGoldBalance() public view returns (uint256) {\n    uint256 currentDay = now / 1 days;\n    uint256 frozenDays = currentDay.sub(frozenReserveGoldStartDay);\n    if (frozenDays >= frozenReserveGoldDays) return 0;\n    return\n      frozenReserveGoldStartBalance.sub(\n        frozenReserveGoldStartBalance.mul(frozenDays).div(frozenReserveGoldDays)\n      );\n  }\n\n  /**\n   * @notice Computes the ratio of current reserve balance to total stable token valuation.\n   * @return Reserve ratio in a fixed point format.\n   */\n  function getReserveRatio() public view returns (uint256) {\n    address sortedOraclesAddress = registry.getAddressForOrDie(SORTED_ORACLES_REGISTRY_ID);\n    ISortedOracles sortedOracles = ISortedOracles(sortedOraclesAddress);\n    uint256 reserveGoldBalance = getUnfrozenReserveGoldBalance();\n    uint256 stableTokensValueInGold = 0;\n    FixidityLib.Fraction memory cgldWeight = FixidityLib.wrap(assetAllocationWeights[\"cGLD\"]);\n\n    for (uint256 i = 0; i < _tokens.length; i = i.add(1)) {\n      uint256 stableAmount;\n      uint256 goldAmount;\n      (stableAmount, goldAmount) = sortedOracles.medianRate(_tokens[i]);\n      uint256 stableTokenSupply = IERC20(_tokens[i]).totalSupply();\n      uint256 aStableTokenValueInGold = stableTokenSupply.mul(goldAmount).div(stableAmount);\n      stableTokensValueInGold = stableTokensValueInGold.add(aStableTokenValueInGold);\n    }\n    return\n      FixidityLib\n        .newFixed(reserveGoldBalance)\n        .divide(cgldWeight)\n        .divide(FixidityLib.newFixed(stableTokensValueInGold))\n        .unwrap();\n  }\n\n  /*\n   * Internal functions\n   */\n\n  /**\n   * @notice Computes a tobin tax based on the reserve ratio.\n   * @return The tobin tax expresesed as a fixidity fraction.\n   */\n  function computeTobinTax() private view returns (FixidityLib.Fraction memory) {\n    FixidityLib.Fraction memory ratio = FixidityLib.wrap(getReserveRatio());\n    if (ratio.gte(FixidityLib.wrap(tobinTaxReserveRatio))) {\n      return FixidityLib.wrap(0);\n    } else {\n      return FixidityLib.wrap(tobinTax);\n    }\n  }\n}\n",
  "sourcePath": "/Users/hiroki.yasui/go/src/github.com/celo-org/celo-monorepo/packages/protocol/contracts/stability/Reserve.sol",
  "compiler": {
    "name": "solc",
    "version": "0.5.13+commit.5b0b510c.Emscripten.clang"
  },
  "schemaVersion": "3.0.23",
  "updatedAt": "2022-05-06T03:53:13.065Z",
  "devdoc": {
    "methods": {
      "addExchangeSpender(address)": {
        "params": {
          "spender": "The address that is allowed to spend Reserve funds."
        }
      },
      "addOtherReserveAddress(address)": {
        "params": {
          "reserveAddress": "The reserve address to add."
        },
        "return": "Returns true if the transaction succeeds."
      },
      "addSpender(address)": {
        "params": {
          "spender": "The address that is allowed to spend Reserve funds."
        }
      },
      "addToken(address)": {
        "params": {
          "token": "The address of the token being stabilized."
        },
        "return": "Returns true if the transaction succeeds."
      },
      "constructor": {
        "params": {
          "test": "Set to true to skip implementation initialization"
        }
      },
      "getAssetAllocationSymbols()": {
        "return": "An array of token symbols that have been allocated."
      },
      "getAssetAllocationWeights()": {
        "return": "An array of a list of weights used for the allocation of reserve assets."
      },
      "getDailySpendingRatio()": {
        "return": "Spending ratio as unwrapped Fraction."
      },
      "getExchangeSpenders()": {
        "return": "An array of addresses permitted to spend Reserve funds."
      },
      "getFrozenReserveGoldBalance()": {
        "return": "The total frozen CELO in the reserve."
      },
      "getOrComputeTobinTax()": {
        "return": "The tobin tax amount as a fraction."
      },
      "getOtherReserveAddresses()": {
        "return": "An array of other addresses included in the reserve total."
      },
      "getOtherReserveAddressesGoldBalance()": {
        "return": "The CELO amount included in other reserve addresses."
      },
      "getReserveGoldBalance()": {
        "return": "The CELO amount included in the reserve."
      },
      "getReserveRatio()": {
        "return": "Reserve ratio in a fixed point format."
      },
      "getTokens()": {
        "return": "An array of addresses of stabilized tokens."
      },
      "getUnfrozenBalance()": {
        "return": "The total unfrozen CELO in the reserve."
      },
      "getUnfrozenReserveGoldBalance()": {
        "return": "The unfrozen CELO amount included in the reserve."
      },
      "getVersionNumber()": {
        "return": "The storage, major, minor, and patch version of the contract."
      },
      "initialize(address,uint256,uint256,uint256,uint256,bytes32[],uint256[],uint256,uint256)": {
        "params": {
          "_assetAllocationSymbols": "The symbols of the reserve assets.",
          "_assetAllocationWeights": "The reserve asset weights.",
          "_frozenDays": "The number of days during which the frozen gold thaws.",
          "_frozenGold": "The balance of reserve gold that is frozen.",
          "_spendingRatio": "The relative daily spending limit for the reserve spender.",
          "_tobinTax": "The tobin tax value as a fixidity fraction.",
          "_tobinTaxReserveRatio": "When to turn on the tobin tax, as a fixidity fraction.",
          "_tobinTaxStalenessThreshold": "The initial number of seconds to cache tobin tax value for.",
          "registryAddress": "The address of the registry core smart contract."
        }
      },
      "isOwner()": {
        "details": "Returns true if the caller is the current owner."
      },
      "owner()": {
        "details": "Returns the address of the current owner."
      },
      "removeExchangeSpender(address,uint256)": {
        "params": {
          "index": "The index in exchangeSpenderAddresses of spender.",
          "spender": "The address that is to be no longer allowed to spend Reserve funds."
        }
      },
      "removeOtherReserveAddress(address,uint256)": {
        "params": {
          "index": "The index of the reserve address in otherReserveAddresses.",
          "reserveAddress": "The reserve address to remove."
        },
        "return": "Returns true if the transaction succeeds."
      },
      "removeSpender(address)": {
        "params": {
          "spender": "The address that is to be no longer allowed to spend Reserve funds."
        }
      },
      "removeToken(address,uint256)": {
        "params": {
          "index": "The index of the token in _tokens.",
          "token": "The address of the token no longer being stabilized."
        },
        "return": "Returns true if the transaction succeeds."
      },
      "renounceOwnership()": {
        "details": "Leaves the contract without owner. It will not be possible to call `onlyOwner` functions anymore. Can only be called by the current owner.     * NOTE: Renouncing ownership will leave the contract without an owner, thereby removing any functionality that is only available to the owner."
      },
      "setAssetAllocations(bytes32[],uint256[])": {
        "params": {
          "symbols": "The symbol of each asset in the Reserve portfolio.",
          "weights": "The weight for the corresponding asset as unwrapped Fixidity.Fraction."
        }
      },
      "setDailySpendingRatio(uint256)": {
        "params": {
          "ratio": "Spending ratio as unwrapped Fraction."
        }
      },
      "setFrozenGold(uint256,uint256)": {
        "params": {
          "frozenDays": "The number of days the frozen CELO thaws over.",
          "frozenGold": "The amount of CELO frozen."
        }
      },
      "setRegistry(address)": {
        "params": {
          "registryAddress": "The address of a registry contract for routing to other contracts."
        }
      },
      "setTobinTax(uint256)": {
        "params": {
          "value": "The tobin tax."
        }
      },
      "setTobinTaxReserveRatio(uint256)": {
        "params": {
          "value": "The reserve ratio at which the tobin tax sets in."
        }
      },
      "setTobinTaxStalenessThreshold(uint256)": {
        "params": {
          "value": "The number of seconds to cache the tobin tax value for."
        }
      },
      "transferExchangeGold(address,uint256)": {
        "details": "Transfers are not subject to a daily spending limit.",
        "params": {
          "to": "The address that will receive the gold.",
          "value": "The amount of gold to transfer."
        },
        "return": "Returns true if the transaction succeeds."
      },
      "transferGold(address,uint256)": {
        "params": {
          "to": "The address that will receive the gold.",
          "value": "The amount of gold to transfer."
        },
        "return": "Returns true if the transaction succeeds."
      },
      "transferOwnership(address)": {
        "details": "Transfers ownership of the contract to a new account (`newOwner`). Can only be called by the current owner."
      }
    },
    "title": "Ensures price stability of StableTokens with respect to their pegs"
  },
  "userdoc": {
    "methods": {
      "addExchangeSpender(address)": {
        "notice": "Gives an address permission to spend Reserve without limit."
      },
      "addOtherReserveAddress(address)": {
        "notice": "Add a reserve address whose balance shall be included in the reserve ratio."
      },
      "addSpender(address)": {
        "notice": "Gives an address permission to spend Reserve funds."
      },
      "addToken(address)": {
        "notice": "Add a token that the reserve will stabilize."
      },
      "constructor": "Sets initialized == true on implementation contracts",
      "getAssetAllocationSymbols()": {
        "notice": "Returns a list of token symbols that have been allocated."
      },
      "getAssetAllocationWeights()": {
        "notice": "Returns a list of weights used for the allocation of reserve assets."
      },
      "getDailySpendingRatio()": {
        "notice": "Get daily spending ratio."
      },
      "getExchangeSpenders()": {
        "notice": "Returns addresses of exchanges permitted to spend Reserve funds. Because exchangeSpenderAddresses was introduced after cUSD, cUSD's exchange is not included in this list."
      },
      "getFrozenReserveGoldBalance()": {
        "notice": "Returns the amount of frozen CELO in the reserve."
      },
      "getOrComputeTobinTax()": {
        "notice": "Returns the tobin tax, recomputing it if it's stale."
      },
      "getOtherReserveAddresses()": {
        "notice": "Returns the list other addresses included in the reserve total."
      },
      "getOtherReserveAddressesGoldBalance()": {
        "notice": "Returns the amount of CELO included in other reserve addresses."
      },
      "getReserveGoldBalance()": {
        "notice": "Returns the amount of CELO included in the reserve."
      },
      "getReserveRatio()": {
        "notice": "Computes the ratio of current reserve balance to total stable token valuation."
      },
      "getTokens()": {
        "notice": "Returns the list of stabilized token addresses."
      },
      "getUnfrozenBalance()": {
        "notice": "Returns the amount of unfrozen CELO in the reserve."
      },
      "getUnfrozenReserveGoldBalance()": {
        "notice": "Returns the amount of unfrozen CELO included in the reserve."
      },
      "getVersionNumber()": {
        "notice": "Returns the storage, major, minor, and patch version of the contract."
      },
      "initialize(address,uint256,uint256,uint256,uint256,bytes32[],uint256[],uint256,uint256)": {
        "notice": "Used in place of the constructor to allow the contract to be upgradable via proxy."
      },
      "removeExchangeSpender(address,uint256)": {
        "notice": "Takes away an address's permission to spend Reserve funds without limits."
      },
      "removeOtherReserveAddress(address,uint256)": {
        "notice": "Remove reserve address whose balance shall no longer be included in the reserve ratio."
      },
      "removeSpender(address)": {
        "notice": "Takes away an address's permission to spend Reserve funds."
      },
      "removeToken(address,uint256)": {
        "notice": "Remove a token that the reserve will no longer stabilize."
      },
      "setAssetAllocations(bytes32[],uint256[])": {
        "notice": "Sets target allocations for CELO and a diversified basket of non-Celo assets."
      },
      "setDailySpendingRatio(uint256)": {
        "notice": "Set the ratio of reserve that is spendable per day."
      },
      "setFrozenGold(uint256,uint256)": {
        "notice": "Sets the balance of reserve gold frozen from transfer."
      },
      "setRegistry(address)": {
        "notice": "Updates the address pointing to a Registry contract."
      },
      "setTobinTax(uint256)": {
        "notice": "Sets the tobin tax."
      },
      "setTobinTaxReserveRatio(uint256)": {
        "notice": "Sets the reserve ratio at which the tobin tax sets in."
      },
      "setTobinTaxStalenessThreshold(uint256)": {
        "notice": "Sets the number of seconds to cache the tobin tax value for."
      },
      "transferExchangeGold(address,uint256)": {
        "notice": "Transfer unfrozen gold to any address, used for one side of CP-DOTO."
      },
      "transferGold(address,uint256)": {
        "notice": "Transfer gold to a whitelisted address subject to reserve spending limits."
      }
    }
  }
}