{
  "contractName": "TestTransactions",
  "abi": [
    {
      "constant": true,
      "inputs": [
        {
          "internalType": "uint256",
          "name": "",
          "type": "uint256"
        }
      ],
      "name": "values",
      "outputs": [
        {
          "internalType": "uint256",
          "name": "",
          "type": "uint256"
        }
      ],
      "payable": false,
      "stateMutability": "view",
      "type": "function"
    },
    {
      "constant": true,
      "inputs": [
        {
          "internalType": "uint256",
          "name": "key",
          "type": "uint256"
        }
      ],
      "name": "getValue",
      "outputs": [
        {
          "internalType": "uint256",
          "name": "",
          "type": "uint256"
        }
      ],
      "payable": false,
      "stateMutability": "view",
      "type": "function"
    },
    {
      "constant": false,
      "inputs": [
        {
          "internalType": "uint256",
          "name": "key",
          "type": "uint256"
        },
        {
          "internalType": "uint256",
          "name": "value",
          "type": "uint256"
        },
        {
          "internalType": "bool",
          "name": "shouldSucceed",
          "type": "bool"
        }
      ],
      "name": "setValue",
      "outputs": [],
      "payable": false,
      "stateMutability": "nonpayable",
      "type": "function"
    }
  ],
  "bytecode": "0x608060405234801561001057600080fd5b5061019d806100206000396000f3fe608060405234801561001057600080fd5b50600436106100415760003560e01c80630ff4c91614610046578063319b15bb146100885780635e383d21146100cc575b600080fd5b6100726004803603602081101561005c57600080fd5b810190808035906020019092919050505061010e565b6040518082815260200191505060405180910390f35b6100ca6004803603606081101561009e57600080fd5b81019080803590602001909291908035906020019092919080351515906020019092919050505061012a565b005b6100f8600480360360208110156100e257600080fd5b8101908080359060200190929190505050610150565b6040518082815260200191505060405180910390f35b6000806000838152602001908152602001600020549050919050565b8061013457600080fd5b8160008085815260200190815260200160002081905550505050565b6000602052806000526040600020600091509050548156fea265627a7a72315820bcafc5486b738f4c2e1f23e99f59bd85c8dae9c68b586369ac4858220dccc40964736f6c634300050d0032",
  "source": "pragma solidity ^0.5.13;\n\n/**\n * @title A contract for transaction testing.\n */\ncontract TestTransactions {\n  mapping(uint256 => uint256) public values;\n\n  function getValue(uint256 key) external view returns (uint256) {\n    return values[key];\n  }\n\n  function setValue(uint256 key, uint256 value, bool shouldSucceed) external {\n    require(shouldSucceed);\n    values[key] = value;\n  }\n}\n",
  "sourcePath": "/Users/hiroki.yasui/go/src/github.com/celo-org/celo-monorepo/packages/protocol/contracts/governance/test/TestTransactions.sol",
  "compiler": {
    "name": "solc",
    "version": "0.5.13+commit.5b0b510c.Emscripten.clang"
  },
  "schemaVersion": "3.0.23",
  "updatedAt": "2022-05-06T03:53:12.987Z",
  "devdoc": {
    "methods": {},
    "title": "A contract for transaction testing."
  },
  "userdoc": {
    "methods": {}
  }
}