{
  "contractName": "TransferWhitelist",
  "abi": [
    {
      "inputs": [
        {
          "internalType": "address",
          "name": "registryAddress",
          "type": "address"
        }
      ],
      "payable": false,
      "stateMutability": "nonpayable",
      "type": "constructor"
    },
    {
      "anonymous": false,
      "inputs": [
        {
          "indexed": true,
          "internalType": "address",
          "name": "previousOwner",
          "type": "address"
        },
        {
          "indexed": true,
          "internalType": "address",
          "name": "newOwner",
          "type": "address"
        }
      ],
      "name": "OwnershipTransferred",
      "type": "event"
    },
    {
      "anonymous": false,
      "inputs": [
        {
          "indexed": true,
          "internalType": "address",
          "name": "registryAddress",
          "type": "address"
        }
      ],
      "name": "RegistrySet",
      "type": "event"
    },
    {
      "anonymous": false,
      "inputs": [
        {
          "indexed": true,
          "internalType": "address",
          "name": "addr",
          "type": "address"
        }
      ],
      "name": "WhitelistedAddress",
      "type": "event"
    },
    {
      "anonymous": false,
      "inputs": [
        {
          "indexed": true,
          "internalType": "address",
          "name": "addr",
          "type": "address"
        }
      ],
      "name": "WhitelistedAddressRemoved",
      "type": "event"
    },
    {
      "anonymous": false,
      "inputs": [
        {
          "indexed": true,
          "internalType": "bytes32",
          "name": "contractIdentifier",
          "type": "bytes32"
        }
      ],
      "name": "WhitelistedContractIdentifier",
      "type": "event"
    },
    {
      "constant": true,
      "inputs": [],
      "name": "isOwner",
      "outputs": [
        {
          "internalType": "bool",
          "name": "",
          "type": "bool"
        }
      ],
      "payable": false,
      "stateMutability": "view",
      "type": "function"
    },
    {
      "constant": true,
      "inputs": [],
      "name": "owner",
      "outputs": [
        {
          "internalType": "address",
          "name": "",
          "type": "address"
        }
      ],
      "payable": false,
      "stateMutability": "view",
      "type": "function"
    },
    {
      "constant": true,
      "inputs": [],
      "name": "registry",
      "outputs": [
        {
          "internalType": "contract IRegistry",
          "name": "",
          "type": "address"
        }
      ],
      "payable": false,
      "stateMutability": "view",
      "type": "function"
    },
    {
      "constant": false,
      "inputs": [],
      "name": "renounceOwnership",
      "outputs": [],
      "payable": false,
      "stateMutability": "nonpayable",
      "type": "function"
    },
    {
      "constant": false,
      "inputs": [
        {
          "internalType": "address",
          "name": "registryAddress",
          "type": "address"
        }
      ],
      "name": "setRegistry",
      "outputs": [],
      "payable": false,
      "stateMutability": "nonpayable",
      "type": "function"
    },
    {
      "constant": false,
      "inputs": [
        {
          "internalType": "address",
          "name": "newOwner",
          "type": "address"
        }
      ],
      "name": "transferOwnership",
      "outputs": [],
      "payable": false,
      "stateMutability": "nonpayable",
      "type": "function"
    },
    {
      "constant": true,
      "inputs": [
        {
          "internalType": "uint256",
          "name": "",
          "type": "uint256"
        }
      ],
      "name": "whitelistedContractIdentifiers",
      "outputs": [
        {
          "internalType": "bytes32",
          "name": "",
          "type": "bytes32"
        }
      ],
      "payable": false,
      "stateMutability": "view",
      "type": "function"
    },
    {
      "constant": false,
      "inputs": [
        {
          "internalType": "address",
          "name": "newAddress",
          "type": "address"
        }
      ],
      "name": "whitelistAddress",
      "outputs": [],
      "payable": false,
      "stateMutability": "nonpayable",
      "type": "function"
    },
    {
      "constant": false,
      "inputs": [
        {
          "internalType": "address",
          "name": "removedAddress",
          "type": "address"
        },
        {
          "internalType": "uint256",
          "name": "index",
          "type": "uint256"
        }
      ],
      "name": "removeAddress",
      "outputs": [],
      "payable": false,
      "stateMutability": "nonpayable",
      "type": "function"
    },
    {
      "constant": false,
      "inputs": [
        {
          "internalType": "bytes32",
          "name": "contractIdentifier",
          "type": "bytes32"
        }
      ],
      "name": "whitelistRegisteredContract",
      "outputs": [],
      "payable": false,
      "stateMutability": "nonpayable",
      "type": "function"
    },
    {
      "constant": true,
      "inputs": [],
      "name": "getNumberOfWhitelistedContractIdentifiers",
      "outputs": [
        {
          "internalType": "uint256",
          "name": "length",
          "type": "uint256"
        }
      ],
      "payable": false,
      "stateMutability": "view",
      "type": "function"
    },
    {
      "constant": false,
      "inputs": [
        {
          "internalType": "address[]",
          "name": "_whitelist",
          "type": "address[]"
        }
      ],
      "name": "setDirectlyWhitelistedAddresses",
      "outputs": [],
      "payable": false,
      "stateMutability": "nonpayable",
      "type": "function"
    },
    {
      "constant": false,
      "inputs": [
        {
          "internalType": "bytes32[]",
          "name": "_registeredContracts",
          "type": "bytes32[]"
        }
      ],
      "name": "setWhitelistedContractIdentifiers",
      "outputs": [],
      "payable": false,
      "stateMutability": "nonpayable",
      "type": "function"
    },
    {
      "constant": true,
      "inputs": [],
      "name": "getWhitelist",
      "outputs": [
        {
          "internalType": "address[]",
          "name": "",
          "type": "address[]"
        }
      ],
      "payable": false,
      "stateMutability": "view",
      "type": "function"
    },
    {
      "constant": false,
      "inputs": [],
      "name": "selfDestruct",
      "outputs": [],
      "payable": false,
      "stateMutability": "nonpayable",
      "type": "function"
    }
  ],
  "bytecode": "0x60806040523480156200001157600080fd5b5060405162001d0638038062001d06833981810160405260208110156200003757600080fd5b810190808051906020019092919050505060006200005a6200012160201b60201c565b9050806000806101000a81548173ffffffffffffffffffffffffffffffffffffffff021916908373ffffffffffffffffffffffffffffffffffffffff1602179055508073ffffffffffffffffffffffffffffffffffffffff16600073ffffffffffffffffffffffffffffffffffffffff167f8be0079c531659141344cd1fd0a4f28419497f9722a3daafe3b4186f6b6457e060405160405180910390a35062000109336200012960201b60201c565b6200011a816200026f60201b60201c565b5062000483565b600033905090565b600073ffffffffffffffffffffffffffffffffffffffff168173ffffffffffffffffffffffffffffffffffffffff161415620001b1576040517f08c379a000000000000000000000000000000000000000000000000000000000815260040180806020018281038252602681526020018062001ce06026913960400191505060405180910390fd5b8073ffffffffffffffffffffffffffffffffffffffff166000809054906101000a900473ffffffffffffffffffffffffffffffffffffffff1673ffffffffffffffffffffffffffffffffffffffff167f8be0079c531659141344cd1fd0a4f28419497f9722a3daafe3b4186f6b6457e060405160405180910390a3806000806101000a81548173ffffffffffffffffffffffffffffffffffffffff021916908373ffffffffffffffffffffffffffffffffffffffff16021790555050565b6200027f6200041d60201b60201c565b620002f2576040517f08c379a00000000000000000000000000000000000000000000000000000000081526004018080602001828103825260208152602001807f4f776e61626c653a2063616c6c6572206973206e6f7420746865206f776e657281525060200191505060405180910390fd5b600073ffffffffffffffffffffffffffffffffffffffff168173ffffffffffffffffffffffffffffffffffffffff16141562000396576040517f08c379a00000000000000000000000000000000000000000000000000000000081526004018080602001828103825260208152602001807f43616e6e6f7420726567697374657220746865206e756c6c206164647265737381525060200191505060405180910390fd5b80600160006101000a81548173ffffffffffffffffffffffffffffffffffffffff021916908373ffffffffffffffffffffffffffffffffffffffff1602179055508073ffffffffffffffffffffffffffffffffffffffff167f27fe5f0c1c3b1ed427cc63d0f05759ffdecf9aec9e18d31ef366fc8a6cb5dc3b60405160405180910390a250565b60008060009054906101000a900473ffffffffffffffffffffffffffffffffffffffff1673ffffffffffffffffffffffffffffffffffffffff16620004676200012160201b60201c565b73ffffffffffffffffffffffffffffffffffffffff1614905090565b61184d80620004936000396000f3fe608060405234801561001057600080fd5b50600436106100f55760003560e01c8063879337f111610097578063a91ee0dc11610066578063a91ee0dc1461035d578063c0d72486146103a1578063d01f63f51461041a578063f2fde38b14610479576100f5565b8063879337f11461026e5780638da5cb5b146102e75780638f32d59b146103315780639cb8a26a14610353576100f5565b80632ed1ce72116100d35780632ed1ce721461019457806341566585146101d6578063715018a61461021a5780637b10399914610224576100f5565b80630662f008146100fa5780631dc34b891461014857806323a39b5414610166575b600080fd5b6101466004803603604081101561011057600080fd5b81019080803573ffffffffffffffffffffffffffffffffffffffff169060200190929190803590602001909291905050506104bd565b005b610150610792565b6040518082815260200191505060405180910390f35b6101926004803603602081101561017c57600080fd5b810190808035906020019092919050505061079f565b005b6101c0600480360360208110156101aa57600080fd5b81019080803590602001909291905050506109a8565b6040518082815260200191505060405180910390f35b610218600480360360208110156101ec57600080fd5b81019080803573ffffffffffffffffffffffffffffffffffffffff1690602001909291905050506109c9565b005b610222610aef565b005b61022c610c28565b604051808273ffffffffffffffffffffffffffffffffffffffff1673ffffffffffffffffffffffffffffffffffffffff16815260200191505060405180910390f35b6102e56004803603602081101561028457600080fd5b81019080803590602001906401000000008111156102a157600080fd5b8201836020820111156102b357600080fd5b803590602001918460208302840111640100000000831117156102d557600080fd5b9091929391929390505050610c4e565b005b6102ef610de3565b604051808273ffffffffffffffffffffffffffffffffffffffff1673ffffffffffffffffffffffffffffffffffffffff16815260200191505060405180910390f35b610339610e0c565b604051808215151515815260200191505060405180910390f35b61035b610e6a565b005b61039f6004803603602081101561037357600080fd5b81019080803573ffffffffffffffffffffffffffffffffffffffff169060200190929190505050610efd565b005b610418600480360360208110156103b757600080fd5b81019080803590602001906401000000008111156103d457600080fd5b8201836020820111156103e657600080fd5b8035906020019184602083028401116401000000008311171561040857600080fd5b90919293919293905050506110a1565b005b610422611131565b6040518080602001828103825283818151815260200191508051906020019060200280838360005b8381101561046557808201518184015260208101905061044a565b505050509050019250505060405180910390f35b6104bb6004803603602081101561048f57600080fd5b81019080803573ffffffffffffffffffffffffffffffffffffffff16906020019092919050505061138d565b005b6104c5610e0c565b610537576040517f08c379a00000000000000000000000000000000000000000000000000000000081526004018080602001828103825260208152602001807f4f776e61626c653a2063616c6c6572206973206e6f7420746865206f776e657281525060200191505060405180910390fd5b60028054905081106105b1576040517f08c379a000000000000000000000000000000000000000000000000000000000815260040180806020018281038252601c8152602001807f57686974656c69737420696e646578206f7574206f662072616e67650000000081525060200191505060405180910390fd5b8173ffffffffffffffffffffffffffffffffffffffff16600282815481106105d557fe5b9060005260206000200160009054906101000a900473ffffffffffffffffffffffffffffffffffffffff1673ffffffffffffffffffffffffffffffffffffffff1614610689576040517f08c379a00000000000000000000000000000000000000000000000000000000081526004018080602001828103825260138152602001807f4261642077686974656c69737420696e6465780000000000000000000000000081525060200191505060405180910390fd5b60006106a4600160028054905061141390919063ffffffff16565b905080821461073b57600281815481106106ba57fe5b9060005260206000200160009054906101000a900473ffffffffffffffffffffffffffffffffffffffff16600283815481106106f257fe5b9060005260206000200160006101000a81548173ffffffffffffffffffffffffffffffffffffffff021916908373ffffffffffffffffffffffffffffffffffffffff1602179055505b8060028161074991906116f1565b508273ffffffffffffffffffffffffffffffffffffffff167ff1abf01a1043b7c244d128e8595cf0c1d10743b022b03a02dffd8ca3bf729f5a60405160405180910390a2505050565b6000600380549050905090565b6107a7610e0c565b610819576040517f08c379a00000000000000000000000000000000000000000000000000000000081526004018080602001828103825260208152602001807f4f776e61626c653a2063616c6c6572206973206e6f7420746865206f776e657281525060200191505060405180910390fd5b600073ffffffffffffffffffffffffffffffffffffffff16600160009054906101000a900473ffffffffffffffffffffffffffffffffffffffff1673ffffffffffffffffffffffffffffffffffffffff1663dd927233836040518263ffffffff1660e01b81526004018082815260200191505060206040518083038186803b1580156108a457600080fd5b505afa1580156108b8573d6000803e3d6000fd5b505050506040513d60208110156108ce57600080fd5b810190808051906020019092919050505073ffffffffffffffffffffffffffffffffffffffff16141561094c576040517f08c379a000000000000000000000000000000000000000000000000000000000815260040180806020018281038252603e8152602001806117db603e913960400191505060405180910390fd5b6003819080600181540180825580915050906001820390600052602060002001600090919290919091505550807f4084a390e8b98bd7a32fac9847f0147f7f6773834e5738af4fe38598f80bd61960405160405180910390a250565b600381815481106109b557fe5b906000526020600020016000915090505481565b6109d1610e0c565b610a43576040517f08c379a00000000000000000000000000000000000000000000000000000000081526004018080602001828103825260208152602001807f4f776e61626c653a2063616c6c6572206973206e6f7420746865206f776e657281525060200191505060405180910390fd5b60028190806001815401808255809150509060018203906000526020600020016000909192909190916101000a81548173ffffffffffffffffffffffffffffffffffffffff021916908373ffffffffffffffffffffffffffffffffffffffff160217905550508073ffffffffffffffffffffffffffffffffffffffff167f9659de77bedae44137acf94b0b2a83c1a7e51fec986c5d6098bbde7e4f0d02e860405160405180910390a250565b610af7610e0c565b610b69576040517f08c379a00000000000000000000000000000000000000000000000000000000081526004018080602001828103825260208152602001807f4f776e61626c653a2063616c6c6572206973206e6f7420746865206f776e657281525060200191505060405180910390fd5b600073ffffffffffffffffffffffffffffffffffffffff166000809054906101000a900473ffffffffffffffffffffffffffffffffffffffff1673ffffffffffffffffffffffffffffffffffffffff167f8be0079c531659141344cd1fd0a4f28419497f9722a3daafe3b4186f6b6457e060405160405180910390a360008060006101000a81548173ffffffffffffffffffffffffffffffffffffffff021916908373ffffffffffffffffffffffffffffffffffffffff160217905550565b600160009054906101000a900473ffffffffffffffffffffffffffffffffffffffff1681565b610c56610e0c565b610cc8576040517f08c379a00000000000000000000000000000000000000000000000000000000081526004018080602001828103825260208152602001807f4f776e61626c653a2063616c6c6572206973206e6f7420746865206f776e657281525060200191505060405180910390fd5b60008090505b600280549050811015610d705760028181548110610ce857fe5b9060005260206000200160009054906101000a900473ffffffffffffffffffffffffffffffffffffffff1673ffffffffffffffffffffffffffffffffffffffff167ff1abf01a1043b7c244d128e8595cf0c1d10743b022b03a02dffd8ca3bf729f5a60405160405180910390a2610d6960018261145d90919063ffffffff16565b9050610cce565b506000600281610d8091906116f1565b5060008090505b82829050811015610dde57610dc3838383818110610da157fe5b9050602002013573ffffffffffffffffffffffffffffffffffffffff166109c9565b610dd760018261145d90919063ffffffff16565b9050610d87565b505050565b60008060009054906101000a900473ffffffffffffffffffffffffffffffffffffffff16905090565b60008060009054906101000a900473ffffffffffffffffffffffffffffffffffffffff1673ffffffffffffffffffffffffffffffffffffffff16610e4e6114e5565b73ffffffffffffffffffffffffffffffffffffffff1614905090565b610e72610e0c565b610ee4576040517f08c379a00000000000000000000000000000000000000000000000000000000081526004018080602001828103825260208152602001807f4f776e61626c653a2063616c6c6572206973206e6f7420746865206f776e657281525060200191505060405180910390fd5b3373ffffffffffffffffffffffffffffffffffffffff16ff5b610f05610e0c565b610f77576040517f08c379a00000000000000000000000000000000000000000000000000000000081526004018080602001828103825260208152602001807f4f776e61626c653a2063616c6c6572206973206e6f7420746865206f776e657281525060200191505060405180910390fd5b600073ffffffffffffffffffffffffffffffffffffffff168173ffffffffffffffffffffffffffffffffffffffff16141561101a576040517f08c379a00000000000000000000000000000000000000000000000000000000081526004018080602001828103825260208152602001807f43616e6e6f7420726567697374657220746865206e756c6c206164647265737381525060200191505060405180910390fd5b80600160006101000a81548173ffffffffffffffffffffffffffffffffffffffff021916908373ffffffffffffffffffffffffffffffffffffffff1602179055508073ffffffffffffffffffffffffffffffffffffffff167f27fe5f0c1c3b1ed427cc63d0f05759ffdecf9aec9e18d31ef366fc8a6cb5dc3b60405160405180910390a250565b6110a9610e0c565b61111b576040517f08c379a00000000000000000000000000000000000000000000000000000000081526004018080602001828103825260208152602001807f4f776e61626c653a2063616c6c6572206973206e6f7420746865206f776e657281525060200191505060405180910390fd5b81816003919061112c92919061171d565b505050565b6060600061115260038054905060028054905061145d90919063ffffffff16565b90506060816040519080825280602002602001820160405280156111855781602001602082028038833980820191505090505b50905060008090505b60028054905081101561123457600281815481106111a857fe5b9060005260206000200160009054906101000a900473ffffffffffffffffffffffffffffffffffffffff168282815181106111df57fe5b602002602001019073ffffffffffffffffffffffffffffffffffffffff16908173ffffffffffffffffffffffffffffffffffffffff168152505061122d60018261145d90919063ffffffff16565b905061118e565b60008090505b60038054905081101561138357600160009054906101000a900473ffffffffffffffffffffffffffffffffffffffff1673ffffffffffffffffffffffffffffffffffffffff1663dd9272336003838154811061129257fe5b90600052602060002001546040518263ffffffff1660e01b81526004018082815260200191505060206040518083038186803b1580156112d157600080fd5b505afa1580156112e5573d6000803e3d6000fd5b505050506040513d60208110156112fb57600080fd5b810190808051906020019092919050505083838151811061131857fe5b602002602001019073ffffffffffffffffffffffffffffffffffffffff16908173ffffffffffffffffffffffffffffffffffffffff168152505061136660018361145d90919063ffffffff16565b915061137c60018261145d90919063ffffffff16565b905061123a565b5081935050505090565b611395610e0c565b611407576040517f08c379a00000000000000000000000000000000000000000000000000000000081526004018080602001828103825260208152602001807f4f776e61626c653a2063616c6c6572206973206e6f7420746865206f776e657281525060200191505060405180910390fd5b611410816114ed565b50565b600061145583836040518060400160405280601e81526020017f536166654d6174683a207375627472616374696f6e206f766572666c6f770000815250611631565b905092915050565b6000808284019050838110156114db576040517f08c379a000000000000000000000000000000000000000000000000000000000815260040180806020018281038252601b8152602001807f536166654d6174683a206164646974696f6e206f766572666c6f77000000000081525060200191505060405180910390fd5b8091505092915050565b600033905090565b600073ffffffffffffffffffffffffffffffffffffffff168173ffffffffffffffffffffffffffffffffffffffff161415611573576040517f08c379a00000000000000000000000000000000000000000000000000000000081526004018080602001828103825260268152602001806117b56026913960400191505060405180910390fd5b8073ffffffffffffffffffffffffffffffffffffffff166000809054906101000a900473ffffffffffffffffffffffffffffffffffffffff1673ffffffffffffffffffffffffffffffffffffffff167f8be0079c531659141344cd1fd0a4f28419497f9722a3daafe3b4186f6b6457e060405160405180910390a3806000806101000a81548173ffffffffffffffffffffffffffffffffffffffff021916908373ffffffffffffffffffffffffffffffffffffffff16021790555050565b60008383111582906116de576040517f08c379a00000000000000000000000000000000000000000000000000000000081526004018080602001828103825283818151815260200191508051906020019080838360005b838110156116a3578082015181840152602081019050611688565b50505050905090810190601f1680156116d05780820380516001836020036101000a031916815260200191505b509250505060405180910390fd5b5060008385039050809150509392505050565b81548183558181111561171857818360005260206000209182019101611717919061176a565b5b505050565b828054828255906000526020600020908101928215611759579160200282015b8281111561175857823582559160200191906001019061173d565b5b509050611766919061178f565b5090565b61178c91905b80821115611788576000816000905550600101611770565b5090565b90565b6117b191905b808211156117ad576000816000905550600101611795565b5090565b9056fe4f776e61626c653a206e6577206f776e657220697320746865207a65726f2061646472657373636f6e74726163744964656e74696669657220646f6573206e6f7420636f72726573706f6e6420746f206120726567697374657265642061646472657373a265627a7a723158208cb1c6b0584058e2ff058579c2d30e6bc3548e5f9c9a7a15db2e91d093c34e5e64736f6c634300050d00324f776e61626c653a206e6577206f776e657220697320746865207a65726f2061646472657373",
  "source": "pragma solidity ^0.5.13;\n\nimport \"openzeppelin-solidity/contracts/math/SafeMath.sol\";\nimport \"openzeppelin-solidity/contracts/ownership/Ownable.sol\";\nimport \"./UsingRegistry.sol\";\n\n/**\n * @title Holds a whitelist of addresses for which transfers should not be\n * frozen so that network initialization can take place.\n */\ncontract TransferWhitelist is Ownable, UsingRegistry {\n  using SafeMath for uint256;\n\n  address[] private directlyWhitelistedAddresses;\n  bytes32[] public whitelistedContractIdentifiers;\n\n  event WhitelistedAddress(address indexed addr);\n  event WhitelistedAddressRemoved(address indexed addr);\n  event WhitelistedContractIdentifier(bytes32 indexed contractIdentifier);\n\n  constructor(address registryAddress) public {\n    _transferOwnership(msg.sender);\n    setRegistry(registryAddress);\n  }\n\n  /**\n   * @notice Add an address to the whitelist.\n   * @param newAddress The address to add.\n   */\n  function whitelistAddress(address newAddress) public onlyOwner {\n    directlyWhitelistedAddresses.push(newAddress);\n    emit WhitelistedAddress(newAddress);\n  }\n\n  /**\n   * @notice Remove an address from the whitelist.\n   * @param removedAddress The address to remove.\n   * @param index Index of address in the whitelist.\n   */\n  function removeAddress(address removedAddress, uint256 index) external onlyOwner {\n    require(index < directlyWhitelistedAddresses.length, \"Whitelist index out of range\");\n    require(directlyWhitelistedAddresses[index] == removedAddress, \"Bad whitelist index\");\n    uint256 tailIndex = directlyWhitelistedAddresses.length.sub(1);\n    if (index != tailIndex) {\n      directlyWhitelistedAddresses[index] = directlyWhitelistedAddresses[tailIndex];\n    }\n    directlyWhitelistedAddresses.length = tailIndex;\n    emit WhitelistedAddressRemoved(removedAddress);\n  }\n\n  /**\n   * @notice Adds the registry id of a whitelisted contract.\n   * @param contractIdentifier The id of the contract to be added.\n   */\n  function whitelistRegisteredContract(bytes32 contractIdentifier) external onlyOwner {\n    require(\n      registry.getAddressFor(contractIdentifier) != address(0),\n      \"contractIdentifier does not correspond to a registered address\"\n    );\n    whitelistedContractIdentifiers.push(contractIdentifier);\n    emit WhitelistedContractIdentifier(contractIdentifier);\n  }\n\n  /**\n   * @notice Gets the number of registered contracts\n   * @return The length of whitelistedContractIdentifiers\n   */\n  function getNumberOfWhitelistedContractIdentifiers() external view returns (uint256 length) {\n    return whitelistedContractIdentifiers.length;\n  }\n\n  /**\n   * @notice Set the whitelist of addresses.\n   * @param  _whitelist The new whitelist of addresses.\n   */\n  function setDirectlyWhitelistedAddresses(address[] calldata _whitelist) external onlyOwner {\n    for (uint256 i = 0; i < directlyWhitelistedAddresses.length; i = i.add(1)) {\n      emit WhitelistedAddressRemoved(directlyWhitelistedAddresses[i]);\n    }\n    directlyWhitelistedAddresses.length = 0;\n    for (uint256 i = 0; i < _whitelist.length; i = i.add(1)) {\n      whitelistAddress(_whitelist[i]);\n    }\n  }\n\n  /**\n   * @notice Set the whitelist of registered contracts.\n   * @param  _registeredContracts The new whitelist of registered contract ids.\n   */\n  function setWhitelistedContractIdentifiers(bytes32[] calldata _registeredContracts)\n    external\n    onlyOwner\n  {\n    whitelistedContractIdentifiers = _registeredContracts;\n  }\n\n  /**\n   * @notice Appends the addresses of registered contracts to the\n   * whitelist before returning the list.\n   * @dev If a registry id is not yet registered, the null address\n   * will be appended to the list instead.\n   * @return  The full whitelist of addresses.\n   */\n  function getWhitelist() external view returns (address[] memory) {\n    uint256 len = directlyWhitelistedAddresses.length.add(whitelistedContractIdentifiers.length);\n    address[] memory _whitelist = new address[](len);\n    uint256 i = 0;\n    while (i < directlyWhitelistedAddresses.length) {\n      _whitelist[i] = directlyWhitelistedAddresses[i];\n      i = i.add(1);\n    }\n    for (uint256 j = 0; j < whitelistedContractIdentifiers.length; j = j.add(1)) {\n      _whitelist[i] = registry.getAddressFor(whitelistedContractIdentifiers[j]);\n      i = i.add(1);\n    }\n    return _whitelist;\n  }\n\n  /**\n   * @notice Clears all data (storage and bytecode) at this contract's address.\n   * @dev The balance of this contract is returned to the owner.\n   */\n  function selfDestruct() external onlyOwner {\n    selfdestruct(msg.sender);\n  }\n}\n",
  "sourcePath": "/Users/hiroki.yasui/go/src/github.com/celo-org/celo-monorepo/packages/protocol/contracts/common/TransferWhitelist.sol",
  "compiler": {
    "name": "solc",
    "version": "0.5.13+commit.5b0b510c.Emscripten.clang"
  },
  "schemaVersion": "3.0.23",
  "updatedAt": "2022-05-06T03:53:12.714Z",
  "devdoc": {
    "methods": {
      "getNumberOfWhitelistedContractIdentifiers()": {
        "return": "The length of whitelistedContractIdentifiers"
      },
      "getWhitelist()": {
        "details": "If a registry id is not yet registered, the null address will be appended to the list instead.",
        "return": "The full whitelist of addresses."
      },
      "isOwner()": {
        "details": "Returns true if the caller is the current owner."
      },
      "owner()": {
        "details": "Returns the address of the current owner."
      },
      "removeAddress(address,uint256)": {
        "params": {
          "index": "Index of address in the whitelist.",
          "removedAddress": "The address to remove."
        }
      },
      "renounceOwnership()": {
        "details": "Leaves the contract without owner. It will not be possible to call `onlyOwner` functions anymore. Can only be called by the current owner.     * NOTE: Renouncing ownership will leave the contract without an owner, thereby removing any functionality that is only available to the owner."
      },
      "selfDestruct()": {
        "details": "The balance of this contract is returned to the owner."
      },
      "setDirectlyWhitelistedAddresses(address[])": {
        "params": {
          "_whitelist": "The new whitelist of addresses."
        }
      },
      "setRegistry(address)": {
        "params": {
          "registryAddress": "The address of a registry contract for routing to other contracts."
        }
      },
      "setWhitelistedContractIdentifiers(bytes32[])": {
        "params": {
          "_registeredContracts": "The new whitelist of registered contract ids."
        }
      },
      "transferOwnership(address)": {
        "details": "Transfers ownership of the contract to a new account (`newOwner`). Can only be called by the current owner."
      },
      "whitelistAddress(address)": {
        "params": {
          "newAddress": "The address to add."
        }
      },
      "whitelistRegisteredContract(bytes32)": {
        "params": {
          "contractIdentifier": "The id of the contract to be added."
        }
      }
    },
    "title": "Holds a whitelist of addresses for which transfers should not be frozen so that network initialization can take place."
  },
  "userdoc": {
    "methods": {
      "getNumberOfWhitelistedContractIdentifiers()": {
        "notice": "Gets the number of registered contracts"
      },
      "getWhitelist()": {
        "notice": "Appends the addresses of registered contracts to the whitelist before returning the list."
      },
      "removeAddress(address,uint256)": {
        "notice": "Remove an address from the whitelist."
      },
      "selfDestruct()": {
        "notice": "Clears all data (storage and bytecode) at this contract's address."
      },
      "setDirectlyWhitelistedAddresses(address[])": {
        "notice": "Set the whitelist of addresses."
      },
      "setRegistry(address)": {
        "notice": "Updates the address pointing to a Registry contract."
      },
      "setWhitelistedContractIdentifiers(bytes32[])": {
        "notice": "Set the whitelist of registered contracts."
      },
      "whitelistAddress(address)": {
        "notice": "Add an address to the whitelist."
      },
      "whitelistRegisteredContract(bytes32)": {
        "notice": "Adds the registry id of a whitelisted contract."
      }
    }
  }
}